{
  "_format": "hh-sol-artifact-1",
  "contractName": "SettlementTokenOracle",
  "sourceName": "@rage/core/contracts/oracles/SettlementTokenOracle.sol",
  "abi": [
    {
      "inputs": [
        {
          "internalType": "uint32",
          "name": "",
          "type": "uint32"
        }
      ],
      "name": "getTwapPriceX128",
      "outputs": [
        {
          "internalType": "uint256",
          "name": "priceX128",
          "type": "uint256"
        }
      ],
      "stateMutability": "pure",
      "type": "function"
    }
  ],
  "bytecode": "0x608060405234801561001057600080fd5b5060b48061001f6000396000f3fe6080604052348015600f57600080fd5b506004361060285760003560e01c8063dd86c10114602d575b600080fd5b604160383660046053565b50600160801b90565b60405190815260200160405180910390f35b600060208284031215606457600080fd5b813563ffffffff81168114607757600080fd5b939250505056fea26469706673582212203543f02ac71efd30d1fd233c9c5510e9a7877fd1f06c242e72c75d0f320d69a164736f6c634300080e0033",
  "linkReferences": {},
  "deployedLinkReferences": {}
}