{
  "_format": "hh-sol-artifact-1",
  "contractName": "Accounting",
  "sourceName": "contracts/Accounting.sol",
  "abi": [
    {
      "inputs": [
        {
          "internalType": "address",
          "name": "_liquidityPool",
          "type": "address"
        },
        {
          "internalType": "address",
          "name": "_strikeAsset",
          "type": "address"
        },
        {
          "internalType": "address",
          "name": "_underlyingAsset",
          "type": "address"
        },
        {
          "internalType": "address",
          "name": "_collateralAsset",
          "type": "address"
        }
      ],
      "stateMutability": "nonpayable",
      "type": "constructor"
    },
    {
      "inputs": [],
      "name": "EpochNotClosed",
      "type": "error"
    },
    {
      "inputs": [],
      "name": "ExistingWithdrawal",
      "type": "error"
    },
    {
      "inputs": [],
      "name": "InsufficientShareBalance",
      "type": "error"
    },
    {
      "inputs": [],
      "name": "InvalidAmount",
      "type": "error"
    },
    {
      "inputs": [],
      "name": "LiabilitiesGreaterThanAssets",
      "type": "error"
    },
    {
      "inputs": [],
      "name": "NoExistingWithdrawal",
      "type": "error"
    },
    {
      "inputs": [],
      "name": "TotalSupplyReached",
      "type": "error"
    },
    {
      "inputs": [
        {
          "internalType": "uint256",
          "name": "_shares",
          "type": "uint256"
        },
        {
          "internalType": "uint256",
          "name": "_assetPerShare",
          "type": "uint256"
        }
      ],
      "name": "amountForShares",
      "outputs": [
        {
          "internalType": "uint256",
          "name": "amount",
          "type": "uint256"
        }
      ],
      "stateMutability": "view",
      "type": "function"
    },
    {
      "inputs": [],
      "name": "collateralAsset",
      "outputs": [
        {
          "internalType": "address",
          "name": "",
          "type": "address"
        }
      ],
      "stateMutability": "view",
      "type": "function"
    },
    {
      "inputs": [
        {
          "internalType": "address",
          "name": "withdrawer",
          "type": "address"
        },
        {
          "internalType": "uint256",
          "name": "shares",
          "type": "uint256"
        }
      ],
      "name": "completeWithdraw",
      "outputs": [
        {
          "internalType": "uint256",
          "name": "withdrawalAmount",
          "type": "uint256"
        },
        {
          "internalType": "uint256",
          "name": "withdrawalShares",
          "type": "uint256"
        },
        {
          "components": [
            {
              "internalType": "uint128",
              "name": "epoch",
              "type": "uint128"
            },
            {
              "internalType": "uint128",
              "name": "shares",
              "type": "uint128"
            }
          ],
          "internalType": "struct IAccounting.WithdrawalReceipt",
          "name": "withdrawalReceipt",
          "type": "tuple"
        }
      ],
      "stateMutability": "view",
      "type": "function"
    },
    {
      "inputs": [
        {
          "internalType": "address",
          "name": "depositor",
          "type": "address"
        },
        {
          "internalType": "uint256",
          "name": "_amount",
          "type": "uint256"
        }
      ],
      "name": "deposit",
      "outputs": [
        {
          "internalType": "uint256",
          "name": "depositAmount",
          "type": "uint256"
        },
        {
          "internalType": "uint256",
          "name": "unredeemedShares",
          "type": "uint256"
        }
      ],
      "stateMutability": "view",
      "type": "function"
    },
    {
      "inputs": [
        {
          "internalType": "uint256",
          "name": "totalSupply",
          "type": "uint256"
        },
        {
          "internalType": "uint256",
          "name": "assets",
          "type": "uint256"
        },
        {
          "internalType": "int256",
          "name": "liabilities",
          "type": "int256"
        }
      ],
      "name": "executeEpochCalculation",
      "outputs": [
        {
          "internalType": "uint256",
          "name": "newPricePerShareDeposit",
          "type": "uint256"
        },
        {
          "internalType": "uint256",
          "name": "newPricePerShareWithdrawal",
          "type": "uint256"
        },
        {
          "internalType": "uint256",
          "name": "sharesToMint",
          "type": "uint256"
        },
        {
          "internalType": "uint256",
          "name": "totalWithdrawAmount",
          "type": "uint256"
        },
        {
          "internalType": "uint256",
          "name": "amountNeeded",
          "type": "uint256"
        }
      ],
      "stateMutability": "view",
      "type": "function"
    },
    {
      "inputs": [
        {
          "internalType": "address",
          "name": "withdrawer",
          "type": "address"
        },
        {
          "internalType": "uint256",
          "name": "shares",
          "type": "uint256"
        }
      ],
      "name": "initiateWithdraw",
      "outputs": [
        {
          "components": [
            {
              "internalType": "uint128",
              "name": "epoch",
              "type": "uint128"
            },
            {
              "internalType": "uint128",
              "name": "shares",
              "type": "uint128"
            }
          ],
          "internalType": "struct IAccounting.WithdrawalReceipt",
          "name": "withdrawalReceipt",
          "type": "tuple"
        }
      ],
      "stateMutability": "view",
      "type": "function"
    },
    {
      "inputs": [],
      "name": "liquidityPool",
      "outputs": [
        {
          "internalType": "contract ILiquidityPool",
          "name": "",
          "type": "address"
        }
      ],
      "stateMutability": "view",
      "type": "function"
    },
    {
      "inputs": [
        {
          "internalType": "address",
          "name": "redeemer",
          "type": "address"
        },
        {
          "internalType": "uint256",
          "name": "shares",
          "type": "uint256"
        }
      ],
      "name": "redeem",
      "outputs": [
        {
          "internalType": "uint256",
          "name": "toRedeem",
          "type": "uint256"
        },
        {
          "components": [
            {
              "internalType": "uint128",
              "name": "epoch",
              "type": "uint128"
            },
            {
              "internalType": "uint128",
              "name": "amount",
              "type": "uint128"
            },
            {
              "internalType": "uint256",
              "name": "unredeemedShares",
              "type": "uint256"
            }
          ],
          "internalType": "struct IAccounting.DepositReceipt",
          "name": "",
          "type": "tuple"
        }
      ],
      "stateMutability": "view",
      "type": "function"
    },
    {
      "inputs": [
        {
          "internalType": "uint256",
          "name": "_amount",
          "type": "uint256"
        },
        {
          "internalType": "uint256",
          "name": "assetPerShare",
          "type": "uint256"
        }
      ],
      "name": "sharesForAmount",
      "outputs": [
        {
          "internalType": "uint256",
          "name": "shares",
          "type": "uint256"
        }
      ],
      "stateMutability": "view",
      "type": "function"
    },
    {
      "inputs": [],
      "name": "strikeAsset",
      "outputs": [
        {
          "internalType": "address",
          "name": "",
          "type": "address"
        }
      ],
      "stateMutability": "view",
      "type": "function"
    },
    {
      "inputs": [],
      "name": "underlyingAsset",
      "outputs": [
        {
          "internalType": "address",
          "name": "",
          "type": "address"
        }
      ],
      "stateMutability": "view",
      "type": "function"
    }
  ],
  "bytecode": "0x6101006040523480156200001257600080fd5b506040516200187c3803806200187c833981016040819052620000359162000075565b6001600160a01b0393841660805291831660a052821660c0521660e052620000d2565b80516001600160a01b03811681146200007057600080fd5b919050565b600080600080608085870312156200008c57600080fd5b620000978562000058565b9350620000a76020860162000058565b9250620000b76040860162000058565b9150620000c76060860162000058565b905092959194509250565b60805160a05160c05160e0516116d7620001a56000396000818161024501528181610508015281816105db015281816107810152611228015260006101fc0152600060b30152600081816101d5015281816102c5015281816103380152818161041701528181610671015281816106f7015281816107df015281816108ae0152818161097c01528181610a4b01528181610ae201528181610b6f01528181610c5901528181610d2001528181610df901528181610eca01528181610f5a01528181610ffc01526111a601526116d76000f3fe608060405234801561001057600080fd5b50600436106100a95760003560e01c806355676bad1161007157806355676bad14610195578063665a11ca146101d05780637158da7c146101f75780637b66394c1461021e578063aabaecd614610240578063c4bf09361461026757600080fd5b806317d69bc8146100ae5780631e9a6950146100f257806332afc309146101395780634513576e1461015a57806347e7ef241461016d575b600080fd5b6100d57f000000000000000000000000000000000000000000000000000000000000000081565b6040516001600160a01b0390911681526020015b60405180910390f35b6101056101003660046112b3565b610287565b6040805192835281516001600160801b039081166020808601919091528301511683820152015160608201526080016100e9565b61014c6101473660046112eb565b6104ff565b6040519081526020016100e9565b61014c6101683660046112eb565b6105b7565b61018061017b3660046112b3565b61066a565b604080519283526020830191909152016100e9565b6101a86101a336600461130d565b610a40565b604080519586526020860194909452928401919091526060830152608082015260a0016100e9565b6100d57f000000000000000000000000000000000000000000000000000000000000000081565b6100d57f000000000000000000000000000000000000000000000000000000000000000081565b61023161022c3660046112b3565b610c21565b6040516100e993929190611339565b6100d57f000000000000000000000000000000000000000000000000000000000000000081565b61027a6102753660046112b3565b610e97565b6040516100e99190611369565b6040805160608101825260008082526020820181905291810182905260405163338cd97760e11b81526001600160a01b0385811660048301526000917f000000000000000000000000000000000000000000000000000000000000000090911690636719b2ee90602401606060405180830381865afa15801561030e573d6000803e3d6000fd5b505050506040513d601f19601f8201168201806040525081019061033291906113a9565b905060007f00000000000000000000000000000000000000000000000000000000000000006001600160a01b031663dc1bee0d6040518163ffffffff1660e01b8152600401602060405180830381865afa158015610394573d6000803e3d6000fd5b505050506040513d601f19601f820116820180604052508101906103b8919061141f565b60408301518351919250906001600160801b0316158015906103e3575082516001600160801b031682115b15610498576020830151835160405163274a961360e11b81526001600160801b03918216600482015261048b9291909116907f00000000000000000000000000000000000000000000000000000000000000006001600160a01b031690634e952c26906024015b602060405180830381865afa158015610467573d6000803e3d6000fd5b505050506040513d601f19601f82011682018060405250810190610147919061141f565b610495908261144e565b90505b8086116104a557856104a7565b805b9450846000036104c057600083945094505050506104f8565b82516001600160801b03168211156104da57600060208401525b6104e48582611466565b6001600160801b0316604084015250909150505b9250929050565b600080610590847f00000000000000000000000000000000000000000000000000000000000000006001600160a01b031663313ce5676040518163ffffffff1660e01b8152600401602060405180830381865afa158015610564573d6000803e3d6000fd5b505050506040513d601f19601f82011682018060405250810190610588919061147d565b60ff166110eb565b9050826105a5670de0b6b3a7640000836114a0565b6105af91906114bf565b949350505050565b6000610663670de0b6b3a76400006105cf84866114a0565b6105d991906114bf565b7f00000000000000000000000000000000000000000000000000000000000000006001600160a01b031663313ce5676040518163ffffffff1660e01b8152600401602060405180830381865afa158015610637573d6000803e3d6000fd5b505050506040513d601f19601f8201168201806040525081019061065b919061147d565b60ff16611125565b9392505050565b60008060007f00000000000000000000000000000000000000000000000000000000000000006001600160a01b031663d2bb18e96040518163ffffffff1660e01b8152600401602060405180830381865afa1580156106cd573d6000803e3d6000fd5b505050506040513d601f19601f820116820180604052508101906106f1919061141f565b905060007f00000000000000000000000000000000000000000000000000000000000000006001600160a01b031663dc1bee0d6040518163ffffffff1660e01b8152600401602060405180830381865afa158015610753573d6000803e3d6000fd5b505050506040513d601f19601f82011682018060405250810190610777919061141f565b905060006107dd867f00000000000000000000000000000000000000000000000000000000000000006001600160a01b031663313ce5676040518163ffffffff1660e01b8152600401602060405180830381865afa158015610564573d6000803e3d6000fd5b7f00000000000000000000000000000000000000000000000000000000000000006001600160a01b03166367e4ac2c6040518163ffffffff1660e01b8152600401602060405180830381865afa15801561083b573d6000803e3d6000fd5b505050506040513d601f19601f8201168201806040525081019061085f919061141f565b610869919061144e565b90508281111561088c57604051637be9badb60e01b815260040160405180910390fd5b60405163338cd97760e11b81526001600160a01b0388811660048301526000917f000000000000000000000000000000000000000000000000000000000000000090911690636719b2ee90602401606060405180830381865afa1580156108f7573d6000803e3d6000fd5b505050506040513d601f19601f8201168201806040525081019061091b91906113a9565b604081015181519096509091506001600160801b031615801590610948575080516001600160801b031683115b156109c0576020810151815160405163274a961360e11b81526001600160801b0391821660048201526109b39291909116907f00000000000000000000000000000000000000000000000000000000000000006001600160a01b031690634e952c269060240161044a565b6109bd908661144e565b94505b80518796506001600160801b031683036109ef5760208101516109ec906001600160801b03168761144e565b95505b6001600160801b03861115610a355760405162461bcd60e51b81526020600482015260086024820152676f766572666c6f7760c01b604482015260640160405180910390fd5b505050509250929050565b6000806000806000807f00000000000000000000000000000000000000000000000000000000000000006001600160a01b031663cda2dd9a6040518163ffffffff1660e01b8152600401602060405180830381865afa158015610aa7573d6000803e3d6000fd5b505050506040513d601f19601f82011682018060405250810190610acb919061141f565b9050610ad8898989611159565b9450849550610b687f00000000000000000000000000000000000000000000000000000000000000006001600160a01b0316635c074f446040518163ffffffff1660e01b8152600401602060405180830381865afa158015610b3e573d6000803e3d6000fd5b505050506040513d601f19601f82011682018060405250810190610b62919061141f565b876104ff565b9350610bf57f00000000000000000000000000000000000000000000000000000000000000006001600160a01b031663beca03d56040518163ffffffff1660e01b8152600401602060405180830381865afa158015610bcb573d6000803e3d6000fd5b505050506040513d601f19601f82011682018060405250810190610bef919061141f565b866105b7565b925082811115610c085760009150610c15565b610c128184611466565b91505b50939792965093509350565b60408051808201909152600080825260208201819052908190604051634b24d85160e11b81526001600160a01b0386811660048301527f00000000000000000000000000000000000000000000000000000000000000001690639649b0a2906024016040805180830381865afa158015610c9f573d6000803e3d6000fd5b505050506040513d601f19601f82011682018060405250810190610cc391906114e1565b905080602001516001600160801b03168411610cdf5783610cee565b80602001516001600160801b03165b81519092506001600160801b03166000839003610d1e5760405163e3c0287b60e01b815260040160405180910390fd5b7f00000000000000000000000000000000000000000000000000000000000000006001600160a01b031663802aaa5f6040518163ffffffff1660e01b8152600401602060405180830381865afa158015610d7c573d6000803e3d6000fd5b505050506040513d601f19601f82011682018060405250810190610da0919061141f565b8103610dbf576040516339c1569960e01b815260040160405180910390fd5b8282602001818151610dd1919061154a565b6001600160801b0316905250604051630a67daad60e01b815260048101829052610e6c9084907f00000000000000000000000000000000000000000000000000000000000000006001600160a01b031690630a67daad90602401602060405180830381865afa158015610e48573d6000803e3d6000fd5b505050506040513d601f19601f82011682018060405250810190610168919061141f565b935083600003610e8f5760405163162908e360e11b815260040160405180910390fd5b509250925092565b6040805180820182526000808252602082015290516370a0823160e01b81526001600160a01b03848116600483015283917f0000000000000000000000000000000000000000000000000000000000000000909116906370a0823190602401602060405180830381865afa158015610f13573d6000803e3d6000fd5b505050506040513d601f19601f82011682018060405250810190610f37919061141f565b1015610f565760405163af4e51c760e01b815260040160405180910390fd5b60007f00000000000000000000000000000000000000000000000000000000000000006001600160a01b031663802aaa5f6040518163ffffffff1660e01b8152600401602060405180830381865afa158015610fb6573d6000803e3d6000fd5b505050506040513d601f19601f82011682018060405250810190610fda919061141f565b604051634b24d85160e11b81526001600160a01b0386811660048301529192507f000000000000000000000000000000000000000000000000000000000000000090911690639649b0a2906024016040805180830381865afa158015611044573d6000803e3d6000fd5b505050506040513d601f19601f8201168201806040525081019061106891906114e1565b9150600082602001516001600160801b0316905060008284600001516001600160801b0316036110a35761109c858361144e565b90506110d4565b60648211156110c55760405163029ceadb60e21b815260040160405180910390fd5b506001600160801b0382168352835b6001600160801b0316602084015250909392505050565b600060128211156110fb57600080fd5b6000611108836012611466565b905061111581600a611656565b6105af90856114a0565b92915050565b6000601282111561113557600080fd5b6000611142836012611466565b905061114f81600a611656565b6105af90856114bf565b60008183121561117c576040516307e42e3b60e21b815260040160405180910390fd5b60006111888385611662565b9050600085116111a057670de0b6b3a76400006112aa565b846112847f00000000000000000000000000000000000000000000000000000000000000006001600160a01b0316635c074f446040518163ffffffff1660e01b8152600401602060405180830381865afa158015611202573d6000803e3d6000fd5b505050506040513d601f19601f82011682018060405250810190611226919061141f565b7f00000000000000000000000000000000000000000000000000000000000000006001600160a01b031663313ce5676040518163ffffffff1660e01b8152600401602060405180830381865afa158015610564573d6000803e3d6000fd5b61128e9083611466565b6112a090670de0b6b3a76400006114a0565b6112aa91906114bf565b95945050505050565b600080604083850312156112c657600080fd5b82356001600160a01b03811681146112dd57600080fd5b946020939093013593505050565b600080604083850312156112fe57600080fd5b50508035926020909101359150565b60008060006060848603121561132257600080fd5b505081359360208301359350604090920135919050565b838152602080820184905282516001600160801b03908116604084015290830151166060820152608081016105af565b6040810161111f828480516001600160801b03908116835260209182015116910152565b80516001600160801b03811681146113a457600080fd5b919050565b6000606082840312156113bb57600080fd5b6040516060810181811067ffffffffffffffff821117156113ec57634e487b7160e01b600052604160045260246000fd5b6040526113f88361138d565b81526114066020840161138d565b6020820152604083015160408201528091505092915050565b60006020828403121561143157600080fd5b5051919050565b634e487b7160e01b600052601160045260246000fd5b6000821982111561146157611461611438565b500190565b60008282101561147857611478611438565b500390565b60006020828403121561148f57600080fd5b815160ff8116811461066357600080fd5b60008160001904831182151516156114ba576114ba611438565b500290565b6000826114dc57634e487b7160e01b600052601260045260246000fd5b500490565b6000604082840312156114f357600080fd5b6040516040810181811067ffffffffffffffff8211171561152457634e487b7160e01b600052604160045260246000fd5b6040526115308361138d565b815261153e6020840161138d565b60208201529392505050565b60006001600160801b038381169083168181101561156a5761156a611438565b039392505050565b600181815b808511156115ad57816000190482111561159357611593611438565b808516156115a057918102915b93841c9390800290611577565b509250929050565b6000826115c45750600161111f565b816115d15750600061111f565b81600181146115e757600281146115f15761160d565b600191505061111f565b60ff84111561160257611602611438565b50506001821b61111f565b5060208310610133831016604e8410600b8410161715611630575081810a61111f565b61163a8383611572565b806000190482111561164e5761164e611438565b029392505050565b600061066383836115b5565b60008083128015600160ff1b85018412161561168057611680611438565b6001600160ff1b038401831381161561169b5761169b611438565b5050039056fea2646970667358221220f0352320dec6015a0d0c5873c8f6384d825cb1cc1de7005d39627eefbb93570c64736f6c634300080e0033",
  "linkReferences": {},
  "deployedLinkReferences": {}
}