{
  "contracts/libraries/PRBMathUD60x18.sol": {
    "PRBMathUint": {
      "abi": [
        {
          "inputs": [
            {
              "internalType": "uint256",
              "name": "x",
              "type": "uint256"
            }
          ],
          "name": "PRBMathUD60x18__CeilOverflow",
          "type": "error"
        },
        {
          "inputs": [
            {
              "internalType": "uint256",
              "name": "x",
              "type": "uint256"
            }
          ],
          "name": "PRBMathUD60x18__Exp2InputTooBig",
          "type": "error"
        },
        {
          "inputs": [
            {
              "internalType": "uint256",
              "name": "x",
              "type": "uint256"
            }
          ],
          "name": "PRBMathUD60x18__ExpInputTooBig",
          "type": "error"
        },
        {
          "inputs": [
            {
              "internalType": "uint256",
              "name": "x",
              "type": "uint256"
            }
          ],
          "name": "PRBMathUD60x18__FromUintOverflow",
          "type": "error"
        },
        {
          "inputs": [
            {
              "internalType": "uint256",
              "name": "x",
              "type": "uint256"
            },
            {
              "internalType": "uint256",
              "name": "y",
              "type": "uint256"
            }
          ],
          "name": "PRBMathUD60x18__GmOverflow",
          "type": "error"
        },
        {
          "inputs": [
            {
              "internalType": "uint256",
              "name": "x",
              "type": "uint256"
            }
          ],
          "name": "PRBMathUD60x18__LogInputTooSmall",
          "type": "error"
        },
        {
          "inputs": [
            {
              "internalType": "uint256",
              "name": "x",
              "type": "uint256"
            }
          ],
          "name": "PRBMathUD60x18__SqrtOverflow",
          "type": "error"
        },
        {
          "inputs": [
            {
              "internalType": "uint256",
              "name": "prod1",
              "type": "uint256"
            }
          ],
          "name": "PRBMath__MulDivFixedPointOverflow",
          "type": "error"
        },
        {
          "inputs": [
            {
              "internalType": "uint256",
              "name": "prod1",
              "type": "uint256"
            },
            {
              "internalType": "uint256",
              "name": "denominator",
              "type": "uint256"
            }
          ],
          "name": "PRBMath__MulDivOverflow",
          "type": "error"
        },
        {
          "inputs": [
            {
              "internalType": "uint256",
              "name": "x",
              "type": "uint256"
            },
            {
              "internalType": "uint256",
              "name": "y",
              "type": "uint256"
            }
          ],
          "name": "avg",
          "outputs": [
            {
              "internalType": "uint256",
              "name": "result",
              "type": "uint256"
            }
          ],
          "stateMutability": "pure",
          "type": "function"
        },
        {
          "inputs": [
            {
              "internalType": "uint256",
              "name": "x",
              "type": "uint256"
            }
          ],
          "name": "ceil",
          "outputs": [
            {
              "internalType": "uint256",
              "name": "result",
              "type": "uint256"
            }
          ],
          "stateMutability": "pure",
          "type": "function"
        },
        {
          "inputs": [
            {
              "internalType": "uint256",
              "name": "x",
              "type": "uint256"
            },
            {
              "internalType": "uint256",
              "name": "y",
              "type": "uint256"
            }
          ],
          "name": "div",
          "outputs": [
            {
              "internalType": "uint256",
              "name": "result",
              "type": "uint256"
            }
          ],
          "stateMutability": "pure",
          "type": "function"
        },
        {
          "inputs": [],
          "name": "e",
          "outputs": [
            {
              "internalType": "uint256",
              "name": "result",
              "type": "uint256"
            }
          ],
          "stateMutability": "pure",
          "type": "function"
        },
        {
          "inputs": [
            {
              "internalType": "uint256",
              "name": "x",
              "type": "uint256"
            }
          ],
          "name": "exp",
          "outputs": [
            {
              "internalType": "uint256",
              "name": "result",
              "type": "uint256"
            }
          ],
          "stateMutability": "pure",
          "type": "function"
        },
        {
          "inputs": [
            {
              "internalType": "uint256",
              "name": "x",
              "type": "uint256"
            }
          ],
          "name": "exp2",
          "outputs": [
            {
              "internalType": "uint256",
              "name": "result",
              "type": "uint256"
            }
          ],
          "stateMutability": "pure",
          "type": "function"
        },
        {
          "inputs": [
            {
              "internalType": "uint256",
              "name": "x",
              "type": "uint256"
            }
          ],
          "name": "floor",
          "outputs": [
            {
              "internalType": "uint256",
              "name": "result",
              "type": "uint256"
            }
          ],
          "stateMutability": "pure",
          "type": "function"
        },
        {
          "inputs": [
            {
              "internalType": "uint256",
              "name": "x",
              "type": "uint256"
            }
          ],
          "name": "frac",
          "outputs": [
            {
              "internalType": "uint256",
              "name": "result",
              "type": "uint256"
            }
          ],
          "stateMutability": "pure",
          "type": "function"
        },
        {
          "inputs": [
            {
              "internalType": "uint256",
              "name": "x",
              "type": "uint256"
            }
          ],
          "name": "fromUint",
          "outputs": [
            {
              "internalType": "uint256",
              "name": "result",
              "type": "uint256"
            }
          ],
          "stateMutability": "pure",
          "type": "function"
        },
        {
          "inputs": [
            {
              "internalType": "uint256",
              "name": "x",
              "type": "uint256"
            },
            {
              "internalType": "uint256",
              "name": "y",
              "type": "uint256"
            }
          ],
          "name": "gm",
          "outputs": [
            {
              "internalType": "uint256",
              "name": "result",
              "type": "uint256"
            }
          ],
          "stateMutability": "pure",
          "type": "function"
        },
        {
          "inputs": [
            {
              "internalType": "uint256",
              "name": "x",
              "type": "uint256"
            }
          ],
          "name": "inv",
          "outputs": [
            {
              "internalType": "uint256",
              "name": "result",
              "type": "uint256"
            }
          ],
          "stateMutability": "pure",
          "type": "function"
        },
        {
          "inputs": [
            {
              "internalType": "uint256",
              "name": "x",
              "type": "uint256"
            }
          ],
          "name": "ln",
          "outputs": [
            {
              "internalType": "uint256",
              "name": "result",
              "type": "uint256"
            }
          ],
          "stateMutability": "pure",
          "type": "function"
        },
        {
          "inputs": [
            {
              "internalType": "uint256",
              "name": "x",
              "type": "uint256"
            }
          ],
          "name": "log10",
          "outputs": [
            {
              "internalType": "uint256",
              "name": "result",
              "type": "uint256"
            }
          ],
          "stateMutability": "pure",
          "type": "function"
        },
        {
          "inputs": [
            {
              "internalType": "uint256",
              "name": "x",
              "type": "uint256"
            }
          ],
          "name": "log2",
          "outputs": [
            {
              "internalType": "uint256",
              "name": "result",
              "type": "uint256"
            }
          ],
          "stateMutability": "pure",
          "type": "function"
        },
        {
          "inputs": [
            {
              "internalType": "uint256",
              "name": "x",
              "type": "uint256"
            },
            {
              "internalType": "uint256",
              "name": "y",
              "type": "uint256"
            }
          ],
          "name": "mul",
          "outputs": [
            {
              "internalType": "uint256",
              "name": "result",
              "type": "uint256"
            }
          ],
          "stateMutability": "pure",
          "type": "function"
        },
        {
          "inputs": [],
          "name": "pi",
          "outputs": [
            {
              "internalType": "uint256",
              "name": "result",
              "type": "uint256"
            }
          ],
          "stateMutability": "pure",
          "type": "function"
        },
        {
          "inputs": [
            {
              "internalType": "uint256",
              "name": "x",
              "type": "uint256"
            },
            {
              "internalType": "uint256",
              "name": "y",
              "type": "uint256"
            }
          ],
          "name": "pow",
          "outputs": [
            {
              "internalType": "uint256",
              "name": "result",
              "type": "uint256"
            }
          ],
          "stateMutability": "pure",
          "type": "function"
        },
        {
          "inputs": [
            {
              "internalType": "uint256",
              "name": "x",
              "type": "uint256"
            },
            {
              "internalType": "uint256",
              "name": "y",
              "type": "uint256"
            }
          ],
          "name": "powu",
          "outputs": [
            {
              "internalType": "uint256",
              "name": "result",
              "type": "uint256"
            }
          ],
          "stateMutability": "pure",
          "type": "function"
        },
        {
          "inputs": [],
          "name": "scale",
          "outputs": [
            {
              "internalType": "uint256",
              "name": "result",
              "type": "uint256"
            }
          ],
          "stateMutability": "pure",
          "type": "function"
        },
        {
          "inputs": [
            {
              "internalType": "uint256",
              "name": "x",
              "type": "uint256"
            }
          ],
          "name": "sqrt",
          "outputs": [
            {
              "internalType": "uint256",
              "name": "result",
              "type": "uint256"
            }
          ],
          "stateMutability": "pure",
          "type": "function"
        },
        {
          "inputs": [
            {
              "internalType": "uint256",
              "name": "x",
              "type": "uint256"
            }
          ],
          "name": "toUint",
          "outputs": [
            {
              "internalType": "uint256",
              "name": "result",
              "type": "uint256"
            }
          ],
          "stateMutability": "pure",
          "type": "function"
        }
      ],
      "devdoc": {
        "author": "Paul Razvan Berg",
        "kind": "dev",
        "methods": {
          "avg(uint256,uint256)": {
            "params": {
              "x": "The first operand as an unsigned 60.18-decimal fixed-point number.",
              "y": "The second operand as an unsigned 60.18-decimal fixed-point number."
            },
            "returns": {
              "result": "The arithmetic average as an unsigned 60.18-decimal fixed-point number."
            }
          },
          "ceil(uint256)": {
            "details": "Optimized for fractional value inputs, because for every whole value there are (1e18 - 1) fractional counterparts. See https://en.wikipedia.org/wiki/Floor_and_ceiling_functions. Requirements: - x must be less than or equal to MAX_WHOLE_UD60x18.",
            "params": {
              "result": "The least integer greater than or equal to x, as an unsigned 60.18-decimal fixed-point number.",
              "x": "The unsigned 60.18-decimal fixed-point number to ceil."
            }
          },
          "div(uint256,uint256)": {
            "details": "Uses mulDiv to enable overflow-safe multiplication and division. Requirements: - The denominator cannot be zero.",
            "params": {
              "result": "The quotient as an unsigned 60.18-decimal fixed-point number.",
              "x": "The numerator as an unsigned 60.18-decimal fixed-point number.",
              "y": "The denominator as an unsigned 60.18-decimal fixed-point number."
            }
          },
          "e()": {
            "details": "See https://en.wikipedia.org/wiki/E_(mathematical_constant)."
          },
          "exp(uint256)": {
            "details": "Based on the insight that e^x = 2^(x * log2(e)). Requirements: - All from \"log2\". - x must be less than 133.084258667509499441.",
            "params": {
              "x": "The exponent as an unsigned 60.18-decimal fixed-point number."
            },
            "returns": {
              "result": "The result as an unsigned 60.18-decimal fixed-point number."
            }
          },
          "exp2(uint256)": {
            "details": "See https://ethereum.stackexchange.com/q/79903/24693. Requirements: - x must be 192 or less. - The result must fit within MAX_UD60x18.",
            "params": {
              "x": "The exponent as an unsigned 60.18-decimal fixed-point number."
            },
            "returns": {
              "result": "The result as an unsigned 60.18-decimal fixed-point number."
            }
          },
          "floor(uint256)": {
            "details": "Optimized for fractional value inputs, because for every whole value there are (1e18 - 1) fractional counterparts. See https://en.wikipedia.org/wiki/Floor_and_ceiling_functions.",
            "params": {
              "result": "The greatest integer less than or equal to x, as an unsigned 60.18-decimal fixed-point number.",
              "x": "The unsigned 60.18-decimal fixed-point number to floor."
            }
          },
          "frac(uint256)": {
            "details": "Based on the odd function definition https://en.wikipedia.org/wiki/Fractional_part.",
            "params": {
              "result": "The fractional part of x as an unsigned 60.18-decimal fixed-point number.",
              "x": "The unsigned 60.18-decimal fixed-point number to get the fractional part of."
            }
          },
          "fromUint(uint256)": {
            "details": "Requirements: - x must be less than or equal to MAX_UD60x18 divided by SCALE.",
            "params": {
              "result": "The same number in unsigned 60.18-decimal fixed-point representation.",
              "x": "The basic integer to convert."
            }
          },
          "gm(uint256,uint256)": {
            "details": "Requirements: - x * y must fit within MAX_UD60x18, lest it overflows.",
            "params": {
              "x": "The first operand as an unsigned 60.18-decimal fixed-point number.",
              "y": "The second operand as an unsigned 60.18-decimal fixed-point number."
            },
            "returns": {
              "result": "The result as an unsigned 60.18-decimal fixed-point number."
            }
          },
          "inv(uint256)": {
            "details": "Requirements: - x cannot be zero.",
            "params": {
              "x": "The unsigned 60.18-decimal fixed-point number for which to calculate the inverse."
            },
            "returns": {
              "result": "The inverse as an unsigned 60.18-decimal fixed-point number."
            }
          },
          "ln(uint256)": {
            "details": "Based on the insight that ln(x) = log2(x) / log2(e). Requirements: - All from \"log2\". Caveats: - All from \"log2\". - This doesn't return exactly 1 for 2.718281828459045235, for that we would need more fine-grained precision.",
            "params": {
              "x": "The unsigned 60.18-decimal fixed-point number for which to calculate the natural logarithm."
            },
            "returns": {
              "result": "The natural logarithm as an unsigned 60.18-decimal fixed-point number."
            }
          },
          "log10(uint256)": {
            "details": "First checks if x is an exact power of ten and it stops if yes. If it's not, calculates the common logarithm based on the insight that log10(x) = log2(x) / log2(10). Requirements: - All from \"log2\". Caveats: - All from \"log2\".",
            "params": {
              "x": "The unsigned 60.18-decimal fixed-point number for which to calculate the common logarithm."
            },
            "returns": {
              "result": "The common logarithm as an unsigned 60.18-decimal fixed-point number."
            }
          },
          "log2(uint256)": {
            "details": "Based on the iterative approximation algorithm. https://en.wikipedia.org/wiki/Binary_logarithm#Iterative_approximation Requirements: - x must be greater than or equal to SCALE, otherwise the result would be negative. Caveats: - The results are nor perfectly accurate to the last decimal, due to the lossy precision of the iterative approximation.",
            "params": {
              "x": "The unsigned 60.18-decimal fixed-point number for which to calculate the binary logarithm."
            },
            "returns": {
              "result": "The binary logarithm as an unsigned 60.18-decimal fixed-point number."
            }
          },
          "mul(uint256,uint256)": {
            "details": "See the documentation for the \"PRBMath.mulDivFixedPoint\" function.",
            "params": {
              "x": "The multiplicand as an unsigned 60.18-decimal fixed-point number.",
              "y": "The multiplier as an unsigned 60.18-decimal fixed-point number."
            },
            "returns": {
              "result": "The product as an unsigned 60.18-decimal fixed-point number."
            }
          },
          "pow(uint256,uint256)": {
            "details": "Based on the insight that x^y = 2^(log2(x) * y). Requirements: - All from \"exp2\", \"log2\" and \"mul\". Caveats: - All from \"exp2\", \"log2\" and \"mul\". - Assumes 0^0 is 1.",
            "params": {
              "x": "Number to raise to given power y, as an unsigned 60.18-decimal fixed-point number.",
              "y": "Exponent to raise x to, as an unsigned 60.18-decimal fixed-point number."
            },
            "returns": {
              "result": "x raised to power y, as an unsigned 60.18-decimal fixed-point number."
            }
          },
          "powu(uint256,uint256)": {
            "details": "See https://en.wikipedia.org/wiki/Exponentiation_by_squaring Requirements: - The result must fit within MAX_UD60x18. Caveats: - All from \"mul\". - Assumes 0^0 is 1.",
            "params": {
              "x": "The base as an unsigned 60.18-decimal fixed-point number.",
              "y": "The exponent as an uint256."
            },
            "returns": {
              "result": "The result as an unsigned 60.18-decimal fixed-point number."
            }
          },
          "sqrt(uint256)": {
            "details": "Uses the Babylonian method https://en.wikipedia.org/wiki/Methods_of_computing_square_roots#Babylonian_method. Requirements: - x must be less than MAX_UD60x18 / SCALE.",
            "params": {
              "x": "The unsigned 60.18-decimal fixed-point number for which to calculate the square root."
            },
            "returns": {
              "result": "The result as an unsigned 60.18-decimal fixed-point ."
            }
          },
          "toUint(uint256)": {
            "params": {
              "x": "The unsigned 60.18-decimal fixed-point number to convert."
            },
            "returns": {
              "result": "The same number in basic integer form."
            }
          }
        },
        "stateVariables": {
          "HALF_SCALE": {
            "details": "Half the SCALE number."
          },
          "LOG2_E": {
            "details": "log2(e) as an unsigned 60.18-decimal fixed-point number."
          },
          "MAX_UD60x18": {
            "details": "The maximum value an unsigned 60.18-decimal fixed-point number can have."
          },
          "MAX_WHOLE_UD60x18": {
            "details": "The maximum whole value an unsigned 60.18-decimal fixed-point number can have."
          },
          "SCALE": {
            "details": "How many trailing decimals can be represented."
          }
        },
        "title": "PRBMathUD60x18",
        "version": 1
      },
      "evm": {
        "bytecode": {
          "linkReferences": {},
          "object": "611ece61003a600b82828239805160001a60731461002d57634e487b7160e01b600052600060045260246000fd5b30600052607381538281f3fe73000000000000000000000000000000000000000030146080604052600436106101415760003560e01c80637d2b1efb116100c2578063c8a4ac9c11610086578063c8a4ac9c14610288578063db1400681461029b578063e3814b19146102bb578063ebdae5f9146102ce578063f51e181a146102e1578063ffae15ba146102ef57600080fd5b80637d2b1efb1461022957806399a04f2f1461023c578063a391c15b1461024f578063a75826ae14610262578063b581fbe31461027557600080fd5b80635456bf13116101095780635456bf13146101c157806357f5c63c146101d4578063677342ce146101e7578063728e8c7f146101fa5780637a142f2e1461021657600080fd5b806324d4e90a146101465780632dd9868d1461016b5780632e4c697f1461017957806340f0a21f1461018c578063504f5e561461019f575b600080fd5b610159610154366004611e21565b6102fd565b60405190815260200160405180910390f35b672b992ddfa23249d6610159565b610159610187366004611e3a565b61032f565b61015961019a366004611e21565b610372565b6101596101ad366004611e21565b670de0b6b3a7640000810680151502900390565b6101596101cf366004611e21565b6103bd565b6101596101e2366004611e21565b61046d565b6101596101f5366004611e21565b61047e565b610159610208366004611e21565b670de0b6b3a7640000900690565b610159610224366004611e21565b6104d0565b610159610237366004611e3a565b6104f0565b61015961024a366004611e3a565b61054b565b61015961025d366004611e3a565b6105a5565b610159610270366004611e21565b6105ba565b610159610283366004611e21565b610607565b610159610296366004611e3a565b61065d565b6101596102a9366004611e3a565b600182811c82821c0192909116160190565b6101596102c9366004611e21565b610669565b6101596102dc366004611e21565b6106b6565b670de0b6b3a7640000610159565b6725b946ebc0b36173610159565b60006714057b7ef767814f670de0b6b3a764000061031a846103bd565b028161032857610328611e5c565b0492915050565b60008261035457811561034357600061034d565b670de0b6b3a76400005b905061036c565b610369610270610363856103bd565b8461065d565b90505b92915050565b600067081ad01a501bffff198211156103a657604051630ecebb1160e31b8152600481018390526024015b60405180910390fd5b50670de0b6b3a76400008082068015159103020190565b6000670de0b6b3a76400008210156103eb57604051633621413760e21b81526004810183905260240161039d565b6000610400670de0b6b3a7640000840461134b565b670de0b6b3a7640000808202935090915083821c90811415610423575050919050565b6706f05b59d3b200005b801561046557670de0b6b3a7640000828002049150671bc16d674ec80000821061045d579283019260019190911c905b60011c61042d565b505050919050565b6000670de0b6b3a764000082610328565b60007812725dd1d243aba0e75fe645cc4873f9e65afe688c928e1f218211156104bd57604051636155b67d60e01b81526004810183905260240161039d565b61036c670de0b6b3a7640000830261142a565b6000816ec097ce7bc90715b34b9f10000000008161032857610328611e5c565b6000826104ff5750600061036c565b8282028284828161051257610512611e5c565b041461053a5760405162c3efdf60e01b8152600481018590526024810184905260440161039d565b6105438161142a565b949350505050565b600080826001161161056557670de0b6b3a7640000610567565b825b9050600182901c91505b811561036c576105818384611596565b92506001821615610599576105968184611596565b90505b600182901c9150610571565b600061036983670de0b6b3a764000084611658565b6000680a688906bd8b00000082106105e857604051634a4f26f160e01b81526004810183905260240161039d565b670de0b6b3a7640000604083901b0461060081611725565b9392505050565b6000680736ea4425c11ac63182106106355760405163062bb40d60e31b81526004810183905260240161039d565b6714057b7ef767814f8202610600670de0b6b3a76400006706f05b59d3b200008301046105ba565b60006103698383611596565b60007812725dd1d243aba0e75fe645cc4873f9e65afe688c928e1f218211156106a857604051633492ffd960e01b81526004810183905260240161039d565b50670de0b6b3a76400000290565b6000670de0b6b3a76400008210156106e457604051633621413760e21b81526004810183905260240161039d565b8160018114610e1057600a8114610e215760648114610e32576103e88114610e43576127108114610e5457620186a08114610e6557620f42408114610e7657629896808114610e87576305f5e1008114610e9857633b9aca008114610ea9576402540be4008114610eba5764174876e8008114610ecb5764e8d4a510008114610edc576509184e72a0008114610eed57655af3107a40008114610efe5766038d7ea4c680008114610f0f57662386f26fc100008114610f205767016345785d8a00008114610f3157670de0b6b3a76400008114610f4257678ac7230489e800008114610f4b5768056bc75e2d631000008114610f5b57683635c9adc5dea000008114610f6b5769021e19e0c9bab24000008114610f7b5769152d02c7e14af68000008114610f8b5769d3c21bcecceda10000008114610f9b576a084595161401484a0000008114610fab576a52b7d2dcc80cd2e40000008114610fbb576b033b2e3c9fd0803ce80000008114610fcb576b204fce5e3e250261100000008114610fdb576c01431e0fae6d7217caa00000008114610feb576c0c9f2c9cd04674edea400000008114610ffb576c7e37be2022c0914b2680000000811461100b576d04ee2d6d415b85acef8100000000811461101b576d314dc6448d9338c15b0a00000000811461102b576e01ed09bead87c0378d8e6400000000811461103b576e13426172c74d822b878fe800000000811461104b576ec097ce7bc90715b34b9f1000000000811461105b576f0785ee10d5da46d900f436a000000000811461106b576f4b3b4ca85a86c47a098a224000000000811461107c577002f050fe938943acc45f65568000000000811461108d57701d6329f1c35ca4bfabb9f5610000000000811461109e57710125dfa371a19e6f7cb54395ca000000000081146110af57710b7abc627050305adf14a3d9e4000000000081146110c0577172cb5bd86321e38cb6ce6682e8000000000081146110d15772047bf19673df52e37f2410011d10000000000081146110e257722cd76fe086b93ce2f768a00b22a0000000000081146110f3577301c06a5ec5433c60ddaa16406f5a40000000000081146111045773118427b3b4a05bc8a8a4de84598680000000000081146111155773af298d050e4395d69670b12b7f410000000000008114611126577406d79f82328ea3da61e066ebb2f88a00000000000081146111375774446c3b15f9926687d2c40534fdb5640000000000008114611148577502ac3a4edbbfb8014e3ba83411e915e8000000000000811461115957751aba4714957d300d0e549208b31adb10000000000000811461116a5776010b46c6cdd6e3e0828f4db456ff0c8ea0000000000000811461117b57760a70c3c40a64e6c51999090b65f67d9240000000000000811461118c57766867a5a867f103b2fffa5a71fba0e7b680000000000000811461119d577704140c78940f6a24fdffc78873d4490d210000000000000081146111ae577728c87cb5c89a2571ebfdcb54864ada834a0000000000000081146111bf57780197d4df19d605767337e9f14d3eec8920e40000000000000081146111d057780fee50b7025c36a0802f236d04753d5b48e80000000000000081146111e157789f4f2726179a224501d762422c946590d9100000000000000081146111f25779063917877cec0556b21269d695bdcbf7a87aa000000000000000811461120357793e3aeb4ae1383562f4b82261d969f7ac94ca40000000000000008114611214577a026e4d30eccc3215dd8f3157d27e23acbdcfe680000000000000008114611225577a184f03e93ff9f4daa797ed6e38ed64bf6a1f0100000000000000008114611236577af316271c7fc3908a8bef464e3945ef7a25360a00000000000000008114611247577b097edd871cfda3a5697758bf0e3cbb5ac5741c6400000000000000008114611258577b5ef4a74721e864761ea977768e5f518bb6891be800000000000000008114611269577c03b58e88c75313ec9d329eaaa18fb92f75215b17100000000000000000811461127a577c25179157c93ec73e23fa32aa4f9d3bda934d8ee6a00000000000000000811461128b577d0172ebad6ddc73c86d67c5faa71c245689c1079502400000000000000000811461129c577d0e7d34c64a9c85d4460dbbca87196b61618a4bd21680000000000000000081146112ad577d90e40fbeea1d3a4abc8955e946fe31cdcf66f634e100000000000000000081146112be577e05a8e89d75252446eb5d5d5b1cc5edf20a1a059e10ca00000000000000000081146112cf577e3899162693736ac531a5a58f1fbb4b746504382ca7e400000000000000000081146112e0577546bf5bb0385045767e0f0ef2e7aa1e517e454637d1dd604b1b81146112f1577f161bcca7119915b50764b4abe86529797775a5f17195100000000000000000008114611302577fdd15fe86affad91249ef0eb713f39ebeaa987b6e6fd2a00000000000000000008114611313576000199150611320565b67f9ccd8a1c507ffff199150611320565b67ebec21ee1da3ffff199150611320565b67de0b6b3a763fffff199150611320565b67d02ab486cedbffff199150611320565b67c249fdd32777ffff199150611320565b67b469471f8013ffff199150611320565b67a688906bd8afffff199150611320565b6798a7d9b8314bffff199150611320565b678ac7230489e7ffff199150611320565b677ce66c50e283ffff199150611320565b676f05b59d3b1fffff199150611320565b676124fee993bbffff199150611320565b6753444835ec57ffff199150611320565b674563918244f3ffff199150611320565b673782dace9d8fffff199150611320565b6729a2241af62bffff199150611320565b671bc16d674ec7ffff199150611320565b670de0b6b3a763ffff199150611320565b60009150611320565b670de0b6b3a76400009150611320565b671bc16d674ec800009150611320565b6729a2241af62c00009150611320565b673782dace9d9000009150611320565b674563918244f400009150611320565b6753444835ec5800009150611320565b676124fee993bc00009150611320565b676f05b59d3b2000009150611320565b677ce66c50e28400009150611320565b678ac7230489e800009150611320565b6798a7d9b8314c00009150611320565b67a688906bd8b000009150611320565b67b469471f801400009150611320565b67c249fdd3277800009150611320565b67d02ab486cedc00009150611320565b67de0b6b3a764000009150611320565b67ebec21ee1da400009150611320565b67f9ccd8a1c50800009150611320565b680107ad8f556c6c00009150611320565b6801158e460913d000009150611320565b6801236efcbcbb3400009150611320565b6801314fb370629800009150611320565b68013f306a2409fc00009150611320565b68014d1120d7b16000009150611320565b68015af1d78b58c400009150611320565b680168d28e3f002800009150611320565b680176b344f2a78c00009150611320565b68018493fba64ef000009150611320565b68019274b259f65400009150611320565b6801a055690d9db800009150611320565b6801ae361fc1451c00009150611320565b6801bc16d674ec8000009150611320565b6801c9f78d2893e400009150611320565b6801d7d843dc3b4800009150611320565b6801e5b8fa8fe2ac00009150611320565b6801f399b1438a1000009150611320565b6802017a67f7317400009150611320565b68020f5b1eaad8d800009150611320565b68021d3bd55e803c00009150611320565b68022b1c8c1227a000009150611320565b680238fd42c5cf0400009150611320565b680246ddf979766800009150611320565b680254beb02d1dcc00009150611320565b6802629f66e0c53000009150611320565b680270801d946c9400009150611320565b68027e60d44813f800009150611320565b68028c418afbbb5c00009150611320565b68029a2241af62c000009150611320565b6802a802f8630a2400009150611320565b6802b5e3af16b18800009150611320565b6802c3c465ca58ec00009150611320565b6802d1a51c7e005000009150611320565b6802df85d331a7b400009150611320565b6802ed6689e54f1800009150611320565b6802fb474098f67c00009150611320565b68030927f74c9de000009150611320565b68031708ae00454400009150611320565b680324e964b3eca800009150611320565b680332ca1b67940c000091505b5060001981141561134657672e19dc008126bf2b670de0b6b3a764000061031a846103bd565b919050565b6000600160801b821061136b57608091821c916113689082611e72565b90505b600160401b821061138957604091821c916113869082611e72565b90505b64010000000082106113a857602091821c916113a59082611e72565b90505b6201000082106113c557601091821c916113c29082611e72565b90505b61010082106113e157600891821c916113de9082611e72565b90505b601082106113fc57600491821c916113f99082611e72565b90505b6004821061141757600291821c916114149082611e72565b90505b600282106113465761036c600182611e72565b60008161143957506000919050565b50600181600160801b81106114535760409190911b9060801c5b600160401b81106114695760209190911b9060401c5b64010000000081106114805760109190911b9060201c5b6201000081106114955760089190911b9060101c5b61010081106114a95760049190911b9060081c5b601081106114bc5760029190911b9060041c5b600881106114cc57600182901b91505b60018284816114dd576114dd611e5c565b048301901c915060018284816114f5576114f5611e5c565b048301901c9150600182848161150d5761150d611e5c565b048301901c9150600182848161152557611525611e5c565b048301901c9150600182848161153d5761153d611e5c565b048301901c9150600182848161155557611555611e5c565b048301901c9150600182848161156d5761156d611e5c565b048301901c9150600082848161158557611585611e5c565b049050808310156106005782610543565b60008080600019848609848602925082811083820303915050670de0b6b3a764000081106115da5760405163698d9a0160e11b81526004810182905260240161039d565b600080670de0b6b3a76400008688099150506706f05b59d3b1ffff8111826116145780670de0b6b3a764000085040194505050505061036c565b620400008285030493909111909103600160ee1b02919091177faccb18165bd6fe31ae1cf318dc5b51eee0e1ba569b88cd74c1773b91fac106690201905092915050565b6000808060001985870985870292508281108382030391505080600014156116935783828161168957611689611e5c565b0492505050610600565b8381106116bd57604051631dcf306360e21b8152600481018290526024810185905260440161039d565b600084868809600260036001881981018916988990049182028318808302840302808302840302808302840302808302840302808302840302918202909203026000889003889004909101858311909403939093029303949094049190911702949350505050565b600160bf1b6780000000000000008216156117495768016a09e667f3bcc9090260401c5b674000000000000000821615611768576801306fe0a31b7152df0260401c5b672000000000000000821615611787576801172b83c7d517adce0260401c5b6710000000000000008216156117a65768010b5586cf9890f62a0260401c5b6708000000000000008216156117c5576801059b0d31585743ae0260401c5b6704000000000000008216156117e457680102c9a3e778060ee70260401c5b6702000000000000008216156118035768010163da9fb33356d80260401c5b67010000000000000082161561182257680100b1afa5abcbed610260401c5b66800000000000008216156118405768010058c86da1c09ea20260401c5b664000000000000082161561185e576801002c605e2e8cec500260401c5b662000000000000082161561187c57680100162f3904051fa10260401c5b661000000000000082161561189a576801000b175effdc76ba0260401c5b66080000000000008216156118b857680100058ba01fb9f96d0260401c5b66040000000000008216156118d65768010002c5cc37da94920260401c5b66020000000000008216156118f4576801000162e525ee05470260401c5b66010000000000008216156119125768010000b17255775c040260401c5b6580000000000082161561192f576801000058b91b5bc9ae0260401c5b6540000000000082161561194c57680100002c5c89d5ec6d0260401c5b652000000000008216156119695768010000162e43f4f8310260401c5b6510000000000082161561198657680100000b1721bcfc9a0260401c5b650800000000008216156119a35768010000058b90cf1e6e0260401c5b650400000000008216156119c0576801000002c5c863b73f0260401c5b650200000000008216156119dd57680100000162e430e5a20260401c5b650100000000008216156119fa576801000000b1721835510260401c5b648000000000821615611a1657680100000058b90c0b490260401c5b644000000000821615611a325768010000002c5c8601cc0260401c5b642000000000821615611a4e576801000000162e42fff00260401c5b641000000000821615611a6a5768010000000b17217fbb0260401c5b640800000000821615611a86576801000000058b90bfce0260401c5b640400000000821615611aa257680100000002c5c85fe30260401c5b640200000000821615611abe5768010000000162e42ff10260401c5b640100000000821615611ada57680100000000b17217f80260401c5b6380000000821615611af55768010000000058b90bfc0260401c5b6340000000821615611b10576801000000002c5c85fe0260401c5b6320000000821615611b2b57680100000000162e42ff0260401c5b6310000000821615611b46576801000000000b17217f0260401c5b6308000000821615611b6157680100000000058b90c00260401c5b6304000000821615611b7c5768010000000002c5c8600260401c5b6302000000821615611b97576801000000000162e4300260401c5b6301000000821615611bb25768010000000000b172180260401c5b62800000821615611bcc576801000000000058b90c0260401c5b62400000821615611be657680100000000002c5c860260401c5b62200000821615611c005768010000000000162e430260401c5b62100000821615611c1a57680100000000000b17210260401c5b62080000821615611c345768010000000000058b910260401c5b62040000821615611c4e576801000000000002c5c80260401c5b62020000821615611c6857680100000000000162e40260401c5b62010000821615611c82576801000000000000b1720260401c5b618000821615611c9b57680100000000000058b90260401c5b614000821615611cb45768010000000000002c5d0260401c5b612000821615611ccd576801000000000000162e0260401c5b611000821615611ce65768010000000000000b170260401c5b610800821615611cff576801000000000000058c0260401c5b610400821615611d1857680100000000000002c60260401c5b610200821615611d3157680100000000000001630260401c5b610100821615611d4a57680100000000000000b10260401c5b6080821615611d6257680100000000000000590260401c5b6040821615611d7a576801000000000000002c0260401c5b6020821615611d9257680100000000000000160260401c5b6010821615611daa576801000000000000000b0260401c5b6008821615611dc257680100000000000000060260401c5b6004821615611dda57680100000000000000030260401c5b6002821615611df257680100000000000000010260401c5b6001821615611e0a57680100000000000000010260401c5b670de0b6b3a76400000260409190911c60bf031c90565b600060208284031215611e3357600080fd5b5035919050565b60008060408385031215611e4d57600080fd5b50508035926020909101359150565b634e487b7160e01b600052601260045260246000fd5b60008219821115611e9357634e487b7160e01b600052601160045260246000fd5b50019056fea264697066735822122079b9b753ad93f594c5fbb19375f224d4454dea7f7d303a10f4d4081ebb57b39664736f6c63430008090033",
          "opcodes": "PUSH2 0x1ECE PUSH2 0x3A PUSH1 0xB DUP3 DUP3 DUP3 CODECOPY DUP1 MLOAD PUSH1 0x0 BYTE PUSH1 0x73 EQ PUSH2 0x2D JUMPI PUSH4 0x4E487B71 PUSH1 0xE0 SHL PUSH1 0x0 MSTORE PUSH1 0x0 PUSH1 0x4 MSTORE PUSH1 0x24 PUSH1 0x0 REVERT JUMPDEST ADDRESS PUSH1 0x0 MSTORE PUSH1 0x73 DUP2 MSTORE8 DUP3 DUP2 RETURN INVALID PUSH20 0x0 ADDRESS EQ PUSH1 0x80 PUSH1 0x40 MSTORE PUSH1 0x4 CALLDATASIZE LT PUSH2 0x141 JUMPI PUSH1 0x0 CALLDATALOAD PUSH1 0xE0 SHR DUP1 PUSH4 0x7D2B1EFB GT PUSH2 0xC2 JUMPI DUP1 PUSH4 0xC8A4AC9C GT PUSH2 0x86 JUMPI DUP1 PUSH4 0xC8A4AC9C EQ PUSH2 0x288 JUMPI DUP1 PUSH4 0xDB140068 EQ PUSH2 0x29B JUMPI DUP1 PUSH4 0xE3814B19 EQ PUSH2 0x2BB JUMPI DUP1 PUSH4 0xEBDAE5F9 EQ PUSH2 0x2CE JUMPI DUP1 PUSH4 0xF51E181A EQ PUSH2 0x2E1 JUMPI DUP1 PUSH4 0xFFAE15BA EQ PUSH2 0x2EF JUMPI PUSH1 0x0 DUP1 REVERT JUMPDEST DUP1 PUSH4 0x7D2B1EFB EQ PUSH2 0x229 JUMPI DUP1 PUSH4 0x99A04F2F EQ PUSH2 0x23C JUMPI DUP1 PUSH4 0xA391C15B EQ PUSH2 0x24F JUMPI DUP1 PUSH4 0xA75826AE EQ PUSH2 0x262 JUMPI DUP1 PUSH4 0xB581FBE3 EQ PUSH2 0x275 JUMPI PUSH1 0x0 DUP1 REVERT JUMPDEST DUP1 PUSH4 0x5456BF13 GT PUSH2 0x109 JUMPI DUP1 PUSH4 0x5456BF13 EQ PUSH2 0x1C1 JUMPI DUP1 PUSH4 0x57F5C63C EQ PUSH2 0x1D4 JUMPI DUP1 PUSH4 0x677342CE EQ PUSH2 0x1E7 JUMPI DUP1 PUSH4 0x728E8C7F EQ PUSH2 0x1FA JUMPI DUP1 PUSH4 0x7A142F2E EQ PUSH2 0x216 JUMPI PUSH1 0x0 DUP1 REVERT JUMPDEST DUP1 PUSH4 0x24D4E90A EQ PUSH2 0x146 JUMPI DUP1 PUSH4 0x2DD9868D EQ PUSH2 0x16B JUMPI DUP1 PUSH4 0x2E4C697F EQ PUSH2 0x179 JUMPI DUP1 PUSH4 0x40F0A21F EQ PUSH2 0x18C JUMPI DUP1 PUSH4 0x504F5E56 EQ PUSH2 0x19F JUMPI JUMPDEST PUSH1 0x0 DUP1 REVERT JUMPDEST PUSH2 0x159 PUSH2 0x154 CALLDATASIZE PUSH1 0x4 PUSH2 0x1E21 JUMP JUMPDEST PUSH2 0x2FD JUMP JUMPDEST PUSH1 0x40 MLOAD SWAP1 DUP2 MSTORE PUSH1 0x20 ADD PUSH1 0x40 MLOAD DUP1 SWAP2 SUB SWAP1 RETURN JUMPDEST PUSH8 0x2B992DDFA23249D6 PUSH2 0x159 JUMP JUMPDEST PUSH2 0x159 PUSH2 0x187 CALLDATASIZE PUSH1 0x4 PUSH2 0x1E3A JUMP JUMPDEST PUSH2 0x32F JUMP JUMPDEST PUSH2 0x159 PUSH2 0x19A CALLDATASIZE PUSH1 0x4 PUSH2 0x1E21 JUMP JUMPDEST PUSH2 0x372 JUMP JUMPDEST PUSH2 0x159 PUSH2 0x1AD CALLDATASIZE PUSH1 0x4 PUSH2 0x1E21 JUMP JUMPDEST PUSH8 0xDE0B6B3A7640000 DUP2 MOD DUP1 ISZERO ISZERO MUL SWAP1 SUB SWAP1 JUMP JUMPDEST PUSH2 0x159 PUSH2 0x1CF CALLDATASIZE PUSH1 0x4 PUSH2 0x1E21 JUMP JUMPDEST PUSH2 0x3BD JUMP JUMPDEST PUSH2 0x159 PUSH2 0x1E2 CALLDATASIZE PUSH1 0x4 PUSH2 0x1E21 JUMP JUMPDEST PUSH2 0x46D JUMP JUMPDEST PUSH2 0x159 PUSH2 0x1F5 CALLDATASIZE PUSH1 0x4 PUSH2 0x1E21 JUMP JUMPDEST PUSH2 0x47E JUMP JUMPDEST PUSH2 0x159 PUSH2 0x208 CALLDATASIZE PUSH1 0x4 PUSH2 0x1E21 JUMP JUMPDEST PUSH8 0xDE0B6B3A7640000 SWAP1 MOD SWAP1 JUMP JUMPDEST PUSH2 0x159 PUSH2 0x224 CALLDATASIZE PUSH1 0x4 PUSH2 0x1E21 JUMP JUMPDEST PUSH2 0x4D0 JUMP JUMPDEST PUSH2 0x159 PUSH2 0x237 CALLDATASIZE PUSH1 0x4 PUSH2 0x1E3A JUMP JUMPDEST PUSH2 0x4F0 JUMP JUMPDEST PUSH2 0x159 PUSH2 0x24A CALLDATASIZE PUSH1 0x4 PUSH2 0x1E3A JUMP JUMPDEST PUSH2 0x54B JUMP JUMPDEST PUSH2 0x159 PUSH2 0x25D CALLDATASIZE PUSH1 0x4 PUSH2 0x1E3A JUMP JUMPDEST PUSH2 0x5A5 JUMP JUMPDEST PUSH2 0x159 PUSH2 0x270 CALLDATASIZE PUSH1 0x4 PUSH2 0x1E21 JUMP JUMPDEST PUSH2 0x5BA JUMP JUMPDEST PUSH2 0x159 PUSH2 0x283 CALLDATASIZE PUSH1 0x4 PUSH2 0x1E21 JUMP JUMPDEST PUSH2 0x607 JUMP JUMPDEST PUSH2 0x159 PUSH2 0x296 CALLDATASIZE PUSH1 0x4 PUSH2 0x1E3A JUMP JUMPDEST PUSH2 0x65D JUMP JUMPDEST PUSH2 0x159 PUSH2 0x2A9 CALLDATASIZE PUSH1 0x4 PUSH2 0x1E3A JUMP JUMPDEST PUSH1 0x1 DUP3 DUP2 SHR DUP3 DUP3 SHR ADD SWAP3 SWAP1 SWAP2 AND AND ADD SWAP1 JUMP JUMPDEST PUSH2 0x159 PUSH2 0x2C9 CALLDATASIZE PUSH1 0x4 PUSH2 0x1E21 JUMP JUMPDEST PUSH2 0x669 JUMP JUMPDEST PUSH2 0x159 PUSH2 0x2DC CALLDATASIZE PUSH1 0x4 PUSH2 0x1E21 JUMP JUMPDEST PUSH2 0x6B6 JUMP JUMPDEST PUSH8 0xDE0B6B3A7640000 PUSH2 0x159 JUMP JUMPDEST PUSH8 0x25B946EBC0B36173 PUSH2 0x159 JUMP JUMPDEST PUSH1 0x0 PUSH8 0x14057B7EF767814F PUSH8 0xDE0B6B3A7640000 PUSH2 0x31A DUP5 PUSH2 0x3BD JUMP JUMPDEST MUL DUP2 PUSH2 0x328 JUMPI PUSH2 0x328 PUSH2 0x1E5C JUMP JUMPDEST DIV SWAP3 SWAP2 POP POP JUMP JUMPDEST PUSH1 0x0 DUP3 PUSH2 0x354 JUMPI DUP2 ISZERO PUSH2 0x343 JUMPI PUSH1 0x0 PUSH2 0x34D JUMP JUMPDEST PUSH8 0xDE0B6B3A7640000 JUMPDEST SWAP1 POP PUSH2 0x36C JUMP JUMPDEST PUSH2 0x369 PUSH2 0x270 PUSH2 0x363 DUP6 PUSH2 0x3BD JUMP JUMPDEST DUP5 PUSH2 0x65D JUMP JUMPDEST SWAP1 POP JUMPDEST SWAP3 SWAP2 POP POP JUMP JUMPDEST PUSH1 0x0 PUSH8 0x81AD01A501BFFFF NOT DUP3 GT ISZERO PUSH2 0x3A6 JUMPI PUSH1 0x40 MLOAD PUSH4 0xECEBB11 PUSH1 0xE3 SHL DUP2 MSTORE PUSH1 0x4 DUP2 ADD DUP4 SWAP1 MSTORE PUSH1 0x24 ADD JUMPDEST PUSH1 0x40 MLOAD DUP1 SWAP2 SUB SWAP1 REVERT JUMPDEST POP PUSH8 0xDE0B6B3A7640000 DUP1 DUP3 MOD DUP1 ISZERO ISZERO SWAP2 SUB MUL ADD SWAP1 JUMP JUMPDEST PUSH1 0x0 PUSH8 0xDE0B6B3A7640000 DUP3 LT ISZERO PUSH2 0x3EB JUMPI PUSH1 0x40 MLOAD PUSH4 0x36214137 PUSH1 0xE2 SHL DUP2 MSTORE PUSH1 0x4 DUP2 ADD DUP4 SWAP1 MSTORE PUSH1 0x24 ADD PUSH2 0x39D JUMP JUMPDEST PUSH1 0x0 PUSH2 0x400 PUSH8 0xDE0B6B3A7640000 DUP5 DIV PUSH2 0x134B JUMP JUMPDEST PUSH8 0xDE0B6B3A7640000 DUP1 DUP3 MUL SWAP4 POP SWAP1 SWAP2 POP DUP4 DUP3 SHR SWAP1 DUP2 EQ ISZERO PUSH2 0x423 JUMPI POP POP SWAP2 SWAP1 POP JUMP JUMPDEST PUSH8 0x6F05B59D3B20000 JUMPDEST DUP1 ISZERO PUSH2 0x465 JUMPI PUSH8 0xDE0B6B3A7640000 DUP3 DUP1 MUL DIV SWAP2 POP PUSH8 0x1BC16D674EC80000 DUP3 LT PUSH2 0x45D JUMPI SWAP3 DUP4 ADD SWAP3 PUSH1 0x1 SWAP2 SWAP1 SWAP2 SHR SWAP1 JUMPDEST PUSH1 0x1 SHR PUSH2 0x42D JUMP JUMPDEST POP POP POP SWAP2 SWAP1 POP JUMP JUMPDEST PUSH1 0x0 PUSH8 0xDE0B6B3A7640000 DUP3 PUSH2 0x328 JUMP JUMPDEST PUSH1 0x0 PUSH25 0x12725DD1D243ABA0E75FE645CC4873F9E65AFE688C928E1F21 DUP3 GT ISZERO PUSH2 0x4BD JUMPI PUSH1 0x40 MLOAD PUSH4 0x6155B67D PUSH1 0xE0 SHL DUP2 MSTORE PUSH1 0x4 DUP2 ADD DUP4 SWAP1 MSTORE PUSH1 0x24 ADD PUSH2 0x39D JUMP JUMPDEST PUSH2 0x36C PUSH8 0xDE0B6B3A7640000 DUP4 MUL PUSH2 0x142A JUMP JUMPDEST PUSH1 0x0 DUP2 PUSH15 0xC097CE7BC90715B34B9F1000000000 DUP2 PUSH2 0x328 JUMPI PUSH2 0x328 PUSH2 0x1E5C JUMP JUMPDEST PUSH1 0x0 DUP3 PUSH2 0x4FF JUMPI POP PUSH1 0x0 PUSH2 0x36C JUMP JUMPDEST DUP3 DUP3 MUL DUP3 DUP5 DUP3 DUP2 PUSH2 0x512 JUMPI PUSH2 0x512 PUSH2 0x1E5C JUMP JUMPDEST DIV EQ PUSH2 0x53A JUMPI PUSH1 0x40 MLOAD PUSH3 0xC3EFDF PUSH1 0xE0 SHL DUP2 MSTORE PUSH1 0x4 DUP2 ADD DUP6 SWAP1 MSTORE PUSH1 0x24 DUP2 ADD DUP5 SWAP1 MSTORE PUSH1 0x44 ADD PUSH2 0x39D JUMP JUMPDEST PUSH2 0x543 DUP2 PUSH2 0x142A JUMP JUMPDEST SWAP5 SWAP4 POP POP POP POP JUMP JUMPDEST PUSH1 0x0 DUP1 DUP3 PUSH1 0x1 AND GT PUSH2 0x565 JUMPI PUSH8 0xDE0B6B3A7640000 PUSH2 0x567 JUMP JUMPDEST DUP3 JUMPDEST SWAP1 POP PUSH1 0x1 DUP3 SWAP1 SHR SWAP2 POP JUMPDEST DUP2 ISZERO PUSH2 0x36C JUMPI PUSH2 0x581 DUP4 DUP5 PUSH2 0x1596 JUMP JUMPDEST SWAP3 POP PUSH1 0x1 DUP3 AND ISZERO PUSH2 0x599 JUMPI PUSH2 0x596 DUP2 DUP5 PUSH2 0x1596 JUMP JUMPDEST SWAP1 POP JUMPDEST PUSH1 0x1 DUP3 SWAP1 SHR SWAP2 POP PUSH2 0x571 JUMP JUMPDEST PUSH1 0x0 PUSH2 0x369 DUP4 PUSH8 0xDE0B6B3A7640000 DUP5 PUSH2 0x1658 JUMP JUMPDEST PUSH1 0x0 PUSH9 0xA688906BD8B000000 DUP3 LT PUSH2 0x5E8 JUMPI PUSH1 0x40 MLOAD PUSH4 0x4A4F26F1 PUSH1 0xE0 SHL DUP2 MSTORE PUSH1 0x4 DUP2 ADD DUP4 SWAP1 MSTORE PUSH1 0x24 ADD PUSH2 0x39D JUMP JUMPDEST PUSH8 0xDE0B6B3A7640000 PUSH1 0x40 DUP4 SWAP1 SHL DIV PUSH2 0x600 DUP2 PUSH2 0x1725 JUMP JUMPDEST SWAP4 SWAP3 POP POP POP JUMP JUMPDEST PUSH1 0x0 PUSH9 0x736EA4425C11AC631 DUP3 LT PUSH2 0x635 JUMPI PUSH1 0x40 MLOAD PUSH4 0x62BB40D PUSH1 0xE3 SHL DUP2 MSTORE PUSH1 0x4 DUP2 ADD DUP4 SWAP1 MSTORE PUSH1 0x24 ADD PUSH2 0x39D JUMP JUMPDEST PUSH8 0x14057B7EF767814F DUP3 MUL PUSH2 0x600 PUSH8 0xDE0B6B3A7640000 PUSH8 0x6F05B59D3B20000 DUP4 ADD DIV PUSH2 0x5BA JUMP JUMPDEST PUSH1 0x0 PUSH2 0x369 DUP4 DUP4 PUSH2 0x1596 JUMP JUMPDEST PUSH1 0x0 PUSH25 0x12725DD1D243ABA0E75FE645CC4873F9E65AFE688C928E1F21 DUP3 GT ISZERO PUSH2 0x6A8 JUMPI PUSH1 0x40 MLOAD PUSH4 0x3492FFD9 PUSH1 0xE0 SHL DUP2 MSTORE PUSH1 0x4 DUP2 ADD DUP4 SWAP1 MSTORE PUSH1 0x24 ADD PUSH2 0x39D JUMP JUMPDEST POP PUSH8 0xDE0B6B3A7640000 MUL SWAP1 JUMP JUMPDEST PUSH1 0x0 PUSH8 0xDE0B6B3A7640000 DUP3 LT ISZERO PUSH2 0x6E4 JUMPI PUSH1 0x40 MLOAD PUSH4 0x36214137 PUSH1 0xE2 SHL DUP2 MSTORE PUSH1 0x4 DUP2 ADD DUP4 SWAP1 MSTORE PUSH1 0x24 ADD PUSH2 0x39D JUMP JUMPDEST DUP2 PUSH1 0x1 DUP2 EQ PUSH2 0xE10 JUMPI PUSH1 0xA DUP2 EQ PUSH2 0xE21 JUMPI PUSH1 0x64 DUP2 EQ PUSH2 0xE32 JUMPI PUSH2 0x3E8 DUP2 EQ PUSH2 0xE43 JUMPI PUSH2 0x2710 DUP2 EQ PUSH2 0xE54 JUMPI PUSH3 0x186A0 DUP2 EQ PUSH2 0xE65 JUMPI PUSH3 0xF4240 DUP2 EQ PUSH2 0xE76 JUMPI PUSH3 0x989680 DUP2 EQ PUSH2 0xE87 JUMPI PUSH4 0x5F5E100 DUP2 EQ PUSH2 0xE98 JUMPI PUSH4 0x3B9ACA00 DUP2 EQ PUSH2 0xEA9 JUMPI PUSH5 0x2540BE400 DUP2 EQ PUSH2 0xEBA JUMPI PUSH5 0x174876E800 DUP2 EQ PUSH2 0xECB JUMPI PUSH5 0xE8D4A51000 DUP2 EQ PUSH2 0xEDC JUMPI PUSH6 0x9184E72A000 DUP2 EQ PUSH2 0xEED JUMPI PUSH6 0x5AF3107A4000 DUP2 EQ PUSH2 0xEFE JUMPI PUSH7 0x38D7EA4C68000 DUP2 EQ PUSH2 0xF0F JUMPI PUSH7 0x2386F26FC10000 DUP2 EQ PUSH2 0xF20 JUMPI PUSH8 0x16345785D8A0000 DUP2 EQ PUSH2 0xF31 JUMPI PUSH8 0xDE0B6B3A7640000 DUP2 EQ PUSH2 0xF42 JUMPI PUSH8 0x8AC7230489E80000 DUP2 EQ PUSH2 0xF4B JUMPI PUSH9 0x56BC75E2D63100000 DUP2 EQ PUSH2 0xF5B JUMPI PUSH9 0x3635C9ADC5DEA00000 DUP2 EQ PUSH2 0xF6B JUMPI PUSH10 0x21E19E0C9BAB2400000 DUP2 EQ PUSH2 0xF7B JUMPI PUSH10 0x152D02C7E14AF6800000 DUP2 EQ PUSH2 0xF8B JUMPI PUSH10 0xD3C21BCECCEDA1000000 DUP2 EQ PUSH2 0xF9B JUMPI PUSH11 0x84595161401484A000000 DUP2 EQ PUSH2 0xFAB JUMPI PUSH11 0x52B7D2DCC80CD2E4000000 DUP2 EQ PUSH2 0xFBB JUMPI PUSH12 0x33B2E3C9FD0803CE8000000 DUP2 EQ PUSH2 0xFCB JUMPI PUSH12 0x204FCE5E3E25026110000000 DUP2 EQ PUSH2 0xFDB JUMPI PUSH13 0x1431E0FAE6D7217CAA0000000 DUP2 EQ PUSH2 0xFEB JUMPI PUSH13 0xC9F2C9CD04674EDEA40000000 DUP2 EQ PUSH2 0xFFB JUMPI PUSH13 0x7E37BE2022C0914B2680000000 DUP2 EQ PUSH2 0x100B JUMPI PUSH14 0x4EE2D6D415B85ACEF8100000000 DUP2 EQ PUSH2 0x101B JUMPI PUSH14 0x314DC6448D9338C15B0A00000000 DUP2 EQ PUSH2 0x102B JUMPI PUSH15 0x1ED09BEAD87C0378D8E6400000000 DUP2 EQ PUSH2 0x103B JUMPI PUSH15 0x13426172C74D822B878FE800000000 DUP2 EQ PUSH2 0x104B JUMPI PUSH15 0xC097CE7BC90715B34B9F1000000000 DUP2 EQ PUSH2 0x105B JUMPI PUSH16 0x785EE10D5DA46D900F436A000000000 DUP2 EQ PUSH2 0x106B JUMPI PUSH16 0x4B3B4CA85A86C47A098A224000000000 DUP2 EQ PUSH2 0x107C JUMPI PUSH17 0x2F050FE938943ACC45F65568000000000 DUP2 EQ PUSH2 0x108D JUMPI PUSH17 0x1D6329F1C35CA4BFABB9F5610000000000 DUP2 EQ PUSH2 0x109E JUMPI PUSH18 0x125DFA371A19E6F7CB54395CA0000000000 DUP2 EQ PUSH2 0x10AF JUMPI PUSH18 0xB7ABC627050305ADF14A3D9E40000000000 DUP2 EQ PUSH2 0x10C0 JUMPI PUSH18 0x72CB5BD86321E38CB6CE6682E80000000000 DUP2 EQ PUSH2 0x10D1 JUMPI PUSH19 0x47BF19673DF52E37F2410011D100000000000 DUP2 EQ PUSH2 0x10E2 JUMPI PUSH19 0x2CD76FE086B93CE2F768A00B22A00000000000 DUP2 EQ PUSH2 0x10F3 JUMPI PUSH20 0x1C06A5EC5433C60DDAA16406F5A400000000000 DUP2 EQ PUSH2 0x1104 JUMPI PUSH20 0x118427B3B4A05BC8A8A4DE845986800000000000 DUP2 EQ PUSH2 0x1115 JUMPI PUSH20 0xAF298D050E4395D69670B12B7F41000000000000 DUP2 EQ PUSH2 0x1126 JUMPI PUSH21 0x6D79F82328EA3DA61E066EBB2F88A000000000000 DUP2 EQ PUSH2 0x1137 JUMPI PUSH21 0x446C3B15F9926687D2C40534FDB564000000000000 DUP2 EQ PUSH2 0x1148 JUMPI PUSH22 0x2AC3A4EDBBFB8014E3BA83411E915E8000000000000 DUP2 EQ PUSH2 0x1159 JUMPI PUSH22 0x1ABA4714957D300D0E549208B31ADB10000000000000 DUP2 EQ PUSH2 0x116A JUMPI PUSH23 0x10B46C6CDD6E3E0828F4DB456FF0C8EA0000000000000 DUP2 EQ PUSH2 0x117B JUMPI PUSH23 0xA70C3C40A64E6C51999090B65F67D9240000000000000 DUP2 EQ PUSH2 0x118C JUMPI PUSH23 0x6867A5A867F103B2FFFA5A71FBA0E7B680000000000000 DUP2 EQ PUSH2 0x119D JUMPI PUSH24 0x4140C78940F6A24FDFFC78873D4490D2100000000000000 DUP2 EQ PUSH2 0x11AE JUMPI PUSH24 0x28C87CB5C89A2571EBFDCB54864ADA834A00000000000000 DUP2 EQ PUSH2 0x11BF JUMPI PUSH25 0x197D4DF19D605767337E9F14D3EEC8920E400000000000000 DUP2 EQ PUSH2 0x11D0 JUMPI PUSH25 0xFEE50B7025C36A0802F236D04753D5B48E800000000000000 DUP2 EQ PUSH2 0x11E1 JUMPI PUSH25 0x9F4F2726179A224501D762422C946590D91000000000000000 DUP2 EQ PUSH2 0x11F2 JUMPI PUSH26 0x63917877CEC0556B21269D695BDCBF7A87AA000000000000000 DUP2 EQ PUSH2 0x1203 JUMPI PUSH26 0x3E3AEB4AE1383562F4B82261D969F7AC94CA4000000000000000 DUP2 EQ PUSH2 0x1214 JUMPI PUSH27 0x26E4D30ECCC3215DD8F3157D27E23ACBDCFE68000000000000000 DUP2 EQ PUSH2 0x1225 JUMPI PUSH27 0x184F03E93FF9F4DAA797ED6E38ED64BF6A1F010000000000000000 DUP2 EQ PUSH2 0x1236 JUMPI PUSH27 0xF316271C7FC3908A8BEF464E3945EF7A25360A0000000000000000 DUP2 EQ PUSH2 0x1247 JUMPI PUSH28 0x97EDD871CFDA3A5697758BF0E3CBB5AC5741C640000000000000000 DUP2 EQ PUSH2 0x1258 JUMPI PUSH28 0x5EF4A74721E864761EA977768E5F518BB6891BE80000000000000000 DUP2 EQ PUSH2 0x1269 JUMPI PUSH29 0x3B58E88C75313EC9D329EAAA18FB92F75215B17100000000000000000 DUP2 EQ PUSH2 0x127A JUMPI PUSH29 0x25179157C93EC73E23FA32AA4F9D3BDA934D8EE6A00000000000000000 DUP2 EQ PUSH2 0x128B JUMPI PUSH30 0x172EBAD6DDC73C86D67C5FAA71C245689C1079502400000000000000000 DUP2 EQ PUSH2 0x129C JUMPI PUSH30 0xE7D34C64A9C85D4460DBBCA87196B61618A4BD216800000000000000000 DUP2 EQ PUSH2 0x12AD JUMPI PUSH30 0x90E40FBEEA1D3A4ABC8955E946FE31CDCF66F634E1000000000000000000 DUP2 EQ PUSH2 0x12BE JUMPI PUSH31 0x5A8E89D75252446EB5D5D5B1CC5EDF20A1A059E10CA000000000000000000 DUP2 EQ PUSH2 0x12CF JUMPI PUSH31 0x3899162693736AC531A5A58F1FBB4B746504382CA7E4000000000000000000 DUP2 EQ PUSH2 0x12E0 JUMPI PUSH22 0x46BF5BB0385045767E0F0EF2E7AA1E517E454637D1DD PUSH1 0x4B SHL DUP2 EQ PUSH2 0x12F1 JUMPI PUSH32 0x161BCCA7119915B50764B4ABE86529797775A5F1719510000000000000000000 DUP2 EQ PUSH2 0x1302 JUMPI PUSH32 0xDD15FE86AFFAD91249EF0EB713F39EBEAA987B6E6FD2A0000000000000000000 DUP2 EQ PUSH2 0x1313 JUMPI PUSH1 0x0 NOT SWAP2 POP PUSH2 0x1320 JUMP JUMPDEST PUSH8 0xF9CCD8A1C507FFFF NOT SWAP2 POP PUSH2 0x1320 JUMP JUMPDEST PUSH8 0xEBEC21EE1DA3FFFF NOT SWAP2 POP PUSH2 0x1320 JUMP JUMPDEST PUSH8 0xDE0B6B3A763FFFFF NOT SWAP2 POP PUSH2 0x1320 JUMP JUMPDEST PUSH8 0xD02AB486CEDBFFFF NOT SWAP2 POP PUSH2 0x1320 JUMP JUMPDEST PUSH8 0xC249FDD32777FFFF NOT SWAP2 POP PUSH2 0x1320 JUMP JUMPDEST PUSH8 0xB469471F8013FFFF NOT SWAP2 POP PUSH2 0x1320 JUMP JUMPDEST PUSH8 0xA688906BD8AFFFFF NOT SWAP2 POP PUSH2 0x1320 JUMP JUMPDEST PUSH8 0x98A7D9B8314BFFFF NOT SWAP2 POP PUSH2 0x1320 JUMP JUMPDEST PUSH8 0x8AC7230489E7FFFF NOT SWAP2 POP PUSH2 0x1320 JUMP JUMPDEST PUSH8 0x7CE66C50E283FFFF NOT SWAP2 POP PUSH2 0x1320 JUMP JUMPDEST PUSH8 0x6F05B59D3B1FFFFF NOT SWAP2 POP PUSH2 0x1320 JUMP JUMPDEST PUSH8 0x6124FEE993BBFFFF NOT SWAP2 POP PUSH2 0x1320 JUMP JUMPDEST PUSH8 0x53444835EC57FFFF NOT SWAP2 POP PUSH2 0x1320 JUMP JUMPDEST PUSH8 0x4563918244F3FFFF NOT SWAP2 POP PUSH2 0x1320 JUMP JUMPDEST PUSH8 0x3782DACE9D8FFFFF NOT SWAP2 POP PUSH2 0x1320 JUMP JUMPDEST PUSH8 0x29A2241AF62BFFFF NOT SWAP2 POP PUSH2 0x1320 JUMP JUMPDEST PUSH8 0x1BC16D674EC7FFFF NOT SWAP2 POP PUSH2 0x1320 JUMP JUMPDEST PUSH8 0xDE0B6B3A763FFFF NOT SWAP2 POP PUSH2 0x1320 JUMP JUMPDEST PUSH1 0x0 SWAP2 POP PUSH2 0x1320 JUMP JUMPDEST PUSH8 0xDE0B6B3A7640000 SWAP2 POP PUSH2 0x1320 JUMP JUMPDEST PUSH8 0x1BC16D674EC80000 SWAP2 POP PUSH2 0x1320 JUMP JUMPDEST PUSH8 0x29A2241AF62C0000 SWAP2 POP PUSH2 0x1320 JUMP JUMPDEST PUSH8 0x3782DACE9D900000 SWAP2 POP PUSH2 0x1320 JUMP JUMPDEST PUSH8 0x4563918244F40000 SWAP2 POP PUSH2 0x1320 JUMP JUMPDEST PUSH8 0x53444835EC580000 SWAP2 POP PUSH2 0x1320 JUMP JUMPDEST PUSH8 0x6124FEE993BC0000 SWAP2 POP PUSH2 0x1320 JUMP JUMPDEST PUSH8 0x6F05B59D3B200000 SWAP2 POP PUSH2 0x1320 JUMP JUMPDEST PUSH8 0x7CE66C50E2840000 SWAP2 POP PUSH2 0x1320 JUMP JUMPDEST PUSH8 0x8AC7230489E80000 SWAP2 POP PUSH2 0x1320 JUMP JUMPDEST PUSH8 0x98A7D9B8314C0000 SWAP2 POP PUSH2 0x1320 JUMP JUMPDEST PUSH8 0xA688906BD8B00000 SWAP2 POP PUSH2 0x1320 JUMP JUMPDEST PUSH8 0xB469471F80140000 SWAP2 POP PUSH2 0x1320 JUMP JUMPDEST PUSH8 0xC249FDD327780000 SWAP2 POP PUSH2 0x1320 JUMP JUMPDEST PUSH8 0xD02AB486CEDC0000 SWAP2 POP PUSH2 0x1320 JUMP JUMPDEST PUSH8 0xDE0B6B3A76400000 SWAP2 POP PUSH2 0x1320 JUMP JUMPDEST PUSH8 0xEBEC21EE1DA40000 SWAP2 POP PUSH2 0x1320 JUMP JUMPDEST PUSH8 0xF9CCD8A1C5080000 SWAP2 POP PUSH2 0x1320 JUMP JUMPDEST PUSH9 0x107AD8F556C6C0000 SWAP2 POP PUSH2 0x1320 JUMP JUMPDEST PUSH9 0x1158E460913D00000 SWAP2 POP PUSH2 0x1320 JUMP JUMPDEST PUSH9 0x1236EFCBCBB340000 SWAP2 POP PUSH2 0x1320 JUMP JUMPDEST PUSH9 0x1314FB37062980000 SWAP2 POP PUSH2 0x1320 JUMP JUMPDEST PUSH9 0x13F306A2409FC0000 SWAP2 POP PUSH2 0x1320 JUMP JUMPDEST PUSH9 0x14D1120D7B1600000 SWAP2 POP PUSH2 0x1320 JUMP JUMPDEST PUSH9 0x15AF1D78B58C40000 SWAP2 POP PUSH2 0x1320 JUMP JUMPDEST PUSH9 0x168D28E3F00280000 SWAP2 POP PUSH2 0x1320 JUMP JUMPDEST PUSH9 0x176B344F2A78C0000 SWAP2 POP PUSH2 0x1320 JUMP JUMPDEST PUSH9 0x18493FBA64EF00000 SWAP2 POP PUSH2 0x1320 JUMP JUMPDEST PUSH9 0x19274B259F6540000 SWAP2 POP PUSH2 0x1320 JUMP JUMPDEST PUSH9 0x1A055690D9DB80000 SWAP2 POP PUSH2 0x1320 JUMP JUMPDEST PUSH9 0x1AE361FC1451C0000 SWAP2 POP PUSH2 0x1320 JUMP JUMPDEST PUSH9 0x1BC16D674EC800000 SWAP2 POP PUSH2 0x1320 JUMP JUMPDEST PUSH9 0x1C9F78D2893E40000 SWAP2 POP PUSH2 0x1320 JUMP JUMPDEST PUSH9 0x1D7D843DC3B480000 SWAP2 POP PUSH2 0x1320 JUMP JUMPDEST PUSH9 0x1E5B8FA8FE2AC0000 SWAP2 POP PUSH2 0x1320 JUMP JUMPDEST PUSH9 0x1F399B1438A100000 SWAP2 POP PUSH2 0x1320 JUMP JUMPDEST PUSH9 0x2017A67F731740000 SWAP2 POP PUSH2 0x1320 JUMP JUMPDEST PUSH9 0x20F5B1EAAD8D80000 SWAP2 POP PUSH2 0x1320 JUMP JUMPDEST PUSH9 0x21D3BD55E803C0000 SWAP2 POP PUSH2 0x1320 JUMP JUMPDEST PUSH9 0x22B1C8C1227A00000 SWAP2 POP PUSH2 0x1320 JUMP JUMPDEST PUSH9 0x238FD42C5CF040000 SWAP2 POP PUSH2 0x1320 JUMP JUMPDEST PUSH9 0x246DDF97976680000 SWAP2 POP PUSH2 0x1320 JUMP JUMPDEST PUSH9 0x254BEB02D1DCC0000 SWAP2 POP PUSH2 0x1320 JUMP JUMPDEST PUSH9 0x2629F66E0C5300000 SWAP2 POP PUSH2 0x1320 JUMP JUMPDEST PUSH9 0x270801D946C940000 SWAP2 POP PUSH2 0x1320 JUMP JUMPDEST PUSH9 0x27E60D44813F80000 SWAP2 POP PUSH2 0x1320 JUMP JUMPDEST PUSH9 0x28C418AFBBB5C0000 SWAP2 POP PUSH2 0x1320 JUMP JUMPDEST PUSH9 0x29A2241AF62C00000 SWAP2 POP PUSH2 0x1320 JUMP JUMPDEST PUSH9 0x2A802F8630A240000 SWAP2 POP PUSH2 0x1320 JUMP JUMPDEST PUSH9 0x2B5E3AF16B1880000 SWAP2 POP PUSH2 0x1320 JUMP JUMPDEST PUSH9 0x2C3C465CA58EC0000 SWAP2 POP PUSH2 0x1320 JUMP JUMPDEST PUSH9 0x2D1A51C7E00500000 SWAP2 POP PUSH2 0x1320 JUMP JUMPDEST PUSH9 0x2DF85D331A7B40000 SWAP2 POP PUSH2 0x1320 JUMP JUMPDEST PUSH9 0x2ED6689E54F180000 SWAP2 POP PUSH2 0x1320 JUMP JUMPDEST PUSH9 0x2FB474098F67C0000 SWAP2 POP PUSH2 0x1320 JUMP JUMPDEST PUSH9 0x30927F74C9DE00000 SWAP2 POP PUSH2 0x1320 JUMP JUMPDEST PUSH9 0x31708AE0045440000 SWAP2 POP PUSH2 0x1320 JUMP JUMPDEST PUSH9 0x324E964B3ECA80000 SWAP2 POP PUSH2 0x1320 JUMP JUMPDEST PUSH9 0x332CA1B67940C0000 SWAP2 POP JUMPDEST POP PUSH1 0x0 NOT DUP2 EQ ISZERO PUSH2 0x1346 JUMPI PUSH8 0x2E19DC008126BF2B PUSH8 0xDE0B6B3A7640000 PUSH2 0x31A DUP5 PUSH2 0x3BD JUMP JUMPDEST SWAP2 SWAP1 POP JUMP JUMPDEST PUSH1 0x0 PUSH1 0x1 PUSH1 0x80 SHL DUP3 LT PUSH2 0x136B JUMPI PUSH1 0x80 SWAP2 DUP3 SHR SWAP2 PUSH2 0x1368 SWAP1 DUP3 PUSH2 0x1E72 JUMP JUMPDEST SWAP1 POP JUMPDEST PUSH1 0x1 PUSH1 0x40 SHL DUP3 LT PUSH2 0x1389 JUMPI PUSH1 0x40 SWAP2 DUP3 SHR SWAP2 PUSH2 0x1386 SWAP1 DUP3 PUSH2 0x1E72 JUMP JUMPDEST SWAP1 POP JUMPDEST PUSH5 0x100000000 DUP3 LT PUSH2 0x13A8 JUMPI PUSH1 0x20 SWAP2 DUP3 SHR SWAP2 PUSH2 0x13A5 SWAP1 DUP3 PUSH2 0x1E72 JUMP JUMPDEST SWAP1 POP JUMPDEST PUSH3 0x10000 DUP3 LT PUSH2 0x13C5 JUMPI PUSH1 0x10 SWAP2 DUP3 SHR SWAP2 PUSH2 0x13C2 SWAP1 DUP3 PUSH2 0x1E72 JUMP JUMPDEST SWAP1 POP JUMPDEST PUSH2 0x100 DUP3 LT PUSH2 0x13E1 JUMPI PUSH1 0x8 SWAP2 DUP3 SHR SWAP2 PUSH2 0x13DE SWAP1 DUP3 PUSH2 0x1E72 JUMP JUMPDEST SWAP1 POP JUMPDEST PUSH1 0x10 DUP3 LT PUSH2 0x13FC JUMPI PUSH1 0x4 SWAP2 DUP3 SHR SWAP2 PUSH2 0x13F9 SWAP1 DUP3 PUSH2 0x1E72 JUMP JUMPDEST SWAP1 POP JUMPDEST PUSH1 0x4 DUP3 LT PUSH2 0x1417 JUMPI PUSH1 0x2 SWAP2 DUP3 SHR SWAP2 PUSH2 0x1414 SWAP1 DUP3 PUSH2 0x1E72 JUMP JUMPDEST SWAP1 POP JUMPDEST PUSH1 0x2 DUP3 LT PUSH2 0x1346 JUMPI PUSH2 0x36C PUSH1 0x1 DUP3 PUSH2 0x1E72 JUMP JUMPDEST PUSH1 0x0 DUP2 PUSH2 0x1439 JUMPI POP PUSH1 0x0 SWAP2 SWAP1 POP JUMP JUMPDEST POP PUSH1 0x1 DUP2 PUSH1 0x1 PUSH1 0x80 SHL DUP2 LT PUSH2 0x1453 JUMPI PUSH1 0x40 SWAP2 SWAP1 SWAP2 SHL SWAP1 PUSH1 0x80 SHR JUMPDEST PUSH1 0x1 PUSH1 0x40 SHL DUP2 LT PUSH2 0x1469 JUMPI PUSH1 0x20 SWAP2 SWAP1 SWAP2 SHL SWAP1 PUSH1 0x40 SHR JUMPDEST PUSH5 0x100000000 DUP2 LT PUSH2 0x1480 JUMPI PUSH1 0x10 SWAP2 SWAP1 SWAP2 SHL SWAP1 PUSH1 0x20 SHR JUMPDEST PUSH3 0x10000 DUP2 LT PUSH2 0x1495 JUMPI PUSH1 0x8 SWAP2 SWAP1 SWAP2 SHL SWAP1 PUSH1 0x10 SHR JUMPDEST PUSH2 0x100 DUP2 LT PUSH2 0x14A9 JUMPI PUSH1 0x4 SWAP2 SWAP1 SWAP2 SHL SWAP1 PUSH1 0x8 SHR JUMPDEST PUSH1 0x10 DUP2 LT PUSH2 0x14BC JUMPI PUSH1 0x2 SWAP2 SWAP1 SWAP2 SHL SWAP1 PUSH1 0x4 SHR JUMPDEST PUSH1 0x8 DUP2 LT PUSH2 0x14CC JUMPI PUSH1 0x1 DUP3 SWAP1 SHL SWAP2 POP JUMPDEST PUSH1 0x1 DUP3 DUP5 DUP2 PUSH2 0x14DD JUMPI PUSH2 0x14DD PUSH2 0x1E5C JUMP JUMPDEST DIV DUP4 ADD SWAP1 SHR SWAP2 POP PUSH1 0x1 DUP3 DUP5 DUP2 PUSH2 0x14F5 JUMPI PUSH2 0x14F5 PUSH2 0x1E5C JUMP JUMPDEST DIV DUP4 ADD SWAP1 SHR SWAP2 POP PUSH1 0x1 DUP3 DUP5 DUP2 PUSH2 0x150D JUMPI PUSH2 0x150D PUSH2 0x1E5C JUMP JUMPDEST DIV DUP4 ADD SWAP1 SHR SWAP2 POP PUSH1 0x1 DUP3 DUP5 DUP2 PUSH2 0x1525 JUMPI PUSH2 0x1525 PUSH2 0x1E5C JUMP JUMPDEST DIV DUP4 ADD SWAP1 SHR SWAP2 POP PUSH1 0x1 DUP3 DUP5 DUP2 PUSH2 0x153D JUMPI PUSH2 0x153D PUSH2 0x1E5C JUMP JUMPDEST DIV DUP4 ADD SWAP1 SHR SWAP2 POP PUSH1 0x1 DUP3 DUP5 DUP2 PUSH2 0x1555 JUMPI PUSH2 0x1555 PUSH2 0x1E5C JUMP JUMPDEST DIV DUP4 ADD SWAP1 SHR SWAP2 POP PUSH1 0x1 DUP3 DUP5 DUP2 PUSH2 0x156D JUMPI PUSH2 0x156D PUSH2 0x1E5C JUMP JUMPDEST DIV DUP4 ADD SWAP1 SHR SWAP2 POP PUSH1 0x0 DUP3 DUP5 DUP2 PUSH2 0x1585 JUMPI PUSH2 0x1585 PUSH2 0x1E5C JUMP JUMPDEST DIV SWAP1 POP DUP1 DUP4 LT ISZERO PUSH2 0x600 JUMPI DUP3 PUSH2 0x543 JUMP JUMPDEST PUSH1 0x0 DUP1 DUP1 PUSH1 0x0 NOT DUP5 DUP7 MULMOD DUP5 DUP7 MUL SWAP3 POP DUP3 DUP2 LT DUP4 DUP3 SUB SUB SWAP2 POP POP PUSH8 0xDE0B6B3A7640000 DUP2 LT PUSH2 0x15DA JUMPI PUSH1 0x40 MLOAD PUSH4 0x698D9A01 PUSH1 0xE1 SHL DUP2 MSTORE PUSH1 0x4 DUP2 ADD DUP3 SWAP1 MSTORE PUSH1 0x24 ADD PUSH2 0x39D JUMP JUMPDEST PUSH1 0x0 DUP1 PUSH8 0xDE0B6B3A7640000 DUP7 DUP9 MULMOD SWAP2 POP POP PUSH8 0x6F05B59D3B1FFFF DUP2 GT DUP3 PUSH2 0x1614 JUMPI DUP1 PUSH8 0xDE0B6B3A7640000 DUP6 DIV ADD SWAP5 POP POP POP POP POP PUSH2 0x36C JUMP JUMPDEST PUSH3 0x40000 DUP3 DUP6 SUB DIV SWAP4 SWAP1 SWAP2 GT SWAP1 SWAP2 SUB PUSH1 0x1 PUSH1 0xEE SHL MUL SWAP2 SWAP1 SWAP2 OR PUSH32 0xACCB18165BD6FE31AE1CF318DC5B51EEE0E1BA569B88CD74C1773B91FAC10669 MUL ADD SWAP1 POP SWAP3 SWAP2 POP POP JUMP JUMPDEST PUSH1 0x0 DUP1 DUP1 PUSH1 0x0 NOT DUP6 DUP8 MULMOD DUP6 DUP8 MUL SWAP3 POP DUP3 DUP2 LT DUP4 DUP3 SUB SUB SWAP2 POP POP DUP1 PUSH1 0x0 EQ ISZERO PUSH2 0x1693 JUMPI DUP4 DUP3 DUP2 PUSH2 0x1689 JUMPI PUSH2 0x1689 PUSH2 0x1E5C JUMP JUMPDEST DIV SWAP3 POP POP POP PUSH2 0x600 JUMP JUMPDEST DUP4 DUP2 LT PUSH2 0x16BD JUMPI PUSH1 0x40 MLOAD PUSH4 0x1DCF3063 PUSH1 0xE2 SHL DUP2 MSTORE PUSH1 0x4 DUP2 ADD DUP3 SWAP1 MSTORE PUSH1 0x24 DUP2 ADD DUP6 SWAP1 MSTORE PUSH1 0x44 ADD PUSH2 0x39D JUMP JUMPDEST PUSH1 0x0 DUP5 DUP7 DUP9 MULMOD PUSH1 0x2 PUSH1 0x3 PUSH1 0x1 DUP9 NOT DUP2 ADD DUP10 AND SWAP9 DUP10 SWAP1 DIV SWAP2 DUP3 MUL DUP4 XOR DUP1 DUP4 MUL DUP5 SUB MUL DUP1 DUP4 MUL DUP5 SUB MUL DUP1 DUP4 MUL DUP5 SUB MUL DUP1 DUP4 MUL DUP5 SUB MUL DUP1 DUP4 MUL DUP5 SUB MUL SWAP2 DUP3 MUL SWAP1 SWAP3 SUB MUL PUSH1 0x0 DUP9 SWAP1 SUB DUP9 SWAP1 DIV SWAP1 SWAP2 ADD DUP6 DUP4 GT SWAP1 SWAP5 SUB SWAP4 SWAP1 SWAP4 MUL SWAP4 SUB SWAP5 SWAP1 SWAP5 DIV SWAP2 SWAP1 SWAP2 OR MUL SWAP5 SWAP4 POP POP POP POP JUMP JUMPDEST PUSH1 0x1 PUSH1 0xBF SHL PUSH8 0x8000000000000000 DUP3 AND ISZERO PUSH2 0x1749 JUMPI PUSH9 0x16A09E667F3BCC909 MUL PUSH1 0x40 SHR JUMPDEST PUSH8 0x4000000000000000 DUP3 AND ISZERO PUSH2 0x1768 JUMPI PUSH9 0x1306FE0A31B7152DF MUL PUSH1 0x40 SHR JUMPDEST PUSH8 0x2000000000000000 DUP3 AND ISZERO PUSH2 0x1787 JUMPI PUSH9 0x1172B83C7D517ADCE MUL PUSH1 0x40 SHR JUMPDEST PUSH8 0x1000000000000000 DUP3 AND ISZERO PUSH2 0x17A6 JUMPI PUSH9 0x10B5586CF9890F62A MUL PUSH1 0x40 SHR JUMPDEST PUSH8 0x800000000000000 DUP3 AND ISZERO PUSH2 0x17C5 JUMPI PUSH9 0x1059B0D31585743AE MUL PUSH1 0x40 SHR JUMPDEST PUSH8 0x400000000000000 DUP3 AND ISZERO PUSH2 0x17E4 JUMPI PUSH9 0x102C9A3E778060EE7 MUL PUSH1 0x40 SHR JUMPDEST PUSH8 0x200000000000000 DUP3 AND ISZERO PUSH2 0x1803 JUMPI PUSH9 0x10163DA9FB33356D8 MUL PUSH1 0x40 SHR JUMPDEST PUSH8 0x100000000000000 DUP3 AND ISZERO PUSH2 0x1822 JUMPI PUSH9 0x100B1AFA5ABCBED61 MUL PUSH1 0x40 SHR JUMPDEST PUSH7 0x80000000000000 DUP3 AND ISZERO PUSH2 0x1840 JUMPI PUSH9 0x10058C86DA1C09EA2 MUL PUSH1 0x40 SHR JUMPDEST PUSH7 0x40000000000000 DUP3 AND ISZERO PUSH2 0x185E JUMPI PUSH9 0x1002C605E2E8CEC50 MUL PUSH1 0x40 SHR JUMPDEST PUSH7 0x20000000000000 DUP3 AND ISZERO PUSH2 0x187C JUMPI PUSH9 0x100162F3904051FA1 MUL PUSH1 0x40 SHR JUMPDEST PUSH7 0x10000000000000 DUP3 AND ISZERO PUSH2 0x189A JUMPI PUSH9 0x1000B175EFFDC76BA MUL PUSH1 0x40 SHR JUMPDEST PUSH7 0x8000000000000 DUP3 AND ISZERO PUSH2 0x18B8 JUMPI PUSH9 0x100058BA01FB9F96D MUL PUSH1 0x40 SHR JUMPDEST PUSH7 0x4000000000000 DUP3 AND ISZERO PUSH2 0x18D6 JUMPI PUSH9 0x10002C5CC37DA9492 MUL PUSH1 0x40 SHR JUMPDEST PUSH7 0x2000000000000 DUP3 AND ISZERO PUSH2 0x18F4 JUMPI PUSH9 0x1000162E525EE0547 MUL PUSH1 0x40 SHR JUMPDEST PUSH7 0x1000000000000 DUP3 AND ISZERO PUSH2 0x1912 JUMPI PUSH9 0x10000B17255775C04 MUL PUSH1 0x40 SHR JUMPDEST PUSH6 0x800000000000 DUP3 AND ISZERO PUSH2 0x192F JUMPI PUSH9 0x1000058B91B5BC9AE MUL PUSH1 0x40 SHR JUMPDEST PUSH6 0x400000000000 DUP3 AND ISZERO PUSH2 0x194C JUMPI PUSH9 0x100002C5C89D5EC6D MUL PUSH1 0x40 SHR JUMPDEST PUSH6 0x200000000000 DUP3 AND ISZERO PUSH2 0x1969 JUMPI PUSH9 0x10000162E43F4F831 MUL PUSH1 0x40 SHR JUMPDEST PUSH6 0x100000000000 DUP3 AND ISZERO PUSH2 0x1986 JUMPI PUSH9 0x100000B1721BCFC9A MUL PUSH1 0x40 SHR JUMPDEST PUSH6 0x80000000000 DUP3 AND ISZERO PUSH2 0x19A3 JUMPI PUSH9 0x10000058B90CF1E6E MUL PUSH1 0x40 SHR JUMPDEST PUSH6 0x40000000000 DUP3 AND ISZERO PUSH2 0x19C0 JUMPI PUSH9 0x1000002C5C863B73F MUL PUSH1 0x40 SHR JUMPDEST PUSH6 0x20000000000 DUP3 AND ISZERO PUSH2 0x19DD JUMPI PUSH9 0x100000162E430E5A2 MUL PUSH1 0x40 SHR JUMPDEST PUSH6 0x10000000000 DUP3 AND ISZERO PUSH2 0x19FA JUMPI PUSH9 0x1000000B172183551 MUL PUSH1 0x40 SHR JUMPDEST PUSH5 0x8000000000 DUP3 AND ISZERO PUSH2 0x1A16 JUMPI PUSH9 0x100000058B90C0B49 MUL PUSH1 0x40 SHR JUMPDEST PUSH5 0x4000000000 DUP3 AND ISZERO PUSH2 0x1A32 JUMPI PUSH9 0x10000002C5C8601CC MUL PUSH1 0x40 SHR JUMPDEST PUSH5 0x2000000000 DUP3 AND ISZERO PUSH2 0x1A4E JUMPI PUSH9 0x1000000162E42FFF0 MUL PUSH1 0x40 SHR JUMPDEST PUSH5 0x1000000000 DUP3 AND ISZERO PUSH2 0x1A6A JUMPI PUSH9 0x10000000B17217FBB MUL PUSH1 0x40 SHR JUMPDEST PUSH5 0x800000000 DUP3 AND ISZERO PUSH2 0x1A86 JUMPI PUSH9 0x1000000058B90BFCE MUL PUSH1 0x40 SHR JUMPDEST PUSH5 0x400000000 DUP3 AND ISZERO PUSH2 0x1AA2 JUMPI PUSH9 0x100000002C5C85FE3 MUL PUSH1 0x40 SHR JUMPDEST PUSH5 0x200000000 DUP3 AND ISZERO PUSH2 0x1ABE JUMPI PUSH9 0x10000000162E42FF1 MUL PUSH1 0x40 SHR JUMPDEST PUSH5 0x100000000 DUP3 AND ISZERO PUSH2 0x1ADA JUMPI PUSH9 0x100000000B17217F8 MUL PUSH1 0x40 SHR JUMPDEST PUSH4 0x80000000 DUP3 AND ISZERO PUSH2 0x1AF5 JUMPI PUSH9 0x10000000058B90BFC MUL PUSH1 0x40 SHR JUMPDEST PUSH4 0x40000000 DUP3 AND ISZERO PUSH2 0x1B10 JUMPI PUSH9 0x1000000002C5C85FE MUL PUSH1 0x40 SHR JUMPDEST PUSH4 0x20000000 DUP3 AND ISZERO PUSH2 0x1B2B JUMPI PUSH9 0x100000000162E42FF MUL PUSH1 0x40 SHR JUMPDEST PUSH4 0x10000000 DUP3 AND ISZERO PUSH2 0x1B46 JUMPI PUSH9 0x1000000000B17217F MUL PUSH1 0x40 SHR JUMPDEST PUSH4 0x8000000 DUP3 AND ISZERO PUSH2 0x1B61 JUMPI PUSH9 0x100000000058B90C0 MUL PUSH1 0x40 SHR JUMPDEST PUSH4 0x4000000 DUP3 AND ISZERO PUSH2 0x1B7C JUMPI PUSH9 0x10000000002C5C860 MUL PUSH1 0x40 SHR JUMPDEST PUSH4 0x2000000 DUP3 AND ISZERO PUSH2 0x1B97 JUMPI PUSH9 0x1000000000162E430 MUL PUSH1 0x40 SHR JUMPDEST PUSH4 0x1000000 DUP3 AND ISZERO PUSH2 0x1BB2 JUMPI PUSH9 0x10000000000B17218 MUL PUSH1 0x40 SHR JUMPDEST PUSH3 0x800000 DUP3 AND ISZERO PUSH2 0x1BCC JUMPI PUSH9 0x1000000000058B90C MUL PUSH1 0x40 SHR JUMPDEST PUSH3 0x400000 DUP3 AND ISZERO PUSH2 0x1BE6 JUMPI PUSH9 0x100000000002C5C86 MUL PUSH1 0x40 SHR JUMPDEST PUSH3 0x200000 DUP3 AND ISZERO PUSH2 0x1C00 JUMPI PUSH9 0x10000000000162E43 MUL PUSH1 0x40 SHR JUMPDEST PUSH3 0x100000 DUP3 AND ISZERO PUSH2 0x1C1A JUMPI PUSH9 0x100000000000B1721 MUL PUSH1 0x40 SHR JUMPDEST PUSH3 0x80000 DUP3 AND ISZERO PUSH2 0x1C34 JUMPI PUSH9 0x10000000000058B91 MUL PUSH1 0x40 SHR JUMPDEST PUSH3 0x40000 DUP3 AND ISZERO PUSH2 0x1C4E JUMPI PUSH9 0x1000000000002C5C8 MUL PUSH1 0x40 SHR JUMPDEST PUSH3 0x20000 DUP3 AND ISZERO PUSH2 0x1C68 JUMPI PUSH9 0x100000000000162E4 MUL PUSH1 0x40 SHR JUMPDEST PUSH3 0x10000 DUP3 AND ISZERO PUSH2 0x1C82 JUMPI PUSH9 0x1000000000000B172 MUL PUSH1 0x40 SHR JUMPDEST PUSH2 0x8000 DUP3 AND ISZERO PUSH2 0x1C9B JUMPI PUSH9 0x100000000000058B9 MUL PUSH1 0x40 SHR JUMPDEST PUSH2 0x4000 DUP3 AND ISZERO PUSH2 0x1CB4 JUMPI PUSH9 0x10000000000002C5D MUL PUSH1 0x40 SHR JUMPDEST PUSH2 0x2000 DUP3 AND ISZERO PUSH2 0x1CCD JUMPI PUSH9 0x1000000000000162E MUL PUSH1 0x40 SHR JUMPDEST PUSH2 0x1000 DUP3 AND ISZERO PUSH2 0x1CE6 JUMPI PUSH9 0x10000000000000B17 MUL PUSH1 0x40 SHR JUMPDEST PUSH2 0x800 DUP3 AND ISZERO PUSH2 0x1CFF JUMPI PUSH9 0x1000000000000058C MUL PUSH1 0x40 SHR JUMPDEST PUSH2 0x400 DUP3 AND ISZERO PUSH2 0x1D18 JUMPI PUSH9 0x100000000000002C6 MUL PUSH1 0x40 SHR JUMPDEST PUSH2 0x200 DUP3 AND ISZERO PUSH2 0x1D31 JUMPI PUSH9 0x10000000000000163 MUL PUSH1 0x40 SHR JUMPDEST PUSH2 0x100 DUP3 AND ISZERO PUSH2 0x1D4A JUMPI PUSH9 0x100000000000000B1 MUL PUSH1 0x40 SHR JUMPDEST PUSH1 0x80 DUP3 AND ISZERO PUSH2 0x1D62 JUMPI PUSH9 0x10000000000000059 MUL PUSH1 0x40 SHR JUMPDEST PUSH1 0x40 DUP3 AND ISZERO PUSH2 0x1D7A JUMPI PUSH9 0x1000000000000002C MUL PUSH1 0x40 SHR JUMPDEST PUSH1 0x20 DUP3 AND ISZERO PUSH2 0x1D92 JUMPI PUSH9 0x10000000000000016 MUL PUSH1 0x40 SHR JUMPDEST PUSH1 0x10 DUP3 AND ISZERO PUSH2 0x1DAA JUMPI PUSH9 0x1000000000000000B MUL PUSH1 0x40 SHR JUMPDEST PUSH1 0x8 DUP3 AND ISZERO PUSH2 0x1DC2 JUMPI PUSH9 0x10000000000000006 MUL PUSH1 0x40 SHR JUMPDEST PUSH1 0x4 DUP3 AND ISZERO PUSH2 0x1DDA JUMPI PUSH9 0x10000000000000003 MUL PUSH1 0x40 SHR JUMPDEST PUSH1 0x2 DUP3 AND ISZERO PUSH2 0x1DF2 JUMPI PUSH9 0x10000000000000001 MUL PUSH1 0x40 SHR JUMPDEST PUSH1 0x1 DUP3 AND ISZERO PUSH2 0x1E0A JUMPI PUSH9 0x10000000000000001 MUL PUSH1 0x40 SHR JUMPDEST PUSH8 0xDE0B6B3A7640000 MUL PUSH1 0x40 SWAP2 SWAP1 SWAP2 SHR PUSH1 0xBF SUB SHR SWAP1 JUMP JUMPDEST PUSH1 0x0 PUSH1 0x20 DUP3 DUP5 SUB SLT ISZERO PUSH2 0x1E33 JUMPI PUSH1 0x0 DUP1 REVERT JUMPDEST POP CALLDATALOAD SWAP2 SWAP1 POP JUMP JUMPDEST PUSH1 0x0 DUP1 PUSH1 0x40 DUP4 DUP6 SUB SLT ISZERO PUSH2 0x1E4D JUMPI PUSH1 0x0 DUP1 REVERT JUMPDEST POP POP DUP1 CALLDATALOAD SWAP3 PUSH1 0x20 SWAP1 SWAP2 ADD CALLDATALOAD SWAP2 POP JUMP JUMPDEST PUSH4 0x4E487B71 PUSH1 0xE0 SHL PUSH1 0x0 MSTORE PUSH1 0x12 PUSH1 0x4 MSTORE PUSH1 0x24 PUSH1 0x0 REVERT JUMPDEST PUSH1 0x0 DUP3 NOT DUP3 GT ISZERO PUSH2 0x1E93 JUMPI PUSH4 0x4E487B71 PUSH1 0xE0 SHL PUSH1 0x0 MSTORE PUSH1 0x11 PUSH1 0x4 MSTORE PUSH1 0x24 PUSH1 0x0 REVERT JUMPDEST POP ADD SWAP1 JUMP INVALID LOG2 PUSH5 0x6970667358 0x22 SLT KECCAK256 PUSH26 0xB9B753AD93F594C5FBB19375F224D4454DEA7F7D303A10F4D408 0x1E 0xBB JUMPI 0xB3 SWAP7 PUSH5 0x736F6C6343 STOP ADDMOD MULMOD STOP CALLER "
        },
        "gasEstimates": {
          "creation": {
            "codeDepositCost": "1577200",
            "executionCost": "1683",
            "totalCost": "1578883"
          },
          "external": {
            "avg(uint256,uint256)": "350",
            "ceil(uint256)": "414",
            "div(uint256,uint256)": "842",
            "e()": "296",
            "exp(uint256)": "infinite",
            "exp2(uint256)": "3028",
            "floor(uint256)": "384",
            "frac(uint256)": "341",
            "fromUint(uint256)": "374",
            "gm(uint256,uint256)": "1188",
            "inv(uint256)": "402",
            "ln(uint256)": "infinite",
            "log10(uint256)": "infinite",
            "log2(uint256)": "infinite",
            "mul(uint256,uint256)": "586",
            "pi()": "210",
            "pow(uint256,uint256)": "infinite",
            "powu(uint256,uint256)": "infinite",
            "scale()": "274",
            "sqrt(uint256)": "1179",
            "toUint(uint256)": "331"
          }
        },
        "methodIdentifiers": {
          "avg(uint256,uint256)": "db140068",
          "ceil(uint256)": "40f0a21f",
          "div(uint256,uint256)": "a391c15b",
          "e()": "ffae15ba",
          "exp(uint256)": "b581fbe3",
          "exp2(uint256)": "a75826ae",
          "floor(uint256)": "504f5e56",
          "frac(uint256)": "728e8c7f",
          "fromUint(uint256)": "e3814b19",
          "gm(uint256,uint256)": "7d2b1efb",
          "inv(uint256)": "7a142f2e",
          "ln(uint256)": "24d4e90a",
          "log10(uint256)": "ebdae5f9",
          "log2(uint256)": "5456bf13",
          "mul(uint256,uint256)": "c8a4ac9c",
          "pi()": "2dd9868d",
          "pow(uint256,uint256)": "2e4c697f",
          "powu(uint256,uint256)": "99a04f2f",
          "scale()": "f51e181a",
          "sqrt(uint256)": "677342ce",
          "toUint(uint256)": "57f5c63c"
        }
      },
      "storageLayout": {
        "storage": [],
        "types": null
      },
      "userdoc": {
        "errors": {
          "PRBMathUD60x18__CeilOverflow(uint256)": [
            {
              "notice": "Emitted when ceiling a number overflows UD60x18."
            }
          ],
          "PRBMathUD60x18__Exp2InputTooBig(uint256)": [
            {
              "notice": "Emitted when the input is greater than 192."
            }
          ],
          "PRBMathUD60x18__ExpInputTooBig(uint256)": [
            {
              "notice": "Emitted when the input is greater than 133.084258667509499441."
            }
          ],
          "PRBMathUD60x18__FromUintOverflow(uint256)": [
            {
              "notice": "Emitted when converting a basic integer to the fixed-point format format overflows UD60x18."
            }
          ],
          "PRBMathUD60x18__GmOverflow(uint256,uint256)": [
            {
              "notice": "Emitted when multiplying the inputs overflows UD60x18."
            }
          ],
          "PRBMathUD60x18__LogInputTooSmall(uint256)": [
            {
              "notice": "Emitted when the input is less than 1."
            }
          ],
          "PRBMathUD60x18__SqrtOverflow(uint256)": [
            {
              "notice": "Emitted when the calculating the square root overflows UD60x18."
            }
          ],
          "PRBMath__MulDivFixedPointOverflow(uint256)": [
            {
              "notice": "Emitted when the result overflows uint256."
            }
          ],
          "PRBMath__MulDivOverflow(uint256,uint256)": [
            {
              "notice": "Emitted when the result overflows uint256."
            }
          ]
        },
        "kind": "user",
        "methods": {
          "avg(uint256,uint256)": {
            "notice": "Calculates the arithmetic average of x and y, rounding down."
          },
          "ceil(uint256)": {
            "notice": "Yields the least unsigned 60.18 decimal fixed-point number greater than or equal to x."
          },
          "div(uint256,uint256)": {
            "notice": "Divides two unsigned 60.18-decimal fixed-point numbers, returning a new unsigned 60.18-decimal fixed-point number."
          },
          "e()": {
            "notice": "Returns Euler's number as an unsigned 60.18-decimal fixed-point number."
          },
          "exp(uint256)": {
            "notice": "Calculates the natural exponent of x."
          },
          "exp2(uint256)": {
            "notice": "Calculates the binary exponent of x using the binary fraction method."
          },
          "floor(uint256)": {
            "notice": "Yields the greatest unsigned 60.18 decimal fixed-point number less than or equal to x."
          },
          "frac(uint256)": {
            "notice": "Yields the excess beyond the floor of x."
          },
          "fromUint(uint256)": {
            "notice": "Converts a number from basic integer form to unsigned 60.18-decimal fixed-point representation."
          },
          "gm(uint256,uint256)": {
            "notice": "Calculates geometric mean of x and y, i.e. sqrt(x * y), rounding down."
          },
          "inv(uint256)": {
            "notice": "Calculates 1 / x, rounding toward zero."
          },
          "ln(uint256)": {
            "notice": "Calculates the natural logarithm of x."
          },
          "log10(uint256)": {
            "notice": "Calculates the common logarithm of x."
          },
          "log2(uint256)": {
            "notice": "Calculates the binary logarithm of x."
          },
          "mul(uint256,uint256)": {
            "notice": "Multiplies two unsigned 60.18-decimal fixed-point numbers together, returning a new unsigned 60.18-decimal fixed-point number."
          },
          "pi()": {
            "notice": "Returns PI as an unsigned 60.18-decimal fixed-point number."
          },
          "pow(uint256,uint256)": {
            "notice": "Raises x to the power of y."
          },
          "powu(uint256,uint256)": {
            "notice": "Raises x (unsigned 60.18-decimal fixed-point number) to the power of y (basic unsigned integer) using the famous algorithm \"exponentiation by squaring\"."
          },
          "scale()": {
            "notice": "Returns 1 as an unsigned 60.18-decimal fixed-point number."
          },
          "sqrt(uint256)": {
            "notice": "Calculates the square root of x, rounding down."
          },
          "toUint(uint256)": {
            "notice": "Converts a unsigned 60.18-decimal fixed-point number to basic integer form, rounding down in the process."
          }
        },
        "notice": "Smart contract library for advanced fixed-point math that works with uint256 numbers considered to have 18 trailing decimals. We call this number representation unsigned 60.18-decimal fixed-point, since there can be up to 60 digits in the integer part and up to 18 decimals in the fractional part. The numbers are bound by the minimum and the maximum values permitted by the Solidity type uint256.",
        "version": 1
      }
    }
  }
}