{
  "contracts/libraries/PRBMathSD59x18.sol": {
    "PRBMathInt": {
      "abi": [
        {
          "inputs": [],
          "name": "PRBMathSD59x18__AbsInputTooSmall",
          "type": "error"
        },
        {
          "inputs": [
            {
              "internalType": "int256",
              "name": "x",
              "type": "int256"
            }
          ],
          "name": "PRBMathSD59x18__CeilOverflow",
          "type": "error"
        },
        {
          "inputs": [],
          "name": "PRBMathSD59x18__DivInputTooSmall",
          "type": "error"
        },
        {
          "inputs": [
            {
              "internalType": "uint256",
              "name": "rAbs",
              "type": "uint256"
            }
          ],
          "name": "PRBMathSD59x18__DivOverflow",
          "type": "error"
        },
        {
          "inputs": [
            {
              "internalType": "int256",
              "name": "x",
              "type": "int256"
            }
          ],
          "name": "PRBMathSD59x18__Exp2InputTooBig",
          "type": "error"
        },
        {
          "inputs": [
            {
              "internalType": "int256",
              "name": "x",
              "type": "int256"
            }
          ],
          "name": "PRBMathSD59x18__ExpInputTooBig",
          "type": "error"
        },
        {
          "inputs": [
            {
              "internalType": "int256",
              "name": "x",
              "type": "int256"
            }
          ],
          "name": "PRBMathSD59x18__FloorUnderflow",
          "type": "error"
        },
        {
          "inputs": [
            {
              "internalType": "int256",
              "name": "x",
              "type": "int256"
            }
          ],
          "name": "PRBMathSD59x18__FromIntOverflow",
          "type": "error"
        },
        {
          "inputs": [
            {
              "internalType": "int256",
              "name": "x",
              "type": "int256"
            }
          ],
          "name": "PRBMathSD59x18__FromIntUnderflow",
          "type": "error"
        },
        {
          "inputs": [
            {
              "internalType": "int256",
              "name": "x",
              "type": "int256"
            },
            {
              "internalType": "int256",
              "name": "y",
              "type": "int256"
            }
          ],
          "name": "PRBMathSD59x18__GmNegativeProduct",
          "type": "error"
        },
        {
          "inputs": [
            {
              "internalType": "int256",
              "name": "x",
              "type": "int256"
            },
            {
              "internalType": "int256",
              "name": "y",
              "type": "int256"
            }
          ],
          "name": "PRBMathSD59x18__GmOverflow",
          "type": "error"
        },
        {
          "inputs": [
            {
              "internalType": "int256",
              "name": "x",
              "type": "int256"
            }
          ],
          "name": "PRBMathSD59x18__LogInputTooSmall",
          "type": "error"
        },
        {
          "inputs": [],
          "name": "PRBMathSD59x18__MulInputTooSmall",
          "type": "error"
        },
        {
          "inputs": [
            {
              "internalType": "uint256",
              "name": "rAbs",
              "type": "uint256"
            }
          ],
          "name": "PRBMathSD59x18__MulOverflow",
          "type": "error"
        },
        {
          "inputs": [
            {
              "internalType": "uint256",
              "name": "rAbs",
              "type": "uint256"
            }
          ],
          "name": "PRBMathSD59x18__PowuOverflow",
          "type": "error"
        },
        {
          "inputs": [
            {
              "internalType": "int256",
              "name": "x",
              "type": "int256"
            }
          ],
          "name": "PRBMathSD59x18__SqrtNegativeInput",
          "type": "error"
        },
        {
          "inputs": [
            {
              "internalType": "int256",
              "name": "x",
              "type": "int256"
            }
          ],
          "name": "PRBMathSD59x18__SqrtOverflow",
          "type": "error"
        },
        {
          "inputs": [
            {
              "internalType": "uint256",
              "name": "prod1",
              "type": "uint256"
            }
          ],
          "name": "PRBMath__MulDivFixedPointOverflow",
          "type": "error"
        },
        {
          "inputs": [
            {
              "internalType": "uint256",
              "name": "prod1",
              "type": "uint256"
            },
            {
              "internalType": "uint256",
              "name": "denominator",
              "type": "uint256"
            }
          ],
          "name": "PRBMath__MulDivOverflow",
          "type": "error"
        },
        {
          "inputs": [
            {
              "internalType": "int256",
              "name": "x",
              "type": "int256"
            }
          ],
          "name": "abs",
          "outputs": [
            {
              "internalType": "int256",
              "name": "result",
              "type": "int256"
            }
          ],
          "stateMutability": "pure",
          "type": "function"
        },
        {
          "inputs": [
            {
              "internalType": "int256",
              "name": "x",
              "type": "int256"
            },
            {
              "internalType": "int256",
              "name": "y",
              "type": "int256"
            }
          ],
          "name": "avg",
          "outputs": [
            {
              "internalType": "int256",
              "name": "result",
              "type": "int256"
            }
          ],
          "stateMutability": "pure",
          "type": "function"
        },
        {
          "inputs": [
            {
              "internalType": "int256",
              "name": "x",
              "type": "int256"
            }
          ],
          "name": "ceil",
          "outputs": [
            {
              "internalType": "int256",
              "name": "result",
              "type": "int256"
            }
          ],
          "stateMutability": "pure",
          "type": "function"
        },
        {
          "inputs": [
            {
              "internalType": "int256",
              "name": "x",
              "type": "int256"
            },
            {
              "internalType": "int256",
              "name": "y",
              "type": "int256"
            }
          ],
          "name": "div",
          "outputs": [
            {
              "internalType": "int256",
              "name": "result",
              "type": "int256"
            }
          ],
          "stateMutability": "pure",
          "type": "function"
        },
        {
          "inputs": [],
          "name": "e",
          "outputs": [
            {
              "internalType": "int256",
              "name": "result",
              "type": "int256"
            }
          ],
          "stateMutability": "pure",
          "type": "function"
        },
        {
          "inputs": [
            {
              "internalType": "int256",
              "name": "x",
              "type": "int256"
            }
          ],
          "name": "exp",
          "outputs": [
            {
              "internalType": "int256",
              "name": "result",
              "type": "int256"
            }
          ],
          "stateMutability": "pure",
          "type": "function"
        },
        {
          "inputs": [
            {
              "internalType": "int256",
              "name": "x",
              "type": "int256"
            }
          ],
          "name": "exp2",
          "outputs": [
            {
              "internalType": "int256",
              "name": "result",
              "type": "int256"
            }
          ],
          "stateMutability": "pure",
          "type": "function"
        },
        {
          "inputs": [
            {
              "internalType": "int256",
              "name": "x",
              "type": "int256"
            }
          ],
          "name": "floor",
          "outputs": [
            {
              "internalType": "int256",
              "name": "result",
              "type": "int256"
            }
          ],
          "stateMutability": "pure",
          "type": "function"
        },
        {
          "inputs": [
            {
              "internalType": "int256",
              "name": "x",
              "type": "int256"
            }
          ],
          "name": "frac",
          "outputs": [
            {
              "internalType": "int256",
              "name": "result",
              "type": "int256"
            }
          ],
          "stateMutability": "pure",
          "type": "function"
        },
        {
          "inputs": [
            {
              "internalType": "int256",
              "name": "x",
              "type": "int256"
            }
          ],
          "name": "fromInt",
          "outputs": [
            {
              "internalType": "int256",
              "name": "result",
              "type": "int256"
            }
          ],
          "stateMutability": "pure",
          "type": "function"
        },
        {
          "inputs": [
            {
              "internalType": "int256",
              "name": "x",
              "type": "int256"
            },
            {
              "internalType": "int256",
              "name": "y",
              "type": "int256"
            }
          ],
          "name": "gm",
          "outputs": [
            {
              "internalType": "int256",
              "name": "result",
              "type": "int256"
            }
          ],
          "stateMutability": "pure",
          "type": "function"
        },
        {
          "inputs": [
            {
              "internalType": "int256",
              "name": "x",
              "type": "int256"
            }
          ],
          "name": "inv",
          "outputs": [
            {
              "internalType": "int256",
              "name": "result",
              "type": "int256"
            }
          ],
          "stateMutability": "pure",
          "type": "function"
        },
        {
          "inputs": [
            {
              "internalType": "int256",
              "name": "x",
              "type": "int256"
            }
          ],
          "name": "ln",
          "outputs": [
            {
              "internalType": "int256",
              "name": "result",
              "type": "int256"
            }
          ],
          "stateMutability": "pure",
          "type": "function"
        },
        {
          "inputs": [
            {
              "internalType": "int256",
              "name": "x",
              "type": "int256"
            }
          ],
          "name": "log10",
          "outputs": [
            {
              "internalType": "int256",
              "name": "result",
              "type": "int256"
            }
          ],
          "stateMutability": "pure",
          "type": "function"
        },
        {
          "inputs": [
            {
              "internalType": "int256",
              "name": "x",
              "type": "int256"
            }
          ],
          "name": "log2",
          "outputs": [
            {
              "internalType": "int256",
              "name": "result",
              "type": "int256"
            }
          ],
          "stateMutability": "pure",
          "type": "function"
        },
        {
          "inputs": [
            {
              "internalType": "int256",
              "name": "x",
              "type": "int256"
            },
            {
              "internalType": "int256",
              "name": "y",
              "type": "int256"
            }
          ],
          "name": "mul",
          "outputs": [
            {
              "internalType": "int256",
              "name": "result",
              "type": "int256"
            }
          ],
          "stateMutability": "pure",
          "type": "function"
        },
        {
          "inputs": [],
          "name": "pi",
          "outputs": [
            {
              "internalType": "int256",
              "name": "result",
              "type": "int256"
            }
          ],
          "stateMutability": "pure",
          "type": "function"
        },
        {
          "inputs": [
            {
              "internalType": "int256",
              "name": "x",
              "type": "int256"
            },
            {
              "internalType": "int256",
              "name": "y",
              "type": "int256"
            }
          ],
          "name": "pow",
          "outputs": [
            {
              "internalType": "int256",
              "name": "result",
              "type": "int256"
            }
          ],
          "stateMutability": "pure",
          "type": "function"
        },
        {
          "inputs": [
            {
              "internalType": "int256",
              "name": "x",
              "type": "int256"
            },
            {
              "internalType": "uint256",
              "name": "y",
              "type": "uint256"
            }
          ],
          "name": "powu",
          "outputs": [
            {
              "internalType": "int256",
              "name": "result",
              "type": "int256"
            }
          ],
          "stateMutability": "pure",
          "type": "function"
        },
        {
          "inputs": [],
          "name": "scale",
          "outputs": [
            {
              "internalType": "int256",
              "name": "result",
              "type": "int256"
            }
          ],
          "stateMutability": "pure",
          "type": "function"
        },
        {
          "inputs": [
            {
              "internalType": "int256",
              "name": "x",
              "type": "int256"
            }
          ],
          "name": "sqrt",
          "outputs": [
            {
              "internalType": "int256",
              "name": "result",
              "type": "int256"
            }
          ],
          "stateMutability": "pure",
          "type": "function"
        },
        {
          "inputs": [
            {
              "internalType": "int256",
              "name": "x",
              "type": "int256"
            }
          ],
          "name": "toInt",
          "outputs": [
            {
              "internalType": "int256",
              "name": "result",
              "type": "int256"
            }
          ],
          "stateMutability": "pure",
          "type": "function"
        }
      ],
      "devdoc": {
        "author": "Paul Razvan Berg",
        "kind": "dev",
        "methods": {
          "abs(int256)": {
            "details": "Requirements: - x must be greater than MIN_SD59x18.",
            "params": {
              "result": "The absolute value of x.",
              "x": "The number to calculate the absolute value for."
            }
          },
          "avg(int256,int256)": {
            "params": {
              "x": "The first operand as a signed 59.18-decimal fixed-point number.",
              "y": "The second operand as a signed 59.18-decimal fixed-point number."
            },
            "returns": {
              "result": "The arithmetic average as a signed 59.18-decimal fixed-point number."
            }
          },
          "ceil(int256)": {
            "details": "Optimized for fractional value inputs, because for every whole value there are (1e18 - 1) fractional counterparts. See https://en.wikipedia.org/wiki/Floor_and_ceiling_functions. Requirements: - x must be less than or equal to MAX_WHOLE_SD59x18.",
            "params": {
              "result": "The least integer greater than or equal to x, as a signed 58.18-decimal fixed-point number.",
              "x": "The signed 59.18-decimal fixed-point number to ceil."
            }
          },
          "div(int256,int256)": {
            "details": "Variant of \"mulDiv\" that works with signed numbers. Works by computing the signs and the absolute values separately. Requirements: - All from \"PRBMath.mulDiv\". - None of the inputs can be MIN_SD59x18. - The denominator cannot be zero. - The result must fit within int256. Caveats: - All from \"PRBMath.mulDiv\".",
            "params": {
              "result": "The quotient as a signed 59.18-decimal fixed-point number.",
              "x": "The numerator as a signed 59.18-decimal fixed-point number.",
              "y": "The denominator as a signed 59.18-decimal fixed-point number."
            }
          },
          "e()": {
            "details": "See https://en.wikipedia.org/wiki/E_(mathematical_constant)."
          },
          "exp(int256)": {
            "details": "Based on the insight that e^x = 2^(x * log2(e)). Requirements: - All from \"log2\". - x must be less than 133.084258667509499441. Caveats: - All from \"exp2\". - For any x less than -41.446531673892822322, the result is zero.",
            "params": {
              "x": "The exponent as a signed 59.18-decimal fixed-point number."
            },
            "returns": {
              "result": "The result as a signed 59.18-decimal fixed-point number."
            }
          },
          "exp2(int256)": {
            "details": "See https://ethereum.stackexchange.com/q/79903/24693. Requirements: - x must be 192 or less. - The result must fit within MAX_SD59x18. Caveats: - For any x less than -59.794705707972522261, the result is zero.",
            "params": {
              "x": "The exponent as a signed 59.18-decimal fixed-point number."
            },
            "returns": {
              "result": "The result as a signed 59.18-decimal fixed-point number."
            }
          },
          "floor(int256)": {
            "details": "Optimized for fractional value inputs, because for every whole value there are (1e18 - 1) fractional counterparts. See https://en.wikipedia.org/wiki/Floor_and_ceiling_functions. Requirements: - x must be greater than or equal to MIN_WHOLE_SD59x18.",
            "params": {
              "result": "The greatest integer less than or equal to x, as a signed 58.18-decimal fixed-point number.",
              "x": "The signed 59.18-decimal fixed-point number to floor."
            }
          },
          "frac(int256)": {
            "details": "Based on the odd function definition. https://en.wikipedia.org/wiki/Fractional_part",
            "params": {
              "result": "The fractional part of x as a signed 59.18-decimal fixed-point number.",
              "x": "The signed 59.18-decimal fixed-point number to get the fractional part of."
            }
          },
          "fromInt(int256)": {
            "details": "Requirements: - x must be greater than or equal to MIN_SD59x18 divided by SCALE. - x must be less than or equal to MAX_SD59x18 divided by SCALE.",
            "params": {
              "result": "The same number in signed 59.18-decimal fixed-point representation.",
              "x": "The basic integer to convert."
            }
          },
          "gm(int256,int256)": {
            "details": "Requirements: - x * y must fit within MAX_SD59x18, lest it overflows. - x * y cannot be negative.",
            "params": {
              "x": "The first operand as a signed 59.18-decimal fixed-point number.",
              "y": "The second operand as a signed 59.18-decimal fixed-point number."
            },
            "returns": {
              "result": "The result as a signed 59.18-decimal fixed-point number."
            }
          },
          "inv(int256)": {
            "details": "Requirements: - x cannot be zero.",
            "params": {
              "x": "The signed 59.18-decimal fixed-point number for which to calculate the inverse."
            },
            "returns": {
              "result": "The inverse as a signed 59.18-decimal fixed-point number."
            }
          },
          "ln(int256)": {
            "details": "Based on the insight that ln(x) = log2(x) / log2(e). Requirements: - All from \"log2\". Caveats: - All from \"log2\". - This doesn't return exactly 1 for 2718281828459045235, for that we would need more fine-grained precision.",
            "params": {
              "x": "The signed 59.18-decimal fixed-point number for which to calculate the natural logarithm."
            },
            "returns": {
              "result": "The natural logarithm as a signed 59.18-decimal fixed-point number."
            }
          },
          "log10(int256)": {
            "details": "First checks if x is an exact power of ten and it stops if yes. If it's not, calculates the common logarithm based on the insight that log10(x) = log2(x) / log2(10). Requirements: - All from \"log2\". Caveats: - All from \"log2\".",
            "params": {
              "x": "The signed 59.18-decimal fixed-point number for which to calculate the common logarithm."
            },
            "returns": {
              "result": "The common logarithm as a signed 59.18-decimal fixed-point number."
            }
          },
          "log2(int256)": {
            "details": "Based on the iterative approximation algorithm. https://en.wikipedia.org/wiki/Binary_logarithm#Iterative_approximation Requirements: - x must be greater than zero. Caveats: - The results are not perfectly accurate to the last decimal, due to the lossy precision of the iterative approximation.",
            "params": {
              "x": "The signed 59.18-decimal fixed-point number for which to calculate the binary logarithm."
            },
            "returns": {
              "result": "The binary logarithm as a signed 59.18-decimal fixed-point number."
            }
          },
          "mul(int256,int256)": {
            "details": "Variant of \"mulDiv\" that works with signed numbers and employs constant folding, i.e. the denominator is always 1e18. Requirements: - All from \"PRBMath.mulDivFixedPoint\". - None of the inputs can be MIN_SD59x18 - The result must fit within MAX_SD59x18. Caveats: - The body is purposely left uncommented; see the NatSpec comments in \"PRBMath.mulDiv\" to understand how this works.",
            "params": {
              "x": "The multiplicand as a signed 59.18-decimal fixed-point number.",
              "y": "The multiplier as a signed 59.18-decimal fixed-point number."
            },
            "returns": {
              "result": "The product as a signed 59.18-decimal fixed-point number."
            }
          },
          "pow(int256,int256)": {
            "details": "Based on the insight that x^y = 2^(log2(x) * y). Requirements: - All from \"exp2\", \"log2\" and \"mul\". - z cannot be zero. Caveats: - All from \"exp2\", \"log2\" and \"mul\". - Assumes 0^0 is 1.",
            "params": {
              "x": "Number to raise to given power y, as a signed 59.18-decimal fixed-point number.",
              "y": "Exponent to raise x to, as a signed 59.18-decimal fixed-point number."
            },
            "returns": {
              "result": "x raised to power y, as a signed 59.18-decimal fixed-point number."
            }
          },
          "powu(int256,uint256)": {
            "details": "See https://en.wikipedia.org/wiki/Exponentiation_by_squaring Requirements: - All from \"abs\" and \"PRBMath.mulDivFixedPoint\". - The result must fit within MAX_SD59x18. Caveats: - All from \"PRBMath.mulDivFixedPoint\". - Assumes 0^0 is 1.",
            "params": {
              "x": "The base as a signed 59.18-decimal fixed-point number.",
              "y": "The exponent as an uint256."
            },
            "returns": {
              "result": "The result as a signed 59.18-decimal fixed-point number."
            }
          },
          "sqrt(int256)": {
            "details": "Uses the Babylonian method https://en.wikipedia.org/wiki/Methods_of_computing_square_roots#Babylonian_method. Requirements: - x cannot be negative. - x must be less than MAX_SD59x18 / SCALE.",
            "params": {
              "x": "The signed 59.18-decimal fixed-point number for which to calculate the square root."
            },
            "returns": {
              "result": "The result as a signed 59.18-decimal fixed-point ."
            }
          },
          "toInt(int256)": {
            "params": {
              "x": "The signed 59.18-decimal fixed-point number to convert."
            },
            "returns": {
              "result": "The same number in basic integer form."
            }
          }
        },
        "stateVariables": {
          "HALF_SCALE": {
            "details": "Half the SCALE number."
          },
          "LOG2_E": {
            "details": "log2(e) as a signed 59.18-decimal fixed-point number."
          },
          "MAX_SD59x18": {
            "details": "The maximum value a signed 59.18-decimal fixed-point number can have."
          },
          "MAX_WHOLE_SD59x18": {
            "details": "The maximum whole value a signed 59.18-decimal fixed-point number can have."
          },
          "MIN_SD59x18": {
            "details": "The minimum value a signed 59.18-decimal fixed-point number can have."
          },
          "MIN_WHOLE_SD59x18": {
            "details": "The minimum whole value a signed 59.18-decimal fixed-point number can have."
          },
          "SCALE": {
            "details": "How many trailing decimals can be represented."
          }
        },
        "title": "PRBMathSD59x18",
        "version": 1
      },
      "evm": {
        "bytecode": {
          "linkReferences": {},
          "object": "6122b761003a600b82828239805160001a60731461002d57634e487b7160e01b600052600060045260246000fd5b30600052607381538281f3fe730000000000000000000000000000000000000000301460806040526004361061014c5760003560e01c8063ae2785ac116100c2578063dbbb06d211610086578063dbbb06d214610297578063e0d68737146102aa578063e46751e3146102bd578063ebf274be146102d0578063f51e181a146102e3578063ffae15ba146102f157600080fd5b8063ae2785ac1461022f578063b47ca3c71461024b578063bbe93d911461025e578063d2bc4bc914610271578063da3ff6481461028457600080fd5b8063665df46011610114578063665df460146101bd5780636b300f51146101d0578063850766f1146101e35780638e6f2353146101f657806392b0c5b214610209578063a51636661461021c57600080fd5b80631b5ac4b5146101515780632dd9868d146101765780633a02c9831461018457806342fba7ae1461019757806343509138146101aa575b600080fd5b61016461015f3660046121ec565b6102ff565b60405190815260200160405180910390f35b672b992ddfa23249d6610164565b6101646101923660046121ec565b61033f565b6101646101a53660046121ec565b610366565b6101646101b8366004612205565b6103d9565b6101646101cb3660046121ec565b6104ab565b6101646101de3660046121ec565b610521565b6101646101f13660046121ec565b6105ac565b6101646102043660046121ec565b6105bd565b610164610217366004612205565b6105e8565b61016461022a366004612205565b610629565b61016461023d3660046121ec565b670de0b6b3a7640000900790565b6101646102593660046121ec565b6106ee565b61016461026c366004612205565b61134c565b61016461027f366004612205565b61140e565b6101646102923660046121ec565b611496565b6101646102a53660046121ec565b611501565b6101646102b83660046121ec565b611592565b6101646102cb3660046121ec565b611671565b6101646102de366004612205565b6116e1565b670de0b6b3a7640000610164565b6725b946ebc0b36173610164565b6000600160ff1b82141561032657604051631d0742e360e21b815260040160405180910390fd5b600082126103345781610339565b816000035b92915050565b6000816ec097ce7bc90715b34b9f10000000008161035f5761035f612227565b0592915050565b6000670afdc366fbc00000600160ff1b0382131561039f57604051635399a28560e11b8152600481018390526024015b60405180910390fd5b670de0b6b3a76400008207806103b7578291506103d3565b808303915060008313156103d357670de0b6b3a7640000820191505b50919050565b6000600160ff1b8314806103f05750600160ff1b82145b1561040e5760405163b3c754a360e01b815260040160405180910390fd5b6000806000851261041f5784610424565b846000035b9150600084126104345783610439565b836000035b9050600061045083670de0b6b3a764000084611716565b90506001600160ff1b0381111561047d57604051637cb4bef560e01b815260048101829052602401610396565b600019808713908613808218600114610496578261049f565b61049f83612253565b98975050505050505050565b6000808212156104d15760405163608c83ff60e11b815260048101839052602401610396565b7809392ee8e921d5d073aff322e62439fcf32d7f344649470f9082131561050e57604051632c482c3960e01b815260048101839052602401610396565b610339670de0b6b3a764000083026117e3565b60007809392ee8e921d5d073aff322e62439fcf32d7f344649470f8f198212156105615760405163e608e18b60e01b815260048101839052602401610396565b7809392ee8e921d5d073aff322e62439fcf32d7f344649470f9082131561059e576040516371f72a3160e01b815260048101839052602401610396565b50670de0b6b3a76400000290565b6000670de0b6b3a76400008261035f565b60006714057b7ef767814f670de0b6b3a76400006105da84611592565b028161035f5761035f612227565b60008261060d5781156105fc576000610606565b670de0b6b3a76400005b9050610339565b6106226102a561061c85611592565b8461134c565b9392505050565b600080610635846102ff565b9050600080846001161161065157670de0b6b3a7640000610653565b815b9050600184901c5b801561068b5761066b838461194f565b9250600181161561068357610680828461194f565b91505b60011c61065b565b6001600160ff1b038211156106b9576040516001624ea43360e01b0319815260048101839052602401610396565b600080871280156106cd5750856001166001145b9050806106da57826106e3565b6106e383612253565b979650505050505050565b60008082136107135760405163309fa7dd60e11b815260048101839052602401610396565b8160018114610e1d57600a8114610e2e5760648114610e3f576103e88114610e50576127108114610e6157620186a08114610e7257620f42408114610e8357629896808114610e94576305f5e1008114610ea557633b9aca008114610eb6576402540be4008114610ec75764174876e8008114610ed85764e8d4a510008114610ee9576509184e72a0008114610efa57655af3107a40008114610f0b5766038d7ea4c680008114610f1c57662386f26fc100008114610f2d5767016345785d8a00008114610f3e57670de0b6b3a76400008114610f4f57678ac7230489e800008114610f585768056bc75e2d631000008114610f6857683635c9adc5dea000008114610f785769021e19e0c9bab24000008114610f885769152d02c7e14af68000008114610f985769d3c21bcecceda10000008114610fa8576a084595161401484a0000008114610fb8576a52b7d2dcc80cd2e40000008114610fc8576b033b2e3c9fd0803ce80000008114610fd8576b204fce5e3e250261100000008114610fe8576c01431e0fae6d7217caa00000008114610ff8576c0c9f2c9cd04674edea400000008114611008576c7e37be2022c0914b26800000008114611018576d04ee2d6d415b85acef81000000008114611028576d314dc6448d9338c15b0a000000008114611038576e01ed09bead87c0378d8e64000000008114611048576e13426172c74d822b878fe8000000008114611058576ec097ce7bc90715b34b9f10000000008114611068576f0785ee10d5da46d900f436a0000000008114611078576f4b3b4ca85a86c47a098a2240000000008114611089577002f050fe938943acc45f65568000000000811461109a57701d6329f1c35ca4bfabb9f561000000000081146110ab57710125dfa371a19e6f7cb54395ca000000000081146110bc57710b7abc627050305adf14a3d9e4000000000081146110cd577172cb5bd86321e38cb6ce6682e8000000000081146110de5772047bf19673df52e37f2410011d10000000000081146110ef57722cd76fe086b93ce2f768a00b22a000000000008114611100577301c06a5ec5433c60ddaa16406f5a40000000000081146111115773118427b3b4a05bc8a8a4de84598680000000000081146111225773af298d050e4395d69670b12b7f410000000000008114611133577406d79f82328ea3da61e066ebb2f88a00000000000081146111445774446c3b15f9926687d2c40534fdb5640000000000008114611155577502ac3a4edbbfb8014e3ba83411e915e8000000000000811461116657751aba4714957d300d0e549208b31adb1000000000000081146111775776010b46c6cdd6e3e0828f4db456ff0c8ea0000000000000811461118857760a70c3c40a64e6c51999090b65f67d9240000000000000811461119957766867a5a867f103b2fffa5a71fba0e7b68000000000000081146111aa577704140c78940f6a24fdffc78873d4490d210000000000000081146111bb577728c87cb5c89a2571ebfdcb54864ada834a0000000000000081146111cc57780197d4df19d605767337e9f14d3eec8920e40000000000000081146111dd57780fee50b7025c36a0802f236d04753d5b48e80000000000000081146111ee57789f4f2726179a224501d762422c946590d9100000000000000081146111ff5779063917877cec0556b21269d695bdcbf7a87aa000000000000000811461121057793e3aeb4ae1383562f4b82261d969f7ac94ca40000000000000008114611221577a026e4d30eccc3215dd8f3157d27e23acbdcfe680000000000000008114611232577a184f03e93ff9f4daa797ed6e38ed64bf6a1f0100000000000000008114611243577af316271c7fc3908a8bef464e3945ef7a25360a00000000000000008114611254577b097edd871cfda3a5697758bf0e3cbb5ac5741c6400000000000000008114611265577b5ef4a74721e864761ea977768e5f518bb6891be800000000000000008114611276577c03b58e88c75313ec9d329eaaa18fb92f75215b171000000000000000008114611287577c25179157c93ec73e23fa32aa4f9d3bda934d8ee6a000000000000000008114611298577d0172ebad6ddc73c86d67c5faa71c245689c107950240000000000000000081146112a9577d0e7d34c64a9c85d4460dbbca87196b61618a4bd21680000000000000000081146112ba577d90e40fbeea1d3a4abc8955e946fe31cdcf66f634e100000000000000000081146112cb577e05a8e89d75252446eb5d5d5b1cc5edf20a1a059e10ca00000000000000000081146112dc577e3899162693736ac531a5a58f1fbb4b746504382ca7e400000000000000000081146112ed577546bf5bb0385045767e0f0ef2e7aa1e517e454637d1dd604b1b81146112fe577f161bcca7119915b50764b4abe86529797775a5f1719510000000000000000000811461130f576001600160ff1b03915061131c565b67f9ccd8a1c507ffff19915061131c565b67ebec21ee1da3ffff19915061131c565b67de0b6b3a763fffff19915061131c565b67d02ab486cedbffff19915061131c565b67c249fdd32777ffff19915061131c565b67b469471f8013ffff19915061131c565b67a688906bd8afffff19915061131c565b6798a7d9b8314bffff19915061131c565b678ac7230489e7ffff19915061131c565b677ce66c50e283ffff19915061131c565b676f05b59d3b1fffff19915061131c565b676124fee993bbffff19915061131c565b6753444835ec57ffff19915061131c565b674563918244f3ffff19915061131c565b673782dace9d8fffff19915061131c565b6729a2241af62bffff19915061131c565b671bc16d674ec7ffff19915061131c565b670de0b6b3a763ffff19915061131c565b6000915061131c565b670de0b6b3a7640000915061131c565b671bc16d674ec80000915061131c565b6729a2241af62c0000915061131c565b673782dace9d900000915061131c565b674563918244f40000915061131c565b6753444835ec580000915061131c565b676124fee993bc0000915061131c565b676f05b59d3b200000915061131c565b677ce66c50e2840000915061131c565b678ac7230489e80000915061131c565b6798a7d9b8314c0000915061131c565b67a688906bd8b00000915061131c565b67b469471f80140000915061131c565b67c249fdd327780000915061131c565b67d02ab486cedc0000915061131c565b67de0b6b3a76400000915061131c565b67ebec21ee1da40000915061131c565b67f9ccd8a1c5080000915061131c565b680107ad8f556c6c0000915061131c565b6801158e460913d00000915061131c565b6801236efcbcbb340000915061131c565b6801314fb37062980000915061131c565b68013f306a2409fc0000915061131c565b68014d1120d7b1600000915061131c565b68015af1d78b58c40000915061131c565b680168d28e3f00280000915061131c565b680176b344f2a78c0000915061131c565b68018493fba64ef00000915061131c565b68019274b259f6540000915061131c565b6801a055690d9db80000915061131c565b6801ae361fc1451c0000915061131c565b6801bc16d674ec800000915061131c565b6801c9f78d2893e40000915061131c565b6801d7d843dc3b480000915061131c565b6801e5b8fa8fe2ac0000915061131c565b6801f399b1438a100000915061131c565b6802017a67f731740000915061131c565b68020f5b1eaad8d80000915061131c565b68021d3bd55e803c0000915061131c565b68022b1c8c1227a00000915061131c565b680238fd42c5cf040000915061131c565b680246ddf97976680000915061131c565b680254beb02d1dcc0000915061131c565b6802629f66e0c5300000915061131c565b680270801d946c940000915061131c565b68027e60d44813f80000915061131c565b68028c418afbbb5c0000915061131c565b68029a2241af62c00000915061131c565b6802a802f8630a240000915061131c565b6802b5e3af16b1880000915061131c565b6802c3c465ca58ec0000915061131c565b6802d1a51c7e00500000915061131c565b6802df85d331a7b40000915061131c565b6802ed6689e54f180000915061131c565b6802fb474098f67c0000915061131c565b68030927f74c9de00000915061131c565b68031708ae0045440000915061131c565b680324e964b3eca8000091505b506001600160ff1b0381141561134757672e19dc008126bf2b670de0b6b3a76400006105da84611592565b919050565b6000600160ff1b8314806113635750600160ff1b82145b1561138157604051630d01a11b60e21b815260040160405180910390fd5b600080600085126113925784611397565b846000035b9150600084126113a757836113ac565b836000035b905060006113ba838361194f565b90506001600160ff1b038111156113e75760405163bf79e8d960e01b815260048101829052602401610396565b600019808713908613808218600114611400578261049f565b505060000395945050505050565b60008261141d57506000610339565b8282028284828161143057611430612227565b0514611459576040516307dc84c760e11b81526004810185905260248101849052604401610396565b600081121561148557604051637f1883cd60e11b81526004810185905260248101849052604401610396565b61148e816117e3565b949350505050565b6000670afdc366fbc00000600160ff1b018212156114ca57604051637c00653f60e01b815260048101839052602401610396565b670de0b6b3a76400008207806114e2578291506103d3565b808303915060008312156103d35750670de0b6b3a763ffff1901919050565b60008082121561154e5768033dd1780914b971141982121561152557506000919050565b61153182600003611501565b6ec097ce7bc90715b34b9f10000000008161035f5761035f612227565b680a688906bd8b000000821261157a5760405163e69458f960e01b815260048101839052602401610396565b670de0b6b3a7640000604083901b0461062281611a11565b60008082136115b75760405163309fa7dd60e11b815260048101839052602401610396565b6000670de0b6b3a764000083126115d0575060016115ea565b6000199050826ec097ce7bc90715b34b9f10000000000492505b60006115ff670de0b6b3a7640000850561210d565b670de0b6b3a7640000808202945090915084821d9081141561162357505002919050565b6706f05b59d3b200005b600081131561166857670de0b6b3a7640000828002059150671bc16d674ec800008212611660579384019360019190911d905b60011d61162d565b50505002919050565b600068023f2fa8f6da5b9d311982121561168d57506000919050565b680736ea4425c11ac63182126116b9576040516399bb754160e01b815260048101839052602401610396565b6714057b7ef767814f8202610622670de0b6b3a76400006706f05b59d3b20000830105611501565b6000600183811d9083901d0181811215611704576001838517168101915061170f565b828416600116810191505b5092915050565b6000808060001985870985870292508281108382030391505080600014156117515783828161174757611747612227565b0492505050610622565b83811061177b57604051631dcf306360e21b81526004810182905260248101859052604401610396565b600084868809600260036001881981018916988990049182028318808302840302808302840302808302840302808302840302808302840302918202909203026000889003889004909101858311909403939093029303949094049190911702949350505050565b6000816117f257506000919050565b50600181600160801b811061180c5760409190911b9060801c5b600160401b81106118225760209190911b9060401c5b64010000000081106118395760109190911b9060201c5b62010000811061184e5760089190911b9060101c5b61010081106118625760049190911b9060081c5b601081106118755760029190911b9060041c5b6008811061188557600182901b91505b600182848161189657611896612227565b048301901c915060018284816118ae576118ae612227565b048301901c915060018284816118c6576118c6612227565b048301901c915060018284816118de576118de612227565b048301901c915060018284816118f6576118f6612227565b048301901c9150600182848161190e5761190e612227565b048301901c9150600182848161192657611926612227565b048301901c9150600082848161193e5761193e612227565b04905080831015610622578261148e565b60008080600019848609848602925082811083820303915050670de0b6b3a764000081106119935760405163698d9a0160e11b815260048101829052602401610396565b600080670de0b6b3a76400008688099150506706f05b59d3b1ffff8111826119cd5780670de0b6b3a7640000850401945050505050610339565b620400008285030493909111909103600160ee1b02919091177faccb18165bd6fe31ae1cf318dc5b51eee0e1ba569b88cd74c1773b91fac106690201905092915050565b600160bf1b678000000000000000821615611a355768016a09e667f3bcc9090260401c5b674000000000000000821615611a54576801306fe0a31b7152df0260401c5b672000000000000000821615611a73576801172b83c7d517adce0260401c5b671000000000000000821615611a925768010b5586cf9890f62a0260401c5b670800000000000000821615611ab1576801059b0d31585743ae0260401c5b670400000000000000821615611ad057680102c9a3e778060ee70260401c5b670200000000000000821615611aef5768010163da9fb33356d80260401c5b670100000000000000821615611b0e57680100b1afa5abcbed610260401c5b6680000000000000821615611b2c5768010058c86da1c09ea20260401c5b6640000000000000821615611b4a576801002c605e2e8cec500260401c5b6620000000000000821615611b6857680100162f3904051fa10260401c5b6610000000000000821615611b86576801000b175effdc76ba0260401c5b6608000000000000821615611ba457680100058ba01fb9f96d0260401c5b6604000000000000821615611bc25768010002c5cc37da94920260401c5b6602000000000000821615611be0576801000162e525ee05470260401c5b6601000000000000821615611bfe5768010000b17255775c040260401c5b65800000000000821615611c1b576801000058b91b5bc9ae0260401c5b65400000000000821615611c3857680100002c5c89d5ec6d0260401c5b65200000000000821615611c555768010000162e43f4f8310260401c5b65100000000000821615611c7257680100000b1721bcfc9a0260401c5b65080000000000821615611c8f5768010000058b90cf1e6e0260401c5b65040000000000821615611cac576801000002c5c863b73f0260401c5b65020000000000821615611cc957680100000162e430e5a20260401c5b65010000000000821615611ce6576801000000b1721835510260401c5b648000000000821615611d0257680100000058b90c0b490260401c5b644000000000821615611d1e5768010000002c5c8601cc0260401c5b642000000000821615611d3a576801000000162e42fff00260401c5b641000000000821615611d565768010000000b17217fbb0260401c5b640800000000821615611d72576801000000058b90bfce0260401c5b640400000000821615611d8e57680100000002c5c85fe30260401c5b640200000000821615611daa5768010000000162e42ff10260401c5b640100000000821615611dc657680100000000b17217f80260401c5b6380000000821615611de15768010000000058b90bfc0260401c5b6340000000821615611dfc576801000000002c5c85fe0260401c5b6320000000821615611e1757680100000000162e42ff0260401c5b6310000000821615611e32576801000000000b17217f0260401c5b6308000000821615611e4d57680100000000058b90c00260401c5b6304000000821615611e685768010000000002c5c8600260401c5b6302000000821615611e83576801000000000162e4300260401c5b6301000000821615611e9e5768010000000000b172180260401c5b62800000821615611eb8576801000000000058b90c0260401c5b62400000821615611ed257680100000000002c5c860260401c5b62200000821615611eec5768010000000000162e430260401c5b62100000821615611f0657680100000000000b17210260401c5b62080000821615611f205768010000000000058b910260401c5b62040000821615611f3a576801000000000002c5c80260401c5b62020000821615611f5457680100000000000162e40260401c5b62010000821615611f6e576801000000000000b1720260401c5b618000821615611f8757680100000000000058b90260401c5b614000821615611fa05768010000000000002c5d0260401c5b612000821615611fb9576801000000000000162e0260401c5b611000821615611fd25768010000000000000b170260401c5b610800821615611feb576801000000000000058c0260401c5b61040082161561200457680100000000000002c60260401c5b61020082161561201d57680100000000000001630260401c5b61010082161561203657680100000000000000b10260401c5b608082161561204e57680100000000000000590260401c5b6040821615612066576801000000000000002c0260401c5b602082161561207e57680100000000000000160260401c5b6010821615612096576801000000000000000b0260401c5b60088216156120ae57680100000000000000060260401c5b60048216156120c657680100000000000000030260401c5b60028216156120de57680100000000000000010260401c5b60018216156120f657680100000000000000010260401c5b670de0b6b3a76400000260409190911c60bf031c90565b6000600160801b821061212d57608091821c9161212a9082612269565b90505b600160401b821061214b57604091821c916121489082612269565b90505b640100000000821061216a57602091821c916121679082612269565b90505b62010000821061218757601091821c916121849082612269565b90505b61010082106121a357600891821c916121a09082612269565b90505b601082106121be57600491821c916121bb9082612269565b90505b600482106121d957600291821c916121d69082612269565b90505b6002821061134757610339600182612269565b6000602082840312156121fe57600080fd5b5035919050565b6000806040838503121561221857600080fd5b50508035926020909101359150565b634e487b7160e01b600052601260045260246000fd5b634e487b7160e01b600052601160045260246000fd5b6000600160ff1b8214156103345761033461223d565b6000821982111561227c5761227c61223d565b50019056fea2646970667358221220a55459c68d2f9d1ec66bf85b7d9bf634ac26cc24cbcf793bf48c9148bb2fccae64736f6c63430008090033",
          "opcodes": "PUSH2 0x22B7 PUSH2 0x3A PUSH1 0xB DUP3 DUP3 DUP3 CODECOPY DUP1 MLOAD PUSH1 0x0 BYTE PUSH1 0x73 EQ PUSH2 0x2D JUMPI PUSH4 0x4E487B71 PUSH1 0xE0 SHL PUSH1 0x0 MSTORE PUSH1 0x0 PUSH1 0x4 MSTORE PUSH1 0x24 PUSH1 0x0 REVERT JUMPDEST ADDRESS PUSH1 0x0 MSTORE PUSH1 0x73 DUP2 MSTORE8 DUP3 DUP2 RETURN INVALID PUSH20 0x0 ADDRESS EQ PUSH1 0x80 PUSH1 0x40 MSTORE PUSH1 0x4 CALLDATASIZE LT PUSH2 0x14C JUMPI PUSH1 0x0 CALLDATALOAD PUSH1 0xE0 SHR DUP1 PUSH4 0xAE2785AC GT PUSH2 0xC2 JUMPI DUP1 PUSH4 0xDBBB06D2 GT PUSH2 0x86 JUMPI DUP1 PUSH4 0xDBBB06D2 EQ PUSH2 0x297 JUMPI DUP1 PUSH4 0xE0D68737 EQ PUSH2 0x2AA JUMPI DUP1 PUSH4 0xE46751E3 EQ PUSH2 0x2BD JUMPI DUP1 PUSH4 0xEBF274BE EQ PUSH2 0x2D0 JUMPI DUP1 PUSH4 0xF51E181A EQ PUSH2 0x2E3 JUMPI DUP1 PUSH4 0xFFAE15BA EQ PUSH2 0x2F1 JUMPI PUSH1 0x0 DUP1 REVERT JUMPDEST DUP1 PUSH4 0xAE2785AC EQ PUSH2 0x22F JUMPI DUP1 PUSH4 0xB47CA3C7 EQ PUSH2 0x24B JUMPI DUP1 PUSH4 0xBBE93D91 EQ PUSH2 0x25E JUMPI DUP1 PUSH4 0xD2BC4BC9 EQ PUSH2 0x271 JUMPI DUP1 PUSH4 0xDA3FF648 EQ PUSH2 0x284 JUMPI PUSH1 0x0 DUP1 REVERT JUMPDEST DUP1 PUSH4 0x665DF460 GT PUSH2 0x114 JUMPI DUP1 PUSH4 0x665DF460 EQ PUSH2 0x1BD JUMPI DUP1 PUSH4 0x6B300F51 EQ PUSH2 0x1D0 JUMPI DUP1 PUSH4 0x850766F1 EQ PUSH2 0x1E3 JUMPI DUP1 PUSH4 0x8E6F2353 EQ PUSH2 0x1F6 JUMPI DUP1 PUSH4 0x92B0C5B2 EQ PUSH2 0x209 JUMPI DUP1 PUSH4 0xA5163666 EQ PUSH2 0x21C JUMPI PUSH1 0x0 DUP1 REVERT JUMPDEST DUP1 PUSH4 0x1B5AC4B5 EQ PUSH2 0x151 JUMPI DUP1 PUSH4 0x2DD9868D EQ PUSH2 0x176 JUMPI DUP1 PUSH4 0x3A02C983 EQ PUSH2 0x184 JUMPI DUP1 PUSH4 0x42FBA7AE EQ PUSH2 0x197 JUMPI DUP1 PUSH4 0x43509138 EQ PUSH2 0x1AA JUMPI JUMPDEST PUSH1 0x0 DUP1 REVERT JUMPDEST PUSH2 0x164 PUSH2 0x15F CALLDATASIZE PUSH1 0x4 PUSH2 0x21EC JUMP JUMPDEST PUSH2 0x2FF JUMP JUMPDEST PUSH1 0x40 MLOAD SWAP1 DUP2 MSTORE PUSH1 0x20 ADD PUSH1 0x40 MLOAD DUP1 SWAP2 SUB SWAP1 RETURN JUMPDEST PUSH8 0x2B992DDFA23249D6 PUSH2 0x164 JUMP JUMPDEST PUSH2 0x164 PUSH2 0x192 CALLDATASIZE PUSH1 0x4 PUSH2 0x21EC JUMP JUMPDEST PUSH2 0x33F JUMP JUMPDEST PUSH2 0x164 PUSH2 0x1A5 CALLDATASIZE PUSH1 0x4 PUSH2 0x21EC JUMP JUMPDEST PUSH2 0x366 JUMP JUMPDEST PUSH2 0x164 PUSH2 0x1B8 CALLDATASIZE PUSH1 0x4 PUSH2 0x2205 JUMP JUMPDEST PUSH2 0x3D9 JUMP JUMPDEST PUSH2 0x164 PUSH2 0x1CB CALLDATASIZE PUSH1 0x4 PUSH2 0x21EC JUMP JUMPDEST PUSH2 0x4AB JUMP JUMPDEST PUSH2 0x164 PUSH2 0x1DE CALLDATASIZE PUSH1 0x4 PUSH2 0x21EC JUMP JUMPDEST PUSH2 0x521 JUMP JUMPDEST PUSH2 0x164 PUSH2 0x1F1 CALLDATASIZE PUSH1 0x4 PUSH2 0x21EC JUMP JUMPDEST PUSH2 0x5AC JUMP JUMPDEST PUSH2 0x164 PUSH2 0x204 CALLDATASIZE PUSH1 0x4 PUSH2 0x21EC JUMP JUMPDEST PUSH2 0x5BD JUMP JUMPDEST PUSH2 0x164 PUSH2 0x217 CALLDATASIZE PUSH1 0x4 PUSH2 0x2205 JUMP JUMPDEST PUSH2 0x5E8 JUMP JUMPDEST PUSH2 0x164 PUSH2 0x22A CALLDATASIZE PUSH1 0x4 PUSH2 0x2205 JUMP JUMPDEST PUSH2 0x629 JUMP JUMPDEST PUSH2 0x164 PUSH2 0x23D CALLDATASIZE PUSH1 0x4 PUSH2 0x21EC JUMP JUMPDEST PUSH8 0xDE0B6B3A7640000 SWAP1 SMOD SWAP1 JUMP JUMPDEST PUSH2 0x164 PUSH2 0x259 CALLDATASIZE PUSH1 0x4 PUSH2 0x21EC JUMP JUMPDEST PUSH2 0x6EE JUMP JUMPDEST PUSH2 0x164 PUSH2 0x26C CALLDATASIZE PUSH1 0x4 PUSH2 0x2205 JUMP JUMPDEST PUSH2 0x134C JUMP JUMPDEST PUSH2 0x164 PUSH2 0x27F CALLDATASIZE PUSH1 0x4 PUSH2 0x2205 JUMP JUMPDEST PUSH2 0x140E JUMP JUMPDEST PUSH2 0x164 PUSH2 0x292 CALLDATASIZE PUSH1 0x4 PUSH2 0x21EC JUMP JUMPDEST PUSH2 0x1496 JUMP JUMPDEST PUSH2 0x164 PUSH2 0x2A5 CALLDATASIZE PUSH1 0x4 PUSH2 0x21EC JUMP JUMPDEST PUSH2 0x1501 JUMP JUMPDEST PUSH2 0x164 PUSH2 0x2B8 CALLDATASIZE PUSH1 0x4 PUSH2 0x21EC JUMP JUMPDEST PUSH2 0x1592 JUMP JUMPDEST PUSH2 0x164 PUSH2 0x2CB CALLDATASIZE PUSH1 0x4 PUSH2 0x21EC JUMP JUMPDEST PUSH2 0x1671 JUMP JUMPDEST PUSH2 0x164 PUSH2 0x2DE CALLDATASIZE PUSH1 0x4 PUSH2 0x2205 JUMP JUMPDEST PUSH2 0x16E1 JUMP JUMPDEST PUSH8 0xDE0B6B3A7640000 PUSH2 0x164 JUMP JUMPDEST PUSH8 0x25B946EBC0B36173 PUSH2 0x164 JUMP JUMPDEST PUSH1 0x0 PUSH1 0x1 PUSH1 0xFF SHL DUP3 EQ ISZERO PUSH2 0x326 JUMPI PUSH1 0x40 MLOAD PUSH4 0x1D0742E3 PUSH1 0xE2 SHL DUP2 MSTORE PUSH1 0x4 ADD PUSH1 0x40 MLOAD DUP1 SWAP2 SUB SWAP1 REVERT JUMPDEST PUSH1 0x0 DUP3 SLT PUSH2 0x334 JUMPI DUP2 PUSH2 0x339 JUMP JUMPDEST DUP2 PUSH1 0x0 SUB JUMPDEST SWAP3 SWAP2 POP POP JUMP JUMPDEST PUSH1 0x0 DUP2 PUSH15 0xC097CE7BC90715B34B9F1000000000 DUP2 PUSH2 0x35F JUMPI PUSH2 0x35F PUSH2 0x2227 JUMP JUMPDEST SDIV SWAP3 SWAP2 POP POP JUMP JUMPDEST PUSH1 0x0 PUSH8 0xAFDC366FBC00000 PUSH1 0x1 PUSH1 0xFF SHL SUB DUP3 SGT ISZERO PUSH2 0x39F JUMPI PUSH1 0x40 MLOAD PUSH4 0x5399A285 PUSH1 0xE1 SHL DUP2 MSTORE PUSH1 0x4 DUP2 ADD DUP4 SWAP1 MSTORE PUSH1 0x24 ADD JUMPDEST PUSH1 0x40 MLOAD DUP1 SWAP2 SUB SWAP1 REVERT JUMPDEST PUSH8 0xDE0B6B3A7640000 DUP3 SMOD DUP1 PUSH2 0x3B7 JUMPI DUP3 SWAP2 POP PUSH2 0x3D3 JUMP JUMPDEST DUP1 DUP4 SUB SWAP2 POP PUSH1 0x0 DUP4 SGT ISZERO PUSH2 0x3D3 JUMPI PUSH8 0xDE0B6B3A7640000 DUP3 ADD SWAP2 POP JUMPDEST POP SWAP2 SWAP1 POP JUMP JUMPDEST PUSH1 0x0 PUSH1 0x1 PUSH1 0xFF SHL DUP4 EQ DUP1 PUSH2 0x3F0 JUMPI POP PUSH1 0x1 PUSH1 0xFF SHL DUP3 EQ JUMPDEST ISZERO PUSH2 0x40E JUMPI PUSH1 0x40 MLOAD PUSH4 0xB3C754A3 PUSH1 0xE0 SHL DUP2 MSTORE PUSH1 0x4 ADD PUSH1 0x40 MLOAD DUP1 SWAP2 SUB SWAP1 REVERT JUMPDEST PUSH1 0x0 DUP1 PUSH1 0x0 DUP6 SLT PUSH2 0x41F JUMPI DUP5 PUSH2 0x424 JUMP JUMPDEST DUP5 PUSH1 0x0 SUB JUMPDEST SWAP2 POP PUSH1 0x0 DUP5 SLT PUSH2 0x434 JUMPI DUP4 PUSH2 0x439 JUMP JUMPDEST DUP4 PUSH1 0x0 SUB JUMPDEST SWAP1 POP PUSH1 0x0 PUSH2 0x450 DUP4 PUSH8 0xDE0B6B3A7640000 DUP5 PUSH2 0x1716 JUMP JUMPDEST SWAP1 POP PUSH1 0x1 PUSH1 0x1 PUSH1 0xFF SHL SUB DUP2 GT ISZERO PUSH2 0x47D JUMPI PUSH1 0x40 MLOAD PUSH4 0x7CB4BEF5 PUSH1 0xE0 SHL DUP2 MSTORE PUSH1 0x4 DUP2 ADD DUP3 SWAP1 MSTORE PUSH1 0x24 ADD PUSH2 0x396 JUMP JUMPDEST PUSH1 0x0 NOT DUP1 DUP8 SGT SWAP1 DUP7 SGT DUP1 DUP3 XOR PUSH1 0x1 EQ PUSH2 0x496 JUMPI DUP3 PUSH2 0x49F JUMP JUMPDEST PUSH2 0x49F DUP4 PUSH2 0x2253 JUMP JUMPDEST SWAP9 SWAP8 POP POP POP POP POP POP POP POP JUMP JUMPDEST PUSH1 0x0 DUP1 DUP3 SLT ISZERO PUSH2 0x4D1 JUMPI PUSH1 0x40 MLOAD PUSH4 0x608C83FF PUSH1 0xE1 SHL DUP2 MSTORE PUSH1 0x4 DUP2 ADD DUP4 SWAP1 MSTORE PUSH1 0x24 ADD PUSH2 0x396 JUMP JUMPDEST PUSH25 0x9392EE8E921D5D073AFF322E62439FCF32D7F344649470F90 DUP3 SGT ISZERO PUSH2 0x50E JUMPI PUSH1 0x40 MLOAD PUSH4 0x2C482C39 PUSH1 0xE0 SHL DUP2 MSTORE PUSH1 0x4 DUP2 ADD DUP4 SWAP1 MSTORE PUSH1 0x24 ADD PUSH2 0x396 JUMP JUMPDEST PUSH2 0x339 PUSH8 0xDE0B6B3A7640000 DUP4 MUL PUSH2 0x17E3 JUMP JUMPDEST PUSH1 0x0 PUSH25 0x9392EE8E921D5D073AFF322E62439FCF32D7F344649470F8F NOT DUP3 SLT ISZERO PUSH2 0x561 JUMPI PUSH1 0x40 MLOAD PUSH4 0xE608E18B PUSH1 0xE0 SHL DUP2 MSTORE PUSH1 0x4 DUP2 ADD DUP4 SWAP1 MSTORE PUSH1 0x24 ADD PUSH2 0x396 JUMP JUMPDEST PUSH25 0x9392EE8E921D5D073AFF322E62439FCF32D7F344649470F90 DUP3 SGT ISZERO PUSH2 0x59E JUMPI PUSH1 0x40 MLOAD PUSH4 0x71F72A31 PUSH1 0xE0 SHL DUP2 MSTORE PUSH1 0x4 DUP2 ADD DUP4 SWAP1 MSTORE PUSH1 0x24 ADD PUSH2 0x396 JUMP JUMPDEST POP PUSH8 0xDE0B6B3A7640000 MUL SWAP1 JUMP JUMPDEST PUSH1 0x0 PUSH8 0xDE0B6B3A7640000 DUP3 PUSH2 0x35F JUMP JUMPDEST PUSH1 0x0 PUSH8 0x14057B7EF767814F PUSH8 0xDE0B6B3A7640000 PUSH2 0x5DA DUP5 PUSH2 0x1592 JUMP JUMPDEST MUL DUP2 PUSH2 0x35F JUMPI PUSH2 0x35F PUSH2 0x2227 JUMP JUMPDEST PUSH1 0x0 DUP3 PUSH2 0x60D JUMPI DUP2 ISZERO PUSH2 0x5FC JUMPI PUSH1 0x0 PUSH2 0x606 JUMP JUMPDEST PUSH8 0xDE0B6B3A7640000 JUMPDEST SWAP1 POP PUSH2 0x339 JUMP JUMPDEST PUSH2 0x622 PUSH2 0x2A5 PUSH2 0x61C DUP6 PUSH2 0x1592 JUMP JUMPDEST DUP5 PUSH2 0x134C JUMP JUMPDEST SWAP4 SWAP3 POP POP POP JUMP JUMPDEST PUSH1 0x0 DUP1 PUSH2 0x635 DUP5 PUSH2 0x2FF JUMP JUMPDEST SWAP1 POP PUSH1 0x0 DUP1 DUP5 PUSH1 0x1 AND GT PUSH2 0x651 JUMPI PUSH8 0xDE0B6B3A7640000 PUSH2 0x653 JUMP JUMPDEST DUP2 JUMPDEST SWAP1 POP PUSH1 0x1 DUP5 SWAP1 SHR JUMPDEST DUP1 ISZERO PUSH2 0x68B JUMPI PUSH2 0x66B DUP4 DUP5 PUSH2 0x194F JUMP JUMPDEST SWAP3 POP PUSH1 0x1 DUP2 AND ISZERO PUSH2 0x683 JUMPI PUSH2 0x680 DUP3 DUP5 PUSH2 0x194F JUMP JUMPDEST SWAP2 POP JUMPDEST PUSH1 0x1 SHR PUSH2 0x65B JUMP JUMPDEST PUSH1 0x1 PUSH1 0x1 PUSH1 0xFF SHL SUB DUP3 GT ISZERO PUSH2 0x6B9 JUMPI PUSH1 0x40 MLOAD PUSH1 0x1 PUSH3 0x4EA433 PUSH1 0xE0 SHL SUB NOT DUP2 MSTORE PUSH1 0x4 DUP2 ADD DUP4 SWAP1 MSTORE PUSH1 0x24 ADD PUSH2 0x396 JUMP JUMPDEST PUSH1 0x0 DUP1 DUP8 SLT DUP1 ISZERO PUSH2 0x6CD JUMPI POP DUP6 PUSH1 0x1 AND PUSH1 0x1 EQ JUMPDEST SWAP1 POP DUP1 PUSH2 0x6DA JUMPI DUP3 PUSH2 0x6E3 JUMP JUMPDEST PUSH2 0x6E3 DUP4 PUSH2 0x2253 JUMP JUMPDEST SWAP8 SWAP7 POP POP POP POP POP POP POP JUMP JUMPDEST PUSH1 0x0 DUP1 DUP3 SGT PUSH2 0x713 JUMPI PUSH1 0x40 MLOAD PUSH4 0x309FA7DD PUSH1 0xE1 SHL DUP2 MSTORE PUSH1 0x4 DUP2 ADD DUP4 SWAP1 MSTORE PUSH1 0x24 ADD PUSH2 0x396 JUMP JUMPDEST DUP2 PUSH1 0x1 DUP2 EQ PUSH2 0xE1D JUMPI PUSH1 0xA DUP2 EQ PUSH2 0xE2E JUMPI PUSH1 0x64 DUP2 EQ PUSH2 0xE3F JUMPI PUSH2 0x3E8 DUP2 EQ PUSH2 0xE50 JUMPI PUSH2 0x2710 DUP2 EQ PUSH2 0xE61 JUMPI PUSH3 0x186A0 DUP2 EQ PUSH2 0xE72 JUMPI PUSH3 0xF4240 DUP2 EQ PUSH2 0xE83 JUMPI PUSH3 0x989680 DUP2 EQ PUSH2 0xE94 JUMPI PUSH4 0x5F5E100 DUP2 EQ PUSH2 0xEA5 JUMPI PUSH4 0x3B9ACA00 DUP2 EQ PUSH2 0xEB6 JUMPI PUSH5 0x2540BE400 DUP2 EQ PUSH2 0xEC7 JUMPI PUSH5 0x174876E800 DUP2 EQ PUSH2 0xED8 JUMPI PUSH5 0xE8D4A51000 DUP2 EQ PUSH2 0xEE9 JUMPI PUSH6 0x9184E72A000 DUP2 EQ PUSH2 0xEFA JUMPI PUSH6 0x5AF3107A4000 DUP2 EQ PUSH2 0xF0B JUMPI PUSH7 0x38D7EA4C68000 DUP2 EQ PUSH2 0xF1C JUMPI PUSH7 0x2386F26FC10000 DUP2 EQ PUSH2 0xF2D JUMPI PUSH8 0x16345785D8A0000 DUP2 EQ PUSH2 0xF3E JUMPI PUSH8 0xDE0B6B3A7640000 DUP2 EQ PUSH2 0xF4F JUMPI PUSH8 0x8AC7230489E80000 DUP2 EQ PUSH2 0xF58 JUMPI PUSH9 0x56BC75E2D63100000 DUP2 EQ PUSH2 0xF68 JUMPI PUSH9 0x3635C9ADC5DEA00000 DUP2 EQ PUSH2 0xF78 JUMPI PUSH10 0x21E19E0C9BAB2400000 DUP2 EQ PUSH2 0xF88 JUMPI PUSH10 0x152D02C7E14AF6800000 DUP2 EQ PUSH2 0xF98 JUMPI PUSH10 0xD3C21BCECCEDA1000000 DUP2 EQ PUSH2 0xFA8 JUMPI PUSH11 0x84595161401484A000000 DUP2 EQ PUSH2 0xFB8 JUMPI PUSH11 0x52B7D2DCC80CD2E4000000 DUP2 EQ PUSH2 0xFC8 JUMPI PUSH12 0x33B2E3C9FD0803CE8000000 DUP2 EQ PUSH2 0xFD8 JUMPI PUSH12 0x204FCE5E3E25026110000000 DUP2 EQ PUSH2 0xFE8 JUMPI PUSH13 0x1431E0FAE6D7217CAA0000000 DUP2 EQ PUSH2 0xFF8 JUMPI PUSH13 0xC9F2C9CD04674EDEA40000000 DUP2 EQ PUSH2 0x1008 JUMPI PUSH13 0x7E37BE2022C0914B2680000000 DUP2 EQ PUSH2 0x1018 JUMPI PUSH14 0x4EE2D6D415B85ACEF8100000000 DUP2 EQ PUSH2 0x1028 JUMPI PUSH14 0x314DC6448D9338C15B0A00000000 DUP2 EQ PUSH2 0x1038 JUMPI PUSH15 0x1ED09BEAD87C0378D8E6400000000 DUP2 EQ PUSH2 0x1048 JUMPI PUSH15 0x13426172C74D822B878FE800000000 DUP2 EQ PUSH2 0x1058 JUMPI PUSH15 0xC097CE7BC90715B34B9F1000000000 DUP2 EQ PUSH2 0x1068 JUMPI PUSH16 0x785EE10D5DA46D900F436A000000000 DUP2 EQ PUSH2 0x1078 JUMPI PUSH16 0x4B3B4CA85A86C47A098A224000000000 DUP2 EQ PUSH2 0x1089 JUMPI PUSH17 0x2F050FE938943ACC45F65568000000000 DUP2 EQ PUSH2 0x109A JUMPI PUSH17 0x1D6329F1C35CA4BFABB9F5610000000000 DUP2 EQ PUSH2 0x10AB JUMPI PUSH18 0x125DFA371A19E6F7CB54395CA0000000000 DUP2 EQ PUSH2 0x10BC JUMPI PUSH18 0xB7ABC627050305ADF14A3D9E40000000000 DUP2 EQ PUSH2 0x10CD JUMPI PUSH18 0x72CB5BD86321E38CB6CE6682E80000000000 DUP2 EQ PUSH2 0x10DE JUMPI PUSH19 0x47BF19673DF52E37F2410011D100000000000 DUP2 EQ PUSH2 0x10EF JUMPI PUSH19 0x2CD76FE086B93CE2F768A00B22A00000000000 DUP2 EQ PUSH2 0x1100 JUMPI PUSH20 0x1C06A5EC5433C60DDAA16406F5A400000000000 DUP2 EQ PUSH2 0x1111 JUMPI PUSH20 0x118427B3B4A05BC8A8A4DE845986800000000000 DUP2 EQ PUSH2 0x1122 JUMPI PUSH20 0xAF298D050E4395D69670B12B7F41000000000000 DUP2 EQ PUSH2 0x1133 JUMPI PUSH21 0x6D79F82328EA3DA61E066EBB2F88A000000000000 DUP2 EQ PUSH2 0x1144 JUMPI PUSH21 0x446C3B15F9926687D2C40534FDB564000000000000 DUP2 EQ PUSH2 0x1155 JUMPI PUSH22 0x2AC3A4EDBBFB8014E3BA83411E915E8000000000000 DUP2 EQ PUSH2 0x1166 JUMPI PUSH22 0x1ABA4714957D300D0E549208B31ADB10000000000000 DUP2 EQ PUSH2 0x1177 JUMPI PUSH23 0x10B46C6CDD6E3E0828F4DB456FF0C8EA0000000000000 DUP2 EQ PUSH2 0x1188 JUMPI PUSH23 0xA70C3C40A64E6C51999090B65F67D9240000000000000 DUP2 EQ PUSH2 0x1199 JUMPI PUSH23 0x6867A5A867F103B2FFFA5A71FBA0E7B680000000000000 DUP2 EQ PUSH2 0x11AA JUMPI PUSH24 0x4140C78940F6A24FDFFC78873D4490D2100000000000000 DUP2 EQ PUSH2 0x11BB JUMPI PUSH24 0x28C87CB5C89A2571EBFDCB54864ADA834A00000000000000 DUP2 EQ PUSH2 0x11CC JUMPI PUSH25 0x197D4DF19D605767337E9F14D3EEC8920E400000000000000 DUP2 EQ PUSH2 0x11DD JUMPI PUSH25 0xFEE50B7025C36A0802F236D04753D5B48E800000000000000 DUP2 EQ PUSH2 0x11EE JUMPI PUSH25 0x9F4F2726179A224501D762422C946590D91000000000000000 DUP2 EQ PUSH2 0x11FF JUMPI PUSH26 0x63917877CEC0556B21269D695BDCBF7A87AA000000000000000 DUP2 EQ PUSH2 0x1210 JUMPI PUSH26 0x3E3AEB4AE1383562F4B82261D969F7AC94CA4000000000000000 DUP2 EQ PUSH2 0x1221 JUMPI PUSH27 0x26E4D30ECCC3215DD8F3157D27E23ACBDCFE68000000000000000 DUP2 EQ PUSH2 0x1232 JUMPI PUSH27 0x184F03E93FF9F4DAA797ED6E38ED64BF6A1F010000000000000000 DUP2 EQ PUSH2 0x1243 JUMPI PUSH27 0xF316271C7FC3908A8BEF464E3945EF7A25360A0000000000000000 DUP2 EQ PUSH2 0x1254 JUMPI PUSH28 0x97EDD871CFDA3A5697758BF0E3CBB5AC5741C640000000000000000 DUP2 EQ PUSH2 0x1265 JUMPI PUSH28 0x5EF4A74721E864761EA977768E5F518BB6891BE80000000000000000 DUP2 EQ PUSH2 0x1276 JUMPI PUSH29 0x3B58E88C75313EC9D329EAAA18FB92F75215B17100000000000000000 DUP2 EQ PUSH2 0x1287 JUMPI PUSH29 0x25179157C93EC73E23FA32AA4F9D3BDA934D8EE6A00000000000000000 DUP2 EQ PUSH2 0x1298 JUMPI PUSH30 0x172EBAD6DDC73C86D67C5FAA71C245689C1079502400000000000000000 DUP2 EQ PUSH2 0x12A9 JUMPI PUSH30 0xE7D34C64A9C85D4460DBBCA87196B61618A4BD216800000000000000000 DUP2 EQ PUSH2 0x12BA JUMPI PUSH30 0x90E40FBEEA1D3A4ABC8955E946FE31CDCF66F634E1000000000000000000 DUP2 EQ PUSH2 0x12CB JUMPI PUSH31 0x5A8E89D75252446EB5D5D5B1CC5EDF20A1A059E10CA000000000000000000 DUP2 EQ PUSH2 0x12DC JUMPI PUSH31 0x3899162693736AC531A5A58F1FBB4B746504382CA7E4000000000000000000 DUP2 EQ PUSH2 0x12ED JUMPI PUSH22 0x46BF5BB0385045767E0F0EF2E7AA1E517E454637D1DD PUSH1 0x4B SHL DUP2 EQ PUSH2 0x12FE JUMPI PUSH32 0x161BCCA7119915B50764B4ABE86529797775A5F1719510000000000000000000 DUP2 EQ PUSH2 0x130F JUMPI PUSH1 0x1 PUSH1 0x1 PUSH1 0xFF SHL SUB SWAP2 POP PUSH2 0x131C JUMP JUMPDEST PUSH8 0xF9CCD8A1C507FFFF NOT SWAP2 POP PUSH2 0x131C JUMP JUMPDEST PUSH8 0xEBEC21EE1DA3FFFF NOT SWAP2 POP PUSH2 0x131C JUMP JUMPDEST PUSH8 0xDE0B6B3A763FFFFF NOT SWAP2 POP PUSH2 0x131C JUMP JUMPDEST PUSH8 0xD02AB486CEDBFFFF NOT SWAP2 POP PUSH2 0x131C JUMP JUMPDEST PUSH8 0xC249FDD32777FFFF NOT SWAP2 POP PUSH2 0x131C JUMP JUMPDEST PUSH8 0xB469471F8013FFFF NOT SWAP2 POP PUSH2 0x131C JUMP JUMPDEST PUSH8 0xA688906BD8AFFFFF NOT SWAP2 POP PUSH2 0x131C JUMP JUMPDEST PUSH8 0x98A7D9B8314BFFFF NOT SWAP2 POP PUSH2 0x131C JUMP JUMPDEST PUSH8 0x8AC7230489E7FFFF NOT SWAP2 POP PUSH2 0x131C JUMP JUMPDEST PUSH8 0x7CE66C50E283FFFF NOT SWAP2 POP PUSH2 0x131C JUMP JUMPDEST PUSH8 0x6F05B59D3B1FFFFF NOT SWAP2 POP PUSH2 0x131C JUMP JUMPDEST PUSH8 0x6124FEE993BBFFFF NOT SWAP2 POP PUSH2 0x131C JUMP JUMPDEST PUSH8 0x53444835EC57FFFF NOT SWAP2 POP PUSH2 0x131C JUMP JUMPDEST PUSH8 0x4563918244F3FFFF NOT SWAP2 POP PUSH2 0x131C JUMP JUMPDEST PUSH8 0x3782DACE9D8FFFFF NOT SWAP2 POP PUSH2 0x131C JUMP JUMPDEST PUSH8 0x29A2241AF62BFFFF NOT SWAP2 POP PUSH2 0x131C JUMP JUMPDEST PUSH8 0x1BC16D674EC7FFFF NOT SWAP2 POP PUSH2 0x131C JUMP JUMPDEST PUSH8 0xDE0B6B3A763FFFF NOT SWAP2 POP PUSH2 0x131C JUMP JUMPDEST PUSH1 0x0 SWAP2 POP PUSH2 0x131C JUMP JUMPDEST PUSH8 0xDE0B6B3A7640000 SWAP2 POP PUSH2 0x131C JUMP JUMPDEST PUSH8 0x1BC16D674EC80000 SWAP2 POP PUSH2 0x131C JUMP JUMPDEST PUSH8 0x29A2241AF62C0000 SWAP2 POP PUSH2 0x131C JUMP JUMPDEST PUSH8 0x3782DACE9D900000 SWAP2 POP PUSH2 0x131C JUMP JUMPDEST PUSH8 0x4563918244F40000 SWAP2 POP PUSH2 0x131C JUMP JUMPDEST PUSH8 0x53444835EC580000 SWAP2 POP PUSH2 0x131C JUMP JUMPDEST PUSH8 0x6124FEE993BC0000 SWAP2 POP PUSH2 0x131C JUMP JUMPDEST PUSH8 0x6F05B59D3B200000 SWAP2 POP PUSH2 0x131C JUMP JUMPDEST PUSH8 0x7CE66C50E2840000 SWAP2 POP PUSH2 0x131C JUMP JUMPDEST PUSH8 0x8AC7230489E80000 SWAP2 POP PUSH2 0x131C JUMP JUMPDEST PUSH8 0x98A7D9B8314C0000 SWAP2 POP PUSH2 0x131C JUMP JUMPDEST PUSH8 0xA688906BD8B00000 SWAP2 POP PUSH2 0x131C JUMP JUMPDEST PUSH8 0xB469471F80140000 SWAP2 POP PUSH2 0x131C JUMP JUMPDEST PUSH8 0xC249FDD327780000 SWAP2 POP PUSH2 0x131C JUMP JUMPDEST PUSH8 0xD02AB486CEDC0000 SWAP2 POP PUSH2 0x131C JUMP JUMPDEST PUSH8 0xDE0B6B3A76400000 SWAP2 POP PUSH2 0x131C JUMP JUMPDEST PUSH8 0xEBEC21EE1DA40000 SWAP2 POP PUSH2 0x131C JUMP JUMPDEST PUSH8 0xF9CCD8A1C5080000 SWAP2 POP PUSH2 0x131C JUMP JUMPDEST PUSH9 0x107AD8F556C6C0000 SWAP2 POP PUSH2 0x131C JUMP JUMPDEST PUSH9 0x1158E460913D00000 SWAP2 POP PUSH2 0x131C JUMP JUMPDEST PUSH9 0x1236EFCBCBB340000 SWAP2 POP PUSH2 0x131C JUMP JUMPDEST PUSH9 0x1314FB37062980000 SWAP2 POP PUSH2 0x131C JUMP JUMPDEST PUSH9 0x13F306A2409FC0000 SWAP2 POP PUSH2 0x131C JUMP JUMPDEST PUSH9 0x14D1120D7B1600000 SWAP2 POP PUSH2 0x131C JUMP JUMPDEST PUSH9 0x15AF1D78B58C40000 SWAP2 POP PUSH2 0x131C JUMP JUMPDEST PUSH9 0x168D28E3F00280000 SWAP2 POP PUSH2 0x131C JUMP JUMPDEST PUSH9 0x176B344F2A78C0000 SWAP2 POP PUSH2 0x131C JUMP JUMPDEST PUSH9 0x18493FBA64EF00000 SWAP2 POP PUSH2 0x131C JUMP JUMPDEST PUSH9 0x19274B259F6540000 SWAP2 POP PUSH2 0x131C JUMP JUMPDEST PUSH9 0x1A055690D9DB80000 SWAP2 POP PUSH2 0x131C JUMP JUMPDEST PUSH9 0x1AE361FC1451C0000 SWAP2 POP PUSH2 0x131C JUMP JUMPDEST PUSH9 0x1BC16D674EC800000 SWAP2 POP PUSH2 0x131C JUMP JUMPDEST PUSH9 0x1C9F78D2893E40000 SWAP2 POP PUSH2 0x131C JUMP JUMPDEST PUSH9 0x1D7D843DC3B480000 SWAP2 POP PUSH2 0x131C JUMP JUMPDEST PUSH9 0x1E5B8FA8FE2AC0000 SWAP2 POP PUSH2 0x131C JUMP JUMPDEST PUSH9 0x1F399B1438A100000 SWAP2 POP PUSH2 0x131C JUMP JUMPDEST PUSH9 0x2017A67F731740000 SWAP2 POP PUSH2 0x131C JUMP JUMPDEST PUSH9 0x20F5B1EAAD8D80000 SWAP2 POP PUSH2 0x131C JUMP JUMPDEST PUSH9 0x21D3BD55E803C0000 SWAP2 POP PUSH2 0x131C JUMP JUMPDEST PUSH9 0x22B1C8C1227A00000 SWAP2 POP PUSH2 0x131C JUMP JUMPDEST PUSH9 0x238FD42C5CF040000 SWAP2 POP PUSH2 0x131C JUMP JUMPDEST PUSH9 0x246DDF97976680000 SWAP2 POP PUSH2 0x131C JUMP JUMPDEST PUSH9 0x254BEB02D1DCC0000 SWAP2 POP PUSH2 0x131C JUMP JUMPDEST PUSH9 0x2629F66E0C5300000 SWAP2 POP PUSH2 0x131C JUMP JUMPDEST PUSH9 0x270801D946C940000 SWAP2 POP PUSH2 0x131C JUMP JUMPDEST PUSH9 0x27E60D44813F80000 SWAP2 POP PUSH2 0x131C JUMP JUMPDEST PUSH9 0x28C418AFBBB5C0000 SWAP2 POP PUSH2 0x131C JUMP JUMPDEST PUSH9 0x29A2241AF62C00000 SWAP2 POP PUSH2 0x131C JUMP JUMPDEST PUSH9 0x2A802F8630A240000 SWAP2 POP PUSH2 0x131C JUMP JUMPDEST PUSH9 0x2B5E3AF16B1880000 SWAP2 POP PUSH2 0x131C JUMP JUMPDEST PUSH9 0x2C3C465CA58EC0000 SWAP2 POP PUSH2 0x131C JUMP JUMPDEST PUSH9 0x2D1A51C7E00500000 SWAP2 POP PUSH2 0x131C JUMP JUMPDEST PUSH9 0x2DF85D331A7B40000 SWAP2 POP PUSH2 0x131C JUMP JUMPDEST PUSH9 0x2ED6689E54F180000 SWAP2 POP PUSH2 0x131C JUMP JUMPDEST PUSH9 0x2FB474098F67C0000 SWAP2 POP PUSH2 0x131C JUMP JUMPDEST PUSH9 0x30927F74C9DE00000 SWAP2 POP PUSH2 0x131C JUMP JUMPDEST PUSH9 0x31708AE0045440000 SWAP2 POP PUSH2 0x131C JUMP JUMPDEST PUSH9 0x324E964B3ECA80000 SWAP2 POP JUMPDEST POP PUSH1 0x1 PUSH1 0x1 PUSH1 0xFF SHL SUB DUP2 EQ ISZERO PUSH2 0x1347 JUMPI PUSH8 0x2E19DC008126BF2B PUSH8 0xDE0B6B3A7640000 PUSH2 0x5DA DUP5 PUSH2 0x1592 JUMP JUMPDEST SWAP2 SWAP1 POP JUMP JUMPDEST PUSH1 0x0 PUSH1 0x1 PUSH1 0xFF SHL DUP4 EQ DUP1 PUSH2 0x1363 JUMPI POP PUSH1 0x1 PUSH1 0xFF SHL DUP3 EQ JUMPDEST ISZERO PUSH2 0x1381 JUMPI PUSH1 0x40 MLOAD PUSH4 0xD01A11B PUSH1 0xE2 SHL DUP2 MSTORE PUSH1 0x4 ADD PUSH1 0x40 MLOAD DUP1 SWAP2 SUB SWAP1 REVERT JUMPDEST PUSH1 0x0 DUP1 PUSH1 0x0 DUP6 SLT PUSH2 0x1392 JUMPI DUP5 PUSH2 0x1397 JUMP JUMPDEST DUP5 PUSH1 0x0 SUB JUMPDEST SWAP2 POP PUSH1 0x0 DUP5 SLT PUSH2 0x13A7 JUMPI DUP4 PUSH2 0x13AC JUMP JUMPDEST DUP4 PUSH1 0x0 SUB JUMPDEST SWAP1 POP PUSH1 0x0 PUSH2 0x13BA DUP4 DUP4 PUSH2 0x194F JUMP JUMPDEST SWAP1 POP PUSH1 0x1 PUSH1 0x1 PUSH1 0xFF SHL SUB DUP2 GT ISZERO PUSH2 0x13E7 JUMPI PUSH1 0x40 MLOAD PUSH4 0xBF79E8D9 PUSH1 0xE0 SHL DUP2 MSTORE PUSH1 0x4 DUP2 ADD DUP3 SWAP1 MSTORE PUSH1 0x24 ADD PUSH2 0x396 JUMP JUMPDEST PUSH1 0x0 NOT DUP1 DUP8 SGT SWAP1 DUP7 SGT DUP1 DUP3 XOR PUSH1 0x1 EQ PUSH2 0x1400 JUMPI DUP3 PUSH2 0x49F JUMP JUMPDEST POP POP PUSH1 0x0 SUB SWAP6 SWAP5 POP POP POP POP POP JUMP JUMPDEST PUSH1 0x0 DUP3 PUSH2 0x141D JUMPI POP PUSH1 0x0 PUSH2 0x339 JUMP JUMPDEST DUP3 DUP3 MUL DUP3 DUP5 DUP3 DUP2 PUSH2 0x1430 JUMPI PUSH2 0x1430 PUSH2 0x2227 JUMP JUMPDEST SDIV EQ PUSH2 0x1459 JUMPI PUSH1 0x40 MLOAD PUSH4 0x7DC84C7 PUSH1 0xE1 SHL DUP2 MSTORE PUSH1 0x4 DUP2 ADD DUP6 SWAP1 MSTORE PUSH1 0x24 DUP2 ADD DUP5 SWAP1 MSTORE PUSH1 0x44 ADD PUSH2 0x396 JUMP JUMPDEST PUSH1 0x0 DUP2 SLT ISZERO PUSH2 0x1485 JUMPI PUSH1 0x40 MLOAD PUSH4 0x7F1883CD PUSH1 0xE1 SHL DUP2 MSTORE PUSH1 0x4 DUP2 ADD DUP6 SWAP1 MSTORE PUSH1 0x24 DUP2 ADD DUP5 SWAP1 MSTORE PUSH1 0x44 ADD PUSH2 0x396 JUMP JUMPDEST PUSH2 0x148E DUP2 PUSH2 0x17E3 JUMP JUMPDEST SWAP5 SWAP4 POP POP POP POP JUMP JUMPDEST PUSH1 0x0 PUSH8 0xAFDC366FBC00000 PUSH1 0x1 PUSH1 0xFF SHL ADD DUP3 SLT ISZERO PUSH2 0x14CA JUMPI PUSH1 0x40 MLOAD PUSH4 0x7C00653F PUSH1 0xE0 SHL DUP2 MSTORE PUSH1 0x4 DUP2 ADD DUP4 SWAP1 MSTORE PUSH1 0x24 ADD PUSH2 0x396 JUMP JUMPDEST PUSH8 0xDE0B6B3A7640000 DUP3 SMOD DUP1 PUSH2 0x14E2 JUMPI DUP3 SWAP2 POP PUSH2 0x3D3 JUMP JUMPDEST DUP1 DUP4 SUB SWAP2 POP PUSH1 0x0 DUP4 SLT ISZERO PUSH2 0x3D3 JUMPI POP PUSH8 0xDE0B6B3A763FFFF NOT ADD SWAP2 SWAP1 POP JUMP JUMPDEST PUSH1 0x0 DUP1 DUP3 SLT ISZERO PUSH2 0x154E JUMPI PUSH9 0x33DD1780914B97114 NOT DUP3 SLT ISZERO PUSH2 0x1525 JUMPI POP PUSH1 0x0 SWAP2 SWAP1 POP JUMP JUMPDEST PUSH2 0x1531 DUP3 PUSH1 0x0 SUB PUSH2 0x1501 JUMP JUMPDEST PUSH15 0xC097CE7BC90715B34B9F1000000000 DUP2 PUSH2 0x35F JUMPI PUSH2 0x35F PUSH2 0x2227 JUMP JUMPDEST PUSH9 0xA688906BD8B000000 DUP3 SLT PUSH2 0x157A JUMPI PUSH1 0x40 MLOAD PUSH4 0xE69458F9 PUSH1 0xE0 SHL DUP2 MSTORE PUSH1 0x4 DUP2 ADD DUP4 SWAP1 MSTORE PUSH1 0x24 ADD PUSH2 0x396 JUMP JUMPDEST PUSH8 0xDE0B6B3A7640000 PUSH1 0x40 DUP4 SWAP1 SHL DIV PUSH2 0x622 DUP2 PUSH2 0x1A11 JUMP JUMPDEST PUSH1 0x0 DUP1 DUP3 SGT PUSH2 0x15B7 JUMPI PUSH1 0x40 MLOAD PUSH4 0x309FA7DD PUSH1 0xE1 SHL DUP2 MSTORE PUSH1 0x4 DUP2 ADD DUP4 SWAP1 MSTORE PUSH1 0x24 ADD PUSH2 0x396 JUMP JUMPDEST PUSH1 0x0 PUSH8 0xDE0B6B3A7640000 DUP4 SLT PUSH2 0x15D0 JUMPI POP PUSH1 0x1 PUSH2 0x15EA JUMP JUMPDEST PUSH1 0x0 NOT SWAP1 POP DUP3 PUSH15 0xC097CE7BC90715B34B9F1000000000 DIV SWAP3 POP JUMPDEST PUSH1 0x0 PUSH2 0x15FF PUSH8 0xDE0B6B3A7640000 DUP6 SDIV PUSH2 0x210D JUMP JUMPDEST PUSH8 0xDE0B6B3A7640000 DUP1 DUP3 MUL SWAP5 POP SWAP1 SWAP2 POP DUP5 DUP3 SAR SWAP1 DUP2 EQ ISZERO PUSH2 0x1623 JUMPI POP POP MUL SWAP2 SWAP1 POP JUMP JUMPDEST PUSH8 0x6F05B59D3B20000 JUMPDEST PUSH1 0x0 DUP2 SGT ISZERO PUSH2 0x1668 JUMPI PUSH8 0xDE0B6B3A7640000 DUP3 DUP1 MUL SDIV SWAP2 POP PUSH8 0x1BC16D674EC80000 DUP3 SLT PUSH2 0x1660 JUMPI SWAP4 DUP5 ADD SWAP4 PUSH1 0x1 SWAP2 SWAP1 SWAP2 SAR SWAP1 JUMPDEST PUSH1 0x1 SAR PUSH2 0x162D JUMP JUMPDEST POP POP POP MUL SWAP2 SWAP1 POP JUMP JUMPDEST PUSH1 0x0 PUSH9 0x23F2FA8F6DA5B9D31 NOT DUP3 SLT ISZERO PUSH2 0x168D JUMPI POP PUSH1 0x0 SWAP2 SWAP1 POP JUMP JUMPDEST PUSH9 0x736EA4425C11AC631 DUP3 SLT PUSH2 0x16B9 JUMPI PUSH1 0x40 MLOAD PUSH4 0x99BB7541 PUSH1 0xE0 SHL DUP2 MSTORE PUSH1 0x4 DUP2 ADD DUP4 SWAP1 MSTORE PUSH1 0x24 ADD PUSH2 0x396 JUMP JUMPDEST PUSH8 0x14057B7EF767814F DUP3 MUL PUSH2 0x622 PUSH8 0xDE0B6B3A7640000 PUSH8 0x6F05B59D3B20000 DUP4 ADD SDIV PUSH2 0x1501 JUMP JUMPDEST PUSH1 0x0 PUSH1 0x1 DUP4 DUP2 SAR SWAP1 DUP4 SWAP1 SAR ADD DUP2 DUP2 SLT ISZERO PUSH2 0x1704 JUMPI PUSH1 0x1 DUP4 DUP6 OR AND DUP2 ADD SWAP2 POP PUSH2 0x170F JUMP JUMPDEST DUP3 DUP5 AND PUSH1 0x1 AND DUP2 ADD SWAP2 POP JUMPDEST POP SWAP3 SWAP2 POP POP JUMP JUMPDEST PUSH1 0x0 DUP1 DUP1 PUSH1 0x0 NOT DUP6 DUP8 MULMOD DUP6 DUP8 MUL SWAP3 POP DUP3 DUP2 LT DUP4 DUP3 SUB SUB SWAP2 POP POP DUP1 PUSH1 0x0 EQ ISZERO PUSH2 0x1751 JUMPI DUP4 DUP3 DUP2 PUSH2 0x1747 JUMPI PUSH2 0x1747 PUSH2 0x2227 JUMP JUMPDEST DIV SWAP3 POP POP POP PUSH2 0x622 JUMP JUMPDEST DUP4 DUP2 LT PUSH2 0x177B JUMPI PUSH1 0x40 MLOAD PUSH4 0x1DCF3063 PUSH1 0xE2 SHL DUP2 MSTORE PUSH1 0x4 DUP2 ADD DUP3 SWAP1 MSTORE PUSH1 0x24 DUP2 ADD DUP6 SWAP1 MSTORE PUSH1 0x44 ADD PUSH2 0x396 JUMP JUMPDEST PUSH1 0x0 DUP5 DUP7 DUP9 MULMOD PUSH1 0x2 PUSH1 0x3 PUSH1 0x1 DUP9 NOT DUP2 ADD DUP10 AND SWAP9 DUP10 SWAP1 DIV SWAP2 DUP3 MUL DUP4 XOR DUP1 DUP4 MUL DUP5 SUB MUL DUP1 DUP4 MUL DUP5 SUB MUL DUP1 DUP4 MUL DUP5 SUB MUL DUP1 DUP4 MUL DUP5 SUB MUL DUP1 DUP4 MUL DUP5 SUB MUL SWAP2 DUP3 MUL SWAP1 SWAP3 SUB MUL PUSH1 0x0 DUP9 SWAP1 SUB DUP9 SWAP1 DIV SWAP1 SWAP2 ADD DUP6 DUP4 GT SWAP1 SWAP5 SUB SWAP4 SWAP1 SWAP4 MUL SWAP4 SUB SWAP5 SWAP1 SWAP5 DIV SWAP2 SWAP1 SWAP2 OR MUL SWAP5 SWAP4 POP POP POP POP JUMP JUMPDEST PUSH1 0x0 DUP2 PUSH2 0x17F2 JUMPI POP PUSH1 0x0 SWAP2 SWAP1 POP JUMP JUMPDEST POP PUSH1 0x1 DUP2 PUSH1 0x1 PUSH1 0x80 SHL DUP2 LT PUSH2 0x180C JUMPI PUSH1 0x40 SWAP2 SWAP1 SWAP2 SHL SWAP1 PUSH1 0x80 SHR JUMPDEST PUSH1 0x1 PUSH1 0x40 SHL DUP2 LT PUSH2 0x1822 JUMPI PUSH1 0x20 SWAP2 SWAP1 SWAP2 SHL SWAP1 PUSH1 0x40 SHR JUMPDEST PUSH5 0x100000000 DUP2 LT PUSH2 0x1839 JUMPI PUSH1 0x10 SWAP2 SWAP1 SWAP2 SHL SWAP1 PUSH1 0x20 SHR JUMPDEST PUSH3 0x10000 DUP2 LT PUSH2 0x184E JUMPI PUSH1 0x8 SWAP2 SWAP1 SWAP2 SHL SWAP1 PUSH1 0x10 SHR JUMPDEST PUSH2 0x100 DUP2 LT PUSH2 0x1862 JUMPI PUSH1 0x4 SWAP2 SWAP1 SWAP2 SHL SWAP1 PUSH1 0x8 SHR JUMPDEST PUSH1 0x10 DUP2 LT PUSH2 0x1875 JUMPI PUSH1 0x2 SWAP2 SWAP1 SWAP2 SHL SWAP1 PUSH1 0x4 SHR JUMPDEST PUSH1 0x8 DUP2 LT PUSH2 0x1885 JUMPI PUSH1 0x1 DUP3 SWAP1 SHL SWAP2 POP JUMPDEST PUSH1 0x1 DUP3 DUP5 DUP2 PUSH2 0x1896 JUMPI PUSH2 0x1896 PUSH2 0x2227 JUMP JUMPDEST DIV DUP4 ADD SWAP1 SHR SWAP2 POP PUSH1 0x1 DUP3 DUP5 DUP2 PUSH2 0x18AE JUMPI PUSH2 0x18AE PUSH2 0x2227 JUMP JUMPDEST DIV DUP4 ADD SWAP1 SHR SWAP2 POP PUSH1 0x1 DUP3 DUP5 DUP2 PUSH2 0x18C6 JUMPI PUSH2 0x18C6 PUSH2 0x2227 JUMP JUMPDEST DIV DUP4 ADD SWAP1 SHR SWAP2 POP PUSH1 0x1 DUP3 DUP5 DUP2 PUSH2 0x18DE JUMPI PUSH2 0x18DE PUSH2 0x2227 JUMP JUMPDEST DIV DUP4 ADD SWAP1 SHR SWAP2 POP PUSH1 0x1 DUP3 DUP5 DUP2 PUSH2 0x18F6 JUMPI PUSH2 0x18F6 PUSH2 0x2227 JUMP JUMPDEST DIV DUP4 ADD SWAP1 SHR SWAP2 POP PUSH1 0x1 DUP3 DUP5 DUP2 PUSH2 0x190E JUMPI PUSH2 0x190E PUSH2 0x2227 JUMP JUMPDEST DIV DUP4 ADD SWAP1 SHR SWAP2 POP PUSH1 0x1 DUP3 DUP5 DUP2 PUSH2 0x1926 JUMPI PUSH2 0x1926 PUSH2 0x2227 JUMP JUMPDEST DIV DUP4 ADD SWAP1 SHR SWAP2 POP PUSH1 0x0 DUP3 DUP5 DUP2 PUSH2 0x193E JUMPI PUSH2 0x193E PUSH2 0x2227 JUMP JUMPDEST DIV SWAP1 POP DUP1 DUP4 LT ISZERO PUSH2 0x622 JUMPI DUP3 PUSH2 0x148E JUMP JUMPDEST PUSH1 0x0 DUP1 DUP1 PUSH1 0x0 NOT DUP5 DUP7 MULMOD DUP5 DUP7 MUL SWAP3 POP DUP3 DUP2 LT DUP4 DUP3 SUB SUB SWAP2 POP POP PUSH8 0xDE0B6B3A7640000 DUP2 LT PUSH2 0x1993 JUMPI PUSH1 0x40 MLOAD PUSH4 0x698D9A01 PUSH1 0xE1 SHL DUP2 MSTORE PUSH1 0x4 DUP2 ADD DUP3 SWAP1 MSTORE PUSH1 0x24 ADD PUSH2 0x396 JUMP JUMPDEST PUSH1 0x0 DUP1 PUSH8 0xDE0B6B3A7640000 DUP7 DUP9 MULMOD SWAP2 POP POP PUSH8 0x6F05B59D3B1FFFF DUP2 GT DUP3 PUSH2 0x19CD JUMPI DUP1 PUSH8 0xDE0B6B3A7640000 DUP6 DIV ADD SWAP5 POP POP POP POP POP PUSH2 0x339 JUMP JUMPDEST PUSH3 0x40000 DUP3 DUP6 SUB DIV SWAP4 SWAP1 SWAP2 GT SWAP1 SWAP2 SUB PUSH1 0x1 PUSH1 0xEE SHL MUL SWAP2 SWAP1 SWAP2 OR PUSH32 0xACCB18165BD6FE31AE1CF318DC5B51EEE0E1BA569B88CD74C1773B91FAC10669 MUL ADD SWAP1 POP SWAP3 SWAP2 POP POP JUMP JUMPDEST PUSH1 0x1 PUSH1 0xBF SHL PUSH8 0x8000000000000000 DUP3 AND ISZERO PUSH2 0x1A35 JUMPI PUSH9 0x16A09E667F3BCC909 MUL PUSH1 0x40 SHR JUMPDEST PUSH8 0x4000000000000000 DUP3 AND ISZERO PUSH2 0x1A54 JUMPI PUSH9 0x1306FE0A31B7152DF MUL PUSH1 0x40 SHR JUMPDEST PUSH8 0x2000000000000000 DUP3 AND ISZERO PUSH2 0x1A73 JUMPI PUSH9 0x1172B83C7D517ADCE MUL PUSH1 0x40 SHR JUMPDEST PUSH8 0x1000000000000000 DUP3 AND ISZERO PUSH2 0x1A92 JUMPI PUSH9 0x10B5586CF9890F62A MUL PUSH1 0x40 SHR JUMPDEST PUSH8 0x800000000000000 DUP3 AND ISZERO PUSH2 0x1AB1 JUMPI PUSH9 0x1059B0D31585743AE MUL PUSH1 0x40 SHR JUMPDEST PUSH8 0x400000000000000 DUP3 AND ISZERO PUSH2 0x1AD0 JUMPI PUSH9 0x102C9A3E778060EE7 MUL PUSH1 0x40 SHR JUMPDEST PUSH8 0x200000000000000 DUP3 AND ISZERO PUSH2 0x1AEF JUMPI PUSH9 0x10163DA9FB33356D8 MUL PUSH1 0x40 SHR JUMPDEST PUSH8 0x100000000000000 DUP3 AND ISZERO PUSH2 0x1B0E JUMPI PUSH9 0x100B1AFA5ABCBED61 MUL PUSH1 0x40 SHR JUMPDEST PUSH7 0x80000000000000 DUP3 AND ISZERO PUSH2 0x1B2C JUMPI PUSH9 0x10058C86DA1C09EA2 MUL PUSH1 0x40 SHR JUMPDEST PUSH7 0x40000000000000 DUP3 AND ISZERO PUSH2 0x1B4A JUMPI PUSH9 0x1002C605E2E8CEC50 MUL PUSH1 0x40 SHR JUMPDEST PUSH7 0x20000000000000 DUP3 AND ISZERO PUSH2 0x1B68 JUMPI PUSH9 0x100162F3904051FA1 MUL PUSH1 0x40 SHR JUMPDEST PUSH7 0x10000000000000 DUP3 AND ISZERO PUSH2 0x1B86 JUMPI PUSH9 0x1000B175EFFDC76BA MUL PUSH1 0x40 SHR JUMPDEST PUSH7 0x8000000000000 DUP3 AND ISZERO PUSH2 0x1BA4 JUMPI PUSH9 0x100058BA01FB9F96D MUL PUSH1 0x40 SHR JUMPDEST PUSH7 0x4000000000000 DUP3 AND ISZERO PUSH2 0x1BC2 JUMPI PUSH9 0x10002C5CC37DA9492 MUL PUSH1 0x40 SHR JUMPDEST PUSH7 0x2000000000000 DUP3 AND ISZERO PUSH2 0x1BE0 JUMPI PUSH9 0x1000162E525EE0547 MUL PUSH1 0x40 SHR JUMPDEST PUSH7 0x1000000000000 DUP3 AND ISZERO PUSH2 0x1BFE JUMPI PUSH9 0x10000B17255775C04 MUL PUSH1 0x40 SHR JUMPDEST PUSH6 0x800000000000 DUP3 AND ISZERO PUSH2 0x1C1B JUMPI PUSH9 0x1000058B91B5BC9AE MUL PUSH1 0x40 SHR JUMPDEST PUSH6 0x400000000000 DUP3 AND ISZERO PUSH2 0x1C38 JUMPI PUSH9 0x100002C5C89D5EC6D MUL PUSH1 0x40 SHR JUMPDEST PUSH6 0x200000000000 DUP3 AND ISZERO PUSH2 0x1C55 JUMPI PUSH9 0x10000162E43F4F831 MUL PUSH1 0x40 SHR JUMPDEST PUSH6 0x100000000000 DUP3 AND ISZERO PUSH2 0x1C72 JUMPI PUSH9 0x100000B1721BCFC9A MUL PUSH1 0x40 SHR JUMPDEST PUSH6 0x80000000000 DUP3 AND ISZERO PUSH2 0x1C8F JUMPI PUSH9 0x10000058B90CF1E6E MUL PUSH1 0x40 SHR JUMPDEST PUSH6 0x40000000000 DUP3 AND ISZERO PUSH2 0x1CAC JUMPI PUSH9 0x1000002C5C863B73F MUL PUSH1 0x40 SHR JUMPDEST PUSH6 0x20000000000 DUP3 AND ISZERO PUSH2 0x1CC9 JUMPI PUSH9 0x100000162E430E5A2 MUL PUSH1 0x40 SHR JUMPDEST PUSH6 0x10000000000 DUP3 AND ISZERO PUSH2 0x1CE6 JUMPI PUSH9 0x1000000B172183551 MUL PUSH1 0x40 SHR JUMPDEST PUSH5 0x8000000000 DUP3 AND ISZERO PUSH2 0x1D02 JUMPI PUSH9 0x100000058B90C0B49 MUL PUSH1 0x40 SHR JUMPDEST PUSH5 0x4000000000 DUP3 AND ISZERO PUSH2 0x1D1E JUMPI PUSH9 0x10000002C5C8601CC MUL PUSH1 0x40 SHR JUMPDEST PUSH5 0x2000000000 DUP3 AND ISZERO PUSH2 0x1D3A JUMPI PUSH9 0x1000000162E42FFF0 MUL PUSH1 0x40 SHR JUMPDEST PUSH5 0x1000000000 DUP3 AND ISZERO PUSH2 0x1D56 JUMPI PUSH9 0x10000000B17217FBB MUL PUSH1 0x40 SHR JUMPDEST PUSH5 0x800000000 DUP3 AND ISZERO PUSH2 0x1D72 JUMPI PUSH9 0x1000000058B90BFCE MUL PUSH1 0x40 SHR JUMPDEST PUSH5 0x400000000 DUP3 AND ISZERO PUSH2 0x1D8E JUMPI PUSH9 0x100000002C5C85FE3 MUL PUSH1 0x40 SHR JUMPDEST PUSH5 0x200000000 DUP3 AND ISZERO PUSH2 0x1DAA JUMPI PUSH9 0x10000000162E42FF1 MUL PUSH1 0x40 SHR JUMPDEST PUSH5 0x100000000 DUP3 AND ISZERO PUSH2 0x1DC6 JUMPI PUSH9 0x100000000B17217F8 MUL PUSH1 0x40 SHR JUMPDEST PUSH4 0x80000000 DUP3 AND ISZERO PUSH2 0x1DE1 JUMPI PUSH9 0x10000000058B90BFC MUL PUSH1 0x40 SHR JUMPDEST PUSH4 0x40000000 DUP3 AND ISZERO PUSH2 0x1DFC JUMPI PUSH9 0x1000000002C5C85FE MUL PUSH1 0x40 SHR JUMPDEST PUSH4 0x20000000 DUP3 AND ISZERO PUSH2 0x1E17 JUMPI PUSH9 0x100000000162E42FF MUL PUSH1 0x40 SHR JUMPDEST PUSH4 0x10000000 DUP3 AND ISZERO PUSH2 0x1E32 JUMPI PUSH9 0x1000000000B17217F MUL PUSH1 0x40 SHR JUMPDEST PUSH4 0x8000000 DUP3 AND ISZERO PUSH2 0x1E4D JUMPI PUSH9 0x100000000058B90C0 MUL PUSH1 0x40 SHR JUMPDEST PUSH4 0x4000000 DUP3 AND ISZERO PUSH2 0x1E68 JUMPI PUSH9 0x10000000002C5C860 MUL PUSH1 0x40 SHR JUMPDEST PUSH4 0x2000000 DUP3 AND ISZERO PUSH2 0x1E83 JUMPI PUSH9 0x1000000000162E430 MUL PUSH1 0x40 SHR JUMPDEST PUSH4 0x1000000 DUP3 AND ISZERO PUSH2 0x1E9E JUMPI PUSH9 0x10000000000B17218 MUL PUSH1 0x40 SHR JUMPDEST PUSH3 0x800000 DUP3 AND ISZERO PUSH2 0x1EB8 JUMPI PUSH9 0x1000000000058B90C MUL PUSH1 0x40 SHR JUMPDEST PUSH3 0x400000 DUP3 AND ISZERO PUSH2 0x1ED2 JUMPI PUSH9 0x100000000002C5C86 MUL PUSH1 0x40 SHR JUMPDEST PUSH3 0x200000 DUP3 AND ISZERO PUSH2 0x1EEC JUMPI PUSH9 0x10000000000162E43 MUL PUSH1 0x40 SHR JUMPDEST PUSH3 0x100000 DUP3 AND ISZERO PUSH2 0x1F06 JUMPI PUSH9 0x100000000000B1721 MUL PUSH1 0x40 SHR JUMPDEST PUSH3 0x80000 DUP3 AND ISZERO PUSH2 0x1F20 JUMPI PUSH9 0x10000000000058B91 MUL PUSH1 0x40 SHR JUMPDEST PUSH3 0x40000 DUP3 AND ISZERO PUSH2 0x1F3A JUMPI PUSH9 0x1000000000002C5C8 MUL PUSH1 0x40 SHR JUMPDEST PUSH3 0x20000 DUP3 AND ISZERO PUSH2 0x1F54 JUMPI PUSH9 0x100000000000162E4 MUL PUSH1 0x40 SHR JUMPDEST PUSH3 0x10000 DUP3 AND ISZERO PUSH2 0x1F6E JUMPI PUSH9 0x1000000000000B172 MUL PUSH1 0x40 SHR JUMPDEST PUSH2 0x8000 DUP3 AND ISZERO PUSH2 0x1F87 JUMPI PUSH9 0x100000000000058B9 MUL PUSH1 0x40 SHR JUMPDEST PUSH2 0x4000 DUP3 AND ISZERO PUSH2 0x1FA0 JUMPI PUSH9 0x10000000000002C5D MUL PUSH1 0x40 SHR JUMPDEST PUSH2 0x2000 DUP3 AND ISZERO PUSH2 0x1FB9 JUMPI PUSH9 0x1000000000000162E MUL PUSH1 0x40 SHR JUMPDEST PUSH2 0x1000 DUP3 AND ISZERO PUSH2 0x1FD2 JUMPI PUSH9 0x10000000000000B17 MUL PUSH1 0x40 SHR JUMPDEST PUSH2 0x800 DUP3 AND ISZERO PUSH2 0x1FEB JUMPI PUSH9 0x1000000000000058C MUL PUSH1 0x40 SHR JUMPDEST PUSH2 0x400 DUP3 AND ISZERO PUSH2 0x2004 JUMPI PUSH9 0x100000000000002C6 MUL PUSH1 0x40 SHR JUMPDEST PUSH2 0x200 DUP3 AND ISZERO PUSH2 0x201D JUMPI PUSH9 0x10000000000000163 MUL PUSH1 0x40 SHR JUMPDEST PUSH2 0x100 DUP3 AND ISZERO PUSH2 0x2036 JUMPI PUSH9 0x100000000000000B1 MUL PUSH1 0x40 SHR JUMPDEST PUSH1 0x80 DUP3 AND ISZERO PUSH2 0x204E JUMPI PUSH9 0x10000000000000059 MUL PUSH1 0x40 SHR JUMPDEST PUSH1 0x40 DUP3 AND ISZERO PUSH2 0x2066 JUMPI PUSH9 0x1000000000000002C MUL PUSH1 0x40 SHR JUMPDEST PUSH1 0x20 DUP3 AND ISZERO PUSH2 0x207E JUMPI PUSH9 0x10000000000000016 MUL PUSH1 0x40 SHR JUMPDEST PUSH1 0x10 DUP3 AND ISZERO PUSH2 0x2096 JUMPI PUSH9 0x1000000000000000B MUL PUSH1 0x40 SHR JUMPDEST PUSH1 0x8 DUP3 AND ISZERO PUSH2 0x20AE JUMPI PUSH9 0x10000000000000006 MUL PUSH1 0x40 SHR JUMPDEST PUSH1 0x4 DUP3 AND ISZERO PUSH2 0x20C6 JUMPI PUSH9 0x10000000000000003 MUL PUSH1 0x40 SHR JUMPDEST PUSH1 0x2 DUP3 AND ISZERO PUSH2 0x20DE JUMPI PUSH9 0x10000000000000001 MUL PUSH1 0x40 SHR JUMPDEST PUSH1 0x1 DUP3 AND ISZERO PUSH2 0x20F6 JUMPI PUSH9 0x10000000000000001 MUL PUSH1 0x40 SHR JUMPDEST PUSH8 0xDE0B6B3A7640000 MUL PUSH1 0x40 SWAP2 SWAP1 SWAP2 SHR PUSH1 0xBF SUB SHR SWAP1 JUMP JUMPDEST PUSH1 0x0 PUSH1 0x1 PUSH1 0x80 SHL DUP3 LT PUSH2 0x212D JUMPI PUSH1 0x80 SWAP2 DUP3 SHR SWAP2 PUSH2 0x212A SWAP1 DUP3 PUSH2 0x2269 JUMP JUMPDEST SWAP1 POP JUMPDEST PUSH1 0x1 PUSH1 0x40 SHL DUP3 LT PUSH2 0x214B JUMPI PUSH1 0x40 SWAP2 DUP3 SHR SWAP2 PUSH2 0x2148 SWAP1 DUP3 PUSH2 0x2269 JUMP JUMPDEST SWAP1 POP JUMPDEST PUSH5 0x100000000 DUP3 LT PUSH2 0x216A JUMPI PUSH1 0x20 SWAP2 DUP3 SHR SWAP2 PUSH2 0x2167 SWAP1 DUP3 PUSH2 0x2269 JUMP JUMPDEST SWAP1 POP JUMPDEST PUSH3 0x10000 DUP3 LT PUSH2 0x2187 JUMPI PUSH1 0x10 SWAP2 DUP3 SHR SWAP2 PUSH2 0x2184 SWAP1 DUP3 PUSH2 0x2269 JUMP JUMPDEST SWAP1 POP JUMPDEST PUSH2 0x100 DUP3 LT PUSH2 0x21A3 JUMPI PUSH1 0x8 SWAP2 DUP3 SHR SWAP2 PUSH2 0x21A0 SWAP1 DUP3 PUSH2 0x2269 JUMP JUMPDEST SWAP1 POP JUMPDEST PUSH1 0x10 DUP3 LT PUSH2 0x21BE JUMPI PUSH1 0x4 SWAP2 DUP3 SHR SWAP2 PUSH2 0x21BB SWAP1 DUP3 PUSH2 0x2269 JUMP JUMPDEST SWAP1 POP JUMPDEST PUSH1 0x4 DUP3 LT PUSH2 0x21D9 JUMPI PUSH1 0x2 SWAP2 DUP3 SHR SWAP2 PUSH2 0x21D6 SWAP1 DUP3 PUSH2 0x2269 JUMP JUMPDEST SWAP1 POP JUMPDEST PUSH1 0x2 DUP3 LT PUSH2 0x1347 JUMPI PUSH2 0x339 PUSH1 0x1 DUP3 PUSH2 0x2269 JUMP JUMPDEST PUSH1 0x0 PUSH1 0x20 DUP3 DUP5 SUB SLT ISZERO PUSH2 0x21FE JUMPI PUSH1 0x0 DUP1 REVERT JUMPDEST POP CALLDATALOAD SWAP2 SWAP1 POP JUMP JUMPDEST PUSH1 0x0 DUP1 PUSH1 0x40 DUP4 DUP6 SUB SLT ISZERO PUSH2 0x2218 JUMPI PUSH1 0x0 DUP1 REVERT JUMPDEST POP POP DUP1 CALLDATALOAD SWAP3 PUSH1 0x20 SWAP1 SWAP2 ADD CALLDATALOAD SWAP2 POP JUMP JUMPDEST PUSH4 0x4E487B71 PUSH1 0xE0 SHL PUSH1 0x0 MSTORE PUSH1 0x12 PUSH1 0x4 MSTORE PUSH1 0x24 PUSH1 0x0 REVERT JUMPDEST PUSH4 0x4E487B71 PUSH1 0xE0 SHL PUSH1 0x0 MSTORE PUSH1 0x11 PUSH1 0x4 MSTORE PUSH1 0x24 PUSH1 0x0 REVERT JUMPDEST PUSH1 0x0 PUSH1 0x1 PUSH1 0xFF SHL DUP3 EQ ISZERO PUSH2 0x334 JUMPI PUSH2 0x334 PUSH2 0x223D JUMP JUMPDEST PUSH1 0x0 DUP3 NOT DUP3 GT ISZERO PUSH2 0x227C JUMPI PUSH2 0x227C PUSH2 0x223D JUMP JUMPDEST POP ADD SWAP1 JUMP INVALID LOG2 PUSH5 0x6970667358 0x22 SLT KECCAK256 0xA5 SLOAD MSIZE 0xC6 DUP14 0x2F SWAP14 0x1E 0xC6 PUSH12 0xF85B7D9BF634AC26CC24CBCF PUSH26 0x3BF48C9148BB2FCCAE64736F6C63430008090033000000000000 "
        },
        "gasEstimates": {
          "creation": {
            "codeDepositCost": "1777400",
            "executionCost": "1905",
            "totalCost": "1779305"
          },
          "external": {
            "abs(int256)": "356",
            "avg(int256,int256)": "466",
            "ceil(int256)": "473",
            "div(int256,int256)": "1230",
            "e()": "296",
            "exp(int256)": "infinite",
            "exp2(int256)": "infinite",
            "floor(int256)": "488",
            "frac(int256)": "275",
            "fromInt(int256)": "382",
            "gm(int256,int256)": "infinite",
            "inv(int256)": "359",
            "ln(int256)": "infinite",
            "log10(int256)": "infinite",
            "log2(int256)": "infinite",
            "mul(int256,int256)": "906",
            "pi()": "210",
            "pow(int256,int256)": "infinite",
            "powu(int256,uint256)": "infinite",
            "scale()": "274",
            "sqrt(int256)": "1161",
            "toInt(int256)": "353"
          }
        },
        "methodIdentifiers": {
          "abs(int256)": "1b5ac4b5",
          "avg(int256,int256)": "ebf274be",
          "ceil(int256)": "42fba7ae",
          "div(int256,int256)": "43509138",
          "e()": "ffae15ba",
          "exp(int256)": "e46751e3",
          "exp2(int256)": "dbbb06d2",
          "floor(int256)": "da3ff648",
          "frac(int256)": "ae2785ac",
          "fromInt(int256)": "6b300f51",
          "gm(int256,int256)": "d2bc4bc9",
          "inv(int256)": "3a02c983",
          "ln(int256)": "8e6f2353",
          "log10(int256)": "b47ca3c7",
          "log2(int256)": "e0d68737",
          "mul(int256,int256)": "bbe93d91",
          "pi()": "2dd9868d",
          "pow(int256,int256)": "92b0c5b2",
          "powu(int256,uint256)": "a5163666",
          "scale()": "f51e181a",
          "sqrt(int256)": "665df460",
          "toInt(int256)": "850766f1"
        }
      },
      "storageLayout": {
        "storage": [],
        "types": null
      },
      "userdoc": {
        "errors": {
          "PRBMathSD59x18__AbsInputTooSmall()": [
            {
              "notice": "Emitted when the input is MIN_SD59x18."
            }
          ],
          "PRBMathSD59x18__CeilOverflow(int256)": [
            {
              "notice": "Emitted when ceiling a number overflows SD59x18."
            }
          ],
          "PRBMathSD59x18__DivInputTooSmall()": [
            {
              "notice": "Emitted when one of the inputs is MIN_SD59x18."
            }
          ],
          "PRBMathSD59x18__DivOverflow(uint256)": [
            {
              "notice": "Emitted when one of the intermediary unsigned results overflows SD59x18."
            }
          ],
          "PRBMathSD59x18__Exp2InputTooBig(int256)": [
            {
              "notice": "Emitted when the input is greater than 192."
            }
          ],
          "PRBMathSD59x18__ExpInputTooBig(int256)": [
            {
              "notice": "Emitted when the input is greater than 133.084258667509499441."
            }
          ],
          "PRBMathSD59x18__FloorUnderflow(int256)": [
            {
              "notice": "Emitted when flooring a number underflows SD59x18."
            }
          ],
          "PRBMathSD59x18__FromIntOverflow(int256)": [
            {
              "notice": "Emitted when converting a basic integer to the fixed-point format overflows SD59x18."
            }
          ],
          "PRBMathSD59x18__FromIntUnderflow(int256)": [
            {
              "notice": "Emitted when converting a basic integer to the fixed-point format underflows SD59x18."
            }
          ],
          "PRBMathSD59x18__GmNegativeProduct(int256,int256)": [
            {
              "notice": "Emitted when the product of the inputs is negative."
            }
          ],
          "PRBMathSD59x18__GmOverflow(int256,int256)": [
            {
              "notice": "Emitted when multiplying the inputs overflows SD59x18."
            }
          ],
          "PRBMathSD59x18__LogInputTooSmall(int256)": [
            {
              "notice": "Emitted when the input is less than or equal to zero."
            }
          ],
          "PRBMathSD59x18__MulInputTooSmall()": [
            {
              "notice": "Emitted when one of the inputs is MIN_SD59x18."
            }
          ],
          "PRBMathSD59x18__MulOverflow(uint256)": [
            {
              "notice": "Emitted when the intermediary absolute result overflows SD59x18."
            }
          ],
          "PRBMathSD59x18__PowuOverflow(uint256)": [
            {
              "notice": "Emitted when the intermediary absolute result overflows SD59x18."
            }
          ],
          "PRBMathSD59x18__SqrtNegativeInput(int256)": [
            {
              "notice": "Emitted when the input is negative."
            }
          ],
          "PRBMathSD59x18__SqrtOverflow(int256)": [
            {
              "notice": "Emitted when the calculating the square root overflows SD59x18."
            }
          ],
          "PRBMath__MulDivFixedPointOverflow(uint256)": [
            {
              "notice": "Emitted when the result overflows uint256."
            }
          ],
          "PRBMath__MulDivOverflow(uint256,uint256)": [
            {
              "notice": "Emitted when the result overflows uint256."
            }
          ]
        },
        "kind": "user",
        "methods": {
          "abs(int256)": {
            "notice": "Calculate the absolute value of x."
          },
          "avg(int256,int256)": {
            "notice": "Calculates the arithmetic average of x and y, rounding down."
          },
          "ceil(int256)": {
            "notice": "Yields the least greatest signed 59.18 decimal fixed-point number greater than or equal to x."
          },
          "div(int256,int256)": {
            "notice": "Divides two signed 59.18-decimal fixed-point numbers, returning a new signed 59.18-decimal fixed-point number."
          },
          "e()": {
            "notice": "Returns Euler's number as a signed 59.18-decimal fixed-point number."
          },
          "exp(int256)": {
            "notice": "Calculates the natural exponent of x."
          },
          "exp2(int256)": {
            "notice": "Calculates the binary exponent of x using the binary fraction method."
          },
          "floor(int256)": {
            "notice": "Yields the greatest signed 59.18 decimal fixed-point number less than or equal to x."
          },
          "frac(int256)": {
            "notice": "Yields the excess beyond the floor of x for positive numbers and the part of the number to the right of the radix point for negative numbers."
          },
          "fromInt(int256)": {
            "notice": "Converts a number from basic integer form to signed 59.18-decimal fixed-point representation."
          },
          "gm(int256,int256)": {
            "notice": "Calculates geometric mean of x and y, i.e. sqrt(x * y), rounding down."
          },
          "inv(int256)": {
            "notice": "Calculates 1 / x, rounding toward zero."
          },
          "ln(int256)": {
            "notice": "Calculates the natural logarithm of x."
          },
          "log10(int256)": {
            "notice": "Calculates the common logarithm of x."
          },
          "log2(int256)": {
            "notice": "Calculates the binary logarithm of x."
          },
          "mul(int256,int256)": {
            "notice": "Multiplies two signed 59.18-decimal fixed-point numbers together, returning a new signed 59.18-decimal fixed-point number."
          },
          "pi()": {
            "notice": "Returns PI as a signed 59.18-decimal fixed-point number."
          },
          "pow(int256,int256)": {
            "notice": "Raises x to the power of y."
          },
          "powu(int256,uint256)": {
            "notice": "Raises x (signed 59.18-decimal fixed-point number) to the power of y (basic unsigned integer) using the famous algorithm \"exponentiation by squaring\"."
          },
          "scale()": {
            "notice": "Returns 1 as a signed 59.18-decimal fixed-point number."
          },
          "sqrt(int256)": {
            "notice": "Calculates the square root of x, rounding down."
          },
          "toInt(int256)": {
            "notice": "Converts a signed 59.18-decimal fixed-point number to basic integer form, rounding down in the process."
          }
        },
        "notice": "Smart contract library for advanced fixed-point math that works with int256 numbers considered to have 18 trailing decimals. We call this number representation signed 59.18-decimal fixed-point, since the numbers can have a sign and there can be up to 59 digits in the integer part and up to 18 decimals in the fractional part. The numbers are bound by the minimum and the maximum values permitted by the Solidity type int256.",
        "version": 1
      }
    }
  }
}