{
  "_format": "hh-sol-artifact-1",
  "contractName": "NewWhitelist",
  "sourceName": "contracts/packages/opyn/new/NewWhitelist.sol",
  "abi": [
    {
      "inputs": [
        {
          "internalType": "address",
          "name": "_addressBook",
          "type": "address"
        }
      ],
      "stateMutability": "nonpayable",
      "type": "constructor"
    },
    {
      "anonymous": false,
      "inputs": [
        {
          "indexed": true,
          "internalType": "address",
          "name": "_callee",
          "type": "address"
        }
      ],
      "name": "CalleeBlacklisted",
      "type": "event"
    },
    {
      "anonymous": false,
      "inputs": [
        {
          "indexed": true,
          "internalType": "address",
          "name": "_callee",
          "type": "address"
        }
      ],
      "name": "CalleeWhitelisted",
      "type": "event"
    },
    {
      "anonymous": false,
      "inputs": [
        {
          "indexed": true,
          "internalType": "address",
          "name": "collateral",
          "type": "address"
        }
      ],
      "name": "CollateralBlacklisted",
      "type": "event"
    },
    {
      "anonymous": false,
      "inputs": [
        {
          "indexed": true,
          "internalType": "address",
          "name": "collateral",
          "type": "address"
        }
      ],
      "name": "CollateralWhitelisted",
      "type": "event"
    },
    {
      "anonymous": false,
      "inputs": [
        {
          "indexed": true,
          "internalType": "address",
          "name": "collateral",
          "type": "address"
        },
        {
          "indexed": false,
          "internalType": "address",
          "name": "underlying",
          "type": "address"
        },
        {
          "indexed": false,
          "internalType": "bool",
          "name": "isPut",
          "type": "bool"
        }
      ],
      "name": "CoveredCollateralWhitelisted",
      "type": "event"
    },
    {
      "anonymous": false,
      "inputs": [
        {
          "indexed": true,
          "internalType": "address",
          "name": "collateral",
          "type": "address"
        },
        {
          "indexed": false,
          "internalType": "address",
          "name": "underlying",
          "type": "address"
        },
        {
          "indexed": false,
          "internalType": "bool",
          "name": "isPut",
          "type": "bool"
        }
      ],
      "name": "NakedCollateralWhitelisted",
      "type": "event"
    },
    {
      "anonymous": false,
      "inputs": [
        {
          "indexed": true,
          "internalType": "address",
          "name": "otoken",
          "type": "address"
        }
      ],
      "name": "OtokenBlacklisted",
      "type": "event"
    },
    {
      "anonymous": false,
      "inputs": [
        {
          "indexed": true,
          "internalType": "address",
          "name": "otoken",
          "type": "address"
        }
      ],
      "name": "OtokenWhitelisted",
      "type": "event"
    },
    {
      "anonymous": false,
      "inputs": [
        {
          "indexed": true,
          "internalType": "address",
          "name": "previousOwner",
          "type": "address"
        },
        {
          "indexed": true,
          "internalType": "address",
          "name": "newOwner",
          "type": "address"
        }
      ],
      "name": "OwnershipTransferred",
      "type": "event"
    },
    {
      "anonymous": false,
      "inputs": [
        {
          "indexed": false,
          "internalType": "bytes32",
          "name": "productHash",
          "type": "bytes32"
        },
        {
          "indexed": true,
          "internalType": "address",
          "name": "underlying",
          "type": "address"
        },
        {
          "indexed": true,
          "internalType": "address",
          "name": "strike",
          "type": "address"
        },
        {
          "indexed": true,
          "internalType": "address",
          "name": "collateral",
          "type": "address"
        },
        {
          "indexed": false,
          "internalType": "bool",
          "name": "isPut",
          "type": "bool"
        }
      ],
      "name": "ProductBlacklisted",
      "type": "event"
    },
    {
      "anonymous": false,
      "inputs": [
        {
          "indexed": false,
          "internalType": "bytes32",
          "name": "productHash",
          "type": "bytes32"
        },
        {
          "indexed": true,
          "internalType": "address",
          "name": "underlying",
          "type": "address"
        },
        {
          "indexed": true,
          "internalType": "address",
          "name": "strike",
          "type": "address"
        },
        {
          "indexed": true,
          "internalType": "address",
          "name": "collateral",
          "type": "address"
        },
        {
          "indexed": false,
          "internalType": "bool",
          "name": "isPut",
          "type": "bool"
        }
      ],
      "name": "ProductWhitelisted",
      "type": "event"
    },
    {
      "inputs": [],
      "name": "addressBook",
      "outputs": [
        {
          "internalType": "address",
          "name": "",
          "type": "address"
        }
      ],
      "stateMutability": "view",
      "type": "function"
    },
    {
      "inputs": [
        {
          "internalType": "address",
          "name": "_callee",
          "type": "address"
        }
      ],
      "name": "blacklistCallee",
      "outputs": [],
      "stateMutability": "nonpayable",
      "type": "function"
    },
    {
      "inputs": [
        {
          "internalType": "address",
          "name": "_collateral",
          "type": "address"
        }
      ],
      "name": "blacklistCollateral",
      "outputs": [],
      "stateMutability": "nonpayable",
      "type": "function"
    },
    {
      "inputs": [
        {
          "internalType": "address",
          "name": "_otokenAddress",
          "type": "address"
        }
      ],
      "name": "blacklistOtoken",
      "outputs": [],
      "stateMutability": "nonpayable",
      "type": "function"
    },
    {
      "inputs": [
        {
          "internalType": "address",
          "name": "_underlying",
          "type": "address"
        },
        {
          "internalType": "address",
          "name": "_strike",
          "type": "address"
        },
        {
          "internalType": "address",
          "name": "_collateral",
          "type": "address"
        },
        {
          "internalType": "bool",
          "name": "_isPut",
          "type": "bool"
        }
      ],
      "name": "blacklistProduct",
      "outputs": [],
      "stateMutability": "nonpayable",
      "type": "function"
    },
    {
      "inputs": [
        {
          "internalType": "address",
          "name": "_collateral",
          "type": "address"
        },
        {
          "internalType": "address",
          "name": "_underlying",
          "type": "address"
        },
        {
          "internalType": "bool",
          "name": "_isPut",
          "type": "bool"
        }
      ],
      "name": "isCoveredWhitelistedCollateral",
      "outputs": [
        {
          "internalType": "bool",
          "name": "",
          "type": "bool"
        }
      ],
      "stateMutability": "view",
      "type": "function"
    },
    {
      "inputs": [
        {
          "internalType": "address",
          "name": "_collateral",
          "type": "address"
        },
        {
          "internalType": "address",
          "name": "_underlying",
          "type": "address"
        },
        {
          "internalType": "bool",
          "name": "_isPut",
          "type": "bool"
        }
      ],
      "name": "isNakedWhitelistedCollateral",
      "outputs": [
        {
          "internalType": "bool",
          "name": "",
          "type": "bool"
        }
      ],
      "stateMutability": "view",
      "type": "function"
    },
    {
      "inputs": [
        {
          "internalType": "address",
          "name": "_callee",
          "type": "address"
        }
      ],
      "name": "isWhitelistedCallee",
      "outputs": [
        {
          "internalType": "bool",
          "name": "",
          "type": "bool"
        }
      ],
      "stateMutability": "view",
      "type": "function"
    },
    {
      "inputs": [
        {
          "internalType": "address",
          "name": "_collateral",
          "type": "address"
        }
      ],
      "name": "isWhitelistedCollateral",
      "outputs": [
        {
          "internalType": "bool",
          "name": "",
          "type": "bool"
        }
      ],
      "stateMutability": "view",
      "type": "function"
    },
    {
      "inputs": [
        {
          "internalType": "address",
          "name": "_otoken",
          "type": "address"
        }
      ],
      "name": "isWhitelistedOtoken",
      "outputs": [
        {
          "internalType": "bool",
          "name": "",
          "type": "bool"
        }
      ],
      "stateMutability": "view",
      "type": "function"
    },
    {
      "inputs": [
        {
          "internalType": "address",
          "name": "_underlying",
          "type": "address"
        },
        {
          "internalType": "address",
          "name": "_strike",
          "type": "address"
        },
        {
          "internalType": "address",
          "name": "_collateral",
          "type": "address"
        },
        {
          "internalType": "bool",
          "name": "_isPut",
          "type": "bool"
        }
      ],
      "name": "isWhitelistedProduct",
      "outputs": [
        {
          "internalType": "bool",
          "name": "",
          "type": "bool"
        }
      ],
      "stateMutability": "view",
      "type": "function"
    },
    {
      "inputs": [],
      "name": "owner",
      "outputs": [
        {
          "internalType": "address",
          "name": "",
          "type": "address"
        }
      ],
      "stateMutability": "view",
      "type": "function"
    },
    {
      "inputs": [],
      "name": "renounceOwnership",
      "outputs": [],
      "stateMutability": "nonpayable",
      "type": "function"
    },
    {
      "inputs": [
        {
          "internalType": "address",
          "name": "newOwner",
          "type": "address"
        }
      ],
      "name": "transferOwnership",
      "outputs": [],
      "stateMutability": "nonpayable",
      "type": "function"
    },
    {
      "inputs": [
        {
          "internalType": "address",
          "name": "_callee",
          "type": "address"
        }
      ],
      "name": "whitelistCallee",
      "outputs": [],
      "stateMutability": "nonpayable",
      "type": "function"
    },
    {
      "inputs": [
        {
          "internalType": "address",
          "name": "_collateral",
          "type": "address"
        }
      ],
      "name": "whitelistCollateral",
      "outputs": [],
      "stateMutability": "nonpayable",
      "type": "function"
    },
    {
      "inputs": [
        {
          "internalType": "address",
          "name": "_collateral",
          "type": "address"
        },
        {
          "internalType": "address",
          "name": "_underlying",
          "type": "address"
        },
        {
          "internalType": "bool",
          "name": "_isPut",
          "type": "bool"
        }
      ],
      "name": "whitelistCoveredCollateral",
      "outputs": [],
      "stateMutability": "nonpayable",
      "type": "function"
    },
    {
      "inputs": [
        {
          "internalType": "address",
          "name": "_collateral",
          "type": "address"
        },
        {
          "internalType": "address",
          "name": "_underlying",
          "type": "address"
        },
        {
          "internalType": "bool",
          "name": "_isPut",
          "type": "bool"
        }
      ],
      "name": "whitelistNakedCollateral",
      "outputs": [],
      "stateMutability": "nonpayable",
      "type": "function"
    },
    {
      "inputs": [
        {
          "internalType": "address",
          "name": "_otokenAddress",
          "type": "address"
        }
      ],
      "name": "whitelistOtoken",
      "outputs": [],
      "stateMutability": "nonpayable",
      "type": "function"
    },
    {
      "inputs": [
        {
          "internalType": "address",
          "name": "_underlying",
          "type": "address"
        },
        {
          "internalType": "address",
          "name": "_strike",
          "type": "address"
        },
        {
          "internalType": "address",
          "name": "_collateral",
          "type": "address"
        },
        {
          "internalType": "bool",
          "name": "_isPut",
          "type": "bool"
        }
      ],
      "name": "whitelistProduct",
      "outputs": [],
      "stateMutability": "nonpayable",
      "type": "function"
    }
  ],
  "bytecode": "0x608060405234801561001057600080fd5b506040516112153803806112158339818101604052602081101561003357600080fd5b505160006100486001600160e01b0361011216565b600080546001600160a01b0319166001600160a01b0383169081178255604051929350917f8be0079c531659141344cd1fd0a4f28419497f9722a3daafe3b4186f6b6457e0908290a3506001600160a01b0381166100ed576040805162461bcd60e51b815260206004820152601460248201527f496e76616c6964206164647265737320626f6f6b000000000000000000000000604482015290519081900360640190fd5b600180546001600160a01b0319166001600160a01b0392909216919091179055610116565b3390565b6110f0806101256000396000f3fe608060405234801561001057600080fd5b506004361061012c5760003560e01c80638da5cb5b116100ad578063ebd31e8e11610071578063ebd31e8e146103f1578063ec7127b614610417578063f2fde38b1461043d578063f5887cdd14610463578063f9839d891461046b5761012c565b80638da5cb5b1461030b578063a2ae545a1461032f578063a34626c414610355578063a6dfe83f1461037b578063dd976095146103b95761012c565b8063708a0393116100f4578063708a039314610241578063715018a61461026757806379df1e441461026f578063817ca3f61461029557806382d90ebf146102cd5761012c565b806311946b981461013157806315f73b011461016b5780631b211591146101935780632a490df5146101cb578063401a83cf14610203575b600080fd5b6101576004803603602081101561014757600080fd5b50356001600160a01b0316610491565b604080519115158252519081900360200190f35b6101916004803603602081101561018157600080fd5b50356001600160a01b03166104af565b005b610191600480360360608110156101a957600080fd5b506001600160a01b038135811691602081013590911690604001351515610550565b610157600480360360608110156101e157600080fd5b506001600160a01b038135811691602081013590911690604001351515610645565b6101576004803603608081101561021957600080fd5b506001600160a01b03813581169160208101358216916040820135169060600135151561069d565b6101916004803603602081101561025757600080fd5b50356001600160a01b03166106f9565b61019161079d565b6101916004803603602081101561028557600080fd5b50356001600160a01b031661083f565b610191600480360360608110156102ab57600080fd5b506001600160a01b0381358116916020810135909116906040013515156108e0565b610191600480360360808110156102e357600080fd5b506001600160a01b0381358116916020810135821691604082013516906060013515156109d5565b610313610b2b565b604080516001600160a01b039092168252519081900360200190f35b6101576004803603602081101561034557600080fd5b50356001600160a01b0316610b3a565b6101916004803603602081101561036b57600080fd5b50356001600160a01b0316610b58565b6101916004803603608081101561039157600080fd5b506001600160a01b038135811691602081013582169160408201351690606001351515610bfc565b610157600480360360608110156103cf57600080fd5b506001600160a01b038135811691602081013590911690604001351515610cf8565b6101916004803603602081101561040757600080fd5b50356001600160a01b0316610d50565b6101916004803603602081101561042d57600080fd5b50356001600160a01b0316610df1565b6101916004803603602081101561045357600080fd5b50356001600160a01b0316610efd565b610313610ff5565b6101576004803603602081101561048157600080fd5b50356001600160a01b0316611004565b6001600160a01b031660009081526006602052604090205460ff1690565b6104b7611022565b6000546001600160a01b03908116911614610507576040805162461bcd60e51b8152602060048201819052602482015260008051602061104d833981519152604482015290519081900360640190fd5b6001600160a01b038116600081815260036020526040808220805460ff19169055517f2e27eeed3fdce92fcbb383357973ca18ad411294e3cb4f9c07a8665aee9bcf189190a250565b610558611022565b6000546001600160a01b039081169116146105a8576040805162461bcd60e51b8152602060048201819052602482015260008051602061104d833981519152604482015290519081900360640190fd5b604080516001600160a01b038086166020808401829052918616838501819052851515606080860182905286518087039091018152608086018088528151918601919091206000818152600490965294879020805460ff191660011790559190915260a084015292519092917f2e19e4cd387b328475c3d4ea543cd82bcaabdeb94bb2d7529bf04a0d13a89a39919081900360c00190a250505050565b604080516001600160a01b039485166020808301919091529390941684820152901515606080850191909152815180850390910181526080909301815282519282019290922060009081526004909152205460ff1690565b604080516001600160a01b039586166020808301919091529486168183015292909416606083015215156080808301919091528351808303909101815260a0909101835280519082012060009081526002909152205460ff1690565b610701611022565b6000546001600160a01b03908116911614610751576040805162461bcd60e51b8152602060048201819052602482015260008051602061104d833981519152604482015290519081900360640190fd5b6001600160a01b038116600081815260076020526040808220805460ff19166001179055517f9334f1cf560b8678d242a97ff8aa0f60f61c40b3b7e3bd1a1b6759bb0cec6b9e9190a250565b6107a5611022565b6000546001600160a01b039081169116146107f5576040805162461bcd60e51b8152602060048201819052602482015260008051602061104d833981519152604482015290519081900360640190fd5b600080546040516001600160a01b03909116907f8be0079c531659141344cd1fd0a4f28419497f9722a3daafe3b4186f6b6457e0908390a3600080546001600160a01b0319169055565b610847611022565b6000546001600160a01b03908116911614610897576040805162461bcd60e51b8152602060048201819052602482015260008051602061104d833981519152604482015290519081900360640190fd5b6001600160a01b038116600081815260066020526040808220805460ff19169055517fdb9b6d848ff0a15fae4f0c0424b4bb6ddd97ac1d06b2d160ba86fc2832de58149190a250565b6108e8611022565b6000546001600160a01b03908116911614610938576040805162461bcd60e51b8152602060048201819052602482015260008051602061104d833981519152604482015290519081900360640190fd5b604080516001600160a01b038086166020808401829052918616838501819052851515606080860182905286518087039091018152608086018088528151918601919091206000818152600590965294879020805460ff191660011790559190915260a084015292519092917f2897edd315d97de6998f662963046bc5ea22c8e1b8153d389103fe410e88dbd0919081900360c00190a250505050565b6109dd611022565b6000546001600160a01b03908116911614610a2d576040805162461bcd60e51b8152602060048201819052602482015260008051602061104d833981519152604482015290519081900360640190fd5b6001600160a01b03821660009081526003602052604090205460ff16610a845760405162461bcd60e51b815260040180806020018281038252602881526020018061106d6028913960400191505060405180910390fd5b604080516001600160a01b0380871660208084018290528288168486018190529287166060850181905286151560808087018290528751808803909101815260a087018089528151918501919091206000818152600290955293889020805460ff1916600117905583905260c086015294519094937f0f70a67bc35edde2b5599b6d163651e02f760143df04f95b4ef233299531bf21919081900360e00190a45050505050565b6000546001600160a01b031690565b6001600160a01b031660009081526007602052604090205460ff1690565b610b60611022565b6000546001600160a01b03908116911614610bb0576040805162461bcd60e51b8152602060048201819052602482015260008051602061104d833981519152604482015290519081900360640190fd5b6001600160a01b038116600081815260036020526040808220805460ff19166001179055517f38c11947f16670fa95ddb76444c21a13a0be4f0132d147eb6245c4b94ea889fa9190a250565b610c04611022565b6000546001600160a01b03908116911614610c54576040805162461bcd60e51b8152602060048201819052602482015260008051602061104d833981519152604482015290519081900360640190fd5b604080516001600160a01b0380871660208084018290528288168486018190529287166060850181905286151560808087018290528751808803909101815260a087018089528151918501919091206000818152600290955293889020805460ff1916905583905260c086015294519094937fa1ddf2a4744cc5c7c0dbe14996f16cb2d8564ef718f45625629e8a0497b9779a919081900360e00190a45050505050565b604080516001600160a01b039485166020808301919091529390941684820152901515606080850191909152815180850390910181526080909301815282519282019290922060009081526005909152205460ff1690565b610d58611022565b6000546001600160a01b03908116911614610da8576040805162461bcd60e51b8152602060048201819052602482015260008051602061104d833981519152604482015290519081900360640190fd5b6001600160a01b038116600081815260076020526040808220805460ff19169055517f1b04f3cb09a85dced592e37ae08b2a135757683e30116221003f6620de94d4009190a250565b600160009054906101000a90046001600160a01b03166001600160a01b0316631ffaf0db6040518163ffffffff1660e01b815260040160206040518083038186803b158015610e3f57600080fd5b505afa158015610e53573d6000803e3d6000fd5b505050506040513d6020811015610e6957600080fd5b50516001600160a01b03163314610eb15760405162461bcd60e51b81526004018080602001828103825260268152602001806110956026913960400191505060405180910390fd5b6001600160a01b038116600081815260066020526040808220805460ff19166001179055517fafbb5b30329d7def9553a137626d5bc919fda8f5d1d1b5a64aa6123445b9415b9190a250565b610f05611022565b6000546001600160a01b03908116911614610f55576040805162461bcd60e51b8152602060048201819052602482015260008051602061104d833981519152604482015290519081900360640190fd5b6001600160a01b038116610f9a5760405162461bcd60e51b81526004018080602001828103825260268152602001806110276026913960400191505060405180910390fd5b600080546040516001600160a01b03808516939216917f8be0079c531659141344cd1fd0a4f28419497f9722a3daafe3b4186f6b6457e091a3600080546001600160a01b0319166001600160a01b0392909216919091179055565b6001546001600160a01b031681565b6001600160a01b031660009081526003602052604090205460ff1690565b339056fe4f776e61626c653a206e6577206f776e657220697320746865207a65726f20616464726573734f776e61626c653a2063616c6c6572206973206e6f7420746865206f776e657257686974656c6973743a20436f6c6c61746572616c206973206e6f742077686974656c697374656457686974656c6973743a2053656e646572206973206e6f74204f746f6b656e466163746f7279a2646970667358221220727e6a68ad15b572805fcdbadf2e6636f4c5e525e9b365f27e172fa247b7824764736f6c634300060a0033",
  "linkReferences": {},
  "deployedLinkReferences": {}
}