{
  "_format": "hh-sol-artifact-1",
  "contractName": "NewController",
  "sourceName": "contracts/packages/opyn/new/NewController.sol",
  "abi": [
    {
      "anonymous": false,
      "inputs": [
        {
          "indexed": true,
          "internalType": "address",
          "name": "accountOwner",
          "type": "address"
        },
        {
          "indexed": true,
          "internalType": "address",
          "name": "operator",
          "type": "address"
        },
        {
          "indexed": false,
          "internalType": "bool",
          "name": "isSet",
          "type": "bool"
        }
      ],
      "name": "AccountOperatorUpdated",
      "type": "event"
    },
    {
      "anonymous": false,
      "inputs": [
        {
          "indexed": true,
          "internalType": "address",
          "name": "from",
          "type": "address"
        },
        {
          "indexed": true,
          "internalType": "address",
          "name": "to",
          "type": "address"
        },
        {
          "indexed": false,
          "internalType": "bytes",
          "name": "data",
          "type": "bytes"
        }
      ],
      "name": "CallExecuted",
      "type": "event"
    },
    {
      "anonymous": false,
      "inputs": [
        {
          "indexed": false,
          "internalType": "bool",
          "name": "isRestricted",
          "type": "bool"
        }
      ],
      "name": "CallRestricted",
      "type": "event"
    },
    {
      "anonymous": false,
      "inputs": [
        {
          "indexed": true,
          "internalType": "address",
          "name": "asset",
          "type": "address"
        },
        {
          "indexed": true,
          "internalType": "address",
          "name": "accountOwner",
          "type": "address"
        },
        {
          "indexed": true,
          "internalType": "address",
          "name": "from",
          "type": "address"
        },
        {
          "indexed": false,
          "internalType": "uint256",
          "name": "vaultId",
          "type": "uint256"
        },
        {
          "indexed": false,
          "internalType": "uint256",
          "name": "amount",
          "type": "uint256"
        }
      ],
      "name": "CollateralAssetDeposited",
      "type": "event"
    },
    {
      "anonymous": false,
      "inputs": [
        {
          "indexed": true,
          "internalType": "address",
          "name": "asset",
          "type": "address"
        },
        {
          "indexed": true,
          "internalType": "address",
          "name": "AccountOwner",
          "type": "address"
        },
        {
          "indexed": true,
          "internalType": "address",
          "name": "to",
          "type": "address"
        },
        {
          "indexed": false,
          "internalType": "uint256",
          "name": "vaultId",
          "type": "uint256"
        },
        {
          "indexed": false,
          "internalType": "uint256",
          "name": "amount",
          "type": "uint256"
        }
      ],
      "name": "CollateralAssetWithdrawed",
      "type": "event"
    },
    {
      "anonymous": false,
      "inputs": [
        {
          "indexed": true,
          "internalType": "address",
          "name": "donator",
          "type": "address"
        },
        {
          "indexed": true,
          "internalType": "address",
          "name": "asset",
          "type": "address"
        },
        {
          "indexed": false,
          "internalType": "uint256",
          "name": "amount",
          "type": "uint256"
        }
      ],
      "name": "Donated",
      "type": "event"
    },
    {
      "anonymous": false,
      "inputs": [
        {
          "indexed": true,
          "internalType": "address",
          "name": "oldFullPauser",
          "type": "address"
        },
        {
          "indexed": true,
          "internalType": "address",
          "name": "newFullPauser",
          "type": "address"
        }
      ],
      "name": "FullPauserUpdated",
      "type": "event"
    },
    {
      "anonymous": false,
      "inputs": [
        {
          "indexed": true,
          "internalType": "address",
          "name": "otoken",
          "type": "address"
        },
        {
          "indexed": true,
          "internalType": "address",
          "name": "accountOwner",
          "type": "address"
        },
        {
          "indexed": true,
          "internalType": "address",
          "name": "from",
          "type": "address"
        },
        {
          "indexed": false,
          "internalType": "uint256",
          "name": "vaultId",
          "type": "uint256"
        },
        {
          "indexed": false,
          "internalType": "uint256",
          "name": "amount",
          "type": "uint256"
        }
      ],
      "name": "LongOtokenDeposited",
      "type": "event"
    },
    {
      "anonymous": false,
      "inputs": [
        {
          "indexed": true,
          "internalType": "address",
          "name": "otoken",
          "type": "address"
        },
        {
          "indexed": true,
          "internalType": "address",
          "name": "AccountOwner",
          "type": "address"
        },
        {
          "indexed": true,
          "internalType": "address",
          "name": "to",
          "type": "address"
        },
        {
          "indexed": false,
          "internalType": "uint256",
          "name": "vaultId",
          "type": "uint256"
        },
        {
          "indexed": false,
          "internalType": "uint256",
          "name": "amount",
          "type": "uint256"
        }
      ],
      "name": "LongOtokenWithdrawed",
      "type": "event"
    },
    {
      "anonymous": false,
      "inputs": [
        {
          "indexed": true,
          "internalType": "address",
          "name": "collateral",
          "type": "address"
        },
        {
          "indexed": false,
          "internalType": "uint256",
          "name": "cap",
          "type": "uint256"
        }
      ],
      "name": "NakedCapUpdated",
      "type": "event"
    },
    {
      "anonymous": false,
      "inputs": [
        {
          "indexed": true,
          "internalType": "address",
          "name": "previousOwner",
          "type": "address"
        },
        {
          "indexed": true,
          "internalType": "address",
          "name": "newOwner",
          "type": "address"
        }
      ],
      "name": "OwnershipTransferred",
      "type": "event"
    },
    {
      "anonymous": false,
      "inputs": [
        {
          "indexed": true,
          "internalType": "address",
          "name": "oldPartialPauser",
          "type": "address"
        },
        {
          "indexed": true,
          "internalType": "address",
          "name": "newPartialPauser",
          "type": "address"
        }
      ],
      "name": "PartialPauserUpdated",
      "type": "event"
    },
    {
      "anonymous": false,
      "inputs": [
        {
          "indexed": true,
          "internalType": "address",
          "name": "otoken",
          "type": "address"
        },
        {
          "indexed": true,
          "internalType": "address",
          "name": "redeemer",
          "type": "address"
        },
        {
          "indexed": true,
          "internalType": "address",
          "name": "receiver",
          "type": "address"
        },
        {
          "indexed": false,
          "internalType": "address",
          "name": "collateralAsset",
          "type": "address"
        },
        {
          "indexed": false,
          "internalType": "uint256",
          "name": "otokenBurned",
          "type": "uint256"
        },
        {
          "indexed": false,
          "internalType": "uint256",
          "name": "payout",
          "type": "uint256"
        }
      ],
      "name": "Redeem",
      "type": "event"
    },
    {
      "anonymous": false,
      "inputs": [
        {
          "indexed": true,
          "internalType": "address",
          "name": "otoken",
          "type": "address"
        },
        {
          "indexed": true,
          "internalType": "address",
          "name": "AccountOwner",
          "type": "address"
        },
        {
          "indexed": true,
          "internalType": "address",
          "name": "from",
          "type": "address"
        },
        {
          "indexed": false,
          "internalType": "uint256",
          "name": "vaultId",
          "type": "uint256"
        },
        {
          "indexed": false,
          "internalType": "uint256",
          "name": "amount",
          "type": "uint256"
        }
      ],
      "name": "ShortOtokenBurned",
      "type": "event"
    },
    {
      "anonymous": false,
      "inputs": [
        {
          "indexed": true,
          "internalType": "address",
          "name": "otoken",
          "type": "address"
        },
        {
          "indexed": true,
          "internalType": "address",
          "name": "AccountOwner",
          "type": "address"
        },
        {
          "indexed": true,
          "internalType": "address",
          "name": "to",
          "type": "address"
        },
        {
          "indexed": false,
          "internalType": "uint256",
          "name": "vaultId",
          "type": "uint256"
        },
        {
          "indexed": false,
          "internalType": "uint256",
          "name": "amount",
          "type": "uint256"
        }
      ],
      "name": "ShortOtokenMinted",
      "type": "event"
    },
    {
      "anonymous": false,
      "inputs": [
        {
          "indexed": false,
          "internalType": "bool",
          "name": "isPaused",
          "type": "bool"
        }
      ],
      "name": "SystemFullyPaused",
      "type": "event"
    },
    {
      "anonymous": false,
      "inputs": [
        {
          "indexed": false,
          "internalType": "bool",
          "name": "isPaused",
          "type": "bool"
        }
      ],
      "name": "SystemPartiallyPaused",
      "type": "event"
    },
    {
      "anonymous": false,
      "inputs": [
        {
          "indexed": true,
          "internalType": "address",
          "name": "liquidator",
          "type": "address"
        },
        {
          "indexed": false,
          "internalType": "address",
          "name": "receiver",
          "type": "address"
        },
        {
          "indexed": true,
          "internalType": "address",
          "name": "vaultOwner",
          "type": "address"
        },
        {
          "indexed": false,
          "internalType": "uint256",
          "name": "auctionPrice",
          "type": "uint256"
        },
        {
          "indexed": false,
          "internalType": "uint256",
          "name": "collateralPayout",
          "type": "uint256"
        },
        {
          "indexed": false,
          "internalType": "uint256",
          "name": "debtAmount",
          "type": "uint256"
        },
        {
          "indexed": false,
          "internalType": "uint256",
          "name": "vaultId",
          "type": "uint256"
        },
        {
          "indexed": true,
          "internalType": "address",
          "name": "series",
          "type": "address"
        }
      ],
      "name": "VaultLiquidated",
      "type": "event"
    },
    {
      "anonymous": false,
      "inputs": [
        {
          "indexed": true,
          "internalType": "address",
          "name": "accountOwner",
          "type": "address"
        },
        {
          "indexed": false,
          "internalType": "uint256",
          "name": "vaultId",
          "type": "uint256"
        },
        {
          "indexed": true,
          "internalType": "uint256",
          "name": "vaultType",
          "type": "uint256"
        }
      ],
      "name": "VaultOpened",
      "type": "event"
    },
    {
      "anonymous": false,
      "inputs": [
        {
          "indexed": true,
          "internalType": "address",
          "name": "accountOwner",
          "type": "address"
        },
        {
          "indexed": true,
          "internalType": "address",
          "name": "oTokenAddress",
          "type": "address"
        },
        {
          "indexed": false,
          "internalType": "address",
          "name": "to",
          "type": "address"
        },
        {
          "indexed": false,
          "internalType": "uint256",
          "name": "payout",
          "type": "uint256"
        },
        {
          "indexed": false,
          "internalType": "uint256",
          "name": "vaultId",
          "type": "uint256"
        },
        {
          "indexed": true,
          "internalType": "uint256",
          "name": "vaultType",
          "type": "uint256"
        }
      ],
      "name": "VaultSettled",
      "type": "event"
    },
    {
      "inputs": [],
      "name": "addressbook",
      "outputs": [
        {
          "internalType": "contract AddressBookInterface",
          "name": "",
          "type": "address"
        }
      ],
      "stateMutability": "view",
      "type": "function"
    },
    {
      "inputs": [],
      "name": "calculator",
      "outputs": [
        {
          "internalType": "contract MarginCalculatorInterface",
          "name": "",
          "type": "address"
        }
      ],
      "stateMutability": "view",
      "type": "function"
    },
    {
      "inputs": [],
      "name": "callRestricted",
      "outputs": [
        {
          "internalType": "bool",
          "name": "",
          "type": "bool"
        }
      ],
      "stateMutability": "view",
      "type": "function"
    },
    {
      "inputs": [
        {
          "internalType": "address",
          "name": "_underlying",
          "type": "address"
        },
        {
          "internalType": "address",
          "name": "_strike",
          "type": "address"
        },
        {
          "internalType": "address",
          "name": "_collateral",
          "type": "address"
        },
        {
          "internalType": "uint256",
          "name": "_expiry",
          "type": "uint256"
        }
      ],
      "name": "canSettleAssets",
      "outputs": [
        {
          "internalType": "bool",
          "name": "",
          "type": "bool"
        }
      ],
      "stateMutability": "view",
      "type": "function"
    },
    {
      "inputs": [
        {
          "internalType": "uint256",
          "name": "_vaultId",
          "type": "uint256"
        }
      ],
      "name": "clearVaultLiquidationDetails",
      "outputs": [],
      "stateMutability": "nonpayable",
      "type": "function"
    },
    {
      "inputs": [
        {
          "internalType": "address",
          "name": "_asset",
          "type": "address"
        },
        {
          "internalType": "uint256",
          "name": "_amount",
          "type": "uint256"
        }
      ],
      "name": "donate",
      "outputs": [],
      "stateMutability": "nonpayable",
      "type": "function"
    },
    {
      "inputs": [],
      "name": "fullPauser",
      "outputs": [
        {
          "internalType": "address",
          "name": "",
          "type": "address"
        }
      ],
      "stateMutability": "view",
      "type": "function"
    },
    {
      "inputs": [
        {
          "internalType": "address",
          "name": "_accountOwner",
          "type": "address"
        }
      ],
      "name": "getAccountVaultCounter",
      "outputs": [
        {
          "internalType": "uint256",
          "name": "",
          "type": "uint256"
        }
      ],
      "stateMutability": "view",
      "type": "function"
    },
    {
      "inputs": [],
      "name": "getConfiguration",
      "outputs": [
        {
          "internalType": "address",
          "name": "",
          "type": "address"
        },
        {
          "internalType": "address",
          "name": "",
          "type": "address"
        },
        {
          "internalType": "address",
          "name": "",
          "type": "address"
        },
        {
          "internalType": "address",
          "name": "",
          "type": "address"
        }
      ],
      "stateMutability": "view",
      "type": "function"
    },
    {
      "inputs": [
        {
          "internalType": "address",
          "name": "_asset",
          "type": "address"
        }
      ],
      "name": "getNakedCap",
      "outputs": [
        {
          "internalType": "uint256",
          "name": "",
          "type": "uint256"
        }
      ],
      "stateMutability": "view",
      "type": "function"
    },
    {
      "inputs": [
        {
          "internalType": "address",
          "name": "_asset",
          "type": "address"
        }
      ],
      "name": "getNakedPoolBalance",
      "outputs": [
        {
          "internalType": "uint256",
          "name": "",
          "type": "uint256"
        }
      ],
      "stateMutability": "view",
      "type": "function"
    },
    {
      "inputs": [
        {
          "internalType": "address",
          "name": "_otoken",
          "type": "address"
        },
        {
          "internalType": "uint256",
          "name": "_amount",
          "type": "uint256"
        }
      ],
      "name": "getPayout",
      "outputs": [
        {
          "internalType": "uint256",
          "name": "",
          "type": "uint256"
        }
      ],
      "stateMutability": "view",
      "type": "function"
    },
    {
      "inputs": [
        {
          "internalType": "address",
          "name": "_owner",
          "type": "address"
        },
        {
          "internalType": "uint256",
          "name": "_vaultId",
          "type": "uint256"
        }
      ],
      "name": "getProceed",
      "outputs": [
        {
          "internalType": "uint256",
          "name": "",
          "type": "uint256"
        }
      ],
      "stateMutability": "view",
      "type": "function"
    },
    {
      "inputs": [
        {
          "internalType": "address",
          "name": "_owner",
          "type": "address"
        },
        {
          "internalType": "uint256",
          "name": "_vaultId",
          "type": "uint256"
        }
      ],
      "name": "getVault",
      "outputs": [
        {
          "components": [
            {
              "internalType": "address[]",
              "name": "shortOtokens",
              "type": "address[]"
            },
            {
              "internalType": "address[]",
              "name": "longOtokens",
              "type": "address[]"
            },
            {
              "internalType": "address[]",
              "name": "collateralAssets",
              "type": "address[]"
            },
            {
              "internalType": "uint256[]",
              "name": "shortAmounts",
              "type": "uint256[]"
            },
            {
              "internalType": "uint256[]",
              "name": "longAmounts",
              "type": "uint256[]"
            },
            {
              "internalType": "uint256[]",
              "name": "collateralAmounts",
              "type": "uint256[]"
            }
          ],
          "internalType": "struct MarginVault.Vault",
          "name": "",
          "type": "tuple"
        }
      ],
      "stateMutability": "view",
      "type": "function"
    },
    {
      "inputs": [
        {
          "internalType": "address",
          "name": "_owner",
          "type": "address"
        },
        {
          "internalType": "uint256",
          "name": "_vaultId",
          "type": "uint256"
        }
      ],
      "name": "getVaultLiquidationDetails",
      "outputs": [
        {
          "internalType": "address",
          "name": "",
          "type": "address"
        },
        {
          "internalType": "uint256",
          "name": "",
          "type": "uint256"
        },
        {
          "internalType": "uint256",
          "name": "",
          "type": "uint256"
        }
      ],
      "stateMutability": "view",
      "type": "function"
    },
    {
      "inputs": [
        {
          "internalType": "address",
          "name": "_owner",
          "type": "address"
        },
        {
          "internalType": "uint256",
          "name": "_vaultId",
          "type": "uint256"
        }
      ],
      "name": "getVaultWithDetails",
      "outputs": [
        {
          "components": [
            {
              "internalType": "address[]",
              "name": "shortOtokens",
              "type": "address[]"
            },
            {
              "internalType": "address[]",
              "name": "longOtokens",
              "type": "address[]"
            },
            {
              "internalType": "address[]",
              "name": "collateralAssets",
              "type": "address[]"
            },
            {
              "internalType": "uint256[]",
              "name": "shortAmounts",
              "type": "uint256[]"
            },
            {
              "internalType": "uint256[]",
              "name": "longAmounts",
              "type": "uint256[]"
            },
            {
              "internalType": "uint256[]",
              "name": "collateralAmounts",
              "type": "uint256[]"
            }
          ],
          "internalType": "struct MarginVault.Vault",
          "name": "",
          "type": "tuple"
        },
        {
          "internalType": "uint256",
          "name": "",
          "type": "uint256"
        },
        {
          "internalType": "uint256",
          "name": "",
          "type": "uint256"
        }
      ],
      "stateMutability": "view",
      "type": "function"
    },
    {
      "inputs": [
        {
          "internalType": "address",
          "name": "_otoken",
          "type": "address"
        }
      ],
      "name": "hasExpired",
      "outputs": [
        {
          "internalType": "bool",
          "name": "",
          "type": "bool"
        }
      ],
      "stateMutability": "view",
      "type": "function"
    },
    {
      "inputs": [
        {
          "internalType": "address",
          "name": "_addressBook",
          "type": "address"
        },
        {
          "internalType": "address",
          "name": "_owner",
          "type": "address"
        }
      ],
      "name": "initialize",
      "outputs": [],
      "stateMutability": "nonpayable",
      "type": "function"
    },
    {
      "inputs": [
        {
          "internalType": "address",
          "name": "_owner",
          "type": "address"
        },
        {
          "internalType": "uint256",
          "name": "_vaultId",
          "type": "uint256"
        }
      ],
      "name": "isLiquidatable",
      "outputs": [
        {
          "internalType": "bool",
          "name": "",
          "type": "bool"
        },
        {
          "internalType": "uint256",
          "name": "",
          "type": "uint256"
        },
        {
          "internalType": "uint256",
          "name": "",
          "type": "uint256"
        }
      ],
      "stateMutability": "view",
      "type": "function"
    },
    {
      "inputs": [
        {
          "internalType": "address",
          "name": "_owner",
          "type": "address"
        },
        {
          "internalType": "address",
          "name": "_operator",
          "type": "address"
        }
      ],
      "name": "isOperator",
      "outputs": [
        {
          "internalType": "bool",
          "name": "",
          "type": "bool"
        }
      ],
      "stateMutability": "view",
      "type": "function"
    },
    {
      "inputs": [
        {
          "internalType": "address",
          "name": "_otoken",
          "type": "address"
        }
      ],
      "name": "isSettlementAllowed",
      "outputs": [
        {
          "internalType": "bool",
          "name": "",
          "type": "bool"
        }
      ],
      "stateMutability": "view",
      "type": "function"
    },
    {
      "inputs": [
        {
          "components": [
            {
              "internalType": "enum Actions.ActionType",
              "name": "actionType",
              "type": "uint8"
            },
            {
              "internalType": "address",
              "name": "owner",
              "type": "address"
            },
            {
              "internalType": "address",
              "name": "secondAddress",
              "type": "address"
            },
            {
              "internalType": "address",
              "name": "asset",
              "type": "address"
            },
            {
              "internalType": "uint256",
              "name": "vaultId",
              "type": "uint256"
            },
            {
              "internalType": "uint256",
              "name": "amount",
              "type": "uint256"
            },
            {
              "internalType": "uint256",
              "name": "index",
              "type": "uint256"
            },
            {
              "internalType": "bytes",
              "name": "data",
              "type": "bytes"
            }
          ],
          "internalType": "struct Actions.ActionArgs[]",
          "name": "_actions",
          "type": "tuple[]"
        }
      ],
      "name": "operate",
      "outputs": [],
      "stateMutability": "nonpayable",
      "type": "function"
    },
    {
      "inputs": [],
      "name": "oracle",
      "outputs": [
        {
          "internalType": "contract OracleInterface",
          "name": "",
          "type": "address"
        }
      ],
      "stateMutability": "view",
      "type": "function"
    },
    {
      "inputs": [],
      "name": "owner",
      "outputs": [
        {
          "internalType": "address",
          "name": "",
          "type": "address"
        }
      ],
      "stateMutability": "view",
      "type": "function"
    },
    {
      "inputs": [],
      "name": "partialPauser",
      "outputs": [
        {
          "internalType": "address",
          "name": "",
          "type": "address"
        }
      ],
      "stateMutability": "view",
      "type": "function"
    },
    {
      "inputs": [],
      "name": "pool",
      "outputs": [
        {
          "internalType": "contract MarginPoolInterface",
          "name": "",
          "type": "address"
        }
      ],
      "stateMutability": "view",
      "type": "function"
    },
    {
      "inputs": [],
      "name": "refreshConfiguration",
      "outputs": [],
      "stateMutability": "nonpayable",
      "type": "function"
    },
    {
      "inputs": [],
      "name": "renounceOwnership",
      "outputs": [],
      "stateMutability": "nonpayable",
      "type": "function"
    },
    {
      "inputs": [
        {
          "internalType": "bool",
          "name": "_isRestricted",
          "type": "bool"
        }
      ],
      "name": "setCallRestriction",
      "outputs": [],
      "stateMutability": "nonpayable",
      "type": "function"
    },
    {
      "inputs": [
        {
          "internalType": "address",
          "name": "_fullPauser",
          "type": "address"
        }
      ],
      "name": "setFullPauser",
      "outputs": [],
      "stateMutability": "nonpayable",
      "type": "function"
    },
    {
      "inputs": [
        {
          "internalType": "address",
          "name": "_collateral",
          "type": "address"
        },
        {
          "internalType": "uint256",
          "name": "_cap",
          "type": "uint256"
        }
      ],
      "name": "setNakedCap",
      "outputs": [],
      "stateMutability": "nonpayable",
      "type": "function"
    },
    {
      "inputs": [
        {
          "internalType": "address",
          "name": "_operator",
          "type": "address"
        },
        {
          "internalType": "bool",
          "name": "_isOperator",
          "type": "bool"
        }
      ],
      "name": "setOperator",
      "outputs": [],
      "stateMutability": "nonpayable",
      "type": "function"
    },
    {
      "inputs": [
        {
          "internalType": "address",
          "name": "_partialPauser",
          "type": "address"
        }
      ],
      "name": "setPartialPauser",
      "outputs": [],
      "stateMutability": "nonpayable",
      "type": "function"
    },
    {
      "inputs": [
        {
          "internalType": "bool",
          "name": "_fullyPaused",
          "type": "bool"
        }
      ],
      "name": "setSystemFullyPaused",
      "outputs": [],
      "stateMutability": "nonpayable",
      "type": "function"
    },
    {
      "inputs": [
        {
          "internalType": "bool",
          "name": "_partiallyPaused",
          "type": "bool"
        }
      ],
      "name": "setSystemPartiallyPaused",
      "outputs": [],
      "stateMutability": "nonpayable",
      "type": "function"
    },
    {
      "inputs": [
        {
          "internalType": "address",
          "name": "_owner",
          "type": "address"
        },
        {
          "internalType": "uint256",
          "name": "_vaultId",
          "type": "uint256"
        }
      ],
      "name": "sync",
      "outputs": [],
      "stateMutability": "nonpayable",
      "type": "function"
    },
    {
      "inputs": [],
      "name": "systemFullyPaused",
      "outputs": [
        {
          "internalType": "bool",
          "name": "",
          "type": "bool"
        }
      ],
      "stateMutability": "view",
      "type": "function"
    },
    {
      "inputs": [],
      "name": "systemPartiallyPaused",
      "outputs": [
        {
          "internalType": "bool",
          "name": "",
          "type": "bool"
        }
      ],
      "stateMutability": "view",
      "type": "function"
    },
    {
      "inputs": [
        {
          "internalType": "address",
          "name": "newOwner",
          "type": "address"
        }
      ],
      "name": "transferOwnership",
      "outputs": [],
      "stateMutability": "nonpayable",
      "type": "function"
    },
    {
      "inputs": [],
      "name": "whitelist",
      "outputs": [
        {
          "internalType": "contract WhitelistInterface",
          "name": "",
          "type": "address"
        }
      ],
      "stateMutability": "view",
      "type": "function"
    }
  ],
  "bytecode": "0x608060405234801561001057600080fd5b50615f7380620000216000396000f3fe608060405234801561001057600080fd5b50600436106102485760003560e01c80639f677ed91161013b578063ce3e39c0116100b8578063eab7775b1161007c578063eab7775b146104c4578063ef4fcafa146104cc578063f2fde38b146104df578063f62fc0b3146104f2578063f77bc88b1461051457610248565b8063ce3e39c014610463578063d66dd43e1461046b578063d99d13f51461047e578063e69d849d1461049e578063e723406c146104b157610248565b8063c220101d116100ff578063c220101d1461040f578063c644d3a214610422578063caa6d21a14610435578063cab2e80514610448578063cdee058a1461045b57610248565b80639f677ed9146103b0578063b617f0c6146103c3578063b6363cf2146103d6578063bc463a3d146103e9578063beca75d7146103fc57610248565b80636bd50cef116101c95780637dc0d1d01161018d5780637dc0d1d01461036e5780638da5cb5b1461037657806393e59dc11461037e5780639daafbe8146103865780639db93891146103a857610248565b80636bd50cef1461032b5780636c0c3b991461034357806370dc320c1461034b578063715018a6146103535780637d8579f81461035b57610248565b8063485cc95511610210578063485cc955146102ca578063558a7297146102dd578063565eea19146102f0578063573c473e14610310578063646810831461032357610248565b806314b93faf1461024d57806316f0115b1461027657806329729d881461028b5780632eb1c3a7146102935780633fdfb2aa146102a8575b600080fd5b61026061025b366004615098565b610527565b60405161026d91906155f6565b60405180910390f35b61027e61053e565b60405161026d91906154ff565b61027e61054d565b6102a66102a1366004615188565b61055c565b005b6102bb6102b6366004615188565b610611565b60405161026d93929190615601565b6102a66102d8366004615060565b610636565b6102a66102eb36600461515b565b61074e565b6103036102fe366004615188565b610807565b60405161026d9190615edc565b6102a661031e3660046152e8565b6108b9565b6102a6610970565b6103336109af565b60405161026d949392919061557c565b6102606109d4565b61027e6109e4565b6102a66109f3565b6102a6610369366004615356565b610a72565b61027e610aa1565b61027e610ab0565b61027e610ac0565b610399610394366004615188565b610acf565b60405161026d93929190615e93565b61027e610d68565b6102a66103be3660046152e8565b610d77565b6102a66103d13660046151b3565b610e23565b6102606103e4366004615060565b610eb5565b6102a66103f7366004615028565b610ee3565b6102a661040a366004615028565b610fc8565b61030361041d366004615188565b6110ad565b610303610430366004615028565b61116e565b610303610443366004615028565b611189565b6102a66104563660046152e8565b6111a4565b61026061125b565b61027e61126b565b610303610479366004615028565b61127a565b61049161048c366004615188565b611295565b60405161026d9190615e5e565b6102a66104ac366004615188565b6114f6565b6102606104bf366004615028565b61159f565b6102606115ce565b6102a66104da366004615188565b6115de565b6102a66104ed366004615028565b611651565b610505610500366004615188565b611708565b60405161026d939291906155a7565b610260610522366004615028565b61177d565b6000610535858585856117f9565b95945050505050565b60cd546001600160a01b031681565b60cf546001600160a01b031681565b61056461198e565b6065546001600160a01b0390811691161461059a5760405162461bcd60e51b815260040161059190615ad9565b60405180910390fd5b600081116105ba5760405162461bcd60e51b815260040161059190615995565b6001600160a01b038216600081815260d5602052604090819020839055517f6ff730ba70e34bd5ca823424bd15ab869cadc6bad079b527c71bde444ad6402b90610605908490615edc565b60405180910390a25050565b6000806000806000806106248888611992565b91985096509450505050509250925092565b600054610100900460ff168061064f575061064f611a58565b8061065d575060005460ff16155b6106795760405162461bcd60e51b815260040161059190615b2b565b600054610100900460ff161580156106a4576000805460ff1961ff0019909116610100171660011790555b6001600160a01b0383166106ca5760405162461bcd60e51b815260040161059190615a42565b6001600160a01b0382166106f05760405162461bcd60e51b815260040161059190615e0a565b6106f982611a5e565b610701611af3565b60c980546001600160a01b0319166001600160a01b038516179055610724611b83565b60cf805460ff60b01b1916600160b01b1790558015610749576000805461ff00191690555b505050565b33600090815260d2602090815260408083206001600160a01b038616845290915290205460ff16151581151514156107985760405162461bcd60e51b815260040161059190615d28565b33600081815260d2602090815260408083206001600160a01b038716808552925291829020805460ff191685151517905590519091907f1ae45540b0875932452da603b351ce2f1758258ba1345e79f8fc94f044cb0787906107fb9085906155f6565b60405180910390a35050565b60cc54604051630478409360e41b81526000916108b0916305f5e100916108a49186916001600160a01b031690634784093090610848908a906004016154ff565b60206040518083038186803b15801561086057600080fd5b505afa158015610874573d6000803e3d6000fd5b505050506040513d601f19601f82011682018060405250810190610898919061536e565b9063ffffffff611dde16565b9063ffffffff611e1816565b90505b92915050565b60ce546001600160a01b031633146108e35760405162461bcd60e51b815260040161059190615775565b60cf5460ff600160a01b90910416151581151514156109145760405162461bcd60e51b815260040161059190615d28565b60cf805460ff60a01b1916600160a01b831515810291909117918290556040517f531c3d7229f510a8da00a0f5792686958cdd9c8a120c3c030a6053cd66b68556926109659260ff910416906155f6565b60405180910390a150565b61097861198e565b6065546001600160a01b039081169116146109a55760405162461bcd60e51b815260040161059190615ad9565b6109ad611b83565b565b60ca5460cb5460cc5460cd546001600160a01b03938416949284169391821692911690565b60cf54600160b01b900460ff1681565b60c9546001600160a01b031681565b6109fb61198e565b6065546001600160a01b03908116911614610a285760405162461bcd60e51b815260040161059190615ad9565b6065546040516000916001600160a01b0316907f8be0079c531659141344cd1fd0a4f28419497f9722a3daafe3b4186f6b6457e0908390a3606580546001600160a01b0319169055565b33600090815260d76020908152604080832093835292905290812080546001600160a01b031916815560010155565b60cb546001600160a01b031681565b6065546001600160a01b03165b90565b60ca546001600160a01b031681565b610ad7614dde565b6001600160a01b038316600081815260d160209081526040808320868452825280832084845260d3835281842087855283528184205494845260d483528184208785528352818420548251825460e09581028201860190945260c081018481529596879693959094929391928692849290918491840182828015610b8457602002820191906000526020600020905b81546001600160a01b03168152600190910190602001808311610b66575b5050505050815260200160018201805480602002602001604051908101604052809291908181526020018280548015610be657602002820191906000526020600020905b81546001600160a01b03168152600190910190602001808311610bc8575b5050505050815260200160028201805480602002602001604051908101604052809291908181526020018280548015610c4857602002820191906000526020600020905b81546001600160a01b03168152600190910190602001808311610c2a575b5050505050815260200160038201805480602002602001604051908101604052809291908181526020018280548015610ca057602002820191906000526020600020905b815481526020019060010190808311610c8c575b5050505050815260200160048201805480602002602001604051908101604052809291908181526020018280548015610cf857602002820191906000526020600020905b815481526020019060010190808311610ce4575b5050505050815260200160058201805480602002602001604051908101604052809291908181526020018280548015610d5057602002820191906000526020600020905b815481526020019060010190808311610d3c575b50505050508152505092509250925092509250925092565b60ce546001600160a01b031681565b60cf546001600160a01b03163314610da15760405162461bcd60e51b8152600401610591906159b2565b60cf5460ff600160a81b9091041615158115151415610dd25760405162461bcd60e51b815260040161059190615d28565b60cf805460ff60a81b1916600160a81b831515810291909117918290556040517f4f1d0445688d95c99ca9fc036f551b205fd18ff26a4443b1979c16d1ba66b535926109659260ff910416906155f6565b60975460ff16610e455760405162461bcd60e51b815260040161059190615dd3565b6097805460ff19169055610e57611e5a565b6000806000610e6584611e84565b9250925092508215610ea257610e7b828261213a565b6001600160a01b038216600090815260d46020908152604080832084845290915290204290555b50506097805460ff191660011790555050565b6001600160a01b03918216600090815260d26020908152604080832093909416825291909152205460ff1690565b610eeb61198e565b6065546001600160a01b03908116911614610f185760405162461bcd60e51b815260040161059190615ad9565b6001600160a01b038116610f3e5760405162461bcd60e51b8152600401610591906158af565b60ce546001600160a01b0382811691161415610f6c5760405162461bcd60e51b815260040161059190615d28565b60ce546040516001600160a01b038084169216907f1440312dbc326ddc21bfa95078324bf5aaf6899e8a27cba3057c60adfc84e40b90600090a360ce80546001600160a01b0319166001600160a01b0392909216919091179055565b610fd061198e565b6065546001600160a01b03908116911614610ffd5760405162461bcd60e51b815260040161059190615ad9565b6001600160a01b0381166110235760405162461bcd60e51b8152600401610591906157e5565b60cf546001600160a01b03828116911614156110515760405162461bcd60e51b815260040161059190615d28565b60cf546040516001600160a01b038084169216907f44f3e9e7b454118e9fcb2e3026396f57ca21d7bd7dcabd31d7f986806422f4df90600090a360cf80546001600160a01b0319166001600160a01b0392909216919091179055565b60006110b7614dde565b60006110c38585610acf565b5060cc5460405163cd43fbfb60e01b815292945090925060009182916001600160a01b03169063cd43fbfb906110ff9087908790600401615e71565b604080518083038186803b15801561111657600080fd5b505afa15801561112a573d6000803e3d6000fd5b505050506040513d601f19601f8201168201806040525081019061114e9190615386565b91509150806111645760009450505050506108b3565b5095945050505050565b6001600160a01b0316600090815260d5602052604090205490565b6001600160a01b0316600090815260d0602052604090205490565b6111ac61198e565b6065546001600160a01b039081169116146111d95760405162461bcd60e51b815260040161059190615ad9565b60cf5460ff600160b01b909104161515811515141561120a5760405162461bcd60e51b815260040161059190615d28565b60cf805460ff60b01b1916600160b01b831515810291909117918290556040517f26d614575a4c104c181c87003d4bb00cc7ade00d5b47bf8775171c12a376b255926109659260ff910416906155f6565b60cf54600160a01b900460ff1681565b60cc546001600160a01b031681565b6001600160a01b0316600090815260d6602052604090205490565b61129d614dde565b6001600160a01b038316600090815260d1602090815260408083208584528252918290208251815460e09381028201840190945260c08101848152909391928492849184018282801561131957602002820191906000526020600020905b81546001600160a01b031681526001909101906020018083116112fb575b505050505081526020016001820180548060200260200160405190810160405280929190818152602001828054801561137b57602002820191906000526020600020905b81546001600160a01b0316815260019091019060200180831161135d575b50505050508152602001600282018054806020026020016040519081016040528092919081815260200182805480156113dd57602002820191906000526020600020905b81546001600160a01b031681526001909101906020018083116113bf575b505050505081526020016003820180548060200260200160405190810160405280929190818152602001828054801561143557602002820191906000526020600020905b815481526020019060010190808311611421575b505050505081526020016004820180548060200260200160405190810160405280929190818152602001828054801561148d57602002820191906000526020600020905b815481526020019060010190808311611479575b50505050508152602001600582018054806020026020016040519081016040528092919081815260200182805480156114e557602002820191906000526020600020905b8154815260200190600101908083116114d1575b505050505081525050905092915050565b60cd5460405163dd2c99f760e01b81526001600160a01b039091169063dd2c99f79061152a90859033908690600401615558565b600060405180830381600087803b15801561154457600080fd5b505af1158015611558573d6000803e3d6000fd5b50505050816001600160a01b0316336001600160a01b03167f4dfff917e1fbb261a082e98cc7d43029621f6a6eb05ff3fef1510d5f1eb4857c836040516107fb9190615edc565b60008060008060006115b086612200565b93509350935093506115c4848484846117f9565b9695505050505050565b60cf54600160a81b900460ff1681565b60975460ff166116005760405162461bcd60e51b815260040161059190615dd3565b6097805460ff19169055611612611e5a565b61161c828261213a565b6001600160a01b03909116600090815260d460209081526040808320938352929052204290556097805460ff19166001179055565b61165961198e565b6065546001600160a01b039081169116146116865760405162461bcd60e51b815260040161059190615ad9565b6001600160a01b0381166116ac5760405162461bcd60e51b81526004016105919061572f565b6065546040516001600160a01b038084169216907f8be0079c531659141344cd1fd0a4f28419497f9722a3daafe3b4186f6b6457e090600090a3606580546001600160a01b0319166001600160a01b0392909216919091179055565b6000806000611715614e14565b505050506001600160a01b03918216600090815260d76020908152604080832093835292815290829020825160608101845281549094168085526001909101546001600160801b03808216938601849052600160801b90910416939092018390529092909190565b6000816001600160a01b031663ade6e2aa6040518163ffffffff1660e01b815260040160206040518083038186803b1580156117b857600080fd5b505afa1580156117cc573d6000803e3d6000fd5b505050506040513d601f19601f820116820180604052508101906117f0919061536e565b42101592915050565b60cb54604051635fdc714960e01b81526000916001600160a01b031690635fdc71499061182c908890869060040161553f565b60206040518083038186803b15801561184457600080fd5b505afa158015611858573d6000803e3d6000fd5b505050506040513d601f19601f8201168201806040525081019061187c9190615304565b8015611905575060cb54604051635fdc714960e01b81526001600160a01b0390911690635fdc7149906118b5908790869060040161553f565b60206040518083038186803b1580156118cd57600080fd5b505afa1580156118e1573d6000803e3d6000fd5b505050506040513d601f19601f820116820180604052508101906119059190615304565b8015610535575060cb54604051635fdc714960e01b81526001600160a01b0390911690635fdc71499061193e908690869060040161553f565b60206040518083038186803b15801561195657600080fd5b505afa15801561196a573d6000803e3d6000fd5b505050506040513d601f19601f820116820180604052508101906105359190615304565b3390565b61199a614dde565b60008060006119a7614dde565b60006119b38888610acf565b5060cc546040516337ad5d4f60e01b8152929450909250600091829182916001600160a01b03909116906337ad5d4f906119f39088908890600401615e71565b60606040518083038186803b158015611a0b57600080fd5b505afa158015611a1f573d6000803e3d6000fd5b505050506040513d601f19601f82011682018060405250810190611a439190615320565b969d919c509a50949850939650505050505050565b303b1590565b600054610100900460ff1680611a775750611a77611a58565b80611a85575060005460ff16155b611aa15760405162461bcd60e51b815260040161059190615b2b565b600054610100900460ff16158015611acc576000805460ff1961ff0019909116610100171660011790555b611ad4612465565b611add826124e7565b8015611aef576000805461ff00191690555b5050565b600054610100900460ff1680611b0c5750611b0c611a58565b80611b1a575060005460ff16155b611b365760405162461bcd60e51b815260040161059190615b2b565b600054610100900460ff16158015611b61576000805460ff1961ff0019909116610100171660011790555b6097805460ff191660011790558015611b80576000805461ff00191690555b50565b60c960009054906101000a90046001600160a01b03166001600160a01b031663d01f63f56040518163ffffffff1660e01b815260040160206040518083038186803b158015611bd157600080fd5b505afa158015611be5573d6000803e3d6000fd5b505050506040513d601f19601f82011682018060405250810190611c099190615044565b60ca80546001600160a01b0319166001600160a01b0392831617905560c9546040805163419d8fe760e11b81529051919092169163833b1fce916004808301926020929190829003018186803b158015611c6257600080fd5b505afa158015611c76573d6000803e3d6000fd5b505050506040513d601f19601f82011682018060405250810190611c9a9190615044565b60cb80546001600160a01b0319166001600160a01b0392831617905560c9546040805163cf28493f60e01b81529051919092169163cf28493f916004808301926020929190829003018186803b158015611cf357600080fd5b505afa158015611d07573d6000803e3d6000fd5b505050506040513d601f19601f82011682018060405250810190611d2b9190615044565b60cc80546001600160a01b0319166001600160a01b0392831617905560c95460408051633aa431a160e11b8152905191909216916375486342916004808301926020929190829003018186803b158015611d8457600080fd5b505afa158015611d98573d6000803e3d6000fd5b505050506040513d601f19601f82011682018060405250810190611dbc9190615044565b60cd80546001600160a01b0319166001600160a01b0392909216919091179055565b600082611ded575060006108b3565b82820282848281611dfa57fe5b04146108b05760405162461bcd60e51b815260040161059190615a7b565b60006108b083836040518060400160405280601a81526020017f536166654d6174683a206469766973696f6e206279207a65726f0000000000008152506125b3565b60cf54600160a81b900460ff16156109ad5760405162461bcd60e51b815260040161059190615e42565b60008080808080805b875181101561212e57611e9e614e34565b888281518110611eaa57fe5b60209081029190910101518051909150600781600a811115611ec857fe5b14158015611ee25750600881600a811115611edf57fe5b14155b8015611efa5750600a81600a811115611ef757fe5b14155b8015611f125750600981600a811115611f0f57fe5b14155b15611f88578315611f755781602001516001600160a01b0316866001600160a01b031614611f525760405162461bcd60e51b815260040161059190615a08565b81608001518514611f755760405162461bcd60e51b81526004016105919061581f565b6001935081608001519450816020015195505b600081600a811115611f9657fe5b1415611fb257611fad611fa8836125ea565b6126c2565b612124565b600381600a811115611fc057fe5b1415611fd757611fad611fd2836127b1565b61288d565b600481600a811115611fe557fe5b1415611ffc57611fad611ff783612bde565b612c7d565b600581600a81111561200a57fe5b141561202157611fad61201c836127b1565b612ed1565b600681600a81111561202f57fe5b141561204657611fad61204183612bde565b61322f565b600181600a81111561205457fe5b141561206b57611fad61206683613533565b613591565b600281600a81111561207957fe5b141561209057611fad61208b83613879565b6138d7565b600881600a81111561209e57fe5b14156120b557611fad6120b083613b70565b613c02565b600781600a8111156120c357fe5b14156120da57611fad6120d583613e51565b613f19565b600a81600a8111156120e857fe5b14156120ff57611fad6120fa83614376565b614490565b600981600a81111561210d57fe5b14156121245761212461211f83614a5c565b614ae1565b5050600101611e8d565b50969195509350915050565b612142614dde565b600061214e8484610acf565b5060cc5460405163cd43fbfb60e01b81529294509092506000916001600160a01b039091169063cd43fbfb9061218a9086908690600401615e71565b604080518083038186803b1580156121a157600080fd5b505afa1580156121b5573d6000803e3d6000fd5b505050506040513d601f19601f820116820180604052508101906121d99190615386565b915050806121f95760405162461bcd60e51b815260040161059190615648565b5050505050565b6000806000806000859050806001600160a01b031663af0968fc6040518163ffffffff1660e01b815260040160c06040518083038186803b15801561224457600080fd5b505afa925050508015612274575060408051601f3d908101601f19168201909252612271918101906150e8565b60015b61244a57806001600160a01b031663aabaecd66040518163ffffffff1660e01b815260040160206040518083038186803b1580156122b157600080fd5b505afa1580156122c5573d6000803e3d6000fd5b505050506040513d601f19601f820116820180604052508101906122e99190615044565b816001600160a01b0316637158da7c6040518163ffffffff1660e01b815260040160206040518083038186803b15801561232257600080fd5b505afa158015612336573d6000803e3d6000fd5b505050506040513d601f19601f8201168201806040525081019061235a9190615044565b826001600160a01b03166317d69bc86040518163ffffffff1660e01b815260040160206040518083038186803b15801561239357600080fd5b505afa1580156123a7573d6000803e3d6000fd5b505050506040513d601f19601f820116820180604052508101906123cb9190615044565b836001600160a01b031663ade6e2aa6040518163ffffffff1660e01b815260040160206040518083038186803b15801561240457600080fd5b505afa158015612418573d6000803e3d6000fd5b505050506040513d601f19601f8201168201806040525081019061243c919061536e565b94509450945094505061245e565b50939850919650945090925061245e915050565b9193509193565b600054610100900460ff168061247e575061247e611a58565b8061248c575060005460ff16155b6124a85760405162461bcd60e51b815260040161059190615b2b565b600054610100900460ff161580156124d3576000805460ff1961ff0019909116610100171660011790555b8015611b80576000805461ff001916905550565b600054610100900460ff16806125005750612500611a58565b8061250e575060005460ff16155b61252a5760405162461bcd60e51b815260040161059190615b2b565b600054610100900460ff16158015612555576000805460ff1961ff0019909116610100171660011790555b606580546001600160a01b0319166001600160a01b0384169081179091556040516000907f8be0079c531659141344cd1fd0a4f28419497f9722a3daafe3b4186f6b6457e0908290a38015611aef576000805461ff00191690555050565b600081836125d45760405162461bcd60e51b81526004016105919190615619565b5060008385816125e057fe5b0495945050505050565b6125f2614e95565b60008251600a81111561260157fe5b1461261e5760405162461bcd60e51b815260040161059190615859565b60208201516001600160a01b03166126485760405162461bcd60e51b8152600401610591906158e8565b60008260e001515160201415612673578260e00151806020019051810190612670919061536e565b90505b600281106126935760405162461bcd60e51b8152600401610591906156f6565b604080516060810182526020808601516001600160a01b03168252608090950151948101949094528301525090565b6126ca614bd4565b805133906126d88282614bfe565b82516001600160a01b0316600090815260d0602052604081205461270390600163ffffffff614c5f16565b9050808460200151146127285760405162461bcd60e51b8152600401610591906159eb565b83516001600160a01b03908116600090815260d060209081526040808320859055808801805189518616855260d384528285208786529093529281902091909155905186519151909291909116907f5d66689e2c864b4f21efd3988c0ce5dc8a197981b68e81ce73660e92394fe25f906127a3908590615edc565b60405180910390a350505050565b6127b9614ebf565b60038251600a8111156127c857fe5b14806127e0575060058251600a8111156127de57fe5b145b6127fc5760405162461bcd60e51b815260040161059190615c27565b60208201516001600160a01b03166128265760405162461bcd60e51b815260040161059190615c43565b6040518060c0016040528083602001516001600160a01b031681526020018360800151815260200183604001516001600160a01b0316815260200183606001516001600160a01b031681526020018360c0015181526020018360a001518152509050919050565b612895614bd4565b805133906128a38282614bfe565b6128b583600001518460200151614c84565b6128d15760405162461bcd60e51b81526004016105919061595b565b60408301516001600160a01b0316331480612905575082600001516001600160a01b031683604001516001600160a01b0316145b6129215760405162461bcd60e51b815260040161059190615791565b60ca5460608401516040516302328d7360e31b81526001600160a01b03909216916311946b9891612954916004016154ff565b60206040518083038186803b15801561296c57600080fd5b505afa158015612980573d6000803e3d6000fd5b505050506040513d601f19601f820116820180604052508101906129a49190615304565b6129c05760405162461bcd60e51b815260040161059190615d99565b600083606001519050806001600160a01b031663ade6e2aa6040518163ffffffff1660e01b815260040160206040518083038186803b158015612a0257600080fd5b505afa158015612a16573d6000803e3d6000fd5b505050506040513d601f19601f82011682018060405250810190612a3a919061536e565b4210612a585760405162461bcd60e51b815260040161059190615904565b83516001600160a01b0316600090815260d16020908152604080832082880151845290915290819020606086015160a08701516080880151935163155bf27360e31b815273__$ad55824aba51b408931ce9574ea670b4d6$__9463aadf939894612acb9490939092909190600401615eb8565b60006040518083038186803b158015612ae357600080fd5b505af4158015612af7573d6000803e3d6000fd5b505060cd54606087015160408089015160a08a0151915163dd2c99f760e01b81526001600160a01b03909416955063dd2c99f79450612b3b93909190600401615558565b600060405180830381600087803b158015612b5557600080fd5b505af1158015612b69573d6000803e3d6000fd5b5050505083604001516001600160a01b031684600001516001600160a01b031685606001516001600160a01b03167f2607e210004cef0ad6b3e6aedb778bffb03c1586f8dcf55d49afffde210d8bb187602001518860a00151604051612bd0929190615ee5565b60405180910390a450505050565b612be6614ebf565b60048251600a811115612bf557fe5b1480612c0d575060068251600a811115612c0b57fe5b145b612c295760405162461bcd60e51b815260040161059190615b0e565b60208201516001600160a01b0316612c535760405162461bcd60e51b81526004016105919061569f565b60408201516001600160a01b03166128265760405162461bcd60e51b815260040161059190615b96565b612c85614bd4565b80513390612c938282614bfe565b612ca583600001518460200151614c84565b612cc15760405162461bcd60e51b81526004016105919061595b565b600083606001519050806001600160a01b031663ade6e2aa6040518163ffffffff1660e01b815260040160206040518083038186803b158015612d0357600080fd5b505afa158015612d17573d6000803e3d6000fd5b505050506040513d601f19601f82011682018060405250810190612d3b919061536e565b4210612d595760405162461bcd60e51b815260040161059190615cb5565b83516001600160a01b0316600090815260d16020908152604080832082880151845290915290819020606086015160a08701516080880151935163951dd8d360e01b815273__$ad55824aba51b408931ce9574ea670b4d6$__9463951dd8d394612dcc9490939092909190600401615eb8565b60006040518083038186803b158015612de457600080fd5b505af4158015612df8573d6000803e3d6000fd5b505060cd54606087015160408089015160a08a0151915163fa93b2a560e01b81526001600160a01b03909416955063fa93b2a59450612e3c93909190600401615558565b600060405180830381600087803b158015612e5657600080fd5b505af1158015612e6a573d6000803e3d6000fd5b5050505083604001516001600160a01b031684600001516001600160a01b031685606001516001600160a01b03167fbd023c53d293da163d185720d4274f4ddabc09d5304491a55abb296cc811d9fa87602001518860a00151604051612bd0929190615ee5565b612ed9614bd4565b80513390612ee78282614bfe565b612ef983600001518460200151614c84565b612f155760405162461bcd60e51b81526004016105919061595b565b60408301516001600160a01b0316331480612f49575082600001516001600160a01b031683604001516001600160a01b0316145b612f655760405162461bcd60e51b815260040161059190615665565b60ca54606084015160405163f9839d8960e01b81526001600160a01b039092169163f9839d8991612f98916004016154ff565b60206040518083038186803b158015612fb057600080fd5b505afa158015612fc4573d6000803e3d6000fd5b505050506040513d601f19601f82011682018060405250810190612fe89190615304565b6130045760405162461bcd60e51b81526004016105919061593e565b600061301884600001518560200151610acf565b5091505080600114156130b75760a084015160608501516001600160a01b0316600090815260d660205260409020546130569163ffffffff614c5f16565b6060850180516001600160a01b03908116600090815260d6602081815260408084209690965584518416835260d581528583205494519093168252909152919091205411156130b75760405162461bcd60e51b815260040161059190615abc565b83516001600160a01b0316600090815260d16020908152604080832082880151845290915290819020606086015160a0870151608088015193516301f974ab60e61b815273__$ad55824aba51b408931ce9574ea670b4d6$__94637e5d2ac09461312a9490939092909190600401615eb8565b60006040518083038186803b15801561314257600080fd5b505af4158015613156573d6000803e3d6000fd5b505060cd54606087015160408089015160a08a0151915163dd2c99f760e01b81526001600160a01b03909416955063dd2c99f7945061319a93909190600401615558565b600060405180830381600087803b1580156131b457600080fd5b505af11580156131c8573d6000803e3d6000fd5b5050505083604001516001600160a01b031684600001516001600160a01b031685606001516001600160a01b03167fbfab88b861f171b7db714f00e5966131253918d55ddba816c3eb94657d10239087602001518860a00151604051612bd0929190615ee5565b613237614bd4565b805133906132458282614bfe565b61325783600001518460200151614c84565b6132735760405162461bcd60e51b81526004016105919061595b565b61327b614dde565b600061328f85600001518660200151610acf565b50915091506132a18260000151614cb1565b1561335457600082600001516000815181106132b957fe5b60200260200101519050806001600160a01b031663ade6e2aa6040518163ffffffff1660e01b815260040160206040518083038186803b1580156132fc57600080fd5b505afa158015613310573d6000803e3d6000fd5b505050506040513d601f19601f82011682018060405250810190613334919061536e565b42106133525760405162461bcd60e51b815260040161059190615b79565b505b80600114156133ac5760a085015160608601516001600160a01b0316600090815260d6602052604090205461338e9163ffffffff614cef16565b60608601516001600160a01b0316600090815260d660205260409020555b84516001600160a01b0316600090815260d16020908152604080832082890151845290915290819020606087015160a088015160808901519351630380bfdd60e61b815273__$ad55824aba51b408931ce9574ea670b4d6$__9463e02ff7409461341f9490939092909190600401615eb8565b60006040518083038186803b15801561343757600080fd5b505af415801561344b573d6000803e3d6000fd5b505060cd5460608801516040808a015160a08b0151915163fa93b2a560e01b81526001600160a01b03909416955063fa93b2a5945061348f93909190600401615558565b600060405180830381600087803b1580156134a957600080fd5b505af11580156134bd573d6000803e3d6000fd5b5050505084604001516001600160a01b031685600001516001600160a01b031686606001516001600160a01b03167ffe86f7694b6c54a528acbe27be61dd4a85e9a89aeef7f650a1b439045ccee5a488602001518960a00151604051613524929190615ee5565b60405180910390a45050505050565b61353b614ebf565b60018251600a81111561354a57fe5b146135675760405162461bcd60e51b815260040161059190615d44565b60208201516001600160a01b03166128265760405162461bcd60e51b815260040161059190615d7d565b613599614bd4565b805133906135a78282614bfe565b6135b983600001518460200151614c84565b6135d55760405162461bcd60e51b81526004016105919061595b565b60ca5460608401516040516302328d7360e31b81526001600160a01b03909216916311946b9891613608916004016154ff565b60206040518083038186803b15801561362057600080fd5b505afa158015613634573d6000803e3d6000fd5b505050506040513d601f19601f820116820180604052508101906136589190615304565b6136745760405162461bcd60e51b815260040161059190615875565b600083606001519050806001600160a01b031663ade6e2aa6040518163ffffffff1660e01b815260040160206040518083038186803b1580156136b657600080fd5b505afa1580156136ca573d6000803e3d6000fd5b505050506040513d601f19601f820116820180604052508101906136ee919061536e565b421061370c5760405162461bcd60e51b815260040161059190615a5e565b83516001600160a01b0316600090815260d16020908152604080832082880151845290915290819020606086015160a08701516080880151935163ef682c1b60e01b815273__$ad55824aba51b408931ce9574ea670b4d6$__9463ef682c1b9461377f9490939092909190600401615eb8565b60006040518083038186803b15801561379757600080fd5b505af41580156137ab573d6000803e3d6000fd5b50505060408086015160a0870151915163051b0a4160e41b81526001600160a01b03851693506351b0a410926137e4929160040161553f565b600060405180830381600087803b1580156137fe57600080fd5b505af1158015613812573d6000803e3d6000fd5b5050505083604001516001600160a01b031684600001516001600160a01b031685606001516001600160a01b03167f4d7f96086c92b2f9a254ad21548b1c1f2d99502c7949508866349b96bb1a8d8a87602001518860a00151604051612bd0929190615ee5565b613881614ebf565b60028251600a81111561389057fe5b146138ad5760405162461bcd60e51b815260040161059190615c7c565b60208201516001600160a01b03166128265760405162461bcd60e51b8152600401610591906158cc565b6138df614bd4565b805133906138ed8282614bfe565b6138ff83600001518460200151614c84565b61391b5760405162461bcd60e51b81526004016105919061595b565b60408301516001600160a01b031633148061394f575082600001516001600160a01b031683604001516001600160a01b0316145b61396b5760405162461bcd60e51b815260040161059190615892565b600083606001519050806001600160a01b031663ade6e2aa6040518163ffffffff1660e01b815260040160206040518083038186803b1580156139ad57600080fd5b505afa1580156139c1573d6000803e3d6000fd5b505050506040513d601f19601f820116820180604052508101906139e5919061536e565b4210613a035760405162461bcd60e51b8152600401610591906156d9565b83516001600160a01b0316600090815260d16020908152604080832082880151845290915290819020606086015160a087015160808801519351637b5c283560e01b815273__$ad55824aba51b408931ce9574ea670b4d6$__94637b5c283594613a769490939092909190600401615eb8565b60006040518083038186803b158015613a8e57600080fd5b505af4158015613aa2573d6000803e3d6000fd5b50505060408086015160a087015191516356d878f760e01b81526001600160a01b03851693506356d878f792613adb929160040161553f565b600060405180830381600087803b158015613af557600080fd5b505af1158015613b09573d6000803e3d6000fd5b5050505083604001516001600160a01b031684600001516001600160a01b031685606001516001600160a01b03167fdd96b18f26fd9950581b9fd821fa907fc318845fc4d220b825a7b19bfdd174e887602001518860a00151604051612bd0929190615ee5565b613b78614e14565b60088251600a811115613b8757fe5b14613ba45760405162461bcd60e51b815260040161059190615d60565b60408201516001600160a01b0316613bce5760405162461bcd60e51b815260040161059190615978565b506040805160608082018352838301516001600160a01b0390811683529084015116602082015260a0909201519082015290565b602081015160ca546040516302328d7360e31b81526001600160a01b03909116906311946b9890613c379084906004016154ff565b60206040518083038186803b158015613c4f57600080fd5b505afa158015613c63573d6000803e3d6000fd5b505050506040513d601f19601f82011682018060405250810190613c879190615304565b613ca35760405162461bcd60e51b815260040161059190615db6565b600080600080613cb285612200565b935093509350935080421015613cda5760405162461bcd60e51b815260040161059190615c5f565b613ce6838386846117f9565b613d025760405162461bcd60e51b815260040161059190615bb3565b6000613d1687602001518860400151610807565b9050856001600160a01b03166356d878f73389604001516040518363ffffffff1660e01b8152600401613d4a92919061553f565b600060405180830381600087803b158015613d6457600080fd5b505af1158015613d78573d6000803e3d6000fd5b505060cd54895160405163fa93b2a560e01b81526001600160a01b03909216935063fa93b2a59250613db1918991908690600401615558565b600060405180830381600087803b158015613dcb57600080fd5b505af1158015613ddf573d6000803e3d6000fd5b5050505086600001516001600160a01b0316336001600160a01b031688602001516001600160a01b03167f18fd144d7dbcbaa6f00fd47a84adc7dc3cc64a326ffa2dc7691a25e3837dba03888b6040015186604051613e40939291906155a7565b60405180910390a450505050505050565b613e59614e14565b60078251600a811115613e6857fe5b14613e855760405162461bcd60e51b815260040161059190615c0a565b60208201516001600160a01b0316613eaf5760405162461bcd60e51b815260040161059190615712565b60408201516001600160a01b0316613ed95760405162461bcd60e51b815260040161059190615cd2565b604051806060016040528083602001516001600160a01b031681526020018360800151815260200183604001516001600160a01b03168152509050919050565b80513390613f278282614bfe565b613f3983600001518460200151614c84565b613f555760405162461bcd60e51b81526004016105919061595b565b613f5d614dde565b6000613f7185600001518660200151610acf565b5091509150600080613f868460000151614cb1565b90506000613f978560200151614cb1565b90508180613fa25750805b613fbe5760405162461bcd60e51b815260040161059190615bd0565b81613fe1578460200151600081518110613fd457fe5b6020026020010151613ff7565b84518051600090613fee57fe5b60200260200101515b925080156140ab576000856020015160008151811061401257fe5b60200260200101519050806001600160a01b03166356d878f760cd60009054906101000a90046001600160a01b0316886080015160008151811061405257fe5b60200260200101516040518363ffffffff1660e01b815260040161407792919061553f565b600060405180830381600087803b15801561409157600080fd5b505af11580156140a5573d6000803e3d6000fd5b50505050505b50506000806000806140bc85612200565b9350935093509350804210156140e45760405162461bcd60e51b815260040161059190615921565b6140f0838386846117f9565b61410c5760405162461bcd60e51b815260040161059190615bb3565b60cc5460405163cd43fbfb60e01b815260009182916001600160a01b039091169063cd43fbfb90614143908c908c90600401615e71565b604080518083038186803b15801561415a57600080fd5b505afa15801561416e573d6000803e3d6000fd5b505050506040513d601f19601f820116820180604052508101906141929190615386565b91509150806141b35760405162461bcd60e51b81526004016105919061583c565b60d160008d600001516001600160a01b03166001600160a01b0316815260200190815260200160002060008d602001518152602001908152602001600020600080820160006142029190614f10565b614210600183016000614f10565b61421e600283016000614f10565b61422c600383016000614f10565b61423a600483016000614f10565b614248600583016000614f10565b50508760011415614296576001600160a01b038616600090815260d6602052604090205461427c908363ffffffff614cef16565b6001600160a01b038716600090815260d660205260409020555b60cd546040808e0151905163fa93b2a560e01b81526001600160a01b039092169163fa93b2a5916142ce918a91908790600401615558565b600060405180830381600087803b1580156142e857600080fd5b505af11580156142fc573d6000803e3d6000fd5b5050505060008c60200151905060008d60400151905089896001600160a01b03168f600001516001600160a01b03167f522cda7dd0677ee4c9512efd8aa92af93de64b4c2fe2f8bfe7a9234a655a9bf584888760405161435e939291906155a7565b60405180910390a45050505050505050505050505050565b61437e614f2e565b600a8251600a81111561438d57fe5b146143aa5760405162461bcd60e51b815260040161059190615682565b60208201516001600160a01b03166143d45760405162461bcd60e51b815260040161059190615802565b60408201516001600160a01b03166143fe5760405162461bcd60e51b8152600401610591906156bc565b8160e00151516020146144235760405162461bcd60e51b815260040161059190615c98565b60008260e0015180602001905181019061443d919061536e565b90506040518060a0016040528084602001516001600160a01b0316815260200184604001516001600160a01b03168152602001846080015181526020018460a00151815260200182815250915050919050565b614498614bd4565b6144aa81600001518260400151614c84565b6144c65760405162461bcd60e51b81526004016105919061595b565b6144ce614dde565b60008060006144e585600001518660400151611992565b93509350935093508261450a5760405162461bcd60e51b815260040161059190615cef565b600061452b6305f5e1006108a4858960600151611dde90919063ffffffff16565b9050600061455e8760600151876060015160008151811061454857fe5b6020026020010151614cef90919063ffffffff16565b1115614598578161457a828760a0015160008151811061454857fe5b10156145985760405162461bcd60e51b8152600401610591906159ce565b845180516000906145a557fe5b60200260200101516001600160a01b03166356d878f73388606001516040518363ffffffff1660e01b81526004016145de92919061553f565b600060405180830381600087803b1580156145f857600080fd5b505af115801561460c573d6000803e3d6000fd5b505087516001600160a01b0316600090815260d760209081526040808320818c01518452909152812088518051919450919250829061464757fe5b60200260200101519050866000015160008151811061466257fe5b602090810291909101015182546001600160a01b03908116911614156146fe57606088015160018301546146a7916001600160801b039091169063ffffffff614c5f16565b6001830180546001600160801b0319166001600160801b0392831617908190556146da91600160801b9091041684614c5f565b6001830180546001600160801b03928316600160801b029216919091179055614766565b8651805160009061470b57fe5b602090810291909101015182546001600160a01b0319166001600160a01b0390911617825560608801516001830180546001600160801b0319166001600160801b03928316178216600160801b928616929092029190911790555b87516001600160a01b0316600090815260d160209081526040808320818c0151845290915280822090890151805173__$ad55824aba51b408931ce9574ea670b4d6$__9363e02ff7409392916147b857fe5b60200260200101518660006040518563ffffffff1660e01b81526004016147e29493929190615eb8565b60006040518083038186803b1580156147fa57600080fd5b505af415801561480e573d6000803e3d6000fd5b505089516001600160a01b0316600090815260d160209081526040808320818e0151845290915281208a51805173__$ad55824aba51b408931ce9574ea670b4d6$__9550637b5c283594509192909161486357fe5b60200260200101518b6060015160006040518563ffffffff1660e01b81526004016148919493929190615eb8565b60006040518083038186803b1580156148a957600080fd5b505af41580156148bd573d6000803e3d6000fd5b505050506149118360d660008a604001516000815181106148da57fe5b60200260200101516001600160a01b03166001600160a01b0316815260200190815260200160002054614cef90919063ffffffff16565b60d66000896040015160008151811061492657fe5b60200260200101516001600160a01b03166001600160a01b031681526020019081526020016000208190555060cd60009054906101000a90046001600160a01b03166001600160a01b031663fa93b2a5886040015160008151811061498757fe5b60200260200101518a60200151866040518463ffffffff1660e01b81526004016149b393929190615558565b600060405180830381600087803b1580156149cd57600080fd5b505af11580156149e1573d6000803e3d6000fd5b50505050806001600160a01b031688600001516001600160a01b0316336001600160a01b03167ff1cdf103e4464ebfbacc075b979fd5bc74d98a811f6933d668ecf23d4e6285118b6020015189888e606001518f60400151604051614a4a9594939291906155c8565b60405180910390a45050505050505050565b614a64614f6f565b60098251600a811115614a7357fe5b14614a905760405162461bcd60e51b815260040161059190615a25565b60408201516001600160a01b0316614aba5760405162461bcd60e51b815260040161059190615bed565b50604080518082018252908201516001600160a01b0316815260e090910151602082015290565b614ae9614bd4565b805160cf54600160b01b900460ff1615614b2257614b0681614d31565b614b225760405162461bcd60e51b815260040161059190615e26565b815160208301516040516309c23da560e41b81526001600160a01b0390921691639c23da5091614b5791339190600401615513565b600060405180830381600087803b158015614b7157600080fd5b505af1158015614b85573d6000803e3d6000fd5b5050505081600001516001600160a01b0316336001600160a01b03167f8750bdaf6e88201790ee2765fea3ac73b514a52658c818723a30de91029ad00084602001516040516107fb9190615619565b60cf54600160a01b900460ff16156109ad5760405162461bcd60e51b815260040161059190615d0c565b806001600160a01b0316826001600160a01b03161480614c4357506001600160a01b03808216600090815260d2602090815260408083209386168352929052205460ff165b611aef5760405162461bcd60e51b81526004016105919061562c565b6000828201838110156108b05760405162461bcd60e51b8152600401610591906157ae565b600080821180156108b05750506001600160a01b0391909116600090815260d06020526040902054101590565b60008082511180156108b3575060006001600160a01b031682600081518110614cd657fe5b60200260200101516001600160a01b0316141592915050565b60006108b083836040518060400160405280601e81526020017f536166654d6174683a207375627472616374696f6e206f766572666c6f770000815250614db2565b60ca546040516351572a2d60e11b81526000916001600160a01b03169063a2ae545a90614d629085906004016154ff565b60206040518083038186803b158015614d7a57600080fd5b505afa158015614d8e573d6000803e3d6000fd5b505050506040513d601f19601f820116820180604052508101906108b39190615304565b60008184841115614dd65760405162461bcd60e51b81526004016105919190615619565b505050900390565b6040518060c001604052806060815260200160608152602001606081526020016060815260200160608152602001606081525090565b604080516060810182526000808252602082018190529181019190915290565b604080516101008101909152806000815260200160006001600160a01b0316815260200160006001600160a01b0316815260200160006001600160a01b03168152602001600081526020016000815260200160008152602001606081525090565b604051806060016040528060006001600160a01b0316815260200160008152602001600081525090565b6040518060c0016040528060006001600160a01b031681526020016000815260200160006001600160a01b0316815260200160006001600160a01b0316815260200160008152602001600081525090565b5080546000825590600052602060002090810190611b809190614f87565b6040518060a0016040528060006001600160a01b0316815260200160006001600160a01b031681526020016000815260200160008152602001600081525090565b60408051808201909152600081526060602082015290565b610abd91905b80821115614fa15760008155600101614f8d565b5090565b80356108b381615f1a565b600082601f830112614fc0578081fd5b813567ffffffffffffffff811115614fd6578182fd5b614fe9601f8201601f1916602001615ef3565b915080825283602082850101111561500057600080fd5b8060208401602084013760009082016020015292915050565b8035600b81106108b357600080fd5b600060208284031215615039578081fd5b81356108b081615f1a565b600060208284031215615055578081fd5b81516108b081615f1a565b60008060408385031215615072578081fd5b823561507d81615f1a565b9150602083013561508d81615f1a565b809150509250929050565b600080600080608085870312156150ad578182fd5b84356150b881615f1a565b935060208501356150c881615f1a565b925060408501356150d881615f1a565b9396929550929360600135925050565b60008060008060008060c08789031215615100578182fd5b865161510b81615f1a565b602088015190965061511c81615f1a565b604088015190955061512d81615f1a565b80945050606087015192506080870151915060a087015161514d81615f2f565b809150509295509295509295565b6000806040838503121561516d578182fd5b823561517881615f1a565b9150602083013561508d81615f2f565b6000806040838503121561519a578182fd5b82356151a581615f1a565b946020939093013593505050565b600060208083850312156151c5578182fd5b823567ffffffffffffffff808211156151dc578384fd5b81850186601f8201126151ed578485fd5b80359250818311156151fd578485fd5b61520a8485850201615ef3565b83815284810190828601875b868110156152d9578135850161010080601f19838f03011215615237578a8bfd5b61524081615ef3565b61524c8e8c8501615019565b8152604061525c8f828601614fa5565b8c83015261526d8f60608601614fa5565b9082015261527e8e60808501614fa5565b606082015260a0830135608082015260c083013560a082015260e083013560c082015281830135898111156152b1578c8dfd5b6152bf8f8d83870101614fb0565b60e083015250865250509287019290870190600101615216565b50909998505050505050505050565b6000602082840312156152f9578081fd5b81356108b081615f2f565b600060208284031215615315578081fd5b81516108b081615f2f565b600080600060608486031215615334578283fd5b835161533f81615f2f565b602085015160409095015190969495509392505050565b600060208284031215615367578081fd5b5035919050565b60006020828403121561537f578081fd5b5051919050565b60008060408385031215615398578182fd5b82519150602083015161508d81615f2f565b6000815180845260208085019450808401835b838110156153e25781516001600160a01b0316875295820195908201906001016153bd565b509495945050505050565b6000815180845260208085019450808401835b838110156153e257815187529582019590820190600101615400565b60008151808452815b8181101561544157602081850181015186830182015201615425565b818111156154525782602083870101525b50601f01601f19169290920160200192915050565b6000815160c0845261547c60c08501826153aa565b60208401519150848103602086015261549581836153aa565b6040850151925085810360408701526154ae81846153aa565b9150506060840151915084810360608601526154ca81836153ed565b6080850151925085810360808701526154e381846153ed565b91505060a0840151915084810360a086015261053581836153ed565b6001600160a01b0391909116815260200190565b6001600160a01b03831681526040602082018190526000906155379083018461541c565b949350505050565b6001600160a01b03929092168252602082015260400190565b6001600160a01b039384168152919092166020820152604081019190915260600190565b6001600160a01b03948516815292841660208401529083166040830152909116606082015260800190565b6001600160a01b039390931683526020830191909152604082015260600190565b6001600160a01b03959095168552602085019390935260408401919091526060830152608082015260a00190565b901515815260200190565b92151583526020830191909152604082015260600190565b6000602082526108b0602083018461541c565b602080825260029082015261219b60f11b604082015260600190565b60208082526003908201526210cc4d60ea1b604082015260600190565b60208082526003908201526204332360ec1b604082015260600190565b60208082526003908201526208262760eb1b604082015260600190565b60208082526003908201526241313160e81b604082015260600190565b60208082526003908201526204132360ec1b604082015260600190565b60208082526003908201526221991b60e91b604082015260600190565b602080825260029082015261413360f01b604082015260600190565b60208082526003908201526220989b60e91b604082015260600190565b60208082526026908201527f4f776e61626c653a206e6577206f776e657220697320746865207a65726f206160408201526564647265737360d01b606082015260800190565b602080825260029082015261219960f11b604082015260600190565b60208082526003908201526221989b60e91b604082015260600190565b6020808252601b908201527f536166654d6174683a206164646974696f6e206f766572666c6f770000000000604082015260600190565b60208082526003908201526204331360ec1b604082015260600190565b60208082526003908201526241313960e81b604082015260600190565b60208082526003908201526243313360e81b604082015260600190565b60208082526003908201526221999960e91b604082015260600190565b602080825260029082015261413160f01b604082015260600190565b60208082526003908201526243323360e81b604082015260600190565b60208082526003908201526243323560e81b604082015260600190565b60208082526003908201526243313160e81b604082015260600190565b602080825260029082015261413760f01b604082015260600190565b602080825260029082015261209960f11b604082015260600190565b60208082526003908201526208662760eb1b604082015260600190565b60208082526003908201526243333160e81b604082015260600190565b60208082526003908201526243323160e81b604082015260600190565b60208082526003908201526243333560e81b604082015260600190565b602080825260039082015262104c4d60ea1b604082015260600190565b60208082526003908201526221999b60e91b604082015260600190565b602080825260029082015261433160f01b604082015260600190565b60208082526003908201526210cccd60ea1b604082015260600190565b60208082526003908201526243313560e81b604082015260600190565b60208082526003908201526221989960e91b604082015260600190565b60208082526003908201526220991960e91b604082015260600190565b602080825260029082015261433760f01b604082015260600190565b60208082526003908201526210cc8d60ea1b604082015260600190565b60208082526021908201527f536166654d6174683a206d756c7469706c69636174696f6e206f766572666c6f6040820152607760f81b606082015260800190565b60208082526003908201526243333760e81b604082015260600190565b6020808252818101527f4f776e61626c653a2063616c6c6572206973206e6f7420746865206f776e6572604082015260600190565b60208082526003908201526204131360ec1b604082015260600190565b6020808252602e908201527f436f6e747261637420696e7374616e63652068617320616c726561647920626560408201526d195b881a5b9a5d1a585b1a5e995960921b606082015260800190565b60208082526003908201526221991960e91b604082015260600190565b60208082526003908201526220989960e91b604082015260600190565b60208082526003908201526243323960e81b604082015260600190565b60208082526003908201526204333360ec1b604082015260600190565b60208082526003908201526241323360e81b604082015260600190565b60208082526003908201526241313560e81b604082015260600190565b602080825260029082015261082760f31b604082015260600190565b602080825260029082015261413960f01b604082015260600190565b60208082526003908201526208664760eb1b604082015260600190565b602080825260029082015261209b60f11b604082015260600190565b60208082526003908201526241323160e81b604082015260600190565b60208082526003908201526243313960e81b604082015260600190565b60208082526003908201526241313760e81b604082015260600190565b60208082526003908201526243333360e81b604082015260600190565b60208082526002908201526110cd60f21b604082015260600190565b602080825260029082015261433960f01b604082015260600190565b602080825260029082015261104d60f21b604082015260600190565b60208082526003908201526241313360e81b604082015260600190565b602080825260029082015261413560f01b604082015260600190565b60208082526003908201526243313760e81b604082015260600190565b60208082526003908201526243323760e81b604082015260600190565b6020808252601f908201527f5265656e7472616e637947756172643a207265656e7472616e742063616c6c00604082015260600190565b602080825260029082015261086760f31b604082015260600190565b602080825260029082015261433360f01b604082015260600190565b602080825260029082015261433560f01b604082015260600190565b6000602082526108b06020830184615467565b600060408252615e846040830185615467565b90508260208301529392505050565b600060608252615ea66060830186615467565b60208301949094525060400152919050565b9384526001600160a01b039290921660208401526040830152606082015260800190565b90815260200190565b918252602082015260400190565b60405181810167ffffffffffffffff81118282101715615f1257600080fd5b604052919050565b6001600160a01b0381168114611b8057600080fd5b8015158114611b8057600080fdfea2646970667358221220ef58db57a5a0ae2340d23786a905b1264d40e9b505e2e48b4bb2a6d44cf4da0b64736f6c634300060a0033",
  "linkReferences": {
    "contracts/packages/opyn/libs/MarginVault.sol": {
      "MarginVault": [
        {
          "length": 20,
          "start": 10943
        },
        {
          "length": 20,
          "start": 11712
        },
        {
          "length": 20,
          "start": 12574
        },
        {
          "length": 20,
          "start": 13331
        },
        {
          "length": 20,
          "start": 14195
        },
        {
          "length": 20,
          "start": 14954
        },
        {
          "length": 20,
          "start": 18359
        },
        {
          "length": 20,
          "start": 18526
        }
      ]
    }
  },
  "deployedLinkReferences": {
    "contracts/packages/opyn/libs/MarginVault.sol": {
      "MarginVault": [
        {
          "length": 20,
          "start": 10910
        },
        {
          "length": 20,
          "start": 11679
        },
        {
          "length": 20,
          "start": 12541
        },
        {
          "length": 20,
          "start": 13298
        },
        {
          "length": 20,
          "start": 14162
        },
        {
          "length": 20,
          "start": 14921
        },
        {
          "length": 20,
          "start": 18326
        },
        {
          "length": 20,
          "start": 18493
        }
      ]
    }
  }
}