{
  "_format": "hh-sol-artifact-1",
  "contractName": "AlphaPortfolioValuesFeed",
  "sourceName": "contracts/AlphaPortfolioValuesFeed.sol",
  "abi": [
    {
      "inputs": [
        {
          "internalType": "address",
          "name": "_authority",
          "type": "address"
        }
      ],
      "stateMutability": "nonpayable",
      "type": "constructor"
    },
    {
      "inputs": [],
      "name": "IncorrectSeriesToRemove",
      "type": "error"
    },
    {
      "inputs": [],
      "name": "NoShortPositions",
      "type": "error"
    },
    {
      "inputs": [],
      "name": "NoVaultForShortPositions",
      "type": "error"
    },
    {
      "inputs": [],
      "name": "NotKeeper",
      "type": "error"
    },
    {
      "inputs": [
        {
          "internalType": "uint256",
          "name": "index",
          "type": "uint256"
        },
        {
          "internalType": "address",
          "name": "seriesAddress",
          "type": "address"
        }
      ],
      "name": "OptionHasExpiredInStores",
      "type": "error"
    },
    {
      "inputs": [],
      "name": "SeriesNotExpired",
      "type": "error"
    },
    {
      "inputs": [],
      "name": "UNAUTHORIZED",
      "type": "error"
    },
    {
      "anonymous": false,
      "inputs": [
        {
          "indexed": false,
          "internalType": "contract IAuthority",
          "name": "authority",
          "type": "address"
        }
      ],
      "name": "AuthorityUpdated",
      "type": "event"
    },
    {
      "anonymous": false,
      "inputs": [
        {
          "indexed": true,
          "internalType": "address",
          "name": "underlying",
          "type": "address"
        },
        {
          "indexed": true,
          "internalType": "address",
          "name": "strike",
          "type": "address"
        },
        {
          "indexed": false,
          "internalType": "int256",
          "name": "delta",
          "type": "int256"
        },
        {
          "indexed": false,
          "internalType": "int256",
          "name": "gamma",
          "type": "int256"
        },
        {
          "indexed": false,
          "internalType": "int256",
          "name": "vega",
          "type": "int256"
        },
        {
          "indexed": false,
          "internalType": "int256",
          "name": "theta",
          "type": "int256"
        },
        {
          "indexed": false,
          "internalType": "int256",
          "name": "callPutsValue",
          "type": "int256"
        }
      ],
      "name": "DataFullfilled",
      "type": "event"
    },
    {
      "anonymous": false,
      "inputs": [
        {
          "indexed": false,
          "internalType": "address",
          "name": "_underlying",
          "type": "address"
        },
        {
          "indexed": false,
          "internalType": "address",
          "name": "_strike",
          "type": "address"
        }
      ],
      "name": "RequestedUpdate",
      "type": "event"
    },
    {
      "anonymous": false,
      "inputs": [
        {
          "indexed": false,
          "internalType": "address",
          "name": "seriesAddress",
          "type": "address"
        },
        {
          "indexed": false,
          "internalType": "int256",
          "name": "shortExposure",
          "type": "int256"
        },
        {
          "indexed": false,
          "internalType": "int256",
          "name": "longExposure",
          "type": "int256"
        },
        {
          "components": [
            {
              "internalType": "uint64",
              "name": "expiration",
              "type": "uint64"
            },
            {
              "internalType": "uint128",
              "name": "strike",
              "type": "uint128"
            },
            {
              "internalType": "bool",
              "name": "isPut",
              "type": "bool"
            },
            {
              "internalType": "address",
              "name": "underlying",
              "type": "address"
            },
            {
              "internalType": "address",
              "name": "strikeAsset",
              "type": "address"
            },
            {
              "internalType": "address",
              "name": "collateral",
              "type": "address"
            }
          ],
          "indexed": false,
          "internalType": "struct Types.OptionSeries",
          "name": "optionSeries",
          "type": "tuple"
        }
      ],
      "name": "StoresUpdated",
      "type": "event"
    },
    {
      "inputs": [
        {
          "internalType": "address",
          "name": "_series",
          "type": "address"
        }
      ],
      "name": "accountLiquidatedSeries",
      "outputs": [],
      "stateMutability": "nonpayable",
      "type": "function"
    },
    {
      "inputs": [
        {
          "internalType": "uint256",
          "name": "_i",
          "type": "uint256"
        }
      ],
      "name": "addressAtIndexInSet",
      "outputs": [
        {
          "internalType": "address",
          "name": "",
          "type": "address"
        }
      ],
      "stateMutability": "view",
      "type": "function"
    },
    {
      "inputs": [],
      "name": "addressSetLength",
      "outputs": [
        {
          "internalType": "uint256",
          "name": "",
          "type": "uint256"
        }
      ],
      "stateMutability": "view",
      "type": "function"
    },
    {
      "inputs": [],
      "name": "authority",
      "outputs": [
        {
          "internalType": "contract IAuthority",
          "name": "",
          "type": "address"
        }
      ],
      "stateMutability": "view",
      "type": "function"
    },
    {
      "inputs": [
        {
          "internalType": "address",
          "name": "_series",
          "type": "address"
        }
      ],
      "name": "cleanLooperManually",
      "outputs": [],
      "stateMutability": "nonpayable",
      "type": "function"
    },
    {
      "inputs": [
        {
          "internalType": "address",
          "name": "_underlying",
          "type": "address"
        },
        {
          "internalType": "address",
          "name": "_strikeAsset",
          "type": "address"
        }
      ],
      "name": "fulfill",
      "outputs": [],
      "stateMutability": "nonpayable",
      "type": "function"
    },
    {
      "inputs": [],
      "name": "getAddressSet",
      "outputs": [
        {
          "internalType": "address[]",
          "name": "",
          "type": "address[]"
        }
      ],
      "stateMutability": "view",
      "type": "function"
    },
    {
      "inputs": [
        {
          "internalType": "address",
          "name": "underlying",
          "type": "address"
        },
        {
          "internalType": "address",
          "name": "strike",
          "type": "address"
        }
      ],
      "name": "getPortfolioValues",
      "outputs": [
        {
          "components": [
            {
              "internalType": "int256",
              "name": "delta",
              "type": "int256"
            },
            {
              "internalType": "int256",
              "name": "gamma",
              "type": "int256"
            },
            {
              "internalType": "int256",
              "name": "vega",
              "type": "int256"
            },
            {
              "internalType": "int256",
              "name": "theta",
              "type": "int256"
            },
            {
              "internalType": "int256",
              "name": "callPutsValue",
              "type": "int256"
            },
            {
              "internalType": "uint256",
              "name": "timestamp",
              "type": "uint256"
            },
            {
              "internalType": "uint256",
              "name": "spotPrice",
              "type": "uint256"
            }
          ],
          "internalType": "struct Types.PortfolioValues",
          "name": "",
          "type": "tuple"
        }
      ],
      "stateMutability": "view",
      "type": "function"
    },
    {
      "inputs": [
        {
          "internalType": "address",
          "name": "",
          "type": "address"
        }
      ],
      "name": "handler",
      "outputs": [
        {
          "internalType": "bool",
          "name": "",
          "type": "bool"
        }
      ],
      "stateMutability": "view",
      "type": "function"
    },
    {
      "inputs": [
        {
          "internalType": "address",
          "name": "_a",
          "type": "address"
        }
      ],
      "name": "isAddressInSet",
      "outputs": [
        {
          "internalType": "bool",
          "name": "",
          "type": "bool"
        }
      ],
      "stateMutability": "view",
      "type": "function"
    },
    {
      "inputs": [
        {
          "internalType": "address",
          "name": "",
          "type": "address"
        }
      ],
      "name": "keeper",
      "outputs": [
        {
          "internalType": "bool",
          "name": "",
          "type": "bool"
        }
      ],
      "stateMutability": "view",
      "type": "function"
    },
    {
      "inputs": [],
      "name": "liquidityPool",
      "outputs": [
        {
          "internalType": "contract ILiquidityPool",
          "name": "",
          "type": "address"
        }
      ],
      "stateMutability": "view",
      "type": "function"
    },
    {
      "inputs": [
        {
          "internalType": "contract IPortfolioValuesFeed",
          "name": "_migrateContract",
          "type": "address"
        }
      ],
      "name": "migrate",
      "outputs": [],
      "stateMutability": "nonpayable",
      "type": "function"
    },
    {
      "inputs": [],
      "name": "protocol",
      "outputs": [
        {
          "internalType": "contract Protocol",
          "name": "",
          "type": "address"
        }
      ],
      "stateMutability": "view",
      "type": "function"
    },
    {
      "inputs": [
        {
          "internalType": "address",
          "name": "_underlying",
          "type": "address"
        },
        {
          "internalType": "address",
          "name": "_strike",
          "type": "address"
        }
      ],
      "name": "requestPortfolioData",
      "outputs": [
        {
          "internalType": "bytes32",
          "name": "id",
          "type": "bytes32"
        }
      ],
      "stateMutability": "nonpayable",
      "type": "function"
    },
    {
      "inputs": [],
      "name": "rfr",
      "outputs": [
        {
          "internalType": "uint256",
          "name": "",
          "type": "uint256"
        }
      ],
      "stateMutability": "view",
      "type": "function"
    },
    {
      "inputs": [
        {
          "internalType": "contract IAuthority",
          "name": "_newAuthority",
          "type": "address"
        }
      ],
      "name": "setAuthority",
      "outputs": [],
      "stateMutability": "nonpayable",
      "type": "function"
    },
    {
      "inputs": [
        {
          "internalType": "address",
          "name": "_handler",
          "type": "address"
        },
        {
          "internalType": "bool",
          "name": "_auth",
          "type": "bool"
        }
      ],
      "name": "setHandler",
      "outputs": [],
      "stateMutability": "nonpayable",
      "type": "function"
    },
    {
      "inputs": [
        {
          "internalType": "address",
          "name": "_keeper",
          "type": "address"
        },
        {
          "internalType": "bool",
          "name": "_auth",
          "type": "bool"
        }
      ],
      "name": "setKeeper",
      "outputs": [],
      "stateMutability": "nonpayable",
      "type": "function"
    },
    {
      "inputs": [
        {
          "internalType": "address",
          "name": "_liquidityPool",
          "type": "address"
        }
      ],
      "name": "setLiquidityPool",
      "outputs": [],
      "stateMutability": "nonpayable",
      "type": "function"
    },
    {
      "inputs": [
        {
          "internalType": "address",
          "name": "_protocol",
          "type": "address"
        }
      ],
      "name": "setProtocol",
      "outputs": [],
      "stateMutability": "nonpayable",
      "type": "function"
    },
    {
      "inputs": [
        {
          "internalType": "uint256",
          "name": "_rfr",
          "type": "uint256"
        }
      ],
      "name": "setRFR",
      "outputs": [],
      "stateMutability": "nonpayable",
      "type": "function"
    },
    {
      "inputs": [
        {
          "internalType": "address",
          "name": "",
          "type": "address"
        }
      ],
      "name": "storesForAddress",
      "outputs": [
        {
          "components": [
            {
              "internalType": "uint64",
              "name": "expiration",
              "type": "uint64"
            },
            {
              "internalType": "uint128",
              "name": "strike",
              "type": "uint128"
            },
            {
              "internalType": "bool",
              "name": "isPut",
              "type": "bool"
            },
            {
              "internalType": "address",
              "name": "underlying",
              "type": "address"
            },
            {
              "internalType": "address",
              "name": "strikeAsset",
              "type": "address"
            },
            {
              "internalType": "address",
              "name": "collateral",
              "type": "address"
            }
          ],
          "internalType": "struct Types.OptionSeries",
          "name": "optionSeries",
          "type": "tuple"
        },
        {
          "internalType": "int256",
          "name": "shortExposure",
          "type": "int256"
        },
        {
          "internalType": "int256",
          "name": "longExposure",
          "type": "int256"
        }
      ],
      "stateMutability": "view",
      "type": "function"
    },
    {
      "inputs": [],
      "name": "syncLooper",
      "outputs": [],
      "stateMutability": "nonpayable",
      "type": "function"
    },
    {
      "inputs": [
        {
          "components": [
            {
              "internalType": "uint64",
              "name": "expiration",
              "type": "uint64"
            },
            {
              "internalType": "uint128",
              "name": "strike",
              "type": "uint128"
            },
            {
              "internalType": "bool",
              "name": "isPut",
              "type": "bool"
            },
            {
              "internalType": "address",
              "name": "underlying",
              "type": "address"
            },
            {
              "internalType": "address",
              "name": "strikeAsset",
              "type": "address"
            },
            {
              "internalType": "address",
              "name": "collateral",
              "type": "address"
            }
          ],
          "internalType": "struct Types.OptionSeries",
          "name": "_optionSeries",
          "type": "tuple"
        },
        {
          "internalType": "int256",
          "name": "shortExposure",
          "type": "int256"
        },
        {
          "internalType": "int256",
          "name": "longExposure",
          "type": "int256"
        },
        {
          "internalType": "address",
          "name": "_seriesAddress",
          "type": "address"
        }
      ],
      "name": "updateStores",
      "outputs": [],
      "stateMutability": "nonpayable",
      "type": "function"
    }
  ],
  "bytecode": "0x6080604052666a94d74f43000060095534801561001b57600080fd5b50604051620023aa380380620023aa83398101604081905261003c91610096565b600080546001600160a01b0319166001600160a01b03831690811790915560405190815281907f2f658b440c35314f52658ea8a740e05b284cdc84dc9ae01e891f21b8933e7cad9060200160405180910390a150506100c6565b6000602082840312156100a857600080fd5b81516001600160a01b03811681146100bf57600080fd5b9392505050565b6122d480620000d66000396000f3fe608060405234801561001057600080fd5b50600436106101735760003560e01c8063a31697ac116100de578063ce5494bb11610097578063dfef605e11610071578063dfef605e14610420578063e138e2e314610443578063e8cf86081461044b578063f02de0e91461046e57600080fd5b8063ce5494bb146103e7578063d1b9e853146103fa578063dce66fb81461040d57600080fd5b8063a31697ac146102d5578063a44b6edc146102dd578063bf7e214f146102f0578063c238f68d14610303578063c646240c146103af578063ce0914e6146103d257600080fd5b80634e133d4d116101305780634e133d4d146101f55780635053a9621461025e578063665a11ca146102715780637a9e5e4b1461029c5780638ce74426146102af5780639cb7de4b146102c257600080fd5b8063018770201461017857806305c253901461018d5780630a9d793d146101b357806313165894146101c65780632ab6bfaf146101d95780633e4a5c83146101e2575b600080fd5b61018b610186366004611a47565b610481565b005b6101a061019b366004611a64565b6104ab565b6040519081526020015b60405180910390f35b61018b6101c1366004611a47565b6104f7565b61018b6101d4366004611a47565b610521565b6101a060095481565b61018b6101f0366004611a64565b6107fe565b610208610203366004611a64565b610cc9565b6040516101aa9190600060e082019050825182526020830151602083015260408301516040830152606083015160608301526080830151608083015260a083015160a083015260c083015160c083015292915050565b61018b61026c366004611a47565b610d84565b600654610284906001600160a01b031681565b6040516001600160a01b0390911681526020016101aa565b61018b6102aa366004611a47565b610e04565b600554610284906001600160a01b031681565b61018b6102d0366004611aad565b610e60565b6101a0610e93565b61018b6102eb366004611ae2565b610ea4565b600054610284906001600160a01b031681565b6103a0610311366004611a47565b600160208181526000928352604092839020835160c08101855281546001600160401b0381168252600160401b81046001600160801b031693820193909352600160c01b90920460ff16151593820193909352908201546001600160a01b03908116606083015260028301548116608083015260038301541660a0820152600482015460059092015490919083565b6040516101aa93929190611b57565b6103c26103bd366004611a47565b610eb1565b60405190151581526020016101aa565b6103da610ebe565b6040516101aa9190611b77565b61018b6103f5366004611a47565b610eca565b61018b610408366004611aad565b61100d565b61018b61041b366004611c32565b611040565b6103c261042e366004611a47565b60076020526000908152604090205460ff1681565b61018b6111f0565b6103c2610459366004611a47565b60086020526000908152604090205460ff1681565b61028461047c366004611ae2565b6112fb565b610489611308565b600680546001600160a01b0319166001600160a01b0392909216919091179055565b604080516001600160a01b038085168252831660208201526000917f6ec35af0b709b54559046cce99f4f62031cc990ecbae37d60658503383a130f5910160405180910390a192915050565b6104ff611308565b600580546001600160a01b0319166001600160a01b0392909216919091179055565b6105296113bf565b610534600282611533565b61055157604051634d87802160e01b815260040160405180910390fd5b6001600160a01b0381811660009081526001602081815260409283902083516101208101855281546001600160401b03811660608301908152600160401b82046001600160801b03166080840152600160c01b90910460ff16151560a083015293820154861660c08201526002820154861660e0820152600382015490951661010086015291845260048201549084018190526005909101549183019190915261060e57604051636fc2555d60e11b815260040160405180910390fd5b6000610618611558565b60405163106126bf60e21b81526001600160a01b0385811660048301529192506000918316906341849afc9060240160206040518083038186803b15801561065f57600080fd5b505afa158015610673573d6000803e3d6000fd5b505050506040513d601f19601f820116820180604052508101906106979190611d05565b9050806106b75760405163168536ad60e31b815260040160405180910390fd5b60006107d8836001600160a01b0316636abf4c5e6040518163ffffffff1660e01b815260040160206040518083038186803b1580156106f557600080fd5b505afa158015610709573d6000803e3d6000fd5b505050506040513d601f19601f8201168201806040525081019061072d9190611d1e565b60405163d99d13f560e01b81526001600160a01b03868116600483015260248201869052919091169063d99d13f59060440160006040518083038186803b15801561077757600080fd5b505afa15801561078b573d6000803e3d6000fd5b505050506040513d6000823e601f3d908101601f191682016040526107b39190810190611e2d565b606001516000815181106107c9576107c9611f4d565b602002602001015160086115d5565b6001600160a01b0390951660009081526001602052604090206004019490945550505050565b600080600061080d6002611611565b9050600061081b868661161b565b9050600061082761171b565b905060005b83811015610b2d576000600181610844600285611760565b6001600160a01b039081168252602080830193909352604091820160002082516101208101845281546001600160401b03811660608301818152600160401b83046001600160801b03166080850152600160c01b90920460ff16151560a08401526001840154851660c08401526002840154851660e084015260038401549094166101008301528152600482015494810194909452600501549183019190915290915042111561092957816108fa600282611760565b604051633682accf60e11b815260048101929092526001600160a01b0316602482015260440160405180910390fd5b80516040808201516020830151925191516367a35e4760e01b81529015156004820152602481018790526001600160801b0390921660448301526001600160401b031660648201526000906001600160a01b038516906367a35e479060840160206040518083038186803b1580156109a057600080fd5b505afa1580156109b4573d6000803e3d6000fd5b505050506040513d601f19601f820116820180604052508101906109d89190611d05565b825160208101518151600954604093840151935163d98ac76960e01b8152600481018b90526001600160801b0390931660248401526001600160401b03909116604483015260648201849052608482015290151560a4820152909150600090819073__$eb86d565a3113b3c398b1080d0d395c3b4$__9063d98ac7699060c401604080518083038186803b158015610a6f57600080fd5b505af4158015610a83573d6000803e3d6000fd5b505050506040513d601f19601f82011682018060405250810190610aa79190611f63565b91509150600084604001518560200151610ac19190611f9d565b9050670de0b6b3a7640000610ad68284611fdc565b610ae09190612061565b610aea908c611f9d565b9a50670de0b6b3a7640000610aff8285611fdc565b610b099190612061565b610b13908b61209d565b995050505050508080610b25906120de565b91505061082c565b5060006040518060e0016040528087815260200160008152602001600081526020016000815260200186815260200142815260200184815250905080600460008a6001600160a01b03166001600160a01b031681526020019081526020016000206000896001600160a01b03166001600160a01b03168152602001908152602001600020600082015181600001556020820151816001015560408201518160020155606082015181600301556080820151816004015560a0820151816005015560c08201518160060155905050600660009054906101000a90046001600160a01b03166001600160a01b0316634da2df786040518163ffffffff1660e01b8152600401600060405180830381600087803b158015610c4a57600080fd5b505af1158015610c5e573d6000803e3d6000fd5b50506040805189815260006020820181905281830181905260608201526080810189905290516001600160a01b038b811694508c1692507fec5da05d5d82ced9f6369cfcc2f9d0cad94c0256c7ac3a81d6681bd57b2c33749181900360a00190a35050505050505050565b610d096040518060e00160405280600081526020016000815260200160008152602001600081526020016000815260200160008152602001600081525090565b506001600160a01b038083166000908152600460208181526040808420948616845293815291839020835160e08101855281548152600182015493810193909352600281015493830193909352600383015460608301528201546080820152600582015460a082015260069091015460c08201525b92915050565b610d8c6113bf565b610d97600282611533565b610db457604051634d87802160e01b815260040160405180910390fd5b6001600160a01b038116600090815260016020526040902054426001600160401b039091161115610df85760405163bbb2af5960e01b815260040160405180910390fd5b610e018161176c565b50565b610e0c611308565b600080546001600160a01b0319166001600160a01b0383169081179091556040519081527f2f658b440c35314f52658ea8a740e05b284cdc84dc9ae01e891f21b8933e7cad9060200160405180910390a150565b610e68611308565b6001600160a01b03919091166000908152600760205260409020805460ff1916911515919091179055565b6000610e9f6002611611565b905090565b610eac611308565b600955565b6000610d7e600283611533565b6060610e9f60026117d5565b610ed2611308565b6000610ede6002611611565b905060005b81811015611008576000610ef8600283611760565b6001600160a01b0381811660009081526001602081815260409283902083516101208101855281546001600160401b03811660608301908152600160401b82046001600160801b03166080840152600160c01b90910460ff16151560a083015293820154861660c08201526002820154861660e0820152600382015486166101008201528381526004808301549382018490526005909201548186018190529451631b9ccdf760e31b815296975095948a169463dce66fb894610fc194939290918991016120f9565b600060405180830381600087803b158015610fdb57600080fd5b505af1158015610fef573d6000803e3d6000fd5b5050505050508080611000906120de565b915050610ee3565b505050565b611015611308565b6001600160a01b03919091166000908152600860205260409020805460ff1916911515919091179055565b6110486117e2565b611053600282611533565b61114c576110626002826117fe565b50604080516060808201835286825260208083018781528385018781526001600160a01b03808816600090815260018086529088902096518051885496820151998201511515600160c01b0260ff60c01b196001600160801b03909b16600160401b026001600160c01b03199098166001600160401b039092169190911796909617989098169490941786559386015192850180549385166001600160a01b0319948516179055608086015160028601805491861691851691909117905560a0909501516003850180549190941692169190911790915551600482015590516005909101556111ad565b6001600160a01b0381166000908152600160205260408120600401805485929061117790849061209d565b90915550506001600160a01b038116600090815260016020526040812060050180548492906111a790849061209d565b90915550505b7fa38c7fb25587f28150ab4e312ae71a3bbd5b9c69895d652c056c03c341c38ad8818484876040516111e2949392919061212d565b60405180910390a150505050565b6111f86113bf565b60006112046002611611565b905060005b8181101561129c574260016000611221600285611760565b6001600160a01b031681526020810191909152604001600020546001600160401b0316101561128a57600a611257600283611760565b81546001810183556000928352602090922090910180546001600160a01b0319166001600160a01b039092169190911790555b80611294816120de565b915050611209565b5050600a5460005b818110156112ee576112dc600a82815481106112c2576112c2611f4d565b6000918252602090912001546001600160a01b031661176c565b806112e6816120de565b9150506112a4565b50610e01600a60006119f0565b6000610d7e600283611760565b60008054906101000a90046001600160a01b03166001600160a01b0316630c340a246040518163ffffffff1660e01b815260040160206040518083038186803b15801561135457600080fd5b505afa158015611368573d6000803e3d6000fd5b505050506040513d601f19601f8201168201806040525081019061138c9190611d1e565b6001600160a01b0316336001600160a01b0316146113bd5760405163075fd2b160e01b815260040160405180910390fd5b565b3360009081526008602052604090205460ff16158015611474575060008054906101000a90046001600160a01b03166001600160a01b0316630c340a246040518163ffffffff1660e01b815260040160206040518083038186803b15801561142657600080fd5b505afa15801561143a573d6000803e3d6000fd5b505050506040513d601f19601f8201168201806040525081019061145e9190611d1e565b6001600160a01b0316336001600160a01b031614155b8015611515575060008054906101000a90046001600160a01b03166001600160a01b031663481c6a756040518163ffffffff1660e01b815260040160206040518083038186803b1580156114c757600080fd5b505afa1580156114db573d6000803e3d6000fd5b505050506040513d601f19601f820116820180604052508101906114ff9190611d1e565b6001600160a01b0316336001600160a01b031614155b156113bd57604051631ea2564f60e31b815260040160405180910390fd5b6001600160a01b038116600090815260018301602052604081205415155b9392505050565b600554604080516303b4567b60e41b815290516000926001600160a01b031691633b4567b0916004808301926020929190829003018186803b15801561159d57600080fd5b505afa1580156115b1573d6000803e3d6000fd5b505050506040513d601f19601f82011682018060405250810190610e9f9190611d1e565b600060128211156115e557600080fd5b60006115f2836012612162565b90506115ff81600a61225d565b6116099085612269565b949350505050565b6000610d7e825490565b60055460408051633a0df78d60e11b815290516000926001600160a01b03169163741bef1a916004808301926020929190829003018186803b15801561166057600080fd5b505afa158015611674573d6000803e3d6000fd5b505050506040513d601f19601f820116820180604052508101906116989190611d1e565b60405163051ce29b60e21b81526001600160a01b038581166004830152848116602483015291909116906314738a6c9060440160206040518083038186803b1580156116e357600080fd5b505afa1580156116f7573d6000803e3d6000fd5b505050506040513d601f19601f820116820180604052508101906115519190611d05565b6005546040805163128e414b60e01b815290516000926001600160a01b03169163128e414b916004808301926020929190829003018186803b15801561159d57600080fd5b60006115518383611813565b61177760028261183d565b506001600160a01b03166000908152600160208190526040822080546001600160c81b031916815590810180546001600160a01b03199081169091556002820180548216905560038201805490911690556004810182905560050155565b6060600061155183611852565b3360009081526007602052604090205460ff166113bd57600080fd5b6000611551836001600160a01b0384166118ae565b600082600001828154811061182a5761182a611f4d565b9060005260206000200154905092915050565b6000611551836001600160a01b0384166118fd565b6060816000018054806020026020016040519081016040528092919081815260200182805480156118a257602002820191906000526020600020905b81548152602001906001019080831161188e575b50505050509050919050565b60008181526001830160205260408120546118f557508154600181810184556000848152602080822090930184905584548482528286019093526040902091909155610d7e565b506000610d7e565b600081815260018301602052604081205480156119e6576000611921600183612162565b855490915060009061193590600190612162565b905081811461199a57600086600001828154811061195557611955611f4d565b906000526020600020015490508087600001848154811061197857611978611f4d565b6000918252602080832090910192909255918252600188019052604090208390555b85548690806119ab576119ab612288565b600190038181906000526020600020016000905590558560010160008681526020019081526020016000206000905560019350505050610d7e565b6000915050610d7e565b5080546000825590600052602060002090810190610e0191905b80821115611a1e5760008155600101611a0a565b5090565b6001600160a01b0381168114610e0157600080fd5b8035611a4281611a22565b919050565b600060208284031215611a5957600080fd5b813561155181611a22565b60008060408385031215611a7757600080fd5b8235611a8281611a22565b91506020830135611a9281611a22565b809150509250929050565b80358015158114611a4257600080fd5b60008060408385031215611ac057600080fd5b8235611acb81611a22565b9150611ad960208401611a9d565b90509250929050565b600060208284031215611af457600080fd5b5035919050565b80516001600160401b031682526020808201516001600160801b0316908301526040808201511515908301526060808201516001600160a01b039081169184019190915260808083015182169084015260a09182015116910152565b6101008101611b668286611afb565b60c082019390935260e00152919050565b6020808252825182820181905260009190848201906040850190845b81811015611bb85783516001600160a01b031683529284019291840191600101611b93565b50909695505050505050565b634e487b7160e01b600052604160045260246000fd5b60405160c081016001600160401b0381118282101715611bfc57611bfc611bc4565b60405290565b604051601f8201601f191681016001600160401b0381118282101715611c2a57611c2a611bc4565b604052919050565b600080600080848603610120811215611c4a57600080fd5b60c0811215611c5857600080fd5b50611c61611bda565b85356001600160401b0381168114611c7857600080fd5b815260208601356001600160801b0381168114611c9457600080fd5b6020820152611ca560408701611a9d565b6040820152611cb660608701611a37565b6060820152611cc760808701611a37565b6080820152611cd860a08701611a37565b60a0820152935060c0850135925060e08501359150611cfa6101008601611a37565b905092959194509250565b600060208284031215611d1757600080fd5b5051919050565b600060208284031215611d3057600080fd5b815161155181611a22565b60006001600160401b03821115611d5457611d54611bc4565b5060051b60200190565b600082601f830112611d6f57600080fd5b81516020611d84611d7f83611d3b565b611c02565b82815260059290921b84018101918181019086841115611da357600080fd5b8286015b84811015611dc7578051611dba81611a22565b8352918301918301611da7565b509695505050505050565b600082601f830112611de357600080fd5b81516020611df3611d7f83611d3b565b82815260059290921b84018101918181019086841115611e1257600080fd5b8286015b84811015611dc75780518352918301918301611e16565b600060208284031215611e3f57600080fd5b81516001600160401b0380821115611e5657600080fd5b9083019060c08286031215611e6a57600080fd5b611e72611bda565b825182811115611e8157600080fd5b611e8d87828601611d5e565b825250602083015182811115611ea257600080fd5b611eae87828601611d5e565b602083015250604083015182811115611ec657600080fd5b611ed287828601611d5e565b604083015250606083015182811115611eea57600080fd5b611ef687828601611dd2565b606083015250608083015182811115611f0e57600080fd5b611f1a87828601611dd2565b60808301525060a083015182811115611f3257600080fd5b611f3e87828601611dd2565b60a08301525095945050505050565b634e487b7160e01b600052603260045260246000fd5b60008060408385031215611f7657600080fd5b505080516020909101519092909150565b634e487b7160e01b600052601160045260246000fd5b60008083128015600160ff1b850184121615611fbb57611fbb611f87565b6001600160ff1b0384018313811615611fd657611fd6611f87565b50500390565b60006001600160ff1b038184138284138082168684048611161561200257612002611f87565b600160ff1b600087128281168783058912161561202157612021611f87565b6000871292508782058712848416161561203d5761203d611f87565b8785058712818416161561205357612053611f87565b505050929093029392505050565b60008261207e57634e487b7160e01b600052601260045260246000fd5b600160ff1b82146000198414161561209857612098611f87565b500590565b600080821280156001600160ff1b03849003851316156120bf576120bf611f87565b600160ff1b83900384128116156120d8576120d8611f87565b50500190565b60006000198214156120f2576120f2611f87565b5060010190565b61012081016121088287611afb565b60c082019490945260e08101929092526001600160a01b031661010090910152919050565b6001600160a01b0385168152602081018490526040810183905261012081016121596060830184611afb565b95945050505050565b60008282101561217457612174611f87565b500390565b600181815b808511156121b457816000190482111561219a5761219a611f87565b808516156121a757918102915b93841c939080029061217e565b509250929050565b6000826121cb57506001610d7e565b816121d857506000610d7e565b81600181146121ee57600281146121f857612214565b6001915050610d7e565b60ff84111561220957612209611f87565b50506001821b610d7e565b5060208310610133831016604e8410600b8410161715612237575081810a610d7e565b6122418383612179565b806000190482111561225557612255611f87565b029392505050565b600061155183836121bc565b600081600019048311821515161561228357612283611f87565b500290565b634e487b7160e01b600052603160045260246000fdfea2646970667358221220aa928363f01584ce0923314ae70ae97fcff1af354ad9eb7fd248e78a4984d92264736f6c63430008090033",
  "linkReferences": {
    "contracts/libraries/BlackScholes.sol": {
      "BlackScholes": [
        {
          "length": 20,
          "start": 2833
        }
      ]
    }
  },
  "deployedLinkReferences": {
    "contracts/libraries/BlackScholes.sol": {
      "BlackScholes": [
        {
          "length": 20,
          "start": 2619
        }
      ]
    }
  }
}