{
  "_format": "hh-sol-artifact-1",
  "contractName": "AlphaOptionHandler",
  "sourceName": "contracts/AlphaOptionHandler.sol",
  "abi": [
    {
      "inputs": [
        {
          "internalType": "address",
          "name": "_authority",
          "type": "address"
        },
        {
          "internalType": "address",
          "name": "_protocol",
          "type": "address"
        },
        {
          "internalType": "address",
          "name": "_liquidityPool",
          "type": "address"
        }
      ],
      "stateMutability": "nonpayable",
      "type": "constructor"
    },
    {
      "inputs": [],
      "name": "InvalidBuyer",
      "type": "error"
    },
    {
      "inputs": [],
      "name": "InvalidOrder",
      "type": "error"
    },
    {
      "inputs": [],
      "name": "InvalidPrice",
      "type": "error"
    },
    {
      "inputs": [],
      "name": "OrderExpired",
      "type": "error"
    },
    {
      "inputs": [],
      "name": "OrderExpiryTooLong",
      "type": "error"
    },
    {
      "inputs": [
        {
          "internalType": "uint256",
          "name": "prod1",
          "type": "uint256"
        }
      ],
      "name": "PRBMath__MulDivFixedPointOverflow",
      "type": "error"
    },
    {
      "inputs": [],
      "name": "SpotMovedBeyondRange",
      "type": "error"
    },
    {
      "inputs": [],
      "name": "UNAUTHORIZED",
      "type": "error"
    },
    {
      "anonymous": false,
      "inputs": [
        {
          "indexed": false,
          "internalType": "contract IAuthority",
          "name": "authority",
          "type": "address"
        }
      ],
      "name": "AuthorityUpdated",
      "type": "event"
    },
    {
      "anonymous": false,
      "inputs": [
        {
          "indexed": false,
          "internalType": "uint256",
          "name": "orderId",
          "type": "uint256"
        }
      ],
      "name": "OrderCreated",
      "type": "event"
    },
    {
      "anonymous": false,
      "inputs": [
        {
          "indexed": false,
          "internalType": "uint256",
          "name": "orderId",
          "type": "uint256"
        }
      ],
      "name": "OrderExecuted",
      "type": "event"
    },
    {
      "inputs": [],
      "name": "authority",
      "outputs": [
        {
          "internalType": "contract IAuthority",
          "name": "",
          "type": "address"
        }
      ],
      "stateMutability": "view",
      "type": "function"
    },
    {
      "inputs": [],
      "name": "collateralAsset",
      "outputs": [
        {
          "internalType": "address",
          "name": "",
          "type": "address"
        }
      ],
      "stateMutability": "view",
      "type": "function"
    },
    {
      "inputs": [
        {
          "components": [
            {
              "internalType": "uint64",
              "name": "expiration",
              "type": "uint64"
            },
            {
              "internalType": "uint128",
              "name": "strike",
              "type": "uint128"
            },
            {
              "internalType": "bool",
              "name": "isPut",
              "type": "bool"
            },
            {
              "internalType": "address",
              "name": "underlying",
              "type": "address"
            },
            {
              "internalType": "address",
              "name": "strikeAsset",
              "type": "address"
            },
            {
              "internalType": "address",
              "name": "collateral",
              "type": "address"
            }
          ],
          "internalType": "struct Types.OptionSeries",
          "name": "_optionSeries",
          "type": "tuple"
        },
        {
          "internalType": "uint256",
          "name": "_amount",
          "type": "uint256"
        },
        {
          "internalType": "uint256",
          "name": "_price",
          "type": "uint256"
        },
        {
          "internalType": "uint256",
          "name": "_orderExpiry",
          "type": "uint256"
        },
        {
          "internalType": "address",
          "name": "_buyerAddress",
          "type": "address"
        },
        {
          "internalType": "bool",
          "name": "_isBuyBack",
          "type": "bool"
        },
        {
          "internalType": "uint256[2]",
          "name": "_spotMovementRange",
          "type": "uint256[2]"
        }
      ],
      "name": "createOrder",
      "outputs": [
        {
          "internalType": "uint256",
          "name": "",
          "type": "uint256"
        }
      ],
      "stateMutability": "nonpayable",
      "type": "function"
    },
    {
      "inputs": [
        {
          "components": [
            {
              "internalType": "uint64",
              "name": "expiration",
              "type": "uint64"
            },
            {
              "internalType": "uint128",
              "name": "strike",
              "type": "uint128"
            },
            {
              "internalType": "bool",
              "name": "isPut",
              "type": "bool"
            },
            {
              "internalType": "address",
              "name": "underlying",
              "type": "address"
            },
            {
              "internalType": "address",
              "name": "strikeAsset",
              "type": "address"
            },
            {
              "internalType": "address",
              "name": "collateral",
              "type": "address"
            }
          ],
          "internalType": "struct Types.OptionSeries",
          "name": "_optionSeriesCall",
          "type": "tuple"
        },
        {
          "components": [
            {
              "internalType": "uint64",
              "name": "expiration",
              "type": "uint64"
            },
            {
              "internalType": "uint128",
              "name": "strike",
              "type": "uint128"
            },
            {
              "internalType": "bool",
              "name": "isPut",
              "type": "bool"
            },
            {
              "internalType": "address",
              "name": "underlying",
              "type": "address"
            },
            {
              "internalType": "address",
              "name": "strikeAsset",
              "type": "address"
            },
            {
              "internalType": "address",
              "name": "collateral",
              "type": "address"
            }
          ],
          "internalType": "struct Types.OptionSeries",
          "name": "_optionSeriesPut",
          "type": "tuple"
        },
        {
          "internalType": "uint256",
          "name": "_amountCall",
          "type": "uint256"
        },
        {
          "internalType": "uint256",
          "name": "_amountPut",
          "type": "uint256"
        },
        {
          "internalType": "uint256",
          "name": "_priceCall",
          "type": "uint256"
        },
        {
          "internalType": "uint256",
          "name": "_pricePut",
          "type": "uint256"
        },
        {
          "internalType": "uint256",
          "name": "_orderExpiry",
          "type": "uint256"
        },
        {
          "internalType": "address",
          "name": "_buyerAddress",
          "type": "address"
        },
        {
          "internalType": "uint256[2]",
          "name": "_callSpotMovementRange",
          "type": "uint256[2]"
        },
        {
          "internalType": "uint256[2]",
          "name": "_putSpotMovementRange",
          "type": "uint256[2]"
        }
      ],
      "name": "createStrangle",
      "outputs": [
        {
          "internalType": "uint256",
          "name": "",
          "type": "uint256"
        },
        {
          "internalType": "uint256",
          "name": "",
          "type": "uint256"
        }
      ],
      "stateMutability": "nonpayable",
      "type": "function"
    },
    {
      "inputs": [
        {
          "internalType": "uint256",
          "name": "_orderId",
          "type": "uint256"
        }
      ],
      "name": "executeBuyBackOrder",
      "outputs": [],
      "stateMutability": "nonpayable",
      "type": "function"
    },
    {
      "inputs": [
        {
          "internalType": "uint256",
          "name": "_orderId",
          "type": "uint256"
        }
      ],
      "name": "executeOrder",
      "outputs": [],
      "stateMutability": "nonpayable",
      "type": "function"
    },
    {
      "inputs": [
        {
          "internalType": "uint256",
          "name": "_orderId1",
          "type": "uint256"
        },
        {
          "internalType": "uint256",
          "name": "_orderId2",
          "type": "uint256"
        }
      ],
      "name": "executeStrangle",
      "outputs": [],
      "stateMutability": "nonpayable",
      "type": "function"
    },
    {
      "inputs": [],
      "name": "feePerContract",
      "outputs": [
        {
          "internalType": "uint256",
          "name": "",
          "type": "uint256"
        }
      ],
      "stateMutability": "view",
      "type": "function"
    },
    {
      "inputs": [],
      "name": "feeRecipient",
      "outputs": [
        {
          "internalType": "address",
          "name": "",
          "type": "address"
        }
      ],
      "stateMutability": "view",
      "type": "function"
    },
    {
      "inputs": [],
      "name": "liquidityPool",
      "outputs": [
        {
          "internalType": "contract ILiquidityPool",
          "name": "",
          "type": "address"
        }
      ],
      "stateMutability": "view",
      "type": "function"
    },
    {
      "inputs": [],
      "name": "orderIdCounter",
      "outputs": [
        {
          "internalType": "uint256",
          "name": "",
          "type": "uint256"
        }
      ],
      "stateMutability": "view",
      "type": "function"
    },
    {
      "inputs": [
        {
          "internalType": "uint256",
          "name": "",
          "type": "uint256"
        }
      ],
      "name": "orderStores",
      "outputs": [
        {
          "components": [
            {
              "internalType": "uint64",
              "name": "expiration",
              "type": "uint64"
            },
            {
              "internalType": "uint128",
              "name": "strike",
              "type": "uint128"
            },
            {
              "internalType": "bool",
              "name": "isPut",
              "type": "bool"
            },
            {
              "internalType": "address",
              "name": "underlying",
              "type": "address"
            },
            {
              "internalType": "address",
              "name": "strikeAsset",
              "type": "address"
            },
            {
              "internalType": "address",
              "name": "collateral",
              "type": "address"
            }
          ],
          "internalType": "struct Types.OptionSeries",
          "name": "optionSeries",
          "type": "tuple"
        },
        {
          "internalType": "uint256",
          "name": "amount",
          "type": "uint256"
        },
        {
          "internalType": "uint256",
          "name": "price",
          "type": "uint256"
        },
        {
          "internalType": "uint256",
          "name": "orderExpiry",
          "type": "uint256"
        },
        {
          "internalType": "address",
          "name": "buyer",
          "type": "address"
        },
        {
          "internalType": "address",
          "name": "seriesAddress",
          "type": "address"
        },
        {
          "internalType": "uint128",
          "name": "lowerSpotMovementRange",
          "type": "uint128"
        },
        {
          "internalType": "uint128",
          "name": "upperSpotMovementRange",
          "type": "uint128"
        },
        {
          "internalType": "bool",
          "name": "isBuyBack",
          "type": "bool"
        }
      ],
      "stateMutability": "view",
      "type": "function"
    },
    {
      "inputs": [],
      "name": "protocol",
      "outputs": [
        {
          "internalType": "contract Protocol",
          "name": "",
          "type": "address"
        }
      ],
      "stateMutability": "view",
      "type": "function"
    },
    {
      "inputs": [
        {
          "internalType": "contract IAuthority",
          "name": "_newAuthority",
          "type": "address"
        }
      ],
      "name": "setAuthority",
      "outputs": [],
      "stateMutability": "nonpayable",
      "type": "function"
    },
    {
      "inputs": [
        {
          "internalType": "uint256",
          "name": "_feePerContract",
          "type": "uint256"
        }
      ],
      "name": "setFeePerContract",
      "outputs": [],
      "stateMutability": "nonpayable",
      "type": "function"
    },
    {
      "inputs": [
        {
          "internalType": "address",
          "name": "_feeRecipient",
          "type": "address"
        }
      ],
      "name": "setFeeRecipient",
      "outputs": [],
      "stateMutability": "nonpayable",
      "type": "function"
    },
    {
      "inputs": [],
      "name": "strikeAsset",
      "outputs": [
        {
          "internalType": "address",
          "name": "",
          "type": "address"
        }
      ],
      "stateMutability": "view",
      "type": "function"
    },
    {
      "inputs": [],
      "name": "underlyingAsset",
      "outputs": [
        {
          "internalType": "address",
          "name": "",
          "type": "address"
        }
      ],
      "stateMutability": "view",
      "type": "function"
    }
  ],
  "bytecode": "0x610120604052620186a06004553480156200001957600080fd5b506040516200273d3803806200273d8339810160408190526200003c9162000288565b600080546001600160a01b0319166001600160a01b03851690811790915560405190815283907f2f658b440c35314f52658ea8a740e05b284cdc84dc9ae01e891f21b8933e7cad9060200160405180910390a150600180556001600160a01b0380831660a052811660808190526040805163555d766b60e11b8152905163aabaecd691600480820192602092909190829003018186803b158015620000e057600080fd5b505afa158015620000f5573d6000803e3d6000fd5b505050506040513d601f19601f820116820180604052508101906200011b9190620002d2565b6001600160a01b0316610100816001600160a01b0316815250506080516001600160a01b0316637158da7c6040518163ffffffff1660e01b815260040160206040518083038186803b1580156200017157600080fd5b505afa15801562000186573d6000803e3d6000fd5b505050506040513d601f19601f82011682018060405250810190620001ac9190620002d2565b6001600160a01b031660e0816001600160a01b0316815250506080516001600160a01b03166317d69bc86040518163ffffffff1660e01b815260040160206040518083038186803b1580156200020157600080fd5b505afa15801562000216573d6000803e3d6000fd5b505050506040513d601f19601f820116820180604052508101906200023c9190620002d2565b6001600160a01b0390811660c052600580546001600160a01b0319169290911691909117905550620002f79050565b80516001600160a01b03811681146200028357600080fd5b919050565b6000806000606084860312156200029e57600080fd5b620002a9846200026b565b9250620002b9602085016200026b565b9150620002c9604085016200026b565b90509250925092565b600060208284031215620002e557600080fd5b620002f0826200026b565b9392505050565b60805160a05160c05160e05161010051612359620003e46000396000818161033d0152818161065d015281816108e801528181610d2701528181610db201528181610df50152610fba0152600081816102c9015281816105aa0152818161088a01528181610c7401528181610f5c0152611224015260008181610135015281816105cb015281816108b901528181610c9501528181610f8b01526112450152600081816103030152818161165c0152818161185d01526119290152600081816101b6015281816107010152818161076c01528181610e1701528181610e3e015261117f01526123596000f3fe608060405234801561001057600080fd5b50600436106101165760003560e01c80638ce74426116100a2578063be37442311610071578063be37442314610372578063bf7e214f1461037b578063d02f2b4c1461038e578063dc56726f146103a1578063e74b981b146103c957600080fd5b80638ce74426146102fe57806394f6113414610325578063aabaecd614610338578063b342805c1461035f57600080fd5b806346904840116100e9578063469048401461019e578063665a11ca146101b15780636ddd19af146101d85780637158da7c146102c45780637a9e5e4b146102eb57600080fd5b806317aecf241461011b57806317d69bc8146101305780633a40cb231461017457806343ddee1e14610187575b600080fd5b61012e610129366004611be1565b6103dc565b005b6101577f000000000000000000000000000000000000000000000000000000000000000081565b6040516001600160a01b0390911681526020015b60405180910390f35b61012e610182366004611be1565b6103e9565b61019060045481565b60405190815260200161016b565b600554610157906001600160a01b031681565b6101577f000000000000000000000000000000000000000000000000000000000000000081565b6102af6101e6366004611be1565b600360208181526000928352604092839020835160c081018552815467ffffffffffffffff811682526001600160801b03600160401b820481169483019490945260ff600160c01b909104811615159582019590955260018201546001600160a01b03908116606083015260028301548116608083015293820154841660a0820152600482015460058301546006840154600785015460088601546009870154600a9097015495999498939792969184169593169381831693600160801b909204909216911689565b60405161016b99989796959493929190611c57565b6101577f000000000000000000000000000000000000000000000000000000000000000081565b61012e6102f9366004611cd8565b610a5b565b6101577f000000000000000000000000000000000000000000000000000000000000000081565b61012e610333366004611be1565b610ab7565b6101577f000000000000000000000000000000000000000000000000000000000000000081565b61019061036d366004611e6a565b611125565b61019060025481565b600054610157906001600160a01b031681565b61012e61039c366004611ee6565b611509565b6103b46103af366004611f08565b61151f565b6040805192835260208301919091520161016b565b61012e6103d7366004611cd8565b611564565b6103e46115a1565b600455565b600260015414156104415760405162461bcd60e51b815260206004820152601f60248201527f5265656e7472616e637947756172643a207265656e7472616e742063616c6c0060448201526064015b60405180910390fd5b6002600181815560008381526003602081815260409283902083516101e081018552815467ffffffffffffffff811661012083019081526001600160801b03600160401b8304811661014085015260ff600160c01b90930483161515610160850152978401546001600160a01b039081166101808501529884015489166101a08401529483015488166101c0830152938152600482015492810192909252600581015493820193909352600683015460608201526007830154851660808201819052600884015490951660a0820152600983015480851660c0830152600160801b900490931660e0840152600a9091015416151561010082015290331461055b576040516358ef870360e11b815260040160405180910390fd5b8060600151421115610580576040516362b439dd60e11b815260040160405180910390fd5b8061010001516105a35760405163af61069360e01b815260040160405180910390fd5b60006105ef7f00000000000000000000000000000000000000000000000000000000000000007f0000000000000000000000000000000000000000000000000000000000000000611658565b9050808260c001516001600160801b031611806106185750808260e001516001600160801b0316105b1561063657604051633a5eb29d60e21b815260040160405180910390fd5b60006106538360400151846020015161177790919063ffffffff16565b905060006106f4827f00000000000000000000000000000000000000000000000000000000000000006001600160a01b031663313ce5676040518163ffffffff1660e01b815260040160206040518083038186803b1580156106b457600080fd5b505afa1580156106c8573d6000803e3d6000fd5b505050506040513d601f19601f820116820180604052508101906106ec9190611fab565b60ff16611783565b905061076a8460a00151337f000000000000000000000000000000000000000000000000000000000000000061076588602001518960a001516001600160a01b031663313ce5676040518163ffffffff1660e01b815260040160206040518083038186803b1580156106b457600080fd5b6117bf565b7f00000000000000000000000000000000000000000000000000000000000000006001600160a01b0316635733af2a856000015186602001516107ab611859565b8860a00151866000336040518863ffffffff1660e01b81526004016107d69796959493929190611fce565b602060405180830381600087803b1580156107f057600080fd5b505af1158015610804573d6000803e3d6000fd5b505050506040513d601f19601f82011682018060405250810190610828919061201c565b5060006040518060c0016040528086600001516000015167ffffffffffffffff16815260200161086a8760000151602001516001600160801b031660086118f1565b6001600160801b03168152602001866000015160400151151581526020017f00000000000000000000000000000000000000000000000000000000000000006001600160a01b031681526020017f00000000000000000000000000000000000000000000000000000000000000006001600160a01b031681526020017f00000000000000000000000000000000000000000000000000000000000000006001600160a01b0316815250905061091d611925565b6001600160a01b031663dce66fb882876020015161093a9061204b565b60008960a001516040518563ffffffff1660e01b81526004016109609493929190612068565b600060405180830381600087803b15801561097a57600080fd5b505af115801561098e573d6000803e3d6000fd5b505050507ff03ed60bf824bdd2c1387f3534cb0fd2ab10270e8ce0cb8b2daec90068eb943e866040516109c391815260200190565b60405180910390a150505060009283525050600360208190526040822080546001600160c81b0319168155600180820180546001600160a01b031990811690915560028301805482169055928201805484169055600482018490556005820184905560068201849055600782018054841690556008820180549093169092556009810192909255600a909101805460ff191690558055565b610a636115a1565b600080546001600160a01b0319166001600160a01b0383169081179091556040519081527f2f658b440c35314f52658ea8a740e05b284cdc84dc9ae01e891f21b8933e7cad9060200160405180910390a150565b60026001541415610b0a5760405162461bcd60e51b815260206004820152601f60248201527f5265656e7472616e637947756172643a207265656e7472616e742063616c6c006044820152606401610438565b6002600181815560008381526003602081815260409283902083516101e081018552815467ffffffffffffffff811661012083019081526001600160801b03600160401b8304811661014085015260ff600160c01b90930483161515610160850152978401546001600160a01b039081166101808501529884015489166101a08401529483015488166101c0830152938152600482015492810192909252600581015493820193909352600683015460608201526007830154851660808201819052600884015490951660a0820152600983015480851660c0830152600160801b900490931660e0840152600a90910154161515610100820152903314610c24576040516358ef870360e11b815260040160405180910390fd5b8060600151421115610c49576040516362b439dd60e11b815260040160405180910390fd5b80610100015115610c6d5760405163af61069360e01b815260040160405180910390fd5b6000610cb97f00000000000000000000000000000000000000000000000000000000000000007f0000000000000000000000000000000000000000000000000000000000000000611658565b9050808260c001516001600160801b03161180610ce25750808260e001516001600160801b0316105b15610d0057604051633a5eb29d60e21b815260040160405180910390fd5b6000610d1d8360400151846020015161177790919063ffffffff16565b90506000610d7e827f00000000000000000000000000000000000000000000000000000000000000006001600160a01b031663313ce5676040518163ffffffff1660e01b815260040160206040518083038186803b1580156106b457600080fd5b90506000610d9b856020015160045461177790919063ffffffff16565b905080600383901c1115610df057600554610de3907f00000000000000000000000000000000000000000000000000000000000000009033906001600160a01b0316846117bf565b610ded818361209c565b91505b610e3c7f0000000000000000000000000000000000000000000000000000000000000000337f0000000000000000000000000000000000000000000000000000000000000000856117bf565b7f00000000000000000000000000000000000000000000000000000000000000006001600160a01b031663bdb4246186600001518760a001518860200151610e82611859565b876000336040518863ffffffff1660e01b8152600401610ea897969594939291906120b3565b602060405180830381600087803b158015610ec257600080fd5b505af1158015610ed6573d6000803e3d6000fd5b505050506040513d601f19601f82011682018060405250810190610efa919061201c565b5060006040518060c0016040528087600001516000015167ffffffffffffffff168152602001610f3c8860000151602001516001600160801b031660086118f1565b6001600160801b03168152602001876000015160400151151581526020017f00000000000000000000000000000000000000000000000000000000000000006001600160a01b031681526020017f00000000000000000000000000000000000000000000000000000000000000006001600160a01b031681526020017f00000000000000000000000000000000000000000000000000000000000000006001600160a01b03168152509050610fef611925565b6001600160a01b031663dce66fb882886020015160008a60a001516040518563ffffffff1660e01b81526004016110299493929190612068565b600060405180830381600087803b15801561104357600080fd5b505af1158015611057573d6000803e3d6000fd5b505050507ff03ed60bf824bdd2c1387f3534cb0fd2ab10270e8ce0cb8b2daec90068eb943e8760405161108c91815260200190565b60405180910390a150505060009384525050600360208190526040832080546001600160c81b0319168155600180820180546001600160a01b031990811690915560028301805482169055928201805484169055600482018590556005820185905560068201859055600782018054841690556008820180549093169092556009810193909355600a909201805460ff19169055508055565b600061112f611980565b8561114c5760405162bfc92160e01b815260040160405180910390fd5b61070885111561116f57604051639f2ace9560e01b815260040160405180910390fd5b6000611179611859565b905060007f00000000000000000000000000000000000000000000000000000000000000006001600160a01b03166370183e0a8b6040518263ffffffff1660e01b81526004016111c99190612104565b602060405180830381600087803b1580156111e357600080fd5b505af11580156111f7573d6000803e3d6000fd5b505050506040513d601f19601f8201168201806040525081019061121b9190612112565b905060006112697f00000000000000000000000000000000000000000000000000000000000000007f0000000000000000000000000000000000000000000000000000000000000000611658565b6040805161012081019182905263dac9675b60e01b9091526001600160a01b038481166101248301529192506000918190861663dac9675b610144830160c06040518083038186803b1580156112be57600080fd5b505afa1580156112d2573d6000803e3d6000fd5b505050506040513d601f19601f820116820180604052508101906112f6919061212f565b81526020018c81526020018b81526020018a4261131391906121da565b81526001600160a01b038a8116602083015285166040820152875160609091019061133e908561209c565b6001600160801b03168152602001876001602002015161135e90856121da565b6001600160801b0316815260200188151581525090506000600254600161138591906121da565b600081815260036020818152604092839020865180518254828501518388015167ffffffffffffffff9093166001600160c01b031990921691909117600160401b6001600160801b03928316021760ff60c01b1916600160c01b921515929092029190911783556060808301516001850180546001600160a01b03199081166001600160a01b0393841617909155608080860151600288018054841691851691909117905560a09586015198870180548316998416999099179098558b87015160048701558b8901516005870155918b01516006860155958a0151600785018054831691881691909117905591890151600884018054909316951694909417905560c087015160e0880151908416600160801b9190941602929092176009830155610100860151600a909201805460ff19169215159290921790915590518281529192507f7e82078c35b6665b9d320ebeaa6c266960fad5b802c5558cf7df60c4769af95b910160405180910390a160028190559c9b505050505050505050505050565b61151282610ab7565b61151b81610ab7565b5050565b60008061152a611980565b600061153c8d8c8b8a8a60008b611125565b905060006115508d8c8b8b8b60008b611125565b9e919d50909b505050505050505050505050565b61156c6115a1565b6001600160a01b03811661157f57600080fd5b600580546001600160a01b0319166001600160a01b0392909216919091179055565b60008054906101000a90046001600160a01b03166001600160a01b0316630c340a246040518163ffffffff1660e01b815260040160206040518083038186803b1580156115ed57600080fd5b505afa158015611601573d6000803e3d6000fd5b505050506040513d601f19601f820116820180604052508101906116259190612112565b6001600160a01b0316336001600160a01b0316146116565760405163075fd2b160e01b815260040160405180910390fd5b565b60007f00000000000000000000000000000000000000000000000000000000000000006001600160a01b031663741bef1a6040518163ffffffff1660e01b815260040160206040518083038186803b1580156116b357600080fd5b505afa1580156116c7573d6000803e3d6000fd5b505050506040513d601f19601f820116820180604052508101906116eb9190612112565b60405163051ce29b60e21b81526001600160a01b038581166004830152848116602483015291909116906314738a6c9060440160206040518083038186803b15801561173657600080fd5b505afa15801561174a573d6000803e3d6000fd5b505050506040513d601f19601f8201168201806040525081019061176e919061201c565b90505b92915050565b600061176e8383611ad8565b6000601282111561179357600080fd5b60006117a083601261209c565b90506117ad81600a6122d6565b6117b790856122e2565b949350505050565b600084905060006040516323b872dd60e01b81526001600160a01b03861660048201526001600160a01b03851660248201528360448201526000806064836000875af191505061180e81611b9a565b6118515760405162461bcd60e51b81526020600482015260146024820152731514905394d1915497d19493d357d1905253115160621b6044820152606401610438565b505050505050565b60007f00000000000000000000000000000000000000000000000000000000000000006001600160a01b0316633b4567b06040518163ffffffff1660e01b815260040160206040518083038186803b1580156118b457600080fd5b505afa1580156118c8573d6000803e3d6000fd5b505050506040513d601f19601f820116820180604052508101906118ec9190612112565b905090565b6000601282111561190157600080fd5b600061190e83601261209c565b905061191b81600a6122d6565b6117b79085612304565b60007f00000000000000000000000000000000000000000000000000000000000000006001600160a01b0316635fb480c96040518163ffffffff1660e01b815260040160206040518083038186803b1580156118b457600080fd5b60008054906101000a90046001600160a01b03166001600160a01b031663481c6a756040518163ffffffff1660e01b815260040160206040518083038186803b1580156119cc57600080fd5b505afa1580156119e0573d6000803e3d6000fd5b505050506040513d601f19601f82011682018060405250810190611a049190612112565b6001600160a01b0316336001600160a01b031614158015611aba575060008054906101000a90046001600160a01b03166001600160a01b0316630c340a246040518163ffffffff1660e01b815260040160206040518083038186803b158015611a6c57600080fd5b505afa158015611a80573d6000803e3d6000fd5b505050506040513d601f19601f82011682018060405250810190611aa49190612112565b6001600160a01b0316336001600160a01b031614155b156116565760405163075fd2b160e01b815260040160405180910390fd5b60008080600019848609848602925082811083820303915050670de0b6b3a76400008110611b1c5760405163698d9a0160e11b815260048101829052602401610438565b600080670de0b6b3a76400008688099150506706f05b59d3b1ffff811182611b565780670de0b6b3a7640000850401945050505050611771565b620400008285030493909111909103600160ee1b02919091177faccb18165bd6fe31ae1cf318dc5b51eee0e1ba569b88cd74c1773b91fac106690201905092915050565b60003d82611bac57806000803e806000fd5b8060208114611bc4578015611bd55760009250611bda565b816000803e60005115159250611bda565b600192505b5050919050565b600060208284031215611bf357600080fd5b5035919050565b805167ffffffffffffffff1682526020808201516001600160801b0316908301526040808201511515908301526060808201516001600160a01b039081169184019190915260808083015182169084015260a09182015116910152565b6101c08101611c66828c611bfa565b60c082019990995260e08101979097526101008701959095526001600160a01b03938416610120870152919092166101408501526001600160801b039182166101608501521661018083015215156101a090910152919050565b6001600160a01b0381168114611cd557600080fd5b50565b600060208284031215611cea57600080fd5b8135611cf581611cc0565b9392505050565b634e487b7160e01b600052604160045260246000fd5b67ffffffffffffffff81168114611cd557600080fd5b6001600160801b0381168114611cd557600080fd5b8015158114611cd557600080fd5b600060c08284031215611d5d57600080fd5b60405160c0810181811067ffffffffffffffff82111715611d8057611d80611cfc565b6040529050808235611d9181611d12565b81526020830135611da181611d28565b60208201526040830135611db481611d3d565b60408201526060830135611dc781611cc0565b60608201526080830135611dda81611cc0565b608082015260a0830135611ded81611cc0565b60a0919091015292915050565b600082601f830112611e0b57600080fd5b6040516040810181811067ffffffffffffffff82111715611e2e57611e2e611cfc565b8060405250806040840185811115611e4557600080fd5b845b81811015611e5f578035835260209283019201611e47565b509195945050505050565b60008060008060008060006101a0888a031215611e8657600080fd5b611e908989611d4b565b965060c0880135955060e088013594506101008801359350610120880135611eb781611cc0565b9250610140880135611ec881611d3d565b9150611ed8896101608a01611dfa565b905092959891949750929550565b60008060408385031215611ef957600080fd5b50508035926020909101359150565b6000806000806000806000806000806102c08b8d031215611f2857600080fd5b611f328c8c611d4b565b9950611f418c60c08d01611d4b565b98506101808b013597506101a08b013596506101c08b013595506101e08b013594506102008b013593506102208b0135611f7a81611cc0565b9250611f8a8c6102408d01611dfa565b9150611f9a8c6102808d01611dfa565b90509295989b9194979a5092959850565b600060208284031215611fbd57600080fd5b815160ff81168114611cf557600080fd5b6101808101611fdd828a611bfa565b60c08201979097526001600160a01b0395861660e082015293851661010085015261012084019290925261014083015290911661016090910152919050565b60006020828403121561202e57600080fd5b5051919050565b634e487b7160e01b600052601160045260246000fd5b6000600160ff1b82141561206157612061612035565b5060000390565b61012081016120778287611bfa565b60c082019490945260e08101929092526001600160a01b031661010090910152919050565b6000828210156120ae576120ae612035565b500390565b61018081016120c2828a611bfa565b6001600160a01b0397881660c083015260e082019690965293861661010085015261012084019290925261014083015290921661016090920191909152919050565b60c081016117718284611bfa565b60006020828403121561212457600080fd5b8151611cf581611cc0565b600060c0828403121561214157600080fd5b60405160c0810181811067ffffffffffffffff8211171561216457612164611cfc565b604052825161217281611d12565b8152602083015161218281611d28565b6020820152604083015161219581611d3d565b604082015260608301516121a881611cc0565b606082015260808301516121bb81611cc0565b608082015260a08301516121ce81611cc0565b60a08201529392505050565b600082198211156121ed576121ed612035565b500190565b600181815b8085111561222d57816000190482111561221357612213612035565b8085161561222057918102915b93841c93908002906121f7565b509250929050565b60008261224457506001611771565b8161225157506000611771565b816001811461226757600281146122715761228d565b6001915050611771565b60ff84111561228257612282612035565b50506001821b611771565b5060208310610133831016604e8410600b84101617156122b0575081810a611771565b6122ba83836121f2565b80600019048211156122ce576122ce612035565b029392505050565b600061176e8383612235565b6000826122ff57634e487b7160e01b600052601260045260246000fd5b500490565b600081600019048311821515161561231e5761231e612035565b50029056fea26469706673582212200cce4bda2140f890e316b6fbd0ea19977e2e46dd581ace186500f39a552f2db464736f6c63430008090033",
  "linkReferences": {},
  "deployedLinkReferences": {}
}