{
  "_format": "hh-sol-artifact-1",
  "contractName": "UniswapV3HedgingReactor",
  "sourceName": "contracts/hedging/UniswapV3HedgingReactor.sol",
  "abi": [
    {
      "inputs": [
        {
          "internalType": "contract ISwapRouter",
          "name": "_swapRouter",
          "type": "address"
        },
        {
          "internalType": "address[]",
          "name": "_stableAddresses",
          "type": "address[]"
        },
        {
          "internalType": "address",
          "name": "_wethAddress",
          "type": "address"
        },
        {
          "internalType": "address",
          "name": "_parentLiquidityPool",
          "type": "address"
        },
        {
          "internalType": "uint24",
          "name": "_poolFee",
          "type": "uint24"
        },
        {
          "internalType": "address",
          "name": "_priceFeed",
          "type": "address"
        }
      ],
      "stateMutability": "nonpayable",
      "type": "constructor"
    },
    {
      "inputs": [
        {
          "internalType": "uint256",
          "name": "decimals",
          "type": "uint256"
        }
      ],
      "name": "DecimalIsLargerThanScale",
      "type": "error"
    },
    {
      "anonymous": false,
      "inputs": [
        {
          "indexed": true,
          "internalType": "address",
          "name": "previousOwner",
          "type": "address"
        },
        {
          "indexed": true,
          "internalType": "address",
          "name": "newOwner",
          "type": "address"
        }
      ],
      "name": "OwnershipTransferred",
      "type": "event"
    },
    {
      "inputs": [
        {
          "internalType": "uint24",
          "name": "_poolFee",
          "type": "uint24"
        }
      ],
      "name": "changePoolFee",
      "outputs": [],
      "stateMutability": "nonpayable",
      "type": "function"
    },
    {
      "inputs": [],
      "name": "getDelta",
      "outputs": [
        {
          "internalType": "int256",
          "name": "delta",
          "type": "int256"
        }
      ],
      "stateMutability": "view",
      "type": "function"
    },
    {
      "inputs": [],
      "name": "getPoolDenominatedValue",
      "outputs": [
        {
          "internalType": "uint256",
          "name": "value",
          "type": "uint256"
        }
      ],
      "stateMutability": "view",
      "type": "function"
    },
    {
      "inputs": [
        {
          "internalType": "int256",
          "name": "_delta",
          "type": "int256"
        }
      ],
      "name": "hedgeDelta",
      "outputs": [
        {
          "internalType": "int256",
          "name": "deltaChange",
          "type": "int256"
        }
      ],
      "stateMutability": "nonpayable",
      "type": "function"
    },
    {
      "inputs": [],
      "name": "internalDelta",
      "outputs": [
        {
          "internalType": "int256",
          "name": "",
          "type": "int256"
        }
      ],
      "stateMutability": "view",
      "type": "function"
    },
    {
      "inputs": [],
      "name": "owner",
      "outputs": [
        {
          "internalType": "address",
          "name": "",
          "type": "address"
        }
      ],
      "stateMutability": "view",
      "type": "function"
    },
    {
      "inputs": [],
      "name": "parentLiquidityPool",
      "outputs": [
        {
          "internalType": "address",
          "name": "",
          "type": "address"
        }
      ],
      "stateMutability": "view",
      "type": "function"
    },
    {
      "inputs": [],
      "name": "poolFee",
      "outputs": [
        {
          "internalType": "uint24",
          "name": "",
          "type": "uint24"
        }
      ],
      "stateMutability": "view",
      "type": "function"
    },
    {
      "inputs": [],
      "name": "priceFeed",
      "outputs": [
        {
          "internalType": "address",
          "name": "",
          "type": "address"
        }
      ],
      "stateMutability": "view",
      "type": "function"
    },
    {
      "inputs": [],
      "name": "renounceOwnership",
      "outputs": [],
      "stateMutability": "nonpayable",
      "type": "function"
    },
    {
      "inputs": [
        {
          "internalType": "uint256",
          "name": "",
          "type": "uint256"
        }
      ],
      "name": "stablecoinAddresses",
      "outputs": [
        {
          "internalType": "address",
          "name": "",
          "type": "address"
        }
      ],
      "stateMutability": "view",
      "type": "function"
    },
    {
      "inputs": [],
      "name": "swapRouter",
      "outputs": [
        {
          "internalType": "contract ISwapRouter",
          "name": "",
          "type": "address"
        }
      ],
      "stateMutability": "view",
      "type": "function"
    },
    {
      "inputs": [
        {
          "internalType": "address",
          "name": "newOwner",
          "type": "address"
        }
      ],
      "name": "transferOwnership",
      "outputs": [],
      "stateMutability": "nonpayable",
      "type": "function"
    },
    {
      "inputs": [],
      "name": "update",
      "outputs": [
        {
          "internalType": "int256",
          "name": "",
          "type": "int256"
        }
      ],
      "stateMutability": "view",
      "type": "function"
    },
    {
      "inputs": [],
      "name": "wETH",
      "outputs": [
        {
          "internalType": "address",
          "name": "",
          "type": "address"
        }
      ],
      "stateMutability": "view",
      "type": "function"
    },
    {
      "inputs": [
        {
          "internalType": "uint256",
          "name": "_amount",
          "type": "uint256"
        },
        {
          "internalType": "address",
          "name": "_token",
          "type": "address"
        }
      ],
      "name": "withdraw",
      "outputs": [
        {
          "internalType": "uint256",
          "name": "",
          "type": "uint256"
        }
      ],
      "stateMutability": "nonpayable",
      "type": "function"
    }
  ],
  "bytecode": "0x60c06040523480156200001157600080fd5b5060405162001d3638038062001d36833981016040819052620000349162000325565b6200003f336200012d565b6001600160a01b03861660a0528451620000619060039060208801906200024f565b506001600160a01b03848116608052600180546001600160a01b0319908116868416179091556004805462ffffff191662ffffff86161790556002805490911691831691909117905560005b85518110156200010457620000ef868281518110620000d057620000d062000459565b602002602001015160a0516000196200017d60201b62000d361760201c565b80620000fb816200046f565b915050620000ad565b50620001218460a0516000196200017d60201b62000d361760201c565b50505050505062000499565b600080546001600160a01b038381166001600160a01b0319831681178455604051919092169283917f8be0079c531659141344cd1fd0a4f28419497f9722a3daafe3b4186f6b6457e09190a35050565b600060405163095ea7b360e01b81526001600160a01b03841660048201528260248201526000806044836000895af19150620001bb90508162000203565b620001fd5760405162461bcd60e51b815260206004820152600e60248201526d1054141493d59157d1905253115160921b604482015260640160405180910390fd5b50505050565b60003d826200021657806000803e806000fd5b80602081146200023157801562000243576000925062000248565b816000803e6000511515925062000248565b600192505b5050919050565b828054828255906000526020600020908101928215620002a7579160200282015b82811115620002a757825182546001600160a01b0319166001600160a01b0390911617825560209092019160019091019062000270565b50620002b5929150620002b9565b5090565b5b80821115620002b55760008155600101620002ba565b6001600160a01b0381168114620002e657600080fd5b50565b634e487b7160e01b600052604160045260246000fd5b80516200030c81620002d0565b919050565b805162ffffff811681146200030c57600080fd5b60008060008060008060c087890312156200033f57600080fd5b86516200034c81620002d0565b602088810151919750906001600160401b03808211156200036c57600080fd5b818a0191508a601f8301126200038157600080fd5b815181811115620003965762000396620002e9565b8060051b604051601f19603f83011681018181108582111715620003be57620003be620002e9565b60405291825284820192508381018501918d831115620003dd57600080fd5b938501935b828510156200040657620003f685620002ff565b84529385019392850192620003e2565b809a505050505050506200041d60408801620002ff565b93506200042d60608801620002ff565b92506200043d6080880162000311565b91506200044d60a08801620002ff565b90509295509295509295565b634e487b7160e01b600052603260045260246000fd5b60006000198214156200049257634e487b7160e01b600052601160045260246000fd5b5060010190565b60805160a05161180e62000528600039600081816101d801528181610f490152818161104e015281816111d101526112e6015260008181610207015281816104610152818161059f015281816106510152818161074e015281816107fd0152818161089a01528181610c1b01528181610ee001528181610fe10152818161116a0152611278015261180e6000f3fe608060405234801561001057600080fd5b50600436106100ff5760003560e01c8063a2e6204511610097578063f242862111610066578063f242862114610202578063f2fde38b14610229578063fa9029681461023c578063fbaac1151461024f57600080fd5b8063a2e62045146101c2578063b7aa436d146101cb578063c31c9c07146101d3578063c549176e146101fa57600080fd5b8063741bef1a116100d3578063741bef1a146101825780638da5cb5b14610195578063906f94e6146101a65780639ceb0483146101b957600080fd5b8062f714ce14610104578063089fe6aa1461012a5780632082d8d31461014d578063715018a614610178575b600080fd5b61011761011236600461147f565b610262565b6040519081526020015b60405180910390f35b6004546101399062ffffff1681565b60405162ffffff9091168152602001610121565b600154610160906001600160a01b031681565b6040516001600160a01b039091168152602001610121565b6101806106ea565b005b600254610160906001600160a01b031681565b6000546001600160a01b0316610160565b6101606101b43660046114ab565b610720565b61011760055481565b62010f2c610117565b61011761074a565b6101607f000000000000000000000000000000000000000000000000000000000000000081565b600554610117565b6101607f000000000000000000000000000000000000000000000000000000000000000081565b6101806102373660046114c4565b610a6e565b61018061024a3660046114df565b610b09565b61011761025d3660046114ab565b610b4d565b6001546000906001600160a01b031633146102ad5760405162461bcd60e51b8152602060048201526006602482015265085d985d5b1d60d21b60448201526064015b60405180910390fd5b600061032c84846001600160a01b031663313ce5676040518163ffffffff1660e01b815260040160206040518083038186803b1580156102ec57600080fd5b505afa158015610300573d6000803e3d6000fd5b505050506040513d601f19601f820116820180604052508101906103249190611504565b60ff16610db4565b6040516370a0823160e01b81523060048201529091506000906001600160a01b038516906370a082319060240160206040518083038186803b15801561037157600080fd5b505afa158015610385573d6000803e3d6000fd5b505050506040513d601f19601f820116820180604052508101906103a99190611527565b9050600061042a82866001600160a01b031663313ce5676040518163ffffffff1660e01b815260040160206040518083038186803b1580156103ea57600080fd5b505afa1580156103fe573d6000803e3d6000fd5b505050506040513d601f19601f820116820180604052508101906104229190611504565b60ff16610e07565b90508183116104495761043e853385610e52565b8593505050506106e4565b6040516370a0823160e01b81523060048201526000907f00000000000000000000000000000000000000000000000000000000000000006001600160a01b0316906370a082319060240160206040518083038186803b1580156104ab57600080fd5b505afa1580156104bf573d6000803e3d6000fd5b505050506040513d601f19601f820116820180604052508101906104e39190611527565b905060006104fb6104f48587611556565b8389610ecb565b6040516370a0823160e01b81523060048201529091506001600160a01b038816906370a082319060240160206040518083038186803b15801561053d57600080fd5b505afa158015610551573d6000803e3d6000fd5b505050506040513d601f19601f820116820180604052508101906105759190611527565b9350848410156106315761058a873386610e52565b6040516370a0823160e01b81523060048201527f00000000000000000000000000000000000000000000000000000000000000006001600160a01b0316906370a082319060240160206040518083038186803b1580156105e957600080fd5b505afa1580156105fd573d6000803e3d6000fd5b505050506040513d601f19601f820116820180604052508101906106219190611527565b600555509093506106e492505050565b61063c873387610e52565b6040516370a0823160e01b81523060048201527f00000000000000000000000000000000000000000000000000000000000000006001600160a01b0316906370a082319060240160206040518083038186803b15801561069b57600080fd5b505afa1580156106af573d6000803e3d6000fd5b505050506040513d601f19601f820116820180604052508101906106d39190611527565b600555508694506106e49350505050565b92915050565b6000546001600160a01b031633146107145760405162461bcd60e51b81526004016102a49061156d565b61071e60006110ed565b565b6003818154811061073057600080fd5b6000918252602090912001546001600160a01b0316905081565b60007f00000000000000000000000000000000000000000000000000000000000000006001600160a01b031663313ce5676040518163ffffffff1660e01b815260040160206040518083038186803b1580156107a557600080fd5b505afa1580156107b9573d6000803e3d6000fd5b505050506040513d601f19601f820116820180604052508101906107dd9190611504565b6107e890600a611686565b6040516370a0823160e01b81523060048201527f00000000000000000000000000000000000000000000000000000000000000006001600160a01b0316906370a082319060240160206040518083038186803b15801561084757600080fd5b505afa15801561085b573d6000803e3d6000fd5b505050506040513d601f19601f8201168201806040525081019061087f9190611527565b600254600380546001600160a01b03909216916314738a6c917f0000000000000000000000000000000000000000000000000000000000000000916000906108c9576108c9611695565b60009182526020909120015460405160e084901b6001600160e01b03191681526001600160a01b0392831660048201529116602482015260440160206040518083038186803b15801561091b57600080fd5b505afa15801561092f573d6000803e3d6000fd5b505050506040513d601f19601f820116820180604052508101906109539190611527565b61095d91906116ab565b61096791906116ca565b610a5f600360008154811061097e5761097e611695565b6000918252602090912001546040516370a0823160e01b81523060048201526001600160a01b03909116906370a082319060240160206040518083038186803b1580156109ca57600080fd5b505afa1580156109de573d6000803e3d6000fd5b505050506040513d601f19601f82011682018060405250810190610a029190611527565b6003600081548110610a1657610a16611695565b600091825260209182902001546040805163313ce56760e01b815290516001600160a01b039092169263313ce56792600480840193829003018186803b1580156103ea57600080fd5b610a6991906116ec565b905090565b6000546001600160a01b03163314610a985760405162461bcd60e51b81526004016102a49061156d565b6001600160a01b038116610afd5760405162461bcd60e51b815260206004820152602660248201527f4f776e61626c653a206e6577206f776e657220697320746865207a65726f206160448201526564647265737360d01b60648201526084016102a4565b610b06816110ed565b50565b6000546001600160a01b03163314610b335760405162461bcd60e51b81526004016102a49061156d565b6004805462ffffff191662ffffff92909216919091179055565b6001546000906001600160a01b03163314610b935760405162461bcd60e51b8152602060048201526006602482015265085d985d5b1d60d21b60448201526064016102a4565b600060001981841215610c0357600080610bde610baf87611704565b846003600081548110610bc457610bc4611695565b6000918252602090912001546001600160a01b031661113d565b915091508160056000828254610bf49190611721565b90915550919695505050505050565b6040516370a0823160e01b81523060048201526000907f00000000000000000000000000000000000000000000000000000000000000006001600160a01b0316906370a082319060240160206040518083038186803b158015610c6557600080fd5b505afa158015610c79573d6000803e3d6000fd5b505050506040513d601f19601f82011682018060405250810190610c9d9190611527565b905080610caf57506000949350505050565b80851315610d1357600080610ced83866003600081548110610cd357610cd3611695565b6000918252602090912001546001600160a01b0316611263565b915091508160056000828254610d039190611721565b9091555091979650505050505050565b600080610ced87866003600081548110610cd357610cd3611695565b5050919050565b600060405163095ea7b360e01b81526001600160a01b03841660048201528260248201526000806044836000895af1915050610d7181611384565b610dae5760405162461bcd60e51b815260206004820152600e60248201526d1054141493d59157d1905253115160921b60448201526064016102a4565b50505050565b60006012821115610ddb576040516342d94fd760e11b8152600481018390526024016102a4565b6000610de8836012611556565b9050610df581600a611762565b610dff90856116ca565b949350505050565b60006012821115610e2e576040516342d94fd760e11b8152600481018390526024016102a4565b6000610e3b836012611556565b9050610e4881600a611762565b610dff90856116ab565b600060405163a9059cbb60e01b81526001600160a01b03841660048201528260248201526000806044836000895af1915050610e8d81611384565b610dae5760405162461bcd60e51b815260206004820152600f60248201526e1514905394d1915497d19052531151608a1b60448201526064016102a4565b60408051610100810182526001600160a01b037f00000000000000000000000000000000000000000000000000000000000000008116825283811660208301526004805462ffffff168385015230606084015242608084015260a0830187905260c08301869052600060e084018190529351631b67c43360e31b81527f00000000000000000000000000000000000000000000000000000000000000009092169163db3e219891610f7e9185910161176e565b602060405180830381600087803b158015610f9857600080fd5b505af1925050508015610fc8575060408051601f3d908101601f19168201909252610fc591810190611527565b60015b6110e05760408051610100810182526001600160a01b037f00000000000000000000000000000000000000000000000000000000000000008116825285811660208301526004805462ffffff168385015230606084015242608084015260055460a0840152600060c0840181905260e08401819052935163414bf38960e01b81529293927f00000000000000000000000000000000000000000000000000000000000000009092169163414bf389916110839186910161176e565b602060405180830381600087803b15801561109d57600080fd5b505af11580156110b1573d6000803e3d6000fd5b505050506040513d601f19601f820116820180604052508101906110d59190611527565b93506110e692505050565b85925050505b9392505050565b600080546001600160a01b038381166001600160a01b0319831681178455604051919092169283917f8be0079c531659141344cd1fd0a4f28419497f9722a3daafe3b4186f6b6457e09190a35050565b600080611150833330633b9aca006113c9565b60408051610100810182526001600160a01b0385811682527f0000000000000000000000000000000000000000000000000000000000000000811660208301526004805462ffffff168385015230606084015242608084015260a0830189905260c08301889052600060e084018190529351631b67c43360e31b81529293927f00000000000000000000000000000000000000000000000000000000000000009092169163db3e2198916112069186910161176e565b602060405180830381600087803b15801561122057600080fd5b505af1158015611234573d6000803e3d6000fd5b505050506040513d601f19601f820116820180604052508101906112589190611527565b969795505050505050565b60408051610100810182526001600160a01b037f00000000000000000000000000000000000000000000000000000000000000008116825283811660208301526004805462ffffff168385015230606084015242608084015260a0830187905260c08301869052600060e08401819052935163414bf38960e01b815284939284927f00000000000000000000000000000000000000000000000000000000000000009091169163414bf3899161131b9186910161176e565b602060405180830381600087803b15801561133557600080fd5b505af1158015611349573d6000803e3d6000fd5b505050506040513d601f19601f8201168201806040525081019061136d9190611527565b905061137887611704565b97909650945050505050565b60003d8261139657806000803e806000fd5b80602081146113ae5780156113bf5760009250610d2f565b816000803e60005115159250610d2f565b5060019392505050565b600084905060006040516323b872dd60e01b81526001600160a01b03861660048201526001600160a01b03851660248201528360448201526000806064836000875af191505061141881611384565b61145b5760405162461bcd60e51b81526020600482015260146024820152731514905394d1915497d19493d357d1905253115160621b60448201526064016102a4565b505050505050565b80356001600160a01b038116811461147a57600080fd5b919050565b6000806040838503121561149257600080fd5b823591506114a260208401611463565b90509250929050565b6000602082840312156114bd57600080fd5b5035919050565b6000602082840312156114d657600080fd5b6110e682611463565b6000602082840312156114f157600080fd5b813562ffffff811681146110e657600080fd5b60006020828403121561151657600080fd5b815160ff811681146110e657600080fd5b60006020828403121561153957600080fd5b5051919050565b634e487b7160e01b600052601160045260246000fd5b60008282101561156857611568611540565b500390565b6020808252818101527f4f776e61626c653a2063616c6c6572206973206e6f7420746865206f776e6572604082015260600190565b600181815b808511156115dd5781600019048211156115c3576115c3611540565b808516156115d057918102915b93841c93908002906115a7565b509250929050565b6000826115f4575060016106e4565b81611601575060006106e4565b816001811461161757600281146116215761163d565b60019150506106e4565b60ff84111561163257611632611540565b50506001821b6106e4565b5060208310610133831016604e8410600b8410161715611660575081810a6106e4565b61166a83836115a2565b806000190482111561167e5761167e611540565b029392505050565b60006110e660ff8416836115e5565b634e487b7160e01b600052603260045260246000fd5b60008160001904831182151516156116c5576116c5611540565b500290565b6000826116e757634e487b7160e01b600052601260045260246000fd5b500490565b600082198211156116ff576116ff611540565b500190565b6000600160ff1b82141561171a5761171a611540565b5060000390565b600080821280156001600160ff1b038490038513161561174357611743611540565b600160ff1b839003841281161561175c5761175c611540565b50500190565b60006110e683836115e5565b61010081016106e4828480516001600160a01b03908116835260208083015182169084015260408083015162ffffff16908401526060808301518216908401526080808301519084015260a0828101519084015260c0808301519084015260e0918201511691015256fea264697066735822122047d833b95cdab6df3442e46e566c8843c3d7b07042d23329a0ffa1a0ec6e5bbe64736f6c63430008090033",
  "linkReferences": {},
  "deployedLinkReferences": {}
}