{
  "_format": "hh-sol-artifact-1",
  "contractName": "OptionRegistryV2",
  "sourceName": "contracts/OptionRegistryV2.sol",
  "abi": [
    {
      "inputs": [
        {
          "internalType": "address",
          "name": "_collateralAsset",
          "type": "address"
        },
        {
          "internalType": "address",
          "name": "_oTokenFactory",
          "type": "address"
        },
        {
          "internalType": "address",
          "name": "_gammaController",
          "type": "address"
        },
        {
          "internalType": "address",
          "name": "_marginPool",
          "type": "address"
        },
        {
          "internalType": "address",
          "name": "_liquidityPool",
          "type": "address"
        },
        {
          "internalType": "address",
          "name": "_addressBook",
          "type": "address"
        }
      ],
      "stateMutability": "nonpayable",
      "type": "constructor"
    },
    {
      "inputs": [
        {
          "internalType": "uint256",
          "name": "decimals",
          "type": "uint256"
        }
      ],
      "name": "DecimalIsLargerThanScale",
      "type": "error"
    },
    {
      "anonymous": false,
      "inputs": [
        {
          "indexed": false,
          "internalType": "address",
          "name": "token",
          "type": "address"
        }
      ],
      "name": "OptionTokenCreated",
      "type": "event"
    },
    {
      "anonymous": false,
      "inputs": [
        {
          "indexed": true,
          "internalType": "address",
          "name": "series",
          "type": "address"
        },
        {
          "indexed": false,
          "internalType": "uint256",
          "name": "vaultId",
          "type": "uint256"
        },
        {
          "indexed": false,
          "internalType": "uint256",
          "name": "closedAmount",
          "type": "uint256"
        }
      ],
      "name": "OptionsContractClosed",
      "type": "event"
    },
    {
      "anonymous": false,
      "inputs": [
        {
          "indexed": true,
          "internalType": "address",
          "name": "series",
          "type": "address"
        },
        {
          "indexed": false,
          "internalType": "uint256",
          "name": "vaultId",
          "type": "uint256"
        },
        {
          "indexed": false,
          "internalType": "uint256",
          "name": "optionsAmount",
          "type": "uint256"
        }
      ],
      "name": "OptionsContractOpened",
      "type": "event"
    },
    {
      "anonymous": false,
      "inputs": [
        {
          "indexed": true,
          "internalType": "address",
          "name": "series",
          "type": "address"
        }
      ],
      "name": "OptionsContractSettled",
      "type": "event"
    },
    {
      "anonymous": false,
      "inputs": [
        {
          "indexed": true,
          "internalType": "address",
          "name": "previousOwner",
          "type": "address"
        },
        {
          "indexed": true,
          "internalType": "address",
          "name": "newOwner",
          "type": "address"
        }
      ],
      "name": "OwnershipTransferred",
      "type": "event"
    },
    {
      "anonymous": false,
      "inputs": [
        {
          "indexed": false,
          "internalType": "address",
          "name": "series",
          "type": "address"
        },
        {
          "indexed": false,
          "internalType": "uint256",
          "name": "underlyingAmount",
          "type": "uint256"
        },
        {
          "indexed": false,
          "internalType": "uint256",
          "name": "strikeAmount",
          "type": "uint256"
        }
      ],
      "name": "SeriesRedeemed",
      "type": "event"
    },
    {
      "inputs": [],
      "name": "VERSION",
      "outputs": [
        {
          "internalType": "string",
          "name": "",
          "type": "string"
        }
      ],
      "stateMutability": "view",
      "type": "function"
    },
    {
      "inputs": [
        {
          "internalType": "uint256",
          "name": "vaultId",
          "type": "uint256"
        }
      ],
      "name": "adjustCollateral",
      "outputs": [],
      "stateMutability": "nonpayable",
      "type": "function"
    },
    {
      "inputs": [
        {
          "internalType": "uint256",
          "name": "vaultId",
          "type": "uint256"
        }
      ],
      "name": "adjustCollateralCaller",
      "outputs": [],
      "stateMutability": "nonpayable",
      "type": "function"
    },
    {
      "inputs": [],
      "name": "authorised",
      "outputs": [
        {
          "internalType": "address",
          "name": "",
          "type": "address"
        }
      ],
      "stateMutability": "view",
      "type": "function"
    },
    {
      "inputs": [
        {
          "internalType": "uint256",
          "name": "vaultId",
          "type": "uint256"
        }
      ],
      "name": "checkVaultHealth",
      "outputs": [
        {
          "internalType": "bool",
          "name": "isBelowMin",
          "type": "bool"
        },
        {
          "internalType": "bool",
          "name": "isAboveMax",
          "type": "bool"
        },
        {
          "internalType": "uint256",
          "name": "healthFactor",
          "type": "uint256"
        },
        {
          "internalType": "uint256",
          "name": "collatRequired",
          "type": "uint256"
        },
        {
          "internalType": "address",
          "name": "collatAsset",
          "type": "address"
        }
      ],
      "stateMutability": "view",
      "type": "function"
    },
    {
      "inputs": [
        {
          "internalType": "address",
          "name": "_series",
          "type": "address"
        },
        {
          "internalType": "uint256",
          "name": "amount",
          "type": "uint256"
        }
      ],
      "name": "close",
      "outputs": [
        {
          "internalType": "bool",
          "name": "",
          "type": "bool"
        },
        {
          "internalType": "uint256",
          "name": "",
          "type": "uint256"
        }
      ],
      "stateMutability": "nonpayable",
      "type": "function"
    },
    {
      "inputs": [],
      "name": "collateralAsset",
      "outputs": [
        {
          "internalType": "address",
          "name": "",
          "type": "address"
        }
      ],
      "stateMutability": "view",
      "type": "function"
    },
    {
      "inputs": [
        {
          "components": [
            {
              "internalType": "uint256",
              "name": "expiration",
              "type": "uint256"
            },
            {
              "internalType": "bool",
              "name": "isPut",
              "type": "bool"
            },
            {
              "internalType": "uint256",
              "name": "strike",
              "type": "uint256"
            },
            {
              "internalType": "address",
              "name": "underlying",
              "type": "address"
            },
            {
              "internalType": "address",
              "name": "strikeAsset",
              "type": "address"
            },
            {
              "internalType": "address",
              "name": "collateral",
              "type": "address"
            }
          ],
          "internalType": "struct Types.OptionSeries",
          "name": "_series",
          "type": "tuple"
        }
      ],
      "name": "getIssuanceHash",
      "outputs": [
        {
          "internalType": "bytes32",
          "name": "",
          "type": "bytes32"
        }
      ],
      "stateMutability": "pure",
      "type": "function"
    },
    {
      "inputs": [
        {
          "internalType": "bytes32",
          "name": "issuanceHash",
          "type": "bytes32"
        }
      ],
      "name": "getSeriesAddress",
      "outputs": [
        {
          "internalType": "address",
          "name": "",
          "type": "address"
        }
      ],
      "stateMutability": "view",
      "type": "function"
    },
    {
      "inputs": [
        {
          "internalType": "address",
          "name": "series",
          "type": "address"
        }
      ],
      "name": "getSeriesInfo",
      "outputs": [
        {
          "components": [
            {
              "internalType": "uint256",
              "name": "expiration",
              "type": "uint256"
            },
            {
              "internalType": "bool",
              "name": "isPut",
              "type": "bool"
            },
            {
              "internalType": "uint256",
              "name": "strike",
              "type": "uint256"
            },
            {
              "internalType": "address",
              "name": "underlying",
              "type": "address"
            },
            {
              "internalType": "address",
              "name": "strikeAsset",
              "type": "address"
            },
            {
              "internalType": "address",
              "name": "collateral",
              "type": "address"
            }
          ],
          "internalType": "struct Types.OptionSeries",
          "name": "",
          "type": "tuple"
        }
      ],
      "stateMutability": "view",
      "type": "function"
    },
    {
      "inputs": [
        {
          "internalType": "address",
          "name": "underlying",
          "type": "address"
        },
        {
          "internalType": "address",
          "name": "strikeAsset",
          "type": "address"
        },
        {
          "internalType": "uint256",
          "name": "expiration",
          "type": "uint256"
        },
        {
          "internalType": "bool",
          "name": "isPut",
          "type": "bool"
        },
        {
          "internalType": "uint256",
          "name": "strike",
          "type": "uint256"
        },
        {
          "internalType": "address",
          "name": "collateral",
          "type": "address"
        }
      ],
      "name": "issue",
      "outputs": [
        {
          "internalType": "address",
          "name": "",
          "type": "address"
        }
      ],
      "stateMutability": "nonpayable",
      "type": "function"
    },
    {
      "inputs": [],
      "name": "lowerHealthFactor",
      "outputs": [
        {
          "internalType": "uint64",
          "name": "",
          "type": "uint64"
        }
      ],
      "stateMutability": "view",
      "type": "function"
    },
    {
      "inputs": [
        {
          "internalType": "address",
          "name": "_series",
          "type": "address"
        },
        {
          "internalType": "uint256",
          "name": "amount",
          "type": "uint256"
        }
      ],
      "name": "open",
      "outputs": [
        {
          "internalType": "bool",
          "name": "",
          "type": "bool"
        },
        {
          "internalType": "uint256",
          "name": "",
          "type": "uint256"
        }
      ],
      "stateMutability": "nonpayable",
      "type": "function"
    },
    {
      "inputs": [],
      "name": "owner",
      "outputs": [
        {
          "internalType": "address",
          "name": "",
          "type": "address"
        }
      ],
      "stateMutability": "view",
      "type": "function"
    },
    {
      "inputs": [
        {
          "internalType": "address",
          "name": "_series",
          "type": "address"
        }
      ],
      "name": "redeem",
      "outputs": [
        {
          "internalType": "uint256",
          "name": "",
          "type": "uint256"
        }
      ],
      "stateMutability": "nonpayable",
      "type": "function"
    },
    {
      "inputs": [],
      "name": "renounceOwnership",
      "outputs": [],
      "stateMutability": "nonpayable",
      "type": "function"
    },
    {
      "inputs": [
        {
          "internalType": "address",
          "name": "",
          "type": "address"
        }
      ],
      "name": "seriesInfo",
      "outputs": [
        {
          "internalType": "uint256",
          "name": "expiration",
          "type": "uint256"
        },
        {
          "internalType": "bool",
          "name": "isPut",
          "type": "bool"
        },
        {
          "internalType": "uint256",
          "name": "strike",
          "type": "uint256"
        },
        {
          "internalType": "address",
          "name": "underlying",
          "type": "address"
        },
        {
          "internalType": "address",
          "name": "strikeAsset",
          "type": "address"
        },
        {
          "internalType": "address",
          "name": "collateral",
          "type": "address"
        }
      ],
      "stateMutability": "view",
      "type": "function"
    },
    {
      "inputs": [
        {
          "internalType": "address",
          "name": "_newAuthorised",
          "type": "address"
        }
      ],
      "name": "setAuthorised",
      "outputs": [],
      "stateMutability": "nonpayable",
      "type": "function"
    },
    {
      "inputs": [
        {
          "internalType": "uint64",
          "name": "_lower",
          "type": "uint64"
        },
        {
          "internalType": "uint64",
          "name": "_upper",
          "type": "uint64"
        }
      ],
      "name": "setHealthThresholds",
      "outputs": [],
      "stateMutability": "nonpayable",
      "type": "function"
    },
    {
      "inputs": [
        {
          "internalType": "address",
          "name": "_newLiquidityPool",
          "type": "address"
        }
      ],
      "name": "setLiquidityPool",
      "outputs": [],
      "stateMutability": "nonpayable",
      "type": "function"
    },
    {
      "inputs": [
        {
          "internalType": "address",
          "name": "_series",
          "type": "address"
        }
      ],
      "name": "settle",
      "outputs": [
        {
          "internalType": "bool",
          "name": "",
          "type": "bool"
        }
      ],
      "stateMutability": "nonpayable",
      "type": "function"
    },
    {
      "inputs": [
        {
          "internalType": "address",
          "name": "newOwner",
          "type": "address"
        }
      ],
      "name": "transferOwnership",
      "outputs": [],
      "stateMutability": "nonpayable",
      "type": "function"
    },
    {
      "inputs": [],
      "name": "upperHealthFactor",
      "outputs": [
        {
          "internalType": "uint64",
          "name": "",
          "type": "uint64"
        }
      ],
      "stateMutability": "view",
      "type": "function"
    },
    {
      "inputs": [],
      "name": "vaultCount",
      "outputs": [
        {
          "internalType": "uint64",
          "name": "",
          "type": "uint64"
        }
      ],
      "stateMutability": "view",
      "type": "function"
    },
    {
      "inputs": [
        {
          "internalType": "address",
          "name": "",
          "type": "address"
        }
      ],
      "name": "vaultIds",
      "outputs": [
        {
          "internalType": "uint256",
          "name": "",
          "type": "uint256"
        }
      ],
      "stateMutability": "view",
      "type": "function"
    },
    {
      "inputs": [
        {
          "internalType": "uint256",
          "name": "vaultId",
          "type": "uint256"
        }
      ],
      "name": "wCollatLiquidatedVault",
      "outputs": [],
      "stateMutability": "nonpayable",
      "type": "function"
    }
  ],
  "bytecode": "0x60c060405260088054600160401b600160c01b031916712af800000000000032c800000000000000001790556127106009553480156200003e57600080fd5b50604051620031f6380380620031f6833981016040819052620000619162000138565b6200006c33620000cb565b6001600160a01b03958616608052600180549587166001600160a01b0319968716179055600280549487169486169490941790935560038054928616928516929092179091556004805491851691909316179091551660a052620001b9565b600080546001600160a01b038381166001600160a01b0319831681178455604051919092169283917f8be0079c531659141344cd1fd0a4f28419497f9722a3daafe3b4186f6b6457e09190a35050565b80516001600160a01b03811681146200013357600080fd5b919050565b60008060008060008060c087890312156200015257600080fd5b6200015d876200011b565b95506200016d602088016200011b565b94506200017d604088016200011b565b93506200018d606088016200011b565b92506200019d608088016200011b565b9150620001ad60a088016200011b565b90509295509295509295565b60805160a051613002620001f460003960008181611634015281816116f7015281816121b1015261227a0152600061035e01526130026000f3fe608060405234801561001057600080fd5b506004361061018e5760003560e01c80639b8c8dc2116100de578063dac9675b11610097578063e49280cb11610071578063e49280cb1461057d578063e6b9147e14610590578063f2fde38b146105a3578063ffa1ad74146105b657600080fd5b8063dac9675b1461043a578063dfeddb7e14610541578063e341c12c1461056a57600080fd5b80639b8c8dc214610300578063a7c6a10014610346578063aabaecd614610359578063b10efd7f14610380578063b9f4b28e14610393578063c7bc163b146103a657600080fd5b80634f4856f81161014b578063715018a611610125578063715018a6146102ad5780638da5cb5b146102b557806395a2251f146102da5780639a253faa146102ed57600080fd5b80634f4856f81461025d57806363009ac3146102775780636a256b291461028a57600080fd5b806301877020146101935780630934c3a2146101a85780630a0e5c9d146101df578063107474b11461020957806341849afc1461021c5780634c9a1c611461024a575b600080fd5b6101a66101a1366004612822565b6105e5565b005b6008546101c290600160401b90046001600160401b031681565b6040516001600160401b0390911681526020015b60405180910390f35b6101f26101ed366004612846565b61063a565b6040805192151583526020830191909152016101d6565b6101a661021736600461288e565b61096b565b61023c61022a366004612822565b60066020526000908152604090205481565b6040519081526020016101d6565b6101a66102583660046128c1565b6109ee565b6008546101c290600160801b90046001600160401b031681565b6101a66102853660046128c1565b610d33565b61029d610298366004612822565b610f23565b60405190151581526020016101d6565b6101a6611120565b6000546001600160a01b03165b6040516001600160a01b0390911681526020016101d6565b61023c6102e8366004612822565b611156565b61023c6102fb366004612958565b6114cc565b61031361030e3660046128c1565b6114fa565b60408051951515865293151560208601529284019190915260608301526001600160a01b0316608082015260a0016101d6565b6008546101c2906001600160401b031681565b6102c27f000000000000000000000000000000000000000000000000000000000000000081565b6102c261038e3660046129ee565b6119fe565b6101a66103a1366004612822565b611d07565b6103fe6103b4366004612822565b6005602081905260009182526040909120805460018201546002830154600384015460048501549490950154929460ff9092169390926001600160a01b0392831692918216911686565b604080519687529415156020870152938501929092526001600160a01b03908116606085015290811660808401521660a082015260c0016101d6565b6104e7610448366004612822565b6040805160c081018252600080825260208201819052918101829052606081018290526080810182905260a0810191909152506001600160a01b03908116600090815260056020818152604092839020835160c08101855281548152600182015460ff1615159281019290925260028101549382019390935260038301548416606082015260048301548416608082015291015490911660a082015290565b6040516101d6919081518152602080830151151590820152604080830151908201526060808301516001600160a01b039081169183019190915260808084015182169083015260a092830151169181019190915260c00190565b6102c261054f3660046128c1565b6000908152600760205260409020546001600160a01b031690565b6101a66105783660046128c1565b611d53565b6101f261058b366004612846565b611e8a565b600a546102c2906001600160a01b031681565b6101a66105b1366004612822565b612111565b6105d8604051806040016040528060038152602001620312e360ec1b81525081565b6040516101d69190612a5c565b6000546001600160a01b031633146106185760405162461bcd60e51b815260040161060f90612ab1565b60405180910390fd5b600480546001600160a01b0319166001600160a01b0392909216919091179055565b60045460009081906001600160a01b031633146106695760405162461bcd60e51b815260040161060f90612ae6565b6001600160a01b03808516600090815260056020818152604092839020835160c0810185528154808252600183015460ff161515938201939093526002820154948101949094526003810154851660608501526004810154851660808501529091015490921660a08201529042106107365760405162461bcd60e51b815260206004820152602a60248201527f4f7074696f6e732063616e206e6f74206265206f70656e65642061667465722060448201526932bc3834b930ba34b7b760b11b606482015260840161060f565b600061074282866121ac565b6002546001600160a01b0388811660009081526006602052604090205492935016908061082f57604051636553690d60e11b81523060048201526001600160a01b0383169063caa6d21a9060240160206040518083038186803b1580156107a857600080fd5b505afa1580156107bc573d6000803e3d6000fd5b505050506040513d601f19601f820116820180604052508101906107e09190612b0e565b6107eb906001612b3d565b600880549192506001600160401b0390911690600061080983612b55565b91906101000a8154816001600160401b0302191690836001600160401b03160217905550505b600254600354604051633718f97560e01b81526001600160a01b03928316600482015290821660248201529089166044820152606481018490526084810182905260a48101889052600160c482015260009073__$b23fc5bca06f28413fdcaeb2fc753ee484$__90633718f9759060e40160206040518083038186803b1580156108b857600080fd5b505af41580156108cc573d6000803e3d6000fd5b505050506040513d601f19601f820116820180604052508101906108f09190612b0e565b60408051848152602081018390529192506001600160a01b038b16917f242b1ddd06a984a28045d1a261fcddca274c5f29be7c894def55d7b938d4c7ce910160405180910390a26109428933836124c2565b506001600160a01b03881660009081526006602052604090205550600193509150509250929050565b6000546001600160a01b031633146109955760405162461bcd60e51b815260040161060f90612ab1565b6008805477ffffffffffffffffffffffffffffffff00000000000000001916600160801b6001600160401b03948516026fffffffffffffffff0000000000000000191617600160401b9290931691909102919091179055565b6000546001600160a01b0316331480610a115750600a546001600160a01b031633145b610a2d5760405162461bcd60e51b815260040161060f90612b7c565b60025460405163d99d13f560e01b8152306004820152602481018390526000916001600160a01b03169063d99d13f59060440160006040518083038186803b158015610a7857600080fd5b505afa158015610a8c573d6000803e3d6000fd5b505050506040513d6000823e601f3d908101601f19168201604052610ab49190810190612c93565b90508060600151600081518110610acd57610acd612db3565b6020026020010151600014610b2f5760405162461bcd60e51b815260206004820152602260248201527f5661756c74206861732073686f727420706f736974696f6e73205b616d6f756e604482015261745d60f01b606482015260840161060f565b80518051600091908290610b4557610b45612db3565b60200260200101516001600160a01b031614610bad5760405162461bcd60e51b815260206004820152602160248201527f5661756c74206861732073686f727420706f736974696f6e73205b746f6b656e6044820152605d60f81b606482015260840161060f565b60008160a00151600081518110610bc657610bc6612db3565b602002602001015111610c1b5760405162461bcd60e51b815260206004820152601760248201527f5661756c7420686173206e6f20636f6c6c61746572616c000000000000000000604482015260640161060f565b6002546040820151805173__$b23fc5bca06f28413fdcaeb2fc753ee484$__9263fd5b6dd5926001600160a01b0390911691600090610c5c57610c5c612db3565b60200260200101518460a00151600081518110610c7b57610c7b612db3565b6020026020010151866040518563ffffffff1660e01b8152600401610ca39493929190612dc9565b60006040518083038186803b158015610cbb57600080fd5b505af4158015610ccf573d6000803e3d6000fd5b50505050610d2f8160400151600081518110610ced57610ced612db3565b6020026020010151600460009054906101000a90046001600160a01b03168360a00151600081518110610d2257610d22612db3565b60200260200101516124c2565b5050565b6000546001600160a01b0316331480610d565750600a546001600160a01b031633145b610d725760405162461bcd60e51b815260040161060f90612b7c565b600080600080610d81856114fa565b9450945050935093508380610d935750825b610dd25760405162461bcd60e51b815260206004820152601060248201526f7661756c74206973206865616c74687960801b604482015260640161060f565b8315610e8657600454610df19082906001600160a01b03163085612541565b6002546003546040516347e200ad60e11b81526001600160a01b03928316600482015290821660248201529082166044820152606481018390526084810186905273__$b23fc5bca06f28413fdcaeb2fc753ee484$__90638fc4015a9060a40160006040518083038186803b158015610e6957600080fd5b505af4158015610e7d573d6000803e3d6000fd5b50505050610f1c565b8215610f1c5760025460405163fd5b6dd560e01b815273__$b23fc5bca06f28413fdcaeb2fc753ee484$__9163fd5b6dd591610ed4916001600160a01b031690859087908b90600401612dc9565b60006040518083038186803b158015610eec57600080fd5b505af4158015610f00573d6000803e3d6000fd5b5050600454610f1c92508391506001600160a01b0316846124c2565b5050505050565b6001600160a01b038082166000908152600560208181526040808420815160c0810183528154808252600183015460ff161515948201949094526002820154928101929092526003810154861660608301526004810154861660808301529092015490931660a08201529091610fd15760405162461bcd60e51b81526020600482015260136024820152726e6f6e2d6578697374656e742073657269657360681b604482015260640161060f565b8051421161101a5760405162461bcd60e51b81526020600482015260166024820152756f7074696f6e206e6f7420706173742065787069727960501b604482015260640161060f565b6001600160a01b038381166000908152600660205260408082205460025491516315afd40960e01b81529190931660048201526024810183905273__$b23fc5bca06f28413fdcaeb2fc753ee484$__906315afd4099060440160206040518083038186803b15801561108b57600080fd5b505af415801561109f573d6000803e3d6000fd5b505050506040513d601f19601f820116820180604052508101906110c39190612b0e565b60a08401516004549192506110e1916001600160a01b0316836124c2565b6040516001600160a01b038616907ff793e1d244354885fc25bda2ff29d75466d8777257b31f0cc2ea3a597df8fcca90600090a2506001949350505050565b6000546001600160a01b0316331461114a5760405162461bcd60e51b815260040161060f90612ab1565b61115460006125db565b565b6001600160a01b038082166000908152600560208181526040808420815160c0810183528154808252600183015460ff161515948201949094526002820154928101929092526003810154861660608301526004810154861660808301529092015490931660a082015290916112045760405162461bcd60e51b81526020600482015260136024820152726e6f6e2d6578697374656e742073657269657360681b604482015260640161060f565b8051421161124d5760405162461bcd60e51b81526020600482015260166024820152756f7074696f6e206e6f7420706173742065787069727960501b604482015260640161060f565b6040516370a0823160e01b81523360048201526000906001600160a01b038516906370a082319060240160206040518083038186803b15801561128f57600080fd5b505afa1580156112a3573d6000803e3d6000fd5b505050506040513d601f19601f820116820180604052508101906112c79190612b0e565b116113145760405162461bcd60e51b815260206004820152601a60248201527f696e73756666696369656e74206f7074696f6e20746f6b656e73000000000000604482015260640161060f565b6040516370a0823160e01b81523360048201526000906001600160a01b038516906370a082319060240160206040518083038186803b15801561135657600080fd5b505afa15801561136a573d6000803e3d6000fd5b505050506040513d601f19601f8201168201806040525081019061138e9190612b0e565b6040516370a0823160e01b8152336004820181905291925061141791869130906001600160a01b038416906370a082319060240160206040518083038186803b1580156113da57600080fd5b505afa1580156113ee573d6000803e3d6000fd5b505050506040513d601f19601f820116820180604052508101906114129190612b0e565b612541565b6002546003546040516302e80dad60e61b81526001600160a01b039283166004820152908216602482015290851660448201526064810182905260009073__$b23fc5bca06f28413fdcaeb2fc753ee484$__9063ba036b409060840160206040518083038186803b15801561148b57600080fd5b505af415801561149f573d6000803e3d6000fd5b505050506040513d601f19601f820116820180604052508101906114c39190612b0e565b95945050505050565b60006114f4826060015183608001518460a0015185600001518660200151876040015161262b565b92915050565b60025460405163d99d13f560e01b815230600482015260248101839052600091829182918291829182916001600160a01b039091169063d99d13f59060440160006040518083038186803b15801561155157600080fd5b505afa158015611565573d6000803e3d6000fd5b505050506040513d6000823e601f3d908101601f1916820160405261158d9190810190612c93565b905060006005600083600001516000815181106115ac576115ac612db3565b6020908102919091018101516001600160a01b0390811683528282019390935260409182016000908120835160c08101855281548152600182015460ff1615158185015260028201548186015260038201548616606082015260048083015487166080830152600590920154861660a0820152845163cf28493f60e01b8152945190965091947f0000000000000000000000000000000000000000000000000000000000000000169363cf28493f938183019390929091829003018186803b15801561167757600080fd5b505afa15801561168b573d6000803e3d6000fd5b505050506040513d601f19601f820116820180604052508101906116af9190612df2565b90506000816001600160a01b0316630b0509fb846060015185608001518660a0015188606001516000815181106116e8576116e8612db3565b602002602001015188604001517f00000000000000000000000000000000000000000000000000000000000000006001600160a01b031663833b1fce6040518163ffffffff1660e01b815260040160206040518083038186803b15801561174e57600080fd5b505afa158015611762573d6000803e3d6000fd5b505050506040513d601f19601f820116820180604052508101906117869190612df2565b60608b01516040516341976e0960e01b81526001600160a01b0391821660048201529116906341976e099060240160206040518083038186803b1580156117cc57600080fd5b505afa1580156117e0573d6000803e3d6000fd5b505050506040513d601f19601f820116820180604052508101906118049190612b0e565b8a600001518b60a001516001600160a01b031663313ce5676040518163ffffffff1660e01b815260040160206040518083038186803b15801561184657600080fd5b505afa15801561185a573d6000803e3d6000fd5b505050506040513d601f19601f8201168201806040525081019061187e9190612e0f565b8c602001516040518a63ffffffff1660e01b81526004016118a799989796959493929190612e32565b60206040518083038186803b1580156118bf57600080fd5b505afa1580156118d3573d6000803e3d6000fd5b505050506040513d601f19601f820116820180604052508101906118f79190612b0e565b905060008460a0015160008151811061191257611912612db3565b60200260200101519050816009548261192b9190612e84565b6119359190612ea3565b600854909850600160401b90046001600160401b03168811156119915760095460085460019a5061197690600160401b90046001600160401b031684612e84565b6119809190612ea3565b61198a9082612ec5565b96506119e9565b600854600160801b90046001600160401b03168810156119e95760095460085460019b508291906119d290600160401b90046001600160401b031685612e84565b6119dc9190612ea3565b6119e69190612ec5565b96505b8360a001519550505050505091939590929450565b6004546000906001600160a01b03163314611a2b5760405162461bcd60e51b815260040161060f90612ae6565b428511611a6c5760405162461bcd60e51b815260206004820152600f60248201526e105b1c9958591e48195e1c1a5c9959608a1b604482015260640161060f565b6000611a78848461269c565b90506000611a8a8989868a8a8761262b565b600154604051630e4e99e360e01b81526001600160a01b03918216600482015286821660248201528b82166044820152908a1660648201526084810184905260a4810189905287151560c482015290915060009073__$b23fc5bca06f28413fdcaeb2fc753ee484$__90630e4e99e39060e40160206040518083038186803b158015611b1557600080fd5b505af4158015611b29573d6000803e3d6000fd5b505050506040513d601f19601f82011682018060405250810190611b4d9190612df2565b90506040518060c0016040528089815260200188151581526020018481526020018b6001600160a01b031681526020018a6001600160a01b03168152602001866001600160a01b031681525060056000836001600160a01b03166001600160a01b031681526020019081526020016000206000820151816000015560208201518160010160006101000a81548160ff0219169083151502179055506040820151816002015560608201518160030160006101000a8154816001600160a01b0302191690836001600160a01b0316021790555060808201518160040160006101000a8154816001600160a01b0302191690836001600160a01b0316021790555060a08201518160050160006101000a8154816001600160a01b0302191690836001600160a01b03160217905550905050806007600084815260200190815260200160002060006101000a8154816001600160a01b0302191690836001600160a01b031602179055507ff434a81a703b3b06f1dd290881e157c47d663389196c88db9f57819ec6f6ae9f81604051611cf291906001600160a01b0391909116815260200190565b60405180910390a19998505050505050505050565b6000546001600160a01b03163314611d315760405162461bcd60e51b815260040161060f90612ab1565b600a80546001600160a01b0319166001600160a01b0392909216919091179055565b6000546001600160a01b0316331480611d765750600a546001600160a01b031633145b611d925760405162461bcd60e51b815260040161060f90612b7c565b6000806000611da0846114fa565b945094505050925082611de85760405162461bcd60e51b815260206004820152601060248201526f7661756c74206973206865616c74687960801b604482015260640161060f565b611df481333085612541565b6002546003546040516347e200ad60e11b81526001600160a01b03928316600482015290821660248201529082166044820152606481018390526084810185905273__$b23fc5bca06f28413fdcaeb2fc753ee484$__90638fc4015a9060a40160006040518083038186803b158015611e6c57600080fd5b505af4158015611e80573d6000803e3d6000fd5b5050505050505050565b60045460009081906001600160a01b03163314611eb95760405162461bcd60e51b815260040161060f90612ae6565b6001600160a01b03808516600090815260056020818152604092839020835160c0810185528154808252600183015460ff161515938201939093526002820154948101949094526003810154851660608501526004810154851660808501529091015490921660a0820152904210611f6c5760405162461bcd60e51b815260206004820152601660248201527513dc1d1a5bdb88185b1c9958591e48195e1c1a5c995960521b604482015260640161060f565b6001600160a01b038516600081815260066020908152604080832054815163313ce56760e01b815291519094612002938a93919263313ce567926004808201939291829003018186803b158015611fc257600080fd5b505afa158015611fd6573d6000803e3d6000fd5b505050506040513d601f19601f82011682018060405250810190611ffa9190612e0f565b60ff1661277b565b905061201087333084612541565b600254604051633f83640160e21b815260009173__$b23fc5bca06f28413fdcaeb2fc753ee484$__9163fe0d90049161205d916001600160a01b03909116908c9087908990600401612dc9565b60206040518083038186803b15801561207557600080fd5b505af4158015612089573d6000803e3d6000fd5b505050506040513d601f19601f820116820180604052508101906120ad9190612b0e565b90506120be8460a0015133836124c2565b60408051848152602081018990526001600160a01b038a16917f8b307ec2cdec0ea71518d1d82e315a365c5789f3e02e4466b9d886b3474b1793910160405180910390a260019890975095505050505050565b6000546001600160a01b0316331461213b5760405162461bcd60e51b815260040161060f90612ab1565b6001600160a01b0381166121a05760405162461bcd60e51b815260206004820152602660248201527f4f776e61626c653a206e6577206f776e657220697320746865207a65726f206160448201526564647265737360d01b606482015260840161060f565b6121a9816125db565b50565b6000807f00000000000000000000000000000000000000000000000000000000000000006001600160a01b031663cf28493f6040518163ffffffff1660e01b815260040160206040518083038186803b15801561220857600080fd5b505afa15801561221c573d6000803e3d6000fd5b505050506040513d601f19601f820116820180604052508101906122409190612df2565b90506000816001600160a01b0316630b0509fb866060015187608001518860a001516402540be400896122739190612ea3565b8a604001517f00000000000000000000000000000000000000000000000000000000000000006001600160a01b031663833b1fce6040518163ffffffff1660e01b815260040160206040518083038186803b1580156122d157600080fd5b505afa1580156122e5573d6000803e3d6000fd5b505050506040513d601f19601f820116820180604052508101906123099190612df2565b60608d01516040516341976e0960e01b81526001600160a01b0391821660048201529116906341976e099060240160206040518083038186803b15801561234f57600080fd5b505afa158015612363573d6000803e3d6000fd5b505050506040513d601f19601f820116820180604052508101906123879190612b0e565b8c600001518d60a001516001600160a01b031663313ce5676040518163ffffffff1660e01b815260040160206040518083038186803b1580156123c957600080fd5b505afa1580156123dd573d6000803e3d6000fd5b505050506040513d601f19601f820116820180604052508101906124019190612e0f565b8e602001516040518a63ffffffff1660e01b815260040161242a99989796959493929190612e32565b60206040518083038186803b15801561244257600080fd5b505afa158015612456573d6000803e3d6000fd5b505050506040513d601f19601f8201168201806040525081019061247a9190612b0e565b6009546008549192509061249e90600160401b90046001600160401b031683612e84565b6124a89190612ea3565b90506124ba8560a00151333084612541565b949350505050565b600060405163a9059cbb60e01b81526001600160a01b03841660048201528260248201526000806044836000895af19150506124fd816127c6565b61253b5760405162461bcd60e51b815260206004820152600f60248201526e1514905394d1915497d19052531151608a1b604482015260640161060f565b50505050565b600084905060006040516323b872dd60e01b81526001600160a01b03861660048201526001600160a01b03851660248201528360448201526000806064836000875af1915050612590816127c6565b6125d35760405162461bcd60e51b81526020600482015260146024820152731514905394d1915497d19493d357d1905253115160621b604482015260640161060f565b505050505050565b600080546001600160a01b038381166001600160a01b0319831681178455604051919092169283917f8be0079c531659141344cd1fd0a4f28419497f9722a3daafe3b4186f6b6457e09190a35050565b6040516bffffffffffffffffffffffff19606088811b8216602084015287811b8216603484015286901b166048820152605c810184905282151560f81b607c820152607d8101829052600090609d016040516020818303038152906040528051906020012090509695505050505050565b6000806126ae6402540be40085612ea3565b90506000836001600160a01b031663313ce5676040518163ffffffff1660e01b815260040160206040518083038186803b1580156126eb57600080fd5b505afa1580156126ff573d6000803e3d6000fd5b505050506040513d601f19601f820116820180604052508101906127239190612e0f565b60ff16905060088110612738575090506114f4565b6000612745826008612ec5565b905061275281600a612fc0565b61275d82600a612fc0565b6127679085612ea3565b6127719190612e84565b9695505050505050565b600060128211156127a2576040516342d94fd760e11b81526004810183905260240161060f565b60006127af836012612ec5565b90506127bc81600a612fc0565b6124ba9085612ea3565b60003d826127d857806000803e806000fd5b80602081146127f05780156128015760009250612806565b816000803e60005115159250612806565b600192505b5050919050565b6001600160a01b03811681146121a957600080fd5b60006020828403121561283457600080fd5b813561283f8161280d565b9392505050565b6000806040838503121561285957600080fd5b82356128648161280d565b946020939093013593505050565b80356001600160401b038116811461288957600080fd5b919050565b600080604083850312156128a157600080fd5b6128aa83612872565b91506128b860208401612872565b90509250929050565b6000602082840312156128d357600080fd5b5035919050565b634e487b7160e01b600052604160045260246000fd5b60405160c081016001600160401b0381118282101715612912576129126128da565b60405290565b604051601f8201601f191681016001600160401b0381118282101715612940576129406128da565b604052919050565b8035801515811461288957600080fd5b600060c0828403121561296a57600080fd5b60405160c081018181106001600160401b038211171561298c5761298c6128da565b6040528235815261299f60208401612948565b60208201526040830135604082015260608301356129bc8161280d565b606082015260808301356129cf8161280d565b608082015260a08301356129e28161280d565b60a08201529392505050565b60008060008060008060c08789031215612a0757600080fd5b8635612a128161280d565b95506020870135612a228161280d565b945060408701359350612a3760608801612948565b92506080870135915060a0870135612a4e8161280d565b809150509295509295509295565b600060208083528351808285015260005b81811015612a8957858101830151858201604001528201612a6d565b81811115612a9b576000604083870101525b50601f01601f1916929092016040019392505050565b6020808252818101527f4f776e61626c653a2063616c6c6572206973206e6f7420746865206f776e6572604082015260600190565b6020808252600e908201526d085b1a5c5d5a591a5d1e541bdbdb60921b604082015260600190565b600060208284031215612b2057600080fd5b5051919050565b634e487b7160e01b600052601160045260246000fd5b60008219821115612b5057612b50612b27565b500190565b60006001600160401b0380831681811415612b7257612b72612b27565b6001019392505050565b6020808252600b908201526a08585d5d1a1bdc9a5cd95960aa1b604082015260600190565b60006001600160401b03821115612bba57612bba6128da565b5060051b60200190565b600082601f830112612bd557600080fd5b81516020612bea612be583612ba1565b612918565b82815260059290921b84018101918181019086841115612c0957600080fd5b8286015b84811015612c2d578051612c208161280d565b8352918301918301612c0d565b509695505050505050565b600082601f830112612c4957600080fd5b81516020612c59612be583612ba1565b82815260059290921b84018101918181019086841115612c7857600080fd5b8286015b84811015612c2d5780518352918301918301612c7c565b600060208284031215612ca557600080fd5b81516001600160401b0380821115612cbc57600080fd5b9083019060c08286031215612cd057600080fd5b612cd86128f0565b825182811115612ce757600080fd5b612cf387828601612bc4565b825250602083015182811115612d0857600080fd5b612d1487828601612bc4565b602083015250604083015182811115612d2c57600080fd5b612d3887828601612bc4565b604083015250606083015182811115612d5057600080fd5b612d5c87828601612c38565b606083015250608083015182811115612d7457600080fd5b612d8087828601612c38565b60808301525060a083015182811115612d9857600080fd5b612da487828601612c38565b60a08301525095945050505050565b634e487b7160e01b600052603260045260246000fd5b6001600160a01b0394851681529290931660208301526040820152606081019190915260800190565b600060208284031215612e0457600080fd5b815161283f8161280d565b600060208284031215612e2157600080fd5b815160ff8116811461283f57600080fd5b6001600160a01b03998a16815297891660208901529590971660408701526060860193909352608085019190915260a084015260c083015260ff90921660e08201529015156101008201526101200190565b6000816000190483118215151615612e9e57612e9e612b27565b500290565b600082612ec057634e487b7160e01b600052601260045260246000fd5b500490565b600082821015612ed757612ed7612b27565b500390565b600181815b80851115612f17578160001904821115612efd57612efd612b27565b80851615612f0a57918102915b93841c9390800290612ee1565b509250929050565b600082612f2e575060016114f4565b81612f3b575060006114f4565b8160018114612f515760028114612f5b57612f77565b60019150506114f4565b60ff841115612f6c57612f6c612b27565b50506001821b6114f4565b5060208310610133831016604e8410600b8410161715612f9a575081810a6114f4565b612fa48383612edc565b8060001904821115612fb857612fb8612b27565b029392505050565b600061283f8383612f1f56fea26469706673582212208854aa9f7291d53d6a8306b5335b48caf6ee6c24def944a00772d6cd607bb0b064736f6c63430008090033",
  "linkReferences": {
    "contracts/libraries/OpynInteractionsV2.sol": {
      "OpynInteractionsV2": [
        {
          "length": 20,
          "start": 2679
        },
        {
          "length": 20,
          "start": 3611
        },
        {
          "length": 20,
          "start": 4136
        },
        {
          "length": 20,
          "start": 4242
        },
        {
          "length": 20,
          "start": 4682
        },
        {
          "length": 20,
          "start": 5706
        },
        {
          "length": 20,
          "start": 7380
        },
        {
          "length": 20,
          "start": 8235
        },
        {
          "length": 20,
          "start": 8729
        }
      ]
    }
  },
  "deployedLinkReferences": {
    "contracts/libraries/OpynInteractionsV2.sol": {
      "OpynInteractionsV2": [
        {
          "length": 20,
          "start": 2179
        },
        {
          "length": 20,
          "start": 3111
        },
        {
          "length": 20,
          "start": 3636
        },
        {
          "length": 20,
          "start": 3742
        },
        {
          "length": 20,
          "start": 4182
        },
        {
          "length": 20,
          "start": 5206
        },
        {
          "length": 20,
          "start": 6880
        },
        {
          "length": 20,
          "start": 7735
        },
        {
          "length": 20,
          "start": 8229
        }
      ]
    }
  }
}