{
  "_format": "hh-sol-artifact-1",
  "contractName": "ClearingHouse",
  "sourceName": "@rage/core/contracts/protocol/clearinghouse/ClearingHouse.sol",
  "abi": [
    {
      "inputs": [
        {
          "internalType": "address",
          "name": "senderAddress",
          "type": "address"
        }
      ],
      "name": "AccessDenied",
      "type": "error"
    },
    {
      "inputs": [],
      "name": "CannotPauseIfUnpauseInProgress",
      "type": "error"
    },
    {
      "inputs": [],
      "name": "CannotUnpauseIfPauseInProgress",
      "type": "error"
    },
    {
      "inputs": [
        {
          "internalType": "uint32",
          "name": "collateralId",
          "type": "uint32"
        }
      ],
      "name": "CollateralDoesNotExist",
      "type": "error"
    },
    {
      "inputs": [
        {
          "internalType": "uint32",
          "name": "collateralId",
          "type": "uint32"
        }
      ],
      "name": "CollateralNotAllowedForUse",
      "type": "error"
    },
    {
      "inputs": [
        {
          "internalType": "uint160",
          "name": "sqrtPriceX96",
          "type": "uint160"
        }
      ],
      "name": "IllegalSqrtPrice",
      "type": "error"
    },
    {
      "inputs": [
        {
          "internalType": "contract IERC20",
          "name": "incorrectAddress",
          "type": "address"
        },
        {
          "internalType": "contract IERC20",
          "name": "correctAddress",
          "type": "address"
        }
      ],
      "name": "IncorrectCollateralAddress",
      "type": "error"
    },
    {
      "inputs": [
        {
          "internalType": "address",
          "name": "invalidAddress",
          "type": "address"
        }
      ],
      "name": "InvalidCollateralAddress",
      "type": "error"
    },
    {
      "inputs": [
        {
          "internalType": "enum IClearingHouseEnums.MulticallOperationType",
          "name": "multicallOperationType",
          "type": "uint8"
        }
      ],
      "name": "InvalidMulticallOperationType",
      "type": "error"
    },
    {
      "inputs": [
        {
          "internalType": "uint256",
          "name": "errorCode",
          "type": "uint256"
        }
      ],
      "name": "InvalidSetting",
      "type": "error"
    },
    {
      "inputs": [],
      "name": "InvalidTokenLiquidationParameters",
      "type": "error"
    },
    {
      "inputs": [
        {
          "internalType": "int256",
          "name": "keeperFee",
          "type": "int256"
        }
      ],
      "name": "KeeperFeeNotPositive",
      "type": "error"
    },
    {
      "inputs": [
        {
          "internalType": "uint256",
          "name": "notionalValue",
          "type": "uint256"
        }
      ],
      "name": "LowNotionalValue",
      "type": "error"
    },
    {
      "inputs": [],
      "name": "NotRageTradeFactory",
      "type": "error"
    },
    {
      "inputs": [
        {
          "internalType": "uint32",
          "name": "poolId",
          "type": "uint32"
        }
      ],
      "name": "PoolDoesNotExist",
      "type": "error"
    },
    {
      "inputs": [
        {
          "internalType": "uint32",
          "name": "poolId",
          "type": "uint32"
        }
      ],
      "name": "PoolNotAllowedForTrade",
      "type": "error"
    },
    {
      "inputs": [
        {
          "internalType": "uint256",
          "name": "value",
          "type": "uint256"
        }
      ],
      "name": "SafeCast_UInt224Overflow",
      "type": "error"
    },
    {
      "inputs": [],
      "name": "SlippageBeyondTolerance",
      "type": "error"
    },
    {
      "inputs": [],
      "name": "T",
      "type": "error"
    },
    {
      "inputs": [],
      "name": "Unauthorised",
      "type": "error"
    },
    {
      "inputs": [],
      "name": "ZeroAddress",
      "type": "error"
    },
    {
      "inputs": [],
      "name": "ZeroAmount",
      "type": "error"
    },
    {
      "anonymous": false,
      "inputs": [
        {
          "indexed": true,
          "internalType": "address",
          "name": "ownerAddress",
          "type": "address"
        },
        {
          "indexed": false,
          "internalType": "uint256",
          "name": "accountId",
          "type": "uint256"
        }
      ],
      "name": "AccountCreated",
      "type": "event"
    },
    {
      "anonymous": false,
      "inputs": [
        {
          "indexed": false,
          "internalType": "contract IERC20",
          "name": "cToken",
          "type": "address"
        },
        {
          "components": [
            {
              "internalType": "contract IOracle",
              "name": "oracle",
              "type": "address"
            },
            {
              "internalType": "uint32",
              "name": "twapDuration",
              "type": "uint32"
            },
            {
              "internalType": "bool",
              "name": "isAllowedForDeposit",
              "type": "bool"
            }
          ],
          "indexed": false,
          "internalType": "struct IClearingHouseStructures.CollateralSettings",
          "name": "cTokenInfo",
          "type": "tuple"
        }
      ],
      "name": "CollateralSettingsUpdated",
      "type": "event"
    },
    {
      "anonymous": false,
      "inputs": [
        {
          "indexed": true,
          "internalType": "address",
          "name": "previousGovernancePending",
          "type": "address"
        },
        {
          "indexed": true,
          "internalType": "address",
          "name": "newGovernancePending",
          "type": "address"
        }
      ],
      "name": "GovernancePending",
      "type": "event"
    },
    {
      "anonymous": false,
      "inputs": [
        {
          "indexed": true,
          "internalType": "address",
          "name": "previousGovernance",
          "type": "address"
        },
        {
          "indexed": true,
          "internalType": "address",
          "name": "newGovernance",
          "type": "address"
        }
      ],
      "name": "GovernanceTransferred",
      "type": "event"
    },
    {
      "anonymous": false,
      "inputs": [
        {
          "indexed": false,
          "internalType": "uint8",
          "name": "version",
          "type": "uint8"
        }
      ],
      "name": "Initialized",
      "type": "event"
    },
    {
      "anonymous": false,
      "inputs": [
        {
          "indexed": false,
          "internalType": "address",
          "name": "account",
          "type": "address"
        }
      ],
      "name": "Paused",
      "type": "event"
    },
    {
      "anonymous": false,
      "inputs": [
        {
          "indexed": false,
          "internalType": "bool",
          "name": "paused",
          "type": "bool"
        }
      ],
      "name": "PausedUpdated",
      "type": "event"
    },
    {
      "anonymous": false,
      "inputs": [
        {
          "indexed": false,
          "internalType": "uint32",
          "name": "poolId",
          "type": "uint32"
        },
        {
          "components": [
            {
              "internalType": "uint16",
              "name": "initialMarginRatioBps",
              "type": "uint16"
            },
            {
              "internalType": "uint16",
              "name": "maintainanceMarginRatioBps",
              "type": "uint16"
            },
            {
              "internalType": "uint16",
              "name": "maxVirtualPriceDeviationRatioBps",
              "type": "uint16"
            },
            {
              "internalType": "uint32",
              "name": "twapDuration",
              "type": "uint32"
            },
            {
              "internalType": "bool",
              "name": "isAllowedForTrade",
              "type": "bool"
            },
            {
              "internalType": "bool",
              "name": "isCrossMargined",
              "type": "bool"
            },
            {
              "internalType": "contract IOracle",
              "name": "oracle",
              "type": "address"
            }
          ],
          "indexed": false,
          "internalType": "struct IClearingHouseStructures.PoolSettings",
          "name": "settings",
          "type": "tuple"
        }
      ],
      "name": "PoolSettingsUpdated",
      "type": "event"
    },
    {
      "anonymous": false,
      "inputs": [
        {
          "components": [
            {
              "internalType": "uint16",
              "name": "rangeLiquidationFeeFraction",
              "type": "uint16"
            },
            {
              "internalType": "uint16",
              "name": "tokenLiquidationFeeFraction",
              "type": "uint16"
            },
            {
              "internalType": "uint16",
              "name": "closeFactorMMThresholdBps",
              "type": "uint16"
            },
            {
              "internalType": "uint16",
              "name": "partialLiquidationCloseFactorBps",
              "type": "uint16"
            },
            {
              "internalType": "uint16",
              "name": "insuranceFundFeeShareBps",
              "type": "uint16"
            },
            {
              "internalType": "uint16",
              "name": "liquidationSlippageSqrtToleranceBps",
              "type": "uint16"
            },
            {
              "internalType": "uint64",
              "name": "maxRangeLiquidationFees",
              "type": "uint64"
            },
            {
              "internalType": "uint64",
              "name": "minNotionalLiquidatable",
              "type": "uint64"
            }
          ],
          "indexed": false,
          "internalType": "struct IClearingHouseStructures.LiquidationParams",
          "name": "liquidationParams",
          "type": "tuple"
        },
        {
          "indexed": false,
          "internalType": "uint256",
          "name": "removeLimitOrderFee",
          "type": "uint256"
        },
        {
          "indexed": false,
          "internalType": "uint256",
          "name": "minimumOrderNotional",
          "type": "uint256"
        },
        {
          "indexed": false,
          "internalType": "uint256",
          "name": "minRequiredMargin",
          "type": "uint256"
        }
      ],
      "name": "ProtocolSettingsUpdated",
      "type": "event"
    },
    {
      "anonymous": false,
      "inputs": [
        {
          "indexed": true,
          "internalType": "address",
          "name": "previousTeamMultisigPending",
          "type": "address"
        },
        {
          "indexed": true,
          "internalType": "address",
          "name": "newTeamMultisigPending",
          "type": "address"
        }
      ],
      "name": "TeamMultisigPending",
      "type": "event"
    },
    {
      "anonymous": false,
      "inputs": [
        {
          "indexed": true,
          "internalType": "address",
          "name": "previousTeamMultisig",
          "type": "address"
        },
        {
          "indexed": true,
          "internalType": "address",
          "name": "newTeamMultisig",
          "type": "address"
        }
      ],
      "name": "TeamMultisigTransferred",
      "type": "event"
    },
    {
      "anonymous": false,
      "inputs": [
        {
          "indexed": false,
          "internalType": "address",
          "name": "account",
          "type": "address"
        }
      ],
      "name": "Unpaused",
      "type": "event"
    },
    {
      "inputs": [],
      "name": "acceptGovernanceTransfer",
      "outputs": [],
      "stateMutability": "nonpayable",
      "type": "function"
    },
    {
      "inputs": [],
      "name": "acceptTeamMultisigTransfer",
      "outputs": [],
      "stateMutability": "nonpayable",
      "type": "function"
    },
    {
      "inputs": [],
      "name": "createAccount",
      "outputs": [
        {
          "internalType": "uint256",
          "name": "newAccountId",
          "type": "uint256"
        }
      ],
      "stateMutability": "nonpayable",
      "type": "function"
    },
    {
      "inputs": [
        {
          "internalType": "uint32",
          "name": "collateralId",
          "type": "uint32"
        },
        {
          "internalType": "uint256",
          "name": "amount",
          "type": "uint256"
        }
      ],
      "name": "createAccountAndAddMargin",
      "outputs": [
        {
          "internalType": "uint256",
          "name": "newAccountId",
          "type": "uint256"
        }
      ],
      "stateMutability": "nonpayable",
      "type": "function"
    },
    {
      "inputs": [
        {
          "internalType": "bytes32",
          "name": "slot",
          "type": "bytes32"
        }
      ],
      "name": "extsload",
      "outputs": [
        {
          "internalType": "bytes32",
          "name": "val",
          "type": "bytes32"
        }
      ],
      "stateMutability": "view",
      "type": "function"
    },
    {
      "inputs": [
        {
          "internalType": "bytes32[]",
          "name": "slots",
          "type": "bytes32[]"
        }
      ],
      "name": "extsload",
      "outputs": [
        {
          "internalType": "bytes32[]",
          "name": "",
          "type": "bytes32[]"
        }
      ],
      "stateMutability": "view",
      "type": "function"
    },
    {
      "inputs": [
        {
          "internalType": "uint256",
          "name": "accountId",
          "type": "uint256"
        },
        {
          "internalType": "bool",
          "name": "isInitialMargin",
          "type": "bool"
        }
      ],
      "name": "getAccountMarketValueAndRequiredMargin",
      "outputs": [
        {
          "internalType": "int256",
          "name": "marketValue",
          "type": "int256"
        },
        {
          "internalType": "int256",
          "name": "requiredMargin",
          "type": "int256"
        }
      ],
      "stateMutability": "view",
      "type": "function"
    },
    {
      "inputs": [
        {
          "internalType": "uint256",
          "name": "accountId",
          "type": "uint256"
        }
      ],
      "name": "getAccountNetProfit",
      "outputs": [
        {
          "internalType": "int256",
          "name": "accountNetProfit",
          "type": "int256"
        }
      ],
      "stateMutability": "view",
      "type": "function"
    },
    {
      "inputs": [
        {
          "internalType": "uint256",
          "name": "accountId",
          "type": "uint256"
        },
        {
          "internalType": "uint32",
          "name": "poolId",
          "type": "uint32"
        }
      ],
      "name": "getAccountNetTokenPosition",
      "outputs": [
        {
          "internalType": "int256",
          "name": "netPosition",
          "type": "int256"
        }
      ],
      "stateMutability": "view",
      "type": "function"
    },
    {
      "inputs": [
        {
          "internalType": "uint32",
          "name": "poolId",
          "type": "uint32"
        }
      ],
      "name": "getRealTwapPriceX128",
      "outputs": [
        {
          "internalType": "uint256",
          "name": "realPriceX128",
          "type": "uint256"
        }
      ],
      "stateMutability": "view",
      "type": "function"
    },
    {
      "inputs": [
        {
          "internalType": "uint32",
          "name": "poolId",
          "type": "uint32"
        }
      ],
      "name": "getVirtualTwapPriceX128",
      "outputs": [
        {
          "internalType": "uint256",
          "name": "virtualPriceX128",
          "type": "uint256"
        }
      ],
      "stateMutability": "view",
      "type": "function"
    },
    {
      "inputs": [],
      "name": "governance",
      "outputs": [
        {
          "internalType": "address",
          "name": "",
          "type": "address"
        }
      ],
      "stateMutability": "view",
      "type": "function"
    },
    {
      "inputs": [],
      "name": "governancePending",
      "outputs": [
        {
          "internalType": "address",
          "name": "",
          "type": "address"
        }
      ],
      "stateMutability": "view",
      "type": "function"
    },
    {
      "inputs": [
        {
          "internalType": "address",
          "name": "_rageTradeFactoryAddress",
          "type": "address"
        },
        {
          "internalType": "address",
          "name": "initialGovernance",
          "type": "address"
        },
        {
          "internalType": "address",
          "name": "initialTeamMultisig",
          "type": "address"
        },
        {
          "internalType": "contract IERC20",
          "name": "_defaultCollateralToken",
          "type": "address"
        },
        {
          "internalType": "contract IOracle",
          "name": "_defaultCollateralTokenOracle",
          "type": "address"
        },
        {
          "internalType": "contract IInsuranceFund",
          "name": "_insuranceFund",
          "type": "address"
        },
        {
          "internalType": "contract IVQuote",
          "name": "_vQuote",
          "type": "address"
        }
      ],
      "name": "initialize",
      "outputs": [],
      "stateMutability": "nonpayable",
      "type": "function"
    },
    {
      "inputs": [
        {
          "internalType": "address",
          "name": "newGovernancePending",
          "type": "address"
        }
      ],
      "name": "initiateGovernanceTransfer",
      "outputs": [],
      "stateMutability": "nonpayable",
      "type": "function"
    },
    {
      "inputs": [
        {
          "internalType": "address",
          "name": "newTeamMultisigPending",
          "type": "address"
        }
      ],
      "name": "initiateTeamMultisigTransfer",
      "outputs": [],
      "stateMutability": "nonpayable",
      "type": "function"
    },
    {
      "inputs": [],
      "name": "insuranceFund",
      "outputs": [
        {
          "internalType": "contract IInsuranceFund",
          "name": "",
          "type": "address"
        }
      ],
      "stateMutability": "view",
      "type": "function"
    },
    {
      "inputs": [
        {
          "internalType": "uint256",
          "name": "accountId",
          "type": "uint256"
        }
      ],
      "name": "liquidateLiquidityPositions",
      "outputs": [],
      "stateMutability": "nonpayable",
      "type": "function"
    },
    {
      "inputs": [
        {
          "internalType": "uint256",
          "name": "targetAccountId",
          "type": "uint256"
        },
        {
          "internalType": "uint32",
          "name": "poolId",
          "type": "uint32"
        }
      ],
      "name": "liquidateTokenPosition",
      "outputs": [
        {
          "internalType": "int256",
          "name": "keeperFee",
          "type": "int256"
        }
      ],
      "stateMutability": "nonpayable",
      "type": "function"
    },
    {
      "inputs": [
        {
          "internalType": "bytes[]",
          "name": "data",
          "type": "bytes[]"
        }
      ],
      "name": "multicall",
      "outputs": [
        {
          "internalType": "bytes[]",
          "name": "results",
          "type": "bytes[]"
        }
      ],
      "stateMutability": "payable",
      "type": "function"
    },
    {
      "inputs": [
        {
          "internalType": "uint256",
          "name": "accountId",
          "type": "uint256"
        },
        {
          "components": [
            {
              "internalType": "enum IClearingHouseEnums.MulticallOperationType",
              "name": "operationType",
              "type": "uint8"
            },
            {
              "internalType": "bytes",
              "name": "data",
              "type": "bytes"
            }
          ],
          "internalType": "struct IClearingHouseStructures.MulticallOperation[]",
          "name": "operations",
          "type": "tuple[]"
        }
      ],
      "name": "multicallWithSingleMarginCheck",
      "outputs": [
        {
          "internalType": "bytes[]",
          "name": "results",
          "type": "bytes[]"
        }
      ],
      "stateMutability": "nonpayable",
      "type": "function"
    },
    {
      "inputs": [],
      "name": "numAccounts",
      "outputs": [
        {
          "internalType": "uint256",
          "name": "",
          "type": "uint256"
        }
      ],
      "stateMutability": "view",
      "type": "function"
    },
    {
      "inputs": [
        {
          "internalType": "uint256",
          "name": "numberOfPoolsToUpdateInThisTx",
          "type": "uint256"
        }
      ],
      "name": "pause",
      "outputs": [],
      "stateMutability": "nonpayable",
      "type": "function"
    },
    {
      "inputs": [],
      "name": "paused",
      "outputs": [
        {
          "internalType": "bool",
          "name": "",
          "type": "bool"
        }
      ],
      "stateMutability": "view",
      "type": "function"
    },
    {
      "inputs": [],
      "name": "rageTradeFactoryAddress",
      "outputs": [
        {
          "internalType": "address",
          "name": "",
          "type": "address"
        }
      ],
      "stateMutability": "view",
      "type": "function"
    },
    {
      "inputs": [
        {
          "components": [
            {
              "internalType": "contract IVToken",
              "name": "vToken",
              "type": "address"
            },
            {
              "internalType": "contract IUniswapV3Pool",
              "name": "vPool",
              "type": "address"
            },
            {
              "internalType": "contract IVPoolWrapper",
              "name": "vPoolWrapper",
              "type": "address"
            },
            {
              "components": [
                {
                  "internalType": "uint16",
                  "name": "initialMarginRatioBps",
                  "type": "uint16"
                },
                {
                  "internalType": "uint16",
                  "name": "maintainanceMarginRatioBps",
                  "type": "uint16"
                },
                {
                  "internalType": "uint16",
                  "name": "maxVirtualPriceDeviationRatioBps",
                  "type": "uint16"
                },
                {
                  "internalType": "uint32",
                  "name": "twapDuration",
                  "type": "uint32"
                },
                {
                  "internalType": "bool",
                  "name": "isAllowedForTrade",
                  "type": "bool"
                },
                {
                  "internalType": "bool",
                  "name": "isCrossMargined",
                  "type": "bool"
                },
                {
                  "internalType": "contract IOracle",
                  "name": "oracle",
                  "type": "address"
                }
              ],
              "internalType": "struct IClearingHouseStructures.PoolSettings",
              "name": "settings",
              "type": "tuple"
            }
          ],
          "internalType": "struct IClearingHouseStructures.Pool",
          "name": "poolInfo",
          "type": "tuple"
        }
      ],
      "name": "registerPool",
      "outputs": [],
      "stateMutability": "nonpayable",
      "type": "function"
    },
    {
      "inputs": [
        {
          "internalType": "uint256",
          "name": "accountId",
          "type": "uint256"
        },
        {
          "internalType": "uint32",
          "name": "poolId",
          "type": "uint32"
        },
        {
          "internalType": "int24",
          "name": "tickLower",
          "type": "int24"
        },
        {
          "internalType": "int24",
          "name": "tickUpper",
          "type": "int24"
        }
      ],
      "name": "removeLimitOrder",
      "outputs": [],
      "stateMutability": "nonpayable",
      "type": "function"
    },
    {
      "inputs": [
        {
          "internalType": "uint256",
          "name": "accountId",
          "type": "uint256"
        }
      ],
      "name": "settleProfit",
      "outputs": [],
      "stateMutability": "nonpayable",
      "type": "function"
    },
    {
      "inputs": [
        {
          "internalType": "uint256",
          "name": "accountId",
          "type": "uint256"
        },
        {
          "internalType": "uint32",
          "name": "poolId",
          "type": "uint32"
        },
        {
          "components": [
            {
              "internalType": "int256",
              "name": "amount",
              "type": "int256"
            },
            {
              "internalType": "uint160",
              "name": "sqrtPriceLimit",
              "type": "uint160"
            },
            {
              "internalType": "bool",
              "name": "isNotional",
              "type": "bool"
            },
            {
              "internalType": "bool",
              "name": "isPartialAllowed",
              "type": "bool"
            },
            {
              "internalType": "bool",
              "name": "settleProfit",
              "type": "bool"
            }
          ],
          "internalType": "struct IClearingHouseStructures.SwapParams",
          "name": "swapParams",
          "type": "tuple"
        }
      ],
      "name": "swapToken",
      "outputs": [
        {
          "internalType": "int256",
          "name": "vTokenAmountOut",
          "type": "int256"
        },
        {
          "internalType": "int256",
          "name": "vQuoteAmountOut",
          "type": "int256"
        }
      ],
      "stateMutability": "nonpayable",
      "type": "function"
    },
    {
      "inputs": [],
      "name": "teamMultisig",
      "outputs": [
        {
          "internalType": "address",
          "name": "",
          "type": "address"
        }
      ],
      "stateMutability": "view",
      "type": "function"
    },
    {
      "inputs": [],
      "name": "teamMultisigPending",
      "outputs": [
        {
          "internalType": "address",
          "name": "",
          "type": "address"
        }
      ],
      "stateMutability": "view",
      "type": "function"
    },
    {
      "inputs": [
        {
          "internalType": "uint256",
          "name": "numberOfPoolsToUpdateInThisTx",
          "type": "uint256"
        }
      ],
      "name": "unpause",
      "outputs": [],
      "stateMutability": "nonpayable",
      "type": "function"
    },
    {
      "inputs": [
        {
          "internalType": "contract IERC20",
          "name": "cToken",
          "type": "address"
        },
        {
          "components": [
            {
              "internalType": "contract IOracle",
              "name": "oracle",
              "type": "address"
            },
            {
              "internalType": "uint32",
              "name": "twapDuration",
              "type": "uint32"
            },
            {
              "internalType": "bool",
              "name": "isAllowedForDeposit",
              "type": "bool"
            }
          ],
          "internalType": "struct IClearingHouseStructures.CollateralSettings",
          "name": "collateralSettings",
          "type": "tuple"
        }
      ],
      "name": "updateCollateralSettings",
      "outputs": [],
      "stateMutability": "nonpayable",
      "type": "function"
    },
    {
      "inputs": [
        {
          "internalType": "uint256",
          "name": "accountId",
          "type": "uint256"
        },
        {
          "internalType": "uint32",
          "name": "collateralId",
          "type": "uint32"
        },
        {
          "internalType": "int256",
          "name": "amount",
          "type": "int256"
        }
      ],
      "name": "updateMargin",
      "outputs": [],
      "stateMutability": "nonpayable",
      "type": "function"
    },
    {
      "inputs": [
        {
          "internalType": "uint32",
          "name": "poolId",
          "type": "uint32"
        },
        {
          "components": [
            {
              "internalType": "uint16",
              "name": "initialMarginRatioBps",
              "type": "uint16"
            },
            {
              "internalType": "uint16",
              "name": "maintainanceMarginRatioBps",
              "type": "uint16"
            },
            {
              "internalType": "uint16",
              "name": "maxVirtualPriceDeviationRatioBps",
              "type": "uint16"
            },
            {
              "internalType": "uint32",
              "name": "twapDuration",
              "type": "uint32"
            },
            {
              "internalType": "bool",
              "name": "isAllowedForTrade",
              "type": "bool"
            },
            {
              "internalType": "bool",
              "name": "isCrossMargined",
              "type": "bool"
            },
            {
              "internalType": "contract IOracle",
              "name": "oracle",
              "type": "address"
            }
          ],
          "internalType": "struct IClearingHouseStructures.PoolSettings",
          "name": "newSettings",
          "type": "tuple"
        }
      ],
      "name": "updatePoolSettings",
      "outputs": [],
      "stateMutability": "nonpayable",
      "type": "function"
    },
    {
      "inputs": [
        {
          "internalType": "uint256",
          "name": "accountId",
          "type": "uint256"
        },
        {
          "internalType": "int256",
          "name": "amount",
          "type": "int256"
        }
      ],
      "name": "updateProfit",
      "outputs": [],
      "stateMutability": "nonpayable",
      "type": "function"
    },
    {
      "inputs": [
        {
          "components": [
            {
              "internalType": "uint16",
              "name": "rangeLiquidationFeeFraction",
              "type": "uint16"
            },
            {
              "internalType": "uint16",
              "name": "tokenLiquidationFeeFraction",
              "type": "uint16"
            },
            {
              "internalType": "uint16",
              "name": "closeFactorMMThresholdBps",
              "type": "uint16"
            },
            {
              "internalType": "uint16",
              "name": "partialLiquidationCloseFactorBps",
              "type": "uint16"
            },
            {
              "internalType": "uint16",
              "name": "insuranceFundFeeShareBps",
              "type": "uint16"
            },
            {
              "internalType": "uint16",
              "name": "liquidationSlippageSqrtToleranceBps",
              "type": "uint16"
            },
            {
              "internalType": "uint64",
              "name": "maxRangeLiquidationFees",
              "type": "uint64"
            },
            {
              "internalType": "uint64",
              "name": "minNotionalLiquidatable",
              "type": "uint64"
            }
          ],
          "internalType": "struct IClearingHouseStructures.LiquidationParams",
          "name": "_liquidationParams",
          "type": "tuple"
        },
        {
          "internalType": "uint256",
          "name": "_removeLimitOrderFee",
          "type": "uint256"
        },
        {
          "internalType": "uint256",
          "name": "_minimumOrderNotional",
          "type": "uint256"
        },
        {
          "internalType": "uint256",
          "name": "_minRequiredMargin",
          "type": "uint256"
        }
      ],
      "name": "updateProtocolSettings",
      "outputs": [],
      "stateMutability": "nonpayable",
      "type": "function"
    },
    {
      "inputs": [
        {
          "internalType": "uint256",
          "name": "accountId",
          "type": "uint256"
        },
        {
          "internalType": "uint32",
          "name": "poolId",
          "type": "uint32"
        },
        {
          "components": [
            {
              "internalType": "int24",
              "name": "tickLower",
              "type": "int24"
            },
            {
              "internalType": "int24",
              "name": "tickUpper",
              "type": "int24"
            },
            {
              "internalType": "int128",
              "name": "liquidityDelta",
              "type": "int128"
            },
            {
              "internalType": "uint160",
              "name": "sqrtPriceCurrent",
              "type": "uint160"
            },
            {
              "internalType": "uint16",
              "name": "slippageToleranceBps",
              "type": "uint16"
            },
            {
              "internalType": "bool",
              "name": "closeTokenPosition",
              "type": "bool"
            },
            {
              "internalType": "enum IClearingHouseEnums.LimitOrderType",
              "name": "limitOrderType",
              "type": "uint8"
            },
            {
              "internalType": "bool",
              "name": "settleProfit",
              "type": "bool"
            }
          ],
          "internalType": "struct IClearingHouseStructures.LiquidityChangeParams",
          "name": "liquidityChangeParams",
          "type": "tuple"
        }
      ],
      "name": "updateRangeOrder",
      "outputs": [
        {
          "internalType": "int256",
          "name": "vTokenAmountOut",
          "type": "int256"
        },
        {
          "internalType": "int256",
          "name": "vQuoteAmountOut",
          "type": "int256"
        }
      ],
      "stateMutability": "nonpayable",
      "type": "function"
    },
    {
      "inputs": [
        {
          "internalType": "uint256",
          "name": "numberOfPoolsToUpdateInThisTx",
          "type": "uint256"
        }
      ],
      "name": "withdrawProtocolFee",
      "outputs": [],
      "stateMutability": "nonpayable",
      "type": "function"
    }
  ],
  "bytecode": "0x60806040523480156200001157600080fd5b506200001c62000022565b62000363565b61013d54610100900460ff161580801562000045575061013d54600160ff909116105b8062000076575062000062306200014660201b62001fb91760201c565b15801562000076575061013d5460ff166001145b620000ce5760405162461bcd60e51b815260206004820152602e602482015260008051602062005c1483398151915260448201526d191e481a5b9a5d1a585b1a5e995960921b60648201526084015b60405180910390fd5b61013d805460ff191660011790558015620000f45761013d805461ff0019166101001790555b620000fe62000155565b336200010b8180620001c5565b508015620001435761013d805461ff00191690556040516001815260008051602062005c348339815191529060200160405180910390a15b50565b6001600160a01b03163b151590565b61013d54610100900460ff16620001c35760405162461bcd60e51b815260206004820152602b60248201527f496e697469616c697a61626c653a20636f6e7472616374206973206e6f74206960448201526a6e697469616c697a696e6760a81b6064820152608401620000c5565b565b61013d54610100900460ff1615808015620001e8575061013d54600160ff909116105b8062000219575062000205306200014660201b62001fb91760201c565b15801562000219575061013d5460ff166001145b6200026d5760405162461bcd60e51b815260206004820152602e602482015260008051602062005c1483398151915260448201526d191e481a5b9a5d1a585b1a5e995960921b6064820152608401620000c5565b61013d805460ff191660011790558015620002935761013d805461ff0019166101001790555b6101a280546001600160a01b0319166001600160a01b0385169081179091556040516000907f5f56bee8cffbe9a78652a74a60705edede02af10b0bbb888ca44b79a0d42ce80908290a36101a380546001600160a01b0319166001600160a01b0384169081179091556040516000907f39355f2f5c8206286978f443aa8126bbd29fa09c53c04569502647f3a59c8cb2908290a380156200035e5761013d805461ff00191690556040516001815260008051602062005c348339815191529060200160405180910390a15b505050565b6158a180620003736000396000f3fe6080604052600436106102305760003560e01c8063706bdd251161012e578063ac9650d8116100ab578063dbd035ff1161006f578063dbd035ff14610687578063e3d41c18146106b4578063e450f6f4146106d4578063e67ed1df146106f4578063fabc1cbc1461071457600080fd5b8063ac9650d8146105f5578063b790230314610608578063c7505c1514610628578063ce4c18de14610648578063dbc0c0851461066857600080fd5b80638f24ab11116100f25780638f24ab11146105605780638f8022bc146105805780639cd1be58146105a05780639dca362f146105c0578063a05c8baf146105d557600080fd5b8063706bdd25146104b55780637cc2f4f5146104d55780637d2efe07146104f557806383d778eb146105155780638ce25a931461054a57600080fd5b80633d56a35e116101bc578063569634d311610180578063569634d3146104125780635aa6e675146104325780635c975abb146104515780636a486482146104755780636ae732301461049557600080fd5b80633d56a35e146103655780633ffe794c1461038557806340c4f69b146103a5578063424cd833146103d257806343afafba146103f257600080fd5b80631e2eaeaf116102035780631e2eaeaf146102ce5780632a90b8da146102fb5780633562490c1461031057806335876476146103255780633d0aea3d1461034557600080fd5b806304a6f264146102355780630df181ea1461026d578063134015511461028f578063136439dd146102ae575b600080fd5b34801561024157600080fd5b506101a5546001600160a01b03165b6040516001600160a01b0390911681526020015b60405180910390f35b34801561027957600080fd5b5061028d61028836600461403a565b610734565b005b34801561029b57600080fd5b506101a4546001600160a01b0316610250565b3480156102ba57600080fd5b5061028d6102c936600461403a565b6107c0565b3480156102da57600080fd5b506102ed6102e936600461403a565b5490565b604051908152602001610264565b34801561030757600080fd5b5061028d61085b565b34801561031c57600080fd5b5061028d6108fa565b34801561033157600080fd5b5061028d610340366004614073565b610999565b34801561035157600080fd5b5061028d610360366004614185565b610af1565b34801561037157600080fd5b5060d454610250906001600160a01b031681565b34801561039157600080fd5b5061028d6103a036600461421f565b610b83565b3480156103b157600080fd5b506103c56103c0366004614283565b610cc3565b6040516102649190614326565b3480156103de57600080fd5b5061028d6103ed36600461403a565b6113ca565b3480156103fe57600080fd5b506102ed61040d366004614388565b6113e0565b34801561041e57600080fd5b5061028d61042d36600461403a565b61140a565b34801561043e57600080fd5b506101a2546001600160a01b0316610250565b34801561045d57600080fd5b506101705460ff166040519015158152602001610264565b34801561048157600080fd5b506102ed610490366004614388565b61142a565b3480156104a157600080fd5b5061028d6104b03660046143b8565b6114c0565b3480156104c157600080fd5b506102ed6104d03660046143d5565b611564565b3480156104e157600080fd5b5061028d6104f036600461440c565b611571565b34801561050157600080fd5b5061028d61051036600461445f565b61159b565b34801561052157600080fd5b50610535610530366004614529565b6115ce565b60408051928352602083019190915201610264565b34801561055657600080fd5b506102ed60d25481565b34801561056c57600080fd5b5061028d61057b366004614568565b611609565b34801561058c57600080fd5b5061028d61059b3660046143b8565b6117ed565b3480156105ac57600080fd5b5061028d6105bb3660046145aa565b611877565b3480156105cc57600080fd5b506102ed6118a6565b3480156105e157600080fd5b5061028d6105f03660046145df565b61192d565b6103c561060336600461461d565b611c15565b34801561061457600080fd5b5060d554610250906001600160a01b031681565b34801561063457600080fd5b5061053561064336600461465e565b611d6c565b34801561065457600080fd5b506102ed6106633660046143d5565b611da8565b34801561067457600080fd5b506101a3546001600160a01b0316610250565b34801561069357600080fd5b506106a76106a23660046146b8565b611db5565b6040516102649190614742565b3480156106c057600080fd5b506102ed6106cf36600461403a565b611de3565b3480156106e057600080fd5b506102ed6106ef366004614786565b611e6d565b34801561070057600080fd5b5061053561070f3660046147b2565b611e84565b34801561072057600080fd5b5061028d61072f36600461403a565b611f22565b61073c611fc8565b600061074782612011565b905061075281612057565b604051637579c99360e11b8152600481018290526064602482015273__$54faa6341adacbd5a320c497f8c49e66d9$__9063eaf393269060440160006040518083038186803b1580156107a457600080fd5b505af41580156107b8573d6000803e3d6000fd5b505050505050565b6101a3546001600160a01b031633148015906107e857506101a2546001600160a01b03163314155b1561080657604051636bd1573560e11b815260040160405180910390fd5b61080e611fc8565b60d7541561082f5760405163d2067f4360e01b815260040160405180910390fd5b6066546000906108479060d690839085612065612111565b905080156108575761085761218d565b5050565b6101a4546001600160a01b0316336001600160a01b03161461089057604051636bd1573560e11b815260040160405180910390fd5b6101a4546101a2546040516001600160a01b0392831692909116907f5f56bee8cffbe9a78652a74a60705edede02af10b0bbb888ca44b79a0d42ce8090600090a36101a480546101a280546001600160a01b03199081166001600160a01b03841617909155169055565b6101a5546001600160a01b0316336001600160a01b03161461092f57604051636bd1573560e11b815260040160405180910390fd5b6101a5546101a3546040516001600160a01b0392831692909116907f39355f2f5c8206286978f443aa8126bbd29fa09c53c04569502647f3a59c8cb290600090a36101a580546101a380546001600160a01b03199081166001600160a01b03841617909155169055565b61013d54610100900460ff16158080156109bb575061013d54600160ff909116105b806109d65750303b1580156109d6575061013d5460ff166001145b6109fb5760405162461bcd60e51b81526004016109f2906147d7565b60405180910390fd5b61013d805460ff191660011790558015610a205761013d805461ff0019166101001790555b60d480546001600160a01b03199081166001600160a01b038b81169190911790925560678054821688841617905560d58054821686841617905560688054909116848316179055604080516060810182529186168252603c6020830152600190820152610a8e9086906121e8565b610a9887876123c4565b610aa0612519565b8015610ae75761013d805461ff0019169055604051600181527f7f26b83ff96e1f2b6a682f133852f6798a09c465da95921460cefb38474024989060200160405180910390a15b5050505050505050565b6101a2546001600160a01b03163314610b1d57604051636bd1573560e11b815260040160405180910390fd5b80516001600160a01b0316610b4857604051636a098dd160e11b8152601060048201526024016109f2565b62015180816020015163ffffffff161115610b7957604051636a098dd160e11b8152601160048201526024016109f2565b61085782826121e8565b60d4546001600160a01b03163314610bae576040516385734f3160e01b815260040160405180910390fd5b6000610bce610bc060208401846143b8565b6001600160a01b0316612592565b63ffffffff8116600090815260646020526040902054909150610bf9906001600160a01b03166125a0565b610c0557610c05614825565b63ffffffff811660009081526064602052604090208290610c2682826149aa565b5050606680546001810182556000919091527f46501879b8ca8525e8c2fd519e2fbfcfa2ebea26501294aa02cbfcfb12e943546008820401805460079092166004026101000a63ffffffff81810219909316928416029190911790556040517f4182acc9c169391ef7e765eb446fc15c9d49bc73060c678bf4c424a5c0dbdbcb90610cb79083906060860190614b2f565b60405180910390a15050565b6060816001600160401b03811115610cdd57610cdd614109565b604051908082528060200260200182016040528015610d1057816020015b6060815260200190600190039081610cfb5790505b50600085815260d360205260409020909150610d2b81612057565b6000806000805b868110156112c3576000888883818110610d4e57610d4e614c01565b9050602002810190610d609190614c17565b610d6e906020810190614c37565b6006811115610d7f57610d7f614beb565b03610df057600080898984818110610d9957610d99614c01565b9050602002810190610dab9190614c17565b610db9906020810190614c58565b810190610dc69190614786565b91509150600195508380610dda5750600081125b9350610de987838360006125b2565b50506112b1565b6001888883818110610e0457610e04614c01565b9050602002810190610e169190614c17565b610e24906020810190614c37565b6006811115610e3557610e35614beb565b03610ea5576000888883818110610e4e57610e4e614c01565b9050602002810190610e609190614c17565b610e6e906020810190614c58565b810190610e7b919061403a565b9050610e898682600061269d565b600194506000811215610e9f5760019350600192505b506112b1565b6002888883818110610eb957610eb9614c01565b9050602002810190610ecb9190614c17565b610ed9906020810190614c37565b6006811115610eea57610eea614beb565b03610f9b57600080898984818110610f0457610f04614c01565b9050602002810190610f169190614c17565b610f24906020810190614c58565b810190610f319190614c9e565b91509150600080610f458985856000612781565b604080516020810184905290810182905291935091506060016040516020818303038152906040528a8681518110610f7f57610f7f614c01565b60200260200101819052506001975060019550505050506112b1565b6003888883818110610faf57610faf614c01565b9050602002810190610fc19190614c17565b610fcf906020810190614c37565b6006811115610fe057610fe0614beb565b0361103b57600080898984818110610ffa57610ffa614c01565b905060200281019061100c9190614c17565b61101a906020810190614c58565b8101906110279190614dc1565b91509150600080610f4589858560006128e3565b600488888381811061104f5761104f614c01565b90506020028101906110619190614c17565b61106f906020810190614c37565b600681111561108057611080614beb565b036110e45760008060008a8a8581811061109c5761109c614c01565b90506020028101906110ae9190614c17565b6110bc906020810190614c58565b8101906110c99190614def565b9250925092506110db8c8484846129cf565b505050506112b1565b60058888838181106110f8576110f8614c01565b905060200281019061110a9190614c17565b611118906020810190614c37565b600681111561112957611129614beb565b0361118057600088888381811061114257611142614c01565b90506020028101906111549190614c17565b611162906020810190614c58565b81019061116f91906143d5565b9050610de98163ffffffff16612aa8565b600688888381811061119457611194614c01565b90506020028101906111a69190614c17565b6111b4906020810190614c37565b60068111156111c5576111c5614beb565b03611265576000808989848181106111df576111df614c01565b90506020028101906111f19190614c17565b6111ff906020810190614c58565b81019061120c9190614e3a565b915091506112208263ffffffff1682612bf2565b60405160200161123291815260200190565b60405160208183030381529060405288848151811061125357611253614c01565b602002602001018190525050506112b1565b87878281811061127757611277614c01565b90506020028101906112899190614c17565b611297906020810190614c37565b604051633164e52160e11b81526004016109f29190614e68565b806112bb81614e98565b915050610d32565b5082156112d5576112d388612011565b505b81156113465760405163651524ed60e01b8152600481018590526064602482015273__$54faa6341adacbd5a320c497f8c49e66d9$__9063651524ed9060440160006040518083038186803b15801561132d57600080fd5b505af4158015611341573d6000803e3d6000fd5b505050505b80156113be5760405163998c533560e01b8152600481018590526001602482015260646044820181905273__$54faa6341adacbd5a320c497f8c49e66d9$__9163998c5335910160006040518083038186803b1580156113a557600080fd5b505af41580156113b9573d6000803e3d6000fd5b505050505b505050505b9392505050565b6066546108579060d89060009084612ced612111565b600082815260d3602052604081206113f790612057565b6114018383612bf2565b90505b92915050565b600081815260d36020526040902061142190612057565b61085781612aa8565b600082815260d360205260408082209051637188a1ed60e01b8152600481019190915263ffffffff8316602482015260646044820181905273__$54faa6341adacbd5a320c497f8c49e66d9$__91637188a1ed9101602060405180830381865af415801561149c573d6000803e3d6000fd5b505050506040513d601f19601f820116820180604052508101906114019190614eb1565b6101a3546001600160a01b031633148015906114e857506101a2546001600160a01b03163314155b1561150657604051636bd1573560e11b815260040160405180910390fd5b6101a5546040516001600160a01b038084169216907f9b068aae3039a2512c2f13bffb5fd9d95b1895b276b5c7ddf1d4fa24ec36865890600090a36101a580546001600160a01b0319166001600160a01b0392909216919091179055565b6000611404606483612dd4565b600084815260d36020526040902061158890612057565b611594848484846129cf565b5050505050565b6115a3611fc8565b60006115ae84612011565b90506115b981612057565b6115c8818484600086126125b2565b50505050565b6000806115d9611fc8565b60006115e486612011565b90506115ef81612057565b6115fc8186866001612781565b9250925050935093915050565b6101a2546001600160a01b0316331461163557604051636bd1573560e11b815260040160405180910390fd5b63ffffffff8216600090815260646020526040902081906003016116598282614892565b5061167c905061166f60e0830160c084016143b8565b6001600160a01b03161590565b1561169d57604051636a098dd160e11b8152602060048201526024016109f2565b61012c6116b060808301606084016143d5565b63ffffffff1610806116d95750620151806116d160808301606084016143d5565b63ffffffff16115b156116fa57604051636a098dd160e11b8152602160048201526024016109f2565b61271061170a6020830183614eca565b61ffff16111561173057604051636a098dd160e11b8152602260048201526024016109f2565b6127106117436040830160208401614eca565b61ffff16111561176957604051636a098dd160e11b8152602360048201526024016109f2565b600a6117786127106002614ee7565b6117829190614f27565b61ffff166117966060830160408401614eca565b61ffff1611156117bc57604051636a098dd160e11b8152602460048201819052016109f2565b7f4182acc9c169391ef7e765eb446fc15c9d49bc73060c678bf4c424a5c0dbdbcb8282604051610cb7929190614b2f565b6101a2546001600160a01b0316331461181957604051636bd1573560e11b815260040160405180910390fd5b6101a4546040516001600160a01b038084169216907f8c405decc72a19ef328c92989ce6db4e4a498e1c246413fd60997a3051ba5cff90600090a36101a480546001600160a01b0319166001600160a01b0392909216919091179055565b61187f611fc8565b600061188a83612011565b905061189581612057565b6118a18183600161269d565b505050565b60006118b0611fc8565b5060d2546118bf816001614f48565b60d255600081815260d360209081526040918290206001600160601b031933600160601b8102919091166001600160601b03861617825592518481529092917f7325fb14450d3e5eb288c620b4ff1d6b43a41b33b4a4f143ae88cd4c12f99ea3910160405180910390a25090565b6101a2546001600160a01b0316331461195957604051636bd1573560e11b815260040160405180910390fd5b6127106119696020860186614eca565b61ffff16111561198f57604051636a098dd160e11b8152603060048201526024016109f2565b6127106119a26040860160208701614eca565b61ffff1611156119c857604051636a098dd160e11b8152603160048201526024016109f2565b6127106119db6060860160408701614eca565b61ffff161115611a0157604051636a098dd160e11b8152603260048201526024016109f2565b612710611a146080860160608701614eca565b61ffff161115611a3a57604051636a098dd160e11b8152603360048201526024016109f2565b612710611a4d60a0860160808701614eca565b61ffff161115611a7357604051636a098dd160e11b8152603460048201526024016109f2565b611a80600a612710614f27565b61ffff16611a9460c0860160a08701614eca565b61ffff161115611aba57604051636a098dd160e11b8152603560048201526024016109f2565b633b9aca00611acf60e0860160c08701614f80565b6001600160401b03161115611afa57604051636a098dd160e11b8152603660048201526024016109f2565b633b9aca00611b10610100860160e08701614f80565b6001600160401b03161115611b3b57604051636a098dd160e11b8152603760048201526024016109f2565b633b9aca00831115611b6357604051636a098dd160e11b8152603860048201526024016109f2565b633b9aca00821115611b8b57604051636a098dd160e11b8152603960048201526024016109f2565b633b9aca00811115611bb357604051636a098dd160e11b8152603a60048201526024016109f2565b836069611bc08282614faa565b5050606b839055606c829055606a8190556040517f697aec6e94e319190380ab0f1f10018d81b64da2479eb874be92c9a733e0a83790611c0790869086908690869061511b565b60405180910390a150505050565b6060816001600160401b03811115611c2f57611c2f614109565b604051908082528060200260200182016040528015611c6257816020015b6060815260200190600190039081611c4d5790505b50905060005b82811015611d655760008030868685818110611c8657611c86614c01565b9050602002810190611c989190614c58565b604051611ca69291906151ee565b600060405180830381855af49150503d8060008114611ce1576040519150601f19603f3d011682016040523d82523d6000602084013e611ce6565b606091505b509150915081611d3257604481511015611cff57600080fd5b60048101905080806020019051810190611d1991906151fe565b60405162461bcd60e51b81526004016109f29190615288565b80848481518110611d4557611d45614c01565b602002602001018190525050508080611d5d90614e98565b915050611c68565b5092915050565b600080611d77611fc8565b6000611d8286612011565b9050611d8d81612057565b6115fc8186611da13688900388018861529b565b60016128e3565b6000611404606483612e30565b606060208251028201602001602083015b81811015611ddb578051548152602001611dc6565b509192915050565b600081815260d36020526040808220905163625915c360e11b815260048101919091526064602482015273__$54faa6341adacbd5a320c497f8c49e66d9$__9063c4b22b8690604401602060405180830381865af4158015611e49573d6000803e3d6000fd5b505050506040513d601f19601f820116820180604052508101906114049190614eb1565b6000611e776118a6565b905061140481848461159b565b600082815260d36020526040808220905163031b5fcd60e21b815260048101919091528215156024820152606460448201819052829173__$54faa6341adacbd5a320c497f8c49e66d9$__91630c6d7f3491016040805180830381865af4158015611ef3573d6000803e3d6000fd5b505050506040513d601f19601f82011682018060405250810190611f1791906152b8565b909590945092505050565b6101a3546001600160a01b03163314801590611f4a57506101a2546001600160a01b03163314155b15611f6857604051636bd1573560e11b815260040160405180910390fd5b611f70612e88565b60d65415611f915760405163fc23b9cd60e01b815260040160405180910390fd5b606654600090611fa99060d790839085612ed2612111565b9050801561085757610857612f53565b6001600160a01b03163b151590565b6101705460ff161561200f5760405162461bcd60e51b815260206004820152601060248201526f14185d5cd8589b194e881c185d5cd95960821b60448201526064016109f2565b565b600081815260d3602052604090208054600160601b90046001600160a01b0316331461205257604051630504a20d60e01b81523360048201526024016109f2565b919050565b612062816064612f8d565b50565b60006064600201828154811061207d5761207d614c01565b6000918252602080832060088304015463ffffffff6004600790941684026101000a9091041680845260649091526040808420600201549051632892019b60e11b81529194506001600160a01b0316926351240336926120e39201901515815260200190565b600060405180830381600087803b1580156120fd57600080fd5b505af11580156107b8573d6000803e3d6000fd5b84546000908061211e5750845b6000841561213e576121396121338684614f48565b87612f9a565b612140565b855b90505b8082101561216a57612158828563ffffffff16565b8161216281614e98565b925050612143565b8581149250821561217e5760008855612182565b8088555b505095945050505050565b612195611fc8565b610170805460ff191660011790557f62e78cea01bee320cd4e420270b5ea74000d11b0c9f74754ebdbfc544b05a2586121cb3390565b6040516001600160a01b03909116815260200160405180910390a1565b60006121fc836001600160a01b0316612592565b9050612210836001600160a01b03166125a0565b15612231576040516376d8a93160e01b8152600060048201526024016109f2565b63ffffffff8116600090815260656020526040902054612259906001600160a01b03166125a0565b158015612292575063ffffffff808216600090815260656020526040902054612290916001600160a01b03909116908590612fb016565b155b156122db5763ffffffff81166000908152606560205260409081902054905163a5d4d0b560e01b81526001600160a01b03808616600483015290911660248201526044016109f2565b6040805180820182526001600160a01b03858116808352602080840187815263ffffffff878116600090815260658452879020955186549086166001600160a01b0319909116178655905180516001909601805482850151928901511515600160c01b0260ff60c01b19938516600160a01b026001600160c01b0319909216988816989098171791909116959095179094558451918252865190921681830152908501519091168183015290830151151560608201527f52983c04d8ccd4808cd0fcb24e6e48106ecb41e803d6270c6c94a15e3ebd08d2906080015b60405180910390a1505050565b61013d54610100900460ff16158080156123e6575061013d54600160ff909116105b806124015750303b158015612401575061013d5460ff166001145b61241d5760405162461bcd60e51b81526004016109f2906147d7565b61013d805460ff1916600117905580156124425761013d805461ff0019166101001790555b6101a280546001600160a01b0319166001600160a01b0385169081179091556040516000907f5f56bee8cffbe9a78652a74a60705edede02af10b0bbb888ca44b79a0d42ce80908290a36101a380546001600160a01b0319166001600160a01b0384169081179091556040516000907f39355f2f5c8206286978f443aa8126bbd29fa09c53c04569502647f3a59c8cb2908290a380156118a15761013d805461ff0019169055604051600181527f7f26b83ff96e1f2b6a682f133852f6798a09c465da95921460cefb3847402498906020016123b7565b61013d54610100900460ff166125855760405162461bcd60e51b815260206004820152602b60248201527f496e697469616c697a61626c653a20636f6e7472616374206973206e6f74206960448201526a6e697469616c697a696e6760a81b60648201526084016109f2565b610170805460ff19169055565b600063ffffffff8216611404565b60006001600160a01b03821615611404565b6125ba611fc8565b60006125c98460008512612fc6565b60405163f5a284a160e01b81526004810187905263ffffffff8616602482015260448101859052606480820152831515608482015290915073__$54faa6341adacbd5a320c497f8c49e66d9$__9063f5a284a19060a40160006040518083038186803b15801561263857600080fd5b505af415801561264c573d6000803e3d6000fd5b505050506000831315612675578054612670906001600160a01b0316333086613055565b611594565b6000831215611594576115943361268b856152dc565b83546001600160a01b031691906130c0565b6126a5611fc8565b816000036126c657604051631f2a200560e01b815260040160405180910390fd5b60405163d25c4a6f60e01b815260048101849052602481018390526064604482018190528215159082015273__$54faa6341adacbd5a320c497f8c49e66d9$__9063d25c4a6f9060840160006040518083038186803b15801561272857600080fd5b505af415801561273c573d6000803e3d6000fd5b505050506000821315612761576067546118a1906001600160a01b0316333085613055565b6118a13361276e846152dc565b6067546001600160a01b031691906130c0565b60008061278c611fc8565b612795856130f0565b604051630a067b0f60e11b815273__$54faa6341adacbd5a320c497f8c49e66d9$__9063140cf61e906127d5908990899089906064908a906004016152f8565b6040805180830381865af41580156127f1573d6000803e3d6000fd5b505050506040513d601f19601f8201168201806040525081019061281591906152b8565b9092509050600061282582613173565b606c5490915081101561284e576040516312b6b5cd60e11b8152600481018290526024016109f2565b60208501516001600160a01b03161580159061286c57508460600151155b156128d957846040015180156128935750845161288890613173565b61289183613173565b145b806128bc575084604001511580156128bc575084516128b190613173565b6128ba84613173565b145b6128d9576040516307a1db0760e01b815260040160405180910390fd5b5094509492505050565b6000806128ee611fc8565b6128f7856130f0565b60608401516001600160a01b03161561291d5761291d858560600151866080015161318e565b60405163c27789d160e01b815260009073__$54faa6341adacbd5a320c497f8c49e66d9$__9063c27789d190612960908a908a908a906064908b90600401615380565b606060405180830381865af415801561297d573d6000803e3d6000fd5b505050506040513d601f19601f820116820180604052508101906129a1919061542a565b606c5492955090935091508110156128d9576040516312b6b5cd60e11b8152600481018290526024016109f2565b60006129d9611fc8565b600085815260d3602052604090206129f0856130f0565b606b54604051637022478560e11b81526004810183905263ffffffff87166024820152600286810b604483015285900b6064808301919091526084820183905260a482015290925073__$54faa6341adacbd5a320c497f8c49e66d9$__9063e0448f0a9060c40160006040518083038186803b158015612a6f57600080fd5b505af4158015612a83573d6000803e3d6000fd5b5050606754612a9f92506001600160a01b0316905033846130c0565b50949350505050565b6000612ab2611fc8565b600082815260d36020526040808220905163df19bf0960e01b815260048101829052606460248201529091908190819073__$54faa6341adacbd5a320c497f8c49e66d9$__9063df19bf0990604401606060405180830381865af4158015612b1e573d6000803e3d6000fd5b505050506040513d601f19601f82011682018060405250810190612b42919061542a565b919450925090506000612b558385615458565b905060008413612b7b5760405163ef37dcc760e01b8152600481018590526024016109f2565b606754612b92906001600160a01b031633866130c0565b612b9b83613220565b604080518281526020810186905290810184905260608101839052339088907f688f0846fe2852572c467d5e769db101b0fea55e8849406d85c9fb322b95299b9060800160405180910390a3509195945050505050565b6000612bfc611fc8565b600083815260d360205260409020612c13836130f0565b60405163760a324b60e11b81526004810182905263ffffffff8416602482015260646044820181905260009173__$54faa6341adacbd5a320c497f8c49e66d9$__9163ec14649691016040805180830381865af4158015612c78573d6000803e3d6000fd5b505050506040513d601f19601f82011682018060405250810190612c9c91906152b8565b909350905060008313612cc55760405163ef37dcc760e01b8152600481018490526024016109f2565b606754612cdc906001600160a01b031633856130c0565b612ce581613220565b505092915050565b600060646002018281548110612d0557612d05614c01565b6000918252602080832060088304015463ffffffff6004600790941684026101000a909104168084526064825260408085206002015481516317988aaf60e21b815291519296506001600160a01b031693635e622abc93828201939092909190829003018187875af1158015612d7f573d6000803e3d6000fd5b505050506040513d601f19601f82011682018060405250810190612da39190614eb1565b905080156118a1576118a1612dc16101a3546001600160a01b031690565b6067546001600160a01b031690836130c0565b600080612ddf6132ac565b63ffffffff80851660009081526009870160205260409020805492935091818416911603612e1d57600101546001600160e01b031691506114049050565b612e278585613343565b92505050611404565b600080612e3b6132ac565b63ffffffff80851660009081526009870160205260409020805492935091818416911603612e7e575464010000000090046001600160e01b031691506114049050565b612e2785856133e3565b6101705460ff1661200f5760405162461bcd60e51b815260206004820152601460248201527314185d5cd8589b194e881b9bdd081c185d5cd95960621b60448201526064016109f2565b600060646002018281548110612eea57612eea614c01565b6000918252602080832060088304015463ffffffff6004600790941684026101000a909104168084526064909152604092839020600201549251632892019b60e11b815260019281019290925292506001600160a01b03909116906351240336906024016120e3565b612f5b612e88565b610170805460ff191690557f5db9ee0a495bf2e6ff9c91a7834c1ba4fdd244a5e8aa4e537bd38aeae4b073aa336121cb565b6108576001830182613400565b6000818310612fa95781611401565b5090919050565b60006001600160a01b0380841690831614611401565b63ffffffff821660009081526065602052604090208054612fef906001600160a01b03166125a0565b1561301557604051636b9c1a9d60e01b815263ffffffff841660048201526024016109f2565b8115801561302f57506001810154600160c01b900460ff16155b156114045760405163122a1f1960e31b815263ffffffff841660048201526024016109f2565b6040516001600160a01b03808516602483015283166044820152606481018290526115c89085906323b872dd60e01b906084015b60408051601f198184030181529190526020810180516001600160e01b03166001600160e01b031990931692909217909152613475565b6040516001600160a01b0383166024820152604481018290526118a190849063a9059cbb60e01b90606401613089565b63ffffffff811660009081526064602052604090208054613119906001600160a01b03166125a0565b1561313f5760405163b842f5a760e01b815263ffffffff831660048201526024016109f2565b6003810154600160501b900460ff166108575760405163587ee90160e11b815263ffffffff831660048201526024016109f2565b600080821361318a57613185826152dc565b611404565b5090565b600061319b606485613547565b90506000836001600160a01b0316826001600160a01b0316116131c7576131c28285615499565b6131d1565b6131d18483615499565b90506127106131e48561ffff86166154c1565b6131ee91906154e7565b6001600160a01b0316816001600160a01b03161115611594576040516307a1db0760e01b815260040160405180910390fd5b60008113156132465760d554606754612062916001600160a01b039182169116836130c0565b60d5546001600160a01b031663379607f5613260836152dc565b6040518263ffffffff1660e01b815260040161327e91815260200190565b600060405180830381600087803b15801561329857600080fd5b505af1158015611594573d6000803e3d6000fd5b60004661a4b18114806132c157508062066eeb145b806132ce57508062066eec145b1561333c5760646001600160a01b031663a3b1b31d6040518163ffffffff1660e01b8152600401602060405180830381865afa158015613312573d6000803e3d6000fd5b505050506040513d601f19601f820116820180604052508101906133369190614eb1565b91505090565b4391505090565b63ffffffff8181166000908152602084905260408082206003810154915163dd86c10160e01b81526601000000000000830490941660048501529192600160601b9091046001600160a01b03169063dd86c10190602401602060405180830381865afa1580156133b7573d6000803e3d6000fd5b505050506040513d601f19601f820116820180604052508101906133db9190614eb1565b949350505050565b60006114016133f28484613572565b6001600160a01b03166135b9565b60005b60088160ff1610156118a15760008360ff83166008811061342657613426614c01565b600891828204019190066004029054906101000a900463ffffffff1690508063ffffffff166000036134585750505050565b6134628382613626565b508061346d81615501565b915050613403565b60006134ca826040518060400160405280602081526020017f5361666545524332303a206c6f772d6c6576656c2063616c6c206661696c6564815250856001600160a01b031661377d9092919063ffffffff16565b8051909150156118a157808060200190518101906134e89190615520565b6118a15760405162461bcd60e51b815260206004820152602a60248201527f5361666545524332303a204552433230206f7065726174696f6e20646964206e6044820152691bdd081cdd58d8d9595960b21b60648201526084016109f2565b63ffffffff8116600090815260208390526040812060010154611401906001600160a01b031661378c565b63ffffffff808216600090815260208490526040812060038101546001820154929391926133db926001600160a01b0390911691660100000000000090048116906137fd16565b60006401000276a36001600160a01b03831610806135f4575073fffd8963efd1fc6a506488495d951d5263988d266001600160a01b03831610155b1561361d57604051635d236c4560e01b81526001600160a01b03831660048201526024016109f2565b6114048261381e565b60006136306132ac565b63ffffffff8084166000908152600986016020526040902080549293509181841691160361365e5750505050565b600061366a8585613343565b9050600061367886866133e3565b9050600160e01b808310158061368e5750808210155b1561369c5750505050505050565b63ffffffff868116600090815260208990526040902060030154640100000000900461ffff16906136d590859083906127109061383916565b6136e76136e2858761553d565b6138eb565b11156137075760018501805460ff60e01b1916600160e01b179055613717565b60018501805460ff60e01b191690555b613720846138f6565b6001860180546001600160e01b0319166001600160e01b039290921691909117905561374b836138f6565b63ffffffff969096166001600160e01b03969096166401000000000263ffffffff191695909517909355505050505050565b60606133db8484600085613920565b6000816001600160a01b0316633850c7bd6040518163ffffffff1660e01b815260040160e060405180830381865afa1580156137cc573d6000803e3d6000fd5b505050506040513d601f19601f820116820180604052508101906137f0919061557c565b5094979650505050505050565b6000806138136001600160a01b03851684613a51565b90506133db81613c6d565b60006114046001600160a01b03831680680100000000000000005b6000808060001985870985870292508281108382030391505080600003613872576000841161386757600080fd5b5082900490506113c3565b80841161387e57600080fd5b6000848688096000868103871696879004966002600389028118808a02820302808a02820302808a02820302808a02820302808a02820302808a02909103029181900381900460010186841190950394909402919094039290920491909117919091029150509392505050565b600061140482613173565b6000600160e01b82111561318a57604051631ba3445360e01b8152600481018390526024016109f2565b6060824710156139815760405162461bcd60e51b815260206004820152602660248201527f416464726573733a20696e73756666696369656e742062616c616e636520666f6044820152651c8818d85b1b60d21b60648201526084016109f2565b6001600160a01b0385163b6139d85760405162461bcd60e51b815260206004820152601d60248201527f416464726573733a2063616c6c20746f206e6f6e2d636f6e747261637400000060448201526064016109f2565b600080866001600160a01b031685876040516139f4919061560e565b60006040518083038185875af1925050503d8060008114613a31576040519150601f19603f3d011682016040523d82523d6000602084013e613a36565b606091505b5091509150613a46828286613f90565b979650505050505050565b60008163ffffffff16600003613a7a57613a73836001600160a01b0316613fc9565b9050611404565b6040805160028082526060820183526000926020830190803683370190505090508281600081518110613aaf57613aaf614c01565b602002602001019063ffffffff16908163ffffffff1681525050600081600181518110613ade57613ade614c01565b63ffffffff9092166020928302919091019091015260405163883bdbfd60e01b81526001600160a01b0385169063883bdbfd90613b1f908490600401615620565b600060405180830381865afa925050508015613b5d57506040513d6000823e601f3d908101601f19168201604052613b5a91908101906156cd565b60015b613bd257836001600160a01b0316633850c7bd6040518163ffffffff1660e01b815260040160e060405180830381865afa158015613b9f573d6000803e3d6000fd5b505050506040513d601f19601f82011682018060405250810190613bc3919061557c565b50939650611d65945050505050565b600082600081518110613be757613be7614c01565b602002602001015183600181518110613c0257613c02614c01565b6020026020010151613c149190615798565b90506000613c2863ffffffff8816836157e8565b905060008260060b128015613c4e5750613c4863ffffffff881683615826565b60060b15155b15613c615780613c5d81615848565b9150505b94506114049350505050565b60008060008360020b12613c84578260020b613c8c565b8260020b6000035b9050620d89e8811115613cb2576040516315e4079d60e11b815260040160405180910390fd5b600081600116600003613cc957600160801b613cdb565b6ffffcb933bd6fad37aa2d162d1a5940015b70ffffffffffffffffffffffffffffffffff1690506002821615613d0f576ffff97272373d413259a46990580e213a0260801c5b6004821615613d2e576ffff2e50f5f656932ef12357cf3c7fdcc0260801c5b6008821615613d4d576fffe5caca7e10e4e61c3624eaa0941cd00260801c5b6010821615613d6c576fffcb9843d60f6159c9db58835c9266440260801c5b6020821615613d8b576fff973b41fa98c081472e6896dfb254c00260801c5b6040821615613daa576fff2ea16466c96a3843ec78b326b528610260801c5b6080821615613dc9576ffe5dee046a99a2a811c461f1969c30530260801c5b610100821615613de9576ffcbe86c7900a88aedcffc83b479aa3a40260801c5b610200821615613e09576ff987a7253ac413176f2b074cf7815e540260801c5b610400821615613e29576ff3392b0822b70005940c7a398e4b70f30260801c5b610800821615613e49576fe7159475a2c29b7443b29c7fa6e889d90260801c5b611000821615613e69576fd097f3bdfd2022b8845ad8f792aa58250260801c5b612000821615613e89576fa9f746462d870fdf8a65dc1f90e061e50260801c5b614000821615613ea9576f70d869a156d2a1b890bb3df62baf32f70260801c5b618000821615613ec9576f31be135f97d08fd981231505542fcfa60260801c5b62010000821615613eea576f09aa508b5b7a84e1c677de54f3e99bc90260801c5b62020000821615613f0a576e5d6af8dedb81196699c329225ee6040260801c5b62040000821615613f29576d2216e584f5fa1ea926041bedfe980260801c5b62080000821615613f46576b048a170391f7dc42444e8fa20260801c5b60008460020b1315613f67578060001981613f6357613f63614f11565b0490505b640100000000810615613f7b576001613f7e565b60005b60ff16602082901c0192505050919050565b60608315613f9f5750816113c3565b825115613faf5782518084602001fd5b8160405162461bcd60e51b81526004016109f29190615288565b6000816001600160a01b0316633850c7bd6040518163ffffffff1660e01b815260040160e060405180830381865afa158015614009573d6000803e3d6000fd5b505050506040513d601f19601f8201168201806040525081019061402d919061557c565b5093979650505050505050565b60006020828403121561404c57600080fd5b5035919050565b6001600160a01b038116811461206257600080fd5b803561205281614053565b600080600080600080600060e0888a03121561408e57600080fd5b873561409981614053565b965060208801356140a981614053565b955060408801356140b981614053565b945060608801356140c981614053565b935060808801356140d981614053565b925060a08801356140e981614053565b915060c08801356140f981614053565b8091505092959891949750929550565b634e487b7160e01b600052604160045260246000fd5b604051601f8201601f191681016001600160401b038111828210171561414757614147614109565b604052919050565b63ffffffff8116811461206257600080fd5b80356120528161414f565b801515811461206257600080fd5b80356120528161416c565b600080828403608081121561419957600080fd5b83356141a481614053565b92506060601f19820112156141b857600080fd5b50604051606081018181106001600160401b03821117156141db576141db614109565b60405260208401356141ec81614053565b815260408401356141fc8161414f565b6020820152606084013561420f8161416c565b6040820152919491935090915050565b6000610140828403121561423257600080fd5b50919050565b60008083601f84011261424a57600080fd5b5081356001600160401b0381111561426157600080fd5b6020830191508360208260051b850101111561427c57600080fd5b9250929050565b60008060006040848603121561429857600080fd5b8335925060208401356001600160401b038111156142b557600080fd5b6142c186828701614238565b9497909650939450505050565b60005b838110156142e95781810151838201526020016142d1565b838111156115c85750506000910152565b600081518084526143128160208601602086016142ce565b601f01601f19169290920160200192915050565b6000602080830181845280855180835260408601915060408160051b870101925083870160005b8281101561437b57603f198886030184526143698583516142fa565b9450928501929085019060010161434d565b5092979650505050505050565b6000806040838503121561439b57600080fd5b8235915060208301356143ad8161414f565b809150509250929050565b6000602082840312156143ca57600080fd5b81356113c381614053565b6000602082840312156143e757600080fd5b81356113c38161414f565b8060020b811461206257600080fd5b8035612052816143f2565b6000806000806080858703121561442257600080fd5b8435935060208501356144348161414f565b92506040850135614444816143f2565b91506060850135614454816143f2565b939692955090935050565b60008060006060848603121561447457600080fd5b8335925060208401356144868161414f565b929592945050506040919091013590565b600060a082840312156144a957600080fd5b60405160a081018181106001600160401b03821117156144cb576144cb614109565b6040528235815290508060208301356144e381614053565b602082015260408301356144f68161416c565b604082015260608301356145098161416c565b6060820152608083013561451c8161416c565b6080919091015292915050565b600080600060e0848603121561453e57600080fd5b8335925060208401356145508161414f565b915061455f8560408601614497565b90509250925092565b60008082840361010081121561457d57600080fd5b83356145888161414f565b925060e0601f198201121561459c57600080fd5b506020830190509250929050565b600080604083850312156145bd57600080fd5b50508035926020909101359150565b6000610100828403121561423257600080fd5b60008060008061016085870312156145f657600080fd5b61460086866145cc565b966101008601359650610120860135956101400135945092505050565b6000806020838503121561463057600080fd5b82356001600160401b0381111561464657600080fd5b61465285828601614238565b90969095509350505050565b6000806000610140848603121561467457600080fd5b8335925060208401356146868161414f565b915061455f85604086016145cc565b60006001600160401b038211156146ae576146ae614109565b5060051b60200190565b600060208083850312156146cb57600080fd5b82356001600160401b038111156146e157600080fd5b8301601f810185136146f257600080fd5b803561470561470082614695565b61411f565b81815260059190911b8201830190838101908783111561472457600080fd5b928401925b82841015613a4657833582529284019290840190614729565b6020808252825182820181905260009190848201906040850190845b8181101561477a5783518352928401929184019160010161475e565b50909695505050505050565b6000806040838503121561479957600080fd5b82356147a48161414f565b946020939093013593505050565b600080604083850312156147c557600080fd5b8235915060208301356143ad8161416c565b6020808252602e908201527f496e697469616c697a61626c653a20636f6e747261637420697320616c72656160408201526d191e481a5b9a5d1a585b1a5e995960921b606082015260800190565b634e487b7160e01b600052600160045260246000fd5b80546001600160a01b0319166001600160a01b0392909216919091179055565b61ffff8116811461206257600080fd5b600081356114048161485b565b600081356114048161416c565b6000813561140481614053565b813561489d8161485b565b815461ffff191661ffff82161782555060208201356148bb8161485b565b815463ffff00001916601082901b63ffff0000161782555060408201356148e18161485b565b815465ffff000000001916602082901b65ffff000000001617825550606082013561490b8161414f565b815469ffffffff000000000000191660309190911b63ffffffff60301b16178155608082013561493a8161416c565b815460ff60501b191681151560501b60ff60501b161782555060a08201356149618161416c565b815460ff60581b191681151560581b60ff60581b161782555060c082013561498881614053565b81546001600160601b0316606082901b6001600160601b031916178255505050565b81356149b581614053565b6149bf818361483b565b5060208201356149ce81614053565b6149db816001840161483b565b5060408201356149ea81614053565b6149f7816002840161483b565b50600381016060830135614a0a8161485b565b815461ffff191661ffff8216178255506080830135614a288161485b565b815463ffff00001916601082901b63ffff0000161782555060a0830135614a4e8161485b565b815465ffff000000001916602082901b65ffff00000000161782555060c0830135614a788161414f565b815469ffffffff000000000000191660309190911b63ffffffff60301b16178155614ac6614aa860e08501614878565b82805460ff60501b191691151560501b60ff60501b16919091179055565b614af4614ad66101008501614878565b82805460ff60581b191691151560581b60ff60581b16919091179055565b6118a1614b046101208501614885565b82546001600160601b031660609190911b6001600160601b031916178255565b80356120528161485b565b63ffffffff8316815261010081018235614b488161485b565b61ffff808216602085015260208501359150614b638261485b565b808216604085015260408501359150614b7b8261485b565b80821660608501525050614b9160608401614161565b63ffffffff8116608084015250614baa6080840161417a565b80151560a084015250614bbf60a0840161417a565b80151560c084015250614bd460c08401614068565b6001600160a01b03811660e0840152509392505050565b634e487b7160e01b600052602160045260246000fd5b634e487b7160e01b600052603260045260246000fd5b60008235603e19833603018112614c2d57600080fd5b9190910192915050565b600060208284031215614c4957600080fd5b8135600781106113c357600080fd5b6000808335601e19843603018112614c6f57600080fd5b8301803591506001600160401b03821115614c8957600080fd5b60200191503681900382131561427c57600080fd5b60008060c08385031215614cb157600080fd5b8235614cbc8161414f565b9150614ccb8460208501614497565b90509250929050565b8035600f81900b811461205257600080fd5b80356003811061205257600080fd5b6000610100808385031215614d0957600080fd5b604051908101906001600160401b0382118183101715614d2b57614d2b614109565b8160405280925083359150614d3f826143f2565b818152614d4e60208501614401565b6020820152614d5f60408501614cd4565b6040820152614d7060608501614068565b6060820152614d8160808501614b24565b6080820152614d9260a0850161417a565b60a0820152614da360c08501614ce6565b60c0820152614db460e0850161417a565b60e0820152505092915050565b6000806101208385031215614dd557600080fd5b8235614de08161414f565b9150614ccb8460208501614cf5565b600080600060608486031215614e0457600080fd5b8335614e0f8161414f565b92506020840135614e1f816143f2565b91506040840135614e2f816143f2565b809150509250925092565b60008060408385031215614e4d57600080fd5b8235614e588161414f565b915060208301356143ad8161414f565b6020810160078310614e7c57614e7c614beb565b91905290565b634e487b7160e01b600052601160045260246000fd5b600060018201614eaa57614eaa614e82565b5060010190565b600060208284031215614ec357600080fd5b5051919050565b600060208284031215614edc57600080fd5b81356113c38161485b565b600061ffff80831681851681830481118215151615614f0857614f08614e82565b02949350505050565b634e487b7160e01b600052601260045260246000fd5b600061ffff80841680614f3c57614f3c614f11565b92169190910492915050565b60008219821115614f5b57614f5b614e82565b500190565b6001600160401b038116811461206257600080fd5b803561205281614f60565b600060208284031215614f9257600080fd5b81356113c381614f60565b6000813561140481614f60565b8135614fb58161485b565b815461ffff191661ffff8216178255506020820135614fd38161485b565b815463ffff00001916601082901b63ffff000016178255506040820135614ff98161485b565b815465ffff000000001916602082901b65ffff00000000161782555060608201356150238161485b565b815467ffff0000000000008260301b1691508167ffff00000000000019821617835560808401356150538161485b565b69ffff00000000000000008160401b168363ffffffff60301b198416171784555050506150a561508560a0840161486b565b82805461ffff60501b191660509290921b61ffff60501b16919091179055565b6150e06150b460c08401614f9d565b82805467ffffffffffffffff60601b191660609290921b67ffffffffffffffff60601b16919091179055565b6108576150ef60e08401614f9d565b82805467ffffffffffffffff60a01b191660a09290921b67ffffffffffffffff60a01b16919091179055565b6101608101853561512b8161485b565b61ffff90811683526020870135906151428261485b565b16602083015261515460408701614b24565b61ffff16604083015261516960608701614b24565b61ffff16606083015261517e60808701614b24565b61ffff16608083015261519360a08701614b24565b61ffff1660a08301526151a860c08701614f75565b6001600160401b031660c08301526151c260e08701614f75565b6001600160401b031660e083015261010082019490945261012081019290925261014090910152919050565b8183823760009101908152919050565b60006020828403121561521057600080fd5b81516001600160401b038082111561522757600080fd5b818401915084601f83011261523b57600080fd5b81518181111561524d5761524d614109565b615260601f8201601f191660200161411f565b915080825285602082850101111561527757600080fd5b612a9f8160208401602086016142ce565b60208152600061140160208301846142fa565b600061010082840312156152ae57600080fd5b6114018383614cf5565b600080604083850312156152cb57600080fd5b505080516020909101519092909150565b6000600160ff1b82016152f1576152f1614e82565b5060000390565b60006101208201905086825263ffffffff861660208301528451604083015260018060a01b0360208601511660608301526040850151151560808301526060850151151560a08301526080850151151560c08301528360e083015261536261010083018415159052565b9695505050505050565b6003811061537c5761537c614beb565b9052565b60006101808201905086825263ffffffff86166020830152845160020b6040830152602085015160020b60608301526040850151600f0b608083015260608501516153d660a08401826001600160a01b03169052565b50608085015161ffff1660c08381019190915260a0860151151560e084015285015161540661010084018261536c565b5060e085015115156101208301526101408201849052821515610160830152615362565b60008060006060848603121561543f57600080fd5b8351925060208401519150604084015190509250925092565b600080821280156001600160ff1b038490038513161561547a5761547a614e82565b600160ff1b839003841281161561549357615493614e82565b50500190565b60006001600160a01b03838116908316818110156154b9576154b9614e82565b039392505050565b60006001600160a01b0382811684821681151582840482111615614f0857614f08614e82565b60006001600160a01b0383811680614f3c57614f3c614f11565b600060ff821660ff810361551757615517614e82565b60010192915050565b60006020828403121561553257600080fd5b81516113c38161416c565b60008083128015600160ff1b85018412161561555b5761555b614e82565b6001600160ff1b038401831381161561557657615576614e82565b50500390565b600080600080600080600060e0888a03121561559757600080fd5b87516155a281614053565b60208901519097506155b3816143f2565b60408901519096506155c48161485b565b60608901519095506155d58161485b565b60808901519094506155e68161485b565b60a089015190935060ff811681146155fd57600080fd5b60c08901519092506140f98161416c565b60008251614c2d8184602087016142ce565b6020808252825182820181905260009190848201906040850190845b8181101561477a57835163ffffffff168352928401929184019160010161563c565b600082601f83011261566f57600080fd5b8151602061567f61470083614695565b82815260059290921b8401810191818101908684111561569e57600080fd5b8286015b848110156156c25780516156b581614053565b83529183019183016156a2565b509695505050505050565b600080604083850312156156e057600080fd5b82516001600160401b03808211156156f757600080fd5b818501915085601f83011261570b57600080fd5b8151602061571b61470083614695565b82815260059290921b8401810191818101908984111561573a57600080fd5b948201945b838610156157685785518060060b81146157595760008081fd5b8252948201949082019061573f565b9188015191965090935050508082111561578157600080fd5b5061578e8582860161565e565b9150509250929050565b60008160060b8360060b6000811281667fffffffffffff19018312811516156157c3576157c3614e82565b81667fffffffffffff0183138116156157de576157de614e82565b5090039392505050565b60008160060b8360060b806157ff576157ff614f11565b667fffffffffffff1982146000198214161561581d5761581d614e82565b90059392505050565b60008260060b8061583957615839614f11565b808360060b0791505092915050565b60008160020b627fffff19810361586157615861614e82565b600019019291505056fea2646970667358221220106dae667a52b37ef00cb968fadaab966f625ac3205e7ccf0102a0fbb28a47ee64736f6c634300080e0033496e697469616c697a61626c653a20636f6e747261637420697320616c7265617f26b83ff96e1f2b6a682f133852f6798a09c465da95921460cefb3847402498",
  "linkReferences": {
    "@rage/core/contracts/libraries/Account.sol": {
      "Account": [
        {
          "length": 20,
          "start": 2786
        },
        {
          "length": 20,
          "start": 5739
        },
        {
          "length": 20,
          "start": 5861
        },
        {
          "length": 20,
          "start": 6103
        },
        {
          "length": 20,
          "start": 8578
        },
        {
          "length": 20,
          "start": 8751
        },
        {
          "length": 20,
          "start": 10614
        },
        {
          "length": 20,
          "start": 10854
        },
        {
          "length": 20,
          "start": 11031
        },
        {
          "length": 20,
          "start": 11426
        },
        {
          "length": 20,
          "start": 11693
        },
        {
          "length": 20,
          "start": 11863
        },
        {
          "length": 20,
          "start": 12212
        }
      ]
    }
  },
  "deployedLinkReferences": {
    "@rage/core/contracts/libraries/Account.sol": {
      "Account": [
        {
          "length": 20,
          "start": 1903
        },
        {
          "length": 20,
          "start": 4856
        },
        {
          "length": 20,
          "start": 4978
        },
        {
          "length": 20,
          "start": 5220
        },
        {
          "length": 20,
          "start": 7695
        },
        {
          "length": 20,
          "start": 7868
        },
        {
          "length": 20,
          "start": 9731
        },
        {
          "length": 20,
          "start": 9971
        },
        {
          "length": 20,
          "start": 10148
        },
        {
          "length": 20,
          "start": 10543
        },
        {
          "length": 20,
          "start": 10810
        },
        {
          "length": 20,
          "start": 10980
        },
        {
          "length": 20,
          "start": 11329
        }
      ]
    }
  }
}