{
  "_format": "hh-sol-artifact-1",
  "contractName": "NormalDist",
  "sourceName": "contracts/libraries/NormalDist.sol",
  "abi": [
    {
      "inputs": [],
      "name": "PRBMathSD59x18__AbsInputTooSmall",
      "type": "error"
    },
    {
      "inputs": [],
      "name": "PRBMathSD59x18__DivInputTooSmall",
      "type": "error"
    },
    {
      "inputs": [
        {
          "internalType": "uint256",
          "name": "rAbs",
          "type": "uint256"
        }
      ],
      "name": "PRBMathSD59x18__DivOverflow",
      "type": "error"
    },
    {
      "inputs": [
        {
          "internalType": "int256",
          "name": "x",
          "type": "int256"
        }
      ],
      "name": "PRBMathSD59x18__Exp2InputTooBig",
      "type": "error"
    },
    {
      "inputs": [
        {
          "internalType": "int256",
          "name": "x",
          "type": "int256"
        }
      ],
      "name": "PRBMathSD59x18__ExpInputTooBig",
      "type": "error"
    },
    {
      "inputs": [],
      "name": "PRBMathSD59x18__MulInputTooSmall",
      "type": "error"
    },
    {
      "inputs": [
        {
          "internalType": "uint256",
          "name": "rAbs",
          "type": "uint256"
        }
      ],
      "name": "PRBMathSD59x18__MulOverflow",
      "type": "error"
    },
    {
      "inputs": [
        {
          "internalType": "uint256",
          "name": "prod1",
          "type": "uint256"
        }
      ],
      "name": "PRBMath__MulDivFixedPointOverflow",
      "type": "error"
    },
    {
      "inputs": [
        {
          "internalType": "uint256",
          "name": "prod1",
          "type": "uint256"
        },
        {
          "internalType": "uint256",
          "name": "denominator",
          "type": "uint256"
        }
      ],
      "name": "PRBMath__MulDivOverflow",
      "type": "error"
    },
    {
      "inputs": [
        {
          "internalType": "int256",
          "name": "x",
          "type": "int256"
        }
      ],
      "name": "cdf",
      "outputs": [
        {
          "internalType": "int256",
          "name": "",
          "type": "int256"
        }
      ],
      "stateMutability": "pure",
      "type": "function"
    },
    {
      "inputs": [
        {
          "internalType": "int256",
          "name": "t",
          "type": "int256"
        }
      ],
      "name": "getScoresFromT",
      "outputs": [
        {
          "internalType": "int256",
          "name": "",
          "type": "int256"
        }
      ],
      "stateMutability": "pure",
      "type": "function"
    },
    {
      "inputs": [
        {
          "internalType": "int256",
          "name": "x",
          "type": "int256"
        }
      ],
      "name": "phi",
      "outputs": [
        {
          "internalType": "int256",
          "name": "",
          "type": "int256"
        }
      ],
      "stateMutability": "pure",
      "type": "function"
    }
  ],
  "bytecode": "0x610ed161003a600b82828239805160001a60731461002d57634e487b7160e01b600052600060045260246000fd5b30600052607381538281f3fe730000000000000000000000000000000000000000301460806040526004361061004b5760003560e01c80632dceba4214610050578063d0b71b1e14610075578063e082660f14610088575b600080fd5b61006361005e366004610dc0565b61009b565b60405190815260200160405180910390f35b610063610083366004610dc0565b61012b565b610063610096366004610dc0565b61017b565b6000806100b0670ebade9d363752008461025e565b905060006100d1846100cb67142aa211c5f94dff1985610def565b9061025e565b905060006100eb856100cb6713b9e044372a020085610def565b90506000610106866100cb6703f2bc462909bfff1985610def565b90506000610120876100cb6703895629ed6af00085610def565b979650505050505050565b600080610140836713a04bbdfdc9be88610325565b9050600061014d8261017b565b61015f90670de0b6b3a7640000610def565b90506101736706f05b59d3b200008261025e565b949350505050565b600080600083121561019d57610198670de0b6b3a7640000610e30565b6101a7565b670de0b6b3a76400005b905060006101b4846103eb565b905060006101ee6101cd67048bd65eab1458008461025e565b6101df90670de0b6b3a7640000610def565b670de0b6b3a764000090610325565b905060006101fb8261009b565b90506000610226610221856100cb61021a670de0b6b3a7640000610e30565b889061025e565b61042b565b90506000610234838361025e565b61024690670de0b6b3a7640000610e46565b9050610252868261025e565b98975050505050505050565b6000600160ff1b8314806102755750600160ff1b82145b1561029357604051630d01a11b60e21b815260040160405180910390fd5b600080600085126102a457846102a9565b846000035b9150600084126102b957836102be565b836000035b905060006102cc83836104a2565b90506001600160ff1b038111156102fe5760405163bf79e8d960e01b8152600481018290526024015b60405180910390fd5b6000198087139086138082186001146103175782610252565b505060000395945050505050565b6000600160ff1b83148061033c5750600160ff1b82145b1561035a5760405163b3c754a360e01b815260040160405180910390fd5b6000806000851261036b5784610370565b846000035b9150600084126103805783610385565b836000035b9050600061039c83670de0b6b3a764000084610564565b90506001600160ff1b038111156103c957604051637cb4bef560e01b8152600481018290526024016102f5565b6000198087139086138082186001146103e25782610252565b61025283610e30565b6000600160ff1b82141561041257604051631d0742e360e21b815260040160405180910390fd5b600082126104205781610425565b816000035b92915050565b600068023f2fa8f6da5b9d311982121561044757506000919050565b680736ea4425c11ac6318212610473576040516399bb754160e01b8152600481018390526024016102f5565b6714057b7ef767814f820261049b670de0b6b3a76400006706f05b59d3b20000830105610631565b9392505050565b60008080600019848609848602925082811083820303915050670de0b6b3a764000081106104e65760405163698d9a0160e11b8152600481018290526024016102f5565b600080670de0b6b3a76400008688099150506706f05b59d3b1ffff8111826105205780670de0b6b3a7640000850401945050505050610425565b620400008285030493909111909103600160ee1b02919091177faccb18165bd6fe31ae1cf318dc5b51eee0e1ba569b88cd74c1773b91fac106690201905092915050565b60008080600019858709858702925082811083820303915050806000141561059f5783828161059557610595610e85565b049250505061049b565b8381106105c957604051631dcf306360e21b815260048101829052602481018590526044016102f5565b600084868809600260036001881981018916988990049182028318808302840302808302840302808302840302808302840302808302840302918202909203026000889003889004909101858311909403939093029303949094049190911702949350505050565b6000808212156106855768033dd1780914b971141982121561065557506000919050565b61066182600003610631565b6ec097ce7bc90715b34b9f10000000008161067e5761067e610e85565b0592915050565b680a688906bd8b00000082126106b15760405163e69458f960e01b8152600481018390526024016102f5565b670de0b6b3a7640000604083901b0461049b81600160bf1b6780000000000000008216156106e85768016a09e667f3bcc9090260401c5b674000000000000000821615610707576801306fe0a31b7152df0260401c5b672000000000000000821615610726576801172b83c7d517adce0260401c5b6710000000000000008216156107455768010b5586cf9890f62a0260401c5b670800000000000000821615610764576801059b0d31585743ae0260401c5b67040000000000000082161561078357680102c9a3e778060ee70260401c5b6702000000000000008216156107a25768010163da9fb33356d80260401c5b6701000000000000008216156107c157680100b1afa5abcbed610260401c5b66800000000000008216156107df5768010058c86da1c09ea20260401c5b66400000000000008216156107fd576801002c605e2e8cec500260401c5b662000000000000082161561081b57680100162f3904051fa10260401c5b6610000000000000821615610839576801000b175effdc76ba0260401c5b660800000000000082161561085757680100058ba01fb9f96d0260401c5b66040000000000008216156108755768010002c5cc37da94920260401c5b6602000000000000821615610893576801000162e525ee05470260401c5b66010000000000008216156108b15768010000b17255775c040260401c5b658000000000008216156108ce576801000058b91b5bc9ae0260401c5b654000000000008216156108eb57680100002c5c89d5ec6d0260401c5b652000000000008216156109085768010000162e43f4f8310260401c5b6510000000000082161561092557680100000b1721bcfc9a0260401c5b650800000000008216156109425768010000058b90cf1e6e0260401c5b6504000000000082161561095f576801000002c5c863b73f0260401c5b6502000000000082161561097c57680100000162e430e5a20260401c5b65010000000000821615610999576801000000b1721835510260401c5b6480000000008216156109b557680100000058b90c0b490260401c5b6440000000008216156109d15768010000002c5c8601cc0260401c5b6420000000008216156109ed576801000000162e42fff00260401c5b641000000000821615610a095768010000000b17217fbb0260401c5b640800000000821615610a25576801000000058b90bfce0260401c5b640400000000821615610a4157680100000002c5c85fe30260401c5b640200000000821615610a5d5768010000000162e42ff10260401c5b640100000000821615610a7957680100000000b17217f80260401c5b6380000000821615610a945768010000000058b90bfc0260401c5b6340000000821615610aaf576801000000002c5c85fe0260401c5b6320000000821615610aca57680100000000162e42ff0260401c5b6310000000821615610ae5576801000000000b17217f0260401c5b6308000000821615610b0057680100000000058b90c00260401c5b6304000000821615610b1b5768010000000002c5c8600260401c5b6302000000821615610b36576801000000000162e4300260401c5b6301000000821615610b515768010000000000b172180260401c5b62800000821615610b6b576801000000000058b90c0260401c5b62400000821615610b8557680100000000002c5c860260401c5b62200000821615610b9f5768010000000000162e430260401c5b62100000821615610bb957680100000000000b17210260401c5b62080000821615610bd35768010000000000058b910260401c5b62040000821615610bed576801000000000002c5c80260401c5b62020000821615610c0757680100000000000162e40260401c5b62010000821615610c21576801000000000000b1720260401c5b618000821615610c3a57680100000000000058b90260401c5b614000821615610c535768010000000000002c5d0260401c5b612000821615610c6c576801000000000000162e0260401c5b611000821615610c855768010000000000000b170260401c5b610800821615610c9e576801000000000000058c0260401c5b610400821615610cb757680100000000000002c60260401c5b610200821615610cd057680100000000000001630260401c5b610100821615610ce957680100000000000000b10260401c5b6080821615610d0157680100000000000000590260401c5b6040821615610d19576801000000000000002c0260401c5b6020821615610d3157680100000000000000160260401c5b6010821615610d49576801000000000000000b0260401c5b6008821615610d6157680100000000000000060260401c5b6004821615610d7957680100000000000000030260401c5b6002821615610d9157680100000000000000010260401c5b6001821615610da957680100000000000000010260401c5b670de0b6b3a76400000260409190911c60bf031c90565b600060208284031215610dd257600080fd5b5035919050565b634e487b7160e01b600052601160045260246000fd5b600080821280156001600160ff1b0384900385131615610e1157610e11610dd9565b600160ff1b8390038412811615610e2a57610e2a610dd9565b50500190565b6000600160ff1b82141561042057610420610dd9565b60008083128015600160ff1b850184121615610e6457610e64610dd9565b6001600160ff1b0384018313811615610e7f57610e7f610dd9565b50500390565b634e487b7160e01b600052601260045260246000fdfea26469706673582212201044c2b36ff3b27321235ff364e9f993e40ceb6e3773ba7d6bcd0841a2ac479964736f6c63430008090033",
  "linkReferences": {},
  "deployedLinkReferences": {}
}