{
  "contracts/packages/opyn/mocks/MockChainlinkAggregator.sol": {
    "MockChainlinkAggregator": {
      "abi": [
        {
          "inputs": [],
          "name": "decimals",
          "outputs": [
            {
              "internalType": "uint256",
              "name": "",
              "type": "uint256"
            }
          ],
          "stateMutability": "view",
          "type": "function"
        },
        {
          "inputs": [
            {
              "internalType": "uint80",
              "name": "_roundId",
              "type": "uint80"
            }
          ],
          "name": "getRoundData",
          "outputs": [
            {
              "internalType": "uint80",
              "name": "roundId",
              "type": "uint80"
            },
            {
              "internalType": "int256",
              "name": "answer",
              "type": "int256"
            },
            {
              "internalType": "uint256",
              "name": "startedAt",
              "type": "uint256"
            },
            {
              "internalType": "uint256",
              "name": "updatedAt",
              "type": "uint256"
            },
            {
              "internalType": "uint80",
              "name": "answeredInRound",
              "type": "uint80"
            }
          ],
          "stateMutability": "view",
          "type": "function"
        },
        {
          "inputs": [],
          "name": "latestRoundData",
          "outputs": [
            {
              "internalType": "uint80",
              "name": "roundId",
              "type": "uint80"
            },
            {
              "internalType": "int256",
              "name": "answer",
              "type": "int256"
            },
            {
              "internalType": "uint256",
              "name": "startedAt",
              "type": "uint256"
            },
            {
              "internalType": "uint256",
              "name": "updatedAt",
              "type": "uint256"
            },
            {
              "internalType": "uint80",
              "name": "answeredInRound",
              "type": "uint80"
            }
          ],
          "stateMutability": "view",
          "type": "function"
        },
        {
          "inputs": [
            {
              "internalType": "int256",
              "name": "_answer",
              "type": "int256"
            }
          ],
          "name": "setLatestAnswer",
          "outputs": [],
          "stateMutability": "nonpayable",
          "type": "function"
        },
        {
          "inputs": [
            {
              "internalType": "uint256",
              "name": "_roundId",
              "type": "uint256"
            },
            {
              "internalType": "int256",
              "name": "_answer",
              "type": "int256"
            }
          ],
          "name": "setRoundAnswer",
          "outputs": [],
          "stateMutability": "nonpayable",
          "type": "function"
        },
        {
          "inputs": [
            {
              "internalType": "uint256",
              "name": "_roundId",
              "type": "uint256"
            }
          ],
          "name": "setRoundTimestamp",
          "outputs": [],
          "stateMutability": "nonpayable",
          "type": "function"
        }
      ],
      "devdoc": {
        "methods": {
          "setRoundAnswer(uint256,int256)": {
            "details": "function to mock setting round timestamp"
          },
          "setRoundTimestamp(uint256)": {
            "details": "function to mock setting round timestamp"
          }
        },
        "stateVariables": {
          "roundAnswer": {
            "details": "mock for round price"
          },
          "roundTimestamp": {
            "details": "mock for round timestmap"
          }
        }
      },
      "evm": {
        "bytecode": {
          "linkReferences": {},
          "object": "6080604052600860005534801561001557600080fd5b50610263806100256000396000f3fe608060405234801561001057600080fd5b50600436106100625760003560e01c806304ea97b0146100675780631ef4026b1461008657806326b17a08146100a3578063313ce567146100c65780639a6fc8f5146100e0578063feaf968c14610148575b600080fd5b6100846004803603602081101561007d57600080fd5b5035610150565b005b6100846004803603602081101561009c57600080fd5b5035610155565b610084600480360360408110156100b957600080fd5b5080359060200135610168565b6100ce61017a565b60408051918252519081900360200190f35b610109600480360360208110156100f657600080fd5b503569ffffffffffffffffffff16610180565b6040805169ffffffffffffffffffff96871681526020810195909552848101939093526060840191909152909216608082015290519081900360a00190f35b61010961021f565b600355565b6000908152600160205260409020429055565b60009182526002602052604090912055565b60005481565b69ffffffffffffffffffff811660009081526001602052604081205481908190819081906101e7576040805162461bcd60e51b815260206004820152600f60248201526e139bc819185d18481c1c995cd95b9d608a1b604482015290519081900360640190fd5b5050505069ffffffffffffffffffff821660009081526002602090815260408083205460019092529091205492939092915081908490565b60035460019142908190849056fea2646970667358221220855936e663f00c320c1e7a93a953e52f9ac93c1897e83ca6b8acacbe0bf8f24464736f6c634300060a0033",
          "opcodes": "PUSH1 0x80 PUSH1 0x40 MSTORE PUSH1 0x8 PUSH1 0x0 SSTORE CALLVALUE DUP1 ISZERO PUSH2 0x15 JUMPI PUSH1 0x0 DUP1 REVERT JUMPDEST POP PUSH2 0x263 DUP1 PUSH2 0x25 PUSH1 0x0 CODECOPY PUSH1 0x0 RETURN INVALID PUSH1 0x80 PUSH1 0x40 MSTORE CALLVALUE DUP1 ISZERO PUSH2 0x10 JUMPI PUSH1 0x0 DUP1 REVERT JUMPDEST POP PUSH1 0x4 CALLDATASIZE LT PUSH2 0x62 JUMPI PUSH1 0x0 CALLDATALOAD PUSH1 0xE0 SHR DUP1 PUSH4 0x4EA97B0 EQ PUSH2 0x67 JUMPI DUP1 PUSH4 0x1EF4026B EQ PUSH2 0x86 JUMPI DUP1 PUSH4 0x26B17A08 EQ PUSH2 0xA3 JUMPI DUP1 PUSH4 0x313CE567 EQ PUSH2 0xC6 JUMPI DUP1 PUSH4 0x9A6FC8F5 EQ PUSH2 0xE0 JUMPI DUP1 PUSH4 0xFEAF968C EQ PUSH2 0x148 JUMPI JUMPDEST PUSH1 0x0 DUP1 REVERT JUMPDEST PUSH2 0x84 PUSH1 0x4 DUP1 CALLDATASIZE SUB PUSH1 0x20 DUP2 LT ISZERO PUSH2 0x7D JUMPI PUSH1 0x0 DUP1 REVERT JUMPDEST POP CALLDATALOAD PUSH2 0x150 JUMP JUMPDEST STOP JUMPDEST PUSH2 0x84 PUSH1 0x4 DUP1 CALLDATASIZE SUB PUSH1 0x20 DUP2 LT ISZERO PUSH2 0x9C JUMPI PUSH1 0x0 DUP1 REVERT JUMPDEST POP CALLDATALOAD PUSH2 0x155 JUMP JUMPDEST PUSH2 0x84 PUSH1 0x4 DUP1 CALLDATASIZE SUB PUSH1 0x40 DUP2 LT ISZERO PUSH2 0xB9 JUMPI PUSH1 0x0 DUP1 REVERT JUMPDEST POP DUP1 CALLDATALOAD SWAP1 PUSH1 0x20 ADD CALLDATALOAD PUSH2 0x168 JUMP JUMPDEST PUSH2 0xCE PUSH2 0x17A JUMP JUMPDEST PUSH1 0x40 DUP1 MLOAD SWAP2 DUP3 MSTORE MLOAD SWAP1 DUP2 SWAP1 SUB PUSH1 0x20 ADD SWAP1 RETURN JUMPDEST PUSH2 0x109 PUSH1 0x4 DUP1 CALLDATASIZE SUB PUSH1 0x20 DUP2 LT ISZERO PUSH2 0xF6 JUMPI PUSH1 0x0 DUP1 REVERT JUMPDEST POP CALLDATALOAD PUSH10 0xFFFFFFFFFFFFFFFFFFFF AND PUSH2 0x180 JUMP JUMPDEST PUSH1 0x40 DUP1 MLOAD PUSH10 0xFFFFFFFFFFFFFFFFFFFF SWAP7 DUP8 AND DUP2 MSTORE PUSH1 0x20 DUP2 ADD SWAP6 SWAP1 SWAP6 MSTORE DUP5 DUP2 ADD SWAP4 SWAP1 SWAP4 MSTORE PUSH1 0x60 DUP5 ADD SWAP2 SWAP1 SWAP2 MSTORE SWAP1 SWAP3 AND PUSH1 0x80 DUP3 ADD MSTORE SWAP1 MLOAD SWAP1 DUP2 SWAP1 SUB PUSH1 0xA0 ADD SWAP1 RETURN JUMPDEST PUSH2 0x109 PUSH2 0x21F JUMP JUMPDEST PUSH1 0x3 SSTORE JUMP JUMPDEST PUSH1 0x0 SWAP1 DUP2 MSTORE PUSH1 0x1 PUSH1 0x20 MSTORE PUSH1 0x40 SWAP1 KECCAK256 TIMESTAMP SWAP1 SSTORE JUMP JUMPDEST PUSH1 0x0 SWAP2 DUP3 MSTORE PUSH1 0x2 PUSH1 0x20 MSTORE PUSH1 0x40 SWAP1 SWAP2 KECCAK256 SSTORE JUMP JUMPDEST PUSH1 0x0 SLOAD DUP2 JUMP JUMPDEST PUSH10 0xFFFFFFFFFFFFFFFFFFFF DUP2 AND PUSH1 0x0 SWAP1 DUP2 MSTORE PUSH1 0x1 PUSH1 0x20 MSTORE PUSH1 0x40 DUP2 KECCAK256 SLOAD DUP2 SWAP1 DUP2 SWAP1 DUP2 SWAP1 DUP2 SWAP1 PUSH2 0x1E7 JUMPI PUSH1 0x40 DUP1 MLOAD PUSH3 0x461BCD PUSH1 0xE5 SHL DUP2 MSTORE PUSH1 0x20 PUSH1 0x4 DUP3 ADD MSTORE PUSH1 0xF PUSH1 0x24 DUP3 ADD MSTORE PUSH15 0x139BC819185D18481C1C995CD95B9D PUSH1 0x8A SHL PUSH1 0x44 DUP3 ADD MSTORE SWAP1 MLOAD SWAP1 DUP2 SWAP1 SUB PUSH1 0x64 ADD SWAP1 REVERT JUMPDEST POP POP POP POP PUSH10 0xFFFFFFFFFFFFFFFFFFFF DUP3 AND PUSH1 0x0 SWAP1 DUP2 MSTORE PUSH1 0x2 PUSH1 0x20 SWAP1 DUP2 MSTORE PUSH1 0x40 DUP1 DUP4 KECCAK256 SLOAD PUSH1 0x1 SWAP1 SWAP3 MSTORE SWAP1 SWAP2 KECCAK256 SLOAD SWAP3 SWAP4 SWAP1 SWAP3 SWAP2 POP DUP2 SWAP1 DUP5 SWAP1 JUMP JUMPDEST PUSH1 0x3 SLOAD PUSH1 0x1 SWAP2 TIMESTAMP SWAP1 DUP2 SWAP1 DUP5 SWAP1 JUMP INVALID LOG2 PUSH5 0x6970667358 0x22 SLT KECCAK256 DUP6 MSIZE CALLDATASIZE 0xE6 PUSH4 0xF00C320C 0x1E PUSH27 0x93A953E52F9AC93C1897E83CA6B8ACACBE0BF8F24464736F6C6343 STOP MOD EXP STOP CALLER "
        },
        "gasEstimates": {
          "creation": {
            "codeDepositCost": "122200",
            "executionCost": "20177",
            "totalCost": "142377"
          },
          "external": {
            "decimals()": "1042",
            "getRoundData(uint80)": "3114",
            "latestRoundData()": "1214",
            "setLatestAnswer(int256)": "20167",
            "setRoundAnswer(uint256,int256)": "20295",
            "setRoundTimestamp(uint256)": "20260"
          }
        },
        "methodIdentifiers": {
          "decimals()": "313ce567",
          "getRoundData(uint80)": "9a6fc8f5",
          "latestRoundData()": "feaf968c",
          "setLatestAnswer(int256)": "04ea97b0",
          "setRoundAnswer(uint256,int256)": "26b17a08",
          "setRoundTimestamp(uint256)": "1ef4026b"
        }
      },
      "storageLayout": {
        "storage": [
          {
            "astId": 5,
            "contract": "contracts/packages/opyn/mocks/MockChainlinkAggregator.sol:MockChainlinkAggregator",
            "label": "decimals",
            "offset": 0,
            "slot": "0",
            "type": "t_uint256"
          },
          {
            "astId": 10,
            "contract": "contracts/packages/opyn/mocks/MockChainlinkAggregator.sol:MockChainlinkAggregator",
            "label": "roundTimestamp",
            "offset": 0,
            "slot": "1",
            "type": "t_mapping(t_uint256,t_uint256)"
          },
          {
            "astId": 15,
            "contract": "contracts/packages/opyn/mocks/MockChainlinkAggregator.sol:MockChainlinkAggregator",
            "label": "roundAnswer",
            "offset": 0,
            "slot": "2",
            "type": "t_mapping(t_uint256,t_int256)"
          },
          {
            "astId": 17,
            "contract": "contracts/packages/opyn/mocks/MockChainlinkAggregator.sol:MockChainlinkAggregator",
            "label": "lastAnswer",
            "offset": 0,
            "slot": "3",
            "type": "t_int256"
          }
        ],
        "types": {
          "t_int256": {
            "encoding": "inplace",
            "label": "int256",
            "numberOfBytes": "32"
          },
          "t_mapping(t_uint256,t_int256)": {
            "encoding": "mapping",
            "key": "t_uint256",
            "label": "mapping(uint256 => int256)",
            "numberOfBytes": "32",
            "value": "t_int256"
          },
          "t_mapping(t_uint256,t_uint256)": {
            "encoding": "mapping",
            "key": "t_uint256",
            "label": "mapping(uint256 => uint256)",
            "numberOfBytes": "32",
            "value": "t_uint256"
          },
          "t_uint256": {
            "encoding": "inplace",
            "label": "uint256",
            "numberOfBytes": "32"
          }
        }
      },
      "userdoc": {
        "methods": {},
        "notice": "Chainlink oracle mock"
      }
    }
  }
}