{
  "contracts/mocks/ForceSend.sol": {
    "ForceSend": {
      "abi": [
        {
          "inputs": [
            {
              "internalType": "address payable",
              "name": "victim",
              "type": "address"
            }
          ],
          "name": "go",
          "outputs": [],
          "stateMutability": "payable",
          "type": "function"
        }
      ],
      "devdoc": {
        "kind": "dev",
        "methods": {},
        "version": 1
      },
      "evm": {
        "bytecode": {
          "linkReferences": {},
          "object": "6080604052348015600f57600080fd5b5060a28061001e6000396000f3fe608060405260043610601c5760003560e01c80633434e749146021575b600080fd5b6030602c366004603e565b6032565b005b806001600160a01b0316ff5b600060208284031215604f57600080fd5b81356001600160a01b0381168114606557600080fd5b939250505056fea2646970667358221220c3637602c0bf64aebcb86e0b27e50307758319af0d2d03be41eed77ed46c2afc64736f6c63430008090033",
          "opcodes": "PUSH1 0x80 PUSH1 0x40 MSTORE CALLVALUE DUP1 ISZERO PUSH1 0xF JUMPI PUSH1 0x0 DUP1 REVERT JUMPDEST POP PUSH1 0xA2 DUP1 PUSH2 0x1E PUSH1 0x0 CODECOPY PUSH1 0x0 RETURN INVALID PUSH1 0x80 PUSH1 0x40 MSTORE PUSH1 0x4 CALLDATASIZE LT PUSH1 0x1C JUMPI PUSH1 0x0 CALLDATALOAD PUSH1 0xE0 SHR DUP1 PUSH4 0x3434E749 EQ PUSH1 0x21 JUMPI JUMPDEST PUSH1 0x0 DUP1 REVERT JUMPDEST PUSH1 0x30 PUSH1 0x2C CALLDATASIZE PUSH1 0x4 PUSH1 0x3E JUMP JUMPDEST PUSH1 0x32 JUMP JUMPDEST STOP JUMPDEST DUP1 PUSH1 0x1 PUSH1 0x1 PUSH1 0xA0 SHL SUB AND SELFDESTRUCT JUMPDEST PUSH1 0x0 PUSH1 0x20 DUP3 DUP5 SUB SLT ISZERO PUSH1 0x4F JUMPI PUSH1 0x0 DUP1 REVERT JUMPDEST DUP2 CALLDATALOAD PUSH1 0x1 PUSH1 0x1 PUSH1 0xA0 SHL SUB DUP2 AND DUP2 EQ PUSH1 0x65 JUMPI PUSH1 0x0 DUP1 REVERT JUMPDEST SWAP4 SWAP3 POP POP POP JUMP INVALID LOG2 PUSH5 0x6970667358 0x22 SLT KECCAK256 0xC3 PUSH4 0x7602C0BF PUSH5 0xAEBCB86E0B 0x27 0xE5 SUB SMOD PUSH22 0x8319AF0D2D03BE41EED77ED46C2AFC64736F6C634300 ADDMOD MULMOD STOP CALLER "
        },
        "gasEstimates": {
          "creation": {
            "codeDepositCost": "32400",
            "executionCost": "87",
            "totalCost": "32487"
          },
          "external": {
            "go(address)": "27833"
          }
        },
        "methodIdentifiers": {
          "go(address)": "3434e749"
        }
      },
      "storageLayout": {
        "storage": [],
        "types": null
      },
      "userdoc": {
        "kind": "user",
        "methods": {},
        "version": 1
      }
    }
  }
}