{
  "contracts/mocks/MockChainlinkAggregator.sol": {
    "MockChainlinkAggregator": {
      "abi": [
        {
          "inputs": [],
          "name": "decimals",
          "outputs": [
            {
              "internalType": "uint256",
              "name": "",
              "type": "uint256"
            }
          ],
          "stateMutability": "view",
          "type": "function"
        },
        {
          "inputs": [
            {
              "internalType": "uint80",
              "name": "_roundId",
              "type": "uint80"
            }
          ],
          "name": "getRoundData",
          "outputs": [
            {
              "internalType": "uint80",
              "name": "roundId",
              "type": "uint80"
            },
            {
              "internalType": "int256",
              "name": "answer",
              "type": "int256"
            },
            {
              "internalType": "uint256",
              "name": "startedAt",
              "type": "uint256"
            },
            {
              "internalType": "uint256",
              "name": "updatedAt",
              "type": "uint256"
            },
            {
              "internalType": "uint80",
              "name": "answeredInRound",
              "type": "uint80"
            }
          ],
          "stateMutability": "view",
          "type": "function"
        },
        {
          "inputs": [],
          "name": "latestRoundData",
          "outputs": [
            {
              "internalType": "uint80",
              "name": "roundId",
              "type": "uint80"
            },
            {
              "internalType": "int256",
              "name": "answer",
              "type": "int256"
            },
            {
              "internalType": "uint256",
              "name": "startedAt",
              "type": "uint256"
            },
            {
              "internalType": "uint256",
              "name": "updatedAt",
              "type": "uint256"
            },
            {
              "internalType": "uint80",
              "name": "answeredInRound",
              "type": "uint80"
            }
          ],
          "stateMutability": "view",
          "type": "function"
        },
        {
          "inputs": [
            {
              "internalType": "int256",
              "name": "_answer",
              "type": "int256"
            }
          ],
          "name": "setLatestAnswer",
          "outputs": [],
          "stateMutability": "nonpayable",
          "type": "function"
        },
        {
          "inputs": [
            {
              "internalType": "uint256",
              "name": "_roundId",
              "type": "uint256"
            },
            {
              "internalType": "int256",
              "name": "_answer",
              "type": "int256"
            }
          ],
          "name": "setRoundAnswer",
          "outputs": [],
          "stateMutability": "nonpayable",
          "type": "function"
        },
        {
          "inputs": [
            {
              "internalType": "uint256",
              "name": "_roundId",
              "type": "uint256"
            }
          ],
          "name": "setRoundTimestamp",
          "outputs": [],
          "stateMutability": "nonpayable",
          "type": "function"
        }
      ],
      "devdoc": {
        "kind": "dev",
        "methods": {
          "setRoundAnswer(uint256,int256)": {
            "details": "function to mock setting round timestamp"
          },
          "setRoundTimestamp(uint256)": {
            "details": "function to mock setting round timestamp"
          }
        },
        "stateVariables": {
          "roundAnswer": {
            "details": "mock for round price"
          },
          "roundTimestamp": {
            "details": "mock for round timestmap"
          }
        },
        "version": 1
      },
      "evm": {
        "bytecode": {
          "linkReferences": {},
          "object": "6080604052600860005534801561001557600080fd5b50610273806100256000396000f3fe608060405234801561001057600080fd5b50600436106100625760003560e01c806304ea97b0146100675780631ef4026b1461007c57806326b17a081461009d578063313ce567146100bd5780639a6fc8f5146100d9578063feaf968c14610123575b600080fd5b61007a6100753660046101cf565b600355565b005b61007a61008a3660046101cf565b6000908152600160205260409020429055565b61007a6100ab3660046101e8565b60009182526002602052604090912055565b6100c660005481565b6040519081526020015b60405180910390f35b6100ec6100e736600461020a565b610131565b6040805169ffffffffffffffffffff968716815260208101959095528401929092526060830152909116608082015260a0016100d0565b6003546001904280836100ec565b69ffffffffffffffffffff811660009081526001602052604081205481908190819081906101975760405162461bcd60e51b815260206004820152600f60248201526e139bc819185d18481c1c995cd95b9d608a1b604482015260640160405180910390fd5b5050505069ffffffffffffffffffff821660009081526002602090815260408083205460019092529091205492939092915081908490565b6000602082840312156101e157600080fd5b5035919050565b600080604083850312156101fb57600080fd5b50508035926020909101359150565b60006020828403121561021c57600080fd5b813569ffffffffffffffffffff8116811461023657600080fd5b939250505056fea264697066735822122066edd96ab773243072658d98bdaa22d92d08bd14f1d6c228941b83adb51990d664736f6c63430008090033",
          "opcodes": "PUSH1 0x80 PUSH1 0x40 MSTORE PUSH1 0x8 PUSH1 0x0 SSTORE CALLVALUE DUP1 ISZERO PUSH2 0x15 JUMPI PUSH1 0x0 DUP1 REVERT JUMPDEST POP PUSH2 0x273 DUP1 PUSH2 0x25 PUSH1 0x0 CODECOPY PUSH1 0x0 RETURN INVALID PUSH1 0x80 PUSH1 0x40 MSTORE CALLVALUE DUP1 ISZERO PUSH2 0x10 JUMPI PUSH1 0x0 DUP1 REVERT JUMPDEST POP PUSH1 0x4 CALLDATASIZE LT PUSH2 0x62 JUMPI PUSH1 0x0 CALLDATALOAD PUSH1 0xE0 SHR DUP1 PUSH4 0x4EA97B0 EQ PUSH2 0x67 JUMPI DUP1 PUSH4 0x1EF4026B EQ PUSH2 0x7C JUMPI DUP1 PUSH4 0x26B17A08 EQ PUSH2 0x9D JUMPI DUP1 PUSH4 0x313CE567 EQ PUSH2 0xBD JUMPI DUP1 PUSH4 0x9A6FC8F5 EQ PUSH2 0xD9 JUMPI DUP1 PUSH4 0xFEAF968C EQ PUSH2 0x123 JUMPI JUMPDEST PUSH1 0x0 DUP1 REVERT JUMPDEST PUSH2 0x7A PUSH2 0x75 CALLDATASIZE PUSH1 0x4 PUSH2 0x1CF JUMP JUMPDEST PUSH1 0x3 SSTORE JUMP JUMPDEST STOP JUMPDEST PUSH2 0x7A PUSH2 0x8A CALLDATASIZE PUSH1 0x4 PUSH2 0x1CF JUMP JUMPDEST PUSH1 0x0 SWAP1 DUP2 MSTORE PUSH1 0x1 PUSH1 0x20 MSTORE PUSH1 0x40 SWAP1 KECCAK256 TIMESTAMP SWAP1 SSTORE JUMP JUMPDEST PUSH2 0x7A PUSH2 0xAB CALLDATASIZE PUSH1 0x4 PUSH2 0x1E8 JUMP JUMPDEST PUSH1 0x0 SWAP2 DUP3 MSTORE PUSH1 0x2 PUSH1 0x20 MSTORE PUSH1 0x40 SWAP1 SWAP2 KECCAK256 SSTORE JUMP JUMPDEST PUSH2 0xC6 PUSH1 0x0 SLOAD DUP2 JUMP JUMPDEST PUSH1 0x40 MLOAD SWAP1 DUP2 MSTORE PUSH1 0x20 ADD JUMPDEST PUSH1 0x40 MLOAD DUP1 SWAP2 SUB SWAP1 RETURN JUMPDEST PUSH2 0xEC PUSH2 0xE7 CALLDATASIZE PUSH1 0x4 PUSH2 0x20A JUMP JUMPDEST PUSH2 0x131 JUMP JUMPDEST PUSH1 0x40 DUP1 MLOAD PUSH10 0xFFFFFFFFFFFFFFFFFFFF SWAP7 DUP8 AND DUP2 MSTORE PUSH1 0x20 DUP2 ADD SWAP6 SWAP1 SWAP6 MSTORE DUP5 ADD SWAP3 SWAP1 SWAP3 MSTORE PUSH1 0x60 DUP4 ADD MSTORE SWAP1 SWAP2 AND PUSH1 0x80 DUP3 ADD MSTORE PUSH1 0xA0 ADD PUSH2 0xD0 JUMP JUMPDEST PUSH1 0x3 SLOAD PUSH1 0x1 SWAP1 TIMESTAMP DUP1 DUP4 PUSH2 0xEC JUMP JUMPDEST PUSH10 0xFFFFFFFFFFFFFFFFFFFF DUP2 AND PUSH1 0x0 SWAP1 DUP2 MSTORE PUSH1 0x1 PUSH1 0x20 MSTORE PUSH1 0x40 DUP2 KECCAK256 SLOAD DUP2 SWAP1 DUP2 SWAP1 DUP2 SWAP1 DUP2 SWAP1 PUSH2 0x197 JUMPI PUSH1 0x40 MLOAD PUSH3 0x461BCD PUSH1 0xE5 SHL DUP2 MSTORE PUSH1 0x20 PUSH1 0x4 DUP3 ADD MSTORE PUSH1 0xF PUSH1 0x24 DUP3 ADD MSTORE PUSH15 0x139BC819185D18481C1C995CD95B9D PUSH1 0x8A SHL PUSH1 0x44 DUP3 ADD MSTORE PUSH1 0x64 ADD PUSH1 0x40 MLOAD DUP1 SWAP2 SUB SWAP1 REVERT JUMPDEST POP POP POP POP PUSH10 0xFFFFFFFFFFFFFFFFFFFF DUP3 AND PUSH1 0x0 SWAP1 DUP2 MSTORE PUSH1 0x2 PUSH1 0x20 SWAP1 DUP2 MSTORE PUSH1 0x40 DUP1 DUP4 KECCAK256 SLOAD PUSH1 0x1 SWAP1 SWAP3 MSTORE SWAP1 SWAP2 KECCAK256 SLOAD SWAP3 SWAP4 SWAP1 SWAP3 SWAP2 POP DUP2 SWAP1 DUP5 SWAP1 JUMP JUMPDEST PUSH1 0x0 PUSH1 0x20 DUP3 DUP5 SUB SLT ISZERO PUSH2 0x1E1 JUMPI PUSH1 0x0 DUP1 REVERT JUMPDEST POP CALLDATALOAD SWAP2 SWAP1 POP JUMP JUMPDEST PUSH1 0x0 DUP1 PUSH1 0x40 DUP4 DUP6 SUB SLT ISZERO PUSH2 0x1FB JUMPI PUSH1 0x0 DUP1 REVERT JUMPDEST POP POP DUP1 CALLDATALOAD SWAP3 PUSH1 0x20 SWAP1 SWAP2 ADD CALLDATALOAD SWAP2 POP JUMP JUMPDEST PUSH1 0x0 PUSH1 0x20 DUP3 DUP5 SUB SLT ISZERO PUSH2 0x21C JUMPI PUSH1 0x0 DUP1 REVERT JUMPDEST DUP2 CALLDATALOAD PUSH10 0xFFFFFFFFFFFFFFFFFFFF DUP2 AND DUP2 EQ PUSH2 0x236 JUMPI PUSH1 0x0 DUP1 REVERT JUMPDEST SWAP4 SWAP3 POP POP POP JUMP INVALID LOG2 PUSH5 0x6970667358 0x22 SLT KECCAK256 PUSH7 0xEDD96AB7732430 PUSH19 0x658D98BDAA22D92D08BD14F1D6C228941B83AD 0xB5 NOT SWAP1 0xD6 PUSH5 0x736F6C6343 STOP ADDMOD MULMOD STOP CALLER "
        },
        "gasEstimates": {
          "creation": {
            "codeDepositCost": "125400",
            "executionCost": "22277",
            "totalCost": "147677"
          },
          "external": {
            "decimals()": "2328",
            "getRoundData(uint80)": "7074",
            "latestRoundData()": "2490",
            "setLatestAnswer(int256)": "22290",
            "setRoundAnswer(uint256,int256)": "22426",
            "setRoundTimestamp(uint256)": "22383"
          }
        },
        "methodIdentifiers": {
          "decimals()": "313ce567",
          "getRoundData(uint80)": "9a6fc8f5",
          "latestRoundData()": "feaf968c",
          "setLatestAnswer(int256)": "04ea97b0",
          "setRoundAnswer(uint256,int256)": "26b17a08",
          "setRoundTimestamp(uint256)": "1ef4026b"
        }
      },
      "storageLayout": {
        "storage": [
          {
            "astId": 5,
            "contract": "contracts/mocks/MockChainlinkAggregator.sol:MockChainlinkAggregator",
            "label": "decimals",
            "offset": 0,
            "slot": "0",
            "type": "t_uint256"
          },
          {
            "astId": 10,
            "contract": "contracts/mocks/MockChainlinkAggregator.sol:MockChainlinkAggregator",
            "label": "roundTimestamp",
            "offset": 0,
            "slot": "1",
            "type": "t_mapping(t_uint256,t_uint256)"
          },
          {
            "astId": 15,
            "contract": "contracts/mocks/MockChainlinkAggregator.sol:MockChainlinkAggregator",
            "label": "roundAnswer",
            "offset": 0,
            "slot": "2",
            "type": "t_mapping(t_uint256,t_int256)"
          },
          {
            "astId": 17,
            "contract": "contracts/mocks/MockChainlinkAggregator.sol:MockChainlinkAggregator",
            "label": "lastAnswer",
            "offset": 0,
            "slot": "3",
            "type": "t_int256"
          }
        ],
        "types": {
          "t_int256": {
            "encoding": "inplace",
            "label": "int256",
            "numberOfBytes": "32"
          },
          "t_mapping(t_uint256,t_int256)": {
            "encoding": "mapping",
            "key": "t_uint256",
            "label": "mapping(uint256 => int256)",
            "numberOfBytes": "32",
            "value": "t_int256"
          },
          "t_mapping(t_uint256,t_uint256)": {
            "encoding": "mapping",
            "key": "t_uint256",
            "label": "mapping(uint256 => uint256)",
            "numberOfBytes": "32",
            "value": "t_uint256"
          },
          "t_uint256": {
            "encoding": "inplace",
            "label": "uint256",
            "numberOfBytes": "32"
          }
        }
      },
      "userdoc": {
        "kind": "user",
        "methods": {},
        "notice": "Chainlink oracle mock",
        "version": 1
      }
    }
  }
}