{
  "_format": "hh-sol-artifact-1",
  "contractName": "OptionRegistry",
  "sourceName": "contracts/OptionRegistry.sol",
  "abi": [
    {
      "inputs": [
        {
          "internalType": "address",
          "name": "usdToken",
          "type": "address"
        },
        {
          "internalType": "address",
          "name": "_oTokenFactory",
          "type": "address"
        },
        {
          "internalType": "address",
          "name": "_gammaController",
          "type": "address"
        },
        {
          "internalType": "address",
          "name": "_marginPool",
          "type": "address"
        },
        {
          "internalType": "address",
          "name": "_liquidityPool",
          "type": "address"
        },
        {
          "internalType": "address",
          "name": "_addressBook",
          "type": "address"
        }
      ],
      "stateMutability": "nonpayable",
      "type": "constructor"
    },
    {
      "inputs": [
        {
          "internalType": "uint256",
          "name": "decimals",
          "type": "uint256"
        }
      ],
      "name": "DecimalIsLargerThanScale",
      "type": "error"
    },
    {
      "inputs": [
        {
          "internalType": "uint256",
          "name": "prod1",
          "type": "uint256"
        }
      ],
      "name": "PRBMath__MulDivFixedPointOverflow",
      "type": "error"
    },
    {
      "anonymous": false,
      "inputs": [
        {
          "indexed": false,
          "internalType": "address",
          "name": "token",
          "type": "address"
        }
      ],
      "name": "OptionTokenCreated",
      "type": "event"
    },
    {
      "anonymous": false,
      "inputs": [
        {
          "indexed": true,
          "internalType": "address",
          "name": "series",
          "type": "address"
        },
        {
          "indexed": false,
          "internalType": "uint256",
          "name": "vaultId",
          "type": "uint256"
        },
        {
          "indexed": false,
          "internalType": "uint256",
          "name": "closedAmount",
          "type": "uint256"
        }
      ],
      "name": "OptionsContractClosed",
      "type": "event"
    },
    {
      "anonymous": false,
      "inputs": [
        {
          "indexed": true,
          "internalType": "address",
          "name": "series",
          "type": "address"
        },
        {
          "indexed": false,
          "internalType": "uint256",
          "name": "vaultId",
          "type": "uint256"
        },
        {
          "indexed": false,
          "internalType": "uint256",
          "name": "optionsAmount",
          "type": "uint256"
        }
      ],
      "name": "OptionsContractOpened",
      "type": "event"
    },
    {
      "anonymous": false,
      "inputs": [
        {
          "indexed": true,
          "internalType": "address",
          "name": "series",
          "type": "address"
        }
      ],
      "name": "OptionsContractSettled",
      "type": "event"
    },
    {
      "anonymous": false,
      "inputs": [
        {
          "indexed": true,
          "internalType": "address",
          "name": "previousOwner",
          "type": "address"
        },
        {
          "indexed": true,
          "internalType": "address",
          "name": "newOwner",
          "type": "address"
        }
      ],
      "name": "OwnershipTransferred",
      "type": "event"
    },
    {
      "anonymous": false,
      "inputs": [
        {
          "indexed": false,
          "internalType": "address",
          "name": "series",
          "type": "address"
        },
        {
          "indexed": false,
          "internalType": "uint256",
          "name": "underlyingAmount",
          "type": "uint256"
        },
        {
          "indexed": false,
          "internalType": "uint256",
          "name": "strikeAmount",
          "type": "uint256"
        }
      ],
      "name": "SeriesRedeemed",
      "type": "event"
    },
    {
      "inputs": [],
      "name": "VERSION",
      "outputs": [
        {
          "internalType": "string",
          "name": "",
          "type": "string"
        }
      ],
      "stateMutability": "view",
      "type": "function"
    },
    {
      "inputs": [
        {
          "internalType": "address",
          "name": "_series",
          "type": "address"
        },
        {
          "internalType": "uint256",
          "name": "amount",
          "type": "uint256"
        }
      ],
      "name": "close",
      "outputs": [
        {
          "internalType": "bool",
          "name": "",
          "type": "bool"
        },
        {
          "internalType": "uint256",
          "name": "",
          "type": "uint256"
        }
      ],
      "stateMutability": "nonpayable",
      "type": "function"
    },
    {
      "inputs": [
        {
          "components": [
            {
              "internalType": "uint256",
              "name": "expiration",
              "type": "uint256"
            },
            {
              "internalType": "bool",
              "name": "isPut",
              "type": "bool"
            },
            {
              "internalType": "uint256",
              "name": "strike",
              "type": "uint256"
            },
            {
              "internalType": "address",
              "name": "underlying",
              "type": "address"
            },
            {
              "internalType": "address",
              "name": "strikeAsset",
              "type": "address"
            },
            {
              "internalType": "address",
              "name": "collateral",
              "type": "address"
            }
          ],
          "internalType": "struct Types.OptionSeries",
          "name": "_series",
          "type": "tuple"
        }
      ],
      "name": "getIssuanceHash",
      "outputs": [
        {
          "internalType": "bytes32",
          "name": "",
          "type": "bytes32"
        }
      ],
      "stateMutability": "pure",
      "type": "function"
    },
    {
      "inputs": [
        {
          "internalType": "bytes32",
          "name": "issuanceHash",
          "type": "bytes32"
        }
      ],
      "name": "getSeriesAddress",
      "outputs": [
        {
          "internalType": "address",
          "name": "",
          "type": "address"
        }
      ],
      "stateMutability": "view",
      "type": "function"
    },
    {
      "inputs": [
        {
          "internalType": "address",
          "name": "series",
          "type": "address"
        }
      ],
      "name": "getSeriesInfo",
      "outputs": [
        {
          "components": [
            {
              "internalType": "uint256",
              "name": "expiration",
              "type": "uint256"
            },
            {
              "internalType": "bool",
              "name": "isPut",
              "type": "bool"
            },
            {
              "internalType": "uint256",
              "name": "strike",
              "type": "uint256"
            },
            {
              "internalType": "address",
              "name": "underlying",
              "type": "address"
            },
            {
              "internalType": "address",
              "name": "strikeAsset",
              "type": "address"
            },
            {
              "internalType": "address",
              "name": "collateral",
              "type": "address"
            }
          ],
          "internalType": "struct Types.OptionSeries",
          "name": "",
          "type": "tuple"
        }
      ],
      "stateMutability": "view",
      "type": "function"
    },
    {
      "inputs": [
        {
          "internalType": "address",
          "name": "underlying",
          "type": "address"
        },
        {
          "internalType": "address",
          "name": "strikeAsset",
          "type": "address"
        },
        {
          "internalType": "uint256",
          "name": "expiration",
          "type": "uint256"
        },
        {
          "internalType": "bool",
          "name": "isPut",
          "type": "bool"
        },
        {
          "internalType": "uint256",
          "name": "strike",
          "type": "uint256"
        },
        {
          "internalType": "address",
          "name": "collateral",
          "type": "address"
        }
      ],
      "name": "issue",
      "outputs": [
        {
          "internalType": "address",
          "name": "",
          "type": "address"
        }
      ],
      "stateMutability": "nonpayable",
      "type": "function"
    },
    {
      "inputs": [
        {
          "internalType": "address",
          "name": "_series",
          "type": "address"
        },
        {
          "internalType": "uint256",
          "name": "amount",
          "type": "uint256"
        }
      ],
      "name": "open",
      "outputs": [
        {
          "internalType": "bool",
          "name": "",
          "type": "bool"
        },
        {
          "internalType": "uint256",
          "name": "",
          "type": "uint256"
        }
      ],
      "stateMutability": "nonpayable",
      "type": "function"
    },
    {
      "inputs": [
        {
          "internalType": "address",
          "name": "",
          "type": "address"
        }
      ],
      "name": "openInterest",
      "outputs": [
        {
          "internalType": "uint256",
          "name": "",
          "type": "uint256"
        }
      ],
      "stateMutability": "view",
      "type": "function"
    },
    {
      "inputs": [],
      "name": "owner",
      "outputs": [
        {
          "internalType": "address",
          "name": "",
          "type": "address"
        }
      ],
      "stateMutability": "view",
      "type": "function"
    },
    {
      "inputs": [
        {
          "internalType": "address",
          "name": "_series",
          "type": "address"
        }
      ],
      "name": "redeem",
      "outputs": [
        {
          "internalType": "uint256",
          "name": "",
          "type": "uint256"
        }
      ],
      "stateMutability": "nonpayable",
      "type": "function"
    },
    {
      "inputs": [],
      "name": "renounceOwnership",
      "outputs": [],
      "stateMutability": "nonpayable",
      "type": "function"
    },
    {
      "inputs": [
        {
          "internalType": "address",
          "name": "",
          "type": "address"
        }
      ],
      "name": "seriesInfo",
      "outputs": [
        {
          "internalType": "uint256",
          "name": "expiration",
          "type": "uint256"
        },
        {
          "internalType": "bool",
          "name": "isPut",
          "type": "bool"
        },
        {
          "internalType": "uint256",
          "name": "strike",
          "type": "uint256"
        },
        {
          "internalType": "address",
          "name": "underlying",
          "type": "address"
        },
        {
          "internalType": "address",
          "name": "strikeAsset",
          "type": "address"
        },
        {
          "internalType": "address",
          "name": "collateral",
          "type": "address"
        }
      ],
      "stateMutability": "view",
      "type": "function"
    },
    {
      "inputs": [
        {
          "internalType": "address",
          "name": "_newLiquidityPool",
          "type": "address"
        }
      ],
      "name": "setLiquidityPool",
      "outputs": [],
      "stateMutability": "nonpayable",
      "type": "function"
    },
    {
      "inputs": [
        {
          "internalType": "address",
          "name": "_series",
          "type": "address"
        }
      ],
      "name": "settle",
      "outputs": [
        {
          "internalType": "bool",
          "name": "",
          "type": "bool"
        }
      ],
      "stateMutability": "nonpayable",
      "type": "function"
    },
    {
      "inputs": [
        {
          "internalType": "address",
          "name": "newOwner",
          "type": "address"
        }
      ],
      "name": "transferOwnership",
      "outputs": [],
      "stateMutability": "nonpayable",
      "type": "function"
    },
    {
      "inputs": [
        {
          "internalType": "address",
          "name": "",
          "type": "address"
        }
      ],
      "name": "vaultIds",
      "outputs": [
        {
          "internalType": "uint256",
          "name": "",
          "type": "uint256"
        }
      ],
      "stateMutability": "view",
      "type": "function"
    },
    {
      "inputs": [
        {
          "internalType": "address",
          "name": "",
          "type": "address"
        },
        {
          "internalType": "address",
          "name": "",
          "type": "address"
        }
      ],
      "name": "writers",
      "outputs": [
        {
          "internalType": "uint256",
          "name": "",
          "type": "uint256"
        }
      ],
      "stateMutability": "view",
      "type": "function"
    }
  ],
  "bytecode": "0x60806040523480156200001157600080fd5b50604051620020473803806200204783398101604081905262000034916200011f565b6200003f33620000b2565b600180546001600160a01b03199081166001600160a01b0398891617909155600280548216968816969096179095556003805486169487169490941790935560058054851692861692909217909155600680548416918516919091179055600480549092169216919091179055620001a0565b600080546001600160a01b038381166001600160a01b0319831681178455604051919092169283917f8be0079c531659141344cd1fd0a4f28419497f9722a3daafe3b4186f6b6457e09190a35050565b80516001600160a01b03811681146200011a57600080fd5b919050565b60008060008060008060c087890312156200013957600080fd5b620001448762000102565b9550620001546020880162000102565b9450620001646040880162000102565b9350620001746060880162000102565b9250620001846080880162000102565b91506200019460a0880162000102565b90509295509295509295565b611e9780620001b06000396000f3fe608060405234801561001057600080fd5b506004361061010b5760003560e01c80639a253faa116100a2578063dfeddb7e11610071578063dfeddb7e146103d2578063e49280cb146103fb578063edd8ca7b1461040e578063f2fde38b1461042e578063ffa1ad741461044157600080fd5b80639a253faa14610210578063b10efd7f14610223578063c7bc163b14610236578063dac9675b146102c857600080fd5b80636a256b29116100de5780636a256b29146101ad578063715018a6146101d05780638da5cb5b146101d857806395a2251f146101fd57600080fd5b806301877020146101105780630a0e5c9d1461012557806341849afc1461015457806355678cfc14610182575b600080fd5b61012361011e366004611a28565b610470565b005b610138610133366004611a45565b6104c5565b6040805192151583526020830191909152015b60405180910390f35b610174610162366004611a28565b600a6020526000908152604090205481565b60405190815260200161014b565b610174610190366004611a71565b600860209081526000928352604080842090915290825290205481565b6101c06101bb366004611a28565b610833565b604051901515815260200161014b565b610123610a94565b6000546001600160a01b03165b6040516001600160a01b03909116815260200161014b565b61017461020b366004611a28565b610aca565b61017461021e366004611aba565b610e41565b6101e5610231366004611b59565b610e6a565b61028c610244366004611a28565b600960205260009081526040902080546001820154600283015460038401546004850154600590950154939460ff9093169391926001600160a01b0391821692908216911686565b604080519687529415156020870152938501929092526001600160a01b03908116606085015290811660808401521660a082015260c00161014b565b6103786102d6366004611a28565b6040805160c081018252600080825260208201819052918101829052606081018290526080810182905260a0810191909152506001600160a01b03908116600090815260096020908152604091829020825160c08101845281548152600182015460ff1615159281019290925260028101549282019290925260038201548316606082015260048201548316608082015260059091015490911660a082015290565b60405161014b919081518152602080830151151590820152604080830151908201526060808301516001600160a01b039081169183019190915260808084015182169083015260a092830151169181019190915260c00190565b6101e56103e0366004611bc7565b6000908152600b60205260409020546001600160a01b031690565b610138610409366004611a45565b6110ad565b61017461041c366004611a28565b60076020526000908152604090205481565b61012361043c366004611a28565b611472565b610463604051806040016040528060038152602001620312e360ec1b81525081565b60405161014b9190611be0565b6000546001600160a01b031633146104a35760405162461bcd60e51b815260040161049a90611c35565b60405180910390fd5b600680546001600160a01b0319166001600160a01b0392909216919091179055565b60065460009081906001600160a01b031633146104f45760405162461bcd60e51b815260040161049a90611c6a565b6001600160a01b03808516600090815260096020908152604091829020825160c0810184528154808252600183015460ff161515938201939093526002820154938101939093526003810154841660608401526004810154841660808401526005015490921660a08201529042106105c15760405162461bcd60e51b815260206004820152602a60248201527f4f7074696f6e732063616e206e6f74206265206f70656e65642061667465722060448201526932bc3834b930ba34b7b760b11b606482015260840161049a565b600081602001516105e1576105da82606001518661150d565b90506105f7565b6105f48260800151868460400151611521565b90505b6003546001600160a01b038781166000908152600a6020526040902054911690806106a157604051636553690d60e11b81523060048201526001600160a01b0383169063caa6d21a9060240160206040518083038186803b15801561065b57600080fd5b505afa15801561066f573d6000803e3d6000fd5b505050506040513d601f19601f820116820180604052508101906106939190611c92565b61069e906001611cc1565b90505b600354600554604051630c12ef9f60e01b81526001600160a01b03928316600482015290821660248201529089166044820152606481018490526084810182905260a4810188905260009073__$a949af228b7bd2e36efc48dbaaf0130ade$__90630c12ef9f9060c40160206040518083038186803b15801561072357600080fd5b505af4158015610737573d6000803e3d6000fd5b505050506040513d601f19601f8201168201806040525081019061075b9190611c92565b90506107688933836115b8565b6001600160a01b038916600090815260076020526040812080548a9290610790908490611cc1565b90915550506001600160a01b0389166000908152600860209081526040808320338452909152812080548a92906107c8908490611cc1565b90915550506001600160a01b0389166000818152600a602090815260409182902085905581518581529081018490527f242b1ddd06a984a28045d1a261fcddca274c5f29be7c894def55d7b938d4c7ce910160405180910390a2506001989297509195505050505050565b6006546000906001600160a01b031633146108605760405162461bcd60e51b815260040161049a90611c6a565b6001600160a01b03808316600090815260096020908152604091829020825160c0810184528154808252600183015460ff161515938201939093526002820154938101939093526003810154841660608401526004810154841660808401526005015490921660a08201529061090e5760405162461bcd60e51b81526020600482015260136024820152726e6f6e2d6578697374656e742073657269657360681b604482015260640161049a565b805142116109575760405162461bcd60e51b81526020600482015260166024820152756f7074696f6e206e6f7420706173742065787069727960501b604482015260640161049a565b6001600160a01b038381166000908152600a60205260408082205460035491516315afd40960e01b81529190931660048201526024810183905273__$a949af228b7bd2e36efc48dbaaf0130ade$__906315afd4099060440160206040518083038186803b1580156109c857600080fd5b505af41580156109dc573d6000803e3d6000fd5b505050506040513d601f19601f82011682018060405250810190610a009190611c92565b6001600160a01b0386166000908152600760209081526040808320839055600882528083203384528252822091909155840151909150610a4957610a448382611637565b610a53565b610a53838261164a565b6040516001600160a01b038616907ff793e1d244354885fc25bda2ff29d75466d8777257b31f0cc2ea3a597df8fcca90600090a2600193505050505b919050565b6000546001600160a01b03163314610abe5760405162461bcd60e51b815260040161049a90611c35565b610ac86000611659565b565b6001600160a01b038082166000908152600960209081526040808320815160c0810183528154808252600183015460ff161515948201949094526002820154928101929092526003810154851660608301526004810154851660808301526005015490931660a0840152909190610b795760405162461bcd60e51b81526020600482015260136024820152726e6f6e2d6578697374656e742073657269657360681b604482015260640161049a565b80514211610bc25760405162461bcd60e51b81526020600482015260166024820152756f7074696f6e206e6f7420706173742065787069727960501b604482015260640161049a565b6040516370a0823160e01b81523360048201526000906001600160a01b038516906370a082319060240160206040518083038186803b158015610c0457600080fd5b505afa158015610c18573d6000803e3d6000fd5b505050506040513d601f19601f82011682018060405250810190610c3c9190611c92565b11610c895760405162461bcd60e51b815260206004820152601a60248201527f696e73756666696369656e74206f7074696f6e20746f6b656e73000000000000604482015260640161049a565b6040516370a0823160e01b81523360048201526000906001600160a01b038516906370a082319060240160206040518083038186803b158015610ccb57600080fd5b505afa158015610cdf573d6000803e3d6000fd5b505050506040513d601f19601f82011682018060405250810190610d039190611c92565b6040516370a0823160e01b81523360048201819052919250610d8c91869130906001600160a01b038416906370a082319060240160206040518083038186803b158015610d4f57600080fd5b505afa158015610d63573d6000803e3d6000fd5b505050506040513d601f19601f82011682018060405250810190610d879190611c92565b6116a9565b6003546005546040516302e80dad60e61b81526001600160a01b039283166004820152908216602482015290851660448201526064810182905260009073__$a949af228b7bd2e36efc48dbaaf0130ade$__9063ba036b409060840160206040518083038186803b158015610e0057600080fd5b505af4158015610e14573d6000803e3d6000fd5b505050506040513d601f19601f82011682018060405250810190610e389190611c92565b95945050505050565b6000610e6482606001518360800151846000015185602001518660400151611743565b92915050565b6000428511610ead5760405162461bcd60e51b815260206004820152600f60248201526e105b1c9958591e48195e1c1a5c9959608a1b604482015260640161049a565b86866000610ebe83838a8a8a611743565b60025490915060009073__$a949af228b7bd2e36efc48dbaaf0130ade$__90630e4e99e3906001600160a01b0316888e8e610ef98d846117a9565b60405160e087901b6001600160e01b03191681526001600160a01b039586166004820152938516602485015291841660448401529092166064820152608481019190915260a481018c90528a151560c482015260e40160206040518083038186803b158015610f6757600080fd5b505af4158015610f7b573d6000803e3d6000fd5b505050506040513d601f19601f82011682018060405250810190610f9f9190611cd9565b6040805160c0810182528b81528a151560208083019182528284018c81526001600160a01b038a8116606086019081528a8216608087019081528e831660a088019081528984166000818152600988528a812099518a55975160018a01805460ff19169115159190911790559451600289015591516003880180546001600160a01b031990811692861692909217905590516004880180548316918516919091179055905160059096018054821696909216959095179055878352600b8252918490208054909316821790925591519182529192507ff434a81a703b3b06f1dd290881e157c47d663389196c88db9f57819ec6f6ae9f910160405180910390a19a9950505050505050505050565b60065460009081906001600160a01b031633146110dc5760405162461bcd60e51b815260040161049a90611c6a565b6001600160a01b03808516600090815260096020908152604091829020825160c0810184528154808252600183015460ff161515938201939093526002820154938101939093526003810154841660608401526004810154841660808401526005015490921660a082015290421061118f5760405162461bcd60e51b815260206004820152601660248201527513dc1d1a5bdb88185b1c9958591e48195e1c1a5c995960521b604482015260640161049a565b6001600160a01b0385166000908152600760205260409020548411156111b457600080fd5b6000600a6000876001600160a01b03166001600160a01b03168152602001908152602001600020549050611261863330610d87898b6001600160a01b031663313ce5676040518163ffffffff1660e01b815260040160206040518083038186803b15801561122157600080fd5b505afa158015611235573d6000803e3d6000fd5b505050506040513d601f19601f820116820180604052508101906112599190611cf6565b60ff16611888565b600354600554604051633213fd7760e01b81526001600160a01b03928316600482015290821660248201529087166044820152606481018690526084810182905260009073__$a949af228b7bd2e36efc48dbaaf0130ade$__90633213fd779060a40160206040518083038186803b1580156112dc57600080fd5b505af41580156112f0573d6000803e3d6000fd5b505050506040513d601f19601f820116820180604052508101906113149190611c92565b6001600160a01b03881660009081526008602090815260408083203384529091529020549091508111156113995760405162461bcd60e51b815260206004820152602660248201527f43616c6c657220646964206e6f742077726974652073756666696369656e7420604482015265185b5bdd5b9d60d21b606482015260840161049a565b6001600160a01b0387166000908152600860209081526040808320338452909152812080548392906113cc908490611d19565b90915550506001600160a01b038716600090815260076020526040812080548392906113f9908490611d19565b90915550506020830151611416576114118382611637565b611420565b611420838261164a565b60408051838152602081018890526001600160a01b038916917f8b307ec2cdec0ea71518d1d82e315a365c5789f3e02e4466b9d886b3474b1793910160405180910390a2600197909650945050505050565b6000546001600160a01b0316331461149c5760405162461bcd60e51b815260040161049a90611c35565b6001600160a01b0381166115015760405162461bcd60e51b815260206004820152602660248201527f4f776e61626c653a206e6577206f776e657220697320746865207a65726f206160448201526564647265737360d01b606482015260840161049a565b61150a81611659565b50565b600061151b833330856116a9565b50919050565b6000806115a28484876001600160a01b031663313ce5676040518163ffffffff1660e01b815260040160206040518083038186803b15801561156257600080fd5b505afa158015611576573d6000803e3d6000fd5b505050506040513d601f19601f8201168201806040525081019061159a9190611cf6565b60ff166118d3565b90506115b0853330846116a9565b949350505050565b600060405163a9059cbb60e01b81526001600160a01b03841660048201528260248201526000806044836000895af19150506115f3816118ec565b6116315760405162461bcd60e51b815260206004820152600f60248201526e1514905394d1915497d19052531151608a1b604482015260640161049a565b50505050565b611646826060015133836115b8565b5050565b611646826080015133836115b8565b600080546001600160a01b038381166001600160a01b0319831681178455604051919092169283917f8be0079c531659141344cd1fd0a4f28419497f9722a3daafe3b4186f6b6457e09190a35050565b600084905060006040516323b872dd60e01b81526001600160a01b03861660048201526001600160a01b03851660248201528360448201526000806064836000875af19150506116f8816118ec565b61173b5760405162461bcd60e51b81526020600482015260146024820152731514905394d1915497d19493d357d1905253115160621b604482015260640161049a565b505050505050565b6040516bffffffffffffffffffffffff19606087811b8216602084015286901b1660348201526048810184905282151560f81b60688201526069810182905260009060890160405160208183030381529060405280519060200120905095945050505050565b6000806117bb6402540be40085611d30565b90506000836001600160a01b031663313ce5676040518163ffffffff1660e01b815260040160206040518083038186803b1580156117f857600080fd5b505afa15801561180c573d6000803e3d6000fd5b505050506040513d601f19601f820116820180604052508101906118309190611cf6565b60ff1690506008811061184557509050610e64565b6000611852826008611d19565b905061185f81600a611e36565b61186a82600a611e36565b6118749085611d30565b61187e9190611e42565b9695505050505050565b600060128211156118af576040516342d94fd760e11b81526004810183905260240161049a565b60006118bc836012611d19565b90506118c981600a611e36565b6115b09085611d30565b6000806118e08486611933565b9050610e388184611888565b60003d826118fe57806000803e806000fd5b8060208114611916578015611927576000925061192c565b816000803e6000511515925061192c565b600192505b5050919050565b600061193f8383611946565b9392505050565b60008080600019848609848602925082811083820303915050670de0b6b3a7640000811061198a5760405163698d9a0160e11b81526004810182905260240161049a565b600080670de0b6b3a76400008688099150506706f05b59d3b1ffff8111826119c45780670de0b6b3a7640000850401945050505050610e64565b620400008285030493909111909103600160ee1b02919091177faccb18165bd6fe31ae1cf318dc5b51eee0e1ba569b88cd74c1773b91fac106690201905092915050565b6001600160a01b038116811461150a57600080fd5b8035610a8f81611a08565b600060208284031215611a3a57600080fd5b813561193f81611a08565b60008060408385031215611a5857600080fd5b8235611a6381611a08565b946020939093013593505050565b60008060408385031215611a8457600080fd5b8235611a8f81611a08565b91506020830135611a9f81611a08565b809150509250929050565b80358015158114610a8f57600080fd5b600060c08284031215611acc57600080fd5b60405160c0810181811067ffffffffffffffff82111715611afd57634e487b7160e01b600052604160045260246000fd5b60405282358152611b1060208401611aaa565b602082015260408301356040820152611b2b60608401611a1d565b6060820152611b3c60808401611a1d565b6080820152611b4d60a08401611a1d565b60a08201529392505050565b60008060008060008060c08789031215611b7257600080fd5b8635611b7d81611a08565b95506020870135611b8d81611a08565b945060408701359350611ba260608801611aaa565b92506080870135915060a0870135611bb981611a08565b809150509295509295509295565b600060208284031215611bd957600080fd5b5035919050565b600060208083528351808285015260005b81811015611c0d57858101830151858201604001528201611bf1565b81811115611c1f576000604083870101525b50601f01601f1916929092016040019392505050565b6020808252818101527f4f776e61626c653a2063616c6c6572206973206e6f7420746865206f776e6572604082015260600190565b6020808252600e908201526d085b1a5c5d5a591a5d1e541bdbdb60921b604082015260600190565b600060208284031215611ca457600080fd5b5051919050565b634e487b7160e01b600052601160045260246000fd5b60008219821115611cd457611cd4611cab565b500190565b600060208284031215611ceb57600080fd5b815161193f81611a08565b600060208284031215611d0857600080fd5b815160ff8116811461193f57600080fd5b600082821015611d2b57611d2b611cab565b500390565b600082611d4d57634e487b7160e01b600052601260045260246000fd5b500490565b600181815b80851115611d8d578160001904821115611d7357611d73611cab565b80851615611d8057918102915b93841c9390800290611d57565b509250929050565b600082611da457506001610e64565b81611db157506000610e64565b8160018114611dc75760028114611dd157611ded565b6001915050610e64565b60ff841115611de257611de2611cab565b50506001821b610e64565b5060208310610133831016604e8410600b8410161715611e10575081810a610e64565b611e1a8383611d52565b8060001904821115611e2e57611e2e611cab565b029392505050565b600061193f8383611d95565b6000816000190483118215151615611e5c57611e5c611cab565b50029056fea264697066735822122083f8acb5c89ad0d68b7791e407b2d1541c4e9ee40278368c2da4e3c2027d8e3764736f6c63430008090033",
  "linkReferences": {
    "contracts/libraries/OpynInteractions.sol": {
      "OpynInteractions": [
        {
          "length": 20,
          "start": 2206
        },
        {
          "length": 20,
          "start": 2883
        },
        {
          "length": 20,
          "start": 3963
        },
        {
          "length": 20,
          "start": 4217
        },
        {
          "length": 20,
          "start": 5207
        }
      ]
    }
  },
  "deployedLinkReferences": {
    "contracts/libraries/OpynInteractions.sol": {
      "OpynInteractions": [
        {
          "length": 20,
          "start": 1774
        },
        {
          "length": 20,
          "start": 2451
        },
        {
          "length": 20,
          "start": 3531
        },
        {
          "length": 20,
          "start": 3785
        },
        {
          "length": 20,
          "start": 4775
        }
      ]
    }
  }
}