{
  "_format": "hh-sol-artifact-1",
  "contractName": "NewMarginCalculator",
  "sourceName": "contracts/packages/opyn/new/NewCalculator.sol",
  "abi": [
    {
      "inputs": [
        {
          "internalType": "address",
          "name": "_oracle",
          "type": "address"
        },
        {
          "internalType": "address",
          "name": "_addressBook",
          "type": "address"
        }
      ],
      "stateMutability": "nonpayable",
      "type": "constructor"
    },
    {
      "anonymous": false,
      "inputs": [
        {
          "indexed": true,
          "internalType": "address",
          "name": "collateral",
          "type": "address"
        },
        {
          "indexed": false,
          "internalType": "uint256",
          "name": "dust",
          "type": "uint256"
        }
      ],
      "name": "CollateralDustUpdated",
      "type": "event"
    },
    {
      "anonymous": false,
      "inputs": [
        {
          "indexed": false,
          "internalType": "uint256",
          "name": "liquidationMultiplier",
          "type": "uint256"
        }
      ],
      "name": "LiquidationMultiplierUpdated",
      "type": "event"
    },
    {
      "anonymous": false,
      "inputs": [
        {
          "indexed": true,
          "internalType": "bytes32",
          "name": "productHash",
          "type": "bytes32"
        },
        {
          "indexed": false,
          "internalType": "uint256",
          "name": "timeToExpiry",
          "type": "uint256"
        },
        {
          "indexed": false,
          "internalType": "uint256",
          "name": "value",
          "type": "uint256"
        }
      ],
      "name": "MaxPriceAdded",
      "type": "event"
    },
    {
      "anonymous": false,
      "inputs": [
        {
          "indexed": true,
          "internalType": "bytes32",
          "name": "productHash",
          "type": "bytes32"
        },
        {
          "indexed": false,
          "internalType": "uint256",
          "name": "timeToExpiry",
          "type": "uint256"
        },
        {
          "indexed": false,
          "internalType": "uint256",
          "name": "oldValue",
          "type": "uint256"
        },
        {
          "indexed": false,
          "internalType": "uint256",
          "name": "newValue",
          "type": "uint256"
        }
      ],
      "name": "MaxPriceUpdated",
      "type": "event"
    },
    {
      "anonymous": false,
      "inputs": [
        {
          "indexed": false,
          "internalType": "uint256",
          "name": "oracleDeviation",
          "type": "uint256"
        }
      ],
      "name": "OracleDeviationUpdated",
      "type": "event"
    },
    {
      "anonymous": false,
      "inputs": [
        {
          "indexed": true,
          "internalType": "address",
          "name": "previousOwner",
          "type": "address"
        },
        {
          "indexed": true,
          "internalType": "address",
          "name": "newOwner",
          "type": "address"
        }
      ],
      "name": "OwnershipTransferred",
      "type": "event"
    },
    {
      "anonymous": false,
      "inputs": [
        {
          "indexed": true,
          "internalType": "bytes32",
          "name": "product",
          "type": "bytes32"
        },
        {
          "indexed": false,
          "internalType": "uint256",
          "name": "spotShock",
          "type": "uint256"
        }
      ],
      "name": "SpotShockUpdated",
      "type": "event"
    },
    {
      "anonymous": false,
      "inputs": [
        {
          "indexed": true,
          "internalType": "bytes32",
          "name": "productHash",
          "type": "bytes32"
        },
        {
          "indexed": false,
          "internalType": "uint256",
          "name": "timeToExpiry",
          "type": "uint256"
        }
      ],
      "name": "TimeToExpiryAdded",
      "type": "event"
    },
    {
      "inputs": [],
      "name": "AUCTION_TIME",
      "outputs": [
        {
          "internalType": "uint256",
          "name": "",
          "type": "uint256"
        }
      ],
      "stateMutability": "view",
      "type": "function"
    },
    {
      "inputs": [],
      "name": "addressBook",
      "outputs": [
        {
          "internalType": "contract AddressBookInterface",
          "name": "",
          "type": "address"
        }
      ],
      "stateMutability": "view",
      "type": "function"
    },
    {
      "inputs": [
        {
          "internalType": "address",
          "name": "_collateral",
          "type": "address"
        }
      ],
      "name": "getCollateralDust",
      "outputs": [
        {
          "internalType": "uint256",
          "name": "",
          "type": "uint256"
        }
      ],
      "stateMutability": "view",
      "type": "function"
    },
    {
      "inputs": [
        {
          "components": [
            {
              "internalType": "address[]",
              "name": "shortOtokens",
              "type": "address[]"
            },
            {
              "internalType": "address[]",
              "name": "longOtokens",
              "type": "address[]"
            },
            {
              "internalType": "address[]",
              "name": "collateralAssets",
              "type": "address[]"
            },
            {
              "internalType": "uint256[]",
              "name": "shortAmounts",
              "type": "uint256[]"
            },
            {
              "internalType": "uint256[]",
              "name": "longAmounts",
              "type": "uint256[]"
            },
            {
              "internalType": "uint256[]",
              "name": "collateralAmounts",
              "type": "uint256[]"
            }
          ],
          "internalType": "struct MarginVault.Vault",
          "name": "_vault",
          "type": "tuple"
        },
        {
          "internalType": "uint256",
          "name": "_vaultType",
          "type": "uint256"
        }
      ],
      "name": "getExcessCollateral",
      "outputs": [
        {
          "internalType": "uint256",
          "name": "",
          "type": "uint256"
        },
        {
          "internalType": "bool",
          "name": "",
          "type": "bool"
        }
      ],
      "stateMutability": "view",
      "type": "function"
    },
    {
      "inputs": [
        {
          "internalType": "address",
          "name": "_otoken",
          "type": "address"
        }
      ],
      "name": "getExpiredPayoutRate",
      "outputs": [
        {
          "internalType": "uint256",
          "name": "",
          "type": "uint256"
        }
      ],
      "stateMutability": "view",
      "type": "function"
    },
    {
      "inputs": [
        {
          "components": [
            {
              "internalType": "address[]",
              "name": "shortOtokens",
              "type": "address[]"
            },
            {
              "internalType": "address[]",
              "name": "longOtokens",
              "type": "address[]"
            },
            {
              "internalType": "address[]",
              "name": "collateralAssets",
              "type": "address[]"
            },
            {
              "internalType": "uint256[]",
              "name": "shortAmounts",
              "type": "uint256[]"
            },
            {
              "internalType": "uint256[]",
              "name": "longAmounts",
              "type": "uint256[]"
            },
            {
              "internalType": "uint256[]",
              "name": "collateralAmounts",
              "type": "uint256[]"
            }
          ],
          "internalType": "struct MarginVault.Vault",
          "name": "_vault",
          "type": "tuple"
        },
        {
          "internalType": "uint256",
          "name": "_vaultType",
          "type": "uint256"
        }
      ],
      "name": "getMarginRequired",
      "outputs": [
        {
          "components": [
            {
              "internalType": "int256",
              "name": "value",
              "type": "int256"
            }
          ],
          "internalType": "struct FixedPointInt256.FixedPointInt",
          "name": "",
          "type": "tuple"
        },
        {
          "components": [
            {
              "internalType": "int256",
              "name": "value",
              "type": "int256"
            }
          ],
          "internalType": "struct FixedPointInt256.FixedPointInt",
          "name": "",
          "type": "tuple"
        }
      ],
      "stateMutability": "view",
      "type": "function"
    },
    {
      "inputs": [
        {
          "internalType": "address",
          "name": "_underlying",
          "type": "address"
        },
        {
          "internalType": "address",
          "name": "_strike",
          "type": "address"
        },
        {
          "internalType": "address",
          "name": "_collateral",
          "type": "address"
        },
        {
          "internalType": "bool",
          "name": "_isPut",
          "type": "bool"
        },
        {
          "internalType": "uint256",
          "name": "_timeToExpiry",
          "type": "uint256"
        }
      ],
      "name": "getMaxPrice",
      "outputs": [
        {
          "internalType": "uint256",
          "name": "",
          "type": "uint256"
        }
      ],
      "stateMutability": "view",
      "type": "function"
    },
    {
      "inputs": [
        {
          "internalType": "address",
          "name": "_underlying",
          "type": "address"
        },
        {
          "internalType": "address",
          "name": "_strike",
          "type": "address"
        },
        {
          "internalType": "address",
          "name": "_collateral",
          "type": "address"
        },
        {
          "internalType": "uint256",
          "name": "_shortAmount",
          "type": "uint256"
        },
        {
          "internalType": "uint256",
          "name": "_strikePrice",
          "type": "uint256"
        },
        {
          "internalType": "uint256",
          "name": "_underlyingPrice",
          "type": "uint256"
        },
        {
          "internalType": "uint256",
          "name": "_shortExpiryTimestamp",
          "type": "uint256"
        },
        {
          "internalType": "uint256",
          "name": "_collateralDecimals",
          "type": "uint256"
        },
        {
          "internalType": "bool",
          "name": "_isPut",
          "type": "bool"
        }
      ],
      "name": "getNakedMarginRequired",
      "outputs": [
        {
          "internalType": "uint256",
          "name": "",
          "type": "uint256"
        }
      ],
      "stateMutability": "view",
      "type": "function"
    },
    {
      "inputs": [],
      "name": "getOracleDeviation",
      "outputs": [
        {
          "internalType": "uint256",
          "name": "",
          "type": "uint256"
        }
      ],
      "stateMutability": "view",
      "type": "function"
    },
    {
      "inputs": [
        {
          "internalType": "address",
          "name": "_underlying",
          "type": "address"
        },
        {
          "internalType": "address",
          "name": "_strike",
          "type": "address"
        },
        {
          "internalType": "address",
          "name": "_collateral",
          "type": "address"
        },
        {
          "internalType": "bool",
          "name": "_isPut",
          "type": "bool"
        }
      ],
      "name": "getSpotShock",
      "outputs": [
        {
          "internalType": "uint256",
          "name": "",
          "type": "uint256"
        }
      ],
      "stateMutability": "view",
      "type": "function"
    },
    {
      "inputs": [
        {
          "internalType": "address",
          "name": "_underlying",
          "type": "address"
        },
        {
          "internalType": "address",
          "name": "_strike",
          "type": "address"
        },
        {
          "internalType": "address",
          "name": "_collateral",
          "type": "address"
        },
        {
          "internalType": "bool",
          "name": "_isPut",
          "type": "bool"
        }
      ],
      "name": "getTimesToExpiry",
      "outputs": [
        {
          "internalType": "uint256[]",
          "name": "",
          "type": "uint256[]"
        }
      ],
      "stateMutability": "view",
      "type": "function"
    },
    {
      "inputs": [
        {
          "components": [
            {
              "internalType": "address[]",
              "name": "shortOtokens",
              "type": "address[]"
            },
            {
              "internalType": "address[]",
              "name": "longOtokens",
              "type": "address[]"
            },
            {
              "internalType": "address[]",
              "name": "collateralAssets",
              "type": "address[]"
            },
            {
              "internalType": "uint256[]",
              "name": "shortAmounts",
              "type": "uint256[]"
            },
            {
              "internalType": "uint256[]",
              "name": "longAmounts",
              "type": "uint256[]"
            },
            {
              "internalType": "uint256[]",
              "name": "collateralAmounts",
              "type": "uint256[]"
            }
          ],
          "internalType": "struct MarginVault.Vault",
          "name": "_vault",
          "type": "tuple"
        },
        {
          "internalType": "uint256",
          "name": "_vaultType",
          "type": "uint256"
        }
      ],
      "name": "isLiquidatable",
      "outputs": [
        {
          "internalType": "bool",
          "name": "",
          "type": "bool"
        },
        {
          "internalType": "uint256",
          "name": "",
          "type": "uint256"
        },
        {
          "internalType": "uint256",
          "name": "",
          "type": "uint256"
        }
      ],
      "stateMutability": "view",
      "type": "function"
    },
    {
      "inputs": [],
      "name": "liquidationMultiplier",
      "outputs": [
        {
          "internalType": "uint256",
          "name": "",
          "type": "uint256"
        }
      ],
      "stateMutability": "view",
      "type": "function"
    },
    {
      "inputs": [],
      "name": "oracle",
      "outputs": [
        {
          "internalType": "contract OracleInterface",
          "name": "",
          "type": "address"
        }
      ],
      "stateMutability": "view",
      "type": "function"
    },
    {
      "inputs": [],
      "name": "owner",
      "outputs": [
        {
          "internalType": "address",
          "name": "",
          "type": "address"
        }
      ],
      "stateMutability": "view",
      "type": "function"
    },
    {
      "inputs": [],
      "name": "renounceOwnership",
      "outputs": [],
      "stateMutability": "nonpayable",
      "type": "function"
    },
    {
      "inputs": [
        {
          "internalType": "address",
          "name": "_collateral",
          "type": "address"
        },
        {
          "internalType": "uint256",
          "name": "_dust",
          "type": "uint256"
        }
      ],
      "name": "setCollateralDust",
      "outputs": [],
      "stateMutability": "nonpayable",
      "type": "function"
    },
    {
      "inputs": [
        {
          "internalType": "uint256",
          "name": "_liquidationMultiplier",
          "type": "uint256"
        }
      ],
      "name": "setLiquidationMultiplier",
      "outputs": [],
      "stateMutability": "nonpayable",
      "type": "function"
    },
    {
      "inputs": [
        {
          "internalType": "uint256",
          "name": "_deviation",
          "type": "uint256"
        }
      ],
      "name": "setOracleDeviation",
      "outputs": [],
      "stateMutability": "nonpayable",
      "type": "function"
    },
    {
      "inputs": [
        {
          "internalType": "address",
          "name": "_underlying",
          "type": "address"
        },
        {
          "internalType": "address",
          "name": "_strike",
          "type": "address"
        },
        {
          "internalType": "address",
          "name": "_collateral",
          "type": "address"
        },
        {
          "internalType": "bool",
          "name": "_isPut",
          "type": "bool"
        },
        {
          "internalType": "uint256",
          "name": "_shockValue",
          "type": "uint256"
        }
      ],
      "name": "setSpotShock",
      "outputs": [],
      "stateMutability": "nonpayable",
      "type": "function"
    },
    {
      "inputs": [
        {
          "internalType": "address",
          "name": "_underlying",
          "type": "address"
        },
        {
          "internalType": "address",
          "name": "_strike",
          "type": "address"
        },
        {
          "internalType": "address",
          "name": "_collateral",
          "type": "address"
        },
        {
          "internalType": "bool",
          "name": "_isPut",
          "type": "bool"
        },
        {
          "internalType": "uint256[]",
          "name": "_timesToExpiry",
          "type": "uint256[]"
        },
        {
          "internalType": "uint256[]",
          "name": "_values",
          "type": "uint256[]"
        }
      ],
      "name": "setUpperBoundValues",
      "outputs": [],
      "stateMutability": "nonpayable",
      "type": "function"
    },
    {
      "inputs": [
        {
          "internalType": "address",
          "name": "newOwner",
          "type": "address"
        }
      ],
      "name": "transferOwnership",
      "outputs": [],
      "stateMutability": "nonpayable",
      "type": "function"
    },
    {
      "inputs": [
        {
          "internalType": "address",
          "name": "_underlying",
          "type": "address"
        },
        {
          "internalType": "address",
          "name": "_strike",
          "type": "address"
        },
        {
          "internalType": "address",
          "name": "_collateral",
          "type": "address"
        },
        {
          "internalType": "bool",
          "name": "_isPut",
          "type": "bool"
        },
        {
          "internalType": "uint256",
          "name": "_timeToExpiry",
          "type": "uint256"
        },
        {
          "internalType": "uint256",
          "name": "_value",
          "type": "uint256"
        }
      ],
      "name": "updateUpperBoundValue",
      "outputs": [],
      "stateMutability": "nonpayable",
      "type": "function"
    }
  ],
  "bytecode": "0x60806040526200001d600060086200011a60201b620010fe1760201c565b516002556127106007553480156200003457600080fd5b5060405162004bfa38038062004bfa833981016040819052620000579162000399565b60006200006c6001600160e01b036200021816565b600080546001600160a01b0319166001600160a01b0383169081178255604051929350917f8be0079c531659141344cd1fd0a4f28419497f9722a3daafe3b4186f6b6457e0908290a3506001600160a01b038216620000e85760405162461bcd60e51b8152600401620000df90620004b0565b60405180910390fd5b600880546001600160a01b039384166001600160a01b0319918216179091556009805492909316911617905562000511565b6200012462000386565b6200012e62000386565b601b8314156200016357604051806020016040528062000159866200021c60201b620011be1760201c565b905290506200020f565b601b831115620001d55760006200018a601b856200024860201b620011e71790919060201c565b90506040518060200160405280620001c9620001b884600a0a896200029260201b620012291790919060201c565b6200021c60201b620011be1760201c565b8152509150506200020f565b600083601b039050604051806020016040528062000209620001b884600a0a89620002dc60201b6200126b1790919060201c565b90529150505b90505b92915050565b3390565b6000600160ff1b8210620002445760405162461bcd60e51b8152600401620000df906200042d565b5090565b60006200020f83836040518060400160405280601e81526020017f536166654d6174683a207375627472616374696f6e206f766572666c6f7700008152506200031c60201b60201c565b60006200020f83836040518060400160405280601a81526020017f536166654d6174683a206469766973696f6e206279207a65726f0000000000008152506200034b60201b60201c565b600082620002ed5750600062000212565b82820282848281620002fb57fe5b04146200020f5760405162461bcd60e51b8152600401620000df906200046f565b60008184841115620003435760405162461bcd60e51b8152600401620000df9190620003d7565b505050900390565b600081836200036f5760405162461bcd60e51b8152600401620000df9190620003d7565b5060008385816200037c57fe5b0495945050505050565b6040518060200160405280600081525090565b60008060408385031215620003ac578182fd5b8251620003b981620004f8565b6020840151909250620003cc81620004f8565b809150509250929050565b6000602080835283518082850152825b818110156200040557858101830151858201604001528201620003e7565b81811115620004175783604083870101525b50601f01601f1916929092016040019392505050565b60208082526022908201527f4669786564506f696e74496e743235363a206f7574206f6620696e742072616e604082015261676560f01b606082015260800190565b60208082526021908201527f536166654d6174683a206d756c7469706c69636174696f6e206f766572666c6f6040820152607760f81b606082015260800190565b60208082526028908201527f4d617267696e43616c63756c61746f723a20696e76616c6964206f7261636c65604082015267206164647265737360c01b606082015260800190565b6001600160a01b03811681146200050e57600080fd5b50565b6146d980620005216000396000f3fe608060405234801561001057600080fd5b506004361061014d5760003560e01c80637f519b72116100c3578063cd43fbfb1161007c578063cd43fbfb146102ad578063dc1b3f00146102ce578063e592301a146102e1578063ec7eb7e9146102e9578063f2fde38b146102fc578063f5887cdd1461030f5761014d565b80637f519b72146102515780638aab8fa5146102645780638da5cb5b146102775780639a783d111461027f578063b29d5ee814610292578063c73547e31461029a5761014d565b806347d438a51161011557806347d438a5146101e4578063529898f2146102045780636ccb95061461020c578063715018a61461021f5780637ad7f800146102295780637dc0d1d01461023c5761014d565b8063053fe57c146101525780630b0509fb1461017c57806337ad5d4f1461019c57806346345900146101be57806347840930146101d1575b600080fd5b6101656101603660046137f5565b610317565b6040516101739291906145e9565b60405180910390f35b61018f61018a366004613720565b610352565b60405161017391906145f9565b6101af6101aa3660046137f5565b6103af565b60405161017393929190613a58565b61018f6101cc3660046134cb565b610612565b61018f6101df366004613493565b61063c565b6101f76101f23660046134cb565b61076a565b6040516101739190613a14565b61018f6107e2565b61018f61021a366004613493565b6107e8565b610227610803565b005b610227610237366004613640565b610882565b610244610983565b6040516101739190613999565b61022761025f366004613526565b610992565b6102276102723660046135dd565b610c69565b610244610d22565b61022761028d3660046137ae565b610d31565b61018f610ddd565b6102276102a8366004613919565b610de3565b6102c06102bb3660046137f5565b610e58565b604051610173929190614602565b61018f6102dc3660046135dd565b610f72565b61018f610fa7565b6102276102f7366004613919565b610fad565b61022761030a366004613493565b611039565b6102446110ef565b61031f61326d565b61032761326d565b61032f613280565b61033985856112a5565b905061034585826115f0565b92509250505b9250929050565b6000806103618b8b8b86611af9565b905061036b61331c565b610376898989611b32565b90506000610385858c8f611b9e565b905061039e61039684848a85611db7565b876000612013565b9d9c50505050505050505050505050565b6000806000836001146103dd5760405162461bcd60e51b81526004016103d49061425b565b60405180910390fd5b6103e5613280565b6103ef86866112a5565b905080610220015161040b57506000925082915081905061060b565b8060e00151421061042e5760405162461bcd60e51b81526004016103d49061409a565b60085481516040516341976e0960e01b81526000926001600160a01b0316916341976e09916104609190600401613999565b60206040518083038186803b15801561047857600080fd5b505afa15801561048c573d6000803e3d6000fd5b505050506040513d601f19601f820116820180604052508101906104b09190613931565b90506104ba61331c565b60405180606001604052806104e88a606001516000815181106104d957fe5b602002602001015160086110fe565b81526020016104fc8560c0015160086110fe565b815260200161050c8460086110fe565b81525090506000610530846000015185602001518660400151876101c00151611af9565b905061053a61326d565b6105618a60a0015160008151811061054e57fe5b60200260200101518661018001516110fe565b9050600061057d866101c0015187604001518860000151611b9e565b905061058761326d565b61059784868960e0015185611db7565b90506105a9818463ffffffff6120e216565b156105c557506000985088975087965061060b95505050505050565b60006105db8487600001518a61018001516120ea565b6040988901516001600160a01b031660009081526003602052989098205460019b50979950969750505050505050505b9250925092565b60008061062186868686611af9565b6000908152600660205260409020549150505b949350505050565b60006001600160a01b0382166106645760405162461bcd60e51b81526004016103d490613b12565b60008060008060008061067688612131565b955095509550955095509550814210156106a25760405162461bcd60e51b81526004016103d490613b59565b6106aa61326d565b6106b78686858786612483565b90506106c161326d565b6106cd82878a876124e4565b90506000886001600160a01b031663313ce5676040518163ffffffff1660e01b815260040160206040518083038186803b15801561070a57600080fd5b505afa15801561071e573d6000803e3d6000fd5b505050506040513d601f19601f820116820180604052508101906107429190613978565b60ff1690506107598282600163ffffffff61201316565b99505050505050505050505b919050565b6060600061077a86868686611af9565b60008181526004602090815260409182902080548351818402810184019094528084529394509192908301828280156107d257602002820191906000526020600020905b8154815260200190600101908083116107be575b5050505050915050949350505050565b60075481565b6001600160a01b031660009081526003602052604090205490565b61080b612670565b6000546001600160a01b039081169116146108385760405162461bcd60e51b81526004016103d49061412f565b600080546040516001600160a01b03909116907f8be0079c531659141344cd1fd0a4f28419497f9722a3daafe3b4186f6b6457e0908390a3600080546001600160a01b0319169055565b61088a612670565b6000546001600160a01b039081169116146108b75760405162461bcd60e51b81526004016103d49061412f565b600081116108d75760405162461bcd60e51b81526004016103d490613f0e565b60006108e587878787611af9565b60008181526005602090815260408083208784529091529020549091508061091f5760405162461bcd60e51b81526004016103d490614372565b6000828152600560209081526040808320878452909152908190208490555182907f39bab32d3b88604bdfbf6e8c3b1aaaf9bb6013da4fd5206dee9e3b00ee6f2cf99061097190879085908890614620565b60405180910390a25050505050505050565b6008546001600160a01b031681565b61099a612670565b6000546001600160a01b039081169116146109c75760405162461bcd60e51b81526004016103d49061412f565b826109e45760405162461bcd60e51b81526004016103d490613bf4565b828114610a035760405162461bcd60e51b81526004016103d490613d5f565b6000610a1189898989611af9565b60008181526004602052604090208054919250901580610a6c575080548190610a4190600163ffffffff6111e716565b81548110610a4b57fe5b906000526020600020015486866000818110610a6357fe5b90506020020135115b610a885760405162461bcd60e51b81526004016103d4906143bf565b60005b85811015610c5c5785610aa582600163ffffffff61267416565b1015610afe578686610abe83600163ffffffff61267416565b818110610ac757fe5b90506020020135878783818110610ada57fe5b9050602002013510610afe5760405162461bcd60e51b81526004016103d490614212565b6000858583818110610b0c57fe5b9050602002013511610b305760405162461bcd60e51b81526004016103d490613ba1565b848482818110610b3c57fe5b90506020020135600560008581526020019081526020016000206000898985818110610b6457fe5b9050602002013581526020019081526020016000208190555081878783818110610b8a57fe5b83546001810185556000948552602094859020919094029290920135919092015550827fcaae9881bd3ac6f531c9e6021f1f873b93a83648e348624eef8f9ba9757fcb62888884818110610bda57fe5b90506020020135604051610bee91906145f9565b60405180910390a2827fcbb8d688de73727385afee9d53a2771ae5fe45293ff6de0ba46b201ab29df115888884818110610c2457fe5b90506020020135878785818110610c3757fe5b90506020020135604051610c4c929190614612565b60405180910390a2600101610a8b565b5050505050505050505050565b610c71612670565b6000546001600160a01b03908116911614610c9e5760405162461bcd60e51b81526004016103d49061412f565b60008111610cbe5760405162461bcd60e51b81526004016103d4906144a6565b6000610ccc86868686611af9565b600081815260066020526040908190208490555190915081907f78d22b4a9e4e0e1db30e7762696456ca380dc80efc59f416a299b97213b6d31690610d129085906145f9565b60405180910390a2505050505050565b6000546001600160a01b031690565b610d39612670565b6000546001600160a01b03908116911614610d665760405162461bcd60e51b81526004016103d49061412f565b60008111610d865760405162461bcd60e51b81526004016103d490613c89565b6001600160a01b03821660008181526003602052604090819020839055517f8ef429e6cec4339c5f0187fb930764fb967114bf09bc8bb06a552ba32923fd8690610dd19084906145f9565b60405180910390a25050565b60015490565b610deb612670565b6000546001600160a01b03908116911614610e185760405162461bcd60e51b81526004016103d49061412f565b60018190556040517fe44c6dd1fc3826ad24b81f17cf04849cedd368e002a52e89a845d14d3474e20a90610e4d9083906145f9565b60405180910390a150565b600080610e63613280565b610e6d85856112a5565b9050610e798582612699565b806102200151158015610e8f5750806102000151155b15610ecf576000816102400151610ea7576000610ec1565b8560a00151600081518110610eb857fe5b60200260200101515b93506001925061034b915050565b610ed761326d565b610edf61326d565b610ee987846115f0565b91509150610ef561326d565b610f05838363ffffffff6127d016565b60408051602081019091526002548152909150600090610f2c90839063ffffffff61280216565b90506000856102000151610f4557856101000151610f4c565b8561016001515b90506000610f6184838563ffffffff61201316565b9b929a509198505050505050505050565b600080610f8187878787611af9565b600090815260056020908152604080832086845290915290205491505095945050505050565b610e1081565b610fb5612670565b6000546001600160a01b03908116911614610fe25760405162461bcd60e51b81526004016103d49061412f565b6127108111156110045760405162461bcd60e51b81526004016103d490614309565b60078190556040517ff335500d2004f80d872ed7ae8097a9f9d2895bddb232ffd2cc11a349fd04def290610e4d9083906145f9565b611041612670565b6000546001600160a01b0390811691161461106e5760405162461bcd60e51b81526004016103d49061412f565b6001600160a01b0381166110945760405162461bcd60e51b81526004016103d490613c43565b600080546040516001600160a01b03808516939216917f8be0079c531659141344cd1fd0a4f28419497f9722a3daafe3b4186f6b6457e091a3600080546001600160a01b0319166001600160a01b0392909216919091179055565b6009546001600160a01b031681565b61110661326d565b61110e61326d565b601b83141561113457604051806020016040528061112b866111be565b905290506111b5565b601b83111561118657600061115084601b63ffffffff6111e716565b9050604051806020016040528061117b61117684600a0a8961122990919063ffffffff16565b6111be565b8152509150506111b5565b6040805160208101909152601b84900390806111af61117688600a86900a63ffffffff61126b16565b90529150505b90505b92915050565b6000600160ff1b82106111e35760405162461bcd60e51b81526004016103d490613ce6565b5090565b60006111b583836040518060400160405280601e81526020017f536166654d6174683a207375627472616374696f6e206f766572666c6f77000081525061280a565b60006111b583836040518060400160405280601a81526020017f536166654d6174683a206469766973696f6e206279207a65726f000000000000815250612836565b60008261127a575060006111b8565b8282028284828161128757fe5b04146111b55760405162461bcd60e51b81526004016103d4906140ee565b6112ad613280565b6112b5613280565b50604080516102608101825260008082526020808301829052928201819052606082018190526080820181905260a0820181905260c0820181905260e08201819052610100820181905261012082018190526101408201819052610160820181905261018082018190526101a082018190526101c082018190526101e08201819052610200820181905261022082018190526102408201529084015161135a9061286d565b1515610200820152835161136d9061286d565b151561022082015260408401516113839061286d565b15156102408201526101a081018390526102008101511561147157600084602001516000815181106113b157fe5b602002602001015190506113c481612131565b15156101e08801526101408701526101208601526001600160a01b03908116608086015290811660608501521660a083018190526040805163313ce56760e01b8152905163313ce56791600480820192602092909190829003018186803b15801561142e57600080fd5b505afa158015611442573d6000803e3d6000fd5b505050506040513d601f19601f820116820180604052508101906114669190613978565b60ff16610160830152505b8061022001511561154c576000846000015160008151811061148f57fe5b602002602001015190506114a281612131565b15156101c088015260e087015260c08601526001600160a01b039081166020808701919091529181168552919091166040808501829052805163313ce56760e01b81529051919263313ce56792600480840193829003018186803b15801561150957600080fd5b505afa15801561151d573d6000803e3d6000fd5b505050506040513d601f19601f820116820180604052508101906115419190613978565b60ff16610100830152505b806102400151156111b557836040015160008151811061156857fe5b60200260200101516001600160a01b031663313ce5676040518163ffffffff1660e01b815260040160206040518083038186803b1580156115a857600080fd5b505afa1580156115bc573d6000803e3d6000fd5b505050506040513d601f19601f820116820180604052508101906115e09190613978565b60ff166101808201529392505050565b6115f861326d565b61160061326d565b61160861326d565b836102200151611627576040805160208101909152600254815261163b565b61163b85606001516000815181106104d957fe5b905061164561326d565b8461020001516116645760408051602081019091526002548152611678565b61167886608001516000815181106104d957fe5b905061168261326d565b8561024001516116a157604080516020810190915260025481526116c8565b6116c88760a001516000815181106116b557fe5b60200260200101518761018001516110fe565b90506116d261326d565b8661022001516116f15760408051602081019091526002548152611700565b6117008760c0015160086110fe565b905061170a61334e565b6040518060a0016040528089610220015161172957896060015161172c565b89515b6001600160a01b0316815260200189610220015161174e578960a00151611754565b89604001515b6001600160a01b0316815260200189610220015161177657896080015161177c565b89602001515b6001600160a01b0316815260200189610220015161179f578961014001516117a5565b8960e001515b81526020018961022001516117bf57896101e001516117c6565b896101c001515b151581525090508060600151421015611a2357876101a001516001141561197c576117ef61326d565b6040808a01516001600160a01b03166000908152600360205220546101808a015161181a91906110fe565b6040805160208101909152600254815290915061183e90859063ffffffff6128ab16565b1561186f57611853848263ffffffff6128ab16565b61186f5760405162461bcd60e51b81526004016103d490613e8b565b61187761326d565b6008548a516040516341976e0960e01b8152611901926001600160a01b0316916341976e09916118aa9190600401613999565b60206040518083038186803b1580156118c257600080fd5b505afa1580156118d6573d6000803e3d6000fd5b505050506040513d601f19601f820116820180604052508101906118fa9190613931565b60086110fe565b905060006119228b600001518c602001518d604001518e6101c00151611af9565b9050600061193d85608001518d604001518e60000151611b9e565b90508661196a8360405180606001604052808d81526020018a815260200187815250886060015185611db7565b9a509a5050505050505050505061034b565b61198461326d565b8861020001516119a357604080516020810190915260025481526119b3565b6119b389610120015160086110fe565b90508160800151156119f9576119c761326d565b6119d3878786856128b2565b9050846119e982856040015186602001516128ea565b985098505050505050505061034b565b611a0161326d565b611a0d87878685612a4f565b9050846119e982856000015186602001516128ea565b611a2b61326d565b886102200151611a4a5760408051602081019091526002548152611a6b565b611a6b89600001518a602001518b60e001518c60c001518660800151612483565b9050611a7561326d565b896102000151611a945760408051602081019091526002548152611ab7565b611ab78a606001518b608001518c61014001518d61012001518760800151612483565b9050611ac161326d565b611acd88888585612ad9565b905085611ae8828660400151876020015188606001516124e4565b99509950505050505050505061034b565b600084848484604051602001611b1294939291906139ad565b604051602081830303815290604052805190602001209050949350505050565b611b3a61331c565b611b4261326d565b611b4d8560086110fe565b9050611b5761326d565b611b628560086110fe565b9050611b6c61326d565b611b778560086110fe565b604080516060810182529485526020850193909352918301919091525090505b9392505050565b600080600960009054906101000a90046001600160a01b03166001600160a01b031663d01f63f56040518163ffffffff1660e01b815260040160206040518083038186803b158015611bef57600080fd5b505afa158015611c03573d6000803e3d6000fd5b505050506040513d601f19601f82011682018060405250810190611c2791906134af565b90506000816001600160a01b0316632a490df58686896040518463ffffffff1660e01b8152600401611c5b939291906139d7565b60206040518083038186803b158015611c7357600080fd5b505afa158015611c87573d6000803e3d6000fd5b505050506040513d601f19601f82011682018060405250810190611cab91906137d9565b90506000826001600160a01b031663dd97609587878a6040518463ffffffff1660e01b8152600401611cdf939291906139d7565b60206040518083038186803b158015611cf757600080fd5b505afa158015611d0b573d6000803e3d6000fd5b505050506040513d601f19601f82011682018060405250810190611d2f91906137d9565b9050868015611d3b5750815b15611d4c5760009350505050611b97565b86158015611d575750815b15611d685760039350505050611b97565b868015611d725750805b15611d835760029350505050611b97565b86158015611d8e5750805b15611d9f5760019350505050611b97565b60405162461bcd60e51b81526004016103d490614010565b611dbf61326d565b611dc761326d565b611dd18685612b04565b9050611ddb61326d565b5060408051602080820183526000898152600690915291909120548152611e0061326d565b611e0861326d565b6000866003811115611e1657fe5b1415611ec557611e408860200151611e3b8a6040015186612c6f90919063ffffffff16565b612cb6565b9150611e85611e70611e5f8a6040015186612c6f90919063ffffffff16565b60208b01519063ffffffff6127d016565b60408051602081019091526002548152612cd4565b8851909150611eba90611eae83611ea2888763ffffffff612c6f16565b9063ffffffff612ceb16565b9063ffffffff612c6f16565b945050505050610634565b6003866003811115611ed357fe5b1415611f6857611f1e611ef36b033b2e3c9fd0803ce8000000601b6110fe565b611e3b8a60400151611f12878d60200151612c6f90919063ffffffff16565b9063ffffffff612d1416565b9150611e85611e70611f458a60400151611f12878d60200151612c6f90919063ffffffff16565b611f5c6b033b2e3c9fd0803ce8000000601b6110fe565b9063ffffffff6127d016565b6002866003811115611f7657fe5b1415611fc457611fa0611f9a89604001518a60200151612d1490919063ffffffff16565b84612cb6565b9150611e85611e7084611f5c8b604001518c60200151612d1490919063ffffffff16565b611fe38860400151611e3b858b60200151612c6f90919063ffffffff16565b9150611e85611e70612002858b60200151612c6f90919063ffffffff16565b60408b01519063ffffffff6127d016565b600080601b84141561203157845161202a90612d4a565b9050610634565b601b84111561206a576000601b8503905061206281600a0a6120568860000151612d4a565b9063ffffffff61126b16565b915050610634565b601b8490036000846120a757600061209883600a0a61208c8a60000151612d4a565b9063ffffffff612d6616565b905080156120a557600191505b505b6120d7816120cb84600a0a6120bf8b60000151612d4a565b9063ffffffff61122916565b9063ffffffff61267416565b979650505050505050565b519051131590565b60006120f461326d565b612104858563ffffffff612d1416565b90506121286127106120bf600754612056876001876120139092919063ffffffff16565b95945050505050565b6000806000806000806000879050806001600160a01b031663af0968fc6040518163ffffffff1660e01b815260040160c06040518083038186803b15801561217857600080fd5b505afa9250505080156121a8575060408051601f3d908101601f191682019092526121a5918101906136ad565b60015b61246457806001600160a01b031663aabaecd66040518163ffffffff1660e01b815260040160206040518083038186803b1580156121e557600080fd5b505afa1580156121f9573d6000803e3d6000fd5b505050506040513d601f19601f8201168201806040525081019061221d91906134af565b816001600160a01b0316637158da7c6040518163ffffffff1660e01b815260040160206040518083038186803b15801561225657600080fd5b505afa15801561226a573d6000803e3d6000fd5b505050506040513d601f19601f8201168201806040525081019061228e91906134af565b826001600160a01b03166317d69bc86040518163ffffffff1660e01b815260040160206040518083038186803b1580156122c757600080fd5b505afa1580156122db573d6000803e3d6000fd5b505050506040513d601f19601f820116820180604052508101906122ff91906134af565b836001600160a01b031663c52987cf6040518163ffffffff1660e01b815260040160206040518083038186803b15801561233857600080fd5b505afa15801561234c573d6000803e3d6000fd5b505050506040513d601f19601f820116820180604052508101906123709190613931565b846001600160a01b031663ade6e2aa6040518163ffffffff1660e01b815260040160206040518083038186803b1580156123a957600080fd5b505afa1580156123bd573d6000803e3d6000fd5b505050506040513d601f19601f820116820180604052508101906123e19190613931565b856001600160a01b031663f3c274a66040518163ffffffff1660e01b815260040160206040518083038186803b15801561241a57600080fd5b505afa15801561242e573d6000803e3d6000fd5b505050506040513d601f19601f8201168201806040525081019061245291906137d9565b9650965096509650965096505061247a565b949b5092995090975095509350915061247a9050565b91939550919395565b61248b61326d565b61249361326d565b61249e8460086110fe565b90506124a861326d565b6124b4600160006110fe565b90506124be61326d565b6124ca828a8a8a6124e4565b90506124d7838287612da8565b9998505050505050505050565b6124ec61326d565b826001600160a01b0316846001600160a01b0316141561250d575083610634565b6008546040516301957f8160e01b815260009182916001600160a01b03909116906301957f819061254490899088906004016139fb565b604080518083038186803b15801561255b57600080fd5b505afa15801561256f573d6000803e3d6000fd5b505050506040513d601f19601f820116820180604052508101906125939190613949565b6008546040516301957f8160e01b815292945090925060009182916001600160a01b0316906301957f81906125ce908a908a906004016139fb565b604080518083038186803b1580156125e557600080fd5b505afa1580156125f9573d6000803e3d6000fd5b505050506040513d601f19601f8201168201806040525081019061261d9190613949565b9150915082801561262b5750805b6126475760405162461bcd60e51b81526004016103d490613fbd565b6124d76126558360086110fe565b611f126126638760086110fe565b8c9063ffffffff612c6f16565b3390565b6000828201838110156111b55760405162461bcd60e51b81526004016103d490613d28565b815151600110156126bc5760405162461bcd60e51b81526004016103d49061440d565b600182602001515111156126e25760405162461bcd60e51b81526004016103d490613da5565b600182604001515111156127085760405162461bcd60e51b81526004016103d4906142ac565b6060820151518251511461272e5760405162461bcd60e51b81526004016103d490613e3a565b816080015151826020015151146127575760405162461bcd60e51b81526004016103d4906144f0565b8160a0015151826040015151146127805760405162461bcd60e51b81526004016103d490614540565b61278a8282612e2f565b6127a65760405162461bcd60e51b81526004016103d49061403d565b6127b08282612f69565b6127cc5760405162461bcd60e51b81526004016103d4906141ab565b5050565b6127d861326d565b60408051602081019091528251845182916127f9919063ffffffff61313b16565b90529392505050565b519051121590565b6000818484111561282e5760405162461bcd60e51b81526004016103d49190613a70565b505050900390565b600081836128575760405162461bcd60e51b81526004016103d49190613a70565b50600083858161286357fe5b0495945050505050565b60008082511180156111b8575060006001600160a01b03168260008151811061289257fe5b60200260200101516001600160a01b0316141592915050565b5190511390565b6128ba61326d565b612128611e706128da6128cd8888612cb6565b859063ffffffff612c6f16565b611f5c888763ffffffff612c6f16565b6128f261326d565b816001600160a01b0316836001600160a01b03161415612913575082611b97565b6008546040516341976e0960e01b81526000916001600160a01b0316906341976e0990612944908790600401613999565b60206040518083038186803b15801561295c57600080fd5b505afa158015612970573d6000803e3d6000fd5b505050506040513d601f19601f820116820180604052508101906129949190613931565b6008546040516341976e0960e01b81529192506000916001600160a01b03909116906341976e09906129ca908790600401613999565b60206040518083038186803b1580156129e257600080fd5b505afa1580156129f6573d6000803e3d6000fd5b505050506040513d601f19601f82011682018060405250810190612a1a9190613931565b9050612a45612a2a8260086110fe565b611f12612a388560086110fe565b899063ffffffff612c6f16565b9695505050505050565b612a5761326d565b60408051602081019091526002548152612a7890839063ffffffff61318116565b15612a905761202a611e70868663ffffffff6127d016565b612a9861326d565b612ab083611f1288611eae838963ffffffff6127d016565b9050612aba61326d565b612acd611e70888863ffffffff6127d016565b90506120d78282612cd4565b612ae161326d565b612128612af4838663ffffffff612c6f16565b611f5c858863ffffffff612c6f16565b612b0c61326d565b600083815260046020908152604091829020805483518184028101840190945280845260609392830182828015612b6257602002820191906000526020600020905b815481526020019060010190808311612b4e575b50505050509050805160001415612b8b5760405162461bcd60e51b81526004016103d490613ac3565b6000612b9d844263ffffffff6111e716565b90508082612bb6600185516111e790919063ffffffff16565b81518110612bc057fe5b60200260200101511015612be65760405162461bcd60e51b81526004016103d490614596565b60005b82518160ff161015612c665781838260ff1681518110612c0557fe5b602002602001015110612c5e5760008681526005602052604081208451612c549290869060ff8616908110612c3657fe5b6020026020010151815260200190815260200160002054601b6110fe565b93505050506111b8565b600101612be9565b50505092915050565b612c7761326d565b60408051602081019091528251845182916b033b2e3c9fd0803ce800000091612ca59163ffffffff61318816565b81612cac57fe5b0590529392505050565b612cbe61326d565b8151835112612ccd57816111b5565b5090919050565b612cdc61326d565b8151835113612ccd57816111b5565b612cf361326d565b60408051602081019091528251845182916127f9919063ffffffff6131f316565b612d1c61326d565b604080516020810190915282518451829190612ca5906b033b2e3c9fd0803ce800000063ffffffff61318816565b600080821215612d5f57816000039050610765565b5080610765565b60006111b583836040518060400160405280601881526020017f536166654d6174683a206d6f64756c6f206279207a65726f0000000000000000815250613239565b612db061326d565b8115612df657612dc6848463ffffffff6128ab16565b612ddf5760408051602081019091526002548152612def565b612def848463ffffffff6127d016565b9050611b97565b612e06838563ffffffff6128ab16565b612e1f5760408051602081019091526002548152610634565b610634838563ffffffff6127d016565b6000816101a0015160011415612e625781610200015115612e625760405162461bcd60e51b81526004016103d490613f60565b8161020001511580612e775750816102200151155b15612e84575060016111b8565b82518051600090612e9157fe5b60200260200101516001600160a01b03168360200151600081518110612eb357fe5b60200260200101516001600160a01b031614158015612eeb575081600001516001600160a01b031682606001516001600160a01b0316145b8015612f10575081602001516001600160a01b031682608001516001600160a01b0316145b8015612f35575081604001516001600160a01b03168260a001516001600160a01b0316145b8015612f4957508160e00151826101400151145b80156111b55750816101c001511515826101e00151151514905092915050565b610240810151600090600190612f805790506111b8565b826102200151156130f5578360400151600081518110612f9c57fe5b60200260200101516001600160a01b031683604001516001600160a01b0316149050826101a00151600014156130f0576009546040805163d01f63f560e01b815290516000926001600160a01b03169163d01f63f5916004808301926020929190829003018186803b15801561301157600080fd5b505afa158015613025573d6000803e3d6000fd5b505050506040513d601f19601f8201168201806040525081019061304991906134af565b9050806001600160a01b0316632a490df5866040015160008151811061306b57fe5b60200260200101518660000151876101c001516040518463ffffffff1660e01b815260040161309c939291906139d7565b60206040518083038186803b1580156130b457600080fd5b505afa1580156130c8573d6000803e3d6000fd5b505050506040513d601f19601f820116820180604052508101906130ec91906137d9565b9150505b6111b5565b826102000151156111b557836040015160008151811061311157fe5b60200260200101516001600160a01b03168360a001516001600160a01b0316149050905092915050565b60008183038183128015906131505750838113155b80613165575060008312801561316557508381135b6111b55760405162461bcd60e51b81526004016103d490614462565b5190511490565b600082613197575060006111b8565b826000191480156131ab5750600160ff1b82145b156131c85760405162461bcd60e51b81526004016103d490614164565b828202828482816131d557fe5b05146111b55760405162461bcd60e51b81526004016103d490614164565b60008282018183128015906132085750838112155b8061321d575060008312801561321d57508381125b6111b55760405162461bcd60e51b81526004016103d490613df9565b6000818361325a5760405162461bcd60e51b81526004016103d49190613a70565b5082848161326457fe5b06949350505050565b6040518060200160405280600081525090565b6040805161026081018252600080825260208201819052918101829052606081018290526080810182905260a0810182905260c0810182905260e08101829052610100810182905261012081018290526101408101829052610160810182905261018081018290526101a081018290526101c081018290526101e081018290526102008101829052610220810182905261024081019190915290565b604051806060016040528061332f61326d565b815260200161333c61326d565b815260200161334961326d565b905290565b6040805160a08101825260008082526020820181905291810182905260608101829052608081019190915290565b600082601f83011261338c578081fd5b813561339f61339a8261465d565b614636565b8181529150602080830190848101818402860182018710156133c057600080fd5b60005b848110156133e85781356133d68161467d565b845292820192908201906001016133c3565b505050505092915050565b60008083601f840112613404578081fd5b50813567ffffffffffffffff81111561341b578182fd5b602083019150836020808302850101111561034b57600080fd5b600082601f830112613445578081fd5b813561345361339a8261465d565b81815291506020808301908481018184028601820187101561347457600080fd5b60005b848110156133e857813584529282019290820190600101613477565b6000602082840312156134a4578081fd5b81356111b58161467d565b6000602082840312156134c0578081fd5b81516111b58161467d565b600080600080608085870312156134e0578283fd5b84356134eb8161467d565b935060208501356134fb8161467d565b9250604085013561350b8161467d565b9150606085013561351b81614695565b939692955090935050565b60008060008060008060008060c0898b031215613541578384fd5b883561354c8161467d565b9750602089013561355c8161467d565b9650604089013561356c8161467d565b9550606089013561357c81614695565b9450608089013567ffffffffffffffff80821115613598578586fd5b6135a48c838d016133f3565b909650945060a08b01359150808211156135bc578384fd5b506135c98b828c016133f3565b999c989b5096995094979396929594505050565b600080600080600060a086880312156135f4578081fd5b85356135ff8161467d565b9450602086013561360f8161467d565b9350604086013561361f8161467d565b9250606086013561362f81614695565b949793965091946080013592915050565b60008060008060008060c08789031215613658578182fd5b86356136638161467d565b955060208701356136738161467d565b945060408701356136838161467d565b9350606087013561369381614695565b9598949750929560808101359460a0909101359350915050565b60008060008060008060c087890312156136c5578182fd5b86516136d08161467d565b60208801519096506136e18161467d565b60408801519095506136f28161467d565b80945050606087015192506080870151915060a087015161371281614695565b809150509295509295509295565b60008060008060008060008060006101208a8c03121561373e578283fd5b89356137498161467d565b985060208a01356137598161467d565b975060408a01356137698161467d565b965060608a0135955060808a0135945060a08a0135935060c08a0135925060e08a013591506101008a013561379d81614695565b809150509295985092959850929598565b600080604083850312156137c0578182fd5b82356137cb8161467d565b946020939093013593505050565b6000602082840312156137ea578081fd5b81516111b581614695565b60008060408385031215613807578182fd5b823567ffffffffffffffff8082111561381e578384fd5b81850160c08188031215613830578485fd5b61383a60c0614636565b925080358281111561384a578586fd5b6138568882840161337c565b84525060208101358281111561386a578586fd5b6138768882840161337c565b60208501525060408101358281111561388d578586fd5b6138998882840161337c565b6040850152506060810135828111156138b0578586fd5b6138bc88828401613435565b6060850152506080810135828111156138d3578586fd5b6138df88828401613435565b60808501525060a0810135828111156138f6578586fd5b61390288828401613435565b60a085015250919660209590950135955050505050565b60006020828403121561392a578081fd5b5035919050565b600060208284031215613942578081fd5b5051919050565b6000806040838503121561395b578182fd5b82519150602083015161396d81614695565b809150509250929050565b600060208284031215613989578081fd5b815160ff811681146111b5578182fd5b6001600160a01b0391909116815260200190565b6001600160a01b039485168152928416602084015292166040820152901515606082015260800190565b6001600160a01b039384168152919092166020820152901515604082015260600190565b6001600160a01b03929092168252602082015260400190565b6020808252825182820181905260009190848201906040850190845b81811015613a4c57835183529284019291840191600101613a30565b50909695505050505050565b92151583526020830191909152604082015260600190565b6000602080835283518082850152825b81811015613a9c57858101830151858201604001528201613a80565b81811115613aad5783604083870101525b50601f01601f1916929092016040019392505050565b6020808252602f908201527f4d617267696e43616c63756c61746f723a2070726f647563742068617665206e60408201526e6f206578706972792076616c75657360881b606082015260800190565b60208082526027908201527f4d617267696e43616c63756c61746f723a20496e76616c696420746f6b656e206040820152666164647265737360c81b606082015260800190565b60208082526028908201527f4d617267696e43616c63756c61746f723a204f746f6b656e206e6f74206578706040820152671a5c9959081e595d60c21b606082015260800190565b60208082526033908201527f4d617267696e43616c63756c61746f723a206e6f2065787069727920757070656040820152721c88189bdd5b99081d985b1d5948199bdd5b99606a1b606082015260800190565b6020808252602f908201527f4d617267696e43616c63756c61746f723a20696e76616c69642074696d65732060408201526e746f2065787069727920617272617960881b606082015260800190565b60208082526026908201527f4f776e61626c653a206e6577206f776e657220697320746865207a65726f206160408201526564647265737360d01b606082015260800190565b60208082526039908201527f4d617267696e43616c63756c61746f723a206475737420616d6f756e7420736860408201527f6f756c642062652067726561746572207468616e207a65726f00000000000000606082015260800190565b60208082526022908201527f4669786564506f696e74496e743235363a206f7574206f6620696e742072616e604082015261676560f01b606082015260800190565b6020808252601b908201527f536166654d6174683a206164646974696f6e206f766572666c6f770000000000604082015260600190565b60208082526026908201527f4d617267696e43616c63756c61746f723a20696e76616c69642076616c75657360408201526520617272617960d01b606082015260800190565b60208082526034908201527f4d617267696e43616c63756c61746f723a20546f6f206d616e79206c6f6e67206040820152731bdd1bdad95b9cc81a5b881d1a19481d985d5b1d60621b606082015260800190565b60208082526021908201527f5369676e6564536166654d6174683a206164646974696f6e206f766572666c6f6040820152607760f81b606082015260800190565b60208082526031908201527f4d617267696e43616c63756c61746f723a2053686f727420617373657420616e6040820152700c840c2dadeeadce840dad2e6dac2e8c6d607b1b606082015260800190565b6020808252605b908201527f4d617267696e43616c63756c61746f723a206e616b6564206d617267696e207660408201527f61756c742073686f756c64206861766520636f6c6c61746572616c20616d6f7560608201527f6e742067726561746572207468616e206475737420616d6f756e740000000000608082015260a00190565b60208082526032908201527f4d617267696e43616c63756c61746f723a20696e76616c6964206f7074696f6e60408201527120757070657220626f756e642076616c756560701b606082015260800190565b6020808252603c908201527f4d617267696e43616c63756c61746f723a206e616b6564206d617267696e207660408201527f61756c742063616e6e6f742068617665206c6f6e67206f746f6b656e00000000606082015260800190565b60208082526033908201527f4d617267696e43616c63756c61746f723a2070726963652061742065787069726040820152721e481b9bdd08199a5b985b1a5e9959081e595d606a1b606082015260800190565b602080825260139082015272696e76616c6964206f7074696f6e207479706560681b604082015260600190565b6020808252603b908201527f4d617267696e43616c63756c61746f723a206c6f6e67206173736574206e6f7460408201527f206d617267696e61626c6520666f722073686f72742061737365740000000000606082015260800190565b60208082526034908201527f4d617267696e43616c63756c61746f723a2063616e206e6f74206c697175696460408201527330ba329032bc3834b932b2103837b9b4ba34b7b760611b606082015260800190565b60208082526021908201527f536166654d6174683a206d756c7469706c69636174696f6e206f766572666c6f6040820152607760f81b606082015260800190565b6020808252818101527f4f776e61626c653a2063616c6c6572206973206e6f7420746865206f776e6572604082015260600190565b60208082526027908201527f5369676e6564536166654d6174683a206d756c7469706c69636174696f6e206f604082015266766572666c6f7760c81b606082015260800190565b60208082526041908201527f4d617267696e43616c63756c61746f723a20636f6c6c61746572616c2061737360408201527f6574206e6f74206d617267696e61626c6520666f722073686f727420617373656060820152601d60fa1b608082015260a00190565b60208082526029908201527f4d617267696e43616c63756c61746f723a2074696d652073686f756c642062656040820152681034b71037b93232b960b91b606082015260800190565b60208082526031908201527f4d617267696e43616c63756c61746f723a20696e76616c6964207661756c74206040820152707479706520746f206c697175696461746560781b606082015260800190565b60208082526039908201527f4d617267696e43616c63756c61746f723a20546f6f206d616e7920636f6c6c6160408201527f746572616c2061737365747320696e20746865207661756c7400000000000000606082015260800190565b60208082526043908201527f4d617267696e43616c63756c61746f723a206c697175696461746f72206d756c60408201527f7469706c6965722073686f756c64206265206c657373207468616e204d41585f60608201526242505360e81b608082015260a00190565b6020808252602d908201527f4d617267696e43616c63756c61746f723a20757070657220626f756e6420766160408201526c1b1d59481b9bdd08199bdd5b99609a1b606082015260800190565b6020808252602e908201527f4d617267696e43616c63756c61746f723a20657870697279206172726179206960408201526d39903737ba1034b71037b93232b960911b606082015260800190565b60208082526035908201527f4d617267696e43616c63756c61746f723a20546f6f206d616e792073686f7274604082015274081bdd1bdad95b9cc81a5b881d1a19481d985d5b1d605a1b606082015260800190565b60208082526024908201527f5369676e6564536166654d6174683a207375627472616374696f6e206f766572604082015263666c6f7760e01b606082015260800190565b6020808252602a908201527f4d617267696e43616c63756c61746f723a20696e76616c69642073706f742073604082015269686f636b2076616c756560b01b606082015260800190565b60208082526030908201527f4d617267696e43616c63756c61746f723a204c6f6e6720617373657420616e6460408201526f040c2dadeeadce840dad2e6dac2e8c6d60831b606082015260800190565b60208082526036908201527f4d617267696e43616c63756c61746f723a20436f6c6c61746572616c206173736040820152750cae840c2dcc840c2dadeeadce840dad2e6dac2e8c6d60531b606082015260800190565b60208082526033908201527f4d617267696e43616c63756c61746f723a2070726f647563742068617665206e6040820152726f20757070657220626f756e642076616c756560681b606082015260800190565b9151825251602082015260400190565b90815260200190565b9182521515602082015260400190565b918252602082015260400190565b9283526020830191909152604082015260600190565b60405181810167ffffffffffffffff8111828210171561465557600080fd5b604052919050565b600067ffffffffffffffff821115614673578081fd5b5060209081020190565b6001600160a01b038116811461469257600080fd5b50565b801515811461469257600080fdfea2646970667358221220bfeca9d915de7053e6d6e05e4788f7af87a0d39d82525f0446e9de1ffaa218d564736f6c634300060a0033",
  "linkReferences": {},
  "deployedLinkReferences": {}
}