{
  "_format": "hh-sol-artifact-1",
  "contractName": "OptionHandler",
  "sourceName": "contracts/OptionHandler.sol",
  "abi": [
    {
      "inputs": [
        {
          "internalType": "address",
          "name": "_authority",
          "type": "address"
        },
        {
          "internalType": "address",
          "name": "_protocol",
          "type": "address"
        },
        {
          "internalType": "address",
          "name": "_liquidityPool",
          "type": "address"
        }
      ],
      "stateMutability": "nonpayable",
      "type": "constructor"
    },
    {
      "inputs": [],
      "name": "CustomOrderInsufficientPrice",
      "type": "error"
    },
    {
      "inputs": [],
      "name": "CustomOrderInvalidDeltaValue",
      "type": "error"
    },
    {
      "inputs": [],
      "name": "DeltaNotDecreased",
      "type": "error"
    },
    {
      "inputs": [],
      "name": "InvalidBuyer",
      "type": "error"
    },
    {
      "inputs": [],
      "name": "InvalidPrice",
      "type": "error"
    },
    {
      "inputs": [],
      "name": "NonExistentOtoken",
      "type": "error"
    },
    {
      "inputs": [],
      "name": "OptionExpiryInvalid",
      "type": "error"
    },
    {
      "inputs": [],
      "name": "OrderExpired",
      "type": "error"
    },
    {
      "inputs": [],
      "name": "OrderExpiryTooLong",
      "type": "error"
    },
    {
      "inputs": [],
      "name": "PRBMathSD59x18__AbsInputTooSmall",
      "type": "error"
    },
    {
      "inputs": [],
      "name": "PRBMathSD59x18__DivInputTooSmall",
      "type": "error"
    },
    {
      "inputs": [
        {
          "internalType": "uint256",
          "name": "rAbs",
          "type": "uint256"
        }
      ],
      "name": "PRBMathSD59x18__DivOverflow",
      "type": "error"
    },
    {
      "inputs": [
        {
          "internalType": "uint256",
          "name": "prod1",
          "type": "uint256"
        },
        {
          "internalType": "uint256",
          "name": "denominator",
          "type": "uint256"
        }
      ],
      "name": "PRBMath__MulDivOverflow",
      "type": "error"
    },
    {
      "inputs": [],
      "name": "SpotMovedBeyondRange",
      "type": "error"
    },
    {
      "inputs": [],
      "name": "UNAUTHORIZED",
      "type": "error"
    },
    {
      "anonymous": false,
      "inputs": [
        {
          "indexed": false,
          "internalType": "contract IAuthority",
          "name": "authority",
          "type": "address"
        }
      ],
      "name": "AuthorityUpdated",
      "type": "event"
    },
    {
      "anonymous": false,
      "inputs": [
        {
          "indexed": false,
          "internalType": "uint256",
          "name": "orderId",
          "type": "uint256"
        }
      ],
      "name": "OrderCreated",
      "type": "event"
    },
    {
      "anonymous": false,
      "inputs": [
        {
          "indexed": false,
          "internalType": "uint256",
          "name": "orderId",
          "type": "uint256"
        }
      ],
      "name": "OrderExecuted",
      "type": "event"
    },
    {
      "anonymous": false,
      "inputs": [
        {
          "indexed": false,
          "internalType": "address",
          "name": "account",
          "type": "address"
        }
      ],
      "name": "Paused",
      "type": "event"
    },
    {
      "anonymous": false,
      "inputs": [
        {
          "indexed": false,
          "internalType": "address",
          "name": "account",
          "type": "address"
        }
      ],
      "name": "Unpaused",
      "type": "event"
    },
    {
      "inputs": [
        {
          "internalType": "address",
          "name": "_addressToWhitelist",
          "type": "address"
        },
        {
          "internalType": "bool",
          "name": "toAdd",
          "type": "bool"
        }
      ],
      "name": "addOrRemoveBuybackAddress",
      "outputs": [],
      "stateMutability": "nonpayable",
      "type": "function"
    },
    {
      "inputs": [],
      "name": "authority",
      "outputs": [
        {
          "internalType": "contract IAuthority",
          "name": "",
          "type": "address"
        }
      ],
      "stateMutability": "view",
      "type": "function"
    },
    {
      "inputs": [
        {
          "internalType": "address",
          "name": "seriesAddress",
          "type": "address"
        },
        {
          "internalType": "uint256",
          "name": "amount",
          "type": "uint256"
        }
      ],
      "name": "buybackOption",
      "outputs": [
        {
          "internalType": "uint256",
          "name": "",
          "type": "uint256"
        }
      ],
      "stateMutability": "nonpayable",
      "type": "function"
    },
    {
      "inputs": [
        {
          "internalType": "address",
          "name": "",
          "type": "address"
        }
      ],
      "name": "buybackWhitelist",
      "outputs": [
        {
          "internalType": "bool",
          "name": "",
          "type": "bool"
        }
      ],
      "stateMutability": "view",
      "type": "function"
    },
    {
      "inputs": [],
      "name": "collateralAsset",
      "outputs": [
        {
          "internalType": "address",
          "name": "",
          "type": "address"
        }
      ],
      "stateMutability": "view",
      "type": "function"
    },
    {
      "inputs": [
        {
          "components": [
            {
              "internalType": "uint64",
              "name": "expiration",
              "type": "uint64"
            },
            {
              "internalType": "uint128",
              "name": "strike",
              "type": "uint128"
            },
            {
              "internalType": "bool",
              "name": "isPut",
              "type": "bool"
            },
            {
              "internalType": "address",
              "name": "underlying",
              "type": "address"
            },
            {
              "internalType": "address",
              "name": "strikeAsset",
              "type": "address"
            },
            {
              "internalType": "address",
              "name": "collateral",
              "type": "address"
            }
          ],
          "internalType": "struct Types.OptionSeries",
          "name": "_optionSeries",
          "type": "tuple"
        },
        {
          "internalType": "uint256",
          "name": "_amount",
          "type": "uint256"
        },
        {
          "internalType": "uint256",
          "name": "_price",
          "type": "uint256"
        },
        {
          "internalType": "uint256",
          "name": "_orderExpiry",
          "type": "uint256"
        },
        {
          "internalType": "address",
          "name": "_buyerAddress",
          "type": "address"
        },
        {
          "internalType": "uint256[2]",
          "name": "_spotMovementRange",
          "type": "uint256[2]"
        }
      ],
      "name": "createOrder",
      "outputs": [
        {
          "internalType": "uint256",
          "name": "",
          "type": "uint256"
        }
      ],
      "stateMutability": "nonpayable",
      "type": "function"
    },
    {
      "inputs": [
        {
          "components": [
            {
              "internalType": "uint64",
              "name": "expiration",
              "type": "uint64"
            },
            {
              "internalType": "uint128",
              "name": "strike",
              "type": "uint128"
            },
            {
              "internalType": "bool",
              "name": "isPut",
              "type": "bool"
            },
            {
              "internalType": "address",
              "name": "underlying",
              "type": "address"
            },
            {
              "internalType": "address",
              "name": "strikeAsset",
              "type": "address"
            },
            {
              "internalType": "address",
              "name": "collateral",
              "type": "address"
            }
          ],
          "internalType": "struct Types.OptionSeries",
          "name": "_optionSeriesCall",
          "type": "tuple"
        },
        {
          "components": [
            {
              "internalType": "uint64",
              "name": "expiration",
              "type": "uint64"
            },
            {
              "internalType": "uint128",
              "name": "strike",
              "type": "uint128"
            },
            {
              "internalType": "bool",
              "name": "isPut",
              "type": "bool"
            },
            {
              "internalType": "address",
              "name": "underlying",
              "type": "address"
            },
            {
              "internalType": "address",
              "name": "strikeAsset",
              "type": "address"
            },
            {
              "internalType": "address",
              "name": "collateral",
              "type": "address"
            }
          ],
          "internalType": "struct Types.OptionSeries",
          "name": "_optionSeriesPut",
          "type": "tuple"
        },
        {
          "internalType": "uint256",
          "name": "_amountCall",
          "type": "uint256"
        },
        {
          "internalType": "uint256",
          "name": "_amountPut",
          "type": "uint256"
        },
        {
          "internalType": "uint256",
          "name": "_priceCall",
          "type": "uint256"
        },
        {
          "internalType": "uint256",
          "name": "_pricePut",
          "type": "uint256"
        },
        {
          "internalType": "uint256",
          "name": "_orderExpiry",
          "type": "uint256"
        },
        {
          "internalType": "address",
          "name": "_buyerAddress",
          "type": "address"
        },
        {
          "internalType": "uint256[2]",
          "name": "_callSpotMovementRange",
          "type": "uint256[2]"
        },
        {
          "internalType": "uint256[2]",
          "name": "_putSpotMovementRange",
          "type": "uint256[2]"
        }
      ],
      "name": "createStrangle",
      "outputs": [
        {
          "internalType": "uint256",
          "name": "",
          "type": "uint256"
        },
        {
          "internalType": "uint256",
          "name": "",
          "type": "uint256"
        }
      ],
      "stateMutability": "nonpayable",
      "type": "function"
    },
    {
      "inputs": [],
      "name": "customOrderBounds",
      "outputs": [
        {
          "internalType": "uint128",
          "name": "callMinDelta",
          "type": "uint128"
        },
        {
          "internalType": "uint128",
          "name": "callMaxDelta",
          "type": "uint128"
        },
        {
          "internalType": "int128",
          "name": "putMinDelta",
          "type": "int128"
        },
        {
          "internalType": "int128",
          "name": "putMaxDelta",
          "type": "int128"
        },
        {
          "internalType": "uint32",
          "name": "maxPriceRange",
          "type": "uint32"
        }
      ],
      "stateMutability": "view",
      "type": "function"
    },
    {
      "inputs": [
        {
          "internalType": "uint256",
          "name": "_orderId",
          "type": "uint256"
        }
      ],
      "name": "executeOrder",
      "outputs": [],
      "stateMutability": "nonpayable",
      "type": "function"
    },
    {
      "inputs": [
        {
          "internalType": "uint256",
          "name": "_orderId1",
          "type": "uint256"
        },
        {
          "internalType": "uint256",
          "name": "_orderId2",
          "type": "uint256"
        }
      ],
      "name": "executeStrangle",
      "outputs": [],
      "stateMutability": "nonpayable",
      "type": "function"
    },
    {
      "inputs": [
        {
          "components": [
            {
              "internalType": "uint64",
              "name": "expiration",
              "type": "uint64"
            },
            {
              "internalType": "uint128",
              "name": "strike",
              "type": "uint128"
            },
            {
              "internalType": "bool",
              "name": "isPut",
              "type": "bool"
            },
            {
              "internalType": "address",
              "name": "underlying",
              "type": "address"
            },
            {
              "internalType": "address",
              "name": "strikeAsset",
              "type": "address"
            },
            {
              "internalType": "address",
              "name": "collateral",
              "type": "address"
            }
          ],
          "internalType": "struct Types.OptionSeries",
          "name": "optionSeries",
          "type": "tuple"
        }
      ],
      "name": "issue",
      "outputs": [
        {
          "internalType": "address",
          "name": "series",
          "type": "address"
        }
      ],
      "stateMutability": "nonpayable",
      "type": "function"
    },
    {
      "inputs": [
        {
          "components": [
            {
              "internalType": "uint64",
              "name": "expiration",
              "type": "uint64"
            },
            {
              "internalType": "uint128",
              "name": "strike",
              "type": "uint128"
            },
            {
              "internalType": "bool",
              "name": "isPut",
              "type": "bool"
            },
            {
              "internalType": "address",
              "name": "underlying",
              "type": "address"
            },
            {
              "internalType": "address",
              "name": "strikeAsset",
              "type": "address"
            },
            {
              "internalType": "address",
              "name": "collateral",
              "type": "address"
            }
          ],
          "internalType": "struct Types.OptionSeries",
          "name": "optionSeries",
          "type": "tuple"
        },
        {
          "internalType": "uint256",
          "name": "amount",
          "type": "uint256"
        }
      ],
      "name": "issueAndWriteOption",
      "outputs": [
        {
          "internalType": "uint256",
          "name": "optionAmount",
          "type": "uint256"
        },
        {
          "internalType": "address",
          "name": "series",
          "type": "address"
        }
      ],
      "stateMutability": "nonpayable",
      "type": "function"
    },
    {
      "inputs": [],
      "name": "liquidityPool",
      "outputs": [
        {
          "internalType": "contract ILiquidityPool",
          "name": "",
          "type": "address"
        }
      ],
      "stateMutability": "view",
      "type": "function"
    },
    {
      "inputs": [],
      "name": "minDeltaForRequest",
      "outputs": [
        {
          "internalType": "uint256",
          "name": "",
          "type": "uint256"
        }
      ],
      "stateMutability": "view",
      "type": "function"
    },
    {
      "inputs": [],
      "name": "orderIdCounter",
      "outputs": [
        {
          "internalType": "uint256",
          "name": "",
          "type": "uint256"
        }
      ],
      "stateMutability": "view",
      "type": "function"
    },
    {
      "inputs": [
        {
          "internalType": "uint256",
          "name": "",
          "type": "uint256"
        }
      ],
      "name": "orderStores",
      "outputs": [
        {
          "components": [
            {
              "internalType": "uint64",
              "name": "expiration",
              "type": "uint64"
            },
            {
              "internalType": "uint128",
              "name": "strike",
              "type": "uint128"
            },
            {
              "internalType": "bool",
              "name": "isPut",
              "type": "bool"
            },
            {
              "internalType": "address",
              "name": "underlying",
              "type": "address"
            },
            {
              "internalType": "address",
              "name": "strikeAsset",
              "type": "address"
            },
            {
              "internalType": "address",
              "name": "collateral",
              "type": "address"
            }
          ],
          "internalType": "struct Types.OptionSeries",
          "name": "optionSeries",
          "type": "tuple"
        },
        {
          "internalType": "uint256",
          "name": "amount",
          "type": "uint256"
        },
        {
          "internalType": "uint256",
          "name": "price",
          "type": "uint256"
        },
        {
          "internalType": "uint256",
          "name": "orderExpiry",
          "type": "uint256"
        },
        {
          "internalType": "address",
          "name": "buyer",
          "type": "address"
        },
        {
          "internalType": "address",
          "name": "seriesAddress",
          "type": "address"
        },
        {
          "internalType": "uint128",
          "name": "lowerSpotMovementRange",
          "type": "uint128"
        },
        {
          "internalType": "uint128",
          "name": "upperSpotMovementRange",
          "type": "uint128"
        },
        {
          "internalType": "bool",
          "name": "isBuyBack",
          "type": "bool"
        }
      ],
      "stateMutability": "view",
      "type": "function"
    },
    {
      "inputs": [],
      "name": "pause",
      "outputs": [],
      "stateMutability": "nonpayable",
      "type": "function"
    },
    {
      "inputs": [],
      "name": "paused",
      "outputs": [
        {
          "internalType": "bool",
          "name": "",
          "type": "bool"
        }
      ],
      "stateMutability": "view",
      "type": "function"
    },
    {
      "inputs": [],
      "name": "protocol",
      "outputs": [
        {
          "internalType": "contract Protocol",
          "name": "",
          "type": "address"
        }
      ],
      "stateMutability": "view",
      "type": "function"
    },
    {
      "inputs": [
        {
          "internalType": "contract IAuthority",
          "name": "_newAuthority",
          "type": "address"
        }
      ],
      "name": "setAuthority",
      "outputs": [],
      "stateMutability": "nonpayable",
      "type": "function"
    },
    {
      "inputs": [
        {
          "internalType": "uint128",
          "name": "_callMinDelta",
          "type": "uint128"
        },
        {
          "internalType": "uint128",
          "name": "_callMaxDelta",
          "type": "uint128"
        },
        {
          "internalType": "int128",
          "name": "_putMinDelta",
          "type": "int128"
        },
        {
          "internalType": "int128",
          "name": "_putMaxDelta",
          "type": "int128"
        },
        {
          "internalType": "uint32",
          "name": "_maxPriceRange",
          "type": "uint32"
        }
      ],
      "name": "setCustomOrderBounds",
      "outputs": [],
      "stateMutability": "nonpayable",
      "type": "function"
    },
    {
      "inputs": [
        {
          "internalType": "uint256",
          "name": "_minDeltaForRequest",
          "type": "uint256"
        }
      ],
      "name": "setMinDeltaForRequest",
      "outputs": [],
      "stateMutability": "nonpayable",
      "type": "function"
    },
    {
      "inputs": [],
      "name": "strikeAsset",
      "outputs": [
        {
          "internalType": "address",
          "name": "",
          "type": "address"
        }
      ],
      "stateMutability": "view",
      "type": "function"
    },
    {
      "inputs": [],
      "name": "underlyingAsset",
      "outputs": [
        {
          "internalType": "address",
          "name": "",
          "type": "address"
        }
      ],
      "stateMutability": "view",
      "type": "function"
    },
    {
      "inputs": [],
      "name": "unpause",
      "outputs": [],
      "stateMutability": "nonpayable",
      "type": "function"
    },
    {
      "inputs": [
        {
          "internalType": "address",
          "name": "seriesAddress",
          "type": "address"
        },
        {
          "internalType": "uint256",
          "name": "amount",
          "type": "uint256"
        }
      ],
      "name": "writeOption",
      "outputs": [
        {
          "internalType": "uint256",
          "name": "",
          "type": "uint256"
        }
      ],
      "stateMutability": "nonpayable",
      "type": "function"
    }
  ],
  "bytecode": "0x6101c060405260006101208190526703782dace9d90000610140526703782dace9d8ffff1961016052610180526103e86101a08190526503782dace9d960901b6004556ffffffffffffffffffc87d253162700006005556006805463ffffffff1916909117905567016345785d8a00006008553480156200007f57600080fd5b506040516200388338038062003883833981016040819052620000a291620002dc565b600080546001600160a81b0319166101006001600160a01b0386169081029190911790915560405190815283907f2f658b440c35314f52658ea8a740e05b284cdc84dc9ae01e891f21b8933e7cad9060200160405180910390a150600180556001600160a01b0380831660a052811660808190526040805163555d766b60e11b8152905163aabaecd691600480820192602092909190829003018186803b1580156200014d57600080fd5b505afa15801562000162573d6000803e3d6000fd5b505050506040513d601f19601f8201168201806040525081019062000188919062000326565b6001600160a01b0316610100816001600160a01b0316815250506080516001600160a01b0316637158da7c6040518163ffffffff1660e01b815260040160206040518083038186803b158015620001de57600080fd5b505afa158015620001f3573d6000803e3d6000fd5b505050506040513d601f19601f8201168201806040525081019062000219919062000326565b6001600160a01b031660e0816001600160a01b0316815250506080516001600160a01b03166317d69bc86040518163ffffffff1660e01b815260040160206040518083038186803b1580156200026e57600080fd5b505afa15801562000283573d6000803e3d6000fd5b505050506040513d601f19601f82011682018060405250810190620002a9919062000326565b6001600160a01b031660c052506200034b915050565b80516001600160a01b0381168114620002d757600080fd5b919050565b600080600060608486031215620002f257600080fd5b620002fd84620002bf565b92506200030d60208501620002bf565b91506200031d60408501620002bf565b90509250925092565b6000602082840312156200033957600080fd5b6200034482620002bf565b9392505050565b60805160a05160c05160e051610100516133fe620004856000396000818161044b01528181610857015281816108f501528181610ce501528181610e8001528181611ad801528181611e2a0152611e8801526000818161039f0152818161096c01528181610f71015281816111ed015281816117a10152611fa90152600081816101ad0152818161099401528181610f990152818161120e015281816117c20152611fd10152600081816103e1015281816121d3015281816123b301526126d201526000818161026a015281816106b50152818161091701528181610a3301528181610c5701528181610da001528181610ee00152818161103801528181611148015281816115340152818161183201528181611b4101528181611b6801528181611d9601528181611eaa0152611ee601526133fe6000f3fe608060405234801561001057600080fd5b506004361061018e5760003560e01c80638456cb59116100de578063b851274e11610097578063d02f2b4c11610071578063d02f2b4c14610513578063dc56726f14610526578063e83aa18e1461054e578063f6bcece31461056157600080fd5b8063b851274e14610476578063be374423146104f2578063bf7e214f146104fb57600080fd5b80638456cb59146103d45780638ce74426146103dc57806394f611341461040357806395bf68de14610416578063aabaecd614610446578063af67d9591461046d57600080fd5b80635c975abb1161014b5780636ddd19af116101255780636ddd19af1461028c5780636de68374146103775780637158da7c1461039a5780637a9e5e4b146103c157600080fd5b80635c975abb1461023b5780635fb708cf14610252578063665a11ca1461026557600080fd5b806305547a211461019357806317d69bc8146101a85780633d6b2e85146101ec5780633e0d92281461020d5780633f4ba83a146102205780635532db1714610228575b600080fd5b6101a66101a1366004612a4f565b610574565b005b6101cf7f000000000000000000000000000000000000000000000000000000000000000081565b6040516001600160a01b0390911681526020015b60405180910390f35b6101ff6101fa366004612a88565b6105a7565b6040519081526020016101e3565b6101ff61021b366004612a88565b610ad6565b6101a66110dc565b6101ff610236366004612c11565b6110ee565b60005460ff165b60405190151581526020016101e3565b6101cf610260366004612c78565b6114d1565b6101cf7f000000000000000000000000000000000000000000000000000000000000000081565b61036261029a366004612c94565b600360208181526000928352604092839020835160c08101855281546001600160401b03811682526001600160801b03600160401b820481169483019490945260ff600160c01b909104811615159582019590955260018201546001600160a01b03908116606083015260028301548116608083015293820154841660a0820152600482015460058301546006840154600785015460088601546009870154600a9097015495999498939792969184169593169381831693600160801b909204909216911689565b6040516101e399989796959493929190612d09565b610242610385366004612d72565b60076020526000908152604090205460ff1681565b6101cf7f000000000000000000000000000000000000000000000000000000000000000081565b6101a66103cf366004612d72565b6115c5565b6101a6611629565b6101cf7f000000000000000000000000000000000000000000000000000000000000000081565b6101a6610411366004612c94565b611639565b610429610424366004612d8f565b611d26565b604080519283526001600160a01b039091166020830152016101e3565b6101cf7f000000000000000000000000000000000000000000000000000000000000000081565b6101ff60085481565b6004546005546006546104b2926001600160801b0380821693600160801b9283900490911692600f82810b9390920490910b9063ffffffff1685565b604080516001600160801b039687168152959094166020860152600f92830b93850193909352900b606083015263ffffffff16608082015260a0016101e3565b6101ff60025481565b6000546101cf9061010090046001600160a01b031681565b6101a6610521366004612dba565b612069565b610539610534366004612ddc565b61207f565b604080519283526020830191909152016101e3565b6101a661055c366004612c94565b6120c0565b6101a661056f366004612e96565b6120cd565b61057c612118565b6001600160a01b03919091166000908152600760205260409020805460ff1916911515919091179055565b6000805460ff16156105d45760405162461bcd60e51b81526004016105cb90612f0c565b60405180910390fd5b600260015414156105f75760405162461bcd60e51b81526004016105cb90612f36565b600260015560006106066121cf565b60405163dac9675b60e01b81526001600160a01b03868116600483015291925060009183169063dac9675b9060240160c06040518083038186803b15801561064d57600080fd5b505afa158015610661573d6000803e3d6000fd5b505050506040513d601f19601f820116820180604052508101906106859190612f6d565b80519091506001600160401b03166106b057604051634f13847960e11b815260040160405180910390fd5b6000807f00000000000000000000000000000000000000000000000000000000000000006001600160a01b0316636cf791266040518060c0016040528086600001516001600160401b0316815260200161078a87602001516001600160801b03168c6001600160a01b031663313ce5676040518163ffffffff1660e01b815260040160206040518083038186803b15801561074a57600080fd5b505afa15801561075e573d6000803e3d6000fd5b505050506040513d601f19601f820116820180604052508101906107829190613017565b60ff16612267565b6001600160801b0316815260200186604001511515815260200186606001516001600160a01b0316815260200186608001516001600160a01b031681526020018660a001516001600160a01b03168152508860006040518463ffffffff1660e01b81526004016107fc9392919061303a565b604080518083038186803b15801561081357600080fd5b505afa158015610827573d6000803e3d6000fd5b505050506040513d601f19601f8201168201806040525081019061084b919061305f565b9150915060006108ee837f00000000000000000000000000000000000000000000000000000000000000006001600160a01b031663313ce5676040518163ffffffff1660e01b815260040160206040518083038186803b1580156108ae57600080fd5b505afa1580156108c2573d6000803e3d6000fd5b505050506040513d601f19601f820116820180604052508101906108e69190613017565b60ff166122a5565b905061093c7f0000000000000000000000000000000000000000000000000000000000000000337f0000000000000000000000000000000000000000000000000000000000000000846122d9565b60085461094883612373565b1115610a1c576109566123af565b604051625c253960e41b81526001600160a01b037f0000000000000000000000000000000000000000000000000000000000000000811660048301527f00000000000000000000000000000000000000000000000000000000000000008116602483015291909116906305c2539090604401602060405180830381600087803b1580156109e257600080fd5b505af11580156109f6573d6000803e3d6000fd5b505050506040513d601f19601f82011682018060405250810190610a1a9190613083565b505b60405163bdb4246160e01b81526001600160a01b037f0000000000000000000000000000000000000000000000000000000000000000169063bdb4246190610a749087908c908c908b9088908a90339060040161309c565b602060405180830381600087803b158015610a8e57600080fd5b505af1158015610aa2573d6000803e3d6000fd5b505050506040513d601f19601f82011682018060405250810190610ac69190613083565b6001805598975050505050505050565b600060026001541415610afb5760405162461bcd60e51b81526004016105cb90612f36565b600260015560005460ff1615610b235760405162461bcd60e51b81526004016105cb90612f0c565b6000610b2d6121cf565b60405163dac9675b60e01b81526001600160a01b03868116600483015291925060009183169063dac9675b9060240160c06040518083038186803b158015610b7457600080fd5b505afa158015610b88573d6000803e3d6000fd5b505050506040513d601f19601f82011682018060405250810190610bac9190612f6d565b80519091506001600160401b0316610bd757604051634f13847960e11b815260040160405180910390fd5b4281600001516001600160401b031611610c04576040516366bfac3d60e01b815260040160405180910390fd5b6000610c5082602001516001600160801b0316876001600160a01b031663313ce5676040518163ffffffff1660e01b815260040160206040518083038186803b15801561074a57600080fd5b90506000807f00000000000000000000000000000000000000000000000000000000000000006001600160a01b0316636cf791266040518060c0016040528087600001516001600160401b03168152602001866001600160801b0316815260200187604001511515815260200187606001516001600160a01b0316815260200187608001516001600160a01b031681526020017f00000000000000000000000000000000000000000000000000000000000000006001600160a01b03168152508960016040518463ffffffff1660e01b8152600401610d319392919061303a565b604080518083038186803b158015610d4857600080fd5b505afa158015610d5c573d6000803e3d6000fd5b505050506040513d601f19601f82011682018060405250810190610d80919061305f565b33600090815260076020526040902054919350915060ff16610e785760007f00000000000000000000000000000000000000000000000000000000000000006001600160a01b0316633b9d74546040518163ffffffff1660e01b815260040160206040518083038186803b158015610df757600080fd5b505afa158015610e0b573d6000803e3d6000fd5b505050506040513d601f19601f82011682018060405250810190610e2f9190613083565b90506000610e45610e408484613103565b612373565b90506000610e5283612373565b8212905080610e7457604051630da448ed60e21b815260040160405180910390fd5b5050505b6000610ed7837f00000000000000000000000000000000000000000000000000000000000000006001600160a01b031663313ce5676040518163ffffffff1660e01b815260040160206040518083038186803b1580156108ae57600080fd5b9050610f4189337f0000000000000000000000000000000000000000000000000000000000000000610f3c8c8e6001600160a01b031663313ce5676040518163ffffffff1660e01b815260040160206040518083038186803b1580156108ae57600080fd5b6122d9565b600854610f4d83612373565b111561102157610f5b6123af565b604051625c253960e41b81526001600160a01b037f0000000000000000000000000000000000000000000000000000000000000000811660048301527f00000000000000000000000000000000000000000000000000000000000000008116602483015291909116906305c2539090604401602060405180830381600087803b158015610fe757600080fd5b505af1158015610ffb573d6000803e3d6000fd5b505050506040513d601f19601f8201168201806040525081019061101f9190613083565b505b604051632b99d79560e11b81526001600160a01b037f00000000000000000000000000000000000000000000000000000000000000001690635733af2a906110799088908c908b908f9088908a903390600401613144565b602060405180830381600087803b15801561109357600080fd5b505af11580156110a7573d6000803e3d6000fd5b505050506040513d601f19601f820116820180604052508101906110cb9190613083565b600180559998505050505050505050565b6110e461240a565b6110ec61254b565b565b60006110f86125de565b846111155760405162bfc92160e01b815260040160405180910390fd5b61070884111561113857604051639f2ace9560e01b815260040160405180910390fd5b60006111426121cf565b905060007f00000000000000000000000000000000000000000000000000000000000000006001600160a01b03166370183e0a8a6040518263ffffffff1660e01b81526004016111929190613192565b602060405180830381600087803b1580156111ac57600080fd5b505af11580156111c0573d6000803e3d6000fd5b505050506040513d601f19601f820116820180604052508101906111e491906131a0565b905060006112327f00000000000000000000000000000000000000000000000000000000000000007f00000000000000000000000000000000000000000000000000000000000000006126ce565b6040805161012081019182905263dac9675b60e01b9091526001600160a01b038481166101248301529192506000918190861663dac9675b610144830160c06040518083038186803b15801561128757600080fd5b505afa15801561129b573d6000803e3d6000fd5b505050506040513d601f19601f820116820180604052508101906112bf9190612f6d565b81526020018b81526020018a815260200189426112dc91906131bd565b81526001600160a01b03898116602083015285166040820152875160609091019061130790856131d5565b6001600160801b03168152602001876001602002015161132790856131bd565b6001600160801b031681526020016000151581525090506000600254600161134f91906131bd565b60008181526003602081815260409283902086518051825482850151838801516001600160401b039093166001600160c01b031990921691909117600160401b6001600160801b03928316021760ff60c01b1916600160c01b921515929092029190911783556060808301516001850180546001600160a01b03199081166001600160a01b0393841617909155608080860151600288018054841691851691909117905560a09586015198870180548316998416999099179098558b87015160048701558b8901516005870155918b01516006860155958a0151600785018054831691881691909117905591890151600884018054909316951694909417905560c087015160e0880151908416600160801b9190941602929092176009830155610100860151600a909201805460ff19169215159290921790915590518281529192507f7e82078c35b6665b9d320ebeaa6c266960fad5b802c5558cf7df60c4769af95b910160405180910390a160028190559b9a5050505050505050505050565b6000805460ff16156114f55760405162461bcd60e51b81526004016105cb90612f0c565b600260015414156115185760405162461bcd60e51b81526004016105cb90612f36565b600260015560405163380c1f0560e11b81526001600160a01b037f000000000000000000000000000000000000000000000000000000000000000016906370183e0a90611569908590600401613192565b602060405180830381600087803b15801561158357600080fd5b505af1158015611597573d6000803e3d6000fd5b505050506040513d601f19601f820116820180604052508101906115bb91906131a0565b6001805592915050565b6115cd612118565b60008054610100600160a81b0319166101006001600160a01b038416908102919091179091556040519081527f2f658b440c35314f52658ea8a740e05b284cdc84dc9ae01e891f21b8933e7cad9060200160405180910390a150565b61163161240a565b6110ec6127eb565b6002600154141561165c5760405162461bcd60e51b81526004016105cb90612f36565b6002600181815560008381526003602081815260409283902083516101e08101855281546001600160401b03811661012083019081526001600160801b03600160401b8304811661014085015260ff600160c01b90930483161515610160850152978401546001600160a01b039081166101808501529884015489166101a08401529483015488166101c0830152938152600482015492810192909252600581015493820193909352600683015460608201526007830154851660808201819052600884015490951660a0820152600983015480851660c0830152600160801b900490931660e0840152600a90910154161515610100820152903314611775576040516358ef870360e11b815260040160405180910390fd5b806060015142111561179a576040516362b439dd60e11b815260040160405180910390fd5b60006117e67f00000000000000000000000000000000000000000000000000000000000000007f00000000000000000000000000000000000000000000000000000000000000006126ce565b9050808260c001516001600160801b0316118061180f5750808260e001516001600160801b0316105b1561182d57604051633a5eb29d60e21b815260040160405180910390fd5b6000807f00000000000000000000000000000000000000000000000000000000000000006001600160a01b0316636cf791266040518060c001604052808760000151600001516001600160401b031681526020016118d38860000151602001516001600160801b03168960a001516001600160a01b031663313ce5676040518163ffffffff1660e01b815260040160206040518083038186803b15801561074a57600080fd5b6001600160801b03168152602001876000015160400151151581526020018760000151606001516001600160a01b031681526020018760000151608001516001600160a01b03168152602001876000015160a001516001600160a01b0316815250866020015160006040518463ffffffff1660e01b81526004016119599392919061303a565b604080518083038186803b15801561197057600080fd5b505afa158015611984573d6000803e3d6000fd5b505050506040513d601f19601f820116820180604052508101906119a8919061305f565b915091506000670de0b6b3a7640000856040015186602001516119cb91906131ec565b6119d59190613221565b6006549091508190612710906119f19063ffffffff16866131ec565b6119fb9190613221565b611a0590856131d5565b1115611a245760405163f5f8aaf360e01b815260040160405180910390fd5b6000611a3d86602001518461284390919063ffffffff16565b86516040015190915015611a8c57600554600f0b811280611a695750600554600160801b9004600f0b81135b15611a8757604051631e2981a760e31b815260040160405180910390fd5b611ad4565b6004546001600160801b0316811080611ab65750600454600160801b90046001600160801b031681115b15611ad457604051631e2981a760e31b815260040160405180910390fd5b60007f000000000000000000000000000000000000000000000000000000000000000090506000611b3884836001600160a01b031663313ce5676040518163ffffffff1660e01b815260040160206040518083038186803b1580156108ae57600080fd5b9050611b6682337f0000000000000000000000000000000000000000000000000000000000000000846122d9565b7f00000000000000000000000000000000000000000000000000000000000000006001600160a01b031663bdb4246189600001518a60a001518b60200151611bac6121cf565b611be98c896001600160a01b031663313ce5676040518163ffffffff1660e01b815260040160206040518083038186803b1580156108ae57600080fd5b8b336040518863ffffffff1660e01b8152600401611c0d979695949392919061309c565b602060405180830381600087803b158015611c2757600080fd5b505af1158015611c3b573d6000803e3d6000fd5b505050506040513d601f19601f82011682018060405250810190611c5f9190613083565b506040518981527ff03ed60bf824bdd2c1387f3534cb0fd2ab10270e8ce0cb8b2daec90068eb943e9060200160405180910390a150505060009586525050600360208190526040852080546001600160c81b0319168155600180820180546001600160a01b031990811690915560028301805482169055928201805484169055600482018790556005820187905560068201879055600782018054841690556008820180549093169092556009810195909555600a909401805460ff191690555050508055565b600080611d3560005460ff1690565b15611d525760405162461bcd60e51b81526004016105cb90612f0c565b60026001541415611d755760405162461bcd60e51b81526004016105cb90612f36565b600260015560405163367bc89360e11b815260009081906001600160a01b037f00000000000000000000000000000000000000000000000000000000000000001690636cf7912690611dcf9089908990869060040161303a565b604080518083038186803b158015611de657600080fd5b505afa158015611dfa573d6000803e3d6000fd5b505050506040513d601f19601f82011682018060405250810190611e1e919061305f565b915091506000611e81837f00000000000000000000000000000000000000000000000000000000000000006001600160a01b031663313ce5676040518163ffffffff1660e01b815260040160206040518083038186803b1580156108ae57600080fd5b9050611ecf7f0000000000000000000000000000000000000000000000000000000000000000337f0000000000000000000000000000000000000000000000000000000000000000846122d9565b604051633ea3123960e11b81526001600160a01b037f00000000000000000000000000000000000000000000000000000000000000001690637d46247290611f23908a908a90869088903390600401613243565b6040805180830381600087803b158015611f3c57600080fd5b505af1158015611f50573d6000803e3d6000fd5b505050506040513d601f19601f82011682018060405250810190611f749190613280565b6008549196509450611f8583612373565b111561205957611f936123af565b604051625c253960e41b81526001600160a01b037f0000000000000000000000000000000000000000000000000000000000000000811660048301527f00000000000000000000000000000000000000000000000000000000000000008116602483015291909116906305c2539090604401602060405180830381600087803b15801561201f57600080fd5b505af1158015612033573d6000803e3d6000fd5b505050506040513d601f19601f820116820180604052508101906120579190613083565b505b5050600180555090939092509050565b61207282611639565b61207b81611639565b5050565b60008061208a6125de565b600061209a8d8c8b8a8a8a6110ee565b905060006120ac8d8c8b8b8b8a6110ee565b9e919d50909b505050505050505050505050565b6120c8612118565b600855565b6120d5612118565b6001600160801b03948516600160801b9486168502176004559184169316909102919091176005556006805463ffffffff191663ffffffff909216919091179055565b600060019054906101000a90046001600160a01b03166001600160a01b0316630c340a246040518163ffffffff1660e01b815260040160206040518083038186803b15801561216657600080fd5b505afa15801561217a573d6000803e3d6000fd5b505050506040513d601f19601f8201168201806040525081019061219e91906131a0565b6001600160a01b0316336001600160a01b0316146110ec5760405163075fd2b160e01b815260040160405180910390fd5b60007f00000000000000000000000000000000000000000000000000000000000000006001600160a01b0316633b4567b06040518163ffffffff1660e01b815260040160206040518083038186803b15801561222a57600080fd5b505afa15801561223e573d6000803e3d6000fd5b505050506040513d601f19601f8201168201806040525081019061226291906131a0565b905090565b6000601282111561227757600080fd5b60006122848360126131d5565b905061229181600a613389565b61229b90856131ec565b9150505b92915050565b600060128211156122b557600080fd5b60006122c28360126131d5565b90506122cf81600a613389565b61229b9085613221565b600084905060006040516323b872dd60e01b81526001600160a01b03861660048201526001600160a01b03851660248201528360448201526000806064836000875af191505061232881612915565b61236b5760405162461bcd60e51b81526020600482015260146024820152731514905394d1915497d19493d357d1905253115160621b60448201526064016105cb565b505050505050565b6000600160ff1b82141561239a57604051631d0742e360e21b815260040160405180910390fd5b600082126123a8578161229f565b5060000390565b60007f00000000000000000000000000000000000000000000000000000000000000006001600160a01b0316635fb480c96040518163ffffffff1660e01b815260040160206040518083038186803b15801561222a57600080fd5b60005460405163794f111b60e11b81523360048201526101009091046001600160a01b03169063f29e22369060240160206040518083038186803b15801561245157600080fd5b505afa158015612465573d6000803e3d6000fd5b505050506040513d601f19601f820116820180604052508101906124899190613395565b15801561252d5750600060019054906101000a90046001600160a01b03166001600160a01b0316630c340a246040518163ffffffff1660e01b815260040160206040518083038186803b1580156124df57600080fd5b505afa1580156124f3573d6000803e3d6000fd5b505050506040513d601f19601f8201168201806040525081019061251791906131a0565b6001600160a01b0316336001600160a01b031614155b156110ec5760405163075fd2b160e01b815260040160405180910390fd5b60005460ff166125945760405162461bcd60e51b815260206004820152601460248201527314185d5cd8589b194e881b9bdd081c185d5cd95960621b60448201526064016105cb565b6000805460ff191690557f5db9ee0a495bf2e6ff9c91a7834c1ba4fdd244a5e8aa4e537bd38aeae4b073aa335b6040516001600160a01b03909116815260200160405180910390a1565b600060019054906101000a90046001600160a01b03166001600160a01b031663481c6a756040518163ffffffff1660e01b815260040160206040518083038186803b15801561262c57600080fd5b505afa158015612640573d6000803e3d6000fd5b505050506040513d601f19601f8201168201806040525081019061266491906131a0565b6001600160a01b0316336001600160a01b03161415801561252d5750600060019054906101000a90046001600160a01b03166001600160a01b0316630c340a246040518163ffffffff1660e01b815260040160206040518083038186803b1580156124df57600080fd5b60007f00000000000000000000000000000000000000000000000000000000000000006001600160a01b031663741bef1a6040518163ffffffff1660e01b815260040160206040518083038186803b15801561272957600080fd5b505afa15801561273d573d6000803e3d6000fd5b505050506040513d601f19601f8201168201806040525081019061276191906131a0565b60405163051ce29b60e21b81526001600160a01b038581166004830152848116602483015291909116906314738a6c9060440160206040518083038186803b1580156127ac57600080fd5b505afa1580156127c0573d6000803e3d6000fd5b505050506040513d601f19601f820116820180604052508101906127e49190613083565b9392505050565b60005460ff161561280e5760405162461bcd60e51b81526004016105cb90612f0c565b6000805460ff191660011790557f62e78cea01bee320cd4e420270b5ea74000d11b0c9f74754ebdbfc544b05a2586125c13390565b6000600160ff1b83148061285a5750600160ff1b82145b156128785760405163b3c754a360e01b815260040160405180910390fd5b60008060008512612889578461288e565b846000035b91506000841261289e57836128a3565b836000035b905060006128ba83670de0b6b3a76400008461295c565b90506001600160ff1b038111156128e757604051637cb4bef560e01b8152600481018290526024016105cb565b6000198087139086138082186001146129005782612909565b612909836133b2565b98975050505050505050565b60003d8261292757806000803e806000fd5b806020811461293f5780156129505760009250612955565b816000803e60005115159250612955565b600192505b5050919050565b6000808060001985870985870292508281108382030391505080600014156129975783828161298d5761298d61320b565b04925050506127e4565b8381106129c157604051631dcf306360e21b815260048101829052602481018590526044016105cb565b600084868809600260036001881981018916988990049182028318808302840302808302840302808302840302808302840302808302840302918202909203026000889003889004909101858311909403939093029303949094049190911702949350505050565b6001600160a01b0381168114612a3e57600080fd5b50565b8015158114612a3e57600080fd5b60008060408385031215612a6257600080fd5b8235612a6d81612a29565b91506020830135612a7d81612a41565b809150509250929050565b60008060408385031215612a9b57600080fd5b8235612aa681612a29565b946020939093013593505050565b634e487b7160e01b600052604160045260246000fd5b6001600160401b0381168114612a3e57600080fd5b6001600160801b0381168114612a3e57600080fd5b600060c08284031215612b0657600080fd5b60405160c081018181106001600160401b0382111715612b2857612b28612ab4565b6040529050808235612b3981612aca565b81526020830135612b4981612adf565b60208201526040830135612b5c81612a41565b60408201526060830135612b6f81612a29565b60608201526080830135612b8281612a29565b608082015260a0830135612b9581612a29565b60a0919091015292915050565b600082601f830112612bb357600080fd5b604051604081018181106001600160401b0382111715612bd557612bd5612ab4565b8060405250806040840185811115612bec57600080fd5b845b81811015612c06578035835260209283019201612bee565b509195945050505050565b6000806000806000806101808789031215612c2b57600080fd5b612c358888612af4565b955060c0870135945060e087013593506101008701359250610120870135612c5c81612a29565b9150612c6c886101408901612ba2565b90509295509295509295565b600060c08284031215612c8a57600080fd5b6127e48383612af4565b600060208284031215612ca657600080fd5b5035919050565b80516001600160401b031682526020808201516001600160801b0316908301526040808201511515908301526060808201516001600160a01b039081169184019190915260808083015182169084015260a09182015116910152565b6101c08101612d18828c612cad565b60c082019990995260e08101979097526101008701959095526001600160a01b03938416610120870152919092166101408501526001600160801b039182166101608501521661018083015215156101a090910152919050565b600060208284031215612d8457600080fd5b81356127e481612a29565b60008060e08385031215612da257600080fd5b612dac8484612af4565b9460c0939093013593505050565b60008060408385031215612dcd57600080fd5b50508035926020909101359150565b6000806000806000806000806000806102c08b8d031215612dfc57600080fd5b612e068c8c612af4565b9950612e158c60c08d01612af4565b98506101808b013597506101a08b013596506101c08b013595506101e08b013594506102008b013593506102208b0135612e4e81612a29565b9250612e5e8c6102408d01612ba2565b9150612e6e8c6102808d01612ba2565b90509295989b9194979a5092959850565b8035600f81900b8114612e9157600080fd5b919050565b600080600080600060a08688031215612eae57600080fd5b8535612eb981612adf565b94506020860135612ec981612adf565b9350612ed760408701612e7f565b9250612ee560608701612e7f565b9150608086013563ffffffff81168114612efe57600080fd5b809150509295509295909350565b60208082526010908201526f14185d5cd8589b194e881c185d5cd95960821b604082015260600190565b6020808252601f908201527f5265656e7472616e637947756172643a207265656e7472616e742063616c6c00604082015260600190565b600060c08284031215612f7f57600080fd5b60405160c081018181106001600160401b0382111715612fa157612fa1612ab4565b6040528251612faf81612aca565b81526020830151612fbf81612adf565b60208201526040830151612fd281612a41565b60408201526060830151612fe581612a29565b60608201526080830151612ff881612a29565b608082015260a083015161300b81612a29565b60a08201529392505050565b60006020828403121561302957600080fd5b815160ff811681146127e457600080fd5b61010081016130498286612cad565b8360c083015282151560e0830152949350505050565b6000806040838503121561307257600080fd5b505080516020909101519092909150565b60006020828403121561309557600080fd5b5051919050565b61018081016130ab828a612cad565b6001600160a01b0397881660c083015260e082019690965293861661010085015261012084019290925261014083015290921661016090920191909152919050565b634e487b7160e01b600052601160045260246000fd5b600080821280156001600160ff1b0384900385131615613125576131256130ed565b600160ff1b839003841281161561313e5761313e6130ed565b50500190565b6101808101613153828a612cad565b60c08201979097526001600160a01b0395861660e082015293851661010085015261012084019290925261014083015290911661016090910152919050565b60c0810161229f8284612cad565b6000602082840312156131b257600080fd5b81516127e481612a29565b600082198211156131d0576131d06130ed565b500190565b6000828210156131e7576131e76130ed565b500390565b6000816000190483118215151615613206576132066130ed565b500290565b634e487b7160e01b600052601260045260246000fd5b60008261323e57634e487b7160e01b600052601260045260246000fd5b500490565b61014081016132528288612cad565b60c082019590955260e08101939093526101008301919091526001600160a01b031661012090910152919050565b6000806040838503121561329357600080fd5b825191506020830151612a7d81612a29565b600181815b808511156132e05781600019048211156132c6576132c66130ed565b808516156132d357918102915b93841c93908002906132aa565b509250929050565b6000826132f75750600161229f565b816133045750600061229f565b816001811461331a576002811461332457613340565b600191505061229f565b60ff841115613335576133356130ed565b50506001821b61229f565b5060208310610133831016604e8410600b8410161715613363575081810a61229f565b61336d83836132a5565b8060001904821115613381576133816130ed565b029392505050565b60006127e483836132e8565b6000602082840312156133a757600080fd5b81516127e481612a41565b6000600160ff1b8214156123a8576123a86130ed56fea26469706673582212206725b8f3d5dfe7a37530d4e4591992ccfea7fcd73c96093f58567ea52e60079564736f6c63430008090033",
  "linkReferences": {},
  "deployedLinkReferences": {}
}