{
  "_format": "hh-sol-artifact-1",
  "contractName": "OptionRegistry",
  "sourceName": "contracts/OptionRegistry.sol",
  "abi": [
    {
      "inputs": [
        {
          "internalType": "address",
          "name": "_collateralAsset",
          "type": "address"
        },
        {
          "internalType": "address",
          "name": "_oTokenFactory",
          "type": "address"
        },
        {
          "internalType": "address",
          "name": "_gammaController",
          "type": "address"
        },
        {
          "internalType": "address",
          "name": "_marginPool",
          "type": "address"
        },
        {
          "internalType": "address",
          "name": "_liquidityPool",
          "type": "address"
        },
        {
          "internalType": "address",
          "name": "_addressBook",
          "type": "address"
        },
        {
          "internalType": "address",
          "name": "_authority",
          "type": "address"
        }
      ],
      "stateMutability": "nonpayable",
      "type": "constructor"
    },
    {
      "inputs": [],
      "name": "AlreadyExpired",
      "type": "error"
    },
    {
      "inputs": [],
      "name": "HealthyVault",
      "type": "error"
    },
    {
      "inputs": [],
      "name": "InsufficientBalance",
      "type": "error"
    },
    {
      "inputs": [],
      "name": "InvalidCollateral",
      "type": "error"
    },
    {
      "inputs": [],
      "name": "InvalidDecimals",
      "type": "error"
    },
    {
      "inputs": [],
      "name": "NoVault",
      "type": "error"
    },
    {
      "inputs": [],
      "name": "NonExistentSeries",
      "type": "error"
    },
    {
      "inputs": [],
      "name": "NotExpired",
      "type": "error"
    },
    {
      "inputs": [],
      "name": "NotKeeper",
      "type": "error"
    },
    {
      "inputs": [],
      "name": "NotLiquidityPool",
      "type": "error"
    },
    {
      "inputs": [],
      "name": "UNAUTHORIZED",
      "type": "error"
    },
    {
      "inputs": [],
      "name": "VaultExpired",
      "type": "error"
    },
    {
      "inputs": [],
      "name": "VaultNotLiquidated",
      "type": "error"
    },
    {
      "inputs": [],
      "name": "WithdrawExceedsLiquidity",
      "type": "error"
    },
    {
      "anonymous": false,
      "inputs": [
        {
          "indexed": false,
          "internalType": "contract IAuthority",
          "name": "authority",
          "type": "address"
        }
      ],
      "name": "AuthorityUpdated",
      "type": "event"
    },
    {
      "anonymous": false,
      "inputs": [
        {
          "indexed": false,
          "internalType": "address",
          "name": "token",
          "type": "address"
        }
      ],
      "name": "OptionTokenCreated",
      "type": "event"
    },
    {
      "anonymous": false,
      "inputs": [
        {
          "indexed": true,
          "internalType": "address",
          "name": "series",
          "type": "address"
        },
        {
          "indexed": false,
          "internalType": "uint256",
          "name": "vaultId",
          "type": "uint256"
        },
        {
          "indexed": false,
          "internalType": "uint256",
          "name": "closedAmount",
          "type": "uint256"
        }
      ],
      "name": "OptionsContractClosed",
      "type": "event"
    },
    {
      "anonymous": false,
      "inputs": [
        {
          "indexed": true,
          "internalType": "address",
          "name": "series",
          "type": "address"
        },
        {
          "indexed": false,
          "internalType": "uint256",
          "name": "vaultId",
          "type": "uint256"
        },
        {
          "indexed": false,
          "internalType": "uint256",
          "name": "optionsAmount",
          "type": "uint256"
        }
      ],
      "name": "OptionsContractOpened",
      "type": "event"
    },
    {
      "anonymous": false,
      "inputs": [
        {
          "indexed": true,
          "internalType": "address",
          "name": "series",
          "type": "address"
        },
        {
          "indexed": false,
          "internalType": "uint256",
          "name": "collateralReturned",
          "type": "uint256"
        },
        {
          "indexed": false,
          "internalType": "uint256",
          "name": "collateralLost",
          "type": "uint256"
        },
        {
          "indexed": false,
          "internalType": "uint256",
          "name": "amountLost",
          "type": "uint256"
        }
      ],
      "name": "OptionsContractSettled",
      "type": "event"
    },
    {
      "anonymous": false,
      "inputs": [
        {
          "indexed": false,
          "internalType": "address",
          "name": "series",
          "type": "address"
        },
        {
          "indexed": false,
          "internalType": "uint256",
          "name": "underlyingAmount",
          "type": "uint256"
        },
        {
          "indexed": false,
          "internalType": "uint256",
          "name": "strikeAmount",
          "type": "uint256"
        }
      ],
      "name": "SeriesRedeemed",
      "type": "event"
    },
    {
      "anonymous": false,
      "inputs": [
        {
          "indexed": true,
          "internalType": "address",
          "name": "series",
          "type": "address"
        },
        {
          "indexed": false,
          "internalType": "uint256",
          "name": "vaultId",
          "type": "uint256"
        },
        {
          "indexed": false,
          "internalType": "uint256",
          "name": "amountLiquidated",
          "type": "uint256"
        },
        {
          "indexed": false,
          "internalType": "uint256",
          "name": "collateralLiquidated",
          "type": "uint256"
        }
      ],
      "name": "VaultLiquidationRegistered",
      "type": "event"
    },
    {
      "inputs": [],
      "name": "addressBook",
      "outputs": [
        {
          "internalType": "contract AddressBookInterface",
          "name": "",
          "type": "address"
        }
      ],
      "stateMutability": "view",
      "type": "function"
    },
    {
      "inputs": [
        {
          "internalType": "uint256",
          "name": "vaultId",
          "type": "uint256"
        }
      ],
      "name": "adjustCollateral",
      "outputs": [],
      "stateMutability": "nonpayable",
      "type": "function"
    },
    {
      "inputs": [
        {
          "internalType": "uint256",
          "name": "vaultId",
          "type": "uint256"
        }
      ],
      "name": "adjustCollateralCaller",
      "outputs": [],
      "stateMutability": "nonpayable",
      "type": "function"
    },
    {
      "inputs": [],
      "name": "authority",
      "outputs": [
        {
          "internalType": "contract IAuthority",
          "name": "",
          "type": "address"
        }
      ],
      "stateMutability": "view",
      "type": "function"
    },
    {
      "inputs": [],
      "name": "callLowerHealthFactor",
      "outputs": [
        {
          "internalType": "uint64",
          "name": "",
          "type": "uint64"
        }
      ],
      "stateMutability": "view",
      "type": "function"
    },
    {
      "inputs": [],
      "name": "callUpperHealthFactor",
      "outputs": [
        {
          "internalType": "uint64",
          "name": "",
          "type": "uint64"
        }
      ],
      "stateMutability": "view",
      "type": "function"
    },
    {
      "inputs": [
        {
          "internalType": "uint256",
          "name": "vaultId",
          "type": "uint256"
        }
      ],
      "name": "checkVaultHealth",
      "outputs": [
        {
          "internalType": "bool",
          "name": "isBelowMin",
          "type": "bool"
        },
        {
          "internalType": "bool",
          "name": "isAboveMax",
          "type": "bool"
        },
        {
          "internalType": "uint256",
          "name": "healthFactor",
          "type": "uint256"
        },
        {
          "internalType": "uint256",
          "name": "upperHealthFactor",
          "type": "uint256"
        },
        {
          "internalType": "uint256",
          "name": "collatRequired",
          "type": "uint256"
        },
        {
          "internalType": "address",
          "name": "collatAsset",
          "type": "address"
        }
      ],
      "stateMutability": "view",
      "type": "function"
    },
    {
      "inputs": [
        {
          "internalType": "address",
          "name": "_series",
          "type": "address"
        },
        {
          "internalType": "uint256",
          "name": "amount",
          "type": "uint256"
        }
      ],
      "name": "close",
      "outputs": [
        {
          "internalType": "bool",
          "name": "",
          "type": "bool"
        },
        {
          "internalType": "uint256",
          "name": "",
          "type": "uint256"
        }
      ],
      "stateMutability": "nonpayable",
      "type": "function"
    },
    {
      "inputs": [],
      "name": "collateralAsset",
      "outputs": [
        {
          "internalType": "address",
          "name": "",
          "type": "address"
        }
      ],
      "stateMutability": "view",
      "type": "function"
    },
    {
      "inputs": [
        {
          "internalType": "uint256",
          "name": "strikePrice",
          "type": "uint256"
        },
        {
          "internalType": "address",
          "name": "collateral",
          "type": "address"
        }
      ],
      "name": "formatStrikePrice",
      "outputs": [
        {
          "internalType": "uint256",
          "name": "",
          "type": "uint256"
        }
      ],
      "stateMutability": "view",
      "type": "function"
    },
    {
      "inputs": [],
      "name": "gammaController",
      "outputs": [
        {
          "internalType": "address",
          "name": "",
          "type": "address"
        }
      ],
      "stateMutability": "view",
      "type": "function"
    },
    {
      "inputs": [
        {
          "components": [
            {
              "internalType": "uint64",
              "name": "expiration",
              "type": "uint64"
            },
            {
              "internalType": "uint128",
              "name": "strike",
              "type": "uint128"
            },
            {
              "internalType": "bool",
              "name": "isPut",
              "type": "bool"
            },
            {
              "internalType": "address",
              "name": "underlying",
              "type": "address"
            },
            {
              "internalType": "address",
              "name": "strikeAsset",
              "type": "address"
            },
            {
              "internalType": "address",
              "name": "collateral",
              "type": "address"
            }
          ],
          "internalType": "struct Types.OptionSeries",
          "name": "series",
          "type": "tuple"
        },
        {
          "internalType": "uint256",
          "name": "amount",
          "type": "uint256"
        }
      ],
      "name": "getCollateral",
      "outputs": [
        {
          "internalType": "uint256",
          "name": "",
          "type": "uint256"
        }
      ],
      "stateMutability": "view",
      "type": "function"
    },
    {
      "inputs": [
        {
          "components": [
            {
              "internalType": "uint64",
              "name": "expiration",
              "type": "uint64"
            },
            {
              "internalType": "uint128",
              "name": "strike",
              "type": "uint128"
            },
            {
              "internalType": "bool",
              "name": "isPut",
              "type": "bool"
            },
            {
              "internalType": "address",
              "name": "underlying",
              "type": "address"
            },
            {
              "internalType": "address",
              "name": "strikeAsset",
              "type": "address"
            },
            {
              "internalType": "address",
              "name": "collateral",
              "type": "address"
            }
          ],
          "internalType": "struct Types.OptionSeries",
          "name": "_series",
          "type": "tuple"
        }
      ],
      "name": "getIssuanceHash",
      "outputs": [
        {
          "internalType": "bytes32",
          "name": "",
          "type": "bytes32"
        }
      ],
      "stateMutability": "pure",
      "type": "function"
    },
    {
      "inputs": [
        {
          "internalType": "address",
          "name": "underlying",
          "type": "address"
        },
        {
          "internalType": "address",
          "name": "strikeAsset",
          "type": "address"
        },
        {
          "internalType": "uint256",
          "name": "expiration",
          "type": "uint256"
        },
        {
          "internalType": "bool",
          "name": "isPut",
          "type": "bool"
        },
        {
          "internalType": "uint256",
          "name": "strike",
          "type": "uint256"
        },
        {
          "internalType": "address",
          "name": "collateral",
          "type": "address"
        }
      ],
      "name": "getOtoken",
      "outputs": [
        {
          "internalType": "address",
          "name": "",
          "type": "address"
        }
      ],
      "stateMutability": "view",
      "type": "function"
    },
    {
      "inputs": [
        {
          "components": [
            {
              "internalType": "uint64",
              "name": "expiration",
              "type": "uint64"
            },
            {
              "internalType": "uint128",
              "name": "strike",
              "type": "uint128"
            },
            {
              "internalType": "bool",
              "name": "isPut",
              "type": "bool"
            },
            {
              "internalType": "address",
              "name": "underlying",
              "type": "address"
            },
            {
              "internalType": "address",
              "name": "strikeAsset",
              "type": "address"
            },
            {
              "internalType": "address",
              "name": "collateral",
              "type": "address"
            }
          ],
          "internalType": "struct Types.OptionSeries",
          "name": "_series",
          "type": "tuple"
        }
      ],
      "name": "getSeries",
      "outputs": [
        {
          "internalType": "address",
          "name": "",
          "type": "address"
        }
      ],
      "stateMutability": "view",
      "type": "function"
    },
    {
      "inputs": [
        {
          "internalType": "bytes32",
          "name": "issuanceHash",
          "type": "bytes32"
        }
      ],
      "name": "getSeriesAddress",
      "outputs": [
        {
          "internalType": "address",
          "name": "",
          "type": "address"
        }
      ],
      "stateMutability": "view",
      "type": "function"
    },
    {
      "inputs": [
        {
          "internalType": "address",
          "name": "series",
          "type": "address"
        }
      ],
      "name": "getSeriesInfo",
      "outputs": [
        {
          "components": [
            {
              "internalType": "uint64",
              "name": "expiration",
              "type": "uint64"
            },
            {
              "internalType": "uint128",
              "name": "strike",
              "type": "uint128"
            },
            {
              "internalType": "bool",
              "name": "isPut",
              "type": "bool"
            },
            {
              "internalType": "address",
              "name": "underlying",
              "type": "address"
            },
            {
              "internalType": "address",
              "name": "strikeAsset",
              "type": "address"
            },
            {
              "internalType": "address",
              "name": "collateral",
              "type": "address"
            }
          ],
          "internalType": "struct Types.OptionSeries",
          "name": "",
          "type": "tuple"
        }
      ],
      "stateMutability": "view",
      "type": "function"
    },
    {
      "inputs": [
        {
          "components": [
            {
              "internalType": "uint64",
              "name": "expiration",
              "type": "uint64"
            },
            {
              "internalType": "uint128",
              "name": "strike",
              "type": "uint128"
            },
            {
              "internalType": "bool",
              "name": "isPut",
              "type": "bool"
            },
            {
              "internalType": "address",
              "name": "underlying",
              "type": "address"
            },
            {
              "internalType": "address",
              "name": "strikeAsset",
              "type": "address"
            },
            {
              "internalType": "address",
              "name": "collateral",
              "type": "address"
            }
          ],
          "internalType": "struct Types.OptionSeries",
          "name": "optionSeries",
          "type": "tuple"
        }
      ],
      "name": "issue",
      "outputs": [
        {
          "internalType": "address",
          "name": "",
          "type": "address"
        }
      ],
      "stateMutability": "nonpayable",
      "type": "function"
    },
    {
      "inputs": [
        {
          "internalType": "address",
          "name": "",
          "type": "address"
        }
      ],
      "name": "keeper",
      "outputs": [
        {
          "internalType": "bool",
          "name": "",
          "type": "bool"
        }
      ],
      "stateMutability": "view",
      "type": "function"
    },
    {
      "inputs": [],
      "name": "liquidityPool",
      "outputs": [
        {
          "internalType": "address",
          "name": "",
          "type": "address"
        }
      ],
      "stateMutability": "view",
      "type": "function"
    },
    {
      "inputs": [
        {
          "internalType": "address",
          "name": "_series",
          "type": "address"
        },
        {
          "internalType": "uint256",
          "name": "amount",
          "type": "uint256"
        },
        {
          "internalType": "uint256",
          "name": "collateralAmount",
          "type": "uint256"
        }
      ],
      "name": "open",
      "outputs": [
        {
          "internalType": "bool",
          "name": "",
          "type": "bool"
        },
        {
          "internalType": "uint256",
          "name": "",
          "type": "uint256"
        }
      ],
      "stateMutability": "nonpayable",
      "type": "function"
    },
    {
      "inputs": [],
      "name": "putLowerHealthFactor",
      "outputs": [
        {
          "internalType": "uint64",
          "name": "",
          "type": "uint64"
        }
      ],
      "stateMutability": "view",
      "type": "function"
    },
    {
      "inputs": [],
      "name": "putUpperHealthFactor",
      "outputs": [
        {
          "internalType": "uint64",
          "name": "",
          "type": "uint64"
        }
      ],
      "stateMutability": "view",
      "type": "function"
    },
    {
      "inputs": [
        {
          "internalType": "address",
          "name": "_series",
          "type": "address"
        }
      ],
      "name": "redeem",
      "outputs": [
        {
          "internalType": "uint256",
          "name": "",
          "type": "uint256"
        }
      ],
      "stateMutability": "nonpayable",
      "type": "function"
    },
    {
      "inputs": [
        {
          "internalType": "uint256",
          "name": "vaultId",
          "type": "uint256"
        }
      ],
      "name": "registerLiquidatedVault",
      "outputs": [],
      "stateMutability": "nonpayable",
      "type": "function"
    },
    {
      "inputs": [
        {
          "internalType": "address",
          "name": "",
          "type": "address"
        }
      ],
      "name": "seriesInfo",
      "outputs": [
        {
          "internalType": "uint64",
          "name": "expiration",
          "type": "uint64"
        },
        {
          "internalType": "uint128",
          "name": "strike",
          "type": "uint128"
        },
        {
          "internalType": "bool",
          "name": "isPut",
          "type": "bool"
        },
        {
          "internalType": "address",
          "name": "underlying",
          "type": "address"
        },
        {
          "internalType": "address",
          "name": "strikeAsset",
          "type": "address"
        },
        {
          "internalType": "address",
          "name": "collateral",
          "type": "address"
        }
      ],
      "stateMutability": "view",
      "type": "function"
    },
    {
      "inputs": [
        {
          "internalType": "contract IAuthority",
          "name": "_newAuthority",
          "type": "address"
        }
      ],
      "name": "setAuthority",
      "outputs": [],
      "stateMutability": "nonpayable",
      "type": "function"
    },
    {
      "inputs": [
        {
          "internalType": "uint64",
          "name": "_putLower",
          "type": "uint64"
        },
        {
          "internalType": "uint64",
          "name": "_putUpper",
          "type": "uint64"
        },
        {
          "internalType": "uint64",
          "name": "_callLower",
          "type": "uint64"
        },
        {
          "internalType": "uint64",
          "name": "_callUpper",
          "type": "uint64"
        }
      ],
      "name": "setHealthThresholds",
      "outputs": [],
      "stateMutability": "nonpayable",
      "type": "function"
    },
    {
      "inputs": [
        {
          "internalType": "address",
          "name": "_target",
          "type": "address"
        },
        {
          "internalType": "bool",
          "name": "_auth",
          "type": "bool"
        }
      ],
      "name": "setKeeper",
      "outputs": [],
      "stateMutability": "nonpayable",
      "type": "function"
    },
    {
      "inputs": [
        {
          "internalType": "address",
          "name": "_newLiquidityPool",
          "type": "address"
        }
      ],
      "name": "setLiquidityPool",
      "outputs": [],
      "stateMutability": "nonpayable",
      "type": "function"
    },
    {
      "inputs": [
        {
          "internalType": "address",
          "name": "_series",
          "type": "address"
        }
      ],
      "name": "settle",
      "outputs": [
        {
          "internalType": "bool",
          "name": "",
          "type": "bool"
        },
        {
          "internalType": "uint256",
          "name": "",
          "type": "uint256"
        },
        {
          "internalType": "uint256",
          "name": "",
          "type": "uint256"
        },
        {
          "internalType": "uint256",
          "name": "",
          "type": "uint256"
        }
      ],
      "stateMutability": "nonpayable",
      "type": "function"
    },
    {
      "inputs": [],
      "name": "vaultCount",
      "outputs": [
        {
          "internalType": "uint64",
          "name": "",
          "type": "uint64"
        }
      ],
      "stateMutability": "view",
      "type": "function"
    },
    {
      "inputs": [
        {
          "internalType": "address",
          "name": "",
          "type": "address"
        }
      ],
      "name": "vaultIds",
      "outputs": [
        {
          "internalType": "uint256",
          "name": "",
          "type": "uint256"
        }
      ],
      "stateMutability": "view",
      "type": "function"
    },
    {
      "inputs": [
        {
          "internalType": "uint256",
          "name": "vaultId",
          "type": "uint256"
        }
      ],
      "name": "wCollatLiquidatedVault",
      "outputs": [],
      "stateMutability": "nonpayable",
      "type": "function"
    }
  ],
  "bytecode": "0x610120604052792af80000000000002ee00000000000002af800000000000032c86005553480156200003057600080fd5b5060405162003f5138038062003f518339810160408190526200005391620001c6565b600080546001600160a01b0319166001600160a01b03831690811790915560405190815281907f2f658b440c35314f52658ea8a740e05b284cdc84dc9ae01e891f21b8933e7cad9060200160405180910390a150866001600160a01b031660c0816001600160a01b0316815250506012876001600160a01b031663313ce5676040518163ffffffff1660e01b815260040160206040518083038186803b158015620000fd57600080fd5b505afa15801562000112573d6000803e3d6000fd5b505050506040513d601f19601f820116820180604052508101906200013891906200025b565b60ff1611156200015b57604051630692acc560e51b815260040160405180910390fd5b506001600160a01b0394851660805292841660a05290831661010052600480549184166801000000000000000002600160401b600160e01b03199092169190911790551660e0525062000287565b80516001600160a01b0381168114620001c157600080fd5b919050565b600080600080600080600060e0888a031215620001e257600080fd5b620001ed88620001a9565b9650620001fd60208901620001a9565b95506200020d60408901620001a9565b94506200021d60608901620001a9565b93506200022d60808901620001a9565b92506200023d60a08901620001a9565b91506200024d60c08901620001a9565b905092959891949750929550565b6000602082840312156200026e57600080fd5b815160ff811681146200028057600080fd5b9392505050565b60805160a05160c05160e05161010051613bdd620003746000396000818161169401528181611cd40152818161201d0152612a4f01526000818161078a01528181610927015281816109f00152818161224f01526123260152600081816104840152818161148c0152818161158501526129a001526000818161036f01528181610cf201528181610f000152818161166c015281816117c20152818161194b01528181611baa01528181611cac01528181611ff5015281816120ff01528181612764015281816128d601528181612a270152612ca401526000818161084401526111650152613bdd6000f3fe608060405234801561001057600080fd5b50600436106102065760003560e01c806395a2251f1161011a578063c7bc163b116100ad578063dfeddb7e1161007c578063dfeddb7e14610703578063e341c12c1461072c578063e49280cb1461073f578063e8cf860814610752578063f5887cdd1461078557600080fd5b8063c7bc163b146104e6578063c84feaca146105a3578063d1b9e853146105bd578063dac9675b146105d057600080fd5b8063aabaecd6116100e9578063aabaecd61461047f578063b0b96a35146104a6578063b9402079146104c0578063bf7e214f146104d357600080fd5b806395a2251f146103fb5780639b8c8dc21461040e578063a3895ce614610459578063a7c6a1001461046c57600080fd5b80635fb708cf1161019d5780636abf4c5e1161016c5780636abf4c5e1461036a5780637a9e5e4b1461039157806389a86ad3146103a457806389f92871146103ce5780638cbb6511146103e857600080fd5b80635fb708cf146102f557806363009ac314610308578063665a11ca1461031b5780636a256b291461033557600080fd5b80632e79bf42116101d95780632e79bf421461029c57806332c926cb146102af57806341849afc146102c25780634c9a1c61146102e257600080fd5b8063018770201461020b578063164e6ea9146102205780631c19975914610250578063210fc56a14610271575b600080fd5b61021e610219366004613343565b6107ac565b005b600554610233906001600160401b031681565b6040516001600160401b0390911681526020015b60405180910390f35b61026361025e366004613497565b6107e5565b604051908152602001610247565b61028461027f3660046134b3565b610825565b6040516001600160a01b039091168152602001610247565b6102636102aa366004613523565b610922565b61021e6102bd36600461354e565b610c4e565b6102636102d0366004613343565b60026020526000908152604090205481565b61021e6102f03660046135a2565b610ccb565b610284610303366004613497565b6110ac565b61021e6103163660046135a2565b61145f565b60045461028490600160401b90046001600160a01b031681565b610348610343366004613343565b611846565b6040805194151585526020850193909352918301526060820152608001610247565b6102847f000000000000000000000000000000000000000000000000000000000000000081565b61021e61039f366004613343565b611a75565b6103b76103b23660046135bb565b611ad1565b604080519215158352602083019190915201610247565b60055461023390600160401b90046001600160401b031681565b6102846103f6366004613497565b611e0c565b610263610409366004613343565b611e6a565b61042161041c3660046135a2565b6120cc565b604080519615158752941515602087015293850192909252606084015260808301526001600160a01b031660a082015260c001610247565b6102636104673660046135f0565b61265c565b600454610233906001600160401b031681565b6102847f000000000000000000000000000000000000000000000000000000000000000081565b60055461023390600160c01b90046001600160401b031681565b61021e6104ce3660046135a2565b612731565b600054610284906001600160a01b031681565b6105526104f4366004613343565b600160208190526000918252604090912080549181015460028201546003909201546001600160401b03841693600160401b81046001600160801b031693600160c01b90910460ff16926001600160a01b0390811692918116911686565b604080516001600160401b0390971687526001600160801b039095166020870152921515938501939093526001600160a01b03908116606085015291821660808401521660a082015260c001610247565b60055461023390600160801b90046001600160401b031681565b61021e6105cb366004613620565b612942565b6106976105de366004613343565b6040805160c081018252600080825260208201819052918101829052606081018290526080810182905260a0810191909152506001600160a01b03908116600090815260016020818152604092839020835160c08101855281546001600160401b0381168252600160401b81046001600160801b031693820193909352600160c01b90920460ff16151593820193909352908201548316606082015260028201548316608082015260039091015490911660a082015290565b604051610247919081516001600160401b031681526020808301516001600160801b0316908201526040808301511515908201526060808301516001600160a01b039081169183019190915260808084015182169083015260a092830151169181019190915260c00190565b6102846107113660046135a2565b6000908152600360205260409020546001600160a01b031690565b61021e61073a3660046135a2565b612975565b6103b761074d36600461364e565b612ad5565b610775610760366004613343565b60066020526000908152604090205460ff1681565b6040519015158152602001610247565b6102847f000000000000000000000000000000000000000000000000000000000000000081565b6107b4612d86565b600480546001600160a01b03909216600160401b0268010000000000000000600160e01b0319909216919091179055565b600061081f826060015183608001518460a0015185600001516001600160401b0316866040015187602001516001600160801b0316612e3d565b92915050565b60008073__$a949af228b7bd2e36efc48dbaaf0130ade$__63f7b98e1b7f0000000000000000000000000000000000000000000000000000000000000000858b8b6108708a8a61265c565b60405160e087901b6001600160e01b03191681526001600160a01b039586166004820152938516602485015291841660448401529092166064820152608481019190915260a4810189905287151560c482015260e40160206040518083038186803b1580156108de57600080fd5b505af41580156108f2573d6000803e3d6000fd5b505050506040513d601f19601f82011682018060405250810190610916919061367a565b98975050505050505050565b6000807f00000000000000000000000000000000000000000000000000000000000000006001600160a01b031663cf28493f6040518163ffffffff1660e01b815260040160206040518083038186803b15801561097e57600080fd5b505afa158015610992573d6000803e3d6000fd5b505050506040513d601f19601f820116820180604052508101906109b6919061367a565b90506000816001600160a01b0316630b0509fb866060015187608001518860a001516402540be400896109e991906136ad565b8a602001517f00000000000000000000000000000000000000000000000000000000000000006001600160a01b031663833b1fce6040518163ffffffff1660e01b815260040160206040518083038186803b158015610a4757600080fd5b505afa158015610a5b573d6000803e3d6000fd5b505050506040513d601f19601f82011682018060405250810190610a7f919061367a565b60608d01516040516341976e0960e01b81526001600160a01b0391821660048201529116906341976e099060240160206040518083038186803b158015610ac557600080fd5b505afa158015610ad9573d6000803e3d6000fd5b505050506040513d601f19601f82011682018060405250810190610afd91906136cf565b8c600001518d60a001516001600160a01b031663313ce5676040518163ffffffff1660e01b815260040160206040518083038186803b158015610b3f57600080fd5b505afa158015610b53573d6000803e3d6000fd5b505050506040513d601f19601f82011682018060405250810190610b7791906136e8565b8e604001516040518a63ffffffff1660e01b8152600401610ba09998979695949392919061370b565b60206040518083038186803b158015610bb857600080fd5b505afa158015610bcc573d6000803e3d6000fd5b505050506040513d601f19601f82011682018060405250810190610bf091906136cf565b905060008560400151610c0e576005546001600160401b0316610c22565b600554600160801b90046001600160401b03165b6001600160401b03169050612710610c3a828461376f565b610c4491906136ad565b9695505050505050565b610c56612d86565b600580546001600160801b0316600160c01b6001600160401b039687160267ffffffffffffffff60801b191617600160801b94861694909402939093176fffffffffffffffffffffffffffffffff1916600160401b9285169290920267ffffffffffffffff1916919091179216919091179055565b610cd3612eae565b60405163d99d13f560e01b8152306004820152602481018290526000907f00000000000000000000000000000000000000000000000000000000000000006001600160a01b03169063d99d13f59060440160006040518083038186803b158015610d3c57600080fd5b505afa158015610d50573d6000803e3d6000fd5b505050506040513d6000823e601f3d908101601f19168201604052610d789190810190613880565b90508060600151600081518110610d9157610d916139a0565b6020026020010151600014610df85760405162461bcd60e51b815260206004820152602260248201527f5661756c74206861732073686f727420706f736974696f6e73205b616d6f756e604482015261745d60f01b60648201526084015b60405180910390fd5b80518051600091908290610e0e57610e0e6139a0565b60200260200101516001600160a01b031614610e765760405162461bcd60e51b815260206004820152602160248201527f5661756c74206861732073686f727420706f736974696f6e73205b746f6b656e6044820152605d60f81b6064820152608401610def565b60008160a00151600081518110610e8f57610e8f6139a0565b602002602001015111610ee45760405162461bcd60e51b815260206004820152601760248201527f5661756c7420686173206e6f20636f6c6c61746572616c0000000000000000006044820152606401610def565b73__$a949af228b7bd2e36efc48dbaaf0130ade$__63fd5b6dd57f00000000000000000000000000000000000000000000000000000000000000008360400151600081518110610f3657610f366139a0565b60200260200101518460a00151600081518110610f5557610f556139a0565b6020026020010151866040518563ffffffff1660e01b8152600401610f7d94939291906139b6565b60006040518083038186803b158015610f9557600080fd5b505af4158015610fa9573d6000803e3d6000fd5b50505050600460089054906101000a90046001600160a01b03166001600160a01b0316631e4bc5578260a00151600081518110610fe857610fe86139a0565b602002602001015160016040518363ffffffff1660e01b815260040161101a9291909182521515602082015260400190565b600060405180830381600087803b15801561103457600080fd5b505af1158015611048573d6000803e3d6000fd5b505050506110a88160400151600081518110611066576110666139a0565b6020026020010151600460089054906101000a90046001600160a01b03168360a0015160008151811061109b5761109b6139a0565b6020026020010151613022565b5050565b60006110b66130a1565b4282600001516001600160401b0316116110e35760405163506b27c560e11b815260040160405180910390fd5b600061110083602001516001600160801b03168460a0015161265c565b90506000611138846060015185608001518660a0015187600001516001600160401b03168860400151876001600160801b0316612e3d565b60a08501516060860151608087015187516040808a01519051630e4e99e360e01b81526001600160a01b037f000000000000000000000000000000000000000000000000000000000000000081166004830152958616602482015293851660448501529390911660648301526001600160801b03861660848301526001600160401b031660a482015290151560c482015290915060009073__$a949af228b7bd2e36efc48dbaaf0130ade$__90630e4e99e39060e40160206040518083038186803b15801561120657600080fd5b505af415801561121a573d6000803e3d6000fd5b505050506040513d601f19601f8201168201806040525081019061123e919061367a565b90506040518060c0016040528086600001516001600160401b03168152602001846001600160801b0316815260200186604001511515815260200186606001516001600160a01b0316815260200186608001516001600160a01b031681526020018660a001516001600160a01b031681525060016000836001600160a01b03166001600160a01b0316815260200190815260200160002060008201518160000160006101000a8154816001600160401b0302191690836001600160401b0316021790555060208201518160000160086101000a8154816001600160801b0302191690836001600160801b0316021790555060408201518160000160186101000a81548160ff02191690831515021790555060608201518160010160006101000a8154816001600160a01b0302191690836001600160a01b0316021790555060808201518160020160006101000a8154816001600160a01b0302191690836001600160a01b0316021790555060a08201518160030160006101000a8154816001600160a01b0302191690836001600160a01b03160217905550905050806003600084815260200190815260200160002060006101000a8154816001600160a01b0302191690836001600160a01b031602179055507ff434a81a703b3b06f1dd290881e157c47d663389196c88db9f57819ec6f6ae9f8160405161144f91906001600160a01b0391909116815260200190565b60405180910390a1949350505050565b611467612eae565b600080600080611476856120cc565b95509550505093509350806001600160a01b03167f00000000000000000000000000000000000000000000000000000000000000006001600160a01b0316146114d2576040516368f7a67560e11b815260040160405180910390fd5b831580156114de575082155b156114fc576040516315fe9b6160e21b815260040160405180910390fd5b83156117235760048054604051631e4bc55760e01b815291820184905260006024830152600160401b90046001600160a01b031690631e4bc55790604401600060405180830381600087803b15801561155457600080fd5b505af1158015611568573d6000803e3d6000fd5b50506004805460405163f8b2cb4f60e01b81526001600160a01b037f0000000000000000000000000000000000000000000000000000000000000000811693820193909352869450600160401b909104909116915063f8b2cb4f9060240160206040518083038186803b1580156115de57600080fd5b505afa1580156115f2573d6000803e3d6000fd5b505050506040513d601f19601f8201168201806040525081019061161691906136cf565b10156116355760405163b84beb5d60e01b815260040160405180910390fd5b600454611655908290600160401b90046001600160a01b031630856130d3565b6040516347e200ad60e11b81526001600160a01b037f0000000000000000000000000000000000000000000000000000000000000000811660048301527f00000000000000000000000000000000000000000000000000000000000000008116602483015282166044820152606481018390526084810186905273__$a949af228b7bd2e36efc48dbaaf0130ade$__90638fc4015a9060a40160006040518083038186803b15801561170657600080fd5b505af415801561171a573d6000803e3d6000fd5b5050505061183f565b821561183f5760048054604051631e4bc55760e01b815291820184905260016024830152600160401b90046001600160a01b031690631e4bc55790604401600060405180830381600087803b15801561177b57600080fd5b505af115801561178f573d6000803e3d6000fd5b505060405163fd5b6dd560e01b815273__$a949af228b7bd2e36efc48dbaaf0130ade$__925063fd5b6dd591506117f0907f000000000000000000000000000000000000000000000000000000000000000090859087908b906004016139b6565b60006040518083038186803b15801561180857600080fd5b505af415801561181c573d6000803e3d6000fd5b505060045461183f9250839150600160401b90046001600160a01b031684613022565b5050505050565b6000806000806118546130a1565b6001600160a01b03858116600090815260016020818152604092839020835160c08101855281546001600160401b038116808352600160401b82046001600160801b031694830194909452600160c01b900460ff16151594810194909452918201548416606084015260028201548416608084015260039091015490921660a0820152906118f55760405163117af06360e31b815260040160405180910390fd5b4281600001516001600160401b0316106119225760405163d0404f8560e01b815260040160405180910390fd5b6001600160a01b038681166000908152600260205260408082205490516315afd40960e01b81527f0000000000000000000000000000000000000000000000000000000000000000909316600484015260248301819052918190819073__$a949af228b7bd2e36efc48dbaaf0130ade$__906315afd4099060440160606040518083038186803b1580156119b557600080fd5b505af41580156119c9573d6000803e3d6000fd5b505050506040513d601f19601f820116820180604052508101906119ed91906139df565b925092509250611a178560a00151600460089054906101000a90046001600160a01b031685613022565b60408051848152602081018490529081018290526001600160a01b038b16907ffd7eb2273d5660864e5ad7b3a1afd8ff16166a5c5fb2fe03c29f9fdbdc8930d49060600160405180910390a260019a92995090975095509350505050565b611a7d612d86565b600080546001600160a01b0319166001600160a01b0383169081179091556040519081527f2f658b440c35314f52658ea8a740e05b284cdc84dc9ae01e891f21b8933e7cad9060200160405180910390a150565b600080611adc6130a1565b6001600160a01b03858116600090815260016020818152604092839020835160c08101855281546001600160401b038116808352600160401b82046001600160801b031694830194909452600160c01b900460ff16151594810194909452918201548416606084015260028201548416608084015260039091015490921660a0820152904210611b7f5760405163506b27c560e11b815260040160405180910390fd5b611b8f8160a001513330876130d3565b6001600160a01b0386166000908152600260205260409020547f00000000000000000000000000000000000000000000000000000000000000009080611c9557604051636553690d60e11b81523060048201526001600160a01b0383169063caa6d21a9060240160206040518083038186803b158015611c0e57600080fd5b505afa158015611c22573d6000803e3d6000fd5b505050506040513d601f19601f82011682018060405250810190611c4691906136cf565b611c51906001613a0d565b600480549192506001600160401b03909116906000611c6f83613a25565b91906101000a8154816001600160401b0302191690836001600160401b03160217905550505b604051633718f97560e01b81526001600160a01b037f0000000000000000000000000000000000000000000000000000000000000000811660048301527f00000000000000000000000000000000000000000000000000000000000000008116602483015289166044820152606481018790526084810182905260a48101889052600160c482015260009073__$a949af228b7bd2e36efc48dbaaf0130ade$__90633718f9759060e40160206040518083038186803b158015611d5757600080fd5b505af4158015611d6b573d6000803e3d6000fd5b505050506040513d601f19601f82011682018060405250810190611d8f91906136cf565b60408051848152602081018390529192506001600160a01b038b16917f242b1ddd06a984a28045d1a261fcddca274c5f29be7c894def55d7b938d4c7ce910160405180910390a2611de1893383613022565b506001600160a01b038816600090815260026020526040902055506001925083915050935093915050565b600060036000611e4a846060015185608001518660a0015187600001516001600160401b0316886040015189602001516001600160801b0316612e3d565b81526020810191909152604001600020546001600160a01b031692915050565b6001600160a01b038181166000908152600160208181526040808420815160c08101835281546001600160401b038116808352600160401b82046001600160801b031695830195909552600160c01b900460ff16151592810192909252928301548516606082015260028301548516608082015260039092015490931660a08201529091611f0b5760405163117af06360e31b815260040160405180910390fd5b4281600001516001600160401b031610611f385760405163d0404f8560e01b815260040160405180910390fd5b6040516370a0823160e01b81523360048201526000906001600160a01b038516906370a082319060240160206040518083038186803b158015611f7a57600080fd5b505afa158015611f8e573d6000803e3d6000fd5b505050506040513d601f19601f82011682018060405250810190611fb291906136cf565b905080611fd257604051631e9acf1760e31b815260040160405180910390fd5b611fde843330846130d3565b6040516302e80dad60e61b81526001600160a01b037f0000000000000000000000000000000000000000000000000000000000000000811660048301527f000000000000000000000000000000000000000000000000000000000000000081166024830152851660448201526064810182905260009073__$a949af228b7bd2e36efc48dbaaf0130ade$__9063ba036b409060840160206040518083038186803b15801561208b57600080fd5b505af415801561209f573d6000803e3d6000fd5b505050506040513d601f19601f820116820180604052508101906120c391906136cf565b95945050505050565b60405163d99d13f560e01b8152306004820152602481018290526000908190819081908190819081906001600160a01b037f0000000000000000000000000000000000000000000000000000000000000000169063d99d13f59060440160006040518083038186803b15801561214157600080fd5b505afa158015612155573d6000803e3d6000fd5b505050506040513d6000823e601f3d908101601f1916820160405261217d9190810190613880565b9050600060016000836000015160008151811061219c5761219c6139a0565b6020908102919091018101516001600160a01b039081168352828201939093526040918201600020825160c08101845281546001600160401b038116808352600160401b82046001600160801b031694830194909452600160c01b900460ff161515938101939093526001810154841660608401526002810154841660808401526003015490921660a0820152915042111561224b57604051631267999960e31b815260040160405180910390fd5b60007f00000000000000000000000000000000000000000000000000000000000000006001600160a01b031663cf28493f6040518163ffffffff1660e01b815260040160206040518083038186803b1580156122a657600080fd5b505afa1580156122ba573d6000803e3d6000fd5b505050506040513d601f19601f820116820180604052508101906122de919061367a565b90506000816001600160a01b0316630b0509fb846060015185608001518660a001518860600151600081518110612317576123176139a0565b602002602001015188602001517f00000000000000000000000000000000000000000000000000000000000000006001600160a01b031663833b1fce6040518163ffffffff1660e01b815260040160206040518083038186803b15801561237d57600080fd5b505afa158015612391573d6000803e3d6000fd5b505050506040513d601f19601f820116820180604052508101906123b5919061367a565b60608b01516040516341976e0960e01b81526001600160a01b0391821660048201529116906341976e099060240160206040518083038186803b1580156123fb57600080fd5b505afa15801561240f573d6000803e3d6000fd5b505050506040513d601f19601f8201168201806040525081019061243391906136cf565b8a600001518b60a001516001600160a01b031663313ce5676040518163ffffffff1660e01b815260040160206040518083038186803b15801561247557600080fd5b505afa158015612489573d6000803e3d6000fd5b505050506040513d601f19601f820116820180604052508101906124ad91906136e8565b8c604001516040518a63ffffffff1660e01b81526004016124d69998979695949392919061370b565b60206040518083038186803b1580156124ee57600080fd5b505afa158015612502573d6000803e3d6000fd5b505050506040513d601f19601f8201168201806040525081019061252691906136cf565b905060008460a00151600081518110612541576125416139a0565b60200260200101519050816127108261255a919061376f565b61256491906136ad565b98508360400151612580576005546001600160401b0316612594565b600554600160801b90046001600160401b03165b6001600160401b03169750600084604001516125c257600554600160401b90046001600160401b03166125d6565b600554600160c01b90046001600160401b03165b6001600160401b03169050888a11156126155760019a506127106125fa8a8561376f565b61260491906136ad565b61260e9083613a4c565b9750612646565b808a10156126465760019b508161271061262f8b8661376f565b61263991906136ad565b6126439190613a4c565b97505b8460a00151965050505050505091939550919395565b60008061266e6402540be400856136ad565b90506000836001600160a01b031663313ce5676040518163ffffffff1660e01b815260040160206040518083038186803b1580156126ab57600080fd5b505afa1580156126bf573d6000803e3d6000fd5b505050506040513d601f19601f820116820180604052508101906126e391906136e8565b60ff169050600881106126f85750905061081f565b6000612705826008613a4c565b905061271281600a613b47565b61271d82600a613b47565b61272790856136ad565b610c44919061376f565b612739612eae565b60405163f62fc0b360e01b815230600482015260248101829052600090819081906001600160a01b037f0000000000000000000000000000000000000000000000000000000000000000169063f62fc0b39060440160606040518083038186803b1580156127a657600080fd5b505afa1580156127ba573d6000803e3d6000fd5b505050506040513d601f19601f820116820180604052508101906127de9190613b53565b919450925090506001600160a01b03831661280c5760405163df66968160e01b815260040160405180910390fd5b60408051858152602081018490529081018290526001600160a01b038416907f47aa675faf14c5e3b5da8d235f13812988463fbe9e8d3da67741f8c068e8132d9060600160405180910390a260048054604051631e4bc55760e01b815291820183905260016024830152600160401b90046001600160a01b031690631e4bc55790604401600060405180830381600087803b1580156128aa57600080fd5b505af11580156128be573d6000803e3d6000fd5b5050604051630fb0af3f60e31b8152600481018790527f00000000000000000000000000000000000000000000000000000000000000006001600160a01b03169250637d8579f89150602401600060405180830381600087803b15801561292457600080fd5b505af1158015612938573d6000803e3d6000fd5b5050505050505050565b61294a612d86565b6001600160a01b03919091166000908152600660205260409020805460ff1916911515919091179055565b61297d61316d565b600080600061298b846120cc565b955095505050509250806001600160a01b03167f00000000000000000000000000000000000000000000000000000000000000006001600160a01b0316146129e6576040516368f7a67560e11b815260040160405180910390fd5b82612a04576040516315fe9b6160e21b815260040160405180910390fd5b612a10813330856130d3565b6040516347e200ad60e11b81526001600160a01b037f0000000000000000000000000000000000000000000000000000000000000000811660048301527f00000000000000000000000000000000000000000000000000000000000000008116602483015282166044820152606481018390526084810185905273__$a949af228b7bd2e36efc48dbaaf0130ade$__90638fc4015a9060a40160006040518083038186803b158015612ac157600080fd5b505af4158015612938573d6000803e3d6000fd5b600080612ae06130a1565b6001600160a01b03848116600090815260016020818152604092839020835160c08101855281546001600160401b038116808352600160401b82046001600160801b031694830194909452600160c01b900460ff16151594810194909452918201548416606084015260028201548416608084015260039091015490921660a082015290612b815760405163117af06360e31b815260040160405180910390fd5b4281600001516001600160401b031611612bae5760405163506b27c560e11b815260040160405180910390fd5b6001600160a01b03851660009081526002602052604090205480612be55760405163a1b86ccf60e01b815260040160405180910390fd5b6000612c6486886001600160a01b031663313ce5676040518163ffffffff1660e01b815260040160206040518083038186803b158015612c2457600080fd5b505afa158015612c38573d6000803e3d6000fd5b505050506040513d601f19601f82011682018060405250810190612c5c91906136e8565b60ff166132a8565b9050612c72873330846130d3565b604051633f83640160e21b815260009073__$a949af228b7bd2e36efc48dbaaf0130ade$__9063fe0d900490612cd2907f0000000000000000000000000000000000000000000000000000000000000000908c90879089906004016139b6565b60206040518083038186803b158015612cea57600080fd5b505af4158015612cfe573d6000803e3d6000fd5b505050506040513d601f19601f82011682018060405250810190612d2291906136cf565b9050612d338460a001513383613022565b60408051848152602081018490526001600160a01b038a16917f8b307ec2cdec0ea71518d1d82e315a365c5789f3e02e4466b9d886b3474b1793910160405180910390a260019890975095505050505050565b60008054906101000a90046001600160a01b03166001600160a01b0316630c340a246040518163ffffffff1660e01b815260040160206040518083038186803b158015612dd257600080fd5b505afa158015612de6573d6000803e3d6000fd5b505050506040513d601f19601f82011682018060405250810190612e0a919061367a565b6001600160a01b0316336001600160a01b031614612e3b5760405163075fd2b160e01b815260040160405180910390fd5b565b6040516bffffffffffffffffffffffff19606088811b8216602084015287811b8216603484015286901b166048820152605c810184905282151560f81b607c820152607d8101829052600090609d016040516020818303038152906040528051906020012090509695505050505050565b3360009081526006602052604090205460ff16158015612f63575060008054906101000a90046001600160a01b03166001600160a01b0316630c340a246040518163ffffffff1660e01b815260040160206040518083038186803b158015612f1557600080fd5b505afa158015612f29573d6000803e3d6000fd5b505050506040513d601f19601f82011682018060405250810190612f4d919061367a565b6001600160a01b0316336001600160a01b031614155b8015613004575060008054906101000a90046001600160a01b03166001600160a01b031663481c6a756040518163ffffffff1660e01b815260040160206040518083038186803b158015612fb657600080fd5b505afa158015612fca573d6000803e3d6000fd5b505050506040513d601f19601f82011682018060405250810190612fee919061367a565b6001600160a01b0316336001600160a01b031614155b15612e3b57604051631ea2564f60e31b815260040160405180910390fd5b600060405163a9059cbb60e01b81526001600160a01b03841660048201528260248201526000806044836000895af191505061305d816132e4565b61309b5760405162461bcd60e51b815260206004820152600f60248201526e1514905394d1915497d19052531151608a1b6044820152606401610def565b50505050565b600454600160401b90046001600160a01b03163314612e3b5760405163f539349760e01b815260040160405180910390fd5b600084905060006040516323b872dd60e01b81526001600160a01b03861660048201526001600160a01b03851660248201528360448201526000806064836000875af1915050613122816132e4565b6131655760405162461bcd60e51b81526020600482015260146024820152731514905394d1915497d19493d357d1905253115160621b6044820152606401610def565b505050505050565b60005460405163794f111b60e11b81523360048201526001600160a01b039091169063f29e22369060240160206040518083038186803b1580156131b057600080fd5b505afa1580156131c4573d6000803e3d6000fd5b505050506040513d601f19601f820116820180604052508101906131e89190613b8a565b15801561328a575060008054906101000a90046001600160a01b03166001600160a01b0316630c340a246040518163ffffffff1660e01b815260040160206040518083038186803b15801561323c57600080fd5b505afa158015613250573d6000803e3d6000fd5b505050506040513d601f19601f82011682018060405250810190613274919061367a565b6001600160a01b0316336001600160a01b031614155b15612e3b5760405163075fd2b160e01b815260040160405180910390fd5b600060128211156132b857600080fd5b60006132c5836012613a4c565b90506132d281600a613b47565b6132dc90856136ad565b949350505050565b60003d826132f657806000803e806000fd5b806020811461330e57801561331f5760009250613324565b816000803e60005115159250613324565b600192505b5050919050565b6001600160a01b038116811461334057600080fd5b50565b60006020828403121561335557600080fd5b81356133608161332b565b9392505050565b634e487b7160e01b600052604160045260246000fd5b60405160c081016001600160401b038111828210171561339f5761339f613367565b60405290565b604051601f8201601f191681016001600160401b03811182821017156133cd576133cd613367565b604052919050565b80356001600160401b03811681146133ec57600080fd5b919050565b801515811461334057600080fd5b600060c0828403121561341157600080fd5b61341961337d565b9050613424826133d5565b815260208201356001600160801b038116811461344057600080fd5b60208201526040820135613453816133f1565b604082015260608201356134668161332b565b606082015260808201356134798161332b565b608082015260a082013561348c8161332b565b60a082015292915050565b600060c082840312156134a957600080fd5b61336083836133ff565b60008060008060008060c087890312156134cc57600080fd5b86356134d78161332b565b955060208701356134e78161332b565b94506040870135935060608701356134fe816133f1565b92506080870135915060a08701356135158161332b565b809150509295509295509295565b60008060e0838503121561353657600080fd5b61354084846133ff565b9460c0939093013593505050565b6000806000806080858703121561356457600080fd5b61356d856133d5565b935061357b602086016133d5565b9250613589604086016133d5565b9150613597606086016133d5565b905092959194509250565b6000602082840312156135b457600080fd5b5035919050565b6000806000606084860312156135d057600080fd5b83356135db8161332b565b95602085013595506040909401359392505050565b6000806040838503121561360357600080fd5b8235915060208301356136158161332b565b809150509250929050565b6000806040838503121561363357600080fd5b823561363e8161332b565b91506020830135613615816133f1565b6000806040838503121561366157600080fd5b823561366c8161332b565b946020939093013593505050565b60006020828403121561368c57600080fd5b81516133608161332b565b634e487b7160e01b600052601160045260246000fd5b6000826136ca57634e487b7160e01b600052601260045260246000fd5b500490565b6000602082840312156136e157600080fd5b5051919050565b6000602082840312156136fa57600080fd5b815160ff8116811461336057600080fd5b6001600160a01b03998a168152978916602089015295909716604087015260608601939093526001600160801b0391909116608085015260a08401526001600160401b031660c083015260ff90921660e08201529015156101008201526101200190565b600081600019048311821515161561378957613789613697565b500290565b60006001600160401b038211156137a7576137a7613367565b5060051b60200190565b600082601f8301126137c257600080fd5b815160206137d76137d28361378e565b6133a5565b82815260059290921b840181019181810190868411156137f657600080fd5b8286015b8481101561381a57805161380d8161332b565b83529183019183016137fa565b509695505050505050565b600082601f83011261383657600080fd5b815160206138466137d28361378e565b82815260059290921b8401810191818101908684111561386557600080fd5b8286015b8481101561381a5780518352918301918301613869565b60006020828403121561389257600080fd5b81516001600160401b03808211156138a957600080fd5b9083019060c082860312156138bd57600080fd5b6138c561337d565b8251828111156138d457600080fd5b6138e0878286016137b1565b8252506020830151828111156138f557600080fd5b613901878286016137b1565b60208301525060408301518281111561391957600080fd5b613925878286016137b1565b60408301525060608301518281111561393d57600080fd5b61394987828601613825565b60608301525060808301518281111561396157600080fd5b61396d87828601613825565b60808301525060a08301518281111561398557600080fd5b61399187828601613825565b60a08301525095945050505050565b634e487b7160e01b600052603260045260246000fd5b6001600160a01b0394851681529290931660208301526040820152606081019190915260800190565b6000806000606084860312156139f457600080fd5b8351925060208401519150604084015190509250925092565b60008219821115613a2057613a20613697565b500190565b60006001600160401b0380831681811415613a4257613a42613697565b6001019392505050565b600082821015613a5e57613a5e613697565b500390565b600181815b80851115613a9e578160001904821115613a8457613a84613697565b80851615613a9157918102915b93841c9390800290613a68565b509250929050565b600082613ab55750600161081f565b81613ac25750600061081f565b8160018114613ad85760028114613ae257613afe565b600191505061081f565b60ff841115613af357613af3613697565b50506001821b61081f565b5060208310610133831016604e8410600b8410161715613b21575081810a61081f565b613b2b8383613a63565b8060001904821115613b3f57613b3f613697565b029392505050565b60006133608383613aa6565b600080600060608486031215613b6857600080fd5b8351613b738161332b565b602085015160409095015190969495509392505050565b600060208284031215613b9c57600080fd5b8151613360816133f156fea26469706673582212208c3b4d13fe30bcb6545c678b155993a48df810d9f44d3fd981b67fb3c522560464736f6c63430008090033",
  "linkReferences": {
    "contracts/libraries/OpynInteractions.sol": {
      "OpynInteractions": [
        {
          "length": 20,
          "start": 2974
        },
        {
          "length": 20,
          "start": 4698
        },
        {
          "length": 20,
          "start": 5445
        },
        {
          "length": 20,
          "start": 6725
        },
        {
          "length": 20,
          "start": 6932
        },
        {
          "length": 20,
          "start": 7412
        },
        {
          "length": 20,
          "start": 8342
        },
        {
          "length": 20,
          "start": 9162
        },
        {
          "length": 20,
          "start": 11776
        },
        {
          "length": 20,
          "start": 12280
        }
      ]
    }
  },
  "deployedLinkReferences": {
    "contracts/libraries/OpynInteractions.sol": {
      "OpynInteractions": [
        {
          "length": 20,
          "start": 2090
        },
        {
          "length": 20,
          "start": 3814
        },
        {
          "length": 20,
          "start": 4561
        },
        {
          "length": 20,
          "start": 5841
        },
        {
          "length": 20,
          "start": 6048
        },
        {
          "length": 20,
          "start": 6528
        },
        {
          "length": 20,
          "start": 7458
        },
        {
          "length": 20,
          "start": 8278
        },
        {
          "length": 20,
          "start": 10892
        },
        {
          "length": 20,
          "start": 11396
        }
      ]
    }
  }
}