{
  "_format": "hh-sol-artifact-1",
  "contractName": "OptionRegistry",
  "sourceName": "contracts/OptionRegistry.sol",
  "abi": [
    {
      "inputs": [
        {
          "internalType": "address",
          "name": "_collateralAsset",
          "type": "address"
        },
        {
          "internalType": "address",
          "name": "_oTokenFactory",
          "type": "address"
        },
        {
          "internalType": "address",
          "name": "_gammaController",
          "type": "address"
        },
        {
          "internalType": "address",
          "name": "_marginPool",
          "type": "address"
        },
        {
          "internalType": "address",
          "name": "_liquidityPool",
          "type": "address"
        },
        {
          "internalType": "address",
          "name": "_addressBook",
          "type": "address"
        },
        {
          "internalType": "address",
          "name": "_authority",
          "type": "address"
        }
      ],
      "stateMutability": "nonpayable",
      "type": "constructor"
    },
    {
      "inputs": [],
      "name": "AlreadyExpired",
      "type": "error"
    },
    {
      "inputs": [],
      "name": "HealthyVault",
      "type": "error"
    },
    {
      "inputs": [],
      "name": "InsufficientBalance",
      "type": "error"
    },
    {
      "inputs": [],
      "name": "InvalidCollateral",
      "type": "error"
    },
    {
      "inputs": [],
      "name": "NoVault",
      "type": "error"
    },
    {
      "inputs": [],
      "name": "NonExistentSeries",
      "type": "error"
    },
    {
      "inputs": [],
      "name": "NotExpired",
      "type": "error"
    },
    {
      "inputs": [],
      "name": "NotKeeper",
      "type": "error"
    },
    {
      "inputs": [],
      "name": "NotLiquidityPool",
      "type": "error"
    },
    {
      "inputs": [],
      "name": "UNAUTHORIZED",
      "type": "error"
    },
    {
      "inputs": [],
      "name": "VaultNotLiquidated",
      "type": "error"
    },
    {
      "inputs": [],
      "name": "WithdrawExceedsLiquidity",
      "type": "error"
    },
    {
      "anonymous": false,
      "inputs": [
        {
          "indexed": false,
          "internalType": "contract IAuthority",
          "name": "authority",
          "type": "address"
        }
      ],
      "name": "AuthorityUpdated",
      "type": "event"
    },
    {
      "anonymous": false,
      "inputs": [
        {
          "indexed": false,
          "internalType": "address",
          "name": "token",
          "type": "address"
        }
      ],
      "name": "OptionTokenCreated",
      "type": "event"
    },
    {
      "anonymous": false,
      "inputs": [
        {
          "indexed": true,
          "internalType": "address",
          "name": "series",
          "type": "address"
        },
        {
          "indexed": false,
          "internalType": "uint256",
          "name": "vaultId",
          "type": "uint256"
        },
        {
          "indexed": false,
          "internalType": "uint256",
          "name": "closedAmount",
          "type": "uint256"
        }
      ],
      "name": "OptionsContractClosed",
      "type": "event"
    },
    {
      "anonymous": false,
      "inputs": [
        {
          "indexed": true,
          "internalType": "address",
          "name": "series",
          "type": "address"
        },
        {
          "indexed": false,
          "internalType": "uint256",
          "name": "vaultId",
          "type": "uint256"
        },
        {
          "indexed": false,
          "internalType": "uint256",
          "name": "optionsAmount",
          "type": "uint256"
        }
      ],
      "name": "OptionsContractOpened",
      "type": "event"
    },
    {
      "anonymous": false,
      "inputs": [
        {
          "indexed": true,
          "internalType": "address",
          "name": "series",
          "type": "address"
        },
        {
          "indexed": false,
          "internalType": "uint256",
          "name": "collateralReturned",
          "type": "uint256"
        },
        {
          "indexed": false,
          "internalType": "uint256",
          "name": "collateralLost",
          "type": "uint256"
        },
        {
          "indexed": false,
          "internalType": "uint256",
          "name": "amountLost",
          "type": "uint256"
        }
      ],
      "name": "OptionsContractSettled",
      "type": "event"
    },
    {
      "anonymous": false,
      "inputs": [
        {
          "indexed": false,
          "internalType": "address",
          "name": "series",
          "type": "address"
        },
        {
          "indexed": false,
          "internalType": "uint256",
          "name": "underlyingAmount",
          "type": "uint256"
        },
        {
          "indexed": false,
          "internalType": "uint256",
          "name": "strikeAmount",
          "type": "uint256"
        }
      ],
      "name": "SeriesRedeemed",
      "type": "event"
    },
    {
      "anonymous": false,
      "inputs": [
        {
          "indexed": true,
          "internalType": "address",
          "name": "series",
          "type": "address"
        },
        {
          "indexed": false,
          "internalType": "uint256",
          "name": "vaultId",
          "type": "uint256"
        },
        {
          "indexed": false,
          "internalType": "uint256",
          "name": "amountLiquidated",
          "type": "uint256"
        },
        {
          "indexed": false,
          "internalType": "uint256",
          "name": "collateralLiquidated",
          "type": "uint256"
        }
      ],
      "name": "VaultLiquidationRegistered",
      "type": "event"
    },
    {
      "inputs": [],
      "name": "addressBook",
      "outputs": [
        {
          "internalType": "contract AddressBookInterface",
          "name": "",
          "type": "address"
        }
      ],
      "stateMutability": "view",
      "type": "function"
    },
    {
      "inputs": [
        {
          "internalType": "uint256",
          "name": "vaultId",
          "type": "uint256"
        }
      ],
      "name": "adjustCollateral",
      "outputs": [],
      "stateMutability": "nonpayable",
      "type": "function"
    },
    {
      "inputs": [
        {
          "internalType": "uint256",
          "name": "vaultId",
          "type": "uint256"
        }
      ],
      "name": "adjustCollateralCaller",
      "outputs": [],
      "stateMutability": "nonpayable",
      "type": "function"
    },
    {
      "inputs": [],
      "name": "authority",
      "outputs": [
        {
          "internalType": "contract IAuthority",
          "name": "",
          "type": "address"
        }
      ],
      "stateMutability": "view",
      "type": "function"
    },
    {
      "inputs": [],
      "name": "callLowerHealthFactor",
      "outputs": [
        {
          "internalType": "uint64",
          "name": "",
          "type": "uint64"
        }
      ],
      "stateMutability": "view",
      "type": "function"
    },
    {
      "inputs": [],
      "name": "callUpperHealthFactor",
      "outputs": [
        {
          "internalType": "uint64",
          "name": "",
          "type": "uint64"
        }
      ],
      "stateMutability": "view",
      "type": "function"
    },
    {
      "inputs": [
        {
          "internalType": "uint256",
          "name": "vaultId",
          "type": "uint256"
        }
      ],
      "name": "checkVaultHealth",
      "outputs": [
        {
          "internalType": "bool",
          "name": "isBelowMin",
          "type": "bool"
        },
        {
          "internalType": "bool",
          "name": "isAboveMax",
          "type": "bool"
        },
        {
          "internalType": "uint256",
          "name": "healthFactor",
          "type": "uint256"
        },
        {
          "internalType": "uint256",
          "name": "upperHealthFactor",
          "type": "uint256"
        },
        {
          "internalType": "uint256",
          "name": "collatRequired",
          "type": "uint256"
        },
        {
          "internalType": "address",
          "name": "collatAsset",
          "type": "address"
        }
      ],
      "stateMutability": "view",
      "type": "function"
    },
    {
      "inputs": [
        {
          "internalType": "address",
          "name": "_series",
          "type": "address"
        },
        {
          "internalType": "uint256",
          "name": "amount",
          "type": "uint256"
        }
      ],
      "name": "close",
      "outputs": [
        {
          "internalType": "bool",
          "name": "",
          "type": "bool"
        },
        {
          "internalType": "uint256",
          "name": "",
          "type": "uint256"
        }
      ],
      "stateMutability": "nonpayable",
      "type": "function"
    },
    {
      "inputs": [],
      "name": "collateralAsset",
      "outputs": [
        {
          "internalType": "address",
          "name": "",
          "type": "address"
        }
      ],
      "stateMutability": "view",
      "type": "function"
    },
    {
      "inputs": [
        {
          "internalType": "uint256",
          "name": "strikePrice",
          "type": "uint256"
        },
        {
          "internalType": "address",
          "name": "collateral",
          "type": "address"
        }
      ],
      "name": "formatStrikePrice",
      "outputs": [
        {
          "internalType": "uint256",
          "name": "",
          "type": "uint256"
        }
      ],
      "stateMutability": "view",
      "type": "function"
    },
    {
      "inputs": [],
      "name": "gammaController",
      "outputs": [
        {
          "internalType": "address",
          "name": "",
          "type": "address"
        }
      ],
      "stateMutability": "view",
      "type": "function"
    },
    {
      "inputs": [
        {
          "components": [
            {
              "internalType": "uint64",
              "name": "expiration",
              "type": "uint64"
            },
            {
              "internalType": "uint128",
              "name": "strike",
              "type": "uint128"
            },
            {
              "internalType": "bool",
              "name": "isPut",
              "type": "bool"
            },
            {
              "internalType": "address",
              "name": "underlying",
              "type": "address"
            },
            {
              "internalType": "address",
              "name": "strikeAsset",
              "type": "address"
            },
            {
              "internalType": "address",
              "name": "collateral",
              "type": "address"
            }
          ],
          "internalType": "struct Types.OptionSeries",
          "name": "series",
          "type": "tuple"
        },
        {
          "internalType": "uint256",
          "name": "amount",
          "type": "uint256"
        }
      ],
      "name": "getCollateral",
      "outputs": [
        {
          "internalType": "uint256",
          "name": "",
          "type": "uint256"
        }
      ],
      "stateMutability": "view",
      "type": "function"
    },
    {
      "inputs": [
        {
          "components": [
            {
              "internalType": "uint64",
              "name": "expiration",
              "type": "uint64"
            },
            {
              "internalType": "uint128",
              "name": "strike",
              "type": "uint128"
            },
            {
              "internalType": "bool",
              "name": "isPut",
              "type": "bool"
            },
            {
              "internalType": "address",
              "name": "underlying",
              "type": "address"
            },
            {
              "internalType": "address",
              "name": "strikeAsset",
              "type": "address"
            },
            {
              "internalType": "address",
              "name": "collateral",
              "type": "address"
            }
          ],
          "internalType": "struct Types.OptionSeries",
          "name": "_series",
          "type": "tuple"
        }
      ],
      "name": "getIssuanceHash",
      "outputs": [
        {
          "internalType": "bytes32",
          "name": "",
          "type": "bytes32"
        }
      ],
      "stateMutability": "pure",
      "type": "function"
    },
    {
      "inputs": [
        {
          "internalType": "address",
          "name": "underlying",
          "type": "address"
        },
        {
          "internalType": "address",
          "name": "strikeAsset",
          "type": "address"
        },
        {
          "internalType": "uint256",
          "name": "expiration",
          "type": "uint256"
        },
        {
          "internalType": "bool",
          "name": "isPut",
          "type": "bool"
        },
        {
          "internalType": "uint256",
          "name": "strike",
          "type": "uint256"
        },
        {
          "internalType": "address",
          "name": "collateral",
          "type": "address"
        }
      ],
      "name": "getOtoken",
      "outputs": [
        {
          "internalType": "address",
          "name": "",
          "type": "address"
        }
      ],
      "stateMutability": "view",
      "type": "function"
    },
    {
      "inputs": [
        {
          "components": [
            {
              "internalType": "uint64",
              "name": "expiration",
              "type": "uint64"
            },
            {
              "internalType": "uint128",
              "name": "strike",
              "type": "uint128"
            },
            {
              "internalType": "bool",
              "name": "isPut",
              "type": "bool"
            },
            {
              "internalType": "address",
              "name": "underlying",
              "type": "address"
            },
            {
              "internalType": "address",
              "name": "strikeAsset",
              "type": "address"
            },
            {
              "internalType": "address",
              "name": "collateral",
              "type": "address"
            }
          ],
          "internalType": "struct Types.OptionSeries",
          "name": "_series",
          "type": "tuple"
        }
      ],
      "name": "getSeries",
      "outputs": [
        {
          "internalType": "address",
          "name": "",
          "type": "address"
        }
      ],
      "stateMutability": "view",
      "type": "function"
    },
    {
      "inputs": [
        {
          "internalType": "bytes32",
          "name": "issuanceHash",
          "type": "bytes32"
        }
      ],
      "name": "getSeriesAddress",
      "outputs": [
        {
          "internalType": "address",
          "name": "",
          "type": "address"
        }
      ],
      "stateMutability": "view",
      "type": "function"
    },
    {
      "inputs": [
        {
          "internalType": "address",
          "name": "series",
          "type": "address"
        }
      ],
      "name": "getSeriesInfo",
      "outputs": [
        {
          "components": [
            {
              "internalType": "uint64",
              "name": "expiration",
              "type": "uint64"
            },
            {
              "internalType": "uint128",
              "name": "strike",
              "type": "uint128"
            },
            {
              "internalType": "bool",
              "name": "isPut",
              "type": "bool"
            },
            {
              "internalType": "address",
              "name": "underlying",
              "type": "address"
            },
            {
              "internalType": "address",
              "name": "strikeAsset",
              "type": "address"
            },
            {
              "internalType": "address",
              "name": "collateral",
              "type": "address"
            }
          ],
          "internalType": "struct Types.OptionSeries",
          "name": "",
          "type": "tuple"
        }
      ],
      "stateMutability": "view",
      "type": "function"
    },
    {
      "inputs": [
        {
          "components": [
            {
              "internalType": "uint64",
              "name": "expiration",
              "type": "uint64"
            },
            {
              "internalType": "uint128",
              "name": "strike",
              "type": "uint128"
            },
            {
              "internalType": "bool",
              "name": "isPut",
              "type": "bool"
            },
            {
              "internalType": "address",
              "name": "underlying",
              "type": "address"
            },
            {
              "internalType": "address",
              "name": "strikeAsset",
              "type": "address"
            },
            {
              "internalType": "address",
              "name": "collateral",
              "type": "address"
            }
          ],
          "internalType": "struct Types.OptionSeries",
          "name": "optionSeries",
          "type": "tuple"
        }
      ],
      "name": "issue",
      "outputs": [
        {
          "internalType": "address",
          "name": "",
          "type": "address"
        }
      ],
      "stateMutability": "nonpayable",
      "type": "function"
    },
    {
      "inputs": [
        {
          "internalType": "address",
          "name": "",
          "type": "address"
        }
      ],
      "name": "keeper",
      "outputs": [
        {
          "internalType": "bool",
          "name": "",
          "type": "bool"
        }
      ],
      "stateMutability": "view",
      "type": "function"
    },
    {
      "inputs": [],
      "name": "liquidityPool",
      "outputs": [
        {
          "internalType": "address",
          "name": "",
          "type": "address"
        }
      ],
      "stateMutability": "view",
      "type": "function"
    },
    {
      "inputs": [
        {
          "internalType": "address",
          "name": "_series",
          "type": "address"
        },
        {
          "internalType": "uint256",
          "name": "amount",
          "type": "uint256"
        },
        {
          "internalType": "uint256",
          "name": "collateralAmount",
          "type": "uint256"
        }
      ],
      "name": "open",
      "outputs": [
        {
          "internalType": "bool",
          "name": "",
          "type": "bool"
        },
        {
          "internalType": "uint256",
          "name": "",
          "type": "uint256"
        }
      ],
      "stateMutability": "nonpayable",
      "type": "function"
    },
    {
      "inputs": [],
      "name": "putLowerHealthFactor",
      "outputs": [
        {
          "internalType": "uint64",
          "name": "",
          "type": "uint64"
        }
      ],
      "stateMutability": "view",
      "type": "function"
    },
    {
      "inputs": [],
      "name": "putUpperHealthFactor",
      "outputs": [
        {
          "internalType": "uint64",
          "name": "",
          "type": "uint64"
        }
      ],
      "stateMutability": "view",
      "type": "function"
    },
    {
      "inputs": [
        {
          "internalType": "address",
          "name": "_series",
          "type": "address"
        }
      ],
      "name": "redeem",
      "outputs": [
        {
          "internalType": "uint256",
          "name": "",
          "type": "uint256"
        }
      ],
      "stateMutability": "nonpayable",
      "type": "function"
    },
    {
      "inputs": [
        {
          "internalType": "uint256",
          "name": "vaultId",
          "type": "uint256"
        }
      ],
      "name": "registerLiquidatedVault",
      "outputs": [],
      "stateMutability": "nonpayable",
      "type": "function"
    },
    {
      "inputs": [
        {
          "internalType": "address",
          "name": "",
          "type": "address"
        }
      ],
      "name": "seriesInfo",
      "outputs": [
        {
          "internalType": "uint64",
          "name": "expiration",
          "type": "uint64"
        },
        {
          "internalType": "uint128",
          "name": "strike",
          "type": "uint128"
        },
        {
          "internalType": "bool",
          "name": "isPut",
          "type": "bool"
        },
        {
          "internalType": "address",
          "name": "underlying",
          "type": "address"
        },
        {
          "internalType": "address",
          "name": "strikeAsset",
          "type": "address"
        },
        {
          "internalType": "address",
          "name": "collateral",
          "type": "address"
        }
      ],
      "stateMutability": "view",
      "type": "function"
    },
    {
      "inputs": [
        {
          "internalType": "contract IAuthority",
          "name": "_newAuthority",
          "type": "address"
        }
      ],
      "name": "setAuthority",
      "outputs": [],
      "stateMutability": "nonpayable",
      "type": "function"
    },
    {
      "inputs": [
        {
          "internalType": "uint64",
          "name": "_putLower",
          "type": "uint64"
        },
        {
          "internalType": "uint64",
          "name": "_putUpper",
          "type": "uint64"
        },
        {
          "internalType": "uint64",
          "name": "_callLower",
          "type": "uint64"
        },
        {
          "internalType": "uint64",
          "name": "_callUpper",
          "type": "uint64"
        }
      ],
      "name": "setHealthThresholds",
      "outputs": [],
      "stateMutability": "nonpayable",
      "type": "function"
    },
    {
      "inputs": [
        {
          "internalType": "address",
          "name": "_target",
          "type": "address"
        },
        {
          "internalType": "bool",
          "name": "_auth",
          "type": "bool"
        }
      ],
      "name": "setKeeper",
      "outputs": [],
      "stateMutability": "nonpayable",
      "type": "function"
    },
    {
      "inputs": [
        {
          "internalType": "address",
          "name": "_newLiquidityPool",
          "type": "address"
        }
      ],
      "name": "setLiquidityPool",
      "outputs": [],
      "stateMutability": "nonpayable",
      "type": "function"
    },
    {
      "inputs": [
        {
          "internalType": "address",
          "name": "_series",
          "type": "address"
        }
      ],
      "name": "settle",
      "outputs": [
        {
          "internalType": "bool",
          "name": "",
          "type": "bool"
        },
        {
          "internalType": "uint256",
          "name": "",
          "type": "uint256"
        },
        {
          "internalType": "uint256",
          "name": "",
          "type": "uint256"
        },
        {
          "internalType": "uint256",
          "name": "",
          "type": "uint256"
        }
      ],
      "stateMutability": "nonpayable",
      "type": "function"
    },
    {
      "inputs": [],
      "name": "vaultCount",
      "outputs": [
        {
          "internalType": "uint64",
          "name": "",
          "type": "uint64"
        }
      ],
      "stateMutability": "view",
      "type": "function"
    },
    {
      "inputs": [
        {
          "internalType": "address",
          "name": "",
          "type": "address"
        }
      ],
      "name": "vaultIds",
      "outputs": [
        {
          "internalType": "uint256",
          "name": "",
          "type": "uint256"
        }
      ],
      "stateMutability": "view",
      "type": "function"
    },
    {
      "inputs": [
        {
          "internalType": "uint256",
          "name": "vaultId",
          "type": "uint256"
        }
      ],
      "name": "wCollatLiquidatedVault",
      "outputs": [],
      "stateMutability": "nonpayable",
      "type": "function"
    }
  ],
  "bytecode": "0x610120604052792af80000000000002ee00000000000002af800000000000032c86005553480156200003057600080fd5b5060405162003e4c38038062003e4c833981016040819052620000539162000116565b600080546001600160a01b0319166001600160a01b03831690811790915560405190815281907f2f658b440c35314f52658ea8a740e05b284cdc84dc9ae01e891f21b8933e7cad9060200160405180910390a150506001600160a01b0395861660c05293851660805291841660a052831661010052600480549184166801000000000000000002600160401b600160e01b03199092169190911790551660e052620001ab565b80516001600160a01b03811681146200011157600080fd5b919050565b600080600080600080600060e0888a0312156200013257600080fd5b6200013d88620000f9565b96506200014d60208901620000f9565b95506200015d60408901620000f9565b94506200016d60608901620000f9565b93506200017d60808901620000f9565b92506200018d60a08901620000f9565b91506200019d60c08901620000f9565b905092959891949750929550565b60805160a05160c05160e05161010051613bb4620002986000396000818161169401528181611cd40152818161201d0152612a2601526000818161078a01528181610927015281816109f00152818161223a01526122fd0152600081816104840152818161148c01528181611585015261297701526000818161036f01528181610cf201528181610f000152818161166c015281816117c20152818161194b01528181611baa01528181611cac01528181611ff5015281816120ff0152818161273b015281816128ad015281816129fe0152612c7b01526000818161084401526111650152613bb46000f3fe608060405234801561001057600080fd5b50600436106102065760003560e01c806395a2251f1161011a578063c7bc163b116100ad578063dfeddb7e1161007c578063dfeddb7e14610703578063e341c12c1461072c578063e49280cb1461073f578063e8cf860814610752578063f5887cdd1461078557600080fd5b8063c7bc163b146104e6578063c84feaca146105a3578063d1b9e853146105bd578063dac9675b146105d057600080fd5b8063aabaecd6116100e9578063aabaecd61461047f578063b0b96a35146104a6578063b9402079146104c0578063bf7e214f146104d357600080fd5b806395a2251f146103fb5780639b8c8dc21461040e578063a3895ce614610459578063a7c6a1001461046c57600080fd5b80635fb708cf1161019d5780636abf4c5e1161016c5780636abf4c5e1461036a5780637a9e5e4b1461039157806389a86ad3146103a457806389f92871146103ce5780638cbb6511146103e857600080fd5b80635fb708cf146102f557806363009ac314610308578063665a11ca1461031b5780636a256b291461033557600080fd5b80632e79bf42116101d95780632e79bf421461029c57806332c926cb146102af57806341849afc146102c25780634c9a1c61146102e257600080fd5b8063018770201461020b578063164e6ea9146102205780631c19975914610250578063210fc56a14610271575b600080fd5b61021e61021936600461331a565b6107ac565b005b600554610233906001600160401b031681565b6040516001600160401b0390911681526020015b60405180910390f35b61026361025e36600461346e565b6107e5565b604051908152602001610247565b61028461027f36600461348a565b610825565b6040516001600160a01b039091168152602001610247565b6102636102aa3660046134fa565b610922565b61021e6102bd366004613525565b610c4e565b6102636102d036600461331a565b60026020526000908152604090205481565b61021e6102f0366004613579565b610ccb565b61028461030336600461346e565b6110ac565b61021e610316366004613579565b61145f565b60045461028490600160401b90046001600160a01b031681565b61034861034336600461331a565b611846565b6040805194151585526020850193909352918301526060820152608001610247565b6102847f000000000000000000000000000000000000000000000000000000000000000081565b61021e61039f36600461331a565b611a75565b6103b76103b2366004613592565b611ad1565b604080519215158352602083019190915201610247565b60055461023390600160401b90046001600160401b031681565b6102846103f636600461346e565b611e0c565b61026361040936600461331a565b611e6a565b61042161041c366004613579565b6120cc565b604080519615158752941515602087015293850192909252606084015260808301526001600160a01b031660a082015260c001610247565b6102636104673660046135c7565b612633565b600454610233906001600160401b031681565b6102847f000000000000000000000000000000000000000000000000000000000000000081565b60055461023390600160c01b90046001600160401b031681565b61021e6104ce366004613579565b612708565b600054610284906001600160a01b031681565b6105526104f436600461331a565b600160208190526000918252604090912080549181015460028201546003909201546001600160401b03841693600160401b81046001600160801b031693600160c01b90910460ff16926001600160a01b0390811692918116911686565b604080516001600160401b0390971687526001600160801b039095166020870152921515938501939093526001600160a01b03908116606085015291821660808401521660a082015260c001610247565b60055461023390600160801b90046001600160401b031681565b61021e6105cb3660046135f7565b612919565b6106976105de36600461331a565b6040805160c081018252600080825260208201819052918101829052606081018290526080810182905260a0810191909152506001600160a01b03908116600090815260016020818152604092839020835160c08101855281546001600160401b0381168252600160401b81046001600160801b031693820193909352600160c01b90920460ff16151593820193909352908201548316606082015260028201548316608082015260039091015490911660a082015290565b604051610247919081516001600160401b031681526020808301516001600160801b0316908201526040808301511515908201526060808301516001600160a01b039081169183019190915260808084015182169083015260a092830151169181019190915260c00190565b610284610711366004613579565b6000908152600360205260409020546001600160a01b031690565b61021e61073a366004613579565b61294c565b6103b761074d366004613625565b612aac565b61077561076036600461331a565b60066020526000908152604090205460ff1681565b6040519015158152602001610247565b6102847f000000000000000000000000000000000000000000000000000000000000000081565b6107b4612d5d565b600480546001600160a01b03909216600160401b0268010000000000000000600160e01b0319909216919091179055565b600061081f826060015183608001518460a0015185600001516001600160401b0316866040015187602001516001600160801b0316612e14565b92915050565b60008073__$a949af228b7bd2e36efc48dbaaf0130ade$__63f7b98e1b7f0000000000000000000000000000000000000000000000000000000000000000858b8b6108708a8a612633565b60405160e087901b6001600160e01b03191681526001600160a01b039586166004820152938516602485015291841660448401529092166064820152608481019190915260a4810189905287151560c482015260e40160206040518083038186803b1580156108de57600080fd5b505af41580156108f2573d6000803e3d6000fd5b505050506040513d601f19601f820116820180604052508101906109169190613651565b98975050505050505050565b6000807f00000000000000000000000000000000000000000000000000000000000000006001600160a01b031663cf28493f6040518163ffffffff1660e01b815260040160206040518083038186803b15801561097e57600080fd5b505afa158015610992573d6000803e3d6000fd5b505050506040513d601f19601f820116820180604052508101906109b69190613651565b90506000816001600160a01b0316630b0509fb866060015187608001518860a001516402540be400896109e99190613684565b8a602001517f00000000000000000000000000000000000000000000000000000000000000006001600160a01b031663833b1fce6040518163ffffffff1660e01b815260040160206040518083038186803b158015610a4757600080fd5b505afa158015610a5b573d6000803e3d6000fd5b505050506040513d601f19601f82011682018060405250810190610a7f9190613651565b60608d01516040516341976e0960e01b81526001600160a01b0391821660048201529116906341976e099060240160206040518083038186803b158015610ac557600080fd5b505afa158015610ad9573d6000803e3d6000fd5b505050506040513d601f19601f82011682018060405250810190610afd91906136a6565b8c600001518d60a001516001600160a01b031663313ce5676040518163ffffffff1660e01b815260040160206040518083038186803b158015610b3f57600080fd5b505afa158015610b53573d6000803e3d6000fd5b505050506040513d601f19601f82011682018060405250810190610b7791906136bf565b8e604001516040518a63ffffffff1660e01b8152600401610ba0999897969594939291906136e2565b60206040518083038186803b158015610bb857600080fd5b505afa158015610bcc573d6000803e3d6000fd5b505050506040513d601f19601f82011682018060405250810190610bf091906136a6565b905060008560400151610c0e576005546001600160401b0316610c22565b600554600160801b90046001600160401b03165b6001600160401b03169050612710610c3a8284613746565b610c449190613684565b9695505050505050565b610c56612d5d565b600580546001600160801b0316600160c01b6001600160401b039687160267ffffffffffffffff60801b191617600160801b94861694909402939093176fffffffffffffffffffffffffffffffff1916600160401b9285169290920267ffffffffffffffff1916919091179216919091179055565b610cd3612e85565b60405163d99d13f560e01b8152306004820152602481018290526000907f00000000000000000000000000000000000000000000000000000000000000006001600160a01b03169063d99d13f59060440160006040518083038186803b158015610d3c57600080fd5b505afa158015610d50573d6000803e3d6000fd5b505050506040513d6000823e601f3d908101601f19168201604052610d789190810190613857565b90508060600151600081518110610d9157610d91613977565b6020026020010151600014610df85760405162461bcd60e51b815260206004820152602260248201527f5661756c74206861732073686f727420706f736974696f6e73205b616d6f756e604482015261745d60f01b60648201526084015b60405180910390fd5b80518051600091908290610e0e57610e0e613977565b60200260200101516001600160a01b031614610e765760405162461bcd60e51b815260206004820152602160248201527f5661756c74206861732073686f727420706f736974696f6e73205b746f6b656e6044820152605d60f81b6064820152608401610def565b60008160a00151600081518110610e8f57610e8f613977565b602002602001015111610ee45760405162461bcd60e51b815260206004820152601760248201527f5661756c7420686173206e6f20636f6c6c61746572616c0000000000000000006044820152606401610def565b73__$a949af228b7bd2e36efc48dbaaf0130ade$__63fd5b6dd57f00000000000000000000000000000000000000000000000000000000000000008360400151600081518110610f3657610f36613977565b60200260200101518460a00151600081518110610f5557610f55613977565b6020026020010151866040518563ffffffff1660e01b8152600401610f7d949392919061398d565b60006040518083038186803b158015610f9557600080fd5b505af4158015610fa9573d6000803e3d6000fd5b50505050600460089054906101000a90046001600160a01b03166001600160a01b0316631e4bc5578260a00151600081518110610fe857610fe8613977565b602002602001015160016040518363ffffffff1660e01b815260040161101a9291909182521515602082015260400190565b600060405180830381600087803b15801561103457600080fd5b505af1158015611048573d6000803e3d6000fd5b505050506110a8816040015160008151811061106657611066613977565b6020026020010151600460089054906101000a90046001600160a01b03168360a0015160008151811061109b5761109b613977565b6020026020010151612ff9565b5050565b60006110b6613078565b4282600001516001600160401b0316116110e35760405163506b27c560e11b815260040160405180910390fd5b600061110083602001516001600160801b03168460a00151612633565b90506000611138846060015185608001518660a0015187600001516001600160401b03168860400151876001600160801b0316612e14565b60a08501516060860151608087015187516040808a01519051630e4e99e360e01b81526001600160a01b037f000000000000000000000000000000000000000000000000000000000000000081166004830152958616602482015293851660448501529390911660648301526001600160801b03861660848301526001600160401b031660a482015290151560c482015290915060009073__$a949af228b7bd2e36efc48dbaaf0130ade$__90630e4e99e39060e40160206040518083038186803b15801561120657600080fd5b505af415801561121a573d6000803e3d6000fd5b505050506040513d601f19601f8201168201806040525081019061123e9190613651565b90506040518060c0016040528086600001516001600160401b03168152602001846001600160801b0316815260200186604001511515815260200186606001516001600160a01b0316815260200186608001516001600160a01b031681526020018660a001516001600160a01b031681525060016000836001600160a01b03166001600160a01b0316815260200190815260200160002060008201518160000160006101000a8154816001600160401b0302191690836001600160401b0316021790555060208201518160000160086101000a8154816001600160801b0302191690836001600160801b0316021790555060408201518160000160186101000a81548160ff02191690831515021790555060608201518160010160006101000a8154816001600160a01b0302191690836001600160a01b0316021790555060808201518160020160006101000a8154816001600160a01b0302191690836001600160a01b0316021790555060a08201518160030160006101000a8154816001600160a01b0302191690836001600160a01b03160217905550905050806003600084815260200190815260200160002060006101000a8154816001600160a01b0302191690836001600160a01b031602179055507ff434a81a703b3b06f1dd290881e157c47d663389196c88db9f57819ec6f6ae9f8160405161144f91906001600160a01b0391909116815260200190565b60405180910390a1949350505050565b611467612e85565b600080600080611476856120cc565b95509550505093509350806001600160a01b03167f00000000000000000000000000000000000000000000000000000000000000006001600160a01b0316146114d2576040516368f7a67560e11b815260040160405180910390fd5b831580156114de575082155b156114fc576040516315fe9b6160e21b815260040160405180910390fd5b83156117235760048054604051631e4bc55760e01b815291820184905260006024830152600160401b90046001600160a01b031690631e4bc55790604401600060405180830381600087803b15801561155457600080fd5b505af1158015611568573d6000803e3d6000fd5b50506004805460405163f8b2cb4f60e01b81526001600160a01b037f0000000000000000000000000000000000000000000000000000000000000000811693820193909352869450600160401b909104909116915063f8b2cb4f9060240160206040518083038186803b1580156115de57600080fd5b505afa1580156115f2573d6000803e3d6000fd5b505050506040513d601f19601f8201168201806040525081019061161691906136a6565b10156116355760405163b84beb5d60e01b815260040160405180910390fd5b600454611655908290600160401b90046001600160a01b031630856130aa565b6040516347e200ad60e11b81526001600160a01b037f0000000000000000000000000000000000000000000000000000000000000000811660048301527f00000000000000000000000000000000000000000000000000000000000000008116602483015282166044820152606481018390526084810186905273__$a949af228b7bd2e36efc48dbaaf0130ade$__90638fc4015a9060a40160006040518083038186803b15801561170657600080fd5b505af415801561171a573d6000803e3d6000fd5b5050505061183f565b821561183f5760048054604051631e4bc55760e01b815291820184905260016024830152600160401b90046001600160a01b031690631e4bc55790604401600060405180830381600087803b15801561177b57600080fd5b505af115801561178f573d6000803e3d6000fd5b505060405163fd5b6dd560e01b815273__$a949af228b7bd2e36efc48dbaaf0130ade$__925063fd5b6dd591506117f0907f000000000000000000000000000000000000000000000000000000000000000090859087908b9060040161398d565b60006040518083038186803b15801561180857600080fd5b505af415801561181c573d6000803e3d6000fd5b505060045461183f9250839150600160401b90046001600160a01b031684612ff9565b5050505050565b600080600080611854613078565b6001600160a01b03858116600090815260016020818152604092839020835160c08101855281546001600160401b038116808352600160401b82046001600160801b031694830194909452600160c01b900460ff16151594810194909452918201548416606084015260028201548416608084015260039091015490921660a0820152906118f55760405163117af06360e31b815260040160405180910390fd5b4281600001516001600160401b0316106119225760405163d0404f8560e01b815260040160405180910390fd5b6001600160a01b038681166000908152600260205260408082205490516315afd40960e01b81527f0000000000000000000000000000000000000000000000000000000000000000909316600484015260248301819052918190819073__$a949af228b7bd2e36efc48dbaaf0130ade$__906315afd4099060440160606040518083038186803b1580156119b557600080fd5b505af41580156119c9573d6000803e3d6000fd5b505050506040513d601f19601f820116820180604052508101906119ed91906139b6565b925092509250611a178560a00151600460089054906101000a90046001600160a01b031685612ff9565b60408051848152602081018490529081018290526001600160a01b038b16907ffd7eb2273d5660864e5ad7b3a1afd8ff16166a5c5fb2fe03c29f9fdbdc8930d49060600160405180910390a260019a92995090975095509350505050565b611a7d612d5d565b600080546001600160a01b0319166001600160a01b0383169081179091556040519081527f2f658b440c35314f52658ea8a740e05b284cdc84dc9ae01e891f21b8933e7cad9060200160405180910390a150565b600080611adc613078565b6001600160a01b03858116600090815260016020818152604092839020835160c08101855281546001600160401b038116808352600160401b82046001600160801b031694830194909452600160c01b900460ff16151594810194909452918201548416606084015260028201548416608084015260039091015490921660a0820152904210611b7f5760405163506b27c560e11b815260040160405180910390fd5b611b8f8160a001513330876130aa565b6001600160a01b0386166000908152600260205260409020547f00000000000000000000000000000000000000000000000000000000000000009080611c9557604051636553690d60e11b81523060048201526001600160a01b0383169063caa6d21a9060240160206040518083038186803b158015611c0e57600080fd5b505afa158015611c22573d6000803e3d6000fd5b505050506040513d601f19601f82011682018060405250810190611c4691906136a6565b611c519060016139e4565b600480549192506001600160401b03909116906000611c6f836139fc565b91906101000a8154816001600160401b0302191690836001600160401b03160217905550505b604051633718f97560e01b81526001600160a01b037f0000000000000000000000000000000000000000000000000000000000000000811660048301527f00000000000000000000000000000000000000000000000000000000000000008116602483015289166044820152606481018790526084810182905260a48101889052600160c482015260009073__$a949af228b7bd2e36efc48dbaaf0130ade$__90633718f9759060e40160206040518083038186803b158015611d5757600080fd5b505af4158015611d6b573d6000803e3d6000fd5b505050506040513d601f19601f82011682018060405250810190611d8f91906136a6565b60408051848152602081018390529192506001600160a01b038b16917f242b1ddd06a984a28045d1a261fcddca274c5f29be7c894def55d7b938d4c7ce910160405180910390a2611de1893383612ff9565b506001600160a01b038816600090815260026020526040902055506001925083915050935093915050565b600060036000611e4a846060015185608001518660a0015187600001516001600160401b0316886040015189602001516001600160801b0316612e14565b81526020810191909152604001600020546001600160a01b031692915050565b6001600160a01b038181166000908152600160208181526040808420815160c08101835281546001600160401b038116808352600160401b82046001600160801b031695830195909552600160c01b900460ff16151592810192909252928301548516606082015260028301548516608082015260039092015490931660a08201529091611f0b5760405163117af06360e31b815260040160405180910390fd5b4281600001516001600160401b031610611f385760405163d0404f8560e01b815260040160405180910390fd5b6040516370a0823160e01b81523360048201526000906001600160a01b038516906370a082319060240160206040518083038186803b158015611f7a57600080fd5b505afa158015611f8e573d6000803e3d6000fd5b505050506040513d601f19601f82011682018060405250810190611fb291906136a6565b905080611fd257604051631e9acf1760e31b815260040160405180910390fd5b611fde843330846130aa565b6040516302e80dad60e61b81526001600160a01b037f0000000000000000000000000000000000000000000000000000000000000000811660048301527f000000000000000000000000000000000000000000000000000000000000000081166024830152851660448201526064810182905260009073__$a949af228b7bd2e36efc48dbaaf0130ade$__9063ba036b409060840160206040518083038186803b15801561208b57600080fd5b505af415801561209f573d6000803e3d6000fd5b505050506040513d601f19601f820116820180604052508101906120c391906136a6565b95945050505050565b60405163d99d13f560e01b8152306004820152602481018290526000908190819081908190819081906001600160a01b037f0000000000000000000000000000000000000000000000000000000000000000169063d99d13f59060440160006040518083038186803b15801561214157600080fd5b505afa158015612155573d6000803e3d6000fd5b505050506040513d6000823e601f3d908101601f1916820160405261217d9190810190613857565b9050600060016000836000015160008151811061219c5761219c613977565b6020908102919091018101516001600160a01b0390811683528282019390935260409182016000908120835160c08101855281546001600160401b0381168252600160401b81046001600160801b031682860152600160c01b900460ff16151581860152600182015486166060820152600282015486166080820152600390910154851660a0820152835163cf28493f60e01b8152935190955090937f0000000000000000000000000000000000000000000000000000000000000000169263cf28493f926004808301939192829003018186803b15801561227d57600080fd5b505afa158015612291573d6000803e3d6000fd5b505050506040513d601f19601f820116820180604052508101906122b59190613651565b90506000816001600160a01b0316630b0509fb846060015185608001518660a0015188606001516000815181106122ee576122ee613977565b602002602001015188602001517f00000000000000000000000000000000000000000000000000000000000000006001600160a01b031663833b1fce6040518163ffffffff1660e01b815260040160206040518083038186803b15801561235457600080fd5b505afa158015612368573d6000803e3d6000fd5b505050506040513d601f19601f8201168201806040525081019061238c9190613651565b60608b01516040516341976e0960e01b81526001600160a01b0391821660048201529116906341976e099060240160206040518083038186803b1580156123d257600080fd5b505afa1580156123e6573d6000803e3d6000fd5b505050506040513d601f19601f8201168201806040525081019061240a91906136a6565b8a600001518b60a001516001600160a01b031663313ce5676040518163ffffffff1660e01b815260040160206040518083038186803b15801561244c57600080fd5b505afa158015612460573d6000803e3d6000fd5b505050506040513d601f19601f8201168201806040525081019061248491906136bf565b8c604001516040518a63ffffffff1660e01b81526004016124ad999897969594939291906136e2565b60206040518083038186803b1580156124c557600080fd5b505afa1580156124d9573d6000803e3d6000fd5b505050506040513d601f19601f820116820180604052508101906124fd91906136a6565b905060008460a0015160008151811061251857612518613977565b6020026020010151905081612710826125319190613746565b61253b9190613684565b98508360400151612557576005546001600160401b031661256b565b600554600160801b90046001600160401b03165b6001600160401b031697506000846040015161259957600554600160401b90046001600160401b03166125ad565b600554600160c01b90046001600160401b03165b6001600160401b03169050888a11156125ec5760019a506127106125d18a85613746565b6125db9190613684565b6125e59083613a23565b975061261d565b808a101561261d5760019b50816127106126068b86613746565b6126109190613684565b61261a9190613a23565b97505b8460a00151965050505050505091939550919395565b6000806126456402540be40085613684565b90506000836001600160a01b031663313ce5676040518163ffffffff1660e01b815260040160206040518083038186803b15801561268257600080fd5b505afa158015612696573d6000803e3d6000fd5b505050506040513d601f19601f820116820180604052508101906126ba91906136bf565b60ff169050600881106126cf5750905061081f565b60006126dc826008613a23565b90506126e981600a613b1e565b6126f482600a613b1e565b6126fe9085613684565b610c449190613746565b612710612e85565b60405163f62fc0b360e01b815230600482015260248101829052600090819081906001600160a01b037f0000000000000000000000000000000000000000000000000000000000000000169063f62fc0b39060440160606040518083038186803b15801561277d57600080fd5b505afa158015612791573d6000803e3d6000fd5b505050506040513d601f19601f820116820180604052508101906127b59190613b2a565b919450925090506001600160a01b0383166127e35760405163df66968160e01b815260040160405180910390fd5b60408051858152602081018490529081018290526001600160a01b038416907f47aa675faf14c5e3b5da8d235f13812988463fbe9e8d3da67741f8c068e8132d9060600160405180910390a260048054604051631e4bc55760e01b815291820183905260016024830152600160401b90046001600160a01b031690631e4bc55790604401600060405180830381600087803b15801561288157600080fd5b505af1158015612895573d6000803e3d6000fd5b5050604051630fb0af3f60e31b8152600481018790527f00000000000000000000000000000000000000000000000000000000000000006001600160a01b03169250637d8579f89150602401600060405180830381600087803b1580156128fb57600080fd5b505af115801561290f573d6000803e3d6000fd5b5050505050505050565b612921612d5d565b6001600160a01b03919091166000908152600660205260409020805460ff1916911515919091179055565b612954613144565b6000806000612962846120cc565b955095505050509250806001600160a01b03167f00000000000000000000000000000000000000000000000000000000000000006001600160a01b0316146129bd576040516368f7a67560e11b815260040160405180910390fd5b826129db576040516315fe9b6160e21b815260040160405180910390fd5b6129e7813330856130aa565b6040516347e200ad60e11b81526001600160a01b037f0000000000000000000000000000000000000000000000000000000000000000811660048301527f00000000000000000000000000000000000000000000000000000000000000008116602483015282166044820152606481018390526084810185905273__$a949af228b7bd2e36efc48dbaaf0130ade$__90638fc4015a9060a40160006040518083038186803b158015612a9857600080fd5b505af415801561290f573d6000803e3d6000fd5b600080612ab7613078565b6001600160a01b03848116600090815260016020818152604092839020835160c08101855281546001600160401b038116808352600160401b82046001600160801b031694830194909452600160c01b900460ff16151594810194909452918201548416606084015260028201548416608084015260039091015490921660a082015290612b585760405163117af06360e31b815260040160405180910390fd5b4281600001516001600160401b031611612b855760405163506b27c560e11b815260040160405180910390fd5b6001600160a01b03851660009081526002602052604090205480612bbc5760405163a1b86ccf60e01b815260040160405180910390fd5b6000612c3b86886001600160a01b031663313ce5676040518163ffffffff1660e01b815260040160206040518083038186803b158015612bfb57600080fd5b505afa158015612c0f573d6000803e3d6000fd5b505050506040513d601f19601f82011682018060405250810190612c3391906136bf565b60ff1661327f565b9050612c49873330846130aa565b604051633f83640160e21b815260009073__$a949af228b7bd2e36efc48dbaaf0130ade$__9063fe0d900490612ca9907f0000000000000000000000000000000000000000000000000000000000000000908c908790899060040161398d565b60206040518083038186803b158015612cc157600080fd5b505af4158015612cd5573d6000803e3d6000fd5b505050506040513d601f19601f82011682018060405250810190612cf991906136a6565b9050612d0a8460a001513383612ff9565b60408051848152602081018490526001600160a01b038a16917f8b307ec2cdec0ea71518d1d82e315a365c5789f3e02e4466b9d886b3474b1793910160405180910390a260019890975095505050505050565b60008054906101000a90046001600160a01b03166001600160a01b0316630c340a246040518163ffffffff1660e01b815260040160206040518083038186803b158015612da957600080fd5b505afa158015612dbd573d6000803e3d6000fd5b505050506040513d601f19601f82011682018060405250810190612de19190613651565b6001600160a01b0316336001600160a01b031614612e125760405163075fd2b160e01b815260040160405180910390fd5b565b6040516bffffffffffffffffffffffff19606088811b8216602084015287811b8216603484015286901b166048820152605c810184905282151560f81b607c820152607d8101829052600090609d016040516020818303038152906040528051906020012090509695505050505050565b3360009081526006602052604090205460ff16158015612f3a575060008054906101000a90046001600160a01b03166001600160a01b0316630c340a246040518163ffffffff1660e01b815260040160206040518083038186803b158015612eec57600080fd5b505afa158015612f00573d6000803e3d6000fd5b505050506040513d601f19601f82011682018060405250810190612f249190613651565b6001600160a01b0316336001600160a01b031614155b8015612fdb575060008054906101000a90046001600160a01b03166001600160a01b031663481c6a756040518163ffffffff1660e01b815260040160206040518083038186803b158015612f8d57600080fd5b505afa158015612fa1573d6000803e3d6000fd5b505050506040513d601f19601f82011682018060405250810190612fc59190613651565b6001600160a01b0316336001600160a01b031614155b15612e1257604051631ea2564f60e31b815260040160405180910390fd5b600060405163a9059cbb60e01b81526001600160a01b03841660048201528260248201526000806044836000895af1915050613034816132bb565b6130725760405162461bcd60e51b815260206004820152600f60248201526e1514905394d1915497d19052531151608a1b6044820152606401610def565b50505050565b600454600160401b90046001600160a01b03163314612e125760405163f539349760e01b815260040160405180910390fd5b600084905060006040516323b872dd60e01b81526001600160a01b03861660048201526001600160a01b03851660248201528360448201526000806064836000875af19150506130f9816132bb565b61313c5760405162461bcd60e51b81526020600482015260146024820152731514905394d1915497d19493d357d1905253115160621b6044820152606401610def565b505050505050565b60005460405163794f111b60e11b81523360048201526001600160a01b039091169063f29e22369060240160206040518083038186803b15801561318757600080fd5b505afa15801561319b573d6000803e3d6000fd5b505050506040513d601f19601f820116820180604052508101906131bf9190613b61565b158015613261575060008054906101000a90046001600160a01b03166001600160a01b0316630c340a246040518163ffffffff1660e01b815260040160206040518083038186803b15801561321357600080fd5b505afa158015613227573d6000803e3d6000fd5b505050506040513d601f19601f8201168201806040525081019061324b9190613651565b6001600160a01b0316336001600160a01b031614155b15612e125760405163075fd2b160e01b815260040160405180910390fd5b6000601282111561328f57600080fd5b600061329c836012613a23565b90506132a981600a613b1e565b6132b39085613684565b949350505050565b60003d826132cd57806000803e806000fd5b80602081146132e55780156132f657600092506132fb565b816000803e600051151592506132fb565b600192505b5050919050565b6001600160a01b038116811461331757600080fd5b50565b60006020828403121561332c57600080fd5b813561333781613302565b9392505050565b634e487b7160e01b600052604160045260246000fd5b60405160c081016001600160401b03811182821017156133765761337661333e565b60405290565b604051601f8201601f191681016001600160401b03811182821017156133a4576133a461333e565b604052919050565b80356001600160401b03811681146133c357600080fd5b919050565b801515811461331757600080fd5b600060c082840312156133e857600080fd5b6133f0613354565b90506133fb826133ac565b815260208201356001600160801b038116811461341757600080fd5b6020820152604082013561342a816133c8565b6040820152606082013561343d81613302565b6060820152608082013561345081613302565b608082015260a082013561346381613302565b60a082015292915050565b600060c0828403121561348057600080fd5b61333783836133d6565b60008060008060008060c087890312156134a357600080fd5b86356134ae81613302565b955060208701356134be81613302565b94506040870135935060608701356134d5816133c8565b92506080870135915060a08701356134ec81613302565b809150509295509295509295565b60008060e0838503121561350d57600080fd5b61351784846133d6565b9460c0939093013593505050565b6000806000806080858703121561353b57600080fd5b613544856133ac565b9350613552602086016133ac565b9250613560604086016133ac565b915061356e606086016133ac565b905092959194509250565b60006020828403121561358b57600080fd5b5035919050565b6000806000606084860312156135a757600080fd5b83356135b281613302565b95602085013595506040909401359392505050565b600080604083850312156135da57600080fd5b8235915060208301356135ec81613302565b809150509250929050565b6000806040838503121561360a57600080fd5b823561361581613302565b915060208301356135ec816133c8565b6000806040838503121561363857600080fd5b823561364381613302565b946020939093013593505050565b60006020828403121561366357600080fd5b815161333781613302565b634e487b7160e01b600052601160045260246000fd5b6000826136a157634e487b7160e01b600052601260045260246000fd5b500490565b6000602082840312156136b857600080fd5b5051919050565b6000602082840312156136d157600080fd5b815160ff8116811461333757600080fd5b6001600160a01b03998a168152978916602089015295909716604087015260608601939093526001600160801b0391909116608085015260a08401526001600160401b031660c083015260ff90921660e08201529015156101008201526101200190565b60008160001904831182151516156137605761376061366e565b500290565b60006001600160401b0382111561377e5761377e61333e565b5060051b60200190565b600082601f83011261379957600080fd5b815160206137ae6137a983613765565b61337c565b82815260059290921b840181019181810190868411156137cd57600080fd5b8286015b848110156137f15780516137e481613302565b83529183019183016137d1565b509695505050505050565b600082601f83011261380d57600080fd5b8151602061381d6137a983613765565b82815260059290921b8401810191818101908684111561383c57600080fd5b8286015b848110156137f15780518352918301918301613840565b60006020828403121561386957600080fd5b81516001600160401b038082111561388057600080fd5b9083019060c0828603121561389457600080fd5b61389c613354565b8251828111156138ab57600080fd5b6138b787828601613788565b8252506020830151828111156138cc57600080fd5b6138d887828601613788565b6020830152506040830151828111156138f057600080fd5b6138fc87828601613788565b60408301525060608301518281111561391457600080fd5b613920878286016137fc565b60608301525060808301518281111561393857600080fd5b613944878286016137fc565b60808301525060a08301518281111561395c57600080fd5b613968878286016137fc565b60a08301525095945050505050565b634e487b7160e01b600052603260045260246000fd5b6001600160a01b0394851681529290931660208301526040820152606081019190915260800190565b6000806000606084860312156139cb57600080fd5b8351925060208401519150604084015190509250925092565b600082198211156139f7576139f761366e565b500190565b60006001600160401b0380831681811415613a1957613a1961366e565b6001019392505050565b600082821015613a3557613a3561366e565b500390565b600181815b80851115613a75578160001904821115613a5b57613a5b61366e565b80851615613a6857918102915b93841c9390800290613a3f565b509250929050565b600082613a8c5750600161081f565b81613a995750600061081f565b8160018114613aaf5760028114613ab957613ad5565b600191505061081f565b60ff841115613aca57613aca61366e565b50506001821b61081f565b5060208310610133831016604e8410600b8410161715613af8575081810a61081f565b613b028383613a3a565b8060001904821115613b1657613b1661366e565b029392505050565b60006133378383613a7d565b600080600060608486031215613b3f57600080fd5b8351613b4a81613302565b602085015160409095015190969495509392505050565b600060208284031215613b7357600080fd5b8151613337816133c856fea264697066735822122008fc9b426372b7f554c7ec9e4bf6056a47fc05aa124b65c72d0a784958ff849264736f6c63430008090033",
  "linkReferences": {
    "contracts/libraries/OpynInteractions.sol": {
      "OpynInteractions": [
        {
          "length": 20,
          "start": 2754
        },
        {
          "length": 20,
          "start": 4478
        },
        {
          "length": 20,
          "start": 5225
        },
        {
          "length": 20,
          "start": 6505
        },
        {
          "length": 20,
          "start": 6712
        },
        {
          "length": 20,
          "start": 7192
        },
        {
          "length": 20,
          "start": 8122
        },
        {
          "length": 20,
          "start": 8942
        },
        {
          "length": 20,
          "start": 11515
        },
        {
          "length": 20,
          "start": 12019
        }
      ]
    }
  },
  "deployedLinkReferences": {
    "contracts/libraries/OpynInteractions.sol": {
      "OpynInteractions": [
        {
          "length": 20,
          "start": 2090
        },
        {
          "length": 20,
          "start": 3814
        },
        {
          "length": 20,
          "start": 4561
        },
        {
          "length": 20,
          "start": 5841
        },
        {
          "length": 20,
          "start": 6048
        },
        {
          "length": 20,
          "start": 6528
        },
        {
          "length": 20,
          "start": 7458
        },
        {
          "length": 20,
          "start": 8278
        },
        {
          "length": 20,
          "start": 10851
        },
        {
          "length": 20,
          "start": 11355
        }
      ]
    }
  }
}