{
  "_format": "hh-sol-artifact-1",
  "contractName": "VPoolWrapper",
  "sourceName": "@rage/core/contracts/protocol/wrapper/VPoolWrapper.sol",
  "abi": [
    {
      "inputs": [
        {
          "internalType": "uint256",
          "name": "errorCode",
          "type": "uint256"
        }
      ],
      "name": "InvalidSetting",
      "type": "error"
    },
    {
      "inputs": [
        {
          "internalType": "uint160",
          "name": "sqrtPriceLimitX96",
          "type": "uint160"
        }
      ],
      "name": "InvalidSqrtPriceLimit",
      "type": "error"
    },
    {
      "inputs": [
        {
          "internalType": "int24",
          "name": "tickLower",
          "type": "int24"
        },
        {
          "internalType": "int24",
          "name": "tickUpper",
          "type": "int24"
        }
      ],
      "name": "InvalidTicks",
      "type": "error"
    },
    {
      "inputs": [],
      "name": "NotClearingHouse",
      "type": "error"
    },
    {
      "inputs": [],
      "name": "NotGovernance",
      "type": "error"
    },
    {
      "inputs": [],
      "name": "NotGovernanceOrTeamMultisig",
      "type": "error"
    },
    {
      "inputs": [],
      "name": "NotUniswapV3Pool",
      "type": "error"
    },
    {
      "inputs": [],
      "name": "R",
      "type": "error"
    },
    {
      "inputs": [
        {
          "internalType": "uint128",
          "name": "value",
          "type": "uint128"
        }
      ],
      "name": "SafeCast_Int128Overflow",
      "type": "error"
    },
    {
      "inputs": [
        {
          "internalType": "uint256",
          "name": "value",
          "type": "uint256"
        }
      ],
      "name": "SafeCast_Int256Overflow",
      "type": "error"
    },
    {
      "inputs": [],
      "name": "T",
      "type": "error"
    },
    {
      "inputs": [],
      "name": "ZeroAmount",
      "type": "error"
    },
    {
      "anonymous": false,
      "inputs": [
        {
          "indexed": false,
          "internalType": "uint256",
          "name": "amount",
          "type": "uint256"
        }
      ],
      "name": "AccruedProtocolFeeCollected",
      "type": "event"
    },
    {
      "anonymous": false,
      "inputs": [
        {
          "indexed": false,
          "internalType": "int24",
          "name": "tickLower",
          "type": "int24"
        },
        {
          "indexed": false,
          "internalType": "int24",
          "name": "tickUpper",
          "type": "int24"
        },
        {
          "indexed": false,
          "internalType": "uint128",
          "name": "liquidity",
          "type": "uint128"
        },
        {
          "indexed": false,
          "internalType": "uint256",
          "name": "vTokenPrincipal",
          "type": "uint256"
        },
        {
          "indexed": false,
          "internalType": "uint256",
          "name": "vQuotePrincipal",
          "type": "uint256"
        }
      ],
      "name": "Burn",
      "type": "event"
    },
    {
      "anonymous": false,
      "inputs": [
        {
          "indexed": false,
          "internalType": "int256",
          "name": "fundingRateOverrideX128",
          "type": "int256"
        }
      ],
      "name": "FundingRateOverrideUpdated",
      "type": "event"
    },
    {
      "anonymous": false,
      "inputs": [
        {
          "indexed": false,
          "internalType": "uint24",
          "name": "liquidityFeePips",
          "type": "uint24"
        }
      ],
      "name": "LiquidityFeeUpdated",
      "type": "event"
    },
    {
      "anonymous": false,
      "inputs": [
        {
          "indexed": false,
          "internalType": "int24",
          "name": "tickLower",
          "type": "int24"
        },
        {
          "indexed": false,
          "internalType": "int24",
          "name": "tickUpper",
          "type": "int24"
        },
        {
          "indexed": false,
          "internalType": "uint128",
          "name": "liquidity",
          "type": "uint128"
        },
        {
          "indexed": false,
          "internalType": "uint256",
          "name": "vTokenPrincipal",
          "type": "uint256"
        },
        {
          "indexed": false,
          "internalType": "uint256",
          "name": "vQuotePrincipal",
          "type": "uint256"
        }
      ],
      "name": "Mint",
      "type": "event"
    },
    {
      "anonymous": false,
      "inputs": [
        {
          "indexed": false,
          "internalType": "uint24",
          "name": "protocolFeePips",
          "type": "uint24"
        }
      ],
      "name": "ProtocolFeeUpdated",
      "type": "event"
    },
    {
      "anonymous": false,
      "inputs": [
        {
          "components": [
            {
              "internalType": "int256",
              "name": "amountSpecified",
              "type": "int256"
            },
            {
              "internalType": "int256",
              "name": "vTokenIn",
              "type": "int256"
            },
            {
              "internalType": "int256",
              "name": "vQuoteIn",
              "type": "int256"
            },
            {
              "internalType": "uint256",
              "name": "liquidityFees",
              "type": "uint256"
            },
            {
              "internalType": "uint256",
              "name": "protocolFees",
              "type": "uint256"
            },
            {
              "internalType": "uint160",
              "name": "sqrtPriceX96Start",
              "type": "uint160"
            },
            {
              "internalType": "uint160",
              "name": "sqrtPriceX96End",
              "type": "uint160"
            }
          ],
          "indexed": false,
          "internalType": "struct IVPoolWrapper.SwapResult",
          "name": "swapResult",
          "type": "tuple"
        }
      ],
      "name": "Swap",
      "type": "event"
    },
    {
      "inputs": [],
      "name": "accruedProtocolFee",
      "outputs": [
        {
          "internalType": "uint256",
          "name": "",
          "type": "uint256"
        }
      ],
      "stateMutability": "view",
      "type": "function"
    },
    {
      "inputs": [
        {
          "internalType": "int24",
          "name": "tickLower",
          "type": "int24"
        },
        {
          "internalType": "int24",
          "name": "tickUpper",
          "type": "int24"
        },
        {
          "internalType": "uint128",
          "name": "liquidity",
          "type": "uint128"
        }
      ],
      "name": "burn",
      "outputs": [
        {
          "internalType": "uint256",
          "name": "vTokenPrincipal",
          "type": "uint256"
        },
        {
          "internalType": "uint256",
          "name": "vQuotePrincipal",
          "type": "uint256"
        },
        {
          "components": [
            {
              "internalType": "int256",
              "name": "sumAX128",
              "type": "int256"
            },
            {
              "internalType": "int256",
              "name": "sumBInsideX128",
              "type": "int256"
            },
            {
              "internalType": "int256",
              "name": "sumFpInsideX128",
              "type": "int256"
            },
            {
              "internalType": "uint256",
              "name": "sumFeeInsideX128",
              "type": "uint256"
            }
          ],
          "internalType": "struct IVPoolWrapper.WrapperValuesInside",
          "name": "wrapperValuesInside",
          "type": "tuple"
        }
      ],
      "stateMutability": "nonpayable",
      "type": "function"
    },
    {
      "inputs": [],
      "name": "clearingHouse",
      "outputs": [
        {
          "internalType": "contract IClearingHouse",
          "name": "",
          "type": "address"
        }
      ],
      "stateMutability": "view",
      "type": "function"
    },
    {
      "inputs": [],
      "name": "collectAccruedProtocolFee",
      "outputs": [
        {
          "internalType": "uint256",
          "name": "accruedProtocolFeeLast",
          "type": "uint256"
        }
      ],
      "stateMutability": "nonpayable",
      "type": "function"
    },
    {
      "inputs": [
        {
          "internalType": "bytes32",
          "name": "slot",
          "type": "bytes32"
        }
      ],
      "name": "extsload",
      "outputs": [
        {
          "internalType": "bytes32",
          "name": "val",
          "type": "bytes32"
        }
      ],
      "stateMutability": "view",
      "type": "function"
    },
    {
      "inputs": [
        {
          "internalType": "bytes32[]",
          "name": "slots",
          "type": "bytes32[]"
        }
      ],
      "name": "extsload",
      "outputs": [
        {
          "internalType": "bytes32[]",
          "name": "",
          "type": "bytes32[]"
        }
      ],
      "stateMutability": "view",
      "type": "function"
    },
    {
      "inputs": [],
      "name": "fpGlobal",
      "outputs": [
        {
          "internalType": "int256",
          "name": "sumAX128",
          "type": "int256"
        },
        {
          "internalType": "int256",
          "name": "sumBX128",
          "type": "int256"
        },
        {
          "internalType": "int256",
          "name": "sumFpX128",
          "type": "int256"
        },
        {
          "internalType": "uint48",
          "name": "timestampLast",
          "type": "uint48"
        }
      ],
      "stateMutability": "view",
      "type": "function"
    },
    {
      "inputs": [],
      "name": "fundingRateOverrideX128",
      "outputs": [
        {
          "internalType": "int256",
          "name": "",
          "type": "int256"
        }
      ],
      "stateMutability": "view",
      "type": "function"
    },
    {
      "inputs": [],
      "name": "getExtrapolatedSumAX128",
      "outputs": [
        {
          "internalType": "int256",
          "name": "",
          "type": "int256"
        }
      ],
      "stateMutability": "view",
      "type": "function"
    },
    {
      "inputs": [
        {
          "internalType": "int24",
          "name": "tickLower",
          "type": "int24"
        },
        {
          "internalType": "int24",
          "name": "tickUpper",
          "type": "int24"
        }
      ],
      "name": "getExtrapolatedValuesInside",
      "outputs": [
        {
          "components": [
            {
              "internalType": "int256",
              "name": "sumAX128",
              "type": "int256"
            },
            {
              "internalType": "int256",
              "name": "sumBInsideX128",
              "type": "int256"
            },
            {
              "internalType": "int256",
              "name": "sumFpInsideX128",
              "type": "int256"
            },
            {
              "internalType": "uint256",
              "name": "sumFeeInsideX128",
              "type": "uint256"
            }
          ],
          "internalType": "struct IVPoolWrapper.WrapperValuesInside",
          "name": "wrapperValuesInside",
          "type": "tuple"
        }
      ],
      "stateMutability": "view",
      "type": "function"
    },
    {
      "inputs": [],
      "name": "getFundingRateAndVirtualPrice",
      "outputs": [
        {
          "internalType": "int256",
          "name": "fundingRateX128",
          "type": "int256"
        },
        {
          "internalType": "uint256",
          "name": "virtualPriceX128",
          "type": "uint256"
        }
      ],
      "stateMutability": "view",
      "type": "function"
    },
    {
      "inputs": [],
      "name": "getSumAX128",
      "outputs": [
        {
          "internalType": "int256",
          "name": "",
          "type": "int256"
        }
      ],
      "stateMutability": "view",
      "type": "function"
    },
    {
      "inputs": [
        {
          "internalType": "int24",
          "name": "tickLower",
          "type": "int24"
        },
        {
          "internalType": "int24",
          "name": "tickUpper",
          "type": "int24"
        }
      ],
      "name": "getValuesInside",
      "outputs": [
        {
          "components": [
            {
              "internalType": "int256",
              "name": "sumAX128",
              "type": "int256"
            },
            {
              "internalType": "int256",
              "name": "sumBInsideX128",
              "type": "int256"
            },
            {
              "internalType": "int256",
              "name": "sumFpInsideX128",
              "type": "int256"
            },
            {
              "internalType": "uint256",
              "name": "sumFeeInsideX128",
              "type": "uint256"
            }
          ],
          "internalType": "struct IVPoolWrapper.WrapperValuesInside",
          "name": "wrapperValuesInside",
          "type": "tuple"
        }
      ],
      "stateMutability": "view",
      "type": "function"
    },
    {
      "inputs": [
        {
          "components": [
            {
              "internalType": "address",
              "name": "clearingHouse",
              "type": "address"
            },
            {
              "internalType": "contract IVToken",
              "name": "vToken",
              "type": "address"
            },
            {
              "internalType": "contract IVQuote",
              "name": "vQuote",
              "type": "address"
            },
            {
              "internalType": "contract IUniswapV3Pool",
              "name": "vPool",
              "type": "address"
            },
            {
              "internalType": "uint24",
              "name": "liquidityFeePips",
              "type": "uint24"
            },
            {
              "internalType": "uint24",
              "name": "protocolFeePips",
              "type": "uint24"
            }
          ],
          "internalType": "struct IVPoolWrapper.InitializeVPoolWrapperParams",
          "name": "params",
          "type": "tuple"
        }
      ],
      "name": "initialize",
      "outputs": [],
      "stateMutability": "nonpayable",
      "type": "function"
    },
    {
      "inputs": [],
      "name": "liquidityFeePips",
      "outputs": [
        {
          "internalType": "uint24",
          "name": "",
          "type": "uint24"
        }
      ],
      "stateMutability": "view",
      "type": "function"
    },
    {
      "inputs": [
        {
          "internalType": "int24",
          "name": "tickLower",
          "type": "int24"
        },
        {
          "internalType": "int24",
          "name": "tickUpper",
          "type": "int24"
        },
        {
          "internalType": "uint128",
          "name": "liquidity",
          "type": "uint128"
        }
      ],
      "name": "mint",
      "outputs": [
        {
          "internalType": "uint256",
          "name": "vTokenPrincipal",
          "type": "uint256"
        },
        {
          "internalType": "uint256",
          "name": "vQuotePrincipal",
          "type": "uint256"
        },
        {
          "components": [
            {
              "internalType": "int256",
              "name": "sumAX128",
              "type": "int256"
            },
            {
              "internalType": "int256",
              "name": "sumBInsideX128",
              "type": "int256"
            },
            {
              "internalType": "int256",
              "name": "sumFpInsideX128",
              "type": "int256"
            },
            {
              "internalType": "uint256",
              "name": "sumFeeInsideX128",
              "type": "uint256"
            }
          ],
          "internalType": "struct IVPoolWrapper.WrapperValuesInside",
          "name": "wrapperValuesInside",
          "type": "tuple"
        }
      ],
      "stateMutability": "nonpayable",
      "type": "function"
    },
    {
      "inputs": [],
      "name": "protocolFeePips",
      "outputs": [
        {
          "internalType": "uint24",
          "name": "",
          "type": "uint24"
        }
      ],
      "stateMutability": "view",
      "type": "function"
    },
    {
      "inputs": [
        {
          "internalType": "int256",
          "name": "fundingRateOverrideX128_",
          "type": "int256"
        }
      ],
      "name": "setFundingRateOverride",
      "outputs": [],
      "stateMutability": "nonpayable",
      "type": "function"
    },
    {
      "inputs": [
        {
          "internalType": "uint24",
          "name": "liquidityFeePips_",
          "type": "uint24"
        }
      ],
      "name": "setLiquidityFee",
      "outputs": [],
      "stateMutability": "nonpayable",
      "type": "function"
    },
    {
      "inputs": [
        {
          "internalType": "uint24",
          "name": "protocolFeePips_",
          "type": "uint24"
        }
      ],
      "name": "setProtocolFee",
      "outputs": [],
      "stateMutability": "nonpayable",
      "type": "function"
    },
    {
      "inputs": [],
      "name": "sumFeeGlobalX128",
      "outputs": [
        {
          "internalType": "uint256",
          "name": "",
          "type": "uint256"
        }
      ],
      "stateMutability": "view",
      "type": "function"
    },
    {
      "inputs": [
        {
          "internalType": "bool",
          "name": "swapVTokenForVQuote",
          "type": "bool"
        },
        {
          "internalType": "int256",
          "name": "amountSpecified",
          "type": "int256"
        },
        {
          "internalType": "uint160",
          "name": "sqrtPriceLimitX96",
          "type": "uint160"
        }
      ],
      "name": "swap",
      "outputs": [
        {
          "components": [
            {
              "internalType": "int256",
              "name": "amountSpecified",
              "type": "int256"
            },
            {
              "internalType": "int256",
              "name": "vTokenIn",
              "type": "int256"
            },
            {
              "internalType": "int256",
              "name": "vQuoteIn",
              "type": "int256"
            },
            {
              "internalType": "uint256",
              "name": "liquidityFees",
              "type": "uint256"
            },
            {
              "internalType": "uint256",
              "name": "protocolFees",
              "type": "uint256"
            },
            {
              "internalType": "uint160",
              "name": "sqrtPriceX96Start",
              "type": "uint160"
            },
            {
              "internalType": "uint160",
              "name": "sqrtPriceX96End",
              "type": "uint160"
            }
          ],
          "internalType": "struct IVPoolWrapper.SwapResult",
          "name": "swapResult",
          "type": "tuple"
        }
      ],
      "stateMutability": "nonpayable",
      "type": "function"
    },
    {
      "inputs": [
        {
          "internalType": "int24",
          "name": "",
          "type": "int24"
        }
      ],
      "name": "ticksExtended",
      "outputs": [
        {
          "internalType": "int256",
          "name": "sumALastX128",
          "type": "int256"
        },
        {
          "internalType": "int256",
          "name": "sumBOutsideX128",
          "type": "int256"
        },
        {
          "internalType": "int256",
          "name": "sumFpOutsideX128",
          "type": "int256"
        },
        {
          "internalType": "uint256",
          "name": "sumFeeOutsideX128",
          "type": "uint256"
        }
      ],
      "stateMutability": "view",
      "type": "function"
    },
    {
      "inputs": [
        {
          "internalType": "uint256",
          "name": "vTokenAmount",
          "type": "uint256"
        },
        {
          "internalType": "uint256",
          "name": "vQuoteAmount",
          "type": "uint256"
        },
        {
          "internalType": "bytes",
          "name": "",
          "type": "bytes"
        }
      ],
      "name": "uniswapV3MintCallback",
      "outputs": [],
      "stateMutability": "nonpayable",
      "type": "function"
    },
    {
      "inputs": [
        {
          "internalType": "int256",
          "name": "amount0Delta",
          "type": "int256"
        },
        {
          "internalType": "int256",
          "name": "amount1Delta",
          "type": "int256"
        },
        {
          "internalType": "bytes",
          "name": "",
          "type": "bytes"
        }
      ],
      "name": "uniswapV3SwapCallback",
      "outputs": [],
      "stateMutability": "nonpayable",
      "type": "function"
    },
    {
      "inputs": [
        {
          "internalType": "bool",
          "name": "useZeroFundingRate",
          "type": "bool"
        }
      ],
      "name": "updateGlobalFundingState",
      "outputs": [],
      "stateMutability": "nonpayable",
      "type": "function"
    },
    {
      "inputs": [],
      "name": "vPool",
      "outputs": [
        {
          "internalType": "contract IUniswapV3Pool",
          "name": "",
          "type": "address"
        }
      ],
      "stateMutability": "view",
      "type": "function"
    },
    {
      "inputs": [],
      "name": "vQuote",
      "outputs": [
        {
          "internalType": "contract IVQuote",
          "name": "",
          "type": "address"
        }
      ],
      "stateMutability": "view",
      "type": "function"
    },
    {
      "inputs": [],
      "name": "vToken",
      "outputs": [
        {
          "internalType": "contract IVToken",
          "name": "",
          "type": "address"
        }
      ],
      "stateMutability": "view",
      "type": "function"
    }
  ],
  "bytecode": "0x608060405234801561001057600080fd5b50614dfd806100206000396000f3fe608060405234801561001057600080fd5b50600436106101cf5760003560e01c80637feedaa111610104578063a3c35e2c116100a2578063dbd035ff11610071578063dbd035ff14610457578063fa461e3314610477578063fb7e3e241461048a578063fca6fbf2146104a757600080fd5b8063a3c35e2c1461041f578063acfd792814610432578063c04b98c41461043b578063d34879971461044457600080fd5b80639bb1a99c116100de5780639bb1a99c146103de5780639f883c12146103f1578063a34123a714610404578063a3a1e7e91461041757600080fd5b80637feedaa11461038e57806386c8e9a7146103a15780638b1e9781146103cb57600080fd5b80634bc36bd6116101715780635e622abc1161014b5780635e622abc146103255780636719578c1461032d5780636c544335146103405780637779815c1461038657600080fd5b80634bc36bd6146102ea57806351240336146102fd57806356d15a881461031257600080fd5b80631e2eaeaf116101ad5780631e2eaeaf1461024c5780632a99a7921461026c5780633b231e011461028c57806348aaa8c01461029557600080fd5b80630af96800146101d4578063195cd92c1461020a5780631dce5fcf1461022a575b600080fd5b6000546101ed906201000090046001600160a01b031681565b6040516001600160a01b0390911681526020015b60405180910390f35b61021d610218366004614286565b6104bd565b60405161020191906142c8565b61023d610238366004614344565b61080e565b60405161020193929190614384565b61025e61025a3660046143c0565b5490565b604051908152602001610201565b61027f61027a3660046143d9565b6109f3565b6040516102019190614412565b61025e600a5481565b6102ca6102a336600461443d565b600b6020526000908152604090208054600182015460028301546003909301549192909184565b604080519485526020850193909352918301526060820152608001610201565b6002546101ed906001600160a01b031681565b61031061030b36600461445a565b610b1f565b005b610310610320366004614477565b610b8c565b61025e610d99565b6003546101ed906001600160a01b031681565b60055460065460075460085461035e9392919065ffffffffffff1684565b6040805194855260208501939093529183015265ffffffffffff166060820152608001610201565b60055461025e565b61031061039c3660046144a0565b610e20565b6003546103b790600160a01b900462ffffff1681565b60405162ffffff9091168152602001610201565b6103106103d93660046144a0565b610f4d565b6001546101ed906001600160a01b031681565b6103106103ff3660046143c0565b611073565b61023d610412366004614344565b611242565b61025e61140c565b61027f61042d3660046143d9565b611440565b61025e60045481565b61025e60095481565b6103106104523660046144ff565b6115dd565b61046a610465366004614568565b6116e5565b6040516102019190614626565b6103106104853660046144ff565b611713565b6104926118dc565b60408051928352602083019190915201610201565b6003546103b790600160b81b900462ffffff1681565b61050f6040518060e00160405280600081526020016000815260200160008152602001600081526020016000815260200160006001600160a01b0316815260200160006001600160a01b031681525090565b6000546201000090046001600160a01b0316331461054057604051638597d08b60e01b815260040160405180910390fd5b600080841215906001600160a01b038416900361059357846105805761057b600173fffd8963efd1fc6a506488495d951d5263988d26614680565b610590565b6105906401000276a360016146a8565b92505b8382526003546105c190829087906101f49062ffffff600160a01b8204811691600160b81b90041687611a1e565b60408051610100810182526000808252602082018190529181018290526060810182905260c0810182905260e08101829052600a60808201526101f460a0820152908061060c6118dc565b60c0850181905260e085018290529092509050845160035460009182918291610645916001600160a01b0316908d908c8a611ac5611c3d565b92509250925085600001518860a001906001600160a01b031690816001600160a01b03168152505080604001518860c001906001600160a01b031690816001600160a01b031681525050600360009054906101000a90046001600160a01b03166001600160a01b031663128acb08308d8b600001518d6040518563ffffffff1660e01b815260040161070f94939291906001600160a01b03948516815292151560208401526040830191909152909116606082015260a06080820181905260009082015260c00190565b60408051808303816000875af115801561072d573d6000803e3d6000fd5b505050506040513d601f19601f8201168201806040525081019061075191906146d3565b60408a0152602089018190528314801561076e5750876040015182145b61077a5761077a6146f7565b50506003546107ab94508593508992506101f4915062ffffff600160a01b8204811691600160b81b900416876123f0565b8160800151600460008282546107c1919061470d565b909155506107cf9050612500565b7f374e2c00db0195ec47718dc83fbed946c07c24c240e8332e547d9b4ac086fd47826040516107fe91906142c8565b60405180910390a1509392505050565b60008061083c6040518060800160405280600081526020016000815260200160008152602001600081525090565b6000546201000090046001600160a01b0316331461086d57604051638597d08b60e01b815260040160405180910390fd5b85858060020b8260020b12158061088b5750620d89e719600283900b125b806108a7575061089e620d89e719614725565b60020b8160020b135b806108be57506108b8600a8361475d565b60020b15155b806108d557506108cf600a8261475d565b60020b15155b156109065760405163957b5ed560e01b8152600283810b600483015282900b60248201526044015b60405180910390fd5b61090e6126a3565b61093f8888610925896001600160801b03166126cc565b60035461093a906001600160a01b031661270a565b61277b565b600354604051633c8a7d8d60e01b815230600482015260028b810b60248301528a900b60448201526001600160801b038916606482015260a06084820152600060a4820181905292955082916001600160a01b031690633c8a7d8d9060c40160408051808303816000875af11580156109bc573d6000803e3d6000fd5b505050506040513d601f19601f820116820180604052508101906109e091906146d3565b909b909a50949850939650505050505050565b610a1e6040518060800160405280600081526020016000815260200160008152602001600081525090565b60035460408051633850c7bd60e01b815290516000926001600160a01b031691633850c7bd9160048083019260e09291908290030181865afa158015610a68573d6000803e3d6000fd5b505050506040513d601f19601f82011682018060405250810190610a8c919061479c565b505060408051608081018252600554815260065460208201526007549181019190915260085465ffffffffffff166060820152939550929350610ad2925061140c915050565b808252600554600654600754610ae7936128cc565b604082015280518352600954610b0790600b9087908790869086906128fc565b60608601526040850152602084015250909392505050565b6000546201000090046001600160a01b03163314610b5057604051638597d08b60e01b815260040160405180910390fd5b600080610b5b6118dc565b91509150610b8760006001610b6d4290565b86610b785785610b7b565b60005b60059392919086612a54565b505050565b600054610100900460ff16610ba75760005460ff1615610bab565b303b155b610c0e5760405162461bcd60e51b815260206004820152602e60248201527f496e697469616c697a61626c653a20636f6e747261637420697320616c72656160448201526d191e481a5b9a5d1a585b1a5e995960921b60648201526084016108fd565b600054610100900460ff16158015610c30576000805461ffff19166101011790555b610c3d6020830183614834565b600080546001600160a01b0392909216620100000262010000600160b01b0319909216919091179055610c766040830160208401614834565b600180546001600160a01b0319166001600160a01b0392909216919091179055610ca66060830160408401614834565b600280546001600160a01b0319166001600160a01b0392909216919091179055610cd66080830160608401614834565b600380546001600160a01b0319166001600160a01b0392909216919091179055610d0660a08301608084016144a0565b6003805462ffffff92909216600160a01b0262ffffff60a01b19909216919091179055610d3960c0830160a084016144a0565b6003805462ffffff92909216600160b81b0262ffffff60b81b199092169190911790556001600160ff1b03600a55610d8360006001610d754290565b600592919060006001612a54565b8015610d95576000805461ff00191690555b5050565b600080546201000090046001600160a01b03163314610dcb57604051638597d08b60e01b815260040160405180910390fd5b60045415610dea576001600454610de29190614851565b600160045590505b6040518181527f889bbef14ccbbb6f97773359c9c09396f67ed97695236771816a304ec5d886119060200160405180910390a190565b600060029054906101000a90046001600160a01b03166001600160a01b0316635aa6e6756040518163ffffffff1660e01b8152600401602060405180830381865afa158015610e73573d6000803e3d6000fd5b505050506040513d601f19601f82011682018060405250810190610e979190614868565b6001600160a01b0316336001600160a01b031614610ec857604051632d5be4cb60e21b815260040160405180910390fd5b620186a062ffffff82161115610ef457604051636a098dd160e11b8152602060048201526024016108fd565b6003805462ffffff60b81b1916600160b81b62ffffff8416908102919091179091556040519081527f2edf7eef14cb246dab2aac555e300928981632918159d9e33fcaa24dcd38cb40906020015b60405180910390a150565b600060029054906101000a90046001600160a01b03166001600160a01b0316635aa6e6756040518163ffffffff1660e01b8152600401602060405180830381865afa158015610fa0573d6000803e3d6000fd5b505050506040513d601f19601f82011682018060405250810190610fc49190614868565b6001600160a01b0316336001600160a01b031614610ff557604051632d5be4cb60e21b815260040160405180910390fd5b620186a062ffffff8216111561102157604051636a098dd160e11b8152601060048201526024016108fd565b6003805462ffffff60a01b1916600160a01b62ffffff8416908102919091179091556040519081527f5e286c9a939d59334080ddf15517957037c2228384e26bb92a368ce44c531edd90602001610f42565b600060029054906101000a90046001600160a01b03166001600160a01b0316635aa6e6756040518163ffffffff1660e01b8152600401602060405180830381865afa1580156110c6573d6000803e3d6000fd5b505050506040513d601f19601f820116820180604052508101906110ea9190614868565b6001600160a01b0316336001600160a01b0316141580156111935750600060029054906101000a90046001600160a01b03166001600160a01b031663dbc0c0856040518163ffffffff1660e01b8152600401602060405180830381865afa158015611159573d6000803e3d6000fd5b505050506040513d601f19601f8201168201806040525081019061117d9190614868565b6001600160a01b0316336001600160a01b031614155b156111b1576040516352d335a760e01b815260040160405180910390fd5b60006111bc82612b65565b90506001600160ff1b0382141580156111e557506111e26301e13380600160801b614885565b81115b1561120657604051636a098dd160e11b8152603060048201526024016108fd565b600a8290556040518281527fe71127eab59a3a0c0415330d6b03fb027923dc6710978f16940a31355cbf83e89060200160405180910390a15050565b6000806112706040518060800160405280600081526020016000815260200160008152602001600081525090565b6000546201000090046001600160a01b031633146112a157604051638597d08b60e01b815260040160405180910390fd5b85858060020b8260020b1215806112bf5750620d89e719600283900b125b806112db57506112d2620d89e719614725565b60020b8160020b135b806112f257506112ec600a8361475d565b60020b15155b806113095750611303600a8261475d565b60020b15155b156113355760405163957b5ed560e01b8152600283810b600483015282900b60248201526044016108fd565b61133d6126a3565b61135d8888611354896001600160801b03166126cc565b61092590614899565b60035460405163a34123a760e01b815260028b810b60048301528a900b60248201526001600160801b038916604482015291945060009182916001600160a01b03169063a34123a79060640160408051808303816000875af11580156113c7573d6000803e3d6000fd5b505050506040513d601f19601f820116820180604052508101906113eb91906146d3565b915091508196508095506113ff8a8a612b76565b5050505093509350939050565b60008060006114196118dc565b6005546008549294509092506114399165ffffffffffff16428585612c13565b9250505090565b61146b6040518060800160405280600081526020016000815260200160008152602001600081525090565b82828060020b8260020b1215806114895750620d89e719600283900b125b806114a5575061149c620d89e719614725565b60020b8160020b135b806114bc57506114b6600a8361475d565b60020b15155b806114d357506114cd600a8261475d565b60020b15155b156114ff5760405163957b5ed560e01b8152600283810b600483015282900b60248201526044016108fd565b60035460408051633850c7bd60e01b815290516000926001600160a01b031691633850c7bd9160048083019260e09291908290030181865afa158015611549573d6000803e3d6000fd5b505050506040513d601f19601f8201168201806040525081019061156d919061479c565b50506040805160808101825260055480825260065460208301526007549282019290925260085465ffffffffffff166060820152908a5260095494965094506115c393600b93508b92508a9150869086906128fc565b606088015260408701526020860152509295945050505050565b6003546001600160a01b03163314611608576040516308458b2b60e21b815260040160405180910390fd5b8215611673576002546040516340c10f1960e01b8152336004820152602481018590526001600160a01b03909116906340c10f1990604401600060405180830381600087803b15801561165a57600080fd5b505af115801561166e573d6000803e3d6000fd5b505050505b83156116df576001546040516340c10f1960e01b8152336004820152602481018690526001600160a01b03909116906340c10f19906044015b600060405180830381600087803b1580156116c657600080fd5b505af11580156116da573d6000803e3d6000fd5b505050505b50505050565b606060208251028201602001602083015b8181101561170b5780515481526020016116f6565b509192915050565b6003546001600160a01b0316331461173e576040516308458b2b60e21b815260040160405180910390fd5b600084131561182457600360009054906101000a90046001600160a01b03166001600160a01b0316630dfe16816040518163ffffffff1660e01b8152600401602060405180830381865afa15801561179a573d6000803e3d6000fd5b505050506040513d601f19601f820116820180604052508101906117be9190614868565b6003546040516340c10f1960e01b81526001600160a01b039182166004820152602481018790529116906340c10f1990604401600060405180830381600087803b15801561180b57600080fd5b505af115801561181f573d6000803e3d6000fd5b505050505b60008313156116df57600360009054906101000a90046001600160a01b03166001600160a01b031663d21220a76040518163ffffffff1660e01b8152600401602060405180830381865afa158015611880573d6000803e3d6000fd5b505050506040513d601f19601f820116820180604052508101906118a49190614868565b6003546040516340c10f1960e01b81526001600160a01b039182166004820152602481018690529116906340c10f19906044016116ac565b600a5460015460009182916001600160ff1b038214908390611906906001600160a01b0316612c35565b6000546040516367260c6f60e11b815263ffffffff831660048201529192506201000090046001600160a01b03169063ce4c18de90602401602060405180830381865afa15801561195b573d6000803e3d6000fd5b505050506040513d601f19601f8201168201806040525081019061197f91906148bf565b93508115611a13576000805460405163706bdd2560e01b815263ffffffff84166004820152620100009091046001600160a01b03169063706bdd2590602401602060405180830381865afa1580156119db573d6000803e3d6000fd5b505050506040513d601f19601f820116820180604052508101906119ff91906148bf565b9050611a0b8186612c43565b955050611a17565b8294505b5050509091565b8515611a7f578415611a3d578051611a369085612c81565b8152611abd565b8051611a4c9060028585612cc4565b60808301819052606083018290528251611a72929091611a6b9161470d565b6001612def565b808252611a369085612c81565b8415611abd578051611a949060018585612cc4565b60808301819052606083018290528251611aba929091611ab39161470d565b6000612def565b81525b505050505050565b60008085611adc578260a001518360800151611ae7565b82608001518360a001515b915091506000611b1a611af983612e33565b60035460009062ffffff600160a01b8204811691600160b81b900416612cc4565b50905060008560c001516001600160801b0316118015611b3a5750600083115b15611bc35760c086015160e0870151611b8b89611b6857611b5a86612e33565b611b63906148d8565b611b71565b611b7186612e33565b60c0890151600591906001600160801b0316428587612a54565b60c0870151611baa908490600160801b906001600160801b0316612e5c565b60096000828254611bbb919061470d565b909155505050505b83606001516001600160a01b031685604001516001600160a01b031603611c3457836040015115611c3457602080850151604080516080810182526005548152600654938101939093526007549083015260085465ffffffffffff166060830152600954611c3492600b9291612f0e565b50505050505050565b6040805160e081018252600080825260208201819052918101829052606081018290526080810182905260a0810182905260c08101829052819086600003611c9857604051631f2a200560e01b815260040160405180910390fd5b84516001600160a01b0316600003611d2c57886001600160a01b0316633850c7bd6040518163ffffffff1660e01b815260040160e060405180830381865afa158015611ce8573d6000803e3d6000fd5b505050506040513d601f19601f82011682018060405250810190611d0c919061479c565b5060ff1660408b015250505060020b60208701526001600160a01b031685525b84606001516001600160801b0316600003611db257886001600160a01b0316631a6865026040518163ffffffff1660e01b8152600401602060405180830381865afa158015611d7f573d6000803e3d6000fd5b505050506040513d601f19601f82011682018060405250810190611da391906148f4565b6001600160801b031660608601525b846080015160020b600003611e9f57886001600160a01b031663ddca3f436040518163ffffffff1660e01b8152600401602060405180830381865afa158015611dff573d6000803e3d6000fd5b505050506040513d601f19601f82011682018060405250810190611e239190614911565b62ffffff1660a0860152604080516334324e9f60e21b815290516001600160a01b038b169163d0c93a7c9160048083019260209291908290030181865afa158015611e72573d6000803e3d6000fd5b505050506040513d601f19601f82011682018060405250810190611e96919061492e565b60020b60808601525b87611ee95784600001516001600160a01b0316866001600160a01b03161080611ee4575073fffd8963efd1fc6a506488495d951d5263988d266001600160a01b038716115b611f1a565b84600001516001600160a01b0316866001600160a01b03161180611f1a57506401000276a36001600160a01b038716105b15611f43576040516328da8b5760e11b81526001600160a01b03871660048201526024016108fd565b600080881390506040518060e001604052808981526020016000815260200187600001516001600160a01b03168152602001876020015160020b81526020016000815260200160006001600160801b0316815260200187606001516001600160801b031681525091505b815115801590611fd35750866001600160a01b031682604001516001600160a01b031614155b156123aa576040805160e081018252600080825260208201819052918101829052606081018290526080810182905260a0810182905260c081019190915260408301516001600160a01b03908116825260608401516080890151612040928e1691635339c296918e612f8f565b1515604083015260020b60208201819052620d89e719131561206b57620d89e719602082015261209f565b612078620d89e719614725565b60020b816020015160020b131561209f57612096620d89e719614725565b60020b60208201525b6120ac81602001516131fb565b6001600160a01b031660608201526040830151612121908b6120e657896001600160a01b031683606001516001600160a01b031611612100565b896001600160a01b031683606001516001600160a01b0316105b61210e578260600151612110565b895b60c0860151865160a08c015161351e565b60c085015260a084015260808301526001600160a01b031660408401528115612199576121608160c00151826080015161215b919061470d565b613710565b8351849061216f90839061494b565b90525060a081015161218090613710565b836020015161218f919061494b565b60208401526121e4565b6121a68160a00151613710565b835184906121b590839061498a565b90525060c081015160808201516121cf9161215b9161470d565b83602001516121de919061498a565b60208401525b60c08301516001600160801b03161561222c576122178160c00151600160801b8560c001516001600160801b0316612e5c565b83608001818151612228919061470d565b9052505b61223c8a8885848a63ffffffff16565b80606001516001600160a01b031683604001516001600160a01b03160361236d5780604001511561234057602081015160405163f30dba9360e01b815260029190910b60048201526000906001600160a01b038d169063f30dba939060240161010060405180830381865afa1580156122b9573d6000803e3d6000fd5b505050506040513d601f19601f820116820180604052508101906122dd91906149cb565b5050505050509150508a156122f8576122f581614899565b90505b600081600f0b1261231857808460c001516123139190614a79565b612330565b61232181614899565b8460c001516123309190614a9b565b6001600160801b031660c0850152505b8961234f578060200151612360565b600181602001516123609190614abb565b60020b60608401526123a4565b80600001516001600160a01b031683604001516001600160a01b0316146123a45761239b8360400151613722565b60020b60608401525b50611fad565b801515891515146123cb57602082015182516123c6908a61494b565b6123dd565b81516123d7908961494b565b82602001515b909b909a50919850909650505050505050565b851561247a57841561244d5761240a816020015185613a28565b602082015260408101516124219060008585612cc4565b60808301819052606083018290526040830151612443929091611a6b9161470d565b6040820152611abd565b61245b816040015185613a28565b60408201819052608082015160608301516124439291611ab39161470d565b846124c35761248d816040015185613a28565b604082018190526124a19060008585612cc4565b60808301819052606083018290526040830151612443929091611ab39161470d565b6124d1816020015185613a28565b60208201526040810151608082015160608301516124f39291611a6b9161470d565b6040820152505050505050565b6002546040516370a0823160e01b81523060048201526000916001600160a01b0316906370a0823190602401602060405180830381865afa158015612549573d6000803e3d6000fd5b505050506040513d601f19601f8201168201806040525081019061256d91906148bf565b905080156125d457600254604051630852cd8d60e31b8152600481018390526001600160a01b03909116906342966c6890602401600060405180830381600087803b1580156125bb57600080fd5b505af11580156125cf573d6000803e3d6000fd5b505050505b6001546040516370a0823160e01b81523060048201526000916001600160a01b0316906370a0823190602401602060405180830381865afa15801561261d573d6000803e3d6000fd5b505050506040513d601f19601f8201168201806040525081019061264191906148bf565b90508015610d9557600154604051630852cd8d60e31b8152600481018390526001600160a01b03909116906342966c6890602401600060405180830381600087803b15801561268f57600080fd5b505af1158015611abd573d6000803e3d6000fd5b6000806126ae6118dc565b91509150610d95600060016126c04290565b60059291908686612a54565b60006001607f1b826001600160801b0316106127065760405163832da39d60e01b81526001600160801b03831660048201526024016108fd565b5090565b6000816001600160a01b0316633850c7bd6040518163ffffffff1660e01b815260040160e060405180830381865afa15801561274a573d6000803e3d6000fd5b505050506040513d601f19601f8201168201806040525081019061276e919061479c565b5093979650505050505050565b6127a66040518060800160405280600081526020016000815260200160008152602001600081525090565b60408051608081018252600554815260065460208201526007549181019190915260085465ffffffffffff166060820152600954600080600f87900b156128485783516020850151604086015160035461281693600b938e938c938e939291908b906001600160a01b0316613a4f565b84516020860151604087015160035493955061284593600b938d938c938e938b906001600160a01b0316613a4f565b90505b6128528989611440565b9450600087600f0b12156128c057811561289057600289810b6000908152600b60205260408120818155600181018290559182018190556003909101555b80156128c057600288810b6000908152600b60205260408120818155600181018290559182018190556003909101555b50505050949350505050565b60006128e76128db868461494b565b8590600160801b613b60565b6128f1908461498a565b90505b949350505050565b600285810b60009081526020889052604080822087840b835290822060018201548254948301548751949586958695949392869261293d92909185916128cc565b90506000846003015490508a60020b8d60020b131561298757828a60200151612966919061494b565b9250818a60400151612978919061494b565b9150612984818a614851565b90505b6001840154845460028601548c516000926129a69290918591906128cc565b90506000866003015490508d60020b8f60020b136129ef57828d602001516129ce919061494b565b9250818d604001516129e0919061494b565b91506129ec818d614851565b90505b82868e60200151612a00919061494b565b612a0a919061494b565b9a5081858e60400151612a1d919061494b565b612a27919061494b565b995080612a34858e614851565b612a3e9190614851565b9850505050505050505096509650969350505050565b6003860154600090612a709065ffffffffffff16858585613bbd565b6001880154909150612a88908290600160801b613be5565b876002016000828254612a9b919061498a565b9091555050865481908890600090612ab490849061498a565b90915550612ac9905086600160801b87613b60565b876001016000828254612adc919061498a565b909155505060038701805465ffffffffffff861665ffffffffffff199091168117909155604080518954815260018a0154602082015260028a01548183015260608101929092526080820185905260a08201849052517f62187ed3f133848cd15541a988e634a4c2e6a75750e025c69ea914b1ea2263cc9181900360c00190a150505050505050565b6000612b7082613c33565b92915050565b6003546040516309e3d67b60e31b8152306004820152600284810b602483015283900b60448201526001600160801b036064820181905260848201526001600160a01b0390911690634f1eb3d89060a40160408051808303816000875af1158015612be5573d6000803e3d6000fd5b505050506040513d601f19601f82011682018060405250810190612c099190614b03565b5050610d95612500565b6000612c2185858585613bbd565b612c2b908761498a565b9695505050505050565b600063ffffffff8216612b70565b600080612c4f84612e33565b612c5884612e33565b612c62919061494b565b905062015180612c7782600160801b87613c4a565b6128f49190614b32565b600080612c9183620f4240614b60565b60020b612ca362ffffff851686614b7c565b612cad9190614b32565b612cb890600161498a565b90506128f4818561498a565b6000806000612cd287613c33565b90506001866002811115612ce857612ce8614c01565b03612d285783612cfb86620f4240614b60565b612d059190614b60565b62ffffff16612d1782620f4240614c17565b612d219190614885565b9050612d78565b6002866002811115612d3c57612d3c614c01565b03612d785783612d4f86620f4240614c36565b612d599190614c36565b62ffffff16612d6b82620f4240614c17565b612d759190614885565b90505b6000620f4240612d888688614c36565b612d979062ffffff1684614c17565b612da19190614885565b612dac90600161470d565b9050620f4240612dc162ffffff881684614c17565b612dcb9190614885565b612dd690600161470d565b9350612de28482614851565b9250505094509492505050565b600080826001811115612e0457612e04614c01565b146000851303612e1f57612e18838561498a565b9050612e2c565b612e29838561494b565b90505b9392505050565b6000600160ff1b8210612706576040516320c82def60e21b8152600481018390526024016108fd565b6000808060001985870985870292508281108382030391505080600003612e955760008411612e8a57600080fd5b508290049050612e2c565b808411612ea157600080fd5b6000848688096000868103871696879004966002600389028118808a02820302808a02820302808a02820302808a02820302808a02820302808a02909103029181900381900460010186841190950394909402919094039290920491909117919091029150509392505050565b600283810b6000908152602086905260408120805460018201549382015486519294612f3c939091906128cc565b8451835560018301546020860151919250612f569161494b565b60018301556040840151612f6b90829061494b565b60028301556003820154612f7f9084614851565b8260030181905550505050505050565b60008080612f9d8587614c54565b905060008660020b128015612fbd5750612fb7858761475d565b60020b15155b15612fd05780612fcc81614c8e565b9150505b83156130d557600080612fe283613c87565b90925090506000600160ff831681901b90612ffd9082614851565b613007919061470d565b90506000818c8c866040518263ffffffff1660e01b8152600401613034919060019190910b815260200190565b602060405180830381865afa158015613051573d6000803e3d6000fd5b505050506040513d601f19601f8201168201806040525081019061307591906148bf565b16801515965090508561309f578861309060ff851687614abb565b61309a9190614cb1565b6130ca565b886130a982613ca4565b6130b39085614d3e565b6130c09060ff1687614abb565b6130ca9190614cb1565b9650505050506131f0565b6000806130eb6130e6846001614d61565b613c87565b90925090506000613103600160ff841681901b614851565b1990506000818c8c866040518263ffffffff1660e01b8152600401613131919060019190910b815260200190565b602060405180830381865afa15801561314e573d6000803e3d6000fd5b505050506040513d601f19601f8201168201806040525081019061317291906148bf565b1680151596509050856131b2578861318b8460ff614d3e565b60ff16613199876001614d61565b6131a39190614d61565b6131ad9190614cb1565b6131e9565b88836131bd83613d45565b6131c79190614d3e565b60ff166131d5876001614d61565b6131df9190614d61565b6131e99190614cb1565b9650505050505b509550959350505050565b60008060008360020b12613212578260020b61321a565b8260020b6000035b9050620d89e8811115613240576040516315e4079d60e11b815260040160405180910390fd5b60008160011660000361325757600160801b613269565b6ffffcb933bd6fad37aa2d162d1a5940015b70ffffffffffffffffffffffffffffffffff169050600282161561329d576ffff97272373d413259a46990580e213a0260801c5b60048216156132bc576ffff2e50f5f656932ef12357cf3c7fdcc0260801c5b60088216156132db576fffe5caca7e10e4e61c3624eaa0941cd00260801c5b60108216156132fa576fffcb9843d60f6159c9db58835c9266440260801c5b6020821615613319576fff973b41fa98c081472e6896dfb254c00260801c5b6040821615613338576fff2ea16466c96a3843ec78b326b528610260801c5b6080821615613357576ffe5dee046a99a2a811c461f1969c30530260801c5b610100821615613377576ffcbe86c7900a88aedcffc83b479aa3a40260801c5b610200821615613397576ff987a7253ac413176f2b074cf7815e540260801c5b6104008216156133b7576ff3392b0822b70005940c7a398e4b70f30260801c5b6108008216156133d7576fe7159475a2c29b7443b29c7fa6e889d90260801c5b6110008216156133f7576fd097f3bdfd2022b8845ad8f792aa58250260801c5b612000821615613417576fa9f746462d870fdf8a65dc1f90e061e50260801c5b614000821615613437576f70d869a156d2a1b890bb3df62baf32f70260801c5b618000821615613457576f31be135f97d08fd981231505542fcfa60260801c5b62010000821615613478576f09aa508b5b7a84e1c677de54f3e99bc90260801c5b62020000821615613498576e5d6af8dedb81196699c329225ee6040260801c5b620400008216156134b7576d2216e584f5fa1ea926041bedfe980260801c5b620800008216156134d4576b048a170391f7dc42444e8fa20260801c5b60008460020b13156134f55780600019816134f1576134f1614747565b0490505b64010000000081061561350957600161350c565b60005b60ff16602082901c0192505050919050565b60008080806001600160a01b03808916908a1610158187128015906135a35760006135578989620f42400362ffffff16620f4240612e5c565b9050826135705761356b8c8c8c6001613e2f565b61357d565b61357d8b8d8c6001613e9f565b955085811061358e578a965061359d565b61359a8c8b8386613f56565b96505b506135ed565b816135ba576135b58b8b8b6000613e9f565b6135c7565b6135c78a8c8b6000613e2f565b93508388600003106135db578995506135ed565b6135ea8b8a8a60000385613fa2565b95505b6001600160a01b038a81169087161482156136505780801561360c5750815b6136225761361d878d8c6001613e9f565b613624565b855b9550808015613631575081155b61364757613642878d8c6000613e2f565b613649565b845b945061369a565b80801561365a5750815b6136705761366b8c888c6001613e2f565b613672565b855b955080801561367f575081155b613695576136908c888c6000613e9f565b613697565b845b94505b811580156136aa57508860000385115b156136b6578860000394505b8180156136d557508a6001600160a01b0316876001600160a01b031614155b156136e4578589039350613701565b6136fe868962ffffff168a620f42400362ffffff16613fee565b93505b50505095509550955095915050565b6000600160ff1b821061270657600080fd5b60006401000276a36001600160a01b0383161080159061375e575073fffd8963efd1fc6a506488495d951d5263988d266001600160a01b038316105b61377b576040516324c070df60e11b815260040160405180910390fd5b640100000000600160c01b03602083901b166001600160801b03811160071b81811c67ffffffffffffffff811160061b90811c63ffffffff811160051b90811c61ffff811160041b90811c60ff8111600390811b91821c600f811160021b90811c918211600190811b92831c9790881196179094179092171790911717176080811061380f57607f810383901c9150613819565b80607f0383901b91505b908002607f81811c60ff83811c9190911c800280831c81831c1c800280841c81841c1c800280851c81851c1c800280861c81861c1c800280871c81871c1c800280881c81881c1c800280891c81891c1c8002808a1c818a1c1c8002808b1c818b1c1c8002808c1c818c1c1c8002808d1c818d1c1c8002808e1c9c81901c9c909c1c80029c8d901c9e9d607f198f0160401b60c09190911c678000000000000000161760c19b909b1c674000000000000000169a909a1760c29990991c672000000000000000169890981760c39790971c671000000000000000169690961760c49590951c670800000000000000169490941760c59390931c670400000000000000169290921760c69190911c670200000000000000161760c79190911c670100000000000000161760c89190911c6680000000000000161760c99190911c6640000000000000161760ca9190911c6620000000000000161760cb9190911c6610000000000000161760cc9190911c6608000000000000161760cd9190911c66040000000000001617693627a301d71055774c8581026f028f6481ab7f045a5af012a19d003aa9198101608090811d906fdb2df09e81959a81455e260799a0632f8301901d600281810b9083900b14613a1957886001600160a01b03166139fe826131fb565b6001600160a01b03161115613a135781613a1b565b80613a1b565b815b9998505050505050505050565b6000620f4240613a388382614b60565b613a459060020b85614b7c565b612e2c9190614b32565b600288900b600081815260208b90526040808220905163f30dba9360e01b81526004810193909352909182906001600160a01b0385169063f30dba939060240161010060405180830381865afa158015613aad573d6000803e3d6000fd5b505050506040513d601f19601f82011682018060405250810190613ad191906149cb565b5050505050505090506000808a600f0b12613af557613af08a83614a79565b613b08565b613afe8a614899565b613b089083614a9b565b6001600160801b0380821615908416801591909114159550909150600003613b50578a60020b8c60020b13613b50578883556001830188905560028301879055600383018690555b5050509998505050505050505050565b60006001818080613b71888561402e565b94509250613b7f878561402e565b94509150613b8d868561402e565b94509050613b9f61215b848484612e5c565b945083613bb257613baf856148d8565b94505b505050509392505050565b6000613bc98585614da8565b60050b613bdb8484600160801b613c4a565b6128f19190614b7c565b6000613bf2848484613b60565b9050600081128015613c225750613c22613c0b85612b65565b613c1485612b65565b613c1d85612b65565b61405b565b15612e2c57612e296000198261498a565b600080821361270657613c45826148d8565b612b70565b6000613c7361215b60008612613c605785613c6c565b613c6c86600019614b7c565b8585612e5c565b90506000841215612e2c57612e29816148d8565b600281900b60081d6000613c9d6101008461475d565b9050915091565b6000808211613cb257600080fd5b600160801b8210613cc557608091821c91015b680100000000000000008210613cdd57604091821c91015b6401000000008210613cf157602091821c91015b620100008210613d0357601091821c91015b6101008210613d1457600891821c91015b60108210613d2457600491821c91015b60048210613d3457600291821c91015b60028210613d40576001015b919050565b6000808211613d5357600080fd5b5060ff6001600160801b03821615613d6e57607f1901613d76565b608082901c91505b67ffffffffffffffff821615613d8f57603f1901613d97565b604082901c91505b63ffffffff821615613dac57601f1901613db4565b602082901c91505b61ffff821615613dc757600f1901613dcf565b601082901c91505b60ff821615613de15760071901613de9565b600882901c91505b600f821615613dfb5760031901613e03565b600482901c91505b6003821615613e155760011901613e1d565b600282901c91505b6001821615613d405760001901919050565b6000836001600160a01b0316856001600160a01b03161115613e4f579293925b81613e7c57613e77836001600160801b03168686036001600160a01b0316600160601b612e5c565b6128f1565b6128f1836001600160801b03168686036001600160a01b0316600160601b613fee565b6000836001600160a01b0316856001600160a01b03161115613ebf579293925b600160601b600160e01b03606084901b166001600160a01b038686038116908716613ee957600080fd5b83613f1f57866001600160a01b0316613f0c8383896001600160a01b0316612e5c565b81613f1957613f19614747565b04613f4b565b613f4b613f368383896001600160a01b0316613fee565b886001600160a01b0316808204910615150190565b979650505050505050565b600080856001600160a01b031611613f6d57600080fd5b6000846001600160801b031611613f8357600080fd5b81613f9557613e778585856001614074565b6128f1858585600161415a565b600080856001600160a01b031611613fb957600080fd5b6000846001600160801b031611613fcf57600080fd5b81613fe157613e77858585600061415a565b6128f18585856000614074565b6000613ffb848484612e5c565b90506000828061400d5761400d614747565b8486091115612e2c57600019811061402457600080fd5b6001019392505050565b600080600084121561404d57911591614046846148d8565b9150614051565b8391505b50815b9250929050565b600081838509801561406c57600191505b509392505050565b600081156140e65760006001600160a01b038411156140aa576140a584600160601b876001600160801b0316612e5c565b6140c1565b6140c16001600160801b038616606086901b614885565b90506140de6140d9826001600160a01b03891661470d565b61424a565b9150506128f4565b60006001600160a01b038411156141145761410f84600160601b876001600160801b0316613fee565b614131565b614131606085901b6001600160801b038716808204910615150190565b905080866001600160a01b03161161414857600080fd5b6001600160a01b0386160390506128f4565b60008260000361416b5750836128f4565b600160601b600160e01b03606085901b1682156141fd576001600160a01b0386168481029085828161419f5761419f614747565b04036141cf578181018281106141cd576141c383896001600160a01b031683613fee565b93505050506128f4565b505b506140de81856141e86001600160a01b038a1683614885565b6141f2919061470d565b808204910615150190565b6001600160a01b0386168481029085828161421a5761421a614747565b0414801561422757508082115b61423057600080fd5b8082036141c36140d9846001600160a01b038b1684613fee565b806001600160a01b0381168114613d4057600080fd5b801515811461426e57600080fd5b50565b6001600160a01b038116811461426e57600080fd5b60008060006060848603121561429b57600080fd5b83356142a681614260565b92506020840135915060408401356142bd81614271565b809150509250925092565b815181526020808301519082015260408083015190820152606080830151908201526080808301519082015260a0808301516001600160a01b039081169183019190915260c092830151169181019190915260e00190565b8060020b811461426e57600080fd5b6001600160801b038116811461426e57600080fd5b60008060006060848603121561435957600080fd5b833561436481614320565b9250602084013561437481614320565b915060408401356142bd8161432f565b8381526020810183905260c081016128f46040830184805182526020810151602083015260408101516040830152606081015160608301525050565b6000602082840312156143d257600080fd5b5035919050565b600080604083850312156143ec57600080fd5b82356143f781614320565b9150602083013561440781614320565b809150509250929050565b8151815260208083015190820152604080830151908201526060808301519082015260808101612b70565b60006020828403121561444f57600080fd5b8135612e2c81614320565b60006020828403121561446c57600080fd5b8135612e2c81614260565b600060c0828403121561448957600080fd5b50919050565b62ffffff8116811461426e57600080fd5b6000602082840312156144b257600080fd5b8135612e2c8161448f565b60008083601f8401126144cf57600080fd5b50813567ffffffffffffffff8111156144e757600080fd5b60208301915083602082850101111561405457600080fd5b6000806000806060858703121561451557600080fd5b8435935060208501359250604085013567ffffffffffffffff81111561453a57600080fd5b614546878288016144bd565b95989497509550505050565b634e487b7160e01b600052604160045260246000fd5b6000602080838503121561457b57600080fd5b823567ffffffffffffffff8082111561459357600080fd5b818501915085601f8301126145a757600080fd5b8135818111156145b9576145b9614552565b8060051b604051601f19603f830116810181811085821117156145de576145de614552565b6040529182528482019250838101850191888311156145fc57600080fd5b938501935b8285101561461a57843584529385019392850192614601565b98975050505050505050565b6020808252825182820181905260009190848201906040850190845b8181101561465e57835183529284019291840191600101614642565b50909695505050505050565b634e487b7160e01b600052601160045260246000fd5b60006001600160a01b03838116908316818110156146a0576146a061466a565b039392505050565b60006001600160a01b038281168482168083038211156146ca576146ca61466a565b01949350505050565b600080604083850312156146e657600080fd5b505080516020909101519092909150565b634e487b7160e01b600052600160045260246000fd5b600082198211156147205761472061466a565b500190565b60008160020b627fffff19810361473e5761473e61466a565b60000392915050565b634e487b7160e01b600052601260045260246000fd5b60008260020b8061477057614770614747565b808360020b0791505092915050565b805161ffff81168114613d4057600080fd5b8051613d4081614260565b600080600080600080600060e0888a0312156147b757600080fd5b87516147c281614271565b60208901519097506147d381614320565b95506147e16040890161477f565b94506147ef6060890161477f565b93506147fd6080890161477f565b925060a088015160ff8116811461481357600080fd5b60c089015190925061482481614260565b8091505092959891949750929550565b60006020828403121561484657600080fd5b8135612e2c81614271565b6000828210156148635761486361466a565b500390565b60006020828403121561487a57600080fd5b8151612e2c81614271565b60008261489457614894614747565b500490565b600081600f0b6f7fffffffffffffffffffffffffffffff19810361473e5761473e61466a565b6000602082840312156148d157600080fd5b5051919050565b6000600160ff1b82016148ed576148ed61466a565b5060000390565b60006020828403121561490657600080fd5b8151612e2c8161432f565b60006020828403121561492357600080fd5b8151612e2c8161448f565b60006020828403121561494057600080fd5b8151612e2c81614320565b60008083128015600160ff1b8501841216156149695761496961466a565b6001600160ff1b03840183138116156149845761498461466a565b50500390565b600080821280156001600160ff1b03849003851316156149ac576149ac61466a565b600160ff1b83900384128116156149c5576149c561466a565b50500190565b600080600080600080600080610100898b0312156149e857600080fd5b88516149f38161432f565b80985050602089015180600f0b8114614a0b57600080fd5b80975050604089015195506060890151945060808901518060060b8114614a3157600080fd5b60a08a0151909450614a4281614271565b60c08a015190935063ffffffff81168114614a5c57600080fd5b9150614a6a60e08a01614791565b90509295985092959890939650565b60006001600160801b038083168185168083038211156146ca576146ca61466a565b60006001600160801b03838116908316818110156146a0576146a061466a565b60008160020b8360020b6000811281627fffff1901831281151615614ae257614ae261466a565b81627fffff018313811615614af957614af961466a565b5090039392505050565b60008060408385031215614b1657600080fd5b8251614b218161432f565b60208401519092506144078161432f565b600082614b4157614b41614747565b600160ff1b821460001984141615614b5b57614b5b61466a565b500590565b600062ffffff838116908316818110156146a0576146a061466a565b60006001600160ff1b0381841382841380821686840486111615614ba257614ba261466a565b600160ff1b6000871282811687830589121615614bc157614bc161466a565b60008712925087820587128484161615614bdd57614bdd61466a565b87850587128184161615614bf357614bf361466a565b505050929093029392505050565b634e487b7160e01b600052602160045260246000fd5b6000816000190483118215151615614c3157614c3161466a565b500290565b600062ffffff8083168185168083038211156146ca576146ca61466a565b60008160020b8360020b80614c6b57614c6b614747565b627fffff19821460001982141615614c8557614c8561466a565b90059392505050565b60008160020b627fffff198103614ca757614ca761466a565b6000190192915050565b60008160020b8360020b627fffff600082136000841383830485118282161615614cdd57614cdd61466a565b627fffff196000851282811687830587121615614cfc57614cfc61466a565b60008712925085820587128484161615614d1857614d1861466a565b85850587128184161615614d2e57614d2e61466a565b5050509290910295945050505050565b600060ff821660ff841680821015614d5857614d5861466a565b90039392505050565b60008160020b8360020b6000821282627fffff03821381151615614d8757614d8761466a565b82627fffff19038212811615614d9f57614d9f61466a565b50019392505050565b600065ffffffffffff838116908316818110156146a0576146a061466a56fea2646970667358221220dc64be6efed769ee3a641b5031365a8c08ac2fb67362282109b6568d545b1e5f64736f6c634300080e0033",
  "linkReferences": {},
  "deployedLinkReferences": {}
}