{
  "_format": "hh-sol-artifact-1",
  "contractName": "BeyondPricer",
  "sourceName": "contracts/BeyondPricer.sol",
  "abi": [
    {
      "inputs": [
        {
          "internalType": "address",
          "name": "_authority",
          "type": "address"
        },
        {
          "internalType": "address",
          "name": "_protocol",
          "type": "address"
        },
        {
          "internalType": "address",
          "name": "_liquidityPool",
          "type": "address"
        },
        {
          "internalType": "uint256",
          "name": "_slippageGradient",
          "type": "uint256"
        },
        {
          "internalType": "uint256",
          "name": "_deltaBandWidth",
          "type": "uint256"
        },
        {
          "internalType": "uint256[]",
          "name": "_callSlippageGradientMultipliers",
          "type": "uint256[]"
        },
        {
          "internalType": "uint256[]",
          "name": "_putSlippageGradientMultipliers",
          "type": "uint256[]"
        }
      ],
      "stateMutability": "nonpayable",
      "type": "constructor"
    },
    {
      "inputs": [],
      "name": "IVNotFound",
      "type": "error"
    },
    {
      "inputs": [],
      "name": "InvalidSlippageGradientMultiplierValue",
      "type": "error"
    },
    {
      "inputs": [],
      "name": "InvalidSlippageGradientMultipliersArrayLength",
      "type": "error"
    },
    {
      "inputs": [],
      "name": "OptionExpiryInvalid",
      "type": "error"
    },
    {
      "inputs": [],
      "name": "PRBMathSD59x18__AbsInputTooSmall",
      "type": "error"
    },
    {
      "inputs": [
        {
          "internalType": "int256",
          "name": "x",
          "type": "int256"
        }
      ],
      "name": "PRBMathSD59x18__Exp2InputTooBig",
      "type": "error"
    },
    {
      "inputs": [
        {
          "internalType": "int256",
          "name": "x",
          "type": "int256"
        }
      ],
      "name": "PRBMathSD59x18__LogInputTooSmall",
      "type": "error"
    },
    {
      "inputs": [],
      "name": "PRBMathSD59x18__MulInputTooSmall",
      "type": "error"
    },
    {
      "inputs": [
        {
          "internalType": "uint256",
          "name": "rAbs",
          "type": "uint256"
        }
      ],
      "name": "PRBMathSD59x18__MulOverflow",
      "type": "error"
    },
    {
      "inputs": [
        {
          "internalType": "uint256",
          "name": "prod1",
          "type": "uint256"
        }
      ],
      "name": "PRBMath__MulDivFixedPointOverflow",
      "type": "error"
    },
    {
      "inputs": [],
      "name": "UNAUTHORIZED",
      "type": "error"
    },
    {
      "anonymous": false,
      "inputs": [
        {
          "indexed": false,
          "internalType": "contract IAuthority",
          "name": "authority",
          "type": "address"
        }
      ],
      "name": "AuthorityUpdated",
      "type": "event"
    },
    {
      "anonymous": false,
      "inputs": [
        {
          "indexed": false,
          "internalType": "uint256",
          "name": "newFeePerContract",
          "type": "uint256"
        },
        {
          "indexed": false,
          "internalType": "uint256",
          "name": "oldFeePerContract",
          "type": "uint256"
        }
      ],
      "name": "FeePerContractChanged",
      "type": "event"
    },
    {
      "inputs": [],
      "name": "authority",
      "outputs": [
        {
          "internalType": "contract IAuthority",
          "name": "",
          "type": "address"
        }
      ],
      "stateMutability": "view",
      "type": "function"
    },
    {
      "inputs": [],
      "name": "bidAskIVSpread",
      "outputs": [
        {
          "internalType": "uint256",
          "name": "",
          "type": "uint256"
        }
      ],
      "stateMutability": "view",
      "type": "function"
    },
    {
      "inputs": [
        {
          "internalType": "uint256",
          "name": "",
          "type": "uint256"
        }
      ],
      "name": "callSlippageGradientMultipliers",
      "outputs": [
        {
          "internalType": "uint256",
          "name": "",
          "type": "uint256"
        }
      ],
      "stateMutability": "view",
      "type": "function"
    },
    {
      "inputs": [],
      "name": "collateralAsset",
      "outputs": [
        {
          "internalType": "address",
          "name": "",
          "type": "address"
        }
      ],
      "stateMutability": "view",
      "type": "function"
    },
    {
      "inputs": [],
      "name": "deltaBandWidth",
      "outputs": [
        {
          "internalType": "uint256",
          "name": "",
          "type": "uint256"
        }
      ],
      "stateMutability": "view",
      "type": "function"
    },
    {
      "inputs": [],
      "name": "feePerContract",
      "outputs": [
        {
          "internalType": "uint256",
          "name": "",
          "type": "uint256"
        }
      ],
      "stateMutability": "view",
      "type": "function"
    },
    {
      "inputs": [],
      "name": "liquidityPool",
      "outputs": [
        {
          "internalType": "contract ILiquidityPool",
          "name": "",
          "type": "address"
        }
      ],
      "stateMutability": "view",
      "type": "function"
    },
    {
      "inputs": [],
      "name": "protocol",
      "outputs": [
        {
          "internalType": "contract Protocol",
          "name": "",
          "type": "address"
        }
      ],
      "stateMutability": "view",
      "type": "function"
    },
    {
      "inputs": [
        {
          "internalType": "uint256",
          "name": "",
          "type": "uint256"
        }
      ],
      "name": "putSlippageGradientMultipliers",
      "outputs": [
        {
          "internalType": "uint256",
          "name": "",
          "type": "uint256"
        }
      ],
      "stateMutability": "view",
      "type": "function"
    },
    {
      "inputs": [
        {
          "components": [
            {
              "internalType": "uint64",
              "name": "expiration",
              "type": "uint64"
            },
            {
              "internalType": "uint128",
              "name": "strike",
              "type": "uint128"
            },
            {
              "internalType": "bool",
              "name": "isPut",
              "type": "bool"
            },
            {
              "internalType": "address",
              "name": "underlying",
              "type": "address"
            },
            {
              "internalType": "address",
              "name": "strikeAsset",
              "type": "address"
            },
            {
              "internalType": "address",
              "name": "collateral",
              "type": "address"
            }
          ],
          "internalType": "struct Types.OptionSeries",
          "name": "_optionSeries",
          "type": "tuple"
        },
        {
          "internalType": "uint256",
          "name": "_amount",
          "type": "uint256"
        },
        {
          "internalType": "bool",
          "name": "isSell",
          "type": "bool"
        },
        {
          "internalType": "int256",
          "name": "netDhvExposure",
          "type": "int256"
        }
      ],
      "name": "quoteOptionPrice",
      "outputs": [
        {
          "internalType": "uint256",
          "name": "totalPremium",
          "type": "uint256"
        },
        {
          "internalType": "int256",
          "name": "totalDelta",
          "type": "int256"
        },
        {
          "internalType": "uint256",
          "name": "totalFees",
          "type": "uint256"
        }
      ],
      "stateMutability": "view",
      "type": "function"
    },
    {
      "inputs": [],
      "name": "riskFreeRate",
      "outputs": [
        {
          "internalType": "uint256",
          "name": "",
          "type": "uint256"
        }
      ],
      "stateMutability": "view",
      "type": "function"
    },
    {
      "inputs": [
        {
          "internalType": "contract IAuthority",
          "name": "_newAuthority",
          "type": "address"
        }
      ],
      "name": "setAuthority",
      "outputs": [],
      "stateMutability": "nonpayable",
      "type": "function"
    },
    {
      "inputs": [
        {
          "internalType": "uint256",
          "name": "_deltaBandWidth",
          "type": "uint256"
        },
        {
          "internalType": "uint256[]",
          "name": "_callSlippageGradientMultipliers",
          "type": "uint256[]"
        },
        {
          "internalType": "uint256[]",
          "name": "_putSlippageGradientMultipliers",
          "type": "uint256[]"
        }
      ],
      "name": "setDeltaBandWidth",
      "outputs": [],
      "stateMutability": "nonpayable",
      "type": "function"
    },
    {
      "inputs": [
        {
          "internalType": "uint256",
          "name": "_feePerContract",
          "type": "uint256"
        }
      ],
      "name": "setFeePerContract",
      "outputs": [],
      "stateMutability": "nonpayable",
      "type": "function"
    },
    {
      "inputs": [
        {
          "internalType": "uint256",
          "name": "_slippageGradient",
          "type": "uint256"
        }
      ],
      "name": "setSlippageGradient",
      "outputs": [],
      "stateMutability": "nonpayable",
      "type": "function"
    },
    {
      "inputs": [
        {
          "internalType": "uint256[]",
          "name": "_callSlippageGradientMultipliers",
          "type": "uint256[]"
        },
        {
          "internalType": "uint256[]",
          "name": "_putSlippageGradientMultipliers",
          "type": "uint256[]"
        }
      ],
      "name": "setSlippageGradientMultipliers",
      "outputs": [],
      "stateMutability": "nonpayable",
      "type": "function"
    },
    {
      "inputs": [],
      "name": "slippageGradient",
      "outputs": [
        {
          "internalType": "uint256",
          "name": "",
          "type": "uint256"
        }
      ],
      "stateMutability": "view",
      "type": "function"
    },
    {
      "inputs": [],
      "name": "strikeAsset",
      "outputs": [
        {
          "internalType": "address",
          "name": "",
          "type": "address"
        }
      ],
      "stateMutability": "view",
      "type": "function"
    },
    {
      "inputs": [],
      "name": "underlyingAsset",
      "outputs": [
        {
          "internalType": "address",
          "name": "",
          "type": "address"
        }
      ],
      "stateMutability": "view",
      "type": "function"
    }
  ],
  "bytecode": "0x610120604052620493e06004553480156200001957600080fd5b506040516200259a3803806200259a8339810160408190526200003c9162000422565b600080546001600160a01b0319166001600160a01b03891690811790915560405190815287907f2f658b440c35314f52658ea8a740e05b284cdc84dc9ae01e891f21b8933e7cad9060200160405180910390a15060018055620000a98368056bc75e2d63100000620004d9565b8251141580620000ce5750620000c98368056bc75e2d63100000620004d9565b815114155b15620000ed576040516313bc3a6560e31b815260040160405180910390fd5b6001600160a01b0380871660a052851660808190526040805163555d766b60e11b8152905163aabaecd691600480820192602092909190829003018186803b1580156200013957600080fd5b505afa1580156200014e573d6000803e3d6000fd5b505050506040513d601f19601f82011682018060405250810190620001749190620004fc565b6001600160a01b0316610100816001600160a01b0316815250506080516001600160a01b0316637158da7c6040518163ffffffff1660e01b815260040160206040518083038186803b158015620001ca57600080fd5b505afa158015620001df573d6000803e3d6000fd5b505050506040513d601f19601f82011682018060405250810190620002059190620004fc565b6001600160a01b031660e0816001600160a01b0316815250506080516001600160a01b03166317d69bc86040518163ffffffff1660e01b815260040160206040518083038186803b1580156200025a57600080fd5b505afa1580156200026f573d6000803e3d6000fd5b505050506040513d601f19601f82011682018060405250810190620002959190620004fc565b6001600160a01b031660c052600584905560068390558151620002c0906007906020850190620002e4565b508051620002d6906008906020840190620002e4565b505050505050505062000521565b82805482825590600052602060002090810192821562000322579160200282015b828111156200032257825182559160200191906001019062000305565b506200033092915062000334565b5090565b5b8082111562000330576000815560010162000335565b80516001600160a01b03811681146200036357600080fd5b919050565b634e487b7160e01b600052604160045260246000fd5b600082601f8301126200039057600080fd5b815160206001600160401b0380831115620003af57620003af62000368565b8260051b604051601f19603f83011681018181108482111715620003d757620003d762000368565b604052938452858101830193838101925087851115620003f657600080fd5b83870191505b848210156200041757815183529183019190830190620003fc565b979650505050505050565b600080600080600080600060e0888a0312156200043e57600080fd5b62000449886200034b565b965062000459602089016200034b565b955062000469604089016200034b565b606089015160808a015160a08b015192975090955093506001600160401b03808211156200049657600080fd5b620004a48b838c016200037e565b935060c08a0151915080821115620004bb57600080fd5b50620004ca8a828b016200037e565b91505092959891949750929550565b600082620004f757634e487b7160e01b600052601260045260246000fd5b500490565b6000602082840312156200050f57600080fd5b6200051a826200034b565b9392505050565b60805160a05160c05160e0516101005161201862000582600039600061028901526000818161022801526103b801526000818161016501526103d9015260008181610262015281816107ca01526108e90152600061020101526120186000f3fe608060405234801561001057600080fd5b50600436106101215760003560e01c80637158da7c116100ad578063bf7e214f11610071578063bf7e214f146102be578063c377694f146102d1578063cc8d8f80146102e4578063f3cc6993146102ed578063f56f7cee146102f657600080fd5b80637158da7c146102235780637a9e5e4b1461024a5780638ce744261461025d578063aabaecd614610284578063b84137e8146102ab57600080fd5b8063230257d9116100f4578063230257d91461019f57806341cb282d146101b257806343ddee1e146101c55780634d85b51d146101ce578063665a11ca146101fc57600080fd5b806301633407146101265780631062b8c01461014257806317aecf241461014b57806317d69bc814610160575b600080fd5b61012f60025481565b6040519081526020015b60405180910390f35b61012f60055481565b61015e610159366004611a2f565b610309565b005b6101877f000000000000000000000000000000000000000000000000000000000000000081565b6040516001600160a01b039091168152602001610139565b61012f6101ad366004611a2f565b610353565b61012f6101c0366004611a2f565b610374565b61012f60045481565b6101e16101dc366004611ac3565b610384565b60408051938452602084019290925290820152606001610139565b6101877f000000000000000000000000000000000000000000000000000000000000000081565b6101877f000000000000000000000000000000000000000000000000000000000000000081565b61015e610258366004611b95565b610533565b6101877f000000000000000000000000000000000000000000000000000000000000000081565b6101877f000000000000000000000000000000000000000000000000000000000000000081565b61015e6102b9366004611c54565b610589565b600054610187906001600160a01b031681565b61015e6102df366004611cb8565b6106a2565b61012f60065481565b61012f60035481565b61015e610304366004611a2f565b6106b9565b6103116106c6565b600481905560408051828152602081018390527fc0c49ec2eab7257dbfd58b6da9c62db6a3c5d23aac893c2c99e820dacbc0425e91015b60405180910390a150565b6008818154811061036357600080fd5b600091825260209091200154905081565b6007818154811061036357600080fd5b60008060006103b160405180604001604052806006815260200165185b5bdd5b9d60d21b8152508761077d565b60006103fd7f00000000000000000000000000000000000000000000000000000000000000007f00000000000000000000000000000000000000000000000000000000000000006107c6565b905060006104096108e5565b6040808b015160208c01518c5192516367a35e4760e01b81529115156004830152602482018690526001600160801b0316604482015267ffffffffffffffff90911660648201526001600160a01b0391909116906367a35e479060840160206040518083038186803b15801561047e57600080fd5b505afa158015610492573d6000803e3d6000fd5b505050506040513d601f19601f820116820180604052508101906104b69190611d25565b90506000806104cd8b8a600254600354878961097d565b9150915060006104ea6104e38d8d858d8f610acf565b8490610c6a565b905064e8d4a510006104fc828d610c6a565b6105069190611d6a565b9750610512828c610c76565b600454909750610522908c610c6a565b955050505050509450945094915050565b61053b6106c6565b600080546001600160a01b0319166001600160a01b0383169081179091556040519081527f2f658b440c35314f52658ea8a740e05b284cdc84dc9ae01e891f21b8933e7cad90602001610348565b610591610d40565b6006546105a79068056bc75e2d63100000611d6a565b82511415806105cc57506006546105c79068056bc75e2d63100000611d6a565b815114155b156105ea576040516313bc3a6560e31b815260040160405180910390fd5b60005b825181101561067557670de0b6b3a764000083828151811061061157610611611d7e565b602002602001015110806106455750670de0b6b3a764000082828151811061063b5761063b611d7e565b6020026020010151105b156106635760405163b32a5ec760e01b815260040160405180910390fd5b8061066d81611d94565b9150506105ed565b5081516106899060079060208501906119cf565b50805161069d9060089060208401906119cf565b505050565b6106aa610d40565b600683905561069d8282610589565b6106c1610d40565b600555565b60008054906101000a90046001600160a01b03166001600160a01b0316630c340a246040518163ffffffff1660e01b815260040160206040518083038186803b15801561071257600080fd5b505afa158015610726573d6000803e3d6000fd5b505050506040513d601f19601f8201168201806040525081019061074a9190611daf565b6001600160a01b0316336001600160a01b03161461077b5760405163075fd2b160e01b815260040160405180910390fd5b565b6107c28282604051602401610793929190611e19565b60408051601f198184030181529190526020810180516001600160e01b0316632d839cb360e21b179052610e7b565b5050565b60007f00000000000000000000000000000000000000000000000000000000000000006001600160a01b031663741bef1a6040518163ffffffff1660e01b815260040160206040518083038186803b15801561082157600080fd5b505afa158015610835573d6000803e3d6000fd5b505050506040513d601f19601f820116820180604052508101906108599190611daf565b60405163051ce29b60e21b81526001600160a01b038581166004830152848116602483015291909116906314738a6c9060440160206040518083038186803b1580156108a457600080fd5b505afa1580156108b8573d6000803e3d6000fd5b505050506040513d601f19601f820116820180604052508101906108dc9190611d25565b90505b92915050565b60007f00000000000000000000000000000000000000000000000000000000000000006001600160a01b031663128e414b6040518163ffffffff1660e01b815260040160206040518083038186803b15801561094057600080fd5b505afa158015610954573d6000803e3d6000fd5b505050506040513d601f19601f820116820180604052508101906109789190611daf565b905090565b6000808361099e576040516304485c2d60e41b815260040160405180910390fd5b86156109ce57670de0b6b3a76400006109b78782611e3b565b6109c19086611e52565b6109cb9190611d6a565b93505b42886000015167ffffffffffffffff16116109fc576040516366bfac3d60e01b815260040160405180910390fd5b602088015188516040808b0151905163d98ac76960e01b8152600481018790526001600160801b03909316602484015267ffffffffffffffff90911660448301526064820186905260848201879052151560a482015273__$eb86d565a3113b3c398b1080d0d395c3b4$__9063d98ac7699060c401604080518083038186803b158015610a8857600080fd5b505af4158015610a9c573d6000803e3d6000fd5b505050506040513d601f19601f82011682018060405250810190610ac09190611e71565b90999098509650505050505050565b6000610b05604051806040016040528060088152602001676578706f7375726560c01b81525084610aff90611e95565b87610e9c565b600082610b2657610b17600287611eab565b610b219085611ed9565b610b3b565b610b31600287611eab565b610b3b9085611f18565b9050600080600654610b4c88610ee3565b610b57906064611e52565b610b619190611d6a565b9050610ba2604051806040016040528060118152602001703232b63a30903130b7321034b73232bc1d60791b81525082610b9a8a610ee3565b600654610f1f565b6000871315610be457610bdd60078281548110610bc157610bc1611d7e565b9060005260206000200154600554610c6a90919063ffffffff16565b9150610bfd565b610bfa60088281548110610bc157610bc1611d7e565b91505b6000610c23610c0b85611e95565b610c1d85670de0b6b3a7640000611f59565b90610f6e565b9050610c5d6040518060400160405280600b81526020016a36bab63a34b83634b2b91d60a91b815250828587610c5890611e95565b610f1f565b9998505050505050505050565b60006108dc8383610fad565b6000600160ff1b831480610c8d5750600160ff1b82145b15610cab57604051630d01a11b60e21b815260040160405180910390fd5b60008060008512610cbc5784610cc1565b846000035b915060008412610cd15783610cd6565b836000035b90506000610ce48383610fad565b90506001600160ff1b03811115610d165760405163bf79e8d960e01b8152600481018290526024015b60405180910390fd5b600019808713908613808218600114610d2f5782610d34565b826000035b98975050505050505050565b60005460405163794f111b60e11b81523360048201526001600160a01b039091169063f29e22369060240160206040518083038186803b158015610d8357600080fd5b505afa158015610d97573d6000803e3d6000fd5b505050506040513d601f19601f82011682018060405250810190610dbb9190611f71565b158015610e5d575060008054906101000a90046001600160a01b03166001600160a01b0316630c340a246040518163ffffffff1660e01b815260040160206040518083038186803b158015610e0f57600080fd5b505afa158015610e23573d6000803e3d6000fd5b505050506040513d601f19601f82011682018060405250810190610e479190611daf565b6001600160a01b0316336001600160a01b031614155b1561077b5760405163075fd2b160e01b815260040160405180910390fd5b80516a636f6e736f6c652e6c6f67602083016000808483855afa5050505050565b61069d838383604051602401610eb493929190611f8e565b60408051601f198184030181529190526020810180516001600160e01b031663ca47c4eb60e01b179052610e7b565b6000600160ff1b821415610f0a57604051631d0742e360e21b815260040160405180910390fd5b60008212610f1857816108df565b5060000390565b610f6884848484604051602401610f399493929190611fb3565b60408051601f198184030181529190526020810180516001600160e01b031663a7a8785360e01b179052610e7b565b50505050565b600082610f93578115610f82576000610f8c565b670de0b6b3a76400005b90506108df565b6108dc610fa8610fa28561106f565b84610c76565b61114e565b60008080600019848609848602925082811083820303915050670de0b6b3a76400008110610ff15760405163698d9a0160e11b815260048101829052602401610d0d565b600080670de0b6b3a76400008688099150506706f05b59d3b1ffff81118261102b5780670de0b6b3a76400008504019450505050506108df565b620400008285030493909111909103600160ee1b02919091177faccb18165bd6fe31ae1cf318dc5b51eee0e1ba569b88cd74c1773b91fac106690201905092915050565b60008082136110945760405163309fa7dd60e11b815260048101839052602401610d0d565b6000670de0b6b3a764000083126110ad575060016110c7565b6000199050826ec097ce7bc90715b34b9f10000000000492505b60006110dc670de0b6b3a764000085056111ef565b670de0b6b3a7640000808202945090915084821d9081141561110057505002919050565b6706f05b59d3b200005b600081131561114557670de0b6b3a7640000828002059150671bc16d674ec80000821261113d579384019360019190911d905b60011d61110a565b50505002919050565b6000808212156111a25768033dd1780914b971141982121561117257506000919050565b61117e8260000361114e565b6ec097ce7bc90715b34b9f10000000008161119b5761119b611d3e565b0592915050565b680a688906bd8b00000082126111ce5760405163e69458f960e01b815260048101839052602401610d0d565b670de0b6b3a7640000604083901b046111e6816112d3565b9150505b919050565b6000600160801b821061120f57608091821c9161120c9082611f59565b90505b68010000000000000000821061123257604091821c9161122f9082611f59565b90505b640100000000821061125157602091821c9161124e9082611f59565b90505b62010000821061126e57601091821c9161126b9082611f59565b90505b610100821061128a57600891821c916112879082611f59565b90505b601082106112a557600491821c916112a29082611f59565b90505b600482106112c057600291821c916112bd9082611f59565b90505b600282106111ea576108df600182611f59565b600160bf1b6780000000000000008216156112f75768016a09e667f3bcc9090260401c5b674000000000000000821615611316576801306fe0a31b7152df0260401c5b672000000000000000821615611335576801172b83c7d517adce0260401c5b6710000000000000008216156113545768010b5586cf9890f62a0260401c5b670800000000000000821615611373576801059b0d31585743ae0260401c5b67040000000000000082161561139257680102c9a3e778060ee70260401c5b6702000000000000008216156113b15768010163da9fb33356d80260401c5b6701000000000000008216156113d057680100b1afa5abcbed610260401c5b66800000000000008216156113ee5768010058c86da1c09ea20260401c5b664000000000000082161561140c576801002c605e2e8cec500260401c5b662000000000000082161561142a57680100162f3904051fa10260401c5b6610000000000000821615611448576801000b175effdc76ba0260401c5b660800000000000082161561146657680100058ba01fb9f96d0260401c5b66040000000000008216156114845768010002c5cc37da94920260401c5b66020000000000008216156114a2576801000162e525ee05470260401c5b66010000000000008216156114c05768010000b17255775c040260401c5b658000000000008216156114dd576801000058b91b5bc9ae0260401c5b654000000000008216156114fa57680100002c5c89d5ec6d0260401c5b652000000000008216156115175768010000162e43f4f8310260401c5b6510000000000082161561153457680100000b1721bcfc9a0260401c5b650800000000008216156115515768010000058b90cf1e6e0260401c5b6504000000000082161561156e576801000002c5c863b73f0260401c5b6502000000000082161561158b57680100000162e430e5a20260401c5b650100000000008216156115a8576801000000b1721835510260401c5b6480000000008216156115c457680100000058b90c0b490260401c5b6440000000008216156115e05768010000002c5c8601cc0260401c5b6420000000008216156115fc576801000000162e42fff00260401c5b6410000000008216156116185768010000000b17217fbb0260401c5b640800000000821615611634576801000000058b90bfce0260401c5b64040000000082161561165057680100000002c5c85fe30260401c5b64020000000082161561166c5768010000000162e42ff10260401c5b64010000000082161561168857680100000000b17217f80260401c5b63800000008216156116a35768010000000058b90bfc0260401c5b63400000008216156116be576801000000002c5c85fe0260401c5b63200000008216156116d957680100000000162e42ff0260401c5b63100000008216156116f4576801000000000b17217f0260401c5b630800000082161561170f57680100000000058b90c00260401c5b630400000082161561172a5768010000000002c5c8600260401c5b6302000000821615611745576801000000000162e4300260401c5b63010000008216156117605768010000000000b172180260401c5b6280000082161561177a576801000000000058b90c0260401c5b6240000082161561179457680100000000002c5c860260401c5b622000008216156117ae5768010000000000162e430260401c5b621000008216156117c857680100000000000b17210260401c5b620800008216156117e25768010000000000058b910260401c5b620400008216156117fc576801000000000002c5c80260401c5b6202000082161561181657680100000000000162e40260401c5b62010000821615611830576801000000000000b1720260401c5b61800082161561184957680100000000000058b90260401c5b6140008216156118625768010000000000002c5d0260401c5b61200082161561187b576801000000000000162e0260401c5b6110008216156118945768010000000000000b170260401c5b6108008216156118ad576801000000000000058c0260401c5b6104008216156118c657680100000000000002c60260401c5b6102008216156118df57680100000000000001630260401c5b6101008216156118f857680100000000000000b10260401c5b608082161561191057680100000000000000590260401c5b6040821615611928576801000000000000002c0260401c5b602082161561194057680100000000000000160260401c5b6010821615611958576801000000000000000b0260401c5b600882161561197057680100000000000000060260401c5b600482161561198857680100000000000000030260401c5b60028216156119a057680100000000000000010260401c5b60018216156119b857680100000000000000010260401c5b670de0b6b3a76400000260409190911c60bf031c90565b828054828255906000526020600020908101928215611a0a579160200282015b82811115611a0a5782518255916020019190600101906119ef565b50611a16929150611a1a565b5090565b5b80821115611a165760008155600101611a1b565b600060208284031215611a4157600080fd5b5035919050565b634e487b7160e01b600052604160045260246000fd5b60405160c0810167ffffffffffffffff81118282101715611a8157611a81611a48565b60405290565b8015158114611a9557600080fd5b50565b80356111ea81611a87565b6001600160a01b0381168114611a9557600080fd5b80356111ea81611aa3565b600080600080848603610120811215611adb57600080fd5b60c0811215611ae957600080fd5b50611af2611a5e565b853567ffffffffffffffff81168114611b0a57600080fd5b815260208601356001600160801b0381168114611b2657600080fd5b6020820152611b3760408701611a98565b6040820152611b4860608701611ab8565b6060820152611b5960808701611ab8565b6080820152611b6a60a08701611ab8565b60a0820152935060c08501359250611b8460e08601611a98565b939692955092936101000135925050565b600060208284031215611ba757600080fd5b8135611bb281611aa3565b9392505050565b600082601f830112611bca57600080fd5b8135602067ffffffffffffffff80831115611be757611be7611a48565b8260051b604051601f19603f83011681018181108482111715611c0c57611c0c611a48565b604052938452858101830193838101925087851115611c2a57600080fd5b83870191505b84821015611c4957813583529183019190830190611c30565b979650505050505050565b60008060408385031215611c6757600080fd5b823567ffffffffffffffff80821115611c7f57600080fd5b611c8b86838701611bb9565b93506020850135915080821115611ca157600080fd5b50611cae85828601611bb9565b9150509250929050565b600080600060608486031215611ccd57600080fd5b83359250602084013567ffffffffffffffff80821115611cec57600080fd5b611cf887838801611bb9565b93506040860135915080821115611d0e57600080fd5b50611d1b86828701611bb9565b9150509250925092565b600060208284031215611d3757600080fd5b5051919050565b634e487b7160e01b600052601260045260246000fd5b634e487b7160e01b600052601160045260246000fd5b600082611d7957611d79611d3e565b500490565b634e487b7160e01b600052603260045260246000fd5b6000600019821415611da857611da8611d54565b5060010190565b600060208284031215611dc157600080fd5b8151611bb281611aa3565b6000815180845260005b81811015611df257602081850181015186830182015201611dd6565b81811115611e04576000602083870101525b50601f01601f19169290920160200192915050565b604081526000611e2c6040830185611dcc565b90508260208301529392505050565b600082821015611e4d57611e4d611d54565b500390565b6000816000190483118215151615611e6c57611e6c611d54565b500290565b60008060408385031215611e8457600080fd5b505080516020909101519092909150565b6000600160ff1b821415610f1857610f18611d54565b600082611eba57611eba611d3e565b600160ff1b821460001984141615611ed457611ed4611d54565b500590565b60008083128015600160ff1b850184121615611ef757611ef7611d54565b6001600160ff1b0384018313811615611f1257611f12611d54565b50500390565b600080821280156001600160ff1b0384900385131615611f3a57611f3a611d54565b600160ff1b8390038412811615611f5357611f53611d54565b50500190565b60008219821115611f6c57611f6c611d54565b500190565b600060208284031215611f8357600080fd5b8151611bb281611a87565b606081526000611fa16060830186611dcc565b60208301949094525060400152919050565b608081526000611fc66080830187611dcc565b602083019590955250604081019290925260609091015291905056fea26469706673582212201383a7e575753d7c9767a7ac52fee442f435e567f89f72ba9f47799a825d539964736f6c63430008090033",
  "linkReferences": {
    "contracts/libraries/BlackScholes.sol": {
      "BlackScholes": [
        {
          "length": 20,
          "start": 4054
        }
      ]
    }
  },
  "deployedLinkReferences": {
    "contracts/libraries/BlackScholes.sol": {
      "BlackScholes": [
        {
          "length": 20,
          "start": 2644
        }
      ]
    }
  }
}