{
  "_format": "hh-sol-artifact-1",
  "contractName": "BlackScholes",
  "sourceName": "contracts/libraries/BlackScholes.sol",
  "abi": [
    {
      "inputs": [],
      "name": "PRBMathSD59x18__DivInputTooSmall",
      "type": "error"
    },
    {
      "inputs": [
        {
          "internalType": "uint256",
          "name": "rAbs",
          "type": "uint256"
        }
      ],
      "name": "PRBMathSD59x18__DivOverflow",
      "type": "error"
    },
    {
      "inputs": [
        {
          "internalType": "int256",
          "name": "x",
          "type": "int256"
        }
      ],
      "name": "PRBMathSD59x18__Exp2InputTooBig",
      "type": "error"
    },
    {
      "inputs": [
        {
          "internalType": "int256",
          "name": "x",
          "type": "int256"
        }
      ],
      "name": "PRBMathSD59x18__ExpInputTooBig",
      "type": "error"
    },
    {
      "inputs": [
        {
          "internalType": "int256",
          "name": "x",
          "type": "int256"
        }
      ],
      "name": "PRBMathSD59x18__LogInputTooSmall",
      "type": "error"
    },
    {
      "inputs": [],
      "name": "PRBMathSD59x18__MulInputTooSmall",
      "type": "error"
    },
    {
      "inputs": [
        {
          "internalType": "uint256",
          "name": "rAbs",
          "type": "uint256"
        }
      ],
      "name": "PRBMathSD59x18__MulOverflow",
      "type": "error"
    },
    {
      "inputs": [
        {
          "internalType": "uint256",
          "name": "x",
          "type": "uint256"
        }
      ],
      "name": "PRBMathUD60x18__SqrtOverflow",
      "type": "error"
    },
    {
      "inputs": [
        {
          "internalType": "uint256",
          "name": "prod1",
          "type": "uint256"
        }
      ],
      "name": "PRBMath__MulDivFixedPointOverflow",
      "type": "error"
    },
    {
      "inputs": [
        {
          "internalType": "uint256",
          "name": "prod1",
          "type": "uint256"
        },
        {
          "internalType": "uint256",
          "name": "denominator",
          "type": "uint256"
        }
      ],
      "name": "PRBMath__MulDivOverflow",
      "type": "error"
    },
    {
      "inputs": [
        {
          "internalType": "uint256",
          "name": "price",
          "type": "uint256"
        },
        {
          "internalType": "uint256",
          "name": "strike",
          "type": "uint256"
        },
        {
          "internalType": "uint256",
          "name": "expiration",
          "type": "uint256"
        },
        {
          "internalType": "uint256",
          "name": "vol",
          "type": "uint256"
        },
        {
          "internalType": "uint256",
          "name": "rfr",
          "type": "uint256"
        },
        {
          "internalType": "bool",
          "name": "isPut",
          "type": "bool"
        }
      ],
      "name": "blackScholesCalc",
      "outputs": [
        {
          "internalType": "uint256",
          "name": "",
          "type": "uint256"
        }
      ],
      "stateMutability": "view",
      "type": "function"
    },
    {
      "inputs": [
        {
          "internalType": "uint256",
          "name": "price",
          "type": "uint256"
        },
        {
          "internalType": "uint256",
          "name": "strike",
          "type": "uint256"
        },
        {
          "internalType": "uint256",
          "name": "expiration",
          "type": "uint256"
        },
        {
          "internalType": "uint256",
          "name": "vol",
          "type": "uint256"
        },
        {
          "internalType": "uint256",
          "name": "rfr",
          "type": "uint256"
        },
        {
          "internalType": "bool",
          "name": "isPut",
          "type": "bool"
        }
      ],
      "name": "blackScholesCalcGreeks",
      "outputs": [
        {
          "internalType": "uint256",
          "name": "quote",
          "type": "uint256"
        },
        {
          "internalType": "int256",
          "name": "delta",
          "type": "int256"
        }
      ],
      "stateMutability": "view",
      "type": "function"
    },
    {
      "inputs": [
        {
          "internalType": "int256",
          "name": "d1",
          "type": "int256"
        },
        {
          "internalType": "int256",
          "name": "d1Denominator",
          "type": "int256"
        },
        {
          "internalType": "int256",
          "name": "price",
          "type": "int256"
        },
        {
          "internalType": "int256",
          "name": "strike",
          "type": "int256"
        },
        {
          "internalType": "int256",
          "name": "eToNegRT",
          "type": "int256"
        }
      ],
      "name": "callOptionPrice",
      "outputs": [
        {
          "internalType": "uint256",
          "name": "",
          "type": "uint256"
        }
      ],
      "stateMutability": "pure",
      "type": "function"
    },
    {
      "inputs": [
        {
          "internalType": "int256",
          "name": "d1",
          "type": "int256"
        },
        {
          "internalType": "int256",
          "name": "d1Denominator",
          "type": "int256"
        },
        {
          "internalType": "int256",
          "name": "price",
          "type": "int256"
        },
        {
          "internalType": "int256",
          "name": "strike",
          "type": "int256"
        },
        {
          "internalType": "int256",
          "name": "eToNegRT",
          "type": "int256"
        }
      ],
      "name": "callOptionPriceGreeks",
      "outputs": [
        {
          "internalType": "uint256",
          "name": "quote",
          "type": "uint256"
        },
        {
          "internalType": "int256",
          "name": "delta",
          "type": "int256"
        }
      ],
      "stateMutability": "pure",
      "type": "function"
    },
    {
      "inputs": [
        {
          "internalType": "uint256",
          "name": "price",
          "type": "uint256"
        },
        {
          "internalType": "uint256",
          "name": "strike",
          "type": "uint256"
        },
        {
          "internalType": "uint256",
          "name": "expiration",
          "type": "uint256"
        },
        {
          "internalType": "uint256",
          "name": "vol",
          "type": "uint256"
        },
        {
          "internalType": "uint256",
          "name": "rfr",
          "type": "uint256"
        },
        {
          "internalType": "bool",
          "name": "isPut",
          "type": "bool"
        }
      ],
      "name": "getDelta",
      "outputs": [
        {
          "internalType": "int256",
          "name": "",
          "type": "int256"
        }
      ],
      "stateMutability": "view",
      "type": "function"
    },
    {
      "inputs": [
        {
          "internalType": "int256",
          "name": "d1",
          "type": "int256"
        },
        {
          "internalType": "int256",
          "name": "d1Denominator",
          "type": "int256"
        },
        {
          "internalType": "int256",
          "name": "price",
          "type": "int256"
        },
        {
          "internalType": "int256",
          "name": "strike",
          "type": "int256"
        },
        {
          "internalType": "int256",
          "name": "eToNegRT",
          "type": "int256"
        }
      ],
      "name": "putOptionPrice",
      "outputs": [
        {
          "internalType": "uint256",
          "name": "",
          "type": "uint256"
        }
      ],
      "stateMutability": "pure",
      "type": "function"
    },
    {
      "inputs": [
        {
          "internalType": "int256",
          "name": "d1",
          "type": "int256"
        },
        {
          "internalType": "int256",
          "name": "d1Denominator",
          "type": "int256"
        },
        {
          "internalType": "int256",
          "name": "price",
          "type": "int256"
        },
        {
          "internalType": "int256",
          "name": "strike",
          "type": "int256"
        },
        {
          "internalType": "int256",
          "name": "eToNegRT",
          "type": "int256"
        }
      ],
      "name": "putOptionPriceGreeks",
      "outputs": [
        {
          "internalType": "uint256",
          "name": "quote",
          "type": "uint256"
        },
        {
          "internalType": "int256",
          "name": "delta",
          "type": "int256"
        }
      ],
      "stateMutability": "pure",
      "type": "function"
    }
  ],
  "bytecode": "0x611aa961003a600b82828239805160001a60731461002d57634e487b7160e01b600052600060045260246000fd5b30600052607381538281f3fe73000000000000000000000000000000000000000030146080604052600436106100875760003560e01c8063c0a7bf2211610065578063c0a7bf22146100ed578063cb09870e14610100578063d743267014610113578063d98ac7691461012657600080fd5b806364bd4d7c1461008c578063679dfe31146100b9578063be2df192146100da575b600080fd5b61009f61009a3660046118b8565b610139565b604080519283526020830191909152015b60405180910390f35b6100cc6100c73660046118f3565b61028f565b6040519081526020016100b0565b6100cc6100e83660046118f3565b6103d7565b6100cc6100fb3660046118b8565b610432565b61009f61010e3660046118b8565b61057e565b6100cc6101213660046118b8565b6106e4565b61009f6101343660046118f3565b61082d565b600080806101478789611963565b60405163685b8d8f60e11b8152600481018a905290915060009073__$ebc6a235f62198c0ffd1ba3f5780dbc7b2$__9063d0b71b1e90602401602060405180830381865af415801561019d573d6000803e3d6000fd5b505050506040513d601f19601f820116820180604052508101906101c191906119a2565b60405163685b8d8f60e11b81526004810184905290915060009073__$ebc6a235f62198c0ffd1ba3f5780dbc7b2$__9063d0b71b1e90602401602060405180830381865af4158015610217573d6000803e3d6000fd5b505050506040513d601f19601f8201168201806040525081019061023b91906119a2565b9050600061024989846108a3565b905060006102618361025b8b8b6108a3565b906108a3565b905080821215610273576102736119bb565b61027d8183611963565b9c939b50929950505050505050505050565b6000806102ac6301e187e0425b6102a690896119d1565b9061096d565b905060006102bd8989848989610989565b509050836103425760405163685b8d8f60e11b81526004810182905273__$ebc6a235f62198c0ffd1ba3f5780dbc7b2$__9063d0b71b1e90602401602060405180830381865af4158015610315573d6000803e3d6000fd5b505050506040513d601f19601f8201168201806040525081019061033991906119a2565b925050506103cd565b73__$ebc6a235f62198c0ffd1ba3f5780dbc7b2$__63d0b71b1e610365836119e8565b6040518263ffffffff1660e01b815260040161038391815260200190565b602060405180830381865af41580156103a0573d6000803e3d6000fd5b505050506040513d601f19601f820116820180604052508101906103c491906119a2565b610339906119e8565b9695505050505050565b6000806103e86301e187e04261029c565b905060006103f98989848989610a0c565b90508361041957610339816020015182600001518b8b8560400151610432565b610339816020015182600001518b8b85604001516106e4565b60008061043f8688611963565b60405163685b8d8f60e11b81526004810189905290915060009073__$ebc6a235f62198c0ffd1ba3f5780dbc7b2$__9063d0b71b1e90602401602060405180830381865af4158015610495573d6000803e3d6000fd5b505050506040513d601f19601f820116820180604052508101906104b991906119a2565b60405163685b8d8f60e11b81526004810184905290915060009073__$ebc6a235f62198c0ffd1ba3f5780dbc7b2$__9063d0b71b1e90602401602060405180830381865af415801561050f573d6000803e3d6000fd5b505050506040513d601f19601f8201168201806040525081019061053391906119a2565b9050600061054188846108a3565b905060006105538361025b8a8a6108a3565b905080821215610565576105656119bb565b61056f8183611963565b9b9a5050505050505050505050565b6000808061058c8888611963565b9050600073__$ebc6a235f62198c0ffd1ba3f5780dbc7b2$__63d0b71b1e6105b38b6119e8565b6040518263ffffffff1660e01b81526004016105d191815260200190565b602060405180830381865af41580156105ee573d6000803e3d6000fd5b505050506040513d601f19601f8201168201806040525081019061061291906119a2565b60405163685b8d8f60e11b81526004810184905290915060009073__$ebc6a235f62198c0ffd1ba3f5780dbc7b2$__9063d0b71b1e90602401602060405180830381865af4158015610668573d6000803e3d6000fd5b505050506040513d601f19601f8201168201806040525081019061068c91906119a2565b9050600061069a89846108a3565b905060006106ac8361025b8b8b6108a3565b9050818112156106be576106be6119bb565b6106c88282611963565b96506106d3846119e8565b955050505050509550959350505050565b6000806106f18787611963565b9050600073__$ebc6a235f62198c0ffd1ba3f5780dbc7b2$__63d0b71b1e6107188a6119e8565b6040518263ffffffff1660e01b815260040161073691815260200190565b602060405180830381865af4158015610753573d6000803e3d6000fd5b505050506040513d601f19601f8201168201806040525081019061077791906119a2565b60405163685b8d8f60e11b81526004810184905290915060009073__$ebc6a235f62198c0ffd1ba3f5780dbc7b2$__9063d0b71b1e90602401602060405180830381865af41580156107cd573d6000803e3d6000fd5b505050506040513d601f19601f820116820180604052508101906107f191906119a2565b905060006107ff88846108a3565b905060006108118361025b8a8a6108a3565b905081811215610823576108236119bb565b61056f8282611963565b600080806108436301e187e06102a6428a6119d1565b905060006108548a8a848a8a610a0c565b90508461087f57610874816020015182600001518c8c8560400151610139565b935093505050610898565b610874816020015182600001518c8c856040015161057e565b965096945050505050565b6000600160ff1b8314806108ba5750600160ff1b82145b156108d857604051630d01a11b60e21b815260040160405180910390fd5b600080600085126108e957846108ee565b846000035b9150600084126108fe5783610903565b836000035b905060006109118383610a90565b90506001600160ff1b038111156109435760405163bf79e8d960e01b8152600481018290526024015b60405180910390fd5b60001980871390861380821860011461095c5782610961565b826000035b98975050505050505050565b600061098283670de0b6b3a764000084610b57565b9392505050565b600080806109b886856109a8671bc16d674ec800006102a68a80610c23565b6109b29190611a04565b90610c23565b905060006109ce6109c98a8a61096d565b610c2f565b905060006109dc8383611a1c565b90506109f16109ea89610c61565b8890610c23565b93506109fd8185610cb3565b94505050509550959350505050565b610a3060405180606001604052806000815260200160008152602001600081525090565b600080610a408888888888610989565b915091506040518060600160405280828152602001838152602001610a82610a7d670de0b6b3a7640000610a73906119e8565b61025b898c6108a3565b610d79565b905298975050505050505050565b60008080600019848609848602925082811083820303915050670de0b6b3a76400008110610ad45760405163698d9a0160e11b81526004810182905260240161093a565b600080670de0b6b3a764000086880991506706f05b59d3b1ffff8211905082600003610b125780670de0b6b3a7640000850401945050505050610b51565b620400008285030493909111909103600160ee1b02919091177faccb18165bd6fe31ae1cf318dc5b51eee0e1ba569b88cd74c1773b91fac10669020190505b92915050565b6000808060001985870985870292508281108382030391505080600003610b9157838281610b8757610b87611a5d565b0492505050610982565b838110610bbb57604051631dcf306360e21b8152600481018290526024810185905260440161093a565b600084868809600260036001881981018916988990049182028318808302840302808302840302808302840302808302840302808302840302918202909203026000889003889004909101858311909403939093029303949094049190911702949350505050565b60006109828383610a90565b60006714057b7ef767814f670de0b6b3a7640000610c4c84610de9565b0281610c5a57610c5a611a5d565b0592915050565b60007812725dd1d243aba0e75fe645cc4873f9e65afe688c928e1f21821115610ca057604051636155b67d60e01b81526004810183905260240161093a565b610b51670de0b6b3a76400008302610ece565b6000600160ff1b831480610cca5750600160ff1b82145b15610ce85760405163b3c754a360e01b815260040160405180910390fd5b60008060008512610cf95784610cfe565b846000035b915060008412610d0e5783610d13565b836000035b90506000610d2a83670de0b6b3a764000084610b57565b90506001600160ff1b03811115610d5757604051637cb4bef560e01b81526004810182905260240161093a565b600019808713908613808218600114610d705782610961565b610961836119e8565b600068023f2fa8f6da5b9d3119821215610d9557506000919050565b680736ea4425c11ac6318212610dc1576040516399bb754160e01b81526004810183905260240161093a565b6714057b7ef767814f8202610982670de0b6b3a76400006706f05b59d3b20000830105611047565b6000808213610e0e5760405163309fa7dd60e11b81526004810183905260240161093a565b6000670de0b6b3a76400008312610e2757506001610e41565b6000199050826ec097ce7bc90715b34b9f10000000000492505b6000610e56670de0b6b3a764000085056110dd565b670de0b6b3a764000081029350905083811d670de0b6b3a763ffff198101610e8057505002919050565b6706f05b59d3b200005b6000811315610ec557670de0b6b3a7640000828002059150671bc16d674ec800008212610ebd579384019360019190911d905b60011d610e8a565b50505002919050565b600081600003610ee057506000919050565b50600181600160801b8110610efa5760409190911b9060801c5b600160401b8110610f105760209190911b9060401c5b6401000000008110610f275760109190911b9060201c5b620100008110610f3c5760089190911b9060101c5b6101008110610f505760049190911b9060081c5b60108110610f635760029190911b9060041c5b60088110610f7357600182901b91505b6001828481610f8457610f84611a5d565b048301901c91506001828481610f9c57610f9c611a5d565b048301901c91506001828481610fb457610fb4611a5d565b048301901c91506001828481610fcc57610fcc611a5d565b048301901c91506001828481610fe457610fe4611a5d565b048301901c91506001828481610ffc57610ffc611a5d565b048301901c9150600182848161101457611014611a5d565b048301901c9150600082848161102c5761102c611a5d565b0490508083101561103d578261103f565b805b949350505050565b6000808212156110945768033dd1780914b971141982121561106b57506000919050565b61107782600003611047565b6ec097ce7bc90715b34b9f100000000081610c5a57610c5a611a5d565b680a688906bd8b00000082126110c05760405163e69458f960e01b81526004810183905260240161093a565b670de0b6b3a7640000604083901b04610982816111bc565b919050565b6000600160801b82106110fd57608091821c916110fa9082611a04565b90505b600160401b821061111b57604091821c916111189082611a04565b90505b640100000000821061113a57602091821c916111379082611a04565b90505b62010000821061115757601091821c916111549082611a04565b90505b610100821061117357600891821c916111709082611a04565b90505b6010821061118e57600491821c9161118b9082611a04565b90505b600482106111a957600291821c916111a69082611a04565b90505b600282106110d857610b51600182611a04565b600160bf1b6780000000000000008216156111e05768016a09e667f3bcc9090260401c5b6740000000000000008216156111ff576801306fe0a31b7152df0260401c5b67200000000000000082161561121e576801172b83c7d517adce0260401c5b67100000000000000082161561123d5768010b5586cf9890f62a0260401c5b67080000000000000082161561125c576801059b0d31585743ae0260401c5b67040000000000000082161561127b57680102c9a3e778060ee70260401c5b67020000000000000082161561129a5768010163da9fb33356d80260401c5b6701000000000000008216156112b957680100b1afa5abcbed610260401c5b66800000000000008216156112d75768010058c86da1c09ea20260401c5b66400000000000008216156112f5576801002c605e2e8cec500260401c5b662000000000000082161561131357680100162f3904051fa10260401c5b6610000000000000821615611331576801000b175effdc76ba0260401c5b660800000000000082161561134f57680100058ba01fb9f96d0260401c5b660400000000000082161561136d5768010002c5cc37da94920260401c5b660200000000000082161561138b576801000162e525ee05470260401c5b66010000000000008216156113a95768010000b17255775c040260401c5b658000000000008216156113c6576801000058b91b5bc9ae0260401c5b654000000000008216156113e357680100002c5c89d5ec6d0260401c5b652000000000008216156114005768010000162e43f4f8310260401c5b6510000000000082161561141d57680100000b1721bcfc9a0260401c5b6508000000000082161561143a5768010000058b90cf1e6e0260401c5b65040000000000821615611457576801000002c5c863b73f0260401c5b6502000000000082161561147457680100000162e430e5a20260401c5b65010000000000821615611491576801000000b1721835510260401c5b6480000000008216156114ad57680100000058b90c0b490260401c5b6440000000008216156114c95768010000002c5c8601cc0260401c5b6420000000008216156114e5576801000000162e42fff00260401c5b6410000000008216156115015768010000000b17217fbb0260401c5b64080000000082161561151d576801000000058b90bfce0260401c5b64040000000082161561153957680100000002c5c85fe30260401c5b6402000000008216156115555768010000000162e42ff10260401c5b64010000000082161561157157680100000000b17217f80260401c5b638000000082161561158c5768010000000058b90bfc0260401c5b63400000008216156115a7576801000000002c5c85fe0260401c5b63200000008216156115c257680100000000162e42ff0260401c5b63100000008216156115dd576801000000000b17217f0260401c5b63080000008216156115f857680100000000058b90c00260401c5b63040000008216156116135768010000000002c5c8600260401c5b630200000082161561162e576801000000000162e4300260401c5b63010000008216156116495768010000000000b172180260401c5b62800000821615611663576801000000000058b90c0260401c5b6240000082161561167d57680100000000002c5c860260401c5b622000008216156116975768010000000000162e430260401c5b621000008216156116b157680100000000000b17210260401c5b620800008216156116cb5768010000000000058b910260401c5b620400008216156116e5576801000000000002c5c80260401c5b620200008216156116ff57680100000000000162e40260401c5b62010000821615611719576801000000000000b1720260401c5b61800082161561173257680100000000000058b90260401c5b61400082161561174b5768010000000000002c5d0260401c5b612000821615611764576801000000000000162e0260401c5b61100082161561177d5768010000000000000b170260401c5b610800821615611796576801000000000000058c0260401c5b6104008216156117af57680100000000000002c60260401c5b6102008216156117c857680100000000000001630260401c5b6101008216156117e157680100000000000000b10260401c5b60808216156117f957680100000000000000590260401c5b6040821615611811576801000000000000002c0260401c5b602082161561182957680100000000000000160260401c5b6010821615611841576801000000000000000b0260401c5b600882161561185957680100000000000000060260401c5b600482161561187157680100000000000000030260401c5b600282161561188957680100000000000000010260401c5b60018216156118a157680100000000000000010260401c5b670de0b6b3a76400000260409190911c60bf031c90565b600080600080600060a086880312156118d057600080fd5b505083359560208501359550604085013594606081013594506080013592509050565b60008060008060008060c0878903121561190c57600080fd5b863595506020870135945060408701359350606087013592506080870135915060a0870135801515811461193f57600080fd5b809150509295509295509295565b634e487b7160e01b600052601160045260246000fd5b60008083128015600160ff1b8501841216156119815761198161194d565b6001600160ff1b038401831381161561199c5761199c61194d565b50500390565b6000602082840312156119b457600080fd5b5051919050565b634e487b7160e01b600052600160045260246000fd5b6000828210156119e3576119e361194d565b500390565b6000600160ff1b82016119fd576119fd61194d565b5060000390565b60008219821115611a1757611a1761194d565b500190565b600080821280156001600160ff1b0384900385131615611a3e57611a3e61194d565b600160ff1b8390038412811615611a5757611a5761194d565b50500190565b634e487b7160e01b600052601260045260246000fdfea2646970667358221220463b80759fad188f8888e9006425005fa711448f33492c5f41888ebe32ebf1ae64736f6c634300080e0033",
  "linkReferences": {
    "contracts/libraries/NormalDist.sol": {
      "NormalDist": [
        {
          "length": 20,
          "start": 413
        },
        {
          "length": 20,
          "start": 535
        },
        {
          "length": 20,
          "start": 789
        },
        {
          "length": 20,
          "start": 894
        },
        {
          "length": 20,
          "start": 1173
        },
        {
          "length": 20,
          "start": 1295
        },
        {
          "length": 20,
          "start": 1484
        },
        {
          "length": 20,
          "start": 1640
        },
        {
          "length": 20,
          "start": 1841
        },
        {
          "length": 20,
          "start": 1997
        }
      ]
    }
  },
  "deployedLinkReferences": {
    "contracts/libraries/NormalDist.sol": {
      "NormalDist": [
        {
          "length": 20,
          "start": 355
        },
        {
          "length": 20,
          "start": 477
        },
        {
          "length": 20,
          "start": 731
        },
        {
          "length": 20,
          "start": 836
        },
        {
          "length": 20,
          "start": 1115
        },
        {
          "length": 20,
          "start": 1237
        },
        {
          "length": 20,
          "start": 1426
        },
        {
          "length": 20,
          "start": 1582
        },
        {
          "length": 20,
          "start": 1783
        },
        {
          "length": 20,
          "start": 1939
        }
      ]
    }
  }
}