{
  "_format": "hh-sol-artifact-1",
  "contractName": "LiquidityPool",
  "sourceName": "contracts/LiquidityPool.sol",
  "abi": [
    {
      "inputs": [
        {
          "internalType": "address",
          "name": "_protocol",
          "type": "address"
        },
        {
          "internalType": "address",
          "name": "_strikeAsset",
          "type": "address"
        },
        {
          "internalType": "address",
          "name": "_underlyingAsset",
          "type": "address"
        },
        {
          "internalType": "address",
          "name": "_collateralAsset",
          "type": "address"
        },
        {
          "internalType": "uint256",
          "name": "rfr",
          "type": "uint256"
        },
        {
          "internalType": "string",
          "name": "name",
          "type": "string"
        },
        {
          "internalType": "string",
          "name": "symbol",
          "type": "string"
        },
        {
          "components": [
            {
              "internalType": "uint128",
              "name": "minCallStrikePrice",
              "type": "uint128"
            },
            {
              "internalType": "uint128",
              "name": "maxCallStrikePrice",
              "type": "uint128"
            },
            {
              "internalType": "uint128",
              "name": "minPutStrikePrice",
              "type": "uint128"
            },
            {
              "internalType": "uint128",
              "name": "maxPutStrikePrice",
              "type": "uint128"
            },
            {
              "internalType": "uint128",
              "name": "minExpiry",
              "type": "uint128"
            },
            {
              "internalType": "uint128",
              "name": "maxExpiry",
              "type": "uint128"
            }
          ],
          "internalType": "struct Types.OptionParams",
          "name": "_optionParams",
          "type": "tuple"
        },
        {
          "internalType": "address",
          "name": "_authority",
          "type": "address"
        }
      ],
      "stateMutability": "nonpayable",
      "type": "constructor"
    },
    {
      "inputs": [],
      "name": "CollateralAssetInvalid",
      "type": "error"
    },
    {
      "inputs": [
        {
          "internalType": "uint256",
          "name": "quote",
          "type": "uint256"
        },
        {
          "internalType": "int256",
          "name": "delta",
          "type": "int256"
        }
      ],
      "name": "DeltaQuoteError",
      "type": "error"
    },
    {
      "inputs": [],
      "name": "IVNotFound",
      "type": "error"
    },
    {
      "inputs": [],
      "name": "InvalidAmount",
      "type": "error"
    },
    {
      "inputs": [],
      "name": "InvalidShareAmount",
      "type": "error"
    },
    {
      "inputs": [],
      "name": "IssuanceFailed",
      "type": "error"
    },
    {
      "inputs": [],
      "name": "LiabilitiesGreaterThanAssets",
      "type": "error"
    },
    {
      "inputs": [],
      "name": "MaxLiquidityBufferReached",
      "type": "error"
    },
    {
      "inputs": [],
      "name": "NotHandler",
      "type": "error"
    },
    {
      "inputs": [],
      "name": "NotKeeper",
      "type": "error"
    },
    {
      "inputs": [],
      "name": "OptionExpiryInvalid",
      "type": "error"
    },
    {
      "inputs": [],
      "name": "OptionStrikeInvalid",
      "type": "error"
    },
    {
      "inputs": [],
      "name": "PRBMathSD59x18__AbsInputTooSmall",
      "type": "error"
    },
    {
      "inputs": [],
      "name": "PRBMathSD59x18__DivInputTooSmall",
      "type": "error"
    },
    {
      "inputs": [
        {
          "internalType": "uint256",
          "name": "rAbs",
          "type": "uint256"
        }
      ],
      "name": "PRBMathSD59x18__DivOverflow",
      "type": "error"
    },
    {
      "inputs": [],
      "name": "PRBMathSD59x18__MulInputTooSmall",
      "type": "error"
    },
    {
      "inputs": [
        {
          "internalType": "uint256",
          "name": "rAbs",
          "type": "uint256"
        }
      ],
      "name": "PRBMathSD59x18__MulOverflow",
      "type": "error"
    },
    {
      "inputs": [
        {
          "internalType": "uint256",
          "name": "prod1",
          "type": "uint256"
        }
      ],
      "name": "PRBMath__MulDivFixedPointOverflow",
      "type": "error"
    },
    {
      "inputs": [
        {
          "internalType": "uint256",
          "name": "prod1",
          "type": "uint256"
        },
        {
          "internalType": "uint256",
          "name": "denominator",
          "type": "uint256"
        }
      ],
      "name": "PRBMath__MulDivOverflow",
      "type": "error"
    },
    {
      "inputs": [],
      "name": "StrikeAssetInvalid",
      "type": "error"
    },
    {
      "inputs": [],
      "name": "TradingNotPaused",
      "type": "error"
    },
    {
      "inputs": [],
      "name": "TradingPaused",
      "type": "error"
    },
    {
      "inputs": [],
      "name": "UNAUTHORIZED",
      "type": "error"
    },
    {
      "inputs": [],
      "name": "UnderlyingAssetInvalid",
      "type": "error"
    },
    {
      "inputs": [],
      "name": "WithdrawExceedsLiquidity",
      "type": "error"
    },
    {
      "anonymous": false,
      "inputs": [
        {
          "indexed": true,
          "internalType": "address",
          "name": "owner",
          "type": "address"
        },
        {
          "indexed": true,
          "internalType": "address",
          "name": "spender",
          "type": "address"
        },
        {
          "indexed": false,
          "internalType": "uint256",
          "name": "amount",
          "type": "uint256"
        }
      ],
      "name": "Approval",
      "type": "event"
    },
    {
      "anonymous": false,
      "inputs": [
        {
          "indexed": false,
          "internalType": "contract IAuthority",
          "name": "authority",
          "type": "address"
        }
      ],
      "name": "AuthorityUpdated",
      "type": "event"
    },
    {
      "anonymous": false,
      "inputs": [
        {
          "indexed": false,
          "internalType": "address",
          "name": "series",
          "type": "address"
        },
        {
          "indexed": false,
          "internalType": "uint256",
          "name": "amount",
          "type": "uint256"
        },
        {
          "indexed": false,
          "internalType": "uint256",
          "name": "premium",
          "type": "uint256"
        },
        {
          "indexed": false,
          "internalType": "uint256",
          "name": "escrowReturned",
          "type": "uint256"
        },
        {
          "indexed": false,
          "internalType": "address",
          "name": "seller",
          "type": "address"
        }
      ],
      "name": "BuybackOption",
      "type": "event"
    },
    {
      "anonymous": false,
      "inputs": [
        {
          "indexed": false,
          "internalType": "address",
          "name": "recipient",
          "type": "address"
        },
        {
          "indexed": false,
          "internalType": "uint256",
          "name": "amount",
          "type": "uint256"
        },
        {
          "indexed": false,
          "internalType": "uint256",
          "name": "epoch",
          "type": "uint256"
        }
      ],
      "name": "Deposit",
      "type": "event"
    },
    {
      "anonymous": false,
      "inputs": [
        {
          "indexed": false,
          "internalType": "uint256",
          "name": "epoch",
          "type": "uint256"
        }
      ],
      "name": "DepositEpochExecuted",
      "type": "event"
    },
    {
      "anonymous": false,
      "inputs": [
        {
          "indexed": false,
          "internalType": "address",
          "name": "recipient",
          "type": "address"
        },
        {
          "indexed": false,
          "internalType": "uint256",
          "name": "amount",
          "type": "uint256"
        },
        {
          "indexed": false,
          "internalType": "uint256",
          "name": "epoch",
          "type": "uint256"
        }
      ],
      "name": "InitiateWithdraw",
      "type": "event"
    },
    {
      "anonymous": false,
      "inputs": [
        {
          "indexed": false,
          "internalType": "address",
          "name": "account",
          "type": "address"
        }
      ],
      "name": "Paused",
      "type": "event"
    },
    {
      "anonymous": false,
      "inputs": [
        {
          "indexed": false,
          "internalType": "address",
          "name": "recipient",
          "type": "address"
        },
        {
          "indexed": false,
          "internalType": "uint256",
          "name": "amount",
          "type": "uint256"
        },
        {
          "indexed": false,
          "internalType": "uint256",
          "name": "epoch",
          "type": "uint256"
        }
      ],
      "name": "Redeem",
      "type": "event"
    },
    {
      "anonymous": false,
      "inputs": [
        {
          "indexed": false,
          "internalType": "address",
          "name": "series",
          "type": "address"
        },
        {
          "indexed": false,
          "internalType": "uint256",
          "name": "collateralReturned",
          "type": "uint256"
        },
        {
          "indexed": false,
          "internalType": "uint256",
          "name": "collateralLost",
          "type": "uint256"
        },
        {
          "indexed": false,
          "internalType": "address",
          "name": "closer",
          "type": "address"
        }
      ],
      "name": "SettleVault",
      "type": "event"
    },
    {
      "anonymous": false,
      "inputs": [
        {
          "indexed": true,
          "internalType": "address",
          "name": "from",
          "type": "address"
        },
        {
          "indexed": true,
          "internalType": "address",
          "name": "to",
          "type": "address"
        },
        {
          "indexed": false,
          "internalType": "uint256",
          "name": "amount",
          "type": "uint256"
        }
      ],
      "name": "Transfer",
      "type": "event"
    },
    {
      "anonymous": false,
      "inputs": [
        {
          "indexed": false,
          "internalType": "address",
          "name": "account",
          "type": "address"
        }
      ],
      "name": "Unpaused",
      "type": "event"
    },
    {
      "anonymous": false,
      "inputs": [
        {
          "indexed": false,
          "internalType": "address",
          "name": "recipient",
          "type": "address"
        },
        {
          "indexed": false,
          "internalType": "uint256",
          "name": "amount",
          "type": "uint256"
        },
        {
          "indexed": false,
          "internalType": "uint256",
          "name": "shares",
          "type": "uint256"
        }
      ],
      "name": "Withdraw",
      "type": "event"
    },
    {
      "anonymous": false,
      "inputs": [
        {
          "indexed": false,
          "internalType": "uint256",
          "name": "epoch",
          "type": "uint256"
        }
      ],
      "name": "WithdrawalEpochExecuted",
      "type": "event"
    },
    {
      "anonymous": false,
      "inputs": [
        {
          "indexed": false,
          "internalType": "address",
          "name": "series",
          "type": "address"
        },
        {
          "indexed": false,
          "internalType": "uint256",
          "name": "amount",
          "type": "uint256"
        },
        {
          "indexed": false,
          "internalType": "uint256",
          "name": "premium",
          "type": "uint256"
        },
        {
          "indexed": false,
          "internalType": "uint256",
          "name": "escrow",
          "type": "uint256"
        },
        {
          "indexed": false,
          "internalType": "address",
          "name": "buyer",
          "type": "address"
        }
      ],
      "name": "WriteOption",
      "type": "event"
    },
    {
      "inputs": [],
      "name": "DOMAIN_SEPARATOR",
      "outputs": [
        {
          "internalType": "bytes32",
          "name": "",
          "type": "bytes32"
        }
      ],
      "stateMutability": "view",
      "type": "function"
    },
    {
      "inputs": [],
      "name": "aboveThresholdGradient",
      "outputs": [
        {
          "internalType": "uint256",
          "name": "",
          "type": "uint256"
        }
      ],
      "stateMutability": "view",
      "type": "function"
    },
    {
      "inputs": [],
      "name": "aboveThresholdYIntercept",
      "outputs": [
        {
          "internalType": "uint256",
          "name": "",
          "type": "uint256"
        }
      ],
      "stateMutability": "view",
      "type": "function"
    },
    {
      "inputs": [
        {
          "internalType": "uint256",
          "name": "lpCollateralDifference",
          "type": "uint256"
        },
        {
          "internalType": "bool",
          "name": "addToLpBalance",
          "type": "bool"
        }
      ],
      "name": "adjustCollateral",
      "outputs": [],
      "stateMutability": "nonpayable",
      "type": "function"
    },
    {
      "inputs": [
        {
          "internalType": "address",
          "name": "",
          "type": "address"
        },
        {
          "internalType": "address",
          "name": "",
          "type": "address"
        }
      ],
      "name": "allowance",
      "outputs": [
        {
          "internalType": "uint256",
          "name": "",
          "type": "uint256"
        }
      ],
      "stateMutability": "view",
      "type": "function"
    },
    {
      "inputs": [
        {
          "internalType": "address",
          "name": "spender",
          "type": "address"
        },
        {
          "internalType": "uint256",
          "name": "amount",
          "type": "uint256"
        }
      ],
      "name": "approve",
      "outputs": [
        {
          "internalType": "bool",
          "name": "",
          "type": "bool"
        }
      ],
      "stateMutability": "nonpayable",
      "type": "function"
    },
    {
      "inputs": [],
      "name": "authority",
      "outputs": [
        {
          "internalType": "contract IAuthority",
          "name": "",
          "type": "address"
        }
      ],
      "stateMutability": "view",
      "type": "function"
    },
    {
      "inputs": [
        {
          "internalType": "address",
          "name": "",
          "type": "address"
        }
      ],
      "name": "balanceOf",
      "outputs": [
        {
          "internalType": "uint256",
          "name": "",
          "type": "uint256"
        }
      ],
      "stateMutability": "view",
      "type": "function"
    },
    {
      "inputs": [],
      "name": "belowThresholdGradient",
      "outputs": [
        {
          "internalType": "uint256",
          "name": "",
          "type": "uint256"
        }
      ],
      "stateMutability": "view",
      "type": "function"
    },
    {
      "inputs": [],
      "name": "bidAskIVSpread",
      "outputs": [
        {
          "internalType": "uint256",
          "name": "",
          "type": "uint256"
        }
      ],
      "stateMutability": "view",
      "type": "function"
    },
    {
      "inputs": [],
      "name": "bufferPercentage",
      "outputs": [
        {
          "internalType": "uint256",
          "name": "",
          "type": "uint256"
        }
      ],
      "stateMutability": "view",
      "type": "function"
    },
    {
      "inputs": [
        {
          "internalType": "address",
          "name": "_handler",
          "type": "address"
        },
        {
          "internalType": "bool",
          "name": "auth",
          "type": "bool"
        }
      ],
      "name": "changeHandler",
      "outputs": [],
      "stateMutability": "nonpayable",
      "type": "function"
    },
    {
      "inputs": [],
      "name": "checkBuffer",
      "outputs": [
        {
          "internalType": "uint256",
          "name": "bufferRemaining",
          "type": "uint256"
        }
      ],
      "stateMutability": "view",
      "type": "function"
    },
    {
      "inputs": [],
      "name": "collateralAllocated",
      "outputs": [
        {
          "internalType": "uint256",
          "name": "",
          "type": "uint256"
        }
      ],
      "stateMutability": "view",
      "type": "function"
    },
    {
      "inputs": [],
      "name": "collateralAsset",
      "outputs": [
        {
          "internalType": "address",
          "name": "",
          "type": "address"
        }
      ],
      "stateMutability": "view",
      "type": "function"
    },
    {
      "inputs": [],
      "name": "collateralCap",
      "outputs": [
        {
          "internalType": "uint256",
          "name": "",
          "type": "uint256"
        }
      ],
      "stateMutability": "view",
      "type": "function"
    },
    {
      "inputs": [
        {
          "internalType": "uint256",
          "name": "_shares",
          "type": "uint256"
        }
      ],
      "name": "completeWithdraw",
      "outputs": [
        {
          "internalType": "uint256",
          "name": "",
          "type": "uint256"
        }
      ],
      "stateMutability": "nonpayable",
      "type": "function"
    },
    {
      "inputs": [],
      "name": "decimals",
      "outputs": [
        {
          "internalType": "uint8",
          "name": "",
          "type": "uint8"
        }
      ],
      "stateMutability": "view",
      "type": "function"
    },
    {
      "inputs": [
        {
          "internalType": "uint256",
          "name": "_amount",
          "type": "uint256"
        }
      ],
      "name": "deposit",
      "outputs": [
        {
          "internalType": "bool",
          "name": "",
          "type": "bool"
        }
      ],
      "stateMutability": "nonpayable",
      "type": "function"
    },
    {
      "inputs": [],
      "name": "depositEpoch",
      "outputs": [
        {
          "internalType": "uint256",
          "name": "",
          "type": "uint256"
        }
      ],
      "stateMutability": "view",
      "type": "function"
    },
    {
      "inputs": [
        {
          "internalType": "uint256",
          "name": "",
          "type": "uint256"
        }
      ],
      "name": "depositEpochPricePerShare",
      "outputs": [
        {
          "internalType": "uint256",
          "name": "",
          "type": "uint256"
        }
      ],
      "stateMutability": "view",
      "type": "function"
    },
    {
      "inputs": [
        {
          "internalType": "address",
          "name": "",
          "type": "address"
        }
      ],
      "name": "depositReceipts",
      "outputs": [
        {
          "internalType": "uint128",
          "name": "epoch",
          "type": "uint128"
        },
        {
          "internalType": "uint128",
          "name": "amount",
          "type": "uint128"
        },
        {
          "internalType": "uint256",
          "name": "unredeemedShares",
          "type": "uint256"
        }
      ],
      "stateMutability": "view",
      "type": "function"
    },
    {
      "inputs": [],
      "name": "ephemeralDelta",
      "outputs": [
        {
          "internalType": "int256",
          "name": "",
          "type": "int256"
        }
      ],
      "stateMutability": "view",
      "type": "function"
    },
    {
      "inputs": [],
      "name": "ephemeralLiabilities",
      "outputs": [
        {
          "internalType": "int256",
          "name": "",
          "type": "int256"
        }
      ],
      "stateMutability": "view",
      "type": "function"
    },
    {
      "inputs": [],
      "name": "executeEpochCalculation",
      "outputs": [],
      "stateMutability": "nonpayable",
      "type": "function"
    },
    {
      "inputs": [],
      "name": "getAssets",
      "outputs": [
        {
          "internalType": "uint256",
          "name": "",
          "type": "uint256"
        }
      ],
      "stateMutability": "view",
      "type": "function"
    },
    {
      "inputs": [
        {
          "internalType": "address",
          "name": "asset",
          "type": "address"
        }
      ],
      "name": "getBalance",
      "outputs": [
        {
          "internalType": "uint256",
          "name": "",
          "type": "uint256"
        }
      ],
      "stateMutability": "view",
      "type": "function"
    },
    {
      "inputs": [],
      "name": "getExternalDelta",
      "outputs": [
        {
          "internalType": "int256",
          "name": "externalDelta",
          "type": "int256"
        }
      ],
      "stateMutability": "view",
      "type": "function"
    },
    {
      "inputs": [
        {
          "internalType": "bool",
          "name": "isPut",
          "type": "bool"
        },
        {
          "internalType": "uint256",
          "name": "underlyingPrice",
          "type": "uint256"
        },
        {
          "internalType": "uint256",
          "name": "strikePrice",
          "type": "uint256"
        },
        {
          "internalType": "uint256",
          "name": "expiration",
          "type": "uint256"
        }
      ],
      "name": "getImpliedVolatility",
      "outputs": [
        {
          "internalType": "uint256",
          "name": "",
          "type": "uint256"
        }
      ],
      "stateMutability": "view",
      "type": "function"
    },
    {
      "inputs": [],
      "name": "getNAV",
      "outputs": [
        {
          "internalType": "uint256",
          "name": "",
          "type": "uint256"
        }
      ],
      "stateMutability": "view",
      "type": "function"
    },
    {
      "inputs": [],
      "name": "getPortfolioDelta",
      "outputs": [
        {
          "internalType": "int256",
          "name": "",
          "type": "int256"
        }
      ],
      "stateMutability": "view",
      "type": "function"
    },
    {
      "inputs": [
        {
          "internalType": "address",
          "name": "",
          "type": "address"
        }
      ],
      "name": "handler",
      "outputs": [
        {
          "internalType": "bool",
          "name": "",
          "type": "bool"
        }
      ],
      "stateMutability": "view",
      "type": "function"
    },
    {
      "inputs": [
        {
          "components": [
            {
              "internalType": "uint64",
              "name": "expiration",
              "type": "uint64"
            },
            {
              "internalType": "uint128",
              "name": "strike",
              "type": "uint128"
            },
            {
              "internalType": "bool",
              "name": "isPut",
              "type": "bool"
            },
            {
              "internalType": "address",
              "name": "underlying",
              "type": "address"
            },
            {
              "internalType": "address",
              "name": "strikeAsset",
              "type": "address"
            },
            {
              "internalType": "address",
              "name": "collateral",
              "type": "address"
            }
          ],
          "internalType": "struct Types.OptionSeries",
          "name": "optionSeries",
          "type": "tuple"
        },
        {
          "internalType": "uint256",
          "name": "amount",
          "type": "uint256"
        },
        {
          "internalType": "contract IOptionRegistry",
          "name": "optionRegistry",
          "type": "address"
        },
        {
          "internalType": "address",
          "name": "seriesAddress",
          "type": "address"
        },
        {
          "internalType": "uint256",
          "name": "premium",
          "type": "uint256"
        },
        {
          "internalType": "int256",
          "name": "delta",
          "type": "int256"
        },
        {
          "internalType": "address",
          "name": "seller",
          "type": "address"
        }
      ],
      "name": "handlerBuybackOption",
      "outputs": [
        {
          "internalType": "uint256",
          "name": "",
          "type": "uint256"
        }
      ],
      "stateMutability": "nonpayable",
      "type": "function"
    },
    {
      "inputs": [
        {
          "components": [
            {
              "internalType": "uint64",
              "name": "expiration",
              "type": "uint64"
            },
            {
              "internalType": "uint128",
              "name": "strike",
              "type": "uint128"
            },
            {
              "internalType": "bool",
              "name": "isPut",
              "type": "bool"
            },
            {
              "internalType": "address",
              "name": "underlying",
              "type": "address"
            },
            {
              "internalType": "address",
              "name": "strikeAsset",
              "type": "address"
            },
            {
              "internalType": "address",
              "name": "collateral",
              "type": "address"
            }
          ],
          "internalType": "struct Types.OptionSeries",
          "name": "optionSeries",
          "type": "tuple"
        }
      ],
      "name": "handlerIssue",
      "outputs": [
        {
          "internalType": "address",
          "name": "",
          "type": "address"
        }
      ],
      "stateMutability": "nonpayable",
      "type": "function"
    },
    {
      "inputs": [
        {
          "components": [
            {
              "internalType": "uint64",
              "name": "expiration",
              "type": "uint64"
            },
            {
              "internalType": "uint128",
              "name": "strike",
              "type": "uint128"
            },
            {
              "internalType": "bool",
              "name": "isPut",
              "type": "bool"
            },
            {
              "internalType": "address",
              "name": "underlying",
              "type": "address"
            },
            {
              "internalType": "address",
              "name": "strikeAsset",
              "type": "address"
            },
            {
              "internalType": "address",
              "name": "collateral",
              "type": "address"
            }
          ],
          "internalType": "struct Types.OptionSeries",
          "name": "optionSeries",
          "type": "tuple"
        },
        {
          "internalType": "uint256",
          "name": "amount",
          "type": "uint256"
        },
        {
          "internalType": "uint256",
          "name": "premium",
          "type": "uint256"
        },
        {
          "internalType": "int256",
          "name": "delta",
          "type": "int256"
        },
        {
          "internalType": "address",
          "name": "recipient",
          "type": "address"
        }
      ],
      "name": "handlerIssueAndWriteOption",
      "outputs": [
        {
          "internalType": "uint256",
          "name": "",
          "type": "uint256"
        },
        {
          "internalType": "address",
          "name": "",
          "type": "address"
        }
      ],
      "stateMutability": "nonpayable",
      "type": "function"
    },
    {
      "inputs": [
        {
          "components": [
            {
              "internalType": "uint64",
              "name": "expiration",
              "type": "uint64"
            },
            {
              "internalType": "uint128",
              "name": "strike",
              "type": "uint128"
            },
            {
              "internalType": "bool",
              "name": "isPut",
              "type": "bool"
            },
            {
              "internalType": "address",
              "name": "underlying",
              "type": "address"
            },
            {
              "internalType": "address",
              "name": "strikeAsset",
              "type": "address"
            },
            {
              "internalType": "address",
              "name": "collateral",
              "type": "address"
            }
          ],
          "internalType": "struct Types.OptionSeries",
          "name": "optionSeries",
          "type": "tuple"
        },
        {
          "internalType": "address",
          "name": "seriesAddress",
          "type": "address"
        },
        {
          "internalType": "uint256",
          "name": "amount",
          "type": "uint256"
        },
        {
          "internalType": "contract IOptionRegistry",
          "name": "optionRegistry",
          "type": "address"
        },
        {
          "internalType": "uint256",
          "name": "premium",
          "type": "uint256"
        },
        {
          "internalType": "int256",
          "name": "delta",
          "type": "int256"
        },
        {
          "internalType": "address",
          "name": "recipient",
          "type": "address"
        }
      ],
      "name": "handlerWriteOption",
      "outputs": [
        {
          "internalType": "uint256",
          "name": "",
          "type": "uint256"
        }
      ],
      "stateMutability": "nonpayable",
      "type": "function"
    },
    {
      "inputs": [
        {
          "internalType": "uint256",
          "name": "",
          "type": "uint256"
        }
      ],
      "name": "hedgingReactors",
      "outputs": [
        {
          "internalType": "address",
          "name": "",
          "type": "address"
        }
      ],
      "stateMutability": "view",
      "type": "function"
    },
    {
      "inputs": [
        {
          "internalType": "uint256",
          "name": "_shares",
          "type": "uint256"
        }
      ],
      "name": "initiateWithdraw",
      "outputs": [],
      "stateMutability": "nonpayable",
      "type": "function"
    },
    {
      "inputs": [],
      "name": "isTradingPaused",
      "outputs": [
        {
          "internalType": "bool",
          "name": "",
          "type": "bool"
        }
      ],
      "stateMutability": "view",
      "type": "function"
    },
    {
      "inputs": [
        {
          "internalType": "address",
          "name": "",
          "type": "address"
        }
      ],
      "name": "keeper",
      "outputs": [
        {
          "internalType": "bool",
          "name": "",
          "type": "bool"
        }
      ],
      "stateMutability": "view",
      "type": "function"
    },
    {
      "inputs": [],
      "name": "maxDiscount",
      "outputs": [
        {
          "internalType": "uint256",
          "name": "",
          "type": "uint256"
        }
      ],
      "stateMutability": "view",
      "type": "function"
    },
    {
      "inputs": [],
      "name": "maxPriceDeviationThreshold",
      "outputs": [
        {
          "internalType": "uint256",
          "name": "",
          "type": "uint256"
        }
      ],
      "stateMutability": "view",
      "type": "function"
    },
    {
      "inputs": [],
      "name": "maxTimeDeviationThreshold",
      "outputs": [
        {
          "internalType": "uint256",
          "name": "",
          "type": "uint256"
        }
      ],
      "stateMutability": "view",
      "type": "function"
    },
    {
      "inputs": [],
      "name": "name",
      "outputs": [
        {
          "internalType": "string",
          "name": "",
          "type": "string"
        }
      ],
      "stateMutability": "view",
      "type": "function"
    },
    {
      "inputs": [
        {
          "internalType": "address",
          "name": "",
          "type": "address"
        }
      ],
      "name": "nonces",
      "outputs": [
        {
          "internalType": "uint256",
          "name": "",
          "type": "uint256"
        }
      ],
      "stateMutability": "view",
      "type": "function"
    },
    {
      "inputs": [],
      "name": "optionParams",
      "outputs": [
        {
          "internalType": "uint128",
          "name": "minCallStrikePrice",
          "type": "uint128"
        },
        {
          "internalType": "uint128",
          "name": "maxCallStrikePrice",
          "type": "uint128"
        },
        {
          "internalType": "uint128",
          "name": "minPutStrikePrice",
          "type": "uint128"
        },
        {
          "internalType": "uint128",
          "name": "maxPutStrikePrice",
          "type": "uint128"
        },
        {
          "internalType": "uint128",
          "name": "minExpiry",
          "type": "uint128"
        },
        {
          "internalType": "uint128",
          "name": "maxExpiry",
          "type": "uint128"
        }
      ],
      "stateMutability": "view",
      "type": "function"
    },
    {
      "inputs": [],
      "name": "partitionedFunds",
      "outputs": [
        {
          "internalType": "uint256",
          "name": "",
          "type": "uint256"
        }
      ],
      "stateMutability": "view",
      "type": "function"
    },
    {
      "inputs": [],
      "name": "pause",
      "outputs": [],
      "stateMutability": "nonpayable",
      "type": "function"
    },
    {
      "inputs": [],
      "name": "pauseTradingAndRequest",
      "outputs": [
        {
          "internalType": "bytes32",
          "name": "",
          "type": "bytes32"
        }
      ],
      "stateMutability": "nonpayable",
      "type": "function"
    },
    {
      "inputs": [
        {
          "internalType": "bool",
          "name": "_pause",
          "type": "bool"
        }
      ],
      "name": "pauseUnpauseTrading",
      "outputs": [],
      "stateMutability": "nonpayable",
      "type": "function"
    },
    {
      "inputs": [],
      "name": "paused",
      "outputs": [
        {
          "internalType": "bool",
          "name": "",
          "type": "bool"
        }
      ],
      "stateMutability": "view",
      "type": "function"
    },
    {
      "inputs": [],
      "name": "pendingDeposits",
      "outputs": [
        {
          "internalType": "uint256",
          "name": "",
          "type": "uint256"
        }
      ],
      "stateMutability": "view",
      "type": "function"
    },
    {
      "inputs": [],
      "name": "pendingWithdrawals",
      "outputs": [
        {
          "internalType": "uint256",
          "name": "",
          "type": "uint256"
        }
      ],
      "stateMutability": "view",
      "type": "function"
    },
    {
      "inputs": [
        {
          "internalType": "address",
          "name": "owner",
          "type": "address"
        },
        {
          "internalType": "address",
          "name": "spender",
          "type": "address"
        },
        {
          "internalType": "uint256",
          "name": "value",
          "type": "uint256"
        },
        {
          "internalType": "uint256",
          "name": "deadline",
          "type": "uint256"
        },
        {
          "internalType": "uint8",
          "name": "v",
          "type": "uint8"
        },
        {
          "internalType": "bytes32",
          "name": "r",
          "type": "bytes32"
        },
        {
          "internalType": "bytes32",
          "name": "s",
          "type": "bytes32"
        }
      ],
      "name": "permit",
      "outputs": [],
      "stateMutability": "nonpayable",
      "type": "function"
    },
    {
      "inputs": [],
      "name": "protocol",
      "outputs": [
        {
          "internalType": "contract Protocol",
          "name": "",
          "type": "address"
        }
      ],
      "stateMutability": "view",
      "type": "function"
    },
    {
      "inputs": [
        {
          "components": [
            {
              "internalType": "uint64",
              "name": "expiration",
              "type": "uint64"
            },
            {
              "internalType": "uint128",
              "name": "strike",
              "type": "uint128"
            },
            {
              "internalType": "bool",
              "name": "isPut",
              "type": "bool"
            },
            {
              "internalType": "address",
              "name": "underlying",
              "type": "address"
            },
            {
              "internalType": "address",
              "name": "strikeAsset",
              "type": "address"
            },
            {
              "internalType": "address",
              "name": "collateral",
              "type": "address"
            }
          ],
          "internalType": "struct Types.OptionSeries",
          "name": "optionSeries",
          "type": "tuple"
        },
        {
          "internalType": "uint256",
          "name": "amount",
          "type": "uint256"
        },
        {
          "internalType": "bool",
          "name": "toBuy",
          "type": "bool"
        }
      ],
      "name": "quotePriceWithUtilizationGreeks",
      "outputs": [
        {
          "internalType": "uint256",
          "name": "quote",
          "type": "uint256"
        },
        {
          "internalType": "int256",
          "name": "delta",
          "type": "int256"
        }
      ],
      "stateMutability": "view",
      "type": "function"
    },
    {
      "inputs": [
        {
          "internalType": "int256",
          "name": "delta",
          "type": "int256"
        },
        {
          "internalType": "uint256",
          "name": "reactorIndex",
          "type": "uint256"
        }
      ],
      "name": "rebalancePortfolioDelta",
      "outputs": [],
      "stateMutability": "nonpayable",
      "type": "function"
    },
    {
      "inputs": [
        {
          "internalType": "uint256",
          "name": "_shares",
          "type": "uint256"
        }
      ],
      "name": "redeem",
      "outputs": [
        {
          "internalType": "uint256",
          "name": "",
          "type": "uint256"
        }
      ],
      "stateMutability": "nonpayable",
      "type": "function"
    },
    {
      "inputs": [
        {
          "internalType": "uint256",
          "name": "_index",
          "type": "uint256"
        },
        {
          "internalType": "bool",
          "name": "_override",
          "type": "bool"
        }
      ],
      "name": "removeHedgingReactorAddress",
      "outputs": [],
      "stateMutability": "nonpayable",
      "type": "function"
    },
    {
      "inputs": [],
      "name": "resetEphemeralValues",
      "outputs": [],
      "stateMutability": "nonpayable",
      "type": "function"
    },
    {
      "inputs": [],
      "name": "riskFreeRate",
      "outputs": [
        {
          "internalType": "uint256",
          "name": "",
          "type": "uint256"
        }
      ],
      "stateMutability": "view",
      "type": "function"
    },
    {
      "inputs": [
        {
          "internalType": "contract IAuthority",
          "name": "_newAuthority",
          "type": "address"
        }
      ],
      "name": "setAuthority",
      "outputs": [],
      "stateMutability": "nonpayable",
      "type": "function"
    },
    {
      "inputs": [
        {
          "internalType": "uint256",
          "name": "_bidAskSpread",
          "type": "uint256"
        }
      ],
      "name": "setBidAskSpread",
      "outputs": [],
      "stateMutability": "nonpayable",
      "type": "function"
    },
    {
      "inputs": [
        {
          "internalType": "uint256",
          "name": "_bufferPercentage",
          "type": "uint256"
        }
      ],
      "name": "setBufferPercentage",
      "outputs": [],
      "stateMutability": "nonpayable",
      "type": "function"
    },
    {
      "inputs": [
        {
          "internalType": "uint256",
          "name": "_collateralCap",
          "type": "uint256"
        }
      ],
      "name": "setCollateralCap",
      "outputs": [],
      "stateMutability": "nonpayable",
      "type": "function"
    },
    {
      "inputs": [
        {
          "internalType": "address",
          "name": "_reactorAddress",
          "type": "address"
        }
      ],
      "name": "setHedgingReactorAddress",
      "outputs": [],
      "stateMutability": "nonpayable",
      "type": "function"
    },
    {
      "inputs": [
        {
          "internalType": "address",
          "name": "_keeper",
          "type": "address"
        },
        {
          "internalType": "bool",
          "name": "_auth",
          "type": "bool"
        }
      ],
      "name": "setKeeper",
      "outputs": [],
      "stateMutability": "nonpayable",
      "type": "function"
    },
    {
      "inputs": [
        {
          "internalType": "uint256",
          "name": "_maxDiscount",
          "type": "uint256"
        }
      ],
      "name": "setMaxDiscount",
      "outputs": [],
      "stateMutability": "nonpayable",
      "type": "function"
    },
    {
      "inputs": [
        {
          "internalType": "uint256",
          "name": "_maxPriceDeviationThreshold",
          "type": "uint256"
        }
      ],
      "name": "setMaxPriceDeviationThreshold",
      "outputs": [],
      "stateMutability": "nonpayable",
      "type": "function"
    },
    {
      "inputs": [
        {
          "internalType": "uint256",
          "name": "_maxTimeDeviationThreshold",
          "type": "uint256"
        }
      ],
      "name": "setMaxTimeDeviationThreshold",
      "outputs": [],
      "stateMutability": "nonpayable",
      "type": "function"
    },
    {
      "inputs": [
        {
          "internalType": "uint128",
          "name": "_newMinCallStrike",
          "type": "uint128"
        },
        {
          "internalType": "uint128",
          "name": "_newMaxCallStrike",
          "type": "uint128"
        },
        {
          "internalType": "uint128",
          "name": "_newMinPutStrike",
          "type": "uint128"
        },
        {
          "internalType": "uint128",
          "name": "_newMaxPutStrike",
          "type": "uint128"
        },
        {
          "internalType": "uint128",
          "name": "_newMinExpiry",
          "type": "uint128"
        },
        {
          "internalType": "uint128",
          "name": "_newMaxExpiry",
          "type": "uint128"
        }
      ],
      "name": "setNewOptionParams",
      "outputs": [],
      "stateMutability": "nonpayable",
      "type": "function"
    },
    {
      "inputs": [
        {
          "internalType": "uint256",
          "name": "_riskFreeRate",
          "type": "uint256"
        }
      ],
      "name": "setRiskFreeRate",
      "outputs": [],
      "stateMutability": "nonpayable",
      "type": "function"
    },
    {
      "inputs": [
        {
          "internalType": "uint256",
          "name": "_belowThresholdGradient",
          "type": "uint256"
        },
        {
          "internalType": "uint256",
          "name": "_aboveThresholdGradient",
          "type": "uint256"
        },
        {
          "internalType": "uint256",
          "name": "_utilizationFunctionThreshold",
          "type": "uint256"
        }
      ],
      "name": "setUtilizationSkewParams",
      "outputs": [],
      "stateMutability": "nonpayable",
      "type": "function"
    },
    {
      "inputs": [
        {
          "internalType": "address",
          "name": "seriesAddress",
          "type": "address"
        }
      ],
      "name": "settleVault",
      "outputs": [
        {
          "internalType": "uint256",
          "name": "",
          "type": "uint256"
        }
      ],
      "stateMutability": "nonpayable",
      "type": "function"
    },
    {
      "inputs": [],
      "name": "strikeAsset",
      "outputs": [
        {
          "internalType": "address",
          "name": "",
          "type": "address"
        }
      ],
      "stateMutability": "view",
      "type": "function"
    },
    {
      "inputs": [],
      "name": "symbol",
      "outputs": [
        {
          "internalType": "string",
          "name": "",
          "type": "string"
        }
      ],
      "stateMutability": "view",
      "type": "function"
    },
    {
      "inputs": [],
      "name": "totalSupply",
      "outputs": [
        {
          "internalType": "uint256",
          "name": "",
          "type": "uint256"
        }
      ],
      "stateMutability": "view",
      "type": "function"
    },
    {
      "inputs": [
        {
          "internalType": "address",
          "name": "to",
          "type": "address"
        },
        {
          "internalType": "uint256",
          "name": "amount",
          "type": "uint256"
        }
      ],
      "name": "transfer",
      "outputs": [
        {
          "internalType": "bool",
          "name": "",
          "type": "bool"
        }
      ],
      "stateMutability": "nonpayable",
      "type": "function"
    },
    {
      "inputs": [
        {
          "internalType": "address",
          "name": "from",
          "type": "address"
        },
        {
          "internalType": "address",
          "name": "to",
          "type": "address"
        },
        {
          "internalType": "uint256",
          "name": "amount",
          "type": "uint256"
        }
      ],
      "name": "transferFrom",
      "outputs": [
        {
          "internalType": "bool",
          "name": "",
          "type": "bool"
        }
      ],
      "stateMutability": "nonpayable",
      "type": "function"
    },
    {
      "inputs": [],
      "name": "underlyingAsset",
      "outputs": [
        {
          "internalType": "address",
          "name": "",
          "type": "address"
        }
      ],
      "stateMutability": "view",
      "type": "function"
    },
    {
      "inputs": [],
      "name": "unpause",
      "outputs": [],
      "stateMutability": "nonpayable",
      "type": "function"
    },
    {
      "inputs": [],
      "name": "utilizationFunctionThreshold",
      "outputs": [
        {
          "internalType": "uint256",
          "name": "",
          "type": "uint256"
        }
      ],
      "stateMutability": "view",
      "type": "function"
    },
    {
      "inputs": [],
      "name": "withdrawalEpoch",
      "outputs": [
        {
          "internalType": "uint256",
          "name": "",
          "type": "uint256"
        }
      ],
      "stateMutability": "view",
      "type": "function"
    },
    {
      "inputs": [
        {
          "internalType": "uint256",
          "name": "",
          "type": "uint256"
        }
      ],
      "name": "withdrawalEpochPricePerShare",
      "outputs": [
        {
          "internalType": "uint256",
          "name": "",
          "type": "uint256"
        }
      ],
      "stateMutability": "view",
      "type": "function"
    },
    {
      "inputs": [
        {
          "internalType": "address",
          "name": "",
          "type": "address"
        }
      ],
      "name": "withdrawalReceipts",
      "outputs": [
        {
          "internalType": "uint128",
          "name": "epoch",
          "type": "uint128"
        },
        {
          "internalType": "uint128",
          "name": "shares",
          "type": "uint128"
        }
      ],
      "stateMutability": "view",
      "type": "function"
    }
  ],
  "bytecode": "0x6101606040526107d0601555600019601755606462000028670de0b6b3a7640000600a620003a4565b620000349190620003c6565b6018556000602255670de0b6b3a7640000602355670853a0d2313c0000602455670853a0d2313c00006025553480156200006d57600080fd5b5060405162006686380380620066868339810160408190526200009091620004fc565b80848460128260009080519060200190620000ad929190620002e8565b508151620000c3906001906020850190620002e8565b5060ff81166080524660a052620000d96200024c565b60c0525050600680546001600160a01b0319166001600160a01b0384169081179091556040519081527f2f658b440c35314f52658ea8a740e05b284cdc84dc9ae01e891f21b8933e7cad915060200160405180910390a15060016007556008805460ff191690556001600160a01b0388811661010052601d8690558781166101205286811661014052891660e05281516020838101516001600160801b03928316600160801b918416820217601a5560408501516060860151908416908416820217601b55608085015160a086015190841693160291909117601c556000808052670de0b6b3a76400007fe710864318d4a32f37d6ce54cb3fadbef648dd12d8dbdf53973564d56b7f881c819055600f9092527ff4803e074bd026baaf6ed2e288c9515f68c72fb7216eebdd7cae1718a53ec37591909155600c80549162000221836200067f565b9091555050600d805490600062000238836200067f565b91905055505050505050505050506200077e565b60007f8b73c3c69bb8fe3d512ecc4cf759cc79239f7b179b0ffacaa9a75d522b39400f6000604051620002809190620006da565b6040805191829003822060208301939093528101919091527fc89efdaa54c0f20c7adf612882df0950f5a951637e0307cdcb4c672f298b8bc660608201524660808201523060a082015260c00160405160208183030381529060405280519060200120905090565b828054620002f6906200069d565b90600052602060002090601f0160209004810192826200031a576000855562000365565b82601f106200033557805160ff191683800117855562000365565b8280016001018555821562000365579182015b828111156200036557825182559160200191906001019062000348565b506200037392915062000377565b5090565b5b8082111562000373576000815560010162000378565b634e487b7160e01b600052601160045260246000fd5b6000816000190483118215151615620003c157620003c16200038e565b500290565b600082620003e457634e487b7160e01b600052601260045260246000fd5b500490565b80516001600160a01b03811681146200040157600080fd5b919050565b634e487b7160e01b600052604160045260246000fd5b604051601f8201601f191681016001600160401b038111828210171562000447576200044762000406565b604052919050565b600082601f8301126200046157600080fd5b81516001600160401b038111156200047d576200047d62000406565b602062000493601f8301601f191682016200041c565b8281528582848701011115620004a857600080fd5b60005b83811015620004c8578581018301518282018401528201620004ab565b83811115620004da5760008385840101525b5095945050505050565b80516001600160801b03811681146200040157600080fd5b6000806000806000806000806000898b036101c08112156200051d57600080fd5b620005288b620003e9565b99506200053860208c01620003e9565b98506200054860408c01620003e9565b97506200055860608c01620003e9565b60808c015160a08d015191985096506001600160401b03808211156200057d57600080fd5b6200058b8e838f016200044f565b965060c08d0151915080821115620005a257600080fd5b620005b08e838f016200044f565b955060c060df1984011215620005c557600080fd5b604051925060c0830191508282108183111715620005e757620005e762000406565b50604052620005f960e08c01620004e4565b81526200060a6101008c01620004e4565b60208201526200061e6101208c01620004e4565b6040820152620006326101408c01620004e4565b6060820152620006466101608c01620004e4565b60808201526200065a6101808c01620004e4565b60a08201529150620006706101a08b01620003e9565b90509295985092959850929598565b60006000198214156200069657620006966200038e565b5060010190565b600181811c90821680620006b257607f821691505b60208210811415620006d457634e487b7160e01b600052602260045260246000fd5b50919050565b600080835481600182811c915080831680620006f757607f831692505b60208084108214156200071857634e487b7160e01b86526022600452602486fd5b8180156200072f5760018114620007415762000770565b60ff1986168952848901965062000770565b60008a81526020902060005b86811015620007685781548b8201529085019083016200074d565b505084890196505b509498975050505050505050565b60805160a05160c05160e051610100516101205161014051615dc6620008c060003960008181610a1a01528181610d9101528181610f4c01528181611b5401528181611cc10152818161249e015281816125130152818161320a015281816132a601528181613993015281816139db01528181613c9c01528181613d8b01528181613fc6015281816143cb0152818161478e0152614839015260008181610834015281816110c001528181611200015281816112cd01528181613411015281816134de015261401c015260008181610577015281816110e801528181611228015281816112ee01528181613439015281816134ff015261407201526000818161095f01528181612c5601528181612dad01528181612ff9015281816130ee0152613a12015260006111bc0152600061118c015260006106260152615dc66000f3fe608060405234801561001057600080fd5b50600436106104b75760003560e01c806370183e0a11610278578063b8b89e1b1161015c578063dc1bee0d116100ce578063e8cf860811610092578063e8cf860814610b86578063eaae9f4214610ba9578063f3cc699314610bbc578063f589826214610bc5578063f60a61bb14610bd8578063f8b2cb4f14610beb57600080fd5b8063dc1bee0d14610b09578063dd62ed3e14610b12578063dfef605e14610b3d578063e1ea1cf514610b60578063e6d1544014610b7357600080fd5b8063c0e9b16411610120578063c0e9b16414610aac578063cda2dd9a14610abf578063d1b9e85314610ac7578063d2bb18e914610ada578063d505accf14610ae3578063db006a7514610af657600080fd5b8063b8b89e1b14610a6b578063b908337b14610a74578063bdb4246114610a7d578063beca03d514610a90578063bf7e214f14610a9957600080fd5b80638ce74426116101f5578063992006e4116101b9578063992006e4146109ef578063a9059cbb14610a02578063aabaecd614610a15578063ae7ec18c14610a3c578063afd3280814610a4f578063b6b55f2514610a5857600080fd5b80638ce744261461095a578063923e76571461098157806393fd25ec1461098a57806395d89b41146109935780639649b0a21461099b57600080fd5b80637e108d521161023c5780637e108d52146108995780637ecebe00146108ac578063802aaa5f146108cc5780638456cb59146108d55780638adce2b4146108dd57600080fd5b806370183e0a146107fc57806370a082311461080f5780637158da7c1461082f5780637a9e5e4b146108565780637d4624721461086957600080fd5b80633a5cd4011161039f5780635733af2a1161031c5780636724589e116102e05780636724589e1461078057806367a35e471461079357806367e4ac2c146107a65780636834a332146107ae5780636cc69817146107c15780636cf79126146107d457600080fd5b80635733af2a146106ee5780635c074f44146107015780635c975abb1461070a5780635cb563ec146107155780636719b2ee1461071e57600080fd5b80634c9eb2ec116103635780634c9eb2ec146106ac5780634da2df78146106b55780634e952c26146106bd578063522f4a08146106dd57806354db2f73146106e657600080fd5b80633a5cd4011461067e5780633b9d7454146106875780633d1d667c1461068f5780633f2306ab146106975780633f4ba83a146106a457600080fd5b806318160ddd1161043857806326d127f3116103fc57806326d127f3146106065780632b371ecf1461060e578063313ce567146106215780633185d32b1461065a57806334b2c0221461066d5780633644e5151461067657600080fd5b806318160ddd146105b15780631e4bc557146105ba5780632087ed5c146105cd57806321950260146105e057806323b872dd146105f357600080fd5b80630a67daad1161047f5780630a67daad146105215780630b75503d1461054157806311fad31214610556578063131f13931461056957806317d69bc81461057257600080fd5b80630126c606146104bc57806301633407146104d757806303c53893146104e057806306fdde03146104e9578063095ea7b3146104fe575b600080fd5b6104c4610bfe565b6040519081526020015b60405180910390f35b6104c460195481565b6104c460225481565b6104f1610c0d565b6040516104ce9190614f14565b61051161050c366004614f7e565b610c9b565b60405190151581526020016104ce565b6104c461052f366004614faa565b600f6020526000908152604090205481565b61055461054f366004614fd1565b610d08565b005b610554610564366004614faa565b610d3b565b6104c460255481565b6105997f000000000000000000000000000000000000000000000000000000000000000081565b6040516001600160a01b0390911681526020016104ce565b6104c460025481565b6105546105c836600461500a565b610d48565b6104c46105db366004614faa565b610dd4565b6105996105ee366004614faa565b610f7f565b61051161060136600461502f565b610fa9565b6104c461108b565b61055461061c366004614faa565b61116e565b6106487f000000000000000000000000000000000000000000000000000000000000000081565b60405160ff90911681526020016104ce565b610554610668366004614faa565b61117b565b6104c460145481565b6104c4611188565b6104c460095481565b6104c46111de565b61055461138f565b601f546105119060ff1681565b6105546116d8565b6104c460205481565b6105546116e8565b6104c46106cb366004614faa565b600e6020526000908152604090205481565b6104c4600b5481565b6104c4611719565b6104c46106fc366004615158565b611838565b6104c460125481565b60085460ff16610511565b6104c460245481565b61075a61072c3660046151d7565b601060205260009081526040902080546001909101546001600160801b0380831692600160801b9004169083565b604080516001600160801b039485168152939092166020840152908201526060016104ce565b61055461078e3660046151f4565b611867565b6104c46107a1366004615276565b6118a2565b6104c4611945565b6105546107bc36600461500a565b61194f565b6105546107cf3660046151d7565b611c69565b6107e76107e23660046152b1565b611cec565b604080519283526020830191909152016104ce565b61059961080a3660046152f3565b611e45565b6104c461081d3660046151d7565b60036020526000908152604090205481565b6105997f000000000000000000000000000000000000000000000000000000000000000081565b6105546108643660046151d7565b611e60565b61087c61087736600461530f565b611ebc565b604080519283526001600160a01b039091166020830152016104ce565b6105546108a7366004614faa565b611f8b565b6104c46108ba3660046151d7565b60056020526000908152604090205481565b6104c4600d5481565b61055461216b565b601a54601b54601c54610918926001600160801b0380821693600160801b928390048216938183169391829004831692818116929091041686565b604080516001600160801b03978816815295871660208701529386169385019390935290841660608401528316608083015290911660a082015260c0016104ce565b6105997f000000000000000000000000000000000000000000000000000000000000000081565b6104c460235481565b6104c460155481565b6104f161217b565b6109cf6109a93660046151d7565b6011602052600090815260409020546001600160801b0380821691600160801b90041682565b604080516001600160801b039384168152929091166020830152016104ce565b6104c46109fd3660046151d7565b612188565b610511610a10366004614f7e565b61229d565b6105997f000000000000000000000000000000000000000000000000000000000000000081565b610554610a4a366004614faa565b612303565b6104c4600a5481565b610511610a66366004614faa565b612310565b6104c460185481565b6104c460215481565b6104c4610a8b366004615367565b6124d5565b6104c460135481565b600654610599906001600160a01b031681565b610554610aba366004614faa565b6124fe565b6104c461250b565b610554610ad5366004614fd1565b61258c565b6104c460175481565b610554610af13660046153c4565b6125bf565b6104c4610b04366004614faa565b612810565b6104c4600c5481565b6104c4610b20366004615435565b600460209081526000928352604080842090915290825290205481565b610511610b4b3660046151d7565b601e6020526000908152604090205460ff1681565b610554610b6e366004614faa565b61286c565b610554610b81366004614faa565b612879565b610511610b943660046151d7565b60266020526000908152604090205460ff1681565b610554610bb7366004615463565b612886565b6104c4601d5481565b610554610bd3366004615480565b6128a1565b610554610be63660046154a2565b612943565b6104c4610bf93660046151d7565b612973565b6000610c086129fb565b905090565b60008054610c1a906154ce565b80601f0160208091040260200160405190810160405280929190818152602001828054610c46906154ce565b8015610c935780601f10610c6857610100808354040283529160200191610c93565b820191906000526020600020905b815481529060010190602001808311610c7657829003601f168201915b505050505081565b3360008181526004602090815260408083206001600160a01b038716808552925280832085905551919290917f8c5be1e5ebec7d5bd14f71427d1e84f3dd0314c0f7b2291e5b200ac8c7c3b92590610cf69086815260200190565b60405180910390a35060015b92915050565b610d10612a3f565b6001600160a01b03919091166000908152601e60205260409020805460ff1916911515919091179055565b610d43612af6565b601855565b6000610d52612c52565b9050336001600160a01b03821614610d6957600080fd5b8115610d8c578260096000828254610d81919061551f565b90915550610dcf9050565b610db77f00000000000000000000000000000000000000000000000000000000000000008285612ce5565b8260096000828254610dc99190615536565b90915550505b505050565b6000610dde612d63565b60026007541415610e0a5760405162461bcd60e51b8152600401610e019061554e565b60405180910390fd5b600260075581610e2d57604051638c88122d60e01b815260040160405180910390fd5b6000806000610e3a612da9565b604051631ed98e5360e21b8152336004820152602481018790526001600160a01b039190911690637b66394c90604401608060405180830381600087803b158015610e8457600080fd5b505af1158015610e98573d6000803e3d6000fd5b505050506040513d601f19601f82011682018060405250810190610ebc91906155f8565b336000818152601160209081526040918290208451918501516001600160801b03908116600160801b0292169190911790555193965091945092507ff279e6a1f5e320cca91135676d9cb6e44ca8a08c0b88342bcdb1144f6511b56891610f2791908690869061562e565b60405180910390a18260146000828254610f41919061551f565b90915550610f7290507f00000000000000000000000000000000000000000000000000000000000000003385612e04565b5050600160075592915050565b60168181548110610f8f57600080fd5b6000918252602090912001546001600160a01b0316905081565b6001600160a01b0383166000908152600460209081526040808320338452909152812054600019811461100557610fe0838261551f565b6001600160a01b03861660009081526004602090815260408083203384529091529020555b6001600160a01b0385166000908152600360205260408120805485929061102d90849061551f565b90915550506001600160a01b0380851660008181526003602052604090819020805487019055519091871690600080516020615d71833981519152906110769087815260200190565b60405180910390a360019150505b9392505050565b6000611095612e7d565b601f805460ff191660011790556110aa612ff5565b604051625c253960e41b81526001600160a01b037f0000000000000000000000000000000000000000000000000000000000000000811660048301527f00000000000000000000000000000000000000000000000000000000000000008116602483015291909116906305c2539090604401602060405180830381600087803b15801561113657600080fd5b505af115801561114a573d6000803e3d6000fd5b505050506040513d601f19601f82011682018060405250810190610c08919061564f565b611176612a3f565b601555565b611183612a3f565b602155565b60007f000000000000000000000000000000000000000000000000000000000000000046146111b957610c08613050565b507f000000000000000000000000000000000000000000000000000000000000000090565b6000806111e9612ff5565b604051634e133d4d60e01b81526001600160a01b037f0000000000000000000000000000000000000000000000000000000000000000811660048301527f0000000000000000000000000000000000000000000000000000000000000000811660248301529190911690634e133d4d9060440160e06040518083038186803b15801561127457600080fd5b505afa158015611288573d6000803e3d6000fd5b505050506040513d601f19601f820116820180604052508101906112ac9190615668565b905073__$9200b285a0f372c982db0cf335fd1ba5de$__6348aec70b6113127f00000000000000000000000000000000000000000000000000000000000000007f00000000000000000000000000000000000000000000000000000000000000006130ea565b836020546021546040518563ffffffff1660e01b815260040161133894939291906156fa565b60006040518083038186803b15801561135057600080fd5b505af4158015611364573d6000803e3d6000fd5b50505050600b54611373611719565b825161137f9190615760565b6113899190615760565b91505090565b611397612d63565b61139f612e7d565b601f5460ff166113c25760405163dd908f1b60e01b815260040160405180910390fd5b60008060008060006113d2612da9565b6001600160a01b03166355676bad6002546113eb613200565b6113f36133ef565b6040516001600160e01b031960e086901b16815260048101939093526024830191909152604482015260640160a06040518083038186803b15801561143757600080fd5b505afa15801561144b573d6000803e3d6000fd5b505050506040513d601f19601f8201168201806040525081019061146f91906157a1565b9450945094509450945084600e6000600c548152602001908152602001600020819055506012600090557f0f5bb4b5d20dcb8c06151458c2583d0958b5cc6bead1f07a26f7ee1ef1a5ba7d600c546040516114cc91815260200190565b60405180910390a1600c80549060006114e4836157e1565b9091555050601f805460ff191690556114fd308461358b565b8015611649576000601680548060200260200160405190810160405280929190818152602001828054801561155b57602002820191906000526020600020905b81546001600160a01b0316815260019091019060200180831161153d575b5050505050905060005b81518160ff16101561163857818160ff1681518110611586576115866157fc565b60200260200101516001600160a01b0316632e1a7d4d846040518263ffffffff1660e01b81526004016115bb91815260200190565b602060405180830381600087803b1580156115d557600080fd5b505af11580156115e9573d6000803e3d6000fd5b505050506040513d601f19601f8201168201806040525081019061160d919061564f565b611617908461551f565b92506000831161162657611638565b8061163081615812565b915050611565565b50811561164757505050505050565b505b600d546000908152600f602052604081208590556014805484929061166f908490615536565b9091555050600d546040519081527f14605f088644076934e95d93264603055260cbb14ab846609ecd0153ec2842ad9060200160405180910390a16116b6306013546135e5565b60006013819055600d8054916116cb836157e1565b919050555050505050505b565b6116e0613647565b6116d6613718565b6116f0612ff5565b6001600160a01b0316336001600160a01b03161461170d57600080fd5b6000600a819055600b55565b600080601680548060200260200160405190810160405280929190818152602001828054801561177257602002820191906000526020600020905b81546001600160a01b03168152600190910190602001808311611754575b5050505050905060005b81518160ff16101561183357818160ff168151811061179d5761179d6157fc565b60200260200101516001600160a01b031663c549176e6040518163ffffffff1660e01b815260040160206040518083038186803b1580156117dd57600080fd5b505afa1580156117f1573d6000803e3d6000fd5b505050506040513d601f19601f82011682018060405250810190611815919061564f565b61181f9084615760565b92508061182b81615812565b91505061177c565b505090565b600061184261376a565b61184a61378e565b611859888888888888886137be565b90505b979650505050505050565b61186f612af6565b6001600160801b03958616600160801b958716860217601a55928516918516840291909117601b55831692160217601c55565b60006118ac613a0e565b6040516367a35e4760e01b815286151560048201526024810186905260448101859052606481018490526001600160a01b0391909116906367a35e479060840160206040518083038186803b15801561190457600080fd5b505afa158015611918573d6000803e3d6000fd5b505050506040513d601f19601f8201168201806040525081019061193c919061564f565b95945050505050565b6000610c08613200565b611957612a3f565b600060168054806020026020016040519081016040528092919081815260200182805480156119af57602002820191906000526020600020905b81546001600160a01b03168152600190910190602001808311611991575b5050505050905081611b4f5760008184815181106119cf576119cf6157fc565b602002602001015190506000816001600160a01b031663c549176e6040518163ffffffff1660e01b815260040160206040518083038186803b158015611a1457600080fd5b505afa158015611a28573d6000803e3d6000fd5b505050506040513d601f19601f82011682018060405250810190611a4c919061564f565b90508015611ad05760405163fbaac11560e01b8152600481018290526001600160a01b0383169063fbaac11590602401602060405180830381600087803b158015611a9657600080fd5b505af1158015611aaa573d6000803e3d6000fd5b505050506040513d601f19601f82011682018060405250810190611ace919061564f565b505b604051632e1a7d4d60e01b815260001960048201526001600160a01b03831690632e1a7d4d90602401602060405180830381600087803b158015611b1357600080fd5b505af1158015611b27573d6000803e3d6000fd5b505050506040513d601f19601f82011682018060405250810190611b4b919061564f565b5050505b611b947f0000000000000000000000000000000000000000000000000000000000000000828581518110611b8557611b856157fc565b60200260200101516000612ce5565b825b601654611ba59060019061551f565b811015611c30576016611bb9826001615536565b81548110611bc957611bc96157fc565b600091825260209091200154601680546001600160a01b039092169183908110611bf557611bf56157fc565b600091825260209091200180546001600160a01b0319166001600160a01b039290921691909117905580611c28816157e1565b915050611b96565b506016805480611c4257611c42615832565b600082815260209020810160001990810180546001600160a01b0319169055019055505050565b611c71612a3f565b601680546001810182556000919091527fd833147d7dc355ba459fc788f669e58cfaf9dc25ddcd0702e87d69c7b51242890180546001600160a01b0319166001600160a01b038316179055611ce97f000000000000000000000000000000000000000000000000000000000000000082600019612ce5565b50565b600080611d476040518061014001604052806000815260200160008152602001600081526020016000815260200160008152602001600081526020016000151581526020016000815260200160008152602001600081525090565b611d59866060015187608001516130ea565b6101008201819052604087015160208801518851611d8b93916001600160801b03169067ffffffffffffffff166118a2565b81610120018181525050600080611db48887601954601d54876101200151886101000151613a69565b9092509050611dc38288613bbb565b8352611dcf8188613bc7565b6020840152611de083898989613c8c565b611dea8387613e0f565b9450611dfc858461010001518a613f74565b9450826020015193508460001480611e12575083155b15611e3a576040516330cf3a1360e21b81526004810186905260248101859052604401610e01565b505050935093915050565b6000611e4f61378e565b610d0282611e5b612c52565b613fc2565b611e68612a3f565b600680546001600160a01b0319166001600160a01b0383169081179091556040519081527f2f658b440c35314f52658ea8a740e05b284cdc84dc9ae01e891f21b8933e7cad9060200160405180910390a150565b600080611ec761376a565b611ecf61378e565b6000611ed9612c52565b90506000611ee78983613fc2565b60405163dac9675b60e01b81526001600160a01b0380831660048301529192509083169063dac9675b9060240160c06040518083038186803b158015611f2c57600080fd5b505afa158015611f40573d6000803e3d6000fd5b505050506040513d601f19601f82011682018060405250810190611f649190615848565b9850611f7d89828a858b8b611f7761250b565b8c614301565b999098509650505050505050565b611f93612d63565b60026007541415611fb65760405162461bcd60e51b8152600401610e019061554e565b600260075580611fd957604051638c88122d60e01b815260040160405180910390fd5b33600090815260106020908152604091829020825160608101845281546001600160801b038082168352600160801b9091041692810183905260019091015492810192909252151580612030575060008160400151115b15612042576120406000196145df565b505b600061204c612da9565b60405163625f849b60e11b8152336004820152602481018590526001600160a01b03919091169063c4bf0936906044016040805180830381600087803b15801561209557600080fd5b505af11580156120a9573d6000803e3d6000fd5b505050506040513d601f19601f820116820180604052508101906120cd9190615901565b33600090815260116020908152604082208351918401516001600160801b03908116600160801b029216919091179055601380549293508592909190612114908490615536565b9091555050600d546040517f0c53c82ad07e2d592d88ece3b066777dd60f1118e2a081b380efc4358f0d9e2a9161214e913391879161562e565b60405180910390a1612160308461229d565b505060016007555050565b612173613647565b6116d661472c565b60018054610c1a906154ce565b6000612192612e7d565b60008061219d612c52565b604051636a256b2960e01b81526001600160a01b0386811660048301529190911690636a256b2990602401608060405180830381600087803b1580156121e257600080fd5b505af11580156121f6573d6000803e3d6000fd5b505050506040513d601f19601f8201168201806040525081019061221a919061591d565b50604080516001600160a01b03891681526020810184905290810182905233606082015291945092507f3c6fbb57d229454c2441564ffff38b57852db9295bb7794d55f399901f5758a9915060800160405180910390a161227e8282600080614769565b8060096000828254612290919061551f565b9091555091949350505050565b336000908152600360205260408120805483919083906122be90849061551f565b90915550506001600160a01b03831660008181526003602052604090819020805485019055513390600080516020615d7183398151915290610cf69086815260200190565b61230b612af6565b601955565b600061231a612d63565b6002600754141561233d5760405162461bcd60e51b8152600401610e019061554e565b6002600755816123605760405163162908e360e11b815260040160405180910390fd5b60008061236b612da9565b6040516311f9fbc960e21b8152336004820152602481018690526001600160a01b0391909116906347e7ef24906044016040805180830381600087803b1580156123b457600080fd5b505af11580156123c8573d6000803e3d6000fd5b505050506040513d601f19601f820116820180604052508101906123ec919061595c565b915091507f90890809c654f11d6e72a28fa60149770a0d11ec6c92319d6ceb2bb0a4ea1a153385600c546040516124259392919061562e565b60405180910390a160408051606081018252600c546001600160801b03908116825284811660208084019182528385018681523360009081526010909252948120935191518316600160801b0291909216178255915160019091015560128054869290612493908490615536565b909155506124c590507f00000000000000000000000000000000000000000000000000000000000000003330876148c5565b6001925050506001600755919050565b60006124df61376a565b6124e761378e565b6118598888888888886124f861250b565b89614301565b612506612a3f565b602055565b6000806125377f0000000000000000000000000000000000000000000000000000000000000000612973565b9050600061271060155460095461254e9190615980565b61255891906159b5565b90508181111561257b576040516301b2115160e61b815260040160405180910390fd5b612585818361551f565b9250505090565b612594612a3f565b6001600160a01b03919091166000908152602660205260409020805460ff1916911515919091179055565b4284101561260f5760405162461bcd60e51b815260206004820152601760248201527f5045524d49545f444541444c494e455f455850495245440000000000000000006044820152606401610e01565b6000612619611188565b6001600160a01b0389811660008181526005602090815260409182902080546001810190915582517f6e71edae12b1b97f4d1f60370fef10105fa2faae0126114a169c64845d6126c98184015280840194909452938c166060840152608083018b905260a083019390935260c08083018a90528151808403909101815260e08301909152805192019190912061190160f01b6101008301526101028201929092526101228101919091526101420160408051601f198184030181528282528051602091820120600080855291840180845281905260ff88169284019290925260608301869052608083018590529092509060019060a0016020604051602081039080840390855afa158015612732573d6000803e3d6000fd5b5050604051601f1901519150506001600160a01b038116158015906127685750886001600160a01b0316816001600160a01b0316145b6127a55760405162461bcd60e51b815260206004820152600e60248201526d24a72b20a624a22fa9a4a3a722a960911b6044820152606401610e01565b6001600160a01b0390811660009081526004602090815260408083208b8516808552908352928190208a905551898152919350918a16917f8c5be1e5ebec7d5bd14f71427d1e84f3dd0314c0f7b2291e5b200ac8c7c3b925910160405180910390a350505050505050565b6000600260075414156128355760405162461bcd60e51b8152600401610e019061554e565b60026007558161285857604051638c88122d60e01b815260040160405180910390fd5b612861826145df565b600160075592915050565b612874612a3f565b601d55565b612881612a3f565b601755565b61288e613647565b601f805460ff1916911515919091179055565b6128a9612af6565b601681815481106128bc576128bc6157fc565b60009182526020909120015460405163fbaac11560e01b8152600481018490526001600160a01b039091169063fbaac11590602401602060405180830381600087803b15801561290b57600080fd5b505af115801561291f573d6000803e3d6000fd5b505050506040513d601f19601f82011682018060405250810190610dcf919061564f565b61294b612af6565b60228390556023829055612969612962848461551f565b8290613bbb565b6024556025555050565b6014546040516370a0823160e01b8152306004820152600091906001600160a01b038416906370a082319060240160206040518083038186803b1580156129b957600080fd5b505afa1580156129cd573d6000803e3d6000fd5b505050506040513d601f19601f820116820180604052508101906129f1919061564f565b610d02919061551f565b600080612a06613200565b90506000612a126133ef565b905080821215612a35576040516307e42e3b60e21b815260040160405180910390fd5b61258581836159c9565b600660009054906101000a90046001600160a01b03166001600160a01b0316630c340a246040518163ffffffff1660e01b815260040160206040518083038186803b158015612a8d57600080fd5b505afa158015612aa1573d6000803e3d6000fd5b505050506040513d601f19601f82011682018060405250810190612ac59190615a08565b6001600160a01b0316336001600160a01b0316146116d65760405163075fd2b160e01b815260040160405180910390fd5b600660009054906101000a90046001600160a01b03166001600160a01b031663481c6a756040518163ffffffff1660e01b815260040160206040518083038186803b158015612b4457600080fd5b505afa158015612b58573d6000803e3d6000fd5b505050506040513d601f19601f82011682018060405250810190612b7c9190615a08565b6001600160a01b0316336001600160a01b031614158015612c345750600660009054906101000a90046001600160a01b03166001600160a01b0316630c340a246040518163ffffffff1660e01b815260040160206040518083038186803b158015612be657600080fd5b505afa158015612bfa573d6000803e3d6000fd5b505050506040513d601f19601f82011682018060405250810190612c1e9190615a08565b6001600160a01b0316336001600160a01b031614155b156116d65760405163075fd2b160e01b815260040160405180910390fd5b60007f00000000000000000000000000000000000000000000000000000000000000006001600160a01b0316633b4567b06040518163ffffffff1660e01b815260040160206040518083038186803b158015612cad57600080fd5b505afa158015612cc1573d6000803e3d6000fd5b505050506040513d601f19601f82011682018060405250810190610c089190615a08565b600060405163095ea7b360e01b81526001600160a01b03841660048201528260248201526000806044836000895af1915050612d208161495f565b612d5d5760405162461bcd60e51b815260206004820152600e60248201526d1054141493d59157d1905253115160921b6044820152606401610e01565b50505050565b60085460ff16156116d65760405162461bcd60e51b815260206004820152601060248201526f14185d5cd8589b194e881c185d5cd95960821b6044820152606401610e01565b60007f00000000000000000000000000000000000000000000000000000000000000006001600160a01b0316639624e83e6040518163ffffffff1660e01b815260040160206040518083038186803b158015612cad57600080fd5b600060405163a9059cbb60e01b81526001600160a01b03841660048201528260248201526000806044836000895af1915050612e3f8161495f565b612d5d5760405162461bcd60e51b815260206004820152600f60248201526e1514905394d1915497d19052531151608a1b6044820152606401610e01565b3360009081526026602052604090205460ff16158015612f345750600660009054906101000a90046001600160a01b03166001600160a01b0316630c340a246040518163ffffffff1660e01b815260040160206040518083038186803b158015612ee657600080fd5b505afa158015612efa573d6000803e3d6000fd5b505050506040513d601f19601f82011682018060405250810190612f1e9190615a08565b6001600160a01b0316336001600160a01b031614155b8015612fd75750600660009054906101000a90046001600160a01b03166001600160a01b031663481c6a756040518163ffffffff1660e01b815260040160206040518083038186803b158015612f8957600080fd5b505afa158015612f9d573d6000803e3d6000fd5b505050506040513d601f19601f82011682018060405250810190612fc19190615a08565b6001600160a01b0316336001600160a01b031614155b156116d657604051631ea2564f60e31b815260040160405180910390fd5b60007f00000000000000000000000000000000000000000000000000000000000000006001600160a01b0316635fb480c96040518163ffffffff1660e01b815260040160206040518083038186803b158015612cad57600080fd5b60007f8b73c3c69bb8fe3d512ecc4cf759cc79239f7b179b0ffacaa9a75d522b39400f60006040516130829190615a25565b6040805191829003822060208301939093528101919091527fc89efdaa54c0f20c7adf612882df0950f5a951637e0307cdcb4c672f298b8bc660608201524660808201523060a082015260c00160405160208183030381529060405280519060200120905090565b60007f00000000000000000000000000000000000000000000000000000000000000006001600160a01b031663741bef1a6040518163ffffffff1660e01b815260040160206040518083038186803b15801561314557600080fd5b505afa158015613159573d6000803e3d6000fd5b505050506040513d601f19601f8201168201806040525081019061317d9190615a08565b60405163051ce29b60e21b81526001600160a01b038581166004830152848116602483015291909116906314738a6c9060440160206040518083038186803b1580156131c857600080fd5b505afa1580156131dc573d6000803e3d6000fd5b505050506040513d601f19601f82011682018060405250810190611084919061564f565b60006132a16009547f00000000000000000000000000000000000000000000000000000000000000006001600160a01b031663313ce5676040518163ffffffff1660e01b815260040160206040518083038186803b15801561326157600080fd5b505afa158015613275573d6000803e3d6000fd5b505050506040513d601f19601f820116820180604052508101906132999190615ac1565b60ff166149a6565b6132ca7f00000000000000000000000000000000000000000000000000000000000000006149e2565b6132d49190615536565b90506000601680548060200260200160405190810160405280929190818152602001828054801561332e57602002820191906000526020600020905b81546001600160a01b03168152600190910190602001808311613310575b5050505050905060005b81518160ff16101561183357818160ff1681518110613359576133596157fc565b60200260200101516001600160a01b031663b7aa436d6040518163ffffffff1660e01b815260040160206040518083038186803b15801561339957600080fd5b505afa1580156133ad573d6000803e3d6000fd5b505050506040513d601f19601f820116820180604052508101906133d1919061564f565b6133db9084615536565b9250806133e781615812565b915050613338565b6000806133fa612ff5565b604051634e133d4d60e01b81526001600160a01b037f0000000000000000000000000000000000000000000000000000000000000000811660048301527f0000000000000000000000000000000000000000000000000000000000000000811660248301529190911690634e133d4d9060440160e06040518083038186803b15801561348557600080fd5b505afa158015613499573d6000803e3d6000fd5b505050506040513d601f19601f820116820180604052508101906134bd9190615668565b905073__$9200b285a0f372c982db0cf335fd1ba5de$__6348aec70b6135237f00000000000000000000000000000000000000000000000000000000000000007f00000000000000000000000000000000000000000000000000000000000000006130ea565b836020546021546040518563ffffffff1660e01b815260040161354994939291906156fa565b60006040518083038186803b15801561356157600080fd5b505af4158015613575573d6000803e3d6000fd5b50505050600a5481608001516113899190615760565b806002600082825461359d9190615536565b90915550506001600160a01b038216600081815260036020908152604080832080548601905551848152600080516020615d7183398151915291015b60405180910390a35050565b6001600160a01b0382166000908152600360205260408120805483929061360d90849061551f565b90915550506002805482900390556040518181526000906001600160a01b03841690600080516020615d71833981519152906020016135d9565b60065460405163794f111b60e11b81523360048201526001600160a01b039091169063f29e22369060240160206040518083038186803b15801561368a57600080fd5b505afa15801561369e573d6000803e3d6000fd5b505050506040513d601f19601f820116820180604052508101906136c29190615ade565b158015612c345750600660009054906101000a90046001600160a01b03166001600160a01b0316630c340a246040518163ffffffff1660e01b815260040160206040518083038186803b158015612be657600080fd5b613720614aa6565b6008805460ff191690557f5db9ee0a495bf2e6ff9c91a7834c1ba4fdd244a5e8aa4e537bd38aeae4b073aa335b6040516001600160a01b03909116815260200160405180910390a1565b601f5460ff16156116d65760405163015c3a5360e11b815260040160405180910390fd5b336000908152601e602052604090205460ff166116d657604051634690abc160e11b815260040160405180910390fd5b600061384785876138428a896001600160a01b031663313ce5676040518163ffffffff1660e01b815260040160206040518083038186803b15801561380257600080fd5b505afa158015613816573d6000803e3d6000fd5b505050506040513d601f19601f8201168201806040525081019061383a9190615ac1565b60ff16614aef565b612ce5565b60405163e49280cb60e01b81526001600160a01b038681166004830152602482018990526000919088169063e49280cb906044016040805180830381600087803b15801561389457600080fd5b505af11580156138a8573d6000803e3d6000fd5b505050506040513d601f19601f820116820180604052508101906138cc9190615afb565b604080516001600160a01b038a81168252602082018d90528183018a9052606082018490528716608082015290519193507fe988243c7383c2c950aab9b716103bb6d91f015900ef405467025fbdc3fe1ecd925081900360a00190a161397289602001516001600160801b0316876001600160a01b031663313ce5676040518163ffffffff1660e01b815260040160206040518083038186803b15801561326157600080fd5b6001600160801b031660208a015261398d8186866000614769565b846139b77f0000000000000000000000000000000000000000000000000000000000000000612973565b10156139d65760405163b84beb5d60e01b815260040160405180910390fd5b613a017f00000000000000000000000000000000000000000000000000000000000000008487612e04565b5095979650505050505050565b60007f00000000000000000000000000000000000000000000000000000000000000006001600160a01b031663128e414b6040518163ffffffff1660e01b815260040160206040518083038186803b158015612cad57600080fd5b60008083613a8a576040516304485c2d60e41b815260040160405180910390fd5b8615613aba57670de0b6b3a7640000613aa3878261551f565b613aad9086615980565b613ab791906159b5565b93505b42886000015167ffffffffffffffff1611613ae8576040516366bfac3d60e01b815260040160405180910390fd5b602088015188516040808b0151905163d98ac76960e01b8152600481018790526001600160801b03909316602484015267ffffffffffffffff90911660448301526064820186905260848201879052151560a482015273__$eb86d565a3113b3c398b1080d0d395c3b4$__9063d98ac7699060c401604080518083038186803b158015613b7457600080fd5b505af4158015613b88573d6000803e3d6000fd5b505050506040513d601f19601f82011682018060405250810190613bac919061595c565b90999098509650505050505050565b60006110848383614b23565b6000600160ff1b831480613bde5750600160ff1b82145b15613bfc57604051630d01a11b60e21b815260040160405180910390fd5b60008060008512613c0d5784613c12565b846000035b915060008412613c225783613c27565b836000035b90506000613c358383614b23565b90506001600160ff1b03811115613c625760405163bf79e8d960e01b815260048101829052602401610e01565b600019808713908613808218600114613c7b5782613c80565b826000035b98975050505050505050565b80613e0257600954613cd1613cc07f0000000000000000000000000000000000000000000000000000000000000000612973565b613cca9083615536565b8290614be5565b60608601526020840151613ceb906402540be40090615b29565b6001600160801b03166020850152613d01612c52565b6001600160a01b0316632e79bf4285856040518363ffffffff1660e01b8152600401613d2e929190615bac565b60206040518083038186803b158015613d4657600080fd5b505afa158015613d5a573d6000803e3d6000fd5b505050506040513d601f19601f82011682018060405250810190613d7e919061564f565b6040860152613dcf613daf7f0000000000000000000000000000000000000000000000000000000000000000612973565b613db99083615536565b828760400151613dc99190615536565b90614be5565b6080860181905260608601518651602554602254602354602454613df7969493929190614bfa565b60a086015250612d5d565b835160a085015250505050565b600080613e1a6111de565b9050600083613e37576020850151613e3290836159c9565b613e46565b6020850151613e469083615760565b90506000613e5383614d44565b613e5c83614d44565b613e6691906159c9565b1260c0860152610100850151600090613ea990613e8590613dc96129fb565b613dc9613ea4671bc16d674ec80000613e9e8789615760565b90614d80565b614d44565b90506018548111613eba5780613ebe565b6018545b60e087015260c086015115613f1e5784613ef95760a086015160e0870151613ee591613bbb565b8660a00151613ef4919061551f565b613f17565b60a086015160e0870151613f0d9082613bbb565b613f179190615536565b9350613f6b565b84613f465760a086015160e0870151613f379082613bbb565b613f419190615536565b613f68565b60a086015160e0870151613f5991613bbb565b8660a00151613f68919061551f565b93505b50505092915050565b60008160a001516001600160a01b031682608001516001600160a01b031614613fbb5782613faa85670de0b6b3a7640000615980565b613fb491906159b5565b9050611084565b5082611084565b60007f00000000000000000000000000000000000000000000000000000000000000006001600160a01b03168360a001516001600160a01b03161461401a57604051639d3b9e0160e01b815260040160405180910390fd5b7f00000000000000000000000000000000000000000000000000000000000000006001600160a01b031683606001516001600160a01b0316146140705760405163bff9e44560e01b815260040160405180910390fd5b7f00000000000000000000000000000000000000000000000000000000000000006001600160a01b031683608001516001600160a01b0316146140c65760405163b3e8cda760e01b815260040160405180910390fd5b6040805160c081018252601a546001600160801b038082168352600160801b9182900481166020840152601b54808216948401949094529281900483166060830152601c548084166080840181905291900490921660a08201528451909167ffffffffffffffff9091169061413b9042615536565b1180614168575060a081015161415a906001600160801b031642615536565b845167ffffffffffffffff16115b15614186576040516366bfac3d60e01b815260040160405180910390fd5b8360400151156141f45783602001516001600160801b031681604001516001600160801b031611806141d1575080606001516001600160801b031684602001516001600160801b0316115b156141ef5760405163e04ba97560e01b815260040160405180910390fd5b614253565b83602001516001600160801b031681600001516001600160801b03161180614235575080602001516001600160801b031684602001516001600160801b0316115b156142535760405163e04ba97560e01b815260040160405180910390fd5b604051635fb708cf60e01b81526001600160a01b03841690635fb708cf9061427f908790600401615bc7565b602060405180830381600087803b15801561429957600080fd5b505af11580156142ad573d6000803e3d6000fd5b505050506040513d601f19601f820116820180604052508101906142d19190615a08565b91506001600160a01b0382166142fa5760405163ecdc661560e01b815260040160405180910390fd5b5092915050565b600080866001600160a01b0316632e79bf428b8a6040518363ffffffff1660e01b8152600401614332929190615bac565b60206040518083038186803b15801561434a57600080fd5b505afa15801561435e573d6000803e3d6000fd5b505050506040513d601f19601f82011682018060405250810190614382919061564f565b9050808410156143a5576040516301b2115160e61b815260040160405180910390fd5b60405163095ea7b360e01b81526001600160a01b038881166004830152602482018390527f0000000000000000000000000000000000000000000000000000000000000000169063095ea7b390604401602060405180830381600087803b15801561440f57600080fd5b505af1158015614423573d6000803e3d6000fd5b505050506040513d601f19601f820116820180604052508101906144479190615ade565b506040516389a86ad360e01b81526001600160a01b038816906389a86ad390614478908c908c90869060040161562e565b6040805180830381600087803b15801561449157600080fd5b505af11580156144a5573d6000803e3d6000fd5b505050506040513d601f19601f820116820180604052508101906144c99190615afb565b604080516001600160a01b038d81168252602082018d90528183018b9052606082018490528716608082015290519193507f807243a06aa6324afb44b093c16090c302133c76a8ce9f9ba4f74cdae3c0f2b0925081900360a00190a161456f8a602001516001600160801b03168a6001600160a01b031663313ce5676040518163ffffffff1660e01b815260040160206040518083038186803b15801561326157600080fd5b6001600160801b031660208b015261458a8187876001614769565b6145d189846145cc8b8d6001600160a01b031663313ce5676040518163ffffffff1660e01b815260040160206040518083038186803b15801561380257600080fd5b612e04565b509598975050505050505050565b60008060006145ec612da9565b6040516301e9a69560e41b8152336004820152602481018690526001600160a01b039190911690631e9a695090604401608060405180830381600087803b15801561463657600080fd5b505af115801561464a573d6000803e3d6000fd5b505050506040513d601f19601f8201168201806040525081019061466e9190615bd5565b915091508160001415614685575060009392505050565b3360008181526010602090815260408083208551868401516001600160801b03908116600160801b02918116919091178255868301516001909201919091553084526004835281842085855283529281902086905584518151948552918401869052911682820152517fe5b754fb1abb7f01b499791d0b820ae3b6af3424ac1c59768edb53f4ec31a9299181900360600190a1614723303384610fa9565b50909392505050565b614734612d63565b6008805460ff191660011790557f62e78cea01bee320cd4e420270b5ea74000d11b0c9f74754ebdbfc544b05a25861374d3390565b801561481a5783600960008282546147819190615536565b925050819055506147e5837f00000000000000000000000000000000000000000000000000000000000000006001600160a01b031663313ce5676040518163ffffffff1660e01b815260040160206040518083038186803b15801561326157600080fd5b600a60008282546147f69190615760565b9250508190555081600b600082825461480f91906159c9565b90915550612d5d9050565b836009600082825461482c919061551f565b92505081905550614890837f00000000000000000000000000000000000000000000000000000000000000006001600160a01b031663313ce5676040518163ffffffff1660e01b815260040160206040518083038186803b15801561326157600080fd5b600a60008282546148a191906159c9565b9250508190555081600b60008282546148ba9190615760565b909155505050505050565b600084905060006040516323b872dd60e01b81526001600160a01b03861660048201526001600160a01b03851660248201528360448201526000806064836000875af19150506149148161495f565b6149575760405162461bcd60e51b81526020600482015260146024820152731514905394d1915497d19493d357d1905253115160621b6044820152606401610e01565b505050505050565b60003d8261497157806000803e806000fd5b806020811461498957801561499a576000925061499f565b816000803e6000511515925061499f565b600192505b5050919050565b600060128211156149b657600080fd5b60006149c383601261551f565b90506149d081600a615d4e565b6149da9085615980565b949350505050565b6014546040516370a0823160e01b8152306004820152600091610d02916001600160a01b038516906370a082319060240160206040518083038186803b158015614a2b57600080fd5b505afa158015614a3f573d6000803e3d6000fd5b505050506040513d601f19601f82011682018060405250810190614a63919061564f565b614a6d919061551f565b836001600160a01b031663313ce5676040518163ffffffff1660e01b815260040160206040518083038186803b15801561326157600080fd5b60085460ff166116d65760405162461bcd60e51b815260206004820152601460248201527314185d5cd8589b194e881b9bdd081c185d5cd95960621b6044820152606401610e01565b60006012821115614aff57600080fd5b6000614b0c83601261551f565b9050614b1981600a615d4e565b6149da90856159b5565b60008080600019848609848602925082811083820303915050670de0b6b3a76400008110614b675760405163698d9a0160e11b815260048101829052602401610e01565b600080670de0b6b3a76400008688099150506706f05b59d3b1ffff811182614ba15780670de0b6b3a7640000850401945050505050610d02565b620400008285030493909111909103600160ee1b02919091177faccb18165bd6fe31ae1cf318dc5b51eee0e1ba569b88cd74c1773b91fac106690201905092915050565b600061108483670de0b6b3a764000084614e46565b6000848811158015614c0c5750848711155b15614c51576000614c33671bc16d674ec80000613dc987614c2d8c8e615536565b90613bbb565b9050614c3f8782613bbb565b614c499088615536565b91505061185c565b848810158015614c615750848710155b15614c9357600082614c89671bc16d674ec80000613dc9614c828c8e615536565b8890613bbb565b614c33919061551f565b6000614cac614ca2878a61551f565b613dc98b8961551f565b90506000614cca86614c2d671bc16d674ec80000613dc98e8c615536565b9050600084614ceb87614c2d671bc16d674ec800008c8f613dc99190615536565b614cf5919061551f565b90506000614d23614d0e85670de0b6b3a7640000615536565b83614d198787613bbb565b613dc99190615536565b9050614d2f8a82613bbb565b614d39908b615536565b94505050505061185c565b6000600160ff1b821415614d6b57604051631d0742e360e21b815260040160405180910390fd5b60008212614d795781610d02565b5060000390565b6000600160ff1b831480614d975750600160ff1b82145b15614db55760405163b3c754a360e01b815260040160405180910390fd5b60008060008512614dc65784614dcb565b846000035b915060008412614ddb5783614de0565b836000035b90506000614df783670de0b6b3a764000084614e46565b90506001600160ff1b03811115614e2457604051637cb4bef560e01b815260048101829052602401610e01565b600019808713908613808218600114614e3d5782613c80565b613c8083615d5a565b600080806000198587098587029250828110838203039150508060001415614e8157838281614e7757614e7761599f565b0492505050611084565b838110614eab57604051631dcf306360e21b81526004810182905260248101859052604401610e01565b60008486880960026001871981018816978890046003810283188082028403028082028403028082028403028082028403028082028403029081029092039091026000889003889004909101858311909403939093029303949094049190911702949350505050565b600060208083528351808285015260005b81811015614f4157858101830151858201604001528201614f25565b81811115614f53576000604083870101525b50601f01601f1916929092016040019392505050565b6001600160a01b0381168114611ce957600080fd5b60008060408385031215614f9157600080fd5b8235614f9c81614f69565b946020939093013593505050565b600060208284031215614fbc57600080fd5b5035919050565b8015158114611ce957600080fd5b60008060408385031215614fe457600080fd5b8235614fef81614f69565b91506020830135614fff81614fc3565b809150509250929050565b6000806040838503121561501d57600080fd5b823591506020830135614fff81614fc3565b60008060006060848603121561504457600080fd5b833561504f81614f69565b9250602084013561505f81614f69565b929592945050506040919091013590565b67ffffffffffffffff81168114611ce957600080fd5b6001600160801b0381168114611ce957600080fd5b600060c082840312156150ad57600080fd5b60405160c0810181811067ffffffffffffffff821117156150de57634e487b7160e01b600052604160045260246000fd5b60405290508082356150ef81615070565b815260208301356150ff81615086565b6020820152604083013561511281614fc3565b6040820152606083013561512581614f69565b6060820152608083013561513881614f69565b608082015260a083013561514b81614f69565b60a0919091015292915050565b6000806000806000806000610180888a03121561517457600080fd5b61517e898961509b565b965060c0880135955060e088013561519581614f69565b94506101008801356151a681614f69565b9350610120880135925061014088013591506101608801356151c781614f69565b8091505092959891949750929550565b6000602082840312156151e957600080fd5b813561108481614f69565b60008060008060008060c0878903121561520d57600080fd5b863561521881615086565b9550602087013561522881615086565b9450604087013561523881615086565b9350606087013561524881615086565b9250608087013561525881615086565b915060a087013561526881615086565b809150509295509295509295565b6000806000806080858703121561528c57600080fd5b843561529781614fc3565b966020860135965060408601359560600135945092505050565b600080600061010084860312156152c757600080fd5b6152d1858561509b565b925060c0840135915060e08401356152e881614fc3565b809150509250925092565b600060c0828403121561530557600080fd5b611084838361509b565b6000806000806000610140868803121561532857600080fd5b615332878761509b565b945060c0860135935060e08601359250610100860135915061012086013561535981614f69565b809150509295509295909350565b6000806000806000806000610180888a03121561538357600080fd5b61538d898961509b565b965060c088013561539d81614f69565b955060e088013594506101008801356151a681614f69565b60ff81168114611ce957600080fd5b600080600080600080600060e0888a0312156153df57600080fd5b87356153ea81614f69565b965060208801356153fa81614f69565b955060408801359450606088013593506080880135615418816153b5565b9699959850939692959460a0840135945060c09093013592915050565b6000806040838503121561544857600080fd5b823561545381614f69565b91506020830135614fff81614f69565b60006020828403121561547557600080fd5b813561108481614fc3565b6000806040838503121561549357600080fd5b50508035926020909101359150565b6000806000606084860312156154b757600080fd5b505081359360208301359350604090920135919050565b600181811c908216806154e257607f821691505b6020821081141561550357634e487b7160e01b600052602260045260246000fd5b50919050565b634e487b7160e01b600052601160045260246000fd5b60008282101561553157615531615509565b500390565b6000821982111561554957615549615509565b500190565b6020808252601f908201527f5265656e7472616e637947756172643a207265656e7472616e742063616c6c00604082015260600190565b60006040828403121561559757600080fd5b6040516040810181811067ffffffffffffffff821117156155c857634e487b7160e01b600052604160045260246000fd5b806040525080915082516155db81615086565b815260208301516155eb81615086565b6020919091015292915050565b60008060006080848603121561560d57600080fd5b83519250602084015191506156258560408601615585565b90509250925092565b6001600160a01b039390931683526020830191909152604082015260600190565b60006020828403121561566157600080fd5b5051919050565b600060e0828403121561567a57600080fd5b60405160e0810181811067ffffffffffffffff821117156156ab57634e487b7160e01b600052604160045260246000fd5b8060405250825181526020830151602082015260408301516040820152606083015160608201526080830151608082015260a083015160a082015260c083015160c08201528091505092915050565b60006101408201905085825284516020830152602085015160408301526040850151606083015260608501516080830152608085015160a083015260a085015160c083015260c085015160e0830152836101008301528261012083015295945050505050565b600080821280156001600160ff1b038490038513161561578257615782615509565b600160ff1b839003841281161561579b5761579b615509565b50500190565b600080600080600060a086880312156157b957600080fd5b5050835160208501516040860151606087015160809097015192989197509594509092509050565b60006000198214156157f5576157f5615509565b5060010190565b634e487b7160e01b600052603260045260246000fd5b600060ff821660ff81141561582957615829615509565b60010192915050565b634e487b7160e01b600052603160045260246000fd5b600060c0828403121561585a57600080fd5b60405160c0810181811067ffffffffffffffff8211171561588b57634e487b7160e01b600052604160045260246000fd5b604052825161589981615070565b815260208301516158a981615086565b602082015260408301516158bc81614fc3565b604082015260608301516158cf81614f69565b606082015260808301516158e281614f69565b608082015260a08301516158f581614f69565b60a08201529392505050565b60006040828403121561591357600080fd5b6110848383615585565b6000806000806080858703121561593357600080fd5b845161593e81614fc3565b60208601516040870151606090970151919890975090945092505050565b6000806040838503121561596f57600080fd5b505080516020909101519092909150565b600081600019048311821515161561599a5761599a615509565b500290565b634e487b7160e01b600052601260045260246000fd5b6000826159c4576159c461599f565b500490565b60008083128015600160ff1b8501841216156159e7576159e7615509565b6001600160ff1b0384018313811615615a0257615a02615509565b50500390565b600060208284031215615a1a57600080fd5b815161108481614f69565b600080835481600182811c915080831680615a4157607f831692505b6020808410821415615a6157634e487b7160e01b86526022600452602486fd5b818015615a755760018114615a8657615ab3565b60ff19861689528489019650615ab3565b60008a81526020902060005b86811015615aab5781548b820152908501908301615a92565b505084890196505b509498975050505050505050565b600060208284031215615ad357600080fd5b8151611084816153b5565b600060208284031215615af057600080fd5b815161108481614fc3565b60008060408385031215615b0e57600080fd5b8251615b1981614fc3565b6020939093015192949293505050565b60006001600160801b0380841680615b4357615b4361599f565b92169190910492915050565b805167ffffffffffffffff1682526020808201516001600160801b0316908301526040808201511515908301526060808201516001600160a01b039081169184019190915260808083015182169084015260a09182015116910152565b60e08101615bba8285615b4f565b8260c08301529392505050565b60c08101610d028284615b4f565b6000808284036080811215615be957600080fd5b835192506060601f1982011215615bff57600080fd5b506040516060810181811067ffffffffffffffff82111715615c3157634e487b7160e01b600052604160045260246000fd5b6040526020840151615c4281615086565b81526040840151615c5281615086565b60208201526060939093015160408401525092909150565b600181815b80851115615ca5578160001904821115615c8b57615c8b615509565b80851615615c9857918102915b93841c9390800290615c6f565b509250929050565b600082615cbc57506001610d02565b81615cc957506000610d02565b8160018114615cdf5760028114615ce957615d05565b6001915050610d02565b60ff841115615cfa57615cfa615509565b50506001821b610d02565b5060208310610133831016604e8410600b8410161715615d28575081810a610d02565b615d328383615c6a565b8060001904821115615d4657615d46615509565b029392505050565b60006110848383615cad565b6000600160ff1b821415614d7957614d7961550956feddf252ad1be2c89b69c2b068fc378daa952ba7f163c4a11628f55a4df523b3efa26469706673582212207922c79a7d376acea5cac3d475cf9ec43dc8ae2df4e5a6fce76b5599dd219a5364736f6c63430008090033",
  "linkReferences": {
    "contracts/libraries/BlackScholes.sol": {
      "BlackScholes": [
        {
          "length": 20,
          "start": 17408
        }
      ]
    },
    "contracts/libraries/OptionsCompute.sol": {
      "OptionsCompute": [
        {
          "length": 20,
          "start": 7024
        },
        {
          "length": 20,
          "start": 15745
        }
      ]
    }
  },
  "deployedLinkReferences": {
    "contracts/libraries/BlackScholes.sol": {
      "BlackScholes": [
        {
          "length": 20,
          "start": 15168
        }
      ]
    },
    "contracts/libraries/OptionsCompute.sol": {
      "OptionsCompute": [
        {
          "length": 20,
          "start": 4784
        },
        {
          "length": 20,
          "start": 13505
        }
      ]
    }
  }
}