{
  "_format": "hh-sol-artifact-1",
  "contractName": "OpynInteractions",
  "sourceName": "contracts/libraries/OpynInteractions.sol",
  "abi": [
    {
      "inputs": [],
      "name": "NoShort",
      "type": "error"
    },
    {
      "inputs": [
        {
          "internalType": "address",
          "name": "oTokenFactory",
          "type": "address"
        },
        {
          "internalType": "address",
          "name": "collateral",
          "type": "address"
        },
        {
          "internalType": "address",
          "name": "underlying",
          "type": "address"
        },
        {
          "internalType": "address",
          "name": "strikeAsset",
          "type": "address"
        },
        {
          "internalType": "uint256",
          "name": "strike",
          "type": "uint256"
        },
        {
          "internalType": "uint256",
          "name": "expiration",
          "type": "uint256"
        },
        {
          "internalType": "bool",
          "name": "isPut",
          "type": "bool"
        }
      ],
      "name": "getOtoken",
      "outputs": [
        {
          "internalType": "address",
          "name": "otokenFromFactory",
          "type": "address"
        }
      ],
      "stateMutability": "view",
      "type": "function"
    }
  ],
  "bytecode": "0x611c3961003a600b82828239805160001a60731461002d57634e487b7160e01b600052600060045260246000fd5b30600052607381538281f3fe73000000000000000000000000000000000000000030146080604052600436106100925760003560e01c8063ba036b4011610065578063ba036b401461015f578063f7b98e1b1461017f578063fd5b6dd514610192578063fe0d9004146101b257600080fd5b80630e4e99e31461009757806315afd409146100d45780633718f9751461010f5780638fc4015a1461013d575b600080fd5b8180156100a357600080fd5b506100b76100b236600461152a565b6101d2565b6040516001600160a01b0390911681526020015b60405180910390f35b8180156100e057600080fd5b506100f46100ef3660046115b3565b6102f7565b604080519384526020840192909252908201526060016100cb565b81801561011b57600080fd5b5061012f61012a3660046115df565b610621565b6040519081526020016100cb565b81801561014957600080fd5b5061015d61015836600461164d565b610aba565b005b81801561016b57600080fd5b5061012f61017a3660046116a8565b610be9565b6100b761018d36600461152a565b610e6f565b81801561019e57600080fd5b5061015d6101ad3660046116f9565b610ef8565b8180156101be57600080fd5b5061012f6101cd3660046116f9565b61101b565b6040516304551c1560e21b8152600090889082906001600160a01b0383169063115470549061020f908b908b908e908c908c908c9060040161173f565b602060405180830381865afa15801561022c573d6000803e3d6000fd5b505050506040513d601f19601f820116820180604052508101906102509190611778565b90506001600160a01b0381161561026a5791506102ec9050565b604051630c09746360e41b81526000906001600160a01b0384169063c0974630906102a3908c908c908f908d908d908d9060040161173f565b6020604051808303816000875af11580156102c2573d6000803e3d6000fd5b505050506040513d601f19601f820116820180604052508101906102e69190611778565b93505050505b979650505050505050565b60405163d99d13f560e01b81523060048201526024810182905260009081908190859082906001600160a01b0383169063d99d13f590604401600060405180830381865afa15801561034d573d6000803e3d6000fd5b505050506040513d6000823e601f3d908101601f1916820160405261037591908101906118ff565b80515190915060000361039b576040516309e686f960e11b815260040160405180910390fd5b600081604001516000815181106103b4576103b4611a20565b60209081029190910101516040516370a0823160e01b81523060048201529091506000906001600160a01b038316906370a0823190602401602060405180830381865afa158015610409573d6000803e3d6000fd5b505050506040513d601f19601f8201168201806040525081019061042d9190611a36565b60408051600180825281830190925291925060009190816020015b6104506114b1565b815260200190600190039081610448579050506040805161010081019091529091508060078152602001306001600160a01b03168152602001306001600160a01b0316815260200160006001600160a01b031681526020018a8152602001600081526020016000815260200160405180602001604052806000815250815250816000815181106104e2576104e2611a20565b6020908102919091010152604051635b0bf86360e11b81526001600160a01b0386169063b617f0c690610519908490600401611a9c565b600060405180830381600087803b15801561053357600080fd5b505af1158015610547573d6000803e3d6000fd5b50506040516370a0823160e01b8152306004820152600092506001600160a01b03861691506370a0823190602401602060405180830381865afa158015610592573d6000803e3d6000fd5b505050506040513d601f19601f820116820180604052508101906105b69190611a36565b90506105c28382611b93565b985088898660a001516000815181106105dd576105dd611a20565b60200260200101516105ef9190611b93565b866060015160008151811061060657610606611a20565b60200260200101519850985098505050505050509250925092565b6000876106336402540be40085611baa565b935060008790506000816001600160a01b031663aabaecd66040518163ffffffff1660e01b8152600401602060405180830381865afa15801561067a573d6000803e3d6000fd5b505050506040513d601f19601f8201168201806040525081019061069e9190611778565b9050806106ac818c8b6113e8565b60408051600280825260608201909252600091816020015b6106cc6114b1565b8152602001906001900390816106c457905050604051636553690d60e11b81523060048201529091506000906001600160a01b0387169063caa6d21a90602401602060405180830381865afa158015610729573d6000803e3d6000fd5b505050506040513d601f19601f8201168201806040525081019061074d9190611a36565b610758906001611bcc565b905089810361093d576040805160038082526080820190925290816020015b61077f6114b1565b815260200190600190039081610777579050506040805161010081019091529092508060008152602001306001600160a01b03168152602001306001600160a01b0316815260200160006001600160a01b031681526020018b81526020016000815260200160008152602001896040516020016107fe91815260200190565b6040516020818303038152906040528152508260008151811061082357610823611a20565b60209081029190910101526040805161010081019091528060058152602001306001600160a01b03168152602001306001600160a01b03168152602001856001600160a01b031681526020018b81526020018c81526020016000815260200160405180602001604052806000815250815250826001815181106108a8576108a8611a20565b60209081029190910101526040805161010081019091528060018152602001306001600160a01b03168152602001306001600160a01b031681526020018d6001600160a01b031681526020018b81526020018a815260200160008152602001604051806020016040528060008152508152508260028151811061092d5761092d611a20565b6020026020010181905250610a48565b6040805161010081019091528060058152602001306001600160a01b03168152602001306001600160a01b03168152602001856001600160a01b031681526020018b81526020018c81526020016000815260200160405180602001604052806000815250815250826000815181106109b7576109b7611a20565b60209081029190910101526040805161010081019091528060018152602001306001600160a01b03168152602001306001600160a01b031681526020018d6001600160a01b031681526020018b81526020018a8152602001600081526020016040518060200160405280600081525081525082600181518110610a3c57610a3c611a20565b60200260200101819052505b604051635b0bf86360e11b81526001600160a01b0387169063b617f0c690610a74908590600401611a9c565b600060405180830381600087803b158015610a8e57600080fd5b505af1158015610aa2573d6000803e3d6000fd5b50505050889650505050505050979650505050505050565b8483610ac78187866113e8565b604080516001808252818301909252600091816020015b610ae66114b1565b815260200190600190039081610ade579050506040805161010081019091529091508060058152602001306001600160a01b03168152602001306001600160a01b03168152602001876001600160a01b03168152602001858152602001868152602001600081526020016040518060200160405280600081525081525081600081518110610b7657610b76611a20565b6020908102919091010152604051635b0bf86360e11b81526001600160a01b0384169063b617f0c690610bad908490600401611a9c565b600060405180830381600087803b158015610bc757600080fd5b505af1158015610bdb573d6000803e3d6000fd5b505050505050505050505050565b6000808590506000846001600160a01b031663aabaecd66040518163ffffffff1660e01b8152600401602060405180830381865afa158015610c2f573d6000803e3d6000fd5b505050506040513d601f19601f82011682018060405250810190610c539190611778565b6040516370a0823160e01b81523360048201529091506000906001600160a01b038316906370a0823190602401602060405180830381865afa158015610c9d573d6000803e3d6000fd5b505050506040513d601f19601f82011682018060405250810190610cc19190611a36565b60408051600180825281830190925291925060009190816020015b610ce46114b1565b815260200190600190039081610cdc57905050604080516101008101909152909150806008815260200160006001600160a01b03168152602001336001600160a01b03168152602001886001600160a01b0316815260200160008152602001878152602001600081526020016040518060200160405280600081525081525081600081518110610d7657610d76611a20565b6020026020010181905250610d8c8789886113e8565b604051635b0bf86360e11b81526001600160a01b0385169063b617f0c690610db8908490600401611a9c565b600060405180830381600087803b158015610dd257600080fd5b505af1158015610de6573d6000803e3d6000fd5b50506040516370a0823160e01b8152336004820152600092506001600160a01b03861691506370a0823190602401602060405180830381865afa158015610e31573d6000803e3d6000fd5b505050506040513d601f19601f82011682018060405250810190610e559190611a36565b9050610e618382611b93565b9a9950505050505050505050565b6040516304551c1560e21b815260009088906001600160a01b03821690631154705490610eaa908a908a908d908b908b908b9060040161173f565b602060405180830381865afa158015610ec7573d6000803e3d6000fd5b505050506040513d601f19601f82011682018060405250810190610eeb9190611778565b9998505050505050505050565b604080516001808252818301909252859160009190816020015b610f1a6114b1565b815260200190600190039081610f12579050506040805161010081019091529091508060068152602001306001600160a01b03168152602001306001600160a01b03168152602001866001600160a01b03168152602001848152602001858152602001600081526020016040518060200160405280600081525081525081600081518110610faa57610faa611a20565b6020908102919091010152604051635b0bf86360e11b81526001600160a01b0383169063b617f0c690610fe1908490600401611a9c565b600060405180830381600087803b158015610ffb57600080fd5b505af115801561100f573d6000803e3d6000fd5b50505050505050505050565b60008085905060008590506000816001600160a01b031663aabaecd66040518163ffffffff1660e01b8152600401602060405180830381865afa158015611066573d6000803e3d6000fd5b505050506040513d601f19601f8201168201806040525081019061108a9190611778565b6040516370a0823160e01b81523060048201529091506000906001600160a01b038316906370a0823190602401602060405180830381865afa1580156110d4573d6000803e3d6000fd5b505050506040513d601f19601f820116820180604052508101906110f89190611a36565b60405163d99d13f560e01b8152306004820152602481018890529091506000906001600160a01b0386169063d99d13f590604401600060405180830381865afa158015611149573d6000803e3d6000fd5b505050506040513d6000823e601f3d908101601f1916820160405261117191908101906118ff565b6040805160028082526060820190925291925060009190816020015b6111956114b1565b81526020019060019003908161118d579050506040805161010081019091529091508060028152602001306001600160a01b03168152602001306001600160a01b031681526020018b6001600160a01b031681526020018981526020018a815260200160008152602001604051806020016040528060008152508152508160008151811061122557611225611a20565b60209081029190910101526040805161010081019091528060068152602001306001600160a01b03168152602001306001600160a01b03168152602001856001600160a01b03168152602001898152602001836060015160008151811061128e5761128e611a20565b60200260200101518b8560a001516000815181106112ae576112ae611a20565b60200260200101516112c09190611be4565b6112ca9190611baa565b81526020016000815260200160405180602001604052806000815250815250816001815181106112fc576112fc611a20565b6020908102919091010152604051635b0bf86360e11b81526001600160a01b0387169063b617f0c690611333908490600401611a9c565b600060405180830381600087803b15801561134d57600080fd5b505af1158015611361573d6000803e3d6000fd5b50506040516370a0823160e01b81523060048201528592506001600160a01b03871691506370a0823190602401602060405180830381865afa1580156113ab573d6000803e3d6000fd5b505050506040513d601f19601f820116820180604052508101906113cf9190611a36565b6113d99190611b93565b9b9a5050505050505050505050565b600060405163095ea7b360e01b81526001600160a01b03841660048201528260248201526000806044836000895af19150506114238161146a565b6114645760405162461bcd60e51b815260206004820152600e60248201526d1054141493d59157d1905253115160921b604482015260640160405180910390fd5b50505050565b60003d8261147c57806000803e806000fd5b80602081146114945780156114a557600092506114aa565b816000803e600051151592506114aa565b600192505b5050919050565b604080516101008101909152806000815260200160006001600160a01b0316815260200160006001600160a01b0316815260200160006001600160a01b03168152602001600081526020016000815260200160008152602001606081525090565b6001600160a01b038116811461152757600080fd5b50565b600080600080600080600060e0888a03121561154557600080fd5b873561155081611512565b9650602088013561156081611512565b9550604088013561157081611512565b9450606088013561158081611512565b93506080880135925060a0880135915060c088013580151581146115a357600080fd5b8091505092959891949750929550565b600080604083850312156115c657600080fd5b82356115d181611512565b946020939093013593505050565b600080600080600080600060e0888a0312156115fa57600080fd5b873561160581611512565b9650602088013561161581611512565b9550604088013561162581611512565b969995985095966060810135965060808101359560a0820135955060c0909101359350915050565b600080600080600060a0868803121561166557600080fd5b853561167081611512565b9450602086013561168081611512565b9350604086013561169081611512565b94979396509394606081013594506080013592915050565b600080600080608085870312156116be57600080fd5b84356116c981611512565b935060208501356116d981611512565b925060408501356116e981611512565b9396929550929360600135925050565b6000806000806080858703121561170f57600080fd5b843561171a81611512565b9350602085013561172a81611512565b93969395505050506040820135916060013590565b6001600160a01b03968716815294861660208601529290941660408401526060830152608082019290925290151560a082015260c00190565b60006020828403121561178a57600080fd5b815161179581611512565b9392505050565b634e487b7160e01b600052604160045260246000fd5b60405160c0810167ffffffffffffffff811182821017156117d5576117d561179c565b60405290565b604051601f8201601f1916810167ffffffffffffffff811182821017156118045761180461179c565b604052919050565b600067ffffffffffffffff8211156118265761182661179c565b5060051b60200190565b600082601f83011261184157600080fd5b815160206118566118518361180c565b6117db565b82815260059290921b8401810191818101908684111561187557600080fd5b8286015b8481101561189957805161188c81611512565b8352918301918301611879565b509695505050505050565b600082601f8301126118b557600080fd5b815160206118c56118518361180c565b82815260059290921b840181019181810190868411156118e457600080fd5b8286015b8481101561189957805183529183019183016118e8565b60006020828403121561191157600080fd5b815167ffffffffffffffff8082111561192957600080fd5b9083019060c0828603121561193d57600080fd5b6119456117b2565b82518281111561195457600080fd5b61196087828601611830565b82525060208301518281111561197557600080fd5b61198187828601611830565b60208301525060408301518281111561199957600080fd5b6119a587828601611830565b6040830152506060830151828111156119bd57600080fd5b6119c9878286016118a4565b6060830152506080830151828111156119e157600080fd5b6119ed878286016118a4565b60808301525060a083015182811115611a0557600080fd5b611a11878286016118a4565b60a08301525095945050505050565b634e487b7160e01b600052603260045260246000fd5b600060208284031215611a4857600080fd5b5051919050565b6000815180845260005b81811015611a7557602081850181015186830182015201611a59565b81811115611a87576000602083870101525b50601f01601f19169290920160200192915050565b60006020808301818452808551808352604092508286019150828160051b8701018488016000805b84811015611b6e57603f198a850301865282516101008151600b8110611af857634e487b7160e01b85526021600452602485fd5b8652818a01516001600160a01b039081168b8801528983015181168a880152606080840151909116908701526080808301519087015260a0808301519087015260c0808301519087015260e091820151918601819052611b5a81870183611a4f565b978a01979550505091870191600101611ac4565b50919998505050505050505050565b634e487b7160e01b600052601160045260246000fd5b600082821015611ba557611ba5611b7d565b500390565b600082611bc757634e487b7160e01b600052601260045260246000fd5b500490565b60008219821115611bdf57611bdf611b7d565b500190565b6000816000190483118215151615611bfe57611bfe611b7d565b50029056fea2646970667358221220ce5e7bdc733d7bdd5fc19eb208083e66a418153bab4984b20cd631a31700055a64736f6c634300080e0033",
  "linkReferences": {},
  "deployedLinkReferences": {}
}