{
  "_format": "hh-sol-artifact-1",
  "contractName": "BlackScholesTest",
  "sourceName": "contracts/utils/BlackScholesTest.sol",
  "abi": [
    {
      "inputs": [
        {
          "internalType": "uint256",
          "name": "price",
          "type": "uint256"
        },
        {
          "internalType": "uint256",
          "name": "strike",
          "type": "uint256"
        },
        {
          "internalType": "uint256",
          "name": "expiration",
          "type": "uint256"
        },
        {
          "internalType": "uint256",
          "name": "vol",
          "type": "uint256"
        },
        {
          "internalType": "uint256",
          "name": "rfr",
          "type": "uint256"
        },
        {
          "internalType": "bool",
          "name": "isPut",
          "type": "bool"
        }
      ],
      "name": "getDelta",
      "outputs": [
        {
          "internalType": "int256",
          "name": "",
          "type": "int256"
        }
      ],
      "stateMutability": "view",
      "type": "function"
    },
    {
      "inputs": [
        {
          "internalType": "uint256",
          "name": "price",
          "type": "uint256"
        },
        {
          "internalType": "uint256",
          "name": "strike",
          "type": "uint256"
        },
        {
          "internalType": "uint256",
          "name": "expiration",
          "type": "uint256"
        },
        {
          "internalType": "uint256",
          "name": "vol",
          "type": "uint256"
        },
        {
          "internalType": "uint256",
          "name": "rfr",
          "type": "uint256"
        },
        {
          "internalType": "bool",
          "name": "isPut",
          "type": "bool"
        }
      ],
      "name": "retBlackScholesCalc",
      "outputs": [
        {
          "internalType": "uint256",
          "name": "",
          "type": "uint256"
        }
      ],
      "stateMutability": "view",
      "type": "function"
    }
  ],
  "bytecode": "0x608060405234801561001057600080fd5b50610231806100206000396000f3fe608060405234801561001057600080fd5b50600436106100365760003560e01c806350befa7c1461003b578063679dfe3114610060575b600080fd5b61004e610049366004610188565b610073565b60405190815260200160405180910390f35b61004e61006e366004610188565b610129565b604051635f16f8c960e11b8152600481018790526024810186905260448101859052606481018490526084810183905281151560a482015260009073__$eb86d565a3113b3c398b1080d0d395c3b4$__9063be2df1929060c4015b60206040518083038186803b1580156100e657600080fd5b505af41580156100fa573d6000803e3d6000fd5b505050506040513d601f19601f8201168201806040525081019061011e91906101e2565b979650505050505050565b60405163679dfe3160e01b8152600481018790526024810186905260448101859052606481018490526084810183905281151560a482015260009073__$eb86d565a3113b3c398b1080d0d395c3b4$__9063679dfe319060c4016100ce565b60008060008060008060c087890312156101a157600080fd5b863595506020870135945060408701359350606087013592506080870135915060a087013580151581146101d457600080fd5b809150509295509295509295565b6000602082840312156101f457600080fd5b505191905056fea2646970667358221220ac44653ce8623b8137c023c2876d45624d3df6373f43bd3c082290b83719f80664736f6c63430008090033",
  "linkReferences": {
    "contracts/libraries/BlackScholes.sol": {
      "BlackScholes": [
        {
          "length": 20,
          "start": 208
        },
        {
          "length": 20,
          "start": 390
        }
      ]
    }
  },
  "deployedLinkReferences": {
    "contracts/libraries/BlackScholes.sol": {
      "BlackScholes": [
        {
          "length": 20,
          "start": 176
        },
        {
          "length": 20,
          "start": 358
        }
      ]
    }
  }
}