{
  "_format": "hh-sol-artifact-1",
  "contractName": "PriceFeed",
  "sourceName": "contracts/PriceFeed.sol",
  "abi": [
    {
      "inputs": [
        {
          "internalType": "address",
          "name": "_authority",
          "type": "address"
        }
      ],
      "stateMutability": "nonpayable",
      "type": "constructor"
    },
    {
      "inputs": [],
      "name": "UNAUTHORIZED",
      "type": "error"
    },
    {
      "anonymous": false,
      "inputs": [
        {
          "indexed": false,
          "internalType": "contract IAuthority",
          "name": "authority",
          "type": "address"
        }
      ],
      "name": "AuthorityUpdated",
      "type": "event"
    },
    {
      "inputs": [
        {
          "internalType": "address",
          "name": "underlying",
          "type": "address"
        },
        {
          "internalType": "address",
          "name": "strike",
          "type": "address"
        },
        {
          "internalType": "address",
          "name": "feed",
          "type": "address"
        }
      ],
      "name": "addPriceFeed",
      "outputs": [],
      "stateMutability": "nonpayable",
      "type": "function"
    },
    {
      "inputs": [],
      "name": "authority",
      "outputs": [
        {
          "internalType": "contract IAuthority",
          "name": "",
          "type": "address"
        }
      ],
      "stateMutability": "view",
      "type": "function"
    },
    {
      "inputs": [
        {
          "internalType": "address",
          "name": "underlying",
          "type": "address"
        },
        {
          "internalType": "address",
          "name": "strike",
          "type": "address"
        }
      ],
      "name": "getNormalizedRate",
      "outputs": [
        {
          "internalType": "uint256",
          "name": "",
          "type": "uint256"
        }
      ],
      "stateMutability": "view",
      "type": "function"
    },
    {
      "inputs": [
        {
          "internalType": "address",
          "name": "underlying",
          "type": "address"
        },
        {
          "internalType": "address",
          "name": "strike",
          "type": "address"
        }
      ],
      "name": "getRate",
      "outputs": [
        {
          "internalType": "uint256",
          "name": "",
          "type": "uint256"
        }
      ],
      "stateMutability": "view",
      "type": "function"
    },
    {
      "inputs": [
        {
          "internalType": "address",
          "name": "",
          "type": "address"
        },
        {
          "internalType": "address",
          "name": "",
          "type": "address"
        }
      ],
      "name": "priceFeeds",
      "outputs": [
        {
          "internalType": "address",
          "name": "",
          "type": "address"
        }
      ],
      "stateMutability": "view",
      "type": "function"
    },
    {
      "inputs": [
        {
          "internalType": "contract IAuthority",
          "name": "_newAuthority",
          "type": "address"
        }
      ],
      "name": "setAuthority",
      "outputs": [],
      "stateMutability": "nonpayable",
      "type": "function"
    }
  ],
  "bytecode": "0x608060405234801561001057600080fd5b506040516108f13803806108f183398101604081905261002f91610089565b600080546001600160a01b0319166001600160a01b03831690811790915560405190815281907f2f658b440c35314f52658ea8a740e05b284cdc84dc9ae01e891f21b8933e7cad9060200160405180910390a150506100b9565b60006020828403121561009b57600080fd5b81516001600160a01b03811681146100b257600080fd5b9392505050565b610829806100c86000396000f3fe608060405234801561001057600080fd5b50600436106100625760003560e01c806314738a6c146100675780631b10a9491461008d578063379b87ea146100a25780637a9e5e4b146100b5578063bf7e214f146100c8578063f90c6906146100f3575b600080fd5b61007a61007536600461052f565b610127565b6040519081526020015b60405180910390f35b6100a061009b366004610568565b6102e3565b005b61007a6100b036600461052f565b610328565b6100a06100c33660046105b3565b610413565b6000546100db906001600160a01b031681565b6040516001600160a01b039091168152602001610084565b6100db61010136600461052f565b60016020908152600092835260408084209091529082529020546001600160a01b031681565b6001600160a01b03808316600090815260016020908152604080832085851684529091528120549091168061019f5760405162461bcd60e51b8152602060048201526019602482015278141c9a58d9481999595908191bd95cc81b9bdd08195e1a5cdd603a1b60448201526064015b60405180910390fd5b60008190506000816001600160a01b031663313ce5676040518163ffffffff1660e01b8152600401602060405180830381865afa1580156101e4573d6000803e3d6000fd5b505050506040513d601f19601f8201168201806040525081019061020891906105d7565b90506000826001600160a01b031663feaf968c6040518163ffffffff1660e01b815260040160a060405180830381865afa15801561024a573d6000803e3d6000fd5b505050506040513d601f19601f8201168201806040525081019061026e9190610619565b50505091505060008260ff16601260ff1611156102b35761029083601261067f565b905061029d81600a610786565b6102a79083610795565b955050505050506102dd565b6102be60128461067f565b90506102cb81600a610786565b6102d590836107b4565b955050505050505b92915050565b6102eb61046f565b6001600160a01b03928316600090815260016020908152604080832094861683529390529190912080546001600160a01b03191691909216179055565b6001600160a01b03808316600090815260016020908152604080832085851684529091528120549091168061039b5760405162461bcd60e51b8152602060048201526019602482015278141c9a58d9481999595908191bd95cc81b9bdd08195e1a5cdd603a1b6044820152606401610196565b60008190506000816001600160a01b031663feaf968c6040518163ffffffff1660e01b815260040160a060405180830381865afa1580156103e0573d6000803e3d6000fd5b505050506040513d601f19601f820116820180604052508101906104049190610619565b50919998505050505050505050565b61041b61046f565b600080546001600160a01b0319166001600160a01b0383169081179091556040519081527f2f658b440c35314f52658ea8a740e05b284cdc84dc9ae01e891f21b8933e7cad9060200160405180910390a150565b60008054906101000a90046001600160a01b03166001600160a01b0316630c340a246040518163ffffffff1660e01b8152600401602060405180830381865afa1580156104c0573d6000803e3d6000fd5b505050506040513d601f19601f820116820180604052508101906104e491906107d6565b6001600160a01b0316336001600160a01b0316146105155760405163075fd2b160e01b815260040160405180910390fd5b565b6001600160a01b038116811461052c57600080fd5b50565b6000806040838503121561054257600080fd5b823561054d81610517565b9150602083013561055d81610517565b809150509250929050565b60008060006060848603121561057d57600080fd5b833561058881610517565b9250602084013561059881610517565b915060408401356105a881610517565b809150509250925092565b6000602082840312156105c557600080fd5b81356105d081610517565b9392505050565b6000602082840312156105e957600080fd5b815160ff811681146105d057600080fd5b805169ffffffffffffffffffff8116811461061457600080fd5b919050565b600080600080600060a0868803121561063157600080fd5b61063a866105fa565b945060208601519350604086015192506060860151915061065d608087016105fa565b90509295509295909350565b634e487b7160e01b600052601160045260246000fd5b600060ff821660ff84168082101561069957610699610669565b90039392505050565b600181815b808511156106dd5781600019048211156106c3576106c3610669565b808516156106d057918102915b93841c93908002906106a7565b509250929050565b6000826106f4575060016102dd565b81610701575060006102dd565b816001811461071757600281146107215761073d565b60019150506102dd565b60ff84111561073257610732610669565b50506001821b6102dd565b5060208310610133831016604e8410600b8410161715610760575081810a6102dd565b61076a83836106a2565b806000190482111561077e5761077e610669565b029392505050565b60006105d060ff8416836106e5565b60008160001904831182151516156107af576107af610669565b500290565b6000826107d157634e487b7160e01b600052601260045260246000fd5b500490565b6000602082840312156107e857600080fd5b81516105d08161051756fea264697066735822122024f2995619f58207bbf8f84377f22157e146792dd9da560ca13d4e468d2b96aa64736f6c634300080e0033",
  "linkReferences": {},
  "deployedLinkReferences": {}
}