{
  "_format": "hh-sol-artifact-1",
  "contractName": "RageTradeFactory",
  "sourceName": "@rage/core/contracts/protocol/RageTradeFactory.sol",
  "abi": [
    {
      "inputs": [
        {
          "internalType": "address",
          "name": "clearingHouseLogicAddress",
          "type": "address"
        },
        {
          "internalType": "address",
          "name": "_vPoolWrapperLogicAddress",
          "type": "address"
        },
        {
          "internalType": "address",
          "name": "insuranceFundLogicAddress",
          "type": "address"
        },
        {
          "internalType": "contract IERC20Metadata",
          "name": "settlementToken",
          "type": "address"
        },
        {
          "internalType": "contract IOracle",
          "name": "settlementTokenOracle",
          "type": "address"
        }
      ],
      "stateMutability": "nonpayable",
      "type": "constructor"
    },
    {
      "inputs": [
        {
          "internalType": "address",
          "name": "addr",
          "type": "address"
        }
      ],
      "name": "IllegalAddress",
      "type": "error"
    },
    {
      "inputs": [
        {
          "internalType": "uint256",
          "name": "y_target",
          "type": "uint256"
        },
        {
          "internalType": "uint160",
          "name": "x_lower",
          "type": "uint160"
        },
        {
          "internalType": "uint160",
          "name": "x_upper",
          "type": "uint160"
        }
      ],
      "name": "SolutionOutOfBounds",
      "type": "error"
    },
    {
      "inputs": [],
      "name": "Unauthorised",
      "type": "error"
    },
    {
      "inputs": [],
      "name": "ZeroAddress",
      "type": "error"
    },
    {
      "anonymous": false,
      "inputs": [
        {
          "indexed": true,
          "internalType": "address",
          "name": "previousGovernancePending",
          "type": "address"
        },
        {
          "indexed": true,
          "internalType": "address",
          "name": "newGovernancePending",
          "type": "address"
        }
      ],
      "name": "GovernancePending",
      "type": "event"
    },
    {
      "anonymous": false,
      "inputs": [
        {
          "indexed": true,
          "internalType": "address",
          "name": "previousGovernance",
          "type": "address"
        },
        {
          "indexed": true,
          "internalType": "address",
          "name": "newGovernance",
          "type": "address"
        }
      ],
      "name": "GovernanceTransferred",
      "type": "event"
    },
    {
      "anonymous": false,
      "inputs": [
        {
          "indexed": false,
          "internalType": "contract IUniswapV3Pool",
          "name": "vPool",
          "type": "address"
        },
        {
          "indexed": false,
          "internalType": "contract IVToken",
          "name": "vToken",
          "type": "address"
        },
        {
          "indexed": false,
          "internalType": "contract IVPoolWrapper",
          "name": "vPoolWrapper",
          "type": "address"
        }
      ],
      "name": "PoolInitialized",
      "type": "event"
    },
    {
      "anonymous": false,
      "inputs": [
        {
          "indexed": true,
          "internalType": "address",
          "name": "previousTeamMultisigPending",
          "type": "address"
        },
        {
          "indexed": true,
          "internalType": "address",
          "name": "newTeamMultisigPending",
          "type": "address"
        }
      ],
      "name": "TeamMultisigPending",
      "type": "event"
    },
    {
      "anonymous": false,
      "inputs": [
        {
          "indexed": true,
          "internalType": "address",
          "name": "previousTeamMultisig",
          "type": "address"
        },
        {
          "indexed": true,
          "internalType": "address",
          "name": "newTeamMultisig",
          "type": "address"
        }
      ],
      "name": "TeamMultisigTransferred",
      "type": "event"
    },
    {
      "inputs": [],
      "name": "acceptGovernanceTransfer",
      "outputs": [],
      "stateMutability": "nonpayable",
      "type": "function"
    },
    {
      "inputs": [],
      "name": "acceptTeamMultisigTransfer",
      "outputs": [],
      "stateMutability": "nonpayable",
      "type": "function"
    },
    {
      "inputs": [],
      "name": "clearingHouse",
      "outputs": [
        {
          "internalType": "contract IClearingHouse",
          "name": "",
          "type": "address"
        }
      ],
      "stateMutability": "view",
      "type": "function"
    },
    {
      "inputs": [],
      "name": "governance",
      "outputs": [
        {
          "internalType": "address",
          "name": "",
          "type": "address"
        }
      ],
      "stateMutability": "view",
      "type": "function"
    },
    {
      "inputs": [],
      "name": "governancePending",
      "outputs": [
        {
          "internalType": "address",
          "name": "",
          "type": "address"
        }
      ],
      "stateMutability": "view",
      "type": "function"
    },
    {
      "inputs": [
        {
          "components": [
            {
              "components": [
                {
                  "internalType": "string",
                  "name": "vTokenName",
                  "type": "string"
                },
                {
                  "internalType": "string",
                  "name": "vTokenSymbol",
                  "type": "string"
                },
                {
                  "internalType": "uint8",
                  "name": "cTokenDecimals",
                  "type": "uint8"
                }
              ],
              "internalType": "struct VTokenDeployer.DeployVTokenParams",
              "name": "deployVTokenParams",
              "type": "tuple"
            },
            {
              "components": [
                {
                  "internalType": "uint16",
                  "name": "initialMarginRatioBps",
                  "type": "uint16"
                },
                {
                  "internalType": "uint16",
                  "name": "maintainanceMarginRatioBps",
                  "type": "uint16"
                },
                {
                  "internalType": "uint16",
                  "name": "maxVirtualPriceDeviationRatioBps",
                  "type": "uint16"
                },
                {
                  "internalType": "uint32",
                  "name": "twapDuration",
                  "type": "uint32"
                },
                {
                  "internalType": "bool",
                  "name": "isAllowedForTrade",
                  "type": "bool"
                },
                {
                  "internalType": "bool",
                  "name": "isCrossMargined",
                  "type": "bool"
                },
                {
                  "internalType": "contract IOracle",
                  "name": "oracle",
                  "type": "address"
                }
              ],
              "internalType": "struct IClearingHouseStructures.PoolSettings",
              "name": "poolInitialSettings",
              "type": "tuple"
            },
            {
              "internalType": "uint24",
              "name": "liquidityFeePips",
              "type": "uint24"
            },
            {
              "internalType": "uint24",
              "name": "protocolFeePips",
              "type": "uint24"
            },
            {
              "internalType": "uint16",
              "name": "slotsToInitialize",
              "type": "uint16"
            }
          ],
          "internalType": "struct RageTradeFactory.InitializePoolParams",
          "name": "initializePoolParams",
          "type": "tuple"
        }
      ],
      "name": "initializePool",
      "outputs": [],
      "stateMutability": "nonpayable",
      "type": "function"
    },
    {
      "inputs": [
        {
          "internalType": "address",
          "name": "newGovernancePending",
          "type": "address"
        }
      ],
      "name": "initiateGovernanceTransfer",
      "outputs": [],
      "stateMutability": "nonpayable",
      "type": "function"
    },
    {
      "inputs": [
        {
          "internalType": "address",
          "name": "newTeamMultisigPending",
          "type": "address"
        }
      ],
      "name": "initiateTeamMultisigTransfer",
      "outputs": [],
      "stateMutability": "nonpayable",
      "type": "function"
    },
    {
      "inputs": [],
      "name": "proxyAdmin",
      "outputs": [
        {
          "internalType": "contract ProxyAdmin",
          "name": "",
          "type": "address"
        }
      ],
      "stateMutability": "view",
      "type": "function"
    },
    {
      "inputs": [
        {
          "internalType": "address",
          "name": "_vPoolWrapperLogicAddress",
          "type": "address"
        }
      ],
      "name": "setVPoolWrapperLogicAddress",
      "outputs": [],
      "stateMutability": "nonpayable",
      "type": "function"
    },
    {
      "inputs": [],
      "name": "teamMultisig",
      "outputs": [
        {
          "internalType": "address",
          "name": "",
          "type": "address"
        }
      ],
      "stateMutability": "view",
      "type": "function"
    },
    {
      "inputs": [],
      "name": "teamMultisigPending",
      "outputs": [
        {
          "internalType": "address",
          "name": "",
          "type": "address"
        }
      ],
      "stateMutability": "view",
      "type": "function"
    },
    {
      "inputs": [],
      "name": "vPoolWrapperLogicAddress",
      "outputs": [
        {
          "internalType": "address",
          "name": "",
          "type": "address"
        }
      ],
      "stateMutability": "view",
      "type": "function"
    },
    {
      "inputs": [],
      "name": "vQuote",
      "outputs": [
        {
          "internalType": "contract IVQuote",
          "name": "",
          "type": "address"
        }
      ],
      "stateMutability": "view",
      "type": "function"
    }
  ],
  "bytecode": "0x60c06040523480156200001157600080fd5b5060405162006bdc38038062006bdc8339810160408190526200003491620009bb565b836200003f620001f1565b603880546001600160a01b0319166001600160a01b039290921691909117905562000069620002c1565b603780546001600160a01b0319166001600160a01b0392909216918217905560405163f2fde38b60e01b815233600482015263f2fde38b90602401600060405180830381600087803b158015620000bf57600080fd5b505af1158015620000d4573d6000803e3d6000fd5b5050505062000147826001600160a01b031663313ce5676040518163ffffffff1660e01b8152600401602060405180830381865afa1580156200011b573d6000803e3d6000fd5b505050506040513d601f19601f8201168201806040525081019062000141919062000a3b565b620002f4565b6001600160a01b0316608052600062000160846200037f565b9050620001c86040518060a00160405280886001600160a01b03168152602001856001600160a01b03168152602001846001600160a01b03168152602001836001600160a01b031681526020016080516001600160a01b0316815250620003ec60201b60201c565b6001600160a01b031660a0819052620001e5908290859062000493565b50505050505062000b51565b600054610100900460ff166200020e5760005460ff161562000218565b6200021862000559565b620002705760405162461bcd60e51b815260206004820152602e602482015260008051602062006bbc83398151915260448201526d191e481a5b9a5d1a585b1a5e995960921b60648201526084015b60405180910390fd5b600054610100900460ff1615801562000293576000805461ffff19166101011790555b6200029d62000577565b33620002aa8180620005e6565b508015620002be576000805461ff00191690555b50565b6000604051620002d1906200097b565b604051809103906000f080158015620002ee573d6000803e3d6000fd5b50905090565b6000620003796000604051806020016200030e9062000989565b601f1982820381018352601f90910116604081815260ff871660208301520160408051601f19818403018152908290526200034d929160200162000a93565b6040516020818303038152906040526200072e60201b620009d9176200073a60201b620009e51760201c565b92915050565b60375460405160009183916001600160a01b0390911690620003a19062000997565b6001600160a01b039283168152911660208201526060604082018190526000908201526080015b604051809103906000f080158015620003e5573d6000803e3d6000fd5b5092915050565b80516037546020830151604080850151606086015160808701519251306024820152336044820181905260648201526001600160a01b03948516608482015291841660a4830152831660c482015290821660e48201526000939291909116906101040160408051601f198184030181529181526020820180516001600160e01b0316631ac3b23b60e11b17905251620004859062000997565b620003c89392919062000ac6565b60405163100b506960e11b81526001600160a01b038381166004830152828116602483015260806044830152601a60848301527f5261676554726164652069536574746c656d656e74546f6b656e00000000000060a483015260c06064830152601060c48301526f34a9b2ba3a3632b6b2b73a2a37b5b2b760811b60e4830152841690632016a0d29061010401600060405180830381600087803b1580156200053b57600080fd5b505af115801562000550573d6000803e3d6000fd5b50505050505050565b600062000571306200075f60201b62000a0c1760201c565b15905090565b600054610100900460ff16620005e45760405162461bcd60e51b815260206004820152602b60248201527f496e697469616c697a61626c653a20636f6e7472616374206973206e6f74206960448201526a6e697469616c697a696e6760a81b606482015260840162000267565b565b600054610100900460ff16620006035760005460ff16156200060d565b6200060d62000559565b620006615760405162461bcd60e51b815260206004820152602e602482015260008051602062006bbc83398151915260448201526d191e481a5b9a5d1a585b1a5e995960921b606482015260840162000267565b600054610100900460ff1615801562000684576000805461ffff19166101011790555b603380546001600160a01b0319166001600160a01b0385169081179091556040516000907f5f56bee8cffbe9a78652a74a60705edede02af10b0bbb888ca44b79a0d42ce80908290a3603480546001600160a01b0319166001600160a01b0384169081179091556040516000907f39355f2f5c8206286978f443aa8126bbd29fa09c53c04569502647f3a59c8cb2908290a3801562000729576000805461ff00191690555b505050565b609c1c600f9081161490565b6000620007578484846200075060014362000b15565b406200076e565b949350505050565b6001600160a01b03163b151590565b825160208401206000905b620007938360001b82620007fe60201b62000a1b1760201c565b9150620007a0828560201c565b620007b15760019092019162000779565b6000620007ce878560001b886200087060201b62000a781760201c565b9050806001600160a01b0316836001600160a01b031614620007f457620007f462000b3b565b5050949350505050565b604080517fff000000000000000000000000000000000000000000000000000000000000006020808301919091526001600160601b03193060601b16602183015260358201859052605580830185905283518084039091018152607590920190925280519101206000905b9392505050565b60008084471015620008c55760405162461bcd60e51b815260206004820152601d60248201527f437265617465323a20696e73756666696369656e742062616c616e6365000000604482015260640162000267565b8251600003620009185760405162461bcd60e51b815260206004820181905260248201527f437265617465323a2062797465636f6465206c656e677468206973207a65726f604482015260640162000267565b8383516020850187f590506001600160a01b038116620007575760405162461bcd60e51b815260206004820152601960248201527f437265617465323a204661696c6564206f6e206465706c6f7900000000000000604482015260640162000267565b6107a180620043ee83390190565b6111308062004b8f83390190565b610efd8062005cbf83390190565b6001600160a01b0381168114620002be57600080fd5b600080600080600060a08688031215620009d457600080fd5b8551620009e181620009a5565b6020870151909550620009f481620009a5565b604087015190945062000a0781620009a5565b606087015190935062000a1a81620009a5565b608087015190925062000a2d81620009a5565b809150509295509295909350565b60006020828403121562000a4e57600080fd5b815160ff811681146200086957600080fd5b60005b8381101562000a7d57818101518382015260200162000a63565b8381111562000a8d576000848401525b50505050565b6000835162000aa781846020880162000a60565b83519083019062000abd81836020880162000a60565b01949350505050565b600060018060a01b03808616835280851660208401525060606040830152825180606084015262000aff81608085016020870162000a60565b601f01601f191691909101608001949350505050565b60008282101562000b3657634e487b7160e01b600052601160045260246000fd5b500390565b634e487b7160e01b600052600160045260246000fd5b60805160a05161384662000ba8600039600081816101310152818161071b015281816108b70152610eca0152600081816101ac01528181610759015281816107f801528181610c470152610e8001526138466000f3fe60806040523480156200001157600080fd5b5060043610620000fd5760003560e01c80634bc36bd611620000975780638f8022bc116200006e5780638f8022bc14620001f7578063dbc0c085146200020e578063df6c15731462000220578063fc344099146200023757600080fd5b80634bc36bd614620001a65780635aa6e67514620001ce5780636ae7323014620001e057600080fd5b8063255034a911620000d8578063255034a914620001655780632a90b8da146200017e5780633562490c14620001885780633e47158c146200019257600080fd5b806304a6f26414620001025780630af96800146200012b578063134015511462000153575b600080fd5b6036546001600160a01b03165b6040516001600160a01b03909116815260200160405180910390f35b6200010f7f000000000000000000000000000000000000000000000000000000000000000081565b6035546001600160a01b03166200010f565b6200017c62000176366004620011de565b6200024b565b005b6200017c620002c9565b6200017c62000364565b6037546200010f906001600160a01b031681565b6200010f7f000000000000000000000000000000000000000000000000000000000000000081565b6033546001600160a01b03166200010f565b6200017c620001f1366004620011de565b620003ff565b6200017c62000208366004620011de565b620004a1565b6034546001600160a01b03166200010f565b6200017c62000231366004620011fe565b62000529565b6038546200010f906001600160a01b031681565b6033546001600160a01b031633146200027757604051636bd1573560e11b815260040160405180910390fd5b6001600160a01b038116620002a757604051630562997d60e41b8152600060048201526024015b60405180910390fd5b603880546001600160a01b0319166001600160a01b0392909216919091179055565b6035546001600160a01b0316336001600160a01b031614620002fe57604051636bd1573560e11b815260040160405180910390fd5b6035546033546040516001600160a01b0392831692909116907f5f56bee8cffbe9a78652a74a60705edede02af10b0bbb888ca44b79a0d42ce8090600090a360358054603380546001600160a01b03199081166001600160a01b03841617909155169055565b6036546001600160a01b0316336001600160a01b0316146200039957604051636bd1573560e11b815260040160405180910390fd5b6036546034546040516001600160a01b0392831692909116907f39355f2f5c8206286978f443aa8126bbd29fa09c53c04569502647f3a59c8cb290600090a360368054603480546001600160a01b03199081166001600160a01b03841617909155169055565b6034546001600160a01b031633148015906200042657506033546001600160a01b03163314155b156200044557604051636bd1573560e11b815260040160405180910390fd5b6036546040516001600160a01b038084169216907f9b068aae3039a2512c2f13bffb5fd9d95b1895b276b5c7ddf1d4fa24ec36865890600090a3603680546001600160a01b0319166001600160a01b0392909216919091179055565b6033546001600160a01b03163314620004cd57604051636bd1573560e11b815260040160405180910390fd5b6035546040516001600160a01b038084169216907f8c405decc72a19ef328c92989ce6db4e4a498e1c246413fd60997a3051ba5cff90600090a3603580546001600160a01b0319166001600160a01b0392909216919091179055565b6033546001600160a01b031633146200055557604051636bd1573560e11b815260040160405180910390fd5b60006200056d6200056783806200123d565b62000b83565b905060006200057c8262000c30565b90506001600160a01b03811663f637731d62000633620005a4610100870160e08801620011de565b6001600160a01b031663dd86c101620005c460a0890160808a0162001285565b6040516001600160e01b031960e084901b16815263ffffffff919091166004820152602401602060405180830381865afa15801562000607573d6000803e3d6000fd5b505050506040513d601f19601f820116820180604052508101906200062d9190620012a3565b62000cea565b6040516001600160e01b031960e084901b1681526001600160a01b039091166004820152602401600060405180830381600087803b1580156200067557600080fd5b505af11580156200068a573d6000803e3d6000fd5b5050506001600160a01b03821690506332148f67620006b261016086016101408701620012d0565b6040516001600160e01b031960e084901b16815261ffff9091166004820152602401600060405180830381600087803b158015620006ef57600080fd5b505af115801562000704573d6000803e3d6000fd5b505050506000620007d66040518060c001604052807f00000000000000000000000000000000000000000000000000000000000000006001600160a01b03168152602001856001600160a01b031681526020017f00000000000000000000000000000000000000000000000000000000000000006001600160a01b03168152602001846001600160a01b0316815260200186610100016020810190620007ab9190620012ee565b62ffffff168152602001620007c961014088016101208901620012ee565b62ffffff16905262000d22565b604051635b52ebef60e11b81526001600160a01b0380831660048301529192507f00000000000000000000000000000000000000000000000000000000000000009091169063b6a5d7de90602401600060405180830381600087803b1580156200083f57600080fd5b505af115801562000854573d6000803e3d6000fd5b5050604051636bd6da7f60e11b81526001600160a01b0384811660048301528616925063d7adb4fe9150602401600060405180830381600087803b1580156200089c57600080fd5b505af1158015620008b1573d6000803e3d6000fd5b505050507f00000000000000000000000000000000000000000000000000000000000000006001600160a01b0316633ffe794c6040518060800160405280866001600160a01b03168152602001856001600160a01b03168152602001846001600160a01b031681526020018760200180360381019062000932919062001326565b8152506040518263ffffffff1660e01b8152600401620009539190620013f4565b600060405180830381600087803b1580156200096e57600080fd5b505af115801562000983573d6000803e3d6000fd5b5050604080516001600160a01b038681168252878116602083015285168183015290517fb2684e1b8e116bbb42a14d7a6bc6afa19d85ff0a8666a6b424b79a738c661d819350908190036060019150a150505050565b609c1c600f9081161490565b600062000a02848484620009fb600143620014af565b4062000df3565b90505b9392505050565b6001600160a01b03163b151590565b604080516001600160f81b03196020808301919091526bffffffffffffffffffffffff193060601b166021830152603582018590526055808301859052835180840390910181526075909201909252805191012060009062000a05565b6000808447101562000acd5760405162461bcd60e51b815260206004820152601d60248201527f437265617465323a20696e73756666696369656e742062616c616e636500000060448201526064016200029e565b825160000362000b205760405162461bcd60e51b815260206004820181905260248201527f437265617465323a2062797465636f6465206c656e677468206973207a65726f60448201526064016200029e565b8383516020850187f590506001600160a01b03811662000a025760405162461bcd60e51b815260206004820152601960248201527f437265617465323a204661696c6564206f6e206465706c6f790000000000000060448201526064016200029e565b6000806040518060200162000b9890620011a9565b601f1982820381018352601f9091011660405262000bb78480620014c9565b62000bc66020870187620014c9565b62000bd86060890160408a016200151a565b60405160200162000bee95949392919062001568565b60408051601f198184030181529082905262000c0e9291602001620015dc565b604051602081830303815290604052905062000a0560008262000e6a620009e5565b60405163a167129560e01b81526001600160a01b037f000000000000000000000000000000000000000000000000000000000000000081166004830152821660248201526101f46044820152600090731f98431c8ad98523631ae4a59f267346ea31f9849063a1671295906064016020604051808303816000875af115801562000cbe573d6000803e3d6000fd5b505050506040513d601f19601f8201168201806040525081019062000ce491906200160f565b92915050565b600062000ce462000ef1836401000276a362000d1c600173fffd8963efd1fc6a506488495d951d5263988d266200162f565b62000f12565b6038546037546040805184516001600160a01b0390811660248301526020860151811660448301529185015182166064820152606085015182166084820152608085015162ffffff90811660a483015260a08601511660c4820152600093821692919091169060e40160408051601f198184030181529181526020820180516001600160e01b0316630ada2b5160e31b1790525162000dc190620011b7565b62000dcf939291906200165a565b604051809103906000f08015801562000dec573d6000803e3d6000fd5b5092915050565b825160208401206000905b62000e0a838262000a1b565b915062000e1a828563ffffffff16565b62000e2b5760019092019162000dfe565b600062000e3a87858862000a78565b9050806001600160a01b0316836001600160a01b03161462000e605762000e60620016a9565b5050949350505050565b600063ffffffff8216801580159062000eb457507f00000000000000000000000000000000000000000000000000000000000000006001600160a01b0316836001600160a01b0316105b801562000a05575062000a056001600160a01b037f0000000000000000000000000000000000000000000000000000000000000000168262001044565b600062000ce46001600160a01b0383168068010000000000000000620010d8565b60008062000f23848763ffffffff16565b9050600062000f35848863ffffffff16565b90508186108062000f4557508086115b1562000f7f5760405163f7b6b2e960e01b8152600481018790526001600160a01b038087166024830152851660448201526064016200029e565b6000805b600162000f9188886200162f565b6001600160a01b0316111562000ffa57600262000faf88886200162f565b62000fbb9190620016bf565b62000fc79088620016f4565b905062000fd7818a63ffffffff16565b91508782111562000fee5780955081925062000f83565b80965081935062000f83565b856001600160a01b0316876001600160a01b0316141580156200102957508762001027878b63ffffffff16565b145b62001035578662001037565b855b9998505050505050505050565b6000806200105c600062001058856200118e565b0190565b604051631e2eaeaf60e01b8152600481018290529091506000906001600160a01b03861690631e2eaeaf90602401602060405180830381865afa158015620010a8573d6000803e3d6000fd5b505050506040513d601f19601f82011682018060405250810190620010ce9190620012a3565b1595945050505050565b60008080600019858709858702925082811083820303915050806000036200111457600084116200110857600080fd5b50829004905062000a05565b8084116200112157600080fd5b6000848688096000868103871696879004966002600389028118808a02820302808a02820302808a02820302808a02820302808a02820302808a02909103029181900381900460010186841190950394909402919094039290920491909117919091029150509392505050565b63ffffffff8116600090815260646020526040812062000ce4565b6111fa806200171a83390190565b610efd806200291483390190565b6001600160a01b0381168114620011db57600080fd5b50565b600060208284031215620011f157600080fd5b813562000a0581620011c5565b6000602082840312156200121157600080fd5b813567ffffffffffffffff8111156200122957600080fd5b8201610160818503121562000a0557600080fd5b60008235605e198336030181126200125457600080fd5b9190910192915050565b80356200126b81620011c5565b919050565b803563ffffffff811681146200126b57600080fd5b6000602082840312156200129857600080fd5b62000a058262001270565b600060208284031215620012b657600080fd5b5051919050565b803561ffff811681146200126b57600080fd5b600060208284031215620012e357600080fd5b62000a0582620012bd565b6000602082840312156200130157600080fd5b813562ffffff8116811462000a0557600080fd5b803580151581146200126b57600080fd5b600060e082840312156200133957600080fd5b60405160e0810181811067ffffffffffffffff821117156200136b57634e487b7160e01b600052604160045260246000fd5b6040526200137983620012bd565b81526200138960208401620012bd565b60208201526200139c60408401620012bd565b6040820152620013af6060840162001270565b6060820152620013c26080840162001315565b6080820152620013d560a0840162001315565b60a0820152620013e860c084016200125e565b60c08201529392505050565b60006101408201905060018060a01b0380845116835280602085015116602084015280604085015116604084015250606083015161ffff8082511660608501528060208301511660808501528060408301511660a08501525063ffffffff60608201511660c08401526080810151151560e084015260a08101516200147e61010085018215159052565b5060c001516001600160a01b03811661012084015262000dec565b634e487b7160e01b600052601160045260246000fd5b600082821015620014c457620014c462001499565b500390565b6000808335601e19843603018112620014e157600080fd5b83018035915067ffffffffffffffff821115620014fd57600080fd5b6020019150368190038213156200151357600080fd5b9250929050565b6000602082840312156200152d57600080fd5b813560ff8116811462000a0557600080fd5b81835281816020850137506000828201602090810191909152601f909101601f19169091010190565b6060815260006200157e6060830187896200153f565b8281036020840152620015938186886200153f565b91505060ff831660408301529695505050505050565b60005b83811015620015c6578181015183820152602001620015ac565b83811115620015d6576000848401525b50505050565b60008351620015f0818460208801620015a9565b83519083019062001606818360208801620015a9565b01949350505050565b6000602082840312156200162257600080fd5b815162000a0581620011c5565b60006001600160a01b038381169083168181101562001652576200165262001499565b039392505050565b600060018060a01b03808616835280851660208401525060606040830152825180606084015262001693816080850160208701620015a9565b601f01601f191691909101608001949350505050565b634e487b7160e01b600052600160045260246000fd5b60006001600160a01b0383811680620016e857634e487b7160e01b600052601260045260246000fd5b92169190910492915050565b60006001600160a01b038281168482168083038211156200160657620016066200149956fe60a06040523480156200001157600080fd5b50604051620011fa380380620011fa833981016040819052620000349162000258565b8251839083906200004d906003906020850190620000e5565b50805162000063906004906020840190620000e5565b505050620000806200007a6200008f60201b60201c565b62000093565b60ff1660805250620003199050565b3390565b600580546001600160a01b038381166001600160a01b0319831681179093556040519116919082907f8be0079c531659141344cd1fd0a4f28419497f9722a3daafe3b4186f6b6457e090600090a35050565b828054620000f390620002dd565b90600052602060002090601f01602090048101928262000117576000855562000162565b82601f106200013257805160ff191683800117855562000162565b8280016001018555821562000162579182015b828111156200016257825182559160200191906001019062000145565b506200017092915062000174565b5090565b5b8082111562000170576000815560010162000175565b634e487b7160e01b600052604160045260246000fd5b600082601f830112620001b357600080fd5b81516001600160401b0380821115620001d057620001d06200018b565b604051601f8301601f19908116603f01168101908282118183101715620001fb57620001fb6200018b565b816040528381526020925086838588010111156200021857600080fd5b600091505b838210156200023c57858201830151818301840152908201906200021d565b838211156200024e5760008385830101525b9695505050505050565b6000806000606084860312156200026e57600080fd5b83516001600160401b03808211156200028657600080fd5b6200029487838801620001a1565b94506020860151915080821115620002ab57600080fd5b50620002ba86828701620001a1565b925050604084015160ff81168114620002d257600080fd5b809150509250925092565b600181811c90821680620002f257607f821691505b6020821081036200031357634e487b7160e01b600052602260045260246000fd5b50919050565b608051610ec56200033560003960006101880152610ec56000f3fe608060405234801561001057600080fd5b50600436106101165760003560e01c8063715018a6116100a2578063a9059cbb11610071578063a9059cbb1461025e578063d7adb4fe14610271578063dd62ed3e14610284578063df8685d2146102bd578063f2fde38b146102d057600080fd5b8063715018a6146102165780638da5cb5b1461021e57806395d89b4114610243578063a457c2d71461024b57600080fd5b8063313ce567116100e9578063313ce5671461018157806339509351146101b257806340c10f19146101c557806342966c68146101da57806370a08231146101ed57600080fd5b806306fdde031461011b578063095ea7b31461013957806318160ddd1461015c57806323b872dd1461016e575b600080fd5b6101236102e3565b6040516101309190610c96565b60405180910390f35b61014c610147366004610d07565b610375565b6040519015158152602001610130565b6002545b604051908152602001610130565b61014c61017c366004610d31565b61038b565b60405160ff7f0000000000000000000000000000000000000000000000000000000000000000168152602001610130565b61014c6101c0366004610d07565b61043a565b6101d86101d3366004610d07565b610476565b005b6101d86101e8366004610d6d565b6104af565b6101606101fb366004610d86565b6001600160a01b031660009081526020819052604090205490565b6101d86104bc565b6005546001600160a01b03165b6040516001600160a01b039091168152602001610130565b6101236104f2565b61014c610259366004610d07565b610501565b61014c61026c366004610d07565b61059a565b6101d861027f366004610d86565b6105a7565b610160610292366004610da8565b6001600160a01b03918216600090815260016020908152604080832093909416825291909152205490565b60065461022b906001600160a01b031681565b6101d86102de366004610d86565b610601565b6060600380546102f290610ddb565b80601f016020809104026020016040519081016040528092919081815260200182805461031e90610ddb565b801561036b5780601f106103405761010080835404028352916020019161036b565b820191906000526020600020905b81548152906001019060200180831161034e57829003601f168201915b5050505050905090565b6000610382338484610699565b50600192915050565b60006103988484846107be565b6001600160a01b0384166000908152600160209081526040808320338452909152902054828110156104225760405162461bcd60e51b815260206004820152602860248201527f45524332303a207472616e7366657220616d6f756e74206578636565647320616044820152676c6c6f77616e636560c01b60648201526084015b60405180910390fd5b61042f8533858403610699565b506001949350505050565b3360008181526001602090815260408083206001600160a01b03871684529091528120549091610382918590610471908690610e2b565b610699565b6006546001600160a01b031633146104a157604051636bd1573560e11b815260040160405180910390fd5b6104ab8282610998565b5050565b6104b93382610a83565b50565b6005546001600160a01b031633146104e65760405162461bcd60e51b815260040161041990610e43565b6104f06000610bda565b565b6060600480546102f290610ddb565b3360009081526001602090815260408083206001600160a01b0386168452909152812054828110156105835760405162461bcd60e51b815260206004820152602560248201527f45524332303a2064656372656173656420616c6c6f77616e63652062656c6f77604482015264207a65726f60d81b6064820152608401610419565b6105903385858403610699565b5060019392505050565b60006103823384846107be565b6005546001600160a01b031633146105d15760405162461bcd60e51b815260040161041990610e43565b6006546001600160a01b03166104b957600680546001600160a01b0383166001600160a01b031990911617905550565b6005546001600160a01b0316331461062b5760405162461bcd60e51b815260040161041990610e43565b6001600160a01b0381166106905760405162461bcd60e51b815260206004820152602660248201527f4f776e61626c653a206e6577206f776e657220697320746865207a65726f206160448201526564647265737360d01b6064820152608401610419565b6104b981610bda565b6001600160a01b0383166106fb5760405162461bcd60e51b8152602060048201526024808201527f45524332303a20617070726f76652066726f6d20746865207a65726f206164646044820152637265737360e01b6064820152608401610419565b6001600160a01b03821661075c5760405162461bcd60e51b815260206004820152602260248201527f45524332303a20617070726f766520746f20746865207a65726f206164647265604482015261737360f01b6064820152608401610419565b6001600160a01b0383811660008181526001602090815260408083209487168084529482529182902085905590518481527f8c5be1e5ebec7d5bd14f71427d1e84f3dd0314c0f7b2291e5b200ac8c7c3b92591015b60405180910390a3505050565b6001600160a01b0383166108225760405162461bcd60e51b815260206004820152602560248201527f45524332303a207472616e736665722066726f6d20746865207a65726f206164604482015264647265737360d81b6064820152608401610419565b6001600160a01b0382166108845760405162461bcd60e51b815260206004820152602360248201527f45524332303a207472616e7366657220746f20746865207a65726f206164647260448201526265737360e81b6064820152608401610419565b61088f838383610c2c565b6001600160a01b038316600090815260208190526040902054818110156109075760405162461bcd60e51b815260206004820152602660248201527f45524332303a207472616e7366657220616d6f756e7420657863656564732062604482015265616c616e636560d01b6064820152608401610419565b6001600160a01b0380851660009081526020819052604080822085850390559185168152908120805484929061093e908490610e2b565b92505081905550826001600160a01b0316846001600160a01b03167fddf252ad1be2c89b69c2b068fc378daa952ba7f163c4a11628f55a4df523b3ef8460405161098a91815260200190565b60405180910390a350505050565b6001600160a01b0382166109ee5760405162461bcd60e51b815260206004820152601f60248201527f45524332303a206d696e7420746f20746865207a65726f2061646472657373006044820152606401610419565b6109fa60008383610c2c565b8060026000828254610a0c9190610e2b565b90915550506001600160a01b03821660009081526020819052604081208054839290610a39908490610e2b565b90915550506040518181526001600160a01b038316906000907fddf252ad1be2c89b69c2b068fc378daa952ba7f163c4a11628f55a4df523b3ef9060200160405180910390a35050565b6001600160a01b038216610ae35760405162461bcd60e51b815260206004820152602160248201527f45524332303a206275726e2066726f6d20746865207a65726f206164647265736044820152607360f81b6064820152608401610419565b610aef82600083610c2c565b6001600160a01b03821660009081526020819052604090205481811015610b635760405162461bcd60e51b815260206004820152602260248201527f45524332303a206275726e20616d6f756e7420657863656564732062616c616e604482015261636560f01b6064820152608401610419565b6001600160a01b0383166000908152602081905260408120838303905560028054849290610b92908490610e78565b90915550506040518281526000906001600160a01b038516907fddf252ad1be2c89b69c2b068fc378daa952ba7f163c4a11628f55a4df523b3ef906020016107b1565b505050565b600580546001600160a01b038381166001600160a01b0319831681179093556040519116919082907f8be0079c531659141344cd1fd0a4f28419497f9722a3daafe3b4186f6b6457e090600090a35050565b6001600160a01b0383161580610c4957506001600160a01b038216155b80610c6157506006546001600160a01b038481169116145b80610c7957506006546001600160a01b038381169116145b610bd557604051636bd1573560e11b815260040160405180910390fd5b600060208083528351808285015260005b81811015610cc357858101830151858201604001528201610ca7565b81811115610cd5576000604083870101525b50601f01601f1916929092016040019392505050565b80356001600160a01b0381168114610d0257600080fd5b919050565b60008060408385031215610d1a57600080fd5b610d2383610ceb565b946020939093013593505050565b600080600060608486031215610d4657600080fd5b610d4f84610ceb565b9250610d5d60208501610ceb565b9150604084013590509250925092565b600060208284031215610d7f57600080fd5b5035919050565b600060208284031215610d9857600080fd5b610da182610ceb565b9392505050565b60008060408385031215610dbb57600080fd5b610dc483610ceb565b9150610dd260208401610ceb565b90509250929050565b600181811c90821680610def57607f821691505b602082108103610e0f57634e487b7160e01b600052602260045260246000fd5b50919050565b634e487b7160e01b600052601160045260246000fd5b60008219821115610e3e57610e3e610e15565b500190565b6020808252818101527f4f776e61626c653a2063616c6c6572206973206e6f7420746865206f776e6572604082015260600190565b600082821015610e8a57610e8a610e15565b50039056fea26469706673582212202fb88e47c7f9842cd87d9bcd41bb91a1d9bfe62b44f04700266982b6c090b9a264736f6c634300080e0033608060405260405162000efd38038062000efd833981016040819052620000269162000507565b82816200005560017f360894a13ba1a3210667c828492db98dca3e2076cc3735a920a3ca505d382bbd620005e7565b60008051602062000eb6833981519152146200007557620000756200060d565b6200008382826000620000e7565b50620000b3905060017fb53127684a568b3173ae13b9f8a6016e243e63b6e8ee1178d6a717850b5d6104620005e7565b60008051602062000e9683398151915214620000d357620000d36200060d565b620000de8262000124565b50505062000676565b620000f2836200017f565b600082511180620001005750805b156200011f576200011d8383620001c160201b6200022e1760201c565b505b505050565b7f7e644d79422f17c01e4894b5f4f588d331ebfa28653d42ae832dc59e38c9798f6200014f620001f0565b604080516001600160a01b03928316815291841660208301520160405180910390a16200017c8162000229565b50565b6200018a81620002de565b6040516001600160a01b038216907fbc7cd75a20ee27fd9adebab32041f755214dbc6bffa90cc0225b39da2e5c2d3b90600090a250565b6060620001e9838360405180606001604052806027815260200162000ed66027913962000381565b9392505050565b60006200021a60008051602062000e9683398151915260001b6200045e60201b620001ea1760201c565b546001600160a01b0316919050565b6001600160a01b038116620002945760405162461bcd60e51b815260206004820152602660248201527f455243313936373a206e65772061646d696e20697320746865207a65726f206160448201526564647265737360d01b60648201526084015b60405180910390fd5b80620002bd60008051602062000e9683398151915260001b6200045e60201b620001ea1760201c565b80546001600160a01b0319166001600160a01b039290921691909117905550565b620002f4816200046160201b6200025a1760201c565b620003585760405162461bcd60e51b815260206004820152602d60248201527f455243313936373a206e657720696d706c656d656e746174696f6e206973206e60448201526c1bdd08184818dbdb9d1c9858dd609a1b60648201526084016200028b565b80620002bd60008051602062000eb683398151915260001b6200045e60201b620001ea1760201c565b6060833b620003e25760405162461bcd60e51b815260206004820152602660248201527f416464726573733a2064656c65676174652063616c6c20746f206e6f6e2d636f6044820152651b9d1c9858dd60d21b60648201526084016200028b565b600080856001600160a01b031685604051620003ff919062000623565b600060405180830381855af49150503d80600081146200043c576040519150601f19603f3d011682016040523d82523d6000602084013e62000441565b606091505b5090925090506200045482828662000467565b9695505050505050565b90565b3b151590565b6060831562000478575081620001e9565b825115620004895782518084602001fd5b8160405162461bcd60e51b81526004016200028b919062000641565b80516001600160a01b0381168114620004bd57600080fd5b919050565b634e487b7160e01b600052604160045260246000fd5b60005b83811015620004f5578181015183820152602001620004db565b838111156200011d5750506000910152565b6000806000606084860312156200051d57600080fd5b6200052884620004a5565b92506200053860208501620004a5565b60408501519092506001600160401b03808211156200055657600080fd5b818601915086601f8301126200056b57600080fd5b815181811115620005805762000580620004c2565b604051601f8201601f19908116603f01168101908382118183101715620005ab57620005ab620004c2565b81604052828152896020848701011115620005c557600080fd5b620005d8836020830160208801620004d8565b80955050505050509250925092565b6000828210156200060857634e487b7160e01b600052601160045260246000fd5b500390565b634e487b7160e01b600052600160045260246000fd5b6000825162000637818460208701620004d8565b9190910192915050565b602081526000825180602084015262000662816040850160208701620004d8565b601f01601f19169190910160400192915050565b61081080620006866000396000f3fe60806040526004361061004e5760003560e01c80633659cfe6146100655780634f1ef286146100855780635c60da1b146100985780638f283970146100c9578063f851a440146100e95761005d565b3661005d5761005b6100fe565b005b61005b6100fe565b34801561007157600080fd5b5061005b61008036600461069a565b610118565b61005b6100933660046106b5565b610155565b3480156100a457600080fd5b506100ad6101bc565b6040516001600160a01b03909116815260200160405180910390f35b3480156100d557600080fd5b5061005b6100e436600461069a565b6101ed565b3480156100f557600080fd5b506100ad61020d565b610106610260565b6101166101116102f5565b6102ff565b565b610120610323565b6001600160a01b0316330361014d5761014a81604051806020016040528060008152506000610356565b50565b61014a6100fe565b61015d610323565b6001600160a01b031633036101b4576101af8383838080601f01602080910402602001604051908101604052809392919081815260200183838082843760009201919091525060019250610356915050565b505050565b6101af6100fe565b60006101c6610323565b6001600160a01b031633036101e2576101dd6102f5565b905090565b6101ea6100fe565b90565b6101f5610323565b6001600160a01b0316330361014d5761014a81610381565b6000610217610323565b6001600160a01b031633036101e2576101dd610323565b606061025383836040518060600160405280602781526020016107b4602791396103d5565b9392505050565b3b151590565b610268610323565b6001600160a01b031633036101165760405162461bcd60e51b815260206004820152604260248201527f5472616e73706172656e745570677261646561626c6550726f78793a2061646d60448201527f696e2063616e6e6f742066616c6c6261636b20746f2070726f78792074617267606482015261195d60f21b608482015260a4015b60405180910390fd5b60006101dd6104a9565b3660008037600080366000845af43d6000803e80801561031e573d6000f35b3d6000fd5b60007fb53127684a568b3173ae13b9f8a6016e243e63b6e8ee1178d6a717850b5d61035b546001600160a01b0316919050565b61035f836104d1565b60008251118061036c5750805b156101af5761037b838361022e565b50505050565b7f7e644d79422f17c01e4894b5f4f588d331ebfa28653d42ae832dc59e38c9798f6103aa610323565b604080516001600160a01b03928316815291841660208301520160405180910390a161014a81610511565b6060833b6104345760405162461bcd60e51b815260206004820152602660248201527f416464726573733a2064656c65676174652063616c6c20746f206e6f6e2d636f6044820152651b9d1c9858dd60d21b60648201526084016102ec565b600080856001600160a01b03168560405161044f9190610764565b600060405180830381855af49150503d806000811461048a576040519150601f19603f3d011682016040523d82523d6000602084013e61048f565b606091505b509150915061049f8282866105ba565b9695505050505050565b60007f360894a13ba1a3210667c828492db98dca3e2076cc3735a920a3ca505d382bbc610347565b6104da816105f3565b6040516001600160a01b038216907fbc7cd75a20ee27fd9adebab32041f755214dbc6bffa90cc0225b39da2e5c2d3b90600090a250565b6001600160a01b0381166105765760405162461bcd60e51b815260206004820152602660248201527f455243313936373a206e65772061646d696e20697320746865207a65726f206160448201526564647265737360d01b60648201526084016102ec565b807fb53127684a568b3173ae13b9f8a6016e243e63b6e8ee1178d6a717850b5d61035b80546001600160a01b0319166001600160a01b039290921691909117905550565b606083156105c9575081610253565b8251156105d95782518084602001fd5b8160405162461bcd60e51b81526004016102ec9190610780565b803b6106575760405162461bcd60e51b815260206004820152602d60248201527f455243313936373a206e657720696d706c656d656e746174696f6e206973206e60448201526c1bdd08184818dbdb9d1c9858dd609a1b60648201526084016102ec565b807f360894a13ba1a3210667c828492db98dca3e2076cc3735a920a3ca505d382bbc610599565b80356001600160a01b038116811461069557600080fd5b919050565b6000602082840312156106ac57600080fd5b6102538261067e565b6000806000604084860312156106ca57600080fd5b6106d38461067e565b9250602084013567ffffffffffffffff808211156106f057600080fd5b818601915086601f83011261070457600080fd5b81358181111561071357600080fd5b87602082850101111561072557600080fd5b6020830194508093505050509250925092565b60005b8381101561075357818101518382015260200161073b565b8381111561037b5750506000910152565b60008251610776818460208701610738565b9190910192915050565b602081526000825180602084015261079f816040850160208701610738565b601f01601f1916919091016040019291505056fe416464726573733a206c6f772d6c6576656c2064656c65676174652063616c6c206661696c6564a26469706673582212208659d49d8e0a220394b33fafa2767ac72640b9ca9658446656381e83d4e9510064736f6c634300080e0033b53127684a568b3173ae13b9f8a6016e243e63b6e8ee1178d6a717850b5d6103360894a13ba1a3210667c828492db98dca3e2076cc3735a920a3ca505d382bbc416464726573733a206c6f772d6c6576656c2064656c65676174652063616c6c206661696c6564a26469706673582212207456b1296794c645451573db20b4c8a06f1c67a853d1b2ece982b165793c1b2064736f6c634300080e0033608060405234801561001057600080fd5b5061001a3361001f565b61006f565b600080546001600160a01b038381166001600160a01b0319831681178455604051919092169283917f8be0079c531659141344cd1fd0a4f28419497f9722a3daafe3b4186f6b6457e09190a35050565b6107238061007e6000396000f3fe60806040526004361061007b5760003560e01c80639623609d1161004e5780639623609d1461011157806399a88ec414610124578063f2fde38b14610144578063f3b7dead1461016457600080fd5b8063204e1c7a14610080578063715018a6146100bc5780637eff275e146100d35780638da5cb5b146100f3575b600080fd5b34801561008c57600080fd5b506100a061009b3660046104ed565b610184565b6040516001600160a01b03909116815260200160405180910390f35b3480156100c857600080fd5b506100d1610215565b005b3480156100df57600080fd5b506100d16100ee366004610511565b610254565b3480156100ff57600080fd5b506000546001600160a01b03166100a0565b6100d161011f366004610560565b6102de565b34801561013057600080fd5b506100d161013f366004610511565b61036f565b34801561015057600080fd5b506100d161015f3660046104ed565b6103c7565b34801561017057600080fd5b506100a061017f3660046104ed565b610462565b6000806000836001600160a01b03166040516101aa90635c60da1b60e01b815260040190565b600060405180830381855afa9150503d80600081146101e5576040519150601f19603f3d011682016040523d82523d6000602084013e6101ea565b606091505b5091509150816101f957600080fd5b8080602001905181019061020d9190610636565b949350505050565b6000546001600160a01b031633146102485760405162461bcd60e51b815260040161023f90610653565b60405180910390fd5b6102526000610488565b565b6000546001600160a01b0316331461027e5760405162461bcd60e51b815260040161023f90610653565b6040516308f2839760e41b81526001600160a01b038281166004830152831690638f283970906024015b600060405180830381600087803b1580156102c257600080fd5b505af11580156102d6573d6000803e3d6000fd5b505050505050565b6000546001600160a01b031633146103085760405162461bcd60e51b815260040161023f90610653565b60405163278f794360e11b81526001600160a01b03841690634f1ef2869034906103389086908690600401610688565b6000604051808303818588803b15801561035157600080fd5b505af1158015610365573d6000803e3d6000fd5b5050505050505050565b6000546001600160a01b031633146103995760405162461bcd60e51b815260040161023f90610653565b604051631b2ce7f360e11b81526001600160a01b038281166004830152831690633659cfe6906024016102a8565b6000546001600160a01b031633146103f15760405162461bcd60e51b815260040161023f90610653565b6001600160a01b0381166104565760405162461bcd60e51b815260206004820152602660248201527f4f776e61626c653a206e6577206f776e657220697320746865207a65726f206160448201526564647265737360d01b606482015260840161023f565b61045f81610488565b50565b6000806000836001600160a01b03166040516101aa906303e1469160e61b815260040190565b600080546001600160a01b038381166001600160a01b0319831681178455604051919092169283917f8be0079c531659141344cd1fd0a4f28419497f9722a3daafe3b4186f6b6457e09190a35050565b6001600160a01b038116811461045f57600080fd5b6000602082840312156104ff57600080fd5b813561050a816104d8565b9392505050565b6000806040838503121561052457600080fd5b823561052f816104d8565b9150602083013561053f816104d8565b809150509250929050565b634e487b7160e01b600052604160045260246000fd5b60008060006060848603121561057557600080fd5b8335610580816104d8565b92506020840135610590816104d8565b9150604084013567ffffffffffffffff808211156105ad57600080fd5b818601915086601f8301126105c157600080fd5b8135818111156105d3576105d361054a565b604051601f8201601f19908116603f011681019083821181831017156105fb576105fb61054a565b8160405282815289602084870101111561061457600080fd5b8260208601602083013760006020848301015280955050505050509250925092565b60006020828403121561064857600080fd5b815161050a816104d8565b6020808252818101527f4f776e61626c653a2063616c6c6572206973206e6f7420746865206f776e6572604082015260600190565b60018060a01b038316815260006020604081840152835180604085015260005b818110156106c4578581018301518582016060015282016106a8565b818111156106d6576000606083870101525b50601f01601f19169290920160600194935050505056fea2646970667358221220121b5465decdd63d7865575c30c12a58fc28baed5b54a1f2b5cde906f3086c1864736f6c634300080e003360a06040523480156200001157600080fd5b5060405162001130380380620011308339810160408190526200003491620001d2565b604080518082018252601e81527f52616765205472616465205669727475616c2051756f746520546f6b656e00006020808301918252835180850190945260068452657651756f746560d01b90840152815191929162000097916003916200012c565b508051620000ad9060049060208401906200012c565b505050620000ca620000c4620000d660201b60201c565b620000da565b60ff166080526200023a565b3390565b600580546001600160a01b038381166001600160a01b0319831681179093556040519116919082907f8be0079c531659141344cd1fd0a4f28419497f9722a3daafe3b4186f6b6457e090600090a35050565b8280546200013a90620001fe565b90600052602060002090601f0160209004810192826200015e5760008555620001a9565b82601f106200017957805160ff1916838001178555620001a9565b82800160010185558215620001a9579182015b82811115620001a95782518255916020019190600101906200018c565b50620001b7929150620001bb565b5090565b5b80821115620001b75760008155600101620001bc565b600060208284031215620001e557600080fd5b815160ff81168114620001f757600080fd5b9392505050565b600181811c908216806200021357607f821691505b6020821081036200023457634e487b7160e01b600052602260045260246000fd5b50919050565b608051610eda6200025660003960006101ab0152610eda6000f3fe608060405234801561001057600080fd5b50600436106101165760003560e01c806370a08231116100a2578063a457c2d711610071578063a457c2d714610264578063a9059cbb14610277578063b6a5d7de1461028a578063dd62ed3e1461029d578063f2fde38b146102d657600080fd5b806370a0823114610210578063715018a6146102395780638da5cb5b1461024157806395d89b411461025c57600080fd5b80632520e7ff116100e95780632520e7ff14610181578063313ce567146101a457806339509351146101d557806340c10f19146101e857806342966c68146101fd57600080fd5b806306fdde031461011b578063095ea7b31461013957806318160ddd1461015c57806323b872dd1461016e575b600080fd5b6101236102e9565b6040516101309190610cab565b60405180910390f35b61014c610147366004610d1c565b61037b565b6040519015158152602001610130565b6002545b604051908152602001610130565b61014c61017c366004610d46565b610391565b61014c61018f366004610d82565b60066020526000908152604090205460ff1681565b60405160ff7f0000000000000000000000000000000000000000000000000000000000000000168152602001610130565b61014c6101e3366004610d1c565b610440565b6101fb6101f6366004610d1c565b61047c565b005b6101fb61020b366004610da4565b6104ba565b61016061021e366004610d82565b6001600160a01b031660009081526020819052604090205490565b6101fb6104c7565b6005546040516001600160a01b039091168152602001610130565b6101236104fd565b61014c610272366004610d1c565b61050c565b61014c610285366004610d1c565b6105a5565b6101fb610298366004610d82565b6105b2565b6101606102ab366004610dbd565b6001600160a01b03918216600090815260016020908152604080832093909416825291909152205490565b6101fb6102e4366004610d82565b610600565b6060600380546102f890610df0565b80601f016020809104026020016040519081016040528092919081815260200182805461032490610df0565b80156103715780601f1061034657610100808354040283529160200191610371565b820191906000526020600020905b81548152906001019060200180831161035457829003601f168201915b5050505050905090565b6000610388338484610698565b50600192915050565b600061039e8484846107bd565b6001600160a01b0384166000908152600160209081526040808320338452909152902054828110156104285760405162461bcd60e51b815260206004820152602860248201527f45524332303a207472616e7366657220616d6f756e74206578636565647320616044820152676c6c6f77616e636560c01b60648201526084015b60405180910390fd5b6104358533858403610698565b506001949350505050565b3360008181526001602090815260408083206001600160a01b03871684529091528120549091610388918590610477908690610e40565b610698565b3360009081526006602052604090205460ff166104ac57604051636bd1573560e11b815260040160405180910390fd5b6104b68282610997565b5050565b6104c43382610a82565b50565b6005546001600160a01b031633146104f15760405162461bcd60e51b815260040161041f90610e58565b6104fb6000610bd9565b565b6060600480546102f890610df0565b3360009081526001602090815260408083206001600160a01b03861684529091528120548281101561058e5760405162461bcd60e51b815260206004820152602560248201527f45524332303a2064656372656173656420616c6c6f77616e63652062656c6f77604482015264207a65726f60d81b606482015260840161041f565b61059b3385858403610698565b5060019392505050565b60006103883384846107bd565b6005546001600160a01b031633146105dc5760405162461bcd60e51b815260040161041f90610e58565b6001600160a01b03166000908152600660205260409020805460ff19166001179055565b6005546001600160a01b0316331461062a5760405162461bcd60e51b815260040161041f90610e58565b6001600160a01b03811661068f5760405162461bcd60e51b815260206004820152602660248201527f4f776e61626c653a206e6577206f776e657220697320746865207a65726f206160448201526564647265737360d01b606482015260840161041f565b6104c481610bd9565b6001600160a01b0383166106fa5760405162461bcd60e51b8152602060048201526024808201527f45524332303a20617070726f76652066726f6d20746865207a65726f206164646044820152637265737360e01b606482015260840161041f565b6001600160a01b03821661075b5760405162461bcd60e51b815260206004820152602260248201527f45524332303a20617070726f766520746f20746865207a65726f206164647265604482015261737360f01b606482015260840161041f565b6001600160a01b0383811660008181526001602090815260408083209487168084529482529182902085905590518481527f8c5be1e5ebec7d5bd14f71427d1e84f3dd0314c0f7b2291e5b200ac8c7c3b92591015b60405180910390a3505050565b6001600160a01b0383166108215760405162461bcd60e51b815260206004820152602560248201527f45524332303a207472616e736665722066726f6d20746865207a65726f206164604482015264647265737360d81b606482015260840161041f565b6001600160a01b0382166108835760405162461bcd60e51b815260206004820152602360248201527f45524332303a207472616e7366657220746f20746865207a65726f206164647260448201526265737360e81b606482015260840161041f565b61088e838383610c2b565b6001600160a01b038316600090815260208190526040902054818110156109065760405162461bcd60e51b815260206004820152602660248201527f45524332303a207472616e7366657220616d6f756e7420657863656564732062604482015265616c616e636560d01b606482015260840161041f565b6001600160a01b0380851660009081526020819052604080822085850390559185168152908120805484929061093d908490610e40565b92505081905550826001600160a01b0316846001600160a01b03167fddf252ad1be2c89b69c2b068fc378daa952ba7f163c4a11628f55a4df523b3ef8460405161098991815260200190565b60405180910390a350505050565b6001600160a01b0382166109ed5760405162461bcd60e51b815260206004820152601f60248201527f45524332303a206d696e7420746f20746865207a65726f206164647265737300604482015260640161041f565b6109f960008383610c2b565b8060026000828254610a0b9190610e40565b90915550506001600160a01b03821660009081526020819052604081208054839290610a38908490610e40565b90915550506040518181526001600160a01b038316906000907fddf252ad1be2c89b69c2b068fc378daa952ba7f163c4a11628f55a4df523b3ef9060200160405180910390a35050565b6001600160a01b038216610ae25760405162461bcd60e51b815260206004820152602160248201527f45524332303a206275726e2066726f6d20746865207a65726f206164647265736044820152607360f81b606482015260840161041f565b610aee82600083610c2b565b6001600160a01b03821660009081526020819052604090205481811015610b625760405162461bcd60e51b815260206004820152602260248201527f45524332303a206275726e20616d6f756e7420657863656564732062616c616e604482015261636560f01b606482015260840161041f565b6001600160a01b0383166000908152602081905260408120838303905560028054849290610b91908490610e8d565b90915550506040518281526000906001600160a01b038516907fddf252ad1be2c89b69c2b068fc378daa952ba7f163c4a11628f55a4df523b3ef906020016107b0565b505050565b600580546001600160a01b038381166001600160a01b0319831681179093556040519116919082907f8be0079c531659141344cd1fd0a4f28419497f9722a3daafe3b4186f6b6457e090600090a35050565b6001600160a01b0383161580610c4857506001600160a01b038216155b80610c6b57506001600160a01b03831660009081526006602052604090205460ff165b80610c8e57506001600160a01b03821660009081526006602052604090205460ff165b610bd457604051636bd1573560e11b815260040160405180910390fd5b600060208083528351808285015260005b81811015610cd857858101830151858201604001528201610cbc565b81811115610cea576000604083870101525b50601f01601f1916929092016040019392505050565b80356001600160a01b0381168114610d1757600080fd5b919050565b60008060408385031215610d2f57600080fd5b610d3883610d00565b946020939093013593505050565b600080600060608486031215610d5b57600080fd5b610d6484610d00565b9250610d7260208501610d00565b9150604084013590509250925092565b600060208284031215610d9457600080fd5b610d9d82610d00565b9392505050565b600060208284031215610db657600080fd5b5035919050565b60008060408385031215610dd057600080fd5b610dd983610d00565b9150610de760208401610d00565b90509250929050565b600181811c90821680610e0457607f821691505b602082108103610e2457634e487b7160e01b600052602260045260246000fd5b50919050565b634e487b7160e01b600052601160045260246000fd5b60008219821115610e5357610e53610e2a565b500190565b6020808252818101527f4f776e61626c653a2063616c6c6572206973206e6f7420746865206f776e6572604082015260600190565b600082821015610e9f57610e9f610e2a565b50039056fea2646970667358221220acf28b19ec151659780ca6301b0d1a3ccc3bc440644df2dfb61f72a2819247f864736f6c634300080e0033608060405260405162000efd38038062000efd833981016040819052620000269162000507565b82816200005560017f360894a13ba1a3210667c828492db98dca3e2076cc3735a920a3ca505d382bbd620005e7565b60008051602062000eb6833981519152146200007557620000756200060d565b6200008382826000620000e7565b50620000b3905060017fb53127684a568b3173ae13b9f8a6016e243e63b6e8ee1178d6a717850b5d6104620005e7565b60008051602062000e9683398151915214620000d357620000d36200060d565b620000de8262000124565b50505062000676565b620000f2836200017f565b600082511180620001005750805b156200011f576200011d8383620001c160201b6200022e1760201c565b505b505050565b7f7e644d79422f17c01e4894b5f4f588d331ebfa28653d42ae832dc59e38c9798f6200014f620001f0565b604080516001600160a01b03928316815291841660208301520160405180910390a16200017c8162000229565b50565b6200018a81620002de565b6040516001600160a01b038216907fbc7cd75a20ee27fd9adebab32041f755214dbc6bffa90cc0225b39da2e5c2d3b90600090a250565b6060620001e9838360405180606001604052806027815260200162000ed66027913962000381565b9392505050565b60006200021a60008051602062000e9683398151915260001b6200045e60201b620001ea1760201c565b546001600160a01b0316919050565b6001600160a01b038116620002945760405162461bcd60e51b815260206004820152602660248201527f455243313936373a206e65772061646d696e20697320746865207a65726f206160448201526564647265737360d01b60648201526084015b60405180910390fd5b80620002bd60008051602062000e9683398151915260001b6200045e60201b620001ea1760201c565b80546001600160a01b0319166001600160a01b039290921691909117905550565b620002f4816200046160201b6200025a1760201c565b620003585760405162461bcd60e51b815260206004820152602d60248201527f455243313936373a206e657720696d706c656d656e746174696f6e206973206e60448201526c1bdd08184818dbdb9d1c9858dd609a1b60648201526084016200028b565b80620002bd60008051602062000eb683398151915260001b6200045e60201b620001ea1760201c565b6060833b620003e25760405162461bcd60e51b815260206004820152602660248201527f416464726573733a2064656c65676174652063616c6c20746f206e6f6e2d636f6044820152651b9d1c9858dd60d21b60648201526084016200028b565b600080856001600160a01b031685604051620003ff919062000623565b600060405180830381855af49150503d80600081146200043c576040519150601f19603f3d011682016040523d82523d6000602084013e62000441565b606091505b5090925090506200045482828662000467565b9695505050505050565b90565b3b151590565b6060831562000478575081620001e9565b825115620004895782518084602001fd5b8160405162461bcd60e51b81526004016200028b919062000641565b80516001600160a01b0381168114620004bd57600080fd5b919050565b634e487b7160e01b600052604160045260246000fd5b60005b83811015620004f5578181015183820152602001620004db565b838111156200011d5750506000910152565b6000806000606084860312156200051d57600080fd5b6200052884620004a5565b92506200053860208501620004a5565b60408501519092506001600160401b03808211156200055657600080fd5b818601915086601f8301126200056b57600080fd5b815181811115620005805762000580620004c2565b604051601f8201601f19908116603f01168101908382118183101715620005ab57620005ab620004c2565b81604052828152896020848701011115620005c557600080fd5b620005d8836020830160208801620004d8565b80955050505050509250925092565b6000828210156200060857634e487b7160e01b600052601160045260246000fd5b500390565b634e487b7160e01b600052600160045260246000fd5b6000825162000637818460208701620004d8565b9190910192915050565b602081526000825180602084015262000662816040850160208701620004d8565b601f01601f19169190910160400192915050565b61081080620006866000396000f3fe60806040526004361061004e5760003560e01c80633659cfe6146100655780634f1ef286146100855780635c60da1b146100985780638f283970146100c9578063f851a440146100e95761005d565b3661005d5761005b6100fe565b005b61005b6100fe565b34801561007157600080fd5b5061005b61008036600461069a565b610118565b61005b6100933660046106b5565b610155565b3480156100a457600080fd5b506100ad6101bc565b6040516001600160a01b03909116815260200160405180910390f35b3480156100d557600080fd5b5061005b6100e436600461069a565b6101ed565b3480156100f557600080fd5b506100ad61020d565b610106610260565b6101166101116102f5565b6102ff565b565b610120610323565b6001600160a01b0316330361014d5761014a81604051806020016040528060008152506000610356565b50565b61014a6100fe565b61015d610323565b6001600160a01b031633036101b4576101af8383838080601f01602080910402602001604051908101604052809392919081815260200183838082843760009201919091525060019250610356915050565b505050565b6101af6100fe565b60006101c6610323565b6001600160a01b031633036101e2576101dd6102f5565b905090565b6101ea6100fe565b90565b6101f5610323565b6001600160a01b0316330361014d5761014a81610381565b6000610217610323565b6001600160a01b031633036101e2576101dd610323565b606061025383836040518060600160405280602781526020016107b4602791396103d5565b9392505050565b3b151590565b610268610323565b6001600160a01b031633036101165760405162461bcd60e51b815260206004820152604260248201527f5472616e73706172656e745570677261646561626c6550726f78793a2061646d60448201527f696e2063616e6e6f742066616c6c6261636b20746f2070726f78792074617267606482015261195d60f21b608482015260a4015b60405180910390fd5b60006101dd6104a9565b3660008037600080366000845af43d6000803e80801561031e573d6000f35b3d6000fd5b60007fb53127684a568b3173ae13b9f8a6016e243e63b6e8ee1178d6a717850b5d61035b546001600160a01b0316919050565b61035f836104d1565b60008251118061036c5750805b156101af5761037b838361022e565b50505050565b7f7e644d79422f17c01e4894b5f4f588d331ebfa28653d42ae832dc59e38c9798f6103aa610323565b604080516001600160a01b03928316815291841660208301520160405180910390a161014a81610511565b6060833b6104345760405162461bcd60e51b815260206004820152602660248201527f416464726573733a2064656c65676174652063616c6c20746f206e6f6e2d636f6044820152651b9d1c9858dd60d21b60648201526084016102ec565b600080856001600160a01b03168560405161044f9190610764565b600060405180830381855af49150503d806000811461048a576040519150601f19603f3d011682016040523d82523d6000602084013e61048f565b606091505b509150915061049f8282866105ba565b9695505050505050565b60007f360894a13ba1a3210667c828492db98dca3e2076cc3735a920a3ca505d382bbc610347565b6104da816105f3565b6040516001600160a01b038216907fbc7cd75a20ee27fd9adebab32041f755214dbc6bffa90cc0225b39da2e5c2d3b90600090a250565b6001600160a01b0381166105765760405162461bcd60e51b815260206004820152602660248201527f455243313936373a206e65772061646d696e20697320746865207a65726f206160448201526564647265737360d01b60648201526084016102ec565b807fb53127684a568b3173ae13b9f8a6016e243e63b6e8ee1178d6a717850b5d61035b80546001600160a01b0319166001600160a01b039290921691909117905550565b606083156105c9575081610253565b8251156105d95782518084602001fd5b8160405162461bcd60e51b81526004016102ec9190610780565b803b6106575760405162461bcd60e51b815260206004820152602d60248201527f455243313936373a206e657720696d706c656d656e746174696f6e206973206e60448201526c1bdd08184818dbdb9d1c9858dd609a1b60648201526084016102ec565b807f360894a13ba1a3210667c828492db98dca3e2076cc3735a920a3ca505d382bbc610599565b80356001600160a01b038116811461069557600080fd5b919050565b6000602082840312156106ac57600080fd5b6102538261067e565b6000806000604084860312156106ca57600080fd5b6106d38461067e565b9250602084013567ffffffffffffffff808211156106f057600080fd5b818601915086601f83011261070457600080fd5b81358181111561071357600080fd5b87602082850101111561072557600080fd5b6020830194508093505050509250925092565b60005b8381101561075357818101518382015260200161073b565b8381111561037b5750506000910152565b60008251610776818460208701610738565b9190910192915050565b602081526000825180602084015261079f816040850160208701610738565b601f01601f1916919091016040019291505056fe416464726573733a206c6f772d6c6576656c2064656c65676174652063616c6c206661696c6564a26469706673582212208659d49d8e0a220394b33fafa2767ac72640b9ca9658446656381e83d4e9510064736f6c634300080e0033b53127684a568b3173ae13b9f8a6016e243e63b6e8ee1178d6a717850b5d6103360894a13ba1a3210667c828492db98dca3e2076cc3735a920a3ca505d382bbc416464726573733a206c6f772d6c6576656c2064656c65676174652063616c6c206661696c6564496e697469616c697a61626c653a20636f6e747261637420697320616c726561",
  "linkReferences": {},
  "deployedLinkReferences": {}
}