{
  "_format": "hh-sol-artifact-1",
  "contractName": "PortfolioValuesFeed",
  "sourceName": "contracts/PortfolioValuesFeed.sol",
  "abi": [
    {
      "inputs": [
        {
          "internalType": "address",
          "name": "_oracle",
          "type": "address"
        },
        {
          "internalType": "string",
          "name": "_jobId",
          "type": "string"
        },
        {
          "internalType": "uint256",
          "name": "_fee",
          "type": "uint256"
        },
        {
          "internalType": "address",
          "name": "_link",
          "type": "address"
        },
        {
          "internalType": "address",
          "name": "_authority",
          "type": "address"
        }
      ],
      "stateMutability": "nonpayable",
      "type": "constructor"
    },
    {
      "inputs": [],
      "name": "NotKeeper",
      "type": "error"
    },
    {
      "inputs": [],
      "name": "UNAUTHORIZED",
      "type": "error"
    },
    {
      "anonymous": false,
      "inputs": [
        {
          "indexed": false,
          "internalType": "contract IAuthority",
          "name": "authority",
          "type": "address"
        }
      ],
      "name": "AuthorityUpdated",
      "type": "event"
    },
    {
      "anonymous": false,
      "inputs": [
        {
          "indexed": true,
          "internalType": "bytes32",
          "name": "id",
          "type": "bytes32"
        }
      ],
      "name": "ChainlinkCancelled",
      "type": "event"
    },
    {
      "anonymous": false,
      "inputs": [
        {
          "indexed": true,
          "internalType": "bytes32",
          "name": "id",
          "type": "bytes32"
        }
      ],
      "name": "ChainlinkFulfilled",
      "type": "event"
    },
    {
      "anonymous": false,
      "inputs": [
        {
          "indexed": true,
          "internalType": "bytes32",
          "name": "id",
          "type": "bytes32"
        }
      ],
      "name": "ChainlinkRequested",
      "type": "event"
    },
    {
      "anonymous": false,
      "inputs": [
        {
          "indexed": true,
          "internalType": "address",
          "name": "underlying",
          "type": "address"
        },
        {
          "indexed": true,
          "internalType": "address",
          "name": "strike",
          "type": "address"
        },
        {
          "indexed": false,
          "internalType": "int256",
          "name": "delta",
          "type": "int256"
        },
        {
          "indexed": false,
          "internalType": "int256",
          "name": "gamma",
          "type": "int256"
        },
        {
          "indexed": false,
          "internalType": "int256",
          "name": "vega",
          "type": "int256"
        },
        {
          "indexed": false,
          "internalType": "int256",
          "name": "theta",
          "type": "int256"
        },
        {
          "indexed": false,
          "internalType": "int256",
          "name": "callPutsValue",
          "type": "int256"
        }
      ],
      "name": "DataFullfilled",
      "type": "event"
    },
    {
      "anonymous": false,
      "inputs": [
        {
          "indexed": false,
          "internalType": "address",
          "name": "asset",
          "type": "address"
        },
        {
          "indexed": false,
          "internalType": "string",
          "name": "stringVersion",
          "type": "string"
        }
      ],
      "name": "SetAddressStringMapping",
      "type": "event"
    },
    {
      "anonymous": false,
      "inputs": [
        {
          "indexed": false,
          "internalType": "uint256",
          "name": "fee",
          "type": "uint256"
        }
      ],
      "name": "SetFee",
      "type": "event"
    },
    {
      "anonymous": false,
      "inputs": [
        {
          "indexed": false,
          "internalType": "bytes32",
          "name": "jobId",
          "type": "bytes32"
        }
      ],
      "name": "SetJobId",
      "type": "event"
    },
    {
      "anonymous": false,
      "inputs": [
        {
          "indexed": false,
          "internalType": "address",
          "name": "liquidityPool",
          "type": "address"
        }
      ],
      "name": "SetLiquidityPool",
      "type": "event"
    },
    {
      "anonymous": false,
      "inputs": [
        {
          "indexed": false,
          "internalType": "address",
          "name": "oracle",
          "type": "address"
        }
      ],
      "name": "SetOracle",
      "type": "event"
    },
    {
      "inputs": [],
      "name": "authority",
      "outputs": [
        {
          "internalType": "contract IAuthority",
          "name": "",
          "type": "address"
        }
      ],
      "stateMutability": "view",
      "type": "function"
    },
    {
      "inputs": [],
      "name": "fee",
      "outputs": [
        {
          "internalType": "uint256",
          "name": "",
          "type": "uint256"
        }
      ],
      "stateMutability": "view",
      "type": "function"
    },
    {
      "inputs": [
        {
          "internalType": "bytes32",
          "name": "_requestId",
          "type": "bytes32"
        },
        {
          "internalType": "address",
          "name": "_underlying",
          "type": "address"
        },
        {
          "internalType": "address",
          "name": "_strike",
          "type": "address"
        },
        {
          "internalType": "int256",
          "name": "_delta",
          "type": "int256"
        },
        {
          "internalType": "int256",
          "name": "_gamma",
          "type": "int256"
        },
        {
          "internalType": "int256",
          "name": "_vega",
          "type": "int256"
        },
        {
          "internalType": "int256",
          "name": "_theta",
          "type": "int256"
        },
        {
          "internalType": "int256",
          "name": "_callPutsValue",
          "type": "int256"
        },
        {
          "internalType": "uint256",
          "name": "_spotPrice",
          "type": "uint256"
        }
      ],
      "name": "fulfill",
      "outputs": [],
      "stateMutability": "nonpayable",
      "type": "function"
    },
    {
      "inputs": [
        {
          "internalType": "address",
          "name": "underlying",
          "type": "address"
        },
        {
          "internalType": "address",
          "name": "strike",
          "type": "address"
        }
      ],
      "name": "getPortfolioValues",
      "outputs": [
        {
          "components": [
            {
              "internalType": "int256",
              "name": "delta",
              "type": "int256"
            },
            {
              "internalType": "int256",
              "name": "gamma",
              "type": "int256"
            },
            {
              "internalType": "int256",
              "name": "vega",
              "type": "int256"
            },
            {
              "internalType": "int256",
              "name": "theta",
              "type": "int256"
            },
            {
              "internalType": "int256",
              "name": "callPutsValue",
              "type": "int256"
            },
            {
              "internalType": "uint256",
              "name": "timestamp",
              "type": "uint256"
            },
            {
              "internalType": "uint256",
              "name": "spotPrice",
              "type": "uint256"
            }
          ],
          "internalType": "struct Types.PortfolioValues",
          "name": "",
          "type": "tuple"
        }
      ],
      "stateMutability": "view",
      "type": "function"
    },
    {
      "inputs": [],
      "name": "jobId",
      "outputs": [
        {
          "internalType": "bytes32",
          "name": "",
          "type": "bytes32"
        }
      ],
      "stateMutability": "view",
      "type": "function"
    },
    {
      "inputs": [
        {
          "internalType": "address",
          "name": "",
          "type": "address"
        }
      ],
      "name": "keeper",
      "outputs": [
        {
          "internalType": "bool",
          "name": "",
          "type": "bool"
        }
      ],
      "stateMutability": "view",
      "type": "function"
    },
    {
      "inputs": [],
      "name": "link",
      "outputs": [
        {
          "internalType": "address",
          "name": "",
          "type": "address"
        }
      ],
      "stateMutability": "view",
      "type": "function"
    },
    {
      "inputs": [],
      "name": "liquidityPool",
      "outputs": [
        {
          "internalType": "contract ILiquidityPool",
          "name": "",
          "type": "address"
        }
      ],
      "stateMutability": "view",
      "type": "function"
    },
    {
      "inputs": [],
      "name": "oracle",
      "outputs": [
        {
          "internalType": "address",
          "name": "",
          "type": "address"
        }
      ],
      "stateMutability": "view",
      "type": "function"
    },
    {
      "inputs": [
        {
          "internalType": "address",
          "name": "_underlying",
          "type": "address"
        },
        {
          "internalType": "address",
          "name": "_strike",
          "type": "address"
        }
      ],
      "name": "requestPortfolioData",
      "outputs": [
        {
          "internalType": "bytes32",
          "name": "requestId",
          "type": "bytes32"
        }
      ],
      "stateMutability": "nonpayable",
      "type": "function"
    },
    {
      "inputs": [
        {
          "internalType": "address",
          "name": "_asset",
          "type": "address"
        },
        {
          "internalType": "string",
          "name": "_stringVersion",
          "type": "string"
        }
      ],
      "name": "setAddressStringMapping",
      "outputs": [],
      "stateMutability": "nonpayable",
      "type": "function"
    },
    {
      "inputs": [
        {
          "internalType": "contract IAuthority",
          "name": "_newAuthority",
          "type": "address"
        }
      ],
      "name": "setAuthority",
      "outputs": [],
      "stateMutability": "nonpayable",
      "type": "function"
    },
    {
      "inputs": [
        {
          "internalType": "uint256",
          "name": "_fee",
          "type": "uint256"
        }
      ],
      "name": "setFee",
      "outputs": [],
      "stateMutability": "nonpayable",
      "type": "function"
    },
    {
      "inputs": [
        {
          "internalType": "address",
          "name": "_keeper",
          "type": "address"
        },
        {
          "internalType": "bool",
          "name": "_auth",
          "type": "bool"
        }
      ],
      "name": "setKeeper",
      "outputs": [],
      "stateMutability": "nonpayable",
      "type": "function"
    },
    {
      "inputs": [
        {
          "internalType": "address",
          "name": "_link",
          "type": "address"
        }
      ],
      "name": "setLink",
      "outputs": [],
      "stateMutability": "nonpayable",
      "type": "function"
    },
    {
      "inputs": [
        {
          "internalType": "address",
          "name": "_liquidityPool",
          "type": "address"
        }
      ],
      "name": "setLiquidityPool",
      "outputs": [],
      "stateMutability": "nonpayable",
      "type": "function"
    },
    {
      "inputs": [
        {
          "internalType": "address",
          "name": "_oracle",
          "type": "address"
        }
      ],
      "name": "setOracle",
      "outputs": [],
      "stateMutability": "nonpayable",
      "type": "function"
    },
    {
      "inputs": [
        {
          "internalType": "string",
          "name": "_jobId",
          "type": "string"
        }
      ],
      "name": "setjobId",
      "outputs": [],
      "stateMutability": "nonpayable",
      "type": "function"
    },
    {
      "inputs": [
        {
          "internalType": "address",
          "name": "",
          "type": "address"
        }
      ],
      "name": "stringedAddresses",
      "outputs": [
        {
          "internalType": "string",
          "name": "",
          "type": "string"
        }
      ],
      "stateMutability": "view",
      "type": "function"
    },
    {
      "inputs": [
        {
          "internalType": "uint256",
          "name": "_amount",
          "type": "uint256"
        },
        {
          "internalType": "address",
          "name": "_target",
          "type": "address"
        }
      ],
      "name": "withdrawLink",
      "outputs": [],
      "stateMutability": "nonpayable",
      "type": "function"
    }
  ],
  "bytecode": "0x608060405260016005553480156200001657600080fd5b5060405162001e9d38038062001e9d833981016040819052620000399162000214565b600080546001600160a01b0319166001600160a01b03831690811790915560405190815281907f2f658b440c35314f52658ea8a740e05b284cdc84dc9ae01e891f21b8933e7cad9060200160405180910390a1506001600160a01b038216620000ac57620000a662000120565b620000c8565b600380546001600160a01b0319166001600160a01b0384161790555b600b80546001600160a01b0319166001600160a01b038716179055620000ee84620001c1565b60085550600991909155600a80546001600160a01b0319166001600160a01b03909216919091179055506200035b9050565b620001bf73c89bd4e1632d3a43cb03aaad5262cbe4038bc5716001600160a01b03166338cc48316040518163ffffffff1660e01b8152600401602060405180830381865afa15801562000177573d6000803e3d6000fd5b505050506040513d601f19601f820116820180604052508101906200019d919062000336565b600380546001600160a01b0319166001600160a01b0392909216919091179055565b565b805160009082908203620001d85750600092915050565b50506020015190565b80516001600160a01b0381168114620001f957600080fd5b919050565b634e487b7160e01b600052604160045260246000fd5b600080600080600060a086880312156200022d57600080fd5b6200023886620001e1565b602087810151919650906001600160401b03808211156200025857600080fd5b818901915089601f8301126200026d57600080fd5b815181811115620002825762000282620001fe565b604051601f8201601f19908116603f01168101908382118183101715620002ad57620002ad620001fe565b816040528281528c86848701011115620002c657600080fd5b600093505b82841015620002ea5784840186015181850187015292850192620002cb565b82841115620002fc5760008684830101525b809950505050505050604086015192506200031a60608701620001e1565b91506200032a60808701620001e1565b90509295509295909350565b6000602082840312156200034957600080fd5b6200035482620001e1565b9392505050565b611b32806200036b6000396000f3fe608060405234801561001057600080fd5b506004361061012c5760003560e01c80637a9e5e4b116100ad578063bf7e214f11610071578063bf7e214f146102de578063c2939d97146102f1578063d1b9e853146102fa578063ddca3f431461030d578063e8cf86081461031657600080fd5b80637a9e5e4b1461027f5780637adbf973146102925780637dc0d1d0146102a557806380a624f5146102b857806394547fcc146102cb57600080fd5b806341ea27ca116100f457806341ea27ca146101ca5780634e133d4d146101dd5780634fc68e7f14610246578063665a11ca1461025957806369fe0e2d1461026c57600080fd5b8063018770201461013157806305c253901461014657806307e6e65d1461016c5780631c4695f41461017f5780633926f28e146101aa575b600080fd5b61014461013f3660046115a8565b610349565b005b6101596101543660046115c5565b6103a6565b6040519081526020015b60405180910390f35b61014461017a3660046115fe565b6105e1565b600a54610192906001600160a01b031681565b6040516001600160a01b039091168152602001610163565b6101bd6101b83660046115a8565b61083e565b60405161016391906116c3565b6101446101d83660046116d6565b6108d8565b6101f06101eb3660046115c5565b61095c565b6040516101639190600060e082019050825182526020830151602083015260408301516040830152606083015160608301526080830151608083015260a083015160a083015260c083015160c083015292915050565b61014461025436600461179e565b610a15565b600c54610192906001600160a01b031681565b61014461027a3660046117d3565b610a5b565b61014461028d3660046115a8565b610a97565b6101446102a03660046115a8565b610aed565b600b54610192906001600160a01b031681565b6101446102c63660046117ec565b610b43565b6101446102d93660046115a8565b610bb2565b600054610192906001600160a01b031681565b61015960085481565b61014461030836600461184a565b610bdc565b61015960095481565b6103396103243660046115a8565b600e6020526000908152604090205460ff1681565b6040519015158152602001610163565b610351610c0f565b600c80546001600160a01b0319166001600160a01b0383169081179091556040519081527fe926a1c76b7cba5ee912418709df854ad32aab2035491b1d0ce9c0117735452f906020015b60405180910390a150565b60006103b0610cb7565b60006103c6600854306307e6e65d60e01b610e0d565b6001600160a01b0385166000908152600d60205260408120805492935090916103ee90611878565b80601f016020809104026020016040519081016040528092919081815260200182805461041a90611878565b80156104675780601f1061043c57610100808354040283529160200191610467565b820191906000526020600020905b81548152906001019060200180831161044a57829003601f168201915b5050506001600160a01b0387166000908152600d60205260408120805494955090939092506104969150611878565b80601f01602080910402602001604051908101604052809291908181526020018280546104c290611878565b801561050f5780601f106104e45761010080835404028352916020019161050f565b820191906000526020600020905b8154815290600101906020018083116104f257829003601f168201915b5050505050905061057360405180604001604052806008815260200167195b991c1bda5b9d60c21b8152506040518060400160405280601081526020016f706f7274666f6c696f2d76616c75657360801b81525085610e329092919063ffffffff16565b60408051808201909152600a815269756e6465726c79696e6760b01b60208201526105a090849084610e32565b604080518082019091526006815265737472696b6560d01b60208201526105c990849083610e32565b6105d583600954610e50565b93505050505b92915050565b60008981526006602052604090205489906001600160a01b0316331461065f5760405162461bcd60e51b815260206004820152602860248201527f536f75726365206d75737420626520746865206f7261636c65206f6620746865604482015267081c995c5d595cdd60c21b60648201526084015b60405180910390fd5b60008181526006602052604080822080546001600160a01b03191690555182917f7cc135e0cebb02c3480ae5d74d377283180a2601f8f644edf7987b009316c63a91a260006040518060e0016040528089815260200188815260200187815260200186815260200185815260200142815260200184815250905080600760008c6001600160a01b03166001600160a01b0316815260200190815260200160002060008b6001600160a01b03166001600160a01b03168152602001908152602001600020600082015181600001556020820151816001015560408201518160020155606082015181600301556080820151816004015560a0820151816005015560c08201518160060155905050600c60009054906101000a90046001600160a01b03166001600160a01b0316634da2df786040518163ffffffff1660e01b8152600401600060405180830381600087803b1580156107bb57600080fd5b505af11580156107cf573d6000803e3d6000fd5b5050604080518b8152602081018b905290810189905260608101889052608081018790526001600160a01b03808d1693508d1691507fec5da05d5d82ced9f6369cfcc2f9d0cad94c0256c7ac3a81d6681bd57b2c33749060a00160405180910390a35050505050505050505050565b600d602052600090815260409020805461085790611878565b80601f016020809104026020016040519081016040528092919081815260200182805461088390611878565b80156108d05780601f106108a5576101008083540402835291602001916108d0565b820191906000526020600020905b8154815290600101906020018083116108b357829003601f168201915b505050505081565b6108e0610c0f565b600a5460405163a9059cbb60e01b81526001600160a01b038381166004830152602482018590529091169063a9059cbb906044016020604051808303816000875af1158015610933573d6000803e3d6000fd5b505050506040513d601f19601f8201168201806040525081019061095791906118ac565b505050565b61099c6040518060e00160405280600081526020016000815260200160008152602001600081526020016000815260200160008152602001600081525090565b506001600160a01b039182166000908152600760209081526040808320939094168252918252829020825160e081018452815481526001820154928101929092526002810154928201929092526003820154606082015260048201546080820152600582015460a082015260069091015460c082015290565b610a1d610c0f565b610a2681610e71565b60088190556040519081527f3f65354ad8878ee58ec2edb43f1061482ae0944d2888b5a9655a240c94e68c9b9060200161039b565b610a63610c0f565b60098190556040518181527e172ddfc5ae88d08b3de01a5a187667c37a5a53989e8c175055cb6c993792a79060200161039b565b610a9f610c0f565b600080546001600160a01b0319166001600160a01b0383169081179091556040519081527f2f658b440c35314f52658ea8a740e05b284cdc84dc9ae01e891f21b8933e7cad9060200161039b565b610af5610c0f565b600b80546001600160a01b0319166001600160a01b0383169081179091556040519081527fd3b5d1e0ffaeff528910f3663f0adace7694ab8241d58e17a91351ced2e080319060200161039b565b610b4b610c0f565b6001600160a01b0382166000908152600d602090815260409091208251610b74928401906114bc565b507fb78094c7ba0f335356d4fc380c69227a459c613cac98e1e758770ba486a8e40a8282604051610ba69291906118c9565b60405180910390a15050565b610bba610c0f565b600a80546001600160a01b0319166001600160a01b0392909216919091179055565b610be4610c0f565b6001600160a01b03919091166000908152600e60205260409020805460ff1916911515919091179055565b60008054906101000a90046001600160a01b03166001600160a01b0316630c340a246040518163ffffffff1660e01b8152600401602060405180830381865afa158015610c60573d6000803e3d6000fd5b505050506040513d601f19601f82011682018060405250810190610c8491906118ed565b6001600160a01b0316336001600160a01b031614610cb55760405163075fd2b160e01b815260040160405180910390fd5b565b336000908152600e602052604090205460ff16158015610d5d575060008054906101000a90046001600160a01b03166001600160a01b0316630c340a246040518163ffffffff1660e01b8152600401602060405180830381865afa158015610d23573d6000803e3d6000fd5b505050506040513d601f19601f82011682018060405250810190610d4791906118ed565b6001600160a01b0316336001600160a01b031614155b8015610def575060008054906101000a90046001600160a01b03166001600160a01b031663481c6a756040518163ffffffff1660e01b8152600401602060405180830381865afa158015610db5573d6000803e3d6000fd5b505050506040513d601f19601f82011682018060405250810190610dd991906118ed565b6001600160a01b0316336001600160a01b031614155b15610cb557604051631ea2564f60e31b815260040160405180910390fd5b610e15611540565b610e1d611540565b610e2981868686610e90565b95945050505050565b6080830151610e419083610ed6565b60808301516109579082610ed6565b600454600090610e6a906001600160a01b03168484610eed565b9392505050565b805160009082908203610e875750600092915050565b50506020015190565b610e98611540565b610ea88560800151610100610f7e565b50508284526001600160a01b03821660208501526001600160e01b031981166040850152835b949350505050565b610ee38260038351610fe3565b61095782826110f8565b600554600090610efe816001611920565b60055583516040808601516080870151519151600093633c6d41b960e01b93610f34938693849392899160029190602401611938565b60408051601f198184030181529190526020810180516001600160e01b03166001600160e01b0319909316929092179091529050610f748683868461111f565b9695505050505050565b604080518082019091526060815260006020820152610f9e60208361198d565b15610fc657610fae60208361198d565b610fb99060206119af565b610fc39083611920565b91505b506020828101829052604080518085526000815290920101905290565b60178167ffffffffffffffff161161100e576110088360e0600585901b16831761127d565b50505050565b60ff8167ffffffffffffffff161161104c57611035836018611fe0600586901b161761127d565b506110088367ffffffffffffffff831660016112a2565b61ffff8167ffffffffffffffff161161108b57611074836019611fe0600586901b161761127d565b506110088367ffffffffffffffff831660026112a2565b63ffffffff8167ffffffffffffffff16116110cc576110b583601a611fe0600586901b161761127d565b506110088367ffffffffffffffff831660046112a2565b6110e183601b611fe0600586901b161761127d565b506110088367ffffffffffffffff831660086112a2565b604080518082019091526060815260006020820152610e6a838460000151518485516112c8565b6040516bffffffffffffffffffffffff193060601b1660208201526034810184905260009060540160408051808303601f1901815282825280516020918201206000818152600690925291812080546001600160a01b0319166001600160a01b038a1617905590925082917fb5e6e01e79f91267dc17b4e6314d5d4d03593d2ceee0fbb452b750bd70ea5af99190a2600354604051630200057560e51b81526001600160a01b0390911690634000aea0906111e2908890879087906004016119c6565b6020604051808303816000875af1158015611201573d6000803e3d6000fd5b505050506040513d601f19601f8201168201806040525081019061122591906118ac565b610ece5760405162461bcd60e51b815260206004820152602360248201527f756e61626c6520746f207472616e73666572416e6443616c6c20746f206f7261604482015262636c6560e81b6064820152608401610656565b604080518082019091526060815260006020820152610e6a83846000015151846113b2565b604080518082019091526060815260006020820152610ece84856000015151858561140d565b60408051808201909152606081526000602082015282518211156112eb57600080fd5b60208501516112fa8386611920565b111561132d5761132d8561131d876020015187866113189190611920565b61148e565b6113289060026119ed565b6114a5565b60008086518051876020830101935080888701111561134c5787860182525b505050602084015b6020841061138c578051825261136b602083611920565b9150611378602082611920565b90506113856020856119af565b9350611354565b51815160001960208690036101000a019081169019919091161790525083949350505050565b604080518082019091526060815260006020820152836020015183106113e7576113e7848560200151600261132891906119ed565b8351805160208583010184815350808503611403576001810182525b5093949350505050565b60408051808201909152606081526000602082015260208501516114318584611920565b1115611445576114458561131d8685611920565b6000600161145584610100611af0565b61145f91906119af565b90508551838682010185831982511617815250805184870111156114835783860181525b509495945050505050565b60008183111561149f5750816105db565b50919050565b81516114b18383610f7e565b5061100883826110f8565b8280546114c890611878565b90600052602060002090601f0160209004810192826114ea5760008555611530565b82601f1061150357805160ff1916838001178555611530565b82800160010185558215611530579182015b82811115611530578251825591602001919060010190611515565b5061153c92915061157b565b5090565b6040805160a0810182526000808252602080830182905282840182905260608084018390528451808601909552845283015290608082015290565b5b8082111561153c576000815560010161157c565b6001600160a01b03811681146115a557600080fd5b50565b6000602082840312156115ba57600080fd5b8135610e6a81611590565b600080604083850312156115d857600080fd5b82356115e381611590565b915060208301356115f381611590565b809150509250929050565b60008060008060008060008060006101208a8c03121561161d57600080fd5b8935985060208a013561162f81611590565b975060408a013561163f81611590565b989b979a5097986060810135985060808101359760a0820135975060c0820135965060e08201359550610100909101359350915050565b6000815180845260005b8181101561169c57602081850181015186830182015201611680565b818111156116ae576000602083870101525b50601f01601f19169290920160200192915050565b602081526000610e6a6020830184611676565b600080604083850312156116e957600080fd5b8235915060208301356115f381611590565b634e487b7160e01b600052604160045260246000fd5b600082601f83011261172257600080fd5b813567ffffffffffffffff8082111561173d5761173d6116fb565b604051601f8301601f19908116603f01168101908282118183101715611765576117656116fb565b8160405283815286602085880101111561177e57600080fd5b836020870160208301376000602085830101528094505050505092915050565b6000602082840312156117b057600080fd5b813567ffffffffffffffff8111156117c757600080fd5b610ece84828501611711565b6000602082840312156117e557600080fd5b5035919050565b600080604083850312156117ff57600080fd5b823561180a81611590565b9150602083013567ffffffffffffffff81111561182657600080fd5b61183285828601611711565b9150509250929050565b80151581146115a557600080fd5b6000806040838503121561185d57600080fd5b823561186881611590565b915060208301356115f38161183c565b600181811c9082168061188c57607f821691505b60208210810361149f57634e487b7160e01b600052602260045260246000fd5b6000602082840312156118be57600080fd5b8151610e6a8161183c565b6001600160a01b0383168152604060208201819052600090610ece90830184611676565b6000602082840312156118ff57600080fd5b8151610e6a81611590565b634e487b7160e01b600052601160045260246000fd5b600082198211156119335761193361190a565b500190565b60018060a01b038816815286602082015285604082015263ffffffff60e01b851660608201528360808201528260a082015260e060c0820152600061198060e0830184611676565b9998505050505050505050565b6000826119aa57634e487b7160e01b600052601260045260246000fd5b500690565b6000828210156119c1576119c161190a565b500390565b60018060a01b0384168152826020820152606060408201526000610e296060830184611676565b6000816000190483118215151615611a0757611a0761190a565b500290565b600181815b80851115611a47578160001904821115611a2d57611a2d61190a565b80851615611a3a57918102915b93841c9390800290611a11565b509250929050565b600082611a5e575060016105db565b81611a6b575060006105db565b8160018114611a815760028114611a8b57611aa7565b60019150506105db565b60ff841115611a9c57611a9c61190a565b50506001821b6105db565b5060208310610133831016604e8410600b8410161715611aca575081810a6105db565b611ad48383611a0c565b8060001904821115611ae857611ae861190a565b029392505050565b6000610e6a8383611a4f56fea26469706673582212209032f9536f1ef2a1d765aed95ae26abd22c618174736102b6073a7561e36d40f64736f6c634300080e0033",
  "linkReferences": {},
  "deployedLinkReferences": {}
}